:020000040000FA
:0300000002008F6C
:0300130002033BAA
:10003B000203A200000080FBE4900F00784F7901CF
:10004B008002F0A3D8FCD9FA7A4E7B0F9000BF78D0
:10005B003179018015E493A3AD82AE838A828B83C1
:10006B00F0A3AA82AB838D828E83D8E9D9E7758200
:10007B009A75830674001200A175823E7583007415
:10008B00001200A175D0007581BF750C00750D0FA6
:10009B00759F00020043C09FF59FE473D09F22D051
:1000AB0083D082C09FE493C0E0740193C0E07402DC
:1000BB0093F59F225151513A000A0074656D703AC5
:1000CB00000454656D70657261747572653A004811
:1000DB00756D69646974793A002E0043207C2000A9
:1000EB0025000A001200AAD403001200AAFD030087
:1000FB001200AA0F04001200AA3604001200AAB3C1
:10010B0004001200AADF07001200AAEE070012007B
:10011B00AA6E08001200AA9308001200AAD40800C5
:10012B00CAC0E0E6F0A308DAFAD0E0FA22CAC0E0CF
:10013B00E0A3C582CCC582C583CDC583F0A3C582A0
:10014B00CCC582C583CDC583DAE6D0E0CA22250CA7
:10015B0010AF08F50C400C150D8008F50C4002157E
:10016B000DD2AF2200C0D0250C10AF08F50C500CEF
:10017B00050D8008F50C5002050DD2AFD0D022250D
:10018B000CF58210AF08F50C400C150D8008F50C22
:10019B004002150DD2AF850D8322250CF582E43577
:1001AB000DF58322250CFAE4350DFB22250CFCE41E
:1001BB00350DFD22E473250CC582C0E0E50D34FF3F
:1001CB00C583C0E0E50CC3958224F810AF08858386
:1001DB000D85820C800885830D85820CD2AFCEF005
:1001EB00A3E520F0A37808E608F0A3DEFAEFF0A36E
:1001FB00E58124FAF8E608F0A3E608F0A3E608F098
:10020B00A30808E608F0A3E608F0A315811581D032
:10021B00E0FED0E0F8158115811581E8C0E0EEC055
:10022B00E022850D83850C82E0A3FEE0A3F5207808
:10023B0008E0A3F608DFFAE0A3FFE0A3C0E0E0A329
:10024B00C0E0E0A3C0E0E0A3C0E0E0A3C0E010AFDB
:10025B000885820C85830D800885820C85830DD2E1
:10026B00AFD083D0820200A7C0D0250CC582C0E0DE
:10027B00E50D34FFC583C0E0E50CC3958224F31074
:10028B00AF0885830D85820C800885830D85820CD4
:10029B00D2AFC8F0A3E9F0A3EAF0A3EBF0A379087F
:1002AB00E709F0A3D8FAECF0A3EDF0A3EEF0A3EF7F
:1002BB00F0A3D0E0F0A3D0E0F0A3D0E0F0A3E520D2
:1002CB00F0A3E5F0F0A322850D83850C82E0C0E05E
:1002DB00A3E0F9A3E0FAA3E0FBA37808E0F608A3F8
:1002EB00DFFAE0FCA3E0FDA3E0FEA3E0FFA3E0C088
:1002FB00E0A3E0C0E0A3E0F5D0A3E0F520A3E0A3EA
:10030B00F5F010AF0885830D85820C800885830D71
:10031B0085820CD2AFD082D083D0E0F8D0E032749B
:10032B00028000C0E0F40412018AD0E012012B22FB
:10033B00C0E074F2120273C28B900F44C3E094328C
:10034B00A3E09400A2D265D033400A900F4474000E
:10035B00F0A37400F0E5C1C0E0900F44E02412F864
:10036B00A3E0340FF988828983D0E0F0900F44E04A
:10037B002401F0A3E03400F0900F4AE0F8A3E0F979
:10038B00E849600E900F4AE0F8A3E0F583888212EB
:10039B0001BF7F010202D2C0E074F2120273C2E904
:1003AB00900F487400F0A37400F0900F4CE0F8A38A
:1003BB00E0F9E849600E900F4CE0F8A3E0F5838874
:1003CB00821201BF7F010202D275DA1075DB004386
:1003DB00E50475E4028011E5AFA2E050FA53AFFEDD
:1003EB00EA24FFFAEB34FFFBEA4B70EB75E40002F7
:1003FB0000A7C082C0837A0A7B001200EFD083D0A3
:10040B00820200A774F71201C1EAFEEBFF80077AA4
:10041B00E87B031200EFEEF8EFF9E824FFFEE93476
:10042B00FFFFE84970E97F0102022D74F71201C149
:10043B007E008016900F0FE0C333900F0FF0900FDC
:10044B0001E0F8900F0FE048F00EEEC39408505304
:10045B00900F007402F0A286400F900F00E0F8742A
:10046B000128900F00F0E870ED1200F51200F51264
:10047B0000F5900F017400F0A2865006900F0174E6
:10048B0001F0900F007402F0A286500F900F00E065
:10049B00F8740128900F00F0E870ED900F00E06405
:1004AB000170917F0102022D74F61201C174FD12CD
:1004BB000159750803750900780812032A7C007D21
:1004CB000074021201AF120125740212016FC28671
:1004DB007A137B001200FBD28653FD7F1200F512BC
:1004EB0000F51200F51200F5A286E4332430C0E0CB
:1004FB00850C82850D83D0E0F07C047D007A4E7BE9
:10050B000F12011F7C027D00AA0CAB0D12011F7C88
:10051B00017D007A537B0F12011FA2865003020646
:10052B0069900F007402F0A286400F900F00E0F864
:10053B00740128900F00F0E870ED900F007402F03A
:10054B00A286500F900F00E0F8740128900F00F076
:10055B00E870ED120101900F0FE0900F0CF01201FB
:10056B0001900F0FE0900F0DF0120101900F0FE0B3
:10057B00900F0AF0120101900F0FE0900F0BF01289
:10058B000101900F0FE0900F0EF0D286900F0DE04F
:10059B00FA900F0CE0F9900F0BE0F8900F0AE0289F
:1005AB00292A900F01F0900F01E02430C0E0850C58
:1005BB0082850D83D0E0F07C057D007A557B0F1290
:1005CB00011F7C027D00AA0CAB0D12011F7C017D6B
:1005DB00007A537B0F12011F900F01E0F8900F0E62
:1005EB00E0687028900F0CE0900F07F0900F0DE073
:1005FB00900F08F0900F0AE0900F05F0900F0BE0B2
:10060B00900F06F0900F0EE0900F09F075F00A9026
:10061B000F05E084900F04F0900F05E075F00A844D
:10062B00E5F0900F5BF0900F06E075F00A84E5F0B3
:10063B00900F10F075F00A900F07E084900F02F006
:10064B00900F07E075F00A84E5F0900F03F0900F20
:10065B0008E075F00A84E5F0900F11F08024900FFC
:10066B00047400F0900F5B7400F0900F107400F0A6
:10067B00900F027400F0900F037400F0900F117440
:10068B0000F043FD80740312016F7F0202022D7490
:10069B00E0120159900F5C74131201B7740D120123
:1006AB0038900F6974091201B7740A1201381201DC
:1006BB000D7AE87B031200FB120113750803750911
:1006CB0000780812032A7C007D0074051201AF121A
:1006DB000125740212016F75080375090078081261
:1006EB00032A7C007D0074081201AF1201257402ED
:1006FB0012016F750803750900780812032A7C0034
:10070B007D0074021201AF120125740212016F12E7
:10071B000107900F04E02430C0E074031201A5D050
:10072B00E0F0900F5BE02430C0E074041201A5D020
:10073B00E0F0900F10E02430C0E074061201A5D059
:10074B00E0F0900F02E02430C0E0850C82850D8331
:10075B00D0E0F0900F03E02430C0E074011201A54B
:10076B00D0E0F07C0C7D0074131201AF12011F7CE2
:10077B00027D0074031201AF12011F7C017D007A10
:10078B00737B0F12011F7C017D0074061201AF12E7
:10079B00011F7C047D007A757B0F12011F7C097D84
:1007AB000074091201AF12011F7C027D00AA0CAB71
:1007BB000D12011F7C017D007A7A7B0F12011F7CC9
:1007CB00017D007A7C7B0F12011F7A887B1312004C
:1007DB00FB0206C653C6BFE5C6A2E640FA53C6F8EF
:1007EB000200A7C082C0837800790080127412289F
:1007FB00F582740F39F5837400F008E8700109C3B2
:10080B00E89432E99400A2D265D03340E0900F4ACD
:10081B007400F0A37400F0900F4C7400F0A37400FC
:10082B00F0900F467400F0A37400F0900F46E0F8C0
:10083B00A3E0F9900F44E8F0A3E9F053F1FE43F382
:10084B000443F30853FF3F43868043C50B75C2D85F
:10085B00C2E9438640D2AA439A04D2AFD083D08256
:10086B000200A7C082C083900F487401F0A37400EC
:10087B00F089C1900F48E064017004A3E06400604C
:10088B00F2D083D0820200A774F41201C18A0A8BC2
:10089B000BECFEEDFF7508007509008019E50A25C4
:1008AB0008F582E50B3509F583E0F9120119050806
:1008BB00E50870020509C3E5089EE5099FA2D2650C
:1008CB00D03340D97F0402022DC082C083850C82B5
:1008DB00850D83E0F8A3E0F9E84960128A828B83E7
:1008EB00ECF0A3E824FF18E934FFF94870F2D08349
:0508FB00D0820200A7FD
:040000050000008F68
:00000001FF
