:020000040000FA
:06000000020F6A0205E791
:03002B00020D22A1
:0300530002051C87
:1000830002057B0100F0FF0700080000FFFF0000EE
:10009300070400000003000147726F757000FF043E
:1000A30000100020FD000200007614000000000094
:1000B30000D61400000000000052140000000000ED
:1000C30000000000005E14000000000000000000BB
:1000D30000000006FFFF1E015A1800007E180000F2
:1000E300000000000000000000000000000000000D
:1000F300102020202020202020202020202020200D
:100103002001010401000100052981012682010467
:1001130000001618000000E8030000FFFF9018011C
:1001230088130000E803000064006400B801A0BB6A
:100133000D00A0BB0D0002020207040101051E020F
:10014300051E020A0A0101010809080103B80B028E
:10015300803E0102FEFFE8030A050001FFFF010ADA
:100163001401E00105030101FF0F10FEFFAD2F0095
:10017300000000452F00000000FF000000FF0012F8
:100183000F7A601D120F897005191919801A120E42
:100193001E701F120E32C37003E66733191919401C
:1001A300071818182208080874FFF618F618F61826
:1001B300F622120E326017121017702192F01210ED
:1001C300207019501720F014080808090909E7F6E8
:1001D3001819E7F61819E7F61819E7F6221210208E
:1001E30060E6E869701F0808E62480F608E436F63E
:1001F30018547FB47F0CE654806007F6E418F618B1
:10020300F622181822E9C6CC08C6CD08C6CE08C601
:10021300CFC0E0E8C0E0EAC0E0EBC0E009E9F809DC
:10022300E7FA09E7FBE6F918E6F8C3EC98ED99EE6F
:100233009AEBC2E7F5F0EFC2E795F0500E600CEBD6
:10024300CFFBEACEFAE9CDF9E8CCF8EAA2E7D2E7A8
:10025300FAEB33FB13F5F0EEA2E7D2E7FEEF33FF41
:10026300C5F013A2E730E601B313C5F0C3C0E0C085
:10027300F07F00C39BFB605E9418600F401D146009
:100283001AD0E023F9D0E0F80203638AF0E948606A
:1002930003D2F0E4AFF0FAF9F8803BEB30E40D89D8
:1002A300F0EA6003D2F0E4AFF0F9CAF8EB30E30D03
:1002B30088F0EF6002D2F0AFF0E4CAC9F8EB54075C
:1002C3006014FBC3EA13FAE913F9E813F8EF1350C8
:1002D30002D2E0FFDBEDD0E0C0E030E739C3E49FBA
:1002E300FFF5F0EC98FC42F0ED99FD42F0EE9AFE3A
:1002F30042F0D0E0F9D0E0F8E5F0607AE923F9EED6
:1003030020E742D8028067C3EF33FFEC33FCED33C1
:10031300FDEE33FE80EAEC28FCED39FDEE3AFED02B
:10032300E023F9D0E0F84002801BC3EE13FEED1387
:10033300FDEC13FCEF135002D2E0FF08B800067F78
:100343007F74FF802EEF3350178CF020F002601083
:100353000CBC000C0DBD00080EBE000408E860DFF5
:10036300E933E813FFEE2313FE4F4D4C8008E954A5
:1003730080FFE4FEFDFCEE33EF33F47004FCFD7EFE
:1003830080D0E0FBD0E0FAD0E0F8D0E0CFC618CEC2
:10039300C618CDC618CCC6F92200120F7A604F12C8
:1003A3000F896012E7548066F6120E1E7011121048
:1003B30017703B090909F4F618F618F618F6221215
:1003C3000E32701512102008080860EAE6447FF622
:1003D30018768018E4F618F6221210206016121010
:1003E300177012E4F608F608F608E65480F60909D1
:1003F3000918181822EAC0E0EBC0E0ECC0E0EDC039
:10040300E0E687F0A4FBACF008E687F0A42CFCE45C
:1004130035F0FA1809E687F0A42C4B60027401CA80
:1004230035F0FCE433FB09E687F0D2F7A42CCB3597
:10043300F0FC1908E687F0A42BCC35F0FBE433FD80
:100443000819E687F0D2E7A42C4ACB35F0CD340067
:10045300FC09E687F0D2E7A42DCC35F0FDE433FAAE
:100463000918E687F0D2F7A42CCD35F0CA3400FC86
:1004730008E687F0D2E7D2F7A42ACC35F07A7E20BB
:10048300E70B0ACB33CBCD33CDCC33CC33CB33508B
:10049300147004ED30E00ED2F1E4CD3DCDCC3CCC74
:1004A3003B5005DA05C2F1EB547FC63308E63392BD
:1004B300F0FBE73309E733C39A502D2B70190C0D6A
:1004C3004C4D70151806E608C333700D20F10AA2CF
:1004D300F013F6E418800B4024E4F630F002768043
:1004E30018F618F618F68024D33B14501074FFA2A4
:1004F300F013F6187680E418F618F6800FA2F013BE
:10050300F618E63303F618ECF618EDF6D0E0FDD056
:10051300E0FCD0E0FBD0E0FA22C0E074F112088DD9
:10052300A2AFE433F509D2AF85A708AFA1EF550811
:10053300FE74105E60061211E275A1EF74085E602E
:10054300081211E875A1F78024EFA2E092F0E50804
:10055300A2E082F05017906198E0F890049AE0C30B
:1005630098A2D265D0335002E8F075A1FEE509A246
:10057300E092AF7F02020949C0E074F212088DA233
:10058300AFE433FED2AF9061A4E0F8759B00E59130
:1005930058540860087591F71212368023E5915874
:1005A300541060087591EF12123C8014E591A2E09B
:1005B30092F0E8A2E082F05007E0C2E0F012138666
:1005C3009061A3E0F8E5E9585404600E12135C75DA
:1005D300E9FB906193E0A2E640F2EEA2E092AF7FE6
:1005E30001020949C0E074F212088DA2AFE433FEA0
:1005F300D2AF9061A5E0F8E5BF585404600675BF1B
:10060300FB12139E80D4C3E498F8E499F912064AC6
:100613008026C3E49AFAE49BFBE920E7E912064A41
:10062300E498F8E499F922C3E498F8E499F91206F6
:100633004AE498F8E499F9C3E49AFAE49BFB22EBC1
:1006430020E7CFE920E7E0B90010BB0008E88AF013
:1006530084F8AAF022E4FBC8FA22EB70227B10C8CC
:1006630033C8C933C9335007C39AC3DBF280069A30
:1006730050012ADBEAC833F4C8C933F4C9FA227536
:10068300F008E4C833C8C933C933C99AC99B5004B5
:10069300C92AC93BD5F0ECFBC833F4C8E4C9FA2234
:1006A3001206E320F01430E72B74FFFCFBFA747F8F
:1006B3008022E4FCFBFA7480801AB48008BC00F248
:1006C300BB00EF800F50EBF9E4C39AFAE49BFBE421
:1006D3009CFCE499C6CC18C6CB18C6CA18C6F92226
:1006E300E4C9C608CAC608CBC6D3330308CCC6338D
:1006F30092F0C3947F402E94184019C9B90704CAD5
:10070300CBCC225025C309CA33CACB33CBCC33CC91
:1007130033D9F422F4600DC9CCC313CB13CBCA1362
:10072300CAD9F6CC22E4FCFBFA2214FCFBFA220819
:100733000808EAC0E0EBC0E086F0E7A4FA180986EF
:10074300F0E7A42AFA180986F0E7A42AFA1809861A
:10075300F0E7A42AFA1986F0E7A4FBE5F02AFA19D0
:100763000886F0E7A42BFBE5F03AFA190886F0E7D0
:10077300A42BFBE5F03AFA18180986F0E7A4C5F0B4
:100783002BFBE43AFA1908E7C5F0C6A426F6E5F010
:100793003BFBE43AFA1886F0E7A4F6E5F00826F600
:1007A300E43B08F6E43A08F6D0E0FBD0E0FA22E4B2
:1007B300CFC0E0E4CEC0E0E4CDC0E0E4CCC0E0755F
:1007C300F020E626F608E633F608E633F608E633C5
:1007D300F6181818EC33FCED33FDEE33FEEF33FF60
:1007E300C3EC9709ED9709EE9709EF97191919408B
:1007F3000FFFEC97FC09ED97FD09EE97FE1919061B
:10080300D5F0BFECF709EDF709EEF709EFF7191982
:1008130019D0E0FCD0E0FDD0E0FED0E0FF222518A7
:10082300C582C0E0E51934FFC583C0E0E518C39570
:100833008224F810AF088583198582188008858380
:1008430019858218D2AFCEF0A3E520F0A37808E68D
:1008530008F0A3DEFAEFF0A3E58124FAF8E608F046
:10086300A3E608F0A3E608F0A30808E608F0A3E669
:1008730008F0A315811581D0E0FED0E0F8158115AD
:10088300811581E8C0E0EEC0E022C0D02518C58202
:10089300C0E0E51934FFC583C0E0E518C3958224A1
:1008A300F310AF088583198582188008858319851D
:1008B3008218D2AFC8F0A3E9F0A3EAF0A3EBF0A348
:1008C3007908E709F0A3D8FAECF0A3EDF0A3EEF072
:1008D300A3EFF0A3D0E0F0A3D0E0F0A3D0E0F0A327
:1008E300E520F0A3E5F0F0A322E9799EC608CAC685
:1008F30008CBC608CCC6C370207996CACBCC701976
:10090300798ECBCC70137986CC700EF9802ACA33DA
:10091300CACB33CBCC33CC331930E7F2CCCBCA338D
:1009230050147004EA30E00DE4CA3ACACB3BCBCC96
:100933003CCC500209C3E913C6CC182313C6CB1809
:10094300C6CA18C6F922851983851882E0C0E0A3B8
:10095300E0F9A3E0FAA3E0FBA37808E0F608A3DF3D
:10096300FAE0FCA3E0FDA3E0FEA3E0FFA3E0C0E008
:10097300A3E0C0E0A3E0F5D0A3E0F520A3E0A3F556
:10098300F010AF088583198582188008858319853F
:100993008218D2AFD082D083D0E0F8D0E0321210E8
:1009A30002B900030209E0E4900401788D7918800C
:1009B30002F0A3D8FCD9FA7A8D7B1B90008678FDD0
:1009C30079018015E493A3AD82AE838A828B83F091
:1009D300A3AA82AB838D828E83D8E9D9E77582EA95
:1009E3007583FD7404120CB37582A075832C740097
:1009F300120CB3E47375F0108E1A8F1B85821F855A
:100A0300831E851882851983E0CEA3E0CF851F82DC
:100A1300851E83EBC9EAC8EDCBECCAC3E833C8E94A
:100A230033C9EA33CAEB33CBC3EA9EF51DEB9FF51B
:100A33001CB35004AB1CAA1DEC33CCED33CDD5F065
:100A4300DAAE1AAF1B22D083D082ECC0E0EDC0E057
:100A5300E493A3FCE493A3FDED4C600D120B21EC96
:100A630024FFFCED34FFFD80EFE493A3FCE493A3A8
:100A7300FDED4C600D120BBEEC24FFFCED34FFFDCD
:100A830080EFD0E0FDD0E0FCE493A3C0E0E493C0AA
:100A9300E022851983851882E0A3FEE0A3F5207880
:100AA30008E0A3F608DFFAE0A3FFE0A3C0E0E0A3B9
:100AB300C0E0E0A3C0E0E0A3C0E0E0A3C0E010AF6B
:100AC300088582188583198008858218858319D241
:100AD300AFD083D082020CB9D083D082E9C0E0E4E6
:100AE30093A3C386F0C5F095F0F908E493A386F0C9
:100AF300C5F095F0700BE493A3C3994005E9048016
:100B030002A3E475F002A42582F582E5F03583F5AE
:100B130083D0E0F9E493A3C0E0E493C0E022C0E013
:100B2300C3E49396087401939618400FE493667098
:100B33000808740193661870007019A3A3C3E493A3
:100B430096087401939618A3A3400DD0E0D0E0D08B
:100B5300E0020A85A3A3A3A3A3A3D0E02274048085
:100B63000474028000CCC0E0EDC0E0E518C39CCC67
:100B7300AD1950011D10AF068C188D1980068C1805
:100B83008D19D2AF120C35D0E0FDD0E0FC227402F7
:100B93008000CCC0E0EDC0E0E518C39CCCAD19509B
:100BA300011D10AF068C188D1980068C188D19D273
:100BB300AF120C13D0E0FDD0E0FC22C0E0C0F088FF
:100BC300F0E4936670080874019366187000A8F047
:100BD300A3A3700BD0F0D0E0D0E0D0E0020A85A34D
:100BE300A3D0F0D0E022D083D082CCC0E0E493A3A2
:100BF3006006120C941470FAE493A36006120D9F1E
:100C03001470FAD0E0FCE493A3C0E0E493C0E022C4
:100C1300CAC0E0E493A3C582CCC582C583CDC58396
:100C2300F0A3C582CCC582C583CDC583DAE5D0E008
:100C3300CA22CAC0E0E0A3C582CCC582C583CDC5A4
:100C430083F0A3C582CCC582C583CDC583DAE6D044
:100C5300E0CA22C008C3E096F50808A3E09642085C
:100C630008A3E096420808A3E09645087001D3D094
:100C730008227009080808226016181818C6C3331A
:100C8300C608C633C608C633C608C633C6D5E0EAA7
:100C930022C0E0E493A3D39C5010E493A3C39C40ED
:100CA3000AD0E0D0E0D0E0020C06A3A3A3D0E02258
:100CB300C09FF59FE473D09F22D083D082C09FE46E
:100CC30093C0E0740193C0E0740293F59F2274040F
:100CD300800A74038006740280027401C0E0F40485
:100CE300120CECD0E0120FC5222518F58210AF08C4
:100CF300F518400C15198008F51840021519D2AFE4
:100D03008519832200C0D0251810AF08F518500CA0
:100D130005198008F51850020519D2AFD0D022C0AA
:100D2300E0C0D0E8C0E0A8A8D2AFC2C7E8A2E7926B
:100D3300AFD0E0F8D0D0D0E032BB0102E722C082CE
:100D4300C08389828A83BB0003E08002E493D0835B
:100D5300D082226016080808C6C313C618C613C675
:100D630018C613C618C613C6D5E0EA22C3E0C69652
:100D7300F608A3E0C696F608A3E0C696F608A3E035
:100D8300C696F6222518F8E43519F9222518FAE44F
:100D93003519FB222518FCE43519FD22C0E0E49344
:100DA300A36C7009D0E0D0E0D0E0020C06A3A3D07E
:100DB300E022251810AF08F518400C15198008F526
:100DC3001840021519D2AF22E76670100809E766CA
:100DD300700A0809E76670040809E76622C3E0960B
:100DE30008A3E09608A3E09608A3E096A2D265D0F4
:100DF3003322E066701008A3E066700A08A3E06679
:100E0300700408A3E06622C3E096F008A3E096F01E
:100E130008A3E096F008A3E096F022181818E60855
:100E230046087009E626087005E633F422082219FD
:100E33001919E70947097009E727097005E733F42A
:100E4300220922C3E49396087401939608740293CB
:100E530096087403939622C3E697F60809E697F675
:100E63000809E697F60809E697F622E026F608A3AE
:100E7300E036F608A3E036F608A3E036F622E4935C
:100E8300F608740193F608740293F608740393F654
:100E930022700422600D18C6C333C608C633C6D5F4
:100EA300E0F41822E657F60809E657F60809E6576C
:100EB300F60809E657F622E056F608A3E056F608C8
:100EC300A3E056F608A3E056F622E056F008A3E0A6
:100ED30056F008A3E056F008A3E056F022E627F602
:100EE3000809E637F60809E637F60809E637F62271
:100EF300E026F008A3E036F008A3E036F008A3E00C
:100F030036F022E647F60809E647F60809E647F60B
:100F13000809E647F622E4C396F608E496F608E4E1
:100F230096F608E496F622600D08C6A2E713C618E3
:100F3300C613C6D5E0F322C6F4C608C6F4C608C66F
:100F4300F4C608C6F4C622C3E7960809E79608095B
:100F5300E7960809E79622C3E09608A3E09608A35C
:100F6300E09608A3E0962275D00075813F751801BD
:100F7300751904000209A1E6084608C3134608339D
:100F83006002E633F422E7094709C31347093360D4
:100F930002E733F422600C08C6C313C618C613C68F
:100FA300D5E0F422E6F008A3E6F008A3E6F008A3F0
:100FB300E6F022E0F608A3E0F608A3E0F608A3E0D3
:100FC300F622CAC0E0E6F0A308DAFAD0E0FA22E09B
:100FD300FAA3E0FBA3E0FCA3E0FD22EAF0A3EBF01D
:100FE300A3ECF0A3EDF022E0F8A3E0F9A3E0FAA369
:100FF300E0FB22E8F0A3E9F0A3EAF0A3EBF022E59B
:10100300C754F84401F5C77901222518F582E43560
:1010130019F58322E72719471947194722E62618A6
:10102300461846184622C2AF75D69F020000221208
:101033000CBC12DA05120CBC46DA05120CBC9DF18D
:1010430001120CBC19F201120CBC4CF201120CBCC3
:101053007AF201120CBC9EF401120CBCBAF4011218
:101063000CBCFFF401120CBC84F501120CBCD0F5CE
:1010730001120CBC60F601120CBC39F701120CBC56
:101083008AF701120CBCEFF701120CBC62F80112D3
:101093000CBCA6F801120CBCFEF801120CBC20F922
:1010A30001120CBCB0F901120CBC41FA01120CBCC8
:1010B3008DFA01120CBCB9FA01120CBCFAFA011236
:1010C3000CBC9BFC01120CBC7DFD01120CBC59FE37
:1010D30001120CBC1EAC06120CBC39AC06120CBCC3
:1010E3006BAC06120CBC98AC06120CBCBDAC061261
:1010F3000CBCE8AC06120CBC13AD06120CBC43AD21
:1011030006120CBCCDBC06120CBCDEBC06120CBC19
:101113007CBD06120CBC96BD06120CBCF27F0012FD
:101123000CBCE6FF05120CBC78FF05120CBC88FF53
:1011330005120CBC9AFF05120CBCE3FF05120CBC94
:10114300EFB806120CBC73B906120CBCDBB906125D
:101153000CBCF57F00120CBC85A306120CBC93A338
:1011630006120CBC0CA406120CBCE1A406120CBCA7
:10117300B3A606120CBC68BF06120CBC0080061294
:101183000CBC2C8006120CBCC38206120CBC03835D
:1011930006120CBC3F8306120CBC538306120CBC14
:1011A3006C8306120CBC5D8406120CBC0F85061200
:1011B3000CBC238506120CBCB9B206120CBCDDB202
:1011C30006120CBCF6B206120CBC34B306120CBCED
:1011D30064B306120CBC91B306120CBCF7B306122F
:1011E3000CBCFAB306120CBC04B406120CBC11B44A
:1011F30006120CBC22A706120CBC42A706120CBC9A
:1012030081A706120CBC9FA706120CBCBAA7061234
:101213000CBC20A806120CBC2CA806120CBC89A876
:1012230006120CBC98A806120CBCBCA806120CBC77
:101233007DA906120CBC8AA906120CBC9BA9061236
:101243000CBCA2BE06120CBCBABE06120CBCE6BE97
:1012530006120CBC1C8F06120CBC769006120CBC3A
:10126300849006120CBC979006120CBCAC9006122C
:101273000CBCC19006120CBCD49006120CBC50914D
:1012830006120CBCB59106120CBC4B9206120CBC98
:10129300249306120CBC349306120CBC439306121F
:1012A3000CBC3AFF01120CBC5EFF01120CBC86FFA2
:1012B30001120CBCAEFF01120CBCC9A906120CBC76
:1012C300F0A906120CBC0EAA06120CBC7DAA0612CB
:1012D3000CBCAFFC05120CBCC8FC05120CBCD4FC46
:1012E30005120CBCE8FC05120CBC06FD05120CBC77
:1012F30010FD05120CBC1AFD05120CBC2DFD0512C8
:101303000CBCB3FD05120CBC28FE05120CBC57FE29
:1013130005120CBCA5FE05120CBCF4FE05120CBC98
:101323000FFF05120CBC19FF05120CBC2AFF051296
:101333000CBC6DFF05120CBC07BE06120CBCF2E41C
:1013430005120CBC1EE505120CBC3BE505120CBCDA
:101353004EE505120CBC69E505120CBCC3E505128C
:101363000CBCF1E505120CBC01EA05120CBC5FEBE9
:1013730005120CBC91EB05120CBCF4EB05120CBC72
:1013830060ED05120CBC88ED05120CBC9DED051239
:101393000CBCADED05120CBCEDED05120CBC2FEE33
:1013A30005120CBC3FEE05120CBCA5B606120CBC14
:1013B300BFB606120CBCE7B606120CBC00B7061289
:1013C3000CBC24B706120CBC42B706120CBC59B7AE
:1013D30006120CBC87B706120CBCA2B706120CBCD3
:1013E300E9BE06120CBC75FC03120CBC85FC03128F
:1013F3000CBC8AFD03120CBCBCFD03120CBCECFD3F
:1014030003120CBC0FFE03120CBC26FE03120CBC11
:1014130060FE03120CBCC5FE03120CBC07FF0312D3
:101423000CBC4EFF03120CBC7BFF03120CBCA6FFCB
:1014330003120CBC1BB406120CBC39B406120CBC50
:101443009BB406120CBC35B506120CBCE2BB0612EB
:101453000CBCD5B706120CBC1DB806120CBCA5AF4C
:1014630006120CBC06B106120CBC60B506120CBC0D
:1014730085B606120CBC8CDA05120CBC16DE0512FE
:101483000CBC12E005120CBC44E105120CBC1DE2BD
:1014930005120CBCADE305120CBC79E405120CBCBF
:1014A300CDE405120CBCE3AD06120CBC04AE06126F
:1014B3000CBC3EAF06120CBC68AF06120CBC2DBFB1
:1014C30006120CBC3DBF06120CBC47BF06120CBC77
:1014D3004A6E00120CBC4D6E00120CBC2976001231
:1014E3000CBC7B7700120CBCDC7800120CBCB3790B
:1014F30000120CBC8C7A00120CBC757B00120CBC65
:10150300697C00120CBC217D00120CBC517D0012C1
:101513000CBC017F00120CBC55B106120CBC75B19A
:1015230006120CBC89B206120CBC8CB206120CBC9F
:10153300F4BA06120CBC2ABB06120CBC42BB061240
:101543000CBC84BB06120CBC94BB06120CBCD8BBEF
:1015530006120CBC91F505120CBCCBF505120CBCA4
:1015630034F605120CBC53F605120CBC6CF60512CE
:101573000CBC0EF705120CBC17F705120CBC68F770
:1015830005120CBC91F705120CBC9EF705120CBC9E
:101593000FF805120CBC9DF805120CBCEBF80512F4
:1015A3000CBC21F905120CBC82F905120CBCABF979
:1015B30005120CBC22FA05120CBC7EFA05120CBCF7
:1015C300BBFA05120CBCF2FA05120CBC04FB0512A3
:1015D3000CBC16FB05120CBC35FB05120CBC3EFB08
:1015E30005120CBCF9FB05120CBC45FC05120CBC26
:1015F30083FC05120CBC378506120CBC77860612D9
:101603000CBC9A8606120CBCAB8606120CBCCA88AC
:1016130006120CBCEA8806120CBCA5BD06120CBC53
:10162300C2FD02120CBCF8FD02120CBC40FE0212F9
:101633000CBC99FF02120CBCABE904120CBCDCEA33
:1016430004120CBC18EB04120CBCD2EC04120CBC3C
:10165300FCEC04120CBC75EF04120CBCB5EF0412C5
:101663000CBC49F104120CBCE8F104120CBC40F2AE
:1016730004120CBCD3F204120CBC0DF304120CBC08
:101683004FF304120CBCC2F404120CBC42F6041255
:101693000CBC7FF804120CBCADF804120CBCD9F8D6
:1016A30004120CBCE2F804120CBC3FF904120CBC8B
:1016B300CFF904120CBC0BFD04120CBC8DFD0412FB
:1016C3000CBCD6FF04120CBCECFF04120CBCEF974D
:1016D30006120CBC059806120CBCA99806120CBC89
:1016E300E89806120CBC059906120CBC3699061232
:1016F3000CBC839906120CBCB79906120CBCF29968
:1017030006120CBCE79B06120CBCF4B906120CBC07
:1017130053BA06120CBC91BA06120CBCD2BA06120A
:101723000CBC008004120CBC0C8004120CBC6E8038
:1017330004120CBC788004120CBC058104120CBC8E
:10174300418104120CBC048204120CBC17820412E3
:101753000CBC858204120CBCED8204120CBC7C838D
:1017630004120CBCFA8304120CBC9F8504120CBC3B
:10177300588704120CBC9E8804120CBC1B8A0412EA
:101783000CBCC28A04120CBC908F04120CBC879050
:1017930004120CBC169104120CBC3B9104120CBC39
:1017A300D89104120CBCF59104120CBC15920412CE
:1017B3000CBC869204120CBCA39204120CBCD192F2
:1017C30004120CBC699404120CBC8A9404120CBC61
:1017D300309504120CBC789504120CBCEA950412E3
:1017E3000CBC6D9604120CBCD29604120CBC2F9741
:1017F30004120CBCCE9704120CBC429804120CBC0D
:101803007E9804120CBCEB9804120CBC559A04127B
:101813000CBCD69B04120CBC859C04120CBCE79E2A
:1018230004120CBC499F04120CBC779F04120CBC1D
:101833008FA104120CBC1FA404120CBC22A5041219
:101843000CBC749306120CBC3B9406120CBCA795FB
:1018530006120CBCC79506120CBCCA9506120CBC2A
:10186300D39506120CBCF59506120CBC1E960612F7
:101873000CBC629606120CBC799606120CBCB79689
:1018830006120CBCF79606120CBC539706120CBC3E
:10189300A0BF06120CBC9FCB04120CBC3ECC04129E
:1018A3000CBCBACC04120CBCA9CD04120CBCA7CE40
:1018B30004120CBC26CF04120CBC68D004120CBC5E
:1018C30009D104120CBCC9D204120CBCD0D304122B
:1018D3000CBCEDD304120CBC18D504120CBC55D6A9
:1018E30004120CBCFFD604120CBC69DA04120CBC43
:1018F30071DC04120CBCFADC04120CBC54DD0412BF
:101903000CBCA2DD04120CBC1DDE04120CBC9FDE59
:1019130004120CBCDBDE04120CBC7FE504120CBC0D
:10192300DAE704120CBCB6E804120CBC349D0512B1
:101933000CBC669D05120CBCEA9D05120CBC4D9FA8
:1019430005120CBC3BA005120CBC03A205120CBC77
:1019530028A205120CBC7AA205120CBC0CA305121A
:101963000CBC58A305120CBC6BA305120CBCC8A37A
:1019730005120CBC37A405120CBC04A505120CBC43
:1019830072A505120CBCA9A505120CBCF2A5051283
:101993000CBC9AA705120CBC79A805120CBCC7A9EC
:1019A30005120CBCAAAA05120CBC36AB05120CBC62
:1019B3006FAB05120CBC8EAB05120CBCD9AB051278
:1019C3000CBCF9AB05120CBCB6AC05120CBCC3AD18
:1019D30005120CBCD7AD05120CBC2BAE05120CBC0A
:1019E30086AE05120CBCD3AE05120CBCDBAF0512E0
:1019F3000CBC60B205120CBC86B205120CBC01B360
:101A030005120CBC26B305120CBCADB305120CBCFD
:101A130089B405120CBCC7B405120CBC4BB5051236
:101A23000CBC36B605120CBC39B605120CBC43B659
:101A330005120CBC4DB605120CBC69B605120CBCE4
:101A4300E5B605120CBC1EB705120CBC3AB705125D
:101A53000CBC66B705120CBC8DB705120CBCB1B734
:101A630005120CBCECB705120CBC5FB805120CBC1C
:101A730093B805120CBC9DB805120CBCD9B805125D
:101A83000CBCF3B805120CBC1AB905120CBC49B94D
:101A930005120CBC68B905120CBC80B905120CBC4C
:101AA30092B905120CBC52BE06120CBC6ABE0612D9
:101AB3000CBCEF7F00120CBC6FEE05120CBCBEEE2B
:101AC30005120CBC7CF005120CBC36F205120CBCE2
:101AD30074F205120CBC69F305120CBC74F4051204
:101AE3000CBC96F405120CBCE0F405120CBC61F5B9
:101AF30005120CBC2AA904120CBC4DA904120CBC7F
:101B0300ABAA04120CBCF4AA04120CBC52AB041210
:101B13000CBCB8AB04120CBCBBAB04120CBC0CACBD
:101B230004120CBC86AC04120CBC14AD04120CBC25
:101B330017AD04120CBC9FAD04120CBCE2AD041231
:101B43000CBC52B204120CBCF0B304120CBC2AB489
:101B530004120CBC70B404120CBCD0B704120CBC3D
:101B630055B804120CBCEDB904120CBCFCBA041237
:101B73000CBC29BC04120CBC89BC04120CBC65BD92
:101B830004120CBCEFBD04120CBCF2BD04120CBC5D
:101B9300D7BE04120CBC1DC004120CBCD1C104126C
:101BA3000CBCA4C304120CBC36C404120CBCCBC4BE
:101BB30004120CBCBDC504120CBC7DC704120CBCC2
:101BC30093C804120CBC02CA04120CBC47CA041208
:101BD3000CBCF2CA04120CBC008005120CBC9B8026
:101BE30005120CBC0E8105120CBC298105120CBC1C
:101BF300CA8105120CBC118205120CBC3483051278
:101C03000CBC778305120CBCF38305120CBC468411
:101C130005120CBCA58405120CBCB28505120CBCC4
:101C2300CF8805120CBC058A05120CBC8E8A0512DE
:101C33000CBC928C05120CBC368D05120CBCD58DD8
:101C430005120CBC368E05120CBCA58E05120CBCFD
:101C5300FE8F05120CBCE89005120CBC23910512F3
:101C63000CBC439105120CBCF49105120CBC3192CF
:101C730005120CBCBA9205120CBC359405120CBCAF
:101C8300009605120CBC5B9705120CBCD09805128C
:101C93000CBCDF9905120CBC6C9A05120CBCD59ACE
:101CA30005120CBCE19B05120CBCCBD903120CBC76
:101CB3002EDA03120CBC76DA03120CBCB4DA03126C
:101CC3000CBC0FDB03120CBC6CDB03120CBCA7DBDC
:101CD30003120CBC29DC03120CBC83DC03120CBC06
:101CE300F7DD03120CBC75DE03120CBC8DDF03128F
:101CF3000CBCB5DF03120CBC04E103120CBC15E1F0
:101D030003120CBC2DE103120CBC42E203120CBC07
:101D13001FE303120CBC1CE403120CBC40E40312CB
:101D23000CBC57E403120CBC78E403120CBC9AE419
:101D330003120CBCB9E403120CBC8DE503120CBCFA
:101D4300E7E503120CBC88E803120CBCE1E80312BC
:101D53000CBC00E903120CBCEBE903120CBC21EA36
:101D630003120CBC5BEB03120CBCDAEB03120CBCCE
:101D730011EC03120CBC4BEC03120CBCBAEC0312B7
:101D83000CBC7BED03120CBC54EF03120CBC7CFCAB
:101D930002120CBCCCF103120CBCCCF303120CBC2E
:101DA30047F603120CBC21F803120CBCE2F8031231
:101DB3000CBC5AF903120CBC71F903120CBC6BFA7C
:101DC30003120CBC63FB03120CBCD2FB03120CBC4E
:101DD300F49B06120CBCA49D06120CBC639E061257
:101DE3000CBCCB9E06120CBC3F9F06120CBCC49FBE
:101DF30006120CBCE29F06120CBC26A006120CBCF9
:101E03004CA006120CBC73A006120CBCBBD9051265
:101E13000CBCA3A006120CBC45A106120CBC87A1E6
:101E230006120CBCA9A206120CBCB2A206120CBC70
:101E3300BBA206120CBCC4A206120CBCCEA2061294
:101E43000CBC2C8A06120CBC608E06120CBC6E8E67
:101E530006120CBC738E06120CBC63FE04120CBC7F
:101E6300D3FF01120CBC008003120CBC328003129E
:101E73000CBC9E8003120CBC398103120CBCD881AC
:101E830003120CBC1D8203120CBC3F8203120CBC58
:101E9300588203120CBC7E8203120CBCA082031274
:101EA3000CBCDE8203120CBC228303120CBC4483E1
:101EB30003120CBCA68303120CBC6D8403120CBC6E
:101EC300248503120CBC968503120CBC688603128E
:101ED3000CBCB28603120CBC058703120CBC6B87C7
:101EE30003120CBCA58703120CBCF78703120CBCAE
:101EF300138803120CBC3E8803120CBC458A0312E0
:101F03000CBC998B03120CBCBB8B03120CBCEF8B68
:101F130003120CBC108C03120CBC1F8C03120CBCE0
:101F23002A8C03120CBCDA8C03120CBC438D0312F3
:101F33000CBCF08D03120CBC288E03120CBCEE8E6D
:101F430003120CBCFB8F03120CBC459003120CBC98
:101F5300D49003120CBC389103120CBC739103127E
:101F63000CBCDF9303120CBC339503120CBC6C98AE
:101F730003120CBC399903120CBCC79903120CBC95
:101F8300F09903120CBC629A03120CBCF69A03126A
:101F93000CBC549B03120CBC469C03120CBC689CE7
:101FA30003120CBCC49D03120CBCDD9D03120CBCBC
:101FB300F09D03120CBC4D9E03120CBC5C9E0312DD
:101FC3000CBCEF9E03120CBCFB9F03120CBC08A0BD
:101FD30003120CBC11A003120CBCE9A103120CBC2C
:101FE3000FA303120CBC1FA303120CBC21A40312E6
:101FF3000CBC98A403120CBCC7A403120CBCCDA543
:1020030003120CBC13A603120CBCDFA703120CBCF7
:10201300B7AB03120CBCC1AB03120CBCD5AB0312A0
:102023000CBCDFAB03120CBCE9AB03120CBCF3AB6F
:1020330003120CBC0CAC03120CBC16AC03120CBC8C
:102043008AAC03120CBC95AC03120CBCBAAC0312E1
:102053000CBCC5AC03120CBC13AD03120CBC1DAD00
:1020630003120CBC28AD03120CBC4CAD03120CBC08
:1020730070AD03120CBCCCAD03120CBC12AE031238
:102083000CBC2FAE03120CBCACAE03120CBCE3AE03
:1020930003120CBC22AF03120CBC6FAF03120CBCB7
:1020A300F1AF03120CBC8AB003120CBC5AB2031278
:1020B3000CBCB8B203120CBCD4B303120CBCFAB3FD
:1020C30003120CBC39B503120CBC5FB803120CBC71
:1020D300A0BA03120CBC7CBC03120CBC12BD0312CD
:1020E3000CBC39BF03120CBCE5BF03120CBC1AC0F5
:1020F30003120CBC7FC003120CBC89C003120CBCBE
:10210300B3C203120CBCDAC303120CBC1AC403120D
:102113000CBCC0C403120CBC51C603120CBCDAC7FE
:1021230003120CBCFAC703120CBC53C803120CBC39
:1021330055C903120CBC9FC903120CBCEFC903128F
:102143000CBCD9CA03120CBC4ECB03120CBC68CC1A
:1021530003120CBCE3CC03120CBCE8CD03120CBC81
:1021630093D003120CBCB2D003120CBC13D20312D3
:102173000CBCD5D303120CBC29D403120CBCE1D480
:1021830003120CBC90D503120CBCE6D503120CBC95
:102193009CD603120CBC31D703120CBC9DD703127F
:1021A3000CBCD7D703120CBC08D803120CBC64D9DF
:1021B30003120CBC008002120CBC328002120CBC55
:1021C300698002120CBC528202120CBC35830212CB
:1021D3000CBC8D8302120CBCC88402120CBC148587
:1021E30002120CBC3C8802120CBC9E8B02120CBC6B
:1021F300EB8C02120CBC818D02120CBC8D8D021271
:102203000CBCBF8D02120CBC418F02120CBC4F9050
:1022130002120CBC799002120CBCD09002120CBCBE
:10222300299102120CBC959102120CBCAC930212C0
:102233000CBC3B9502120CBC059602120CBC4397D6
:1022430002120CBC739902120CBC439C02120CBC0C
:10225300509C02120CBCD79C02120CBC7F9D021234
:102263000CBCC29D02120CBC0B9E02120CBC5F9EE6
:1022730002120CBCC49E02120CBC2C9F02120CBC9A
:10228300499F02120CBC799F02120CBCAE9F021232
:102293000CBC7EA002120CBC27A102120CBCABA387
:1022A30002120CBCCBA402120CBCB4A502120CBCCF
:1022B30036A602120CBC58AA02120CBC95AA021232
:1022C3000CBCEDAA02120CBC20AB02120CBCA1ABDD
:1022D30002120CBCEEAB02120CBC79AC02120CBCA9
:1022E300CBAC02120CBCA2AD02120CBC5BAE021250
:1022F3000CBCF6AE02120CBC0FB202120CBC2FB314
:1023030002120CBCE0B602120CBCFEB702120CBCEB
:1023130001B802120CBC30B802120CBC36BA02125D
:102323000CBC0FBB02120CBC44BB02120CBC4CBC59
:1023330002120CBC02BD02120CBCA3BE02120CBCE6
:10234300C8BE02120CBC07BF02120CBC79BF02123A
:102353000CBC5DC002120CBC2AC102120CBC60C3CF
:1023630002120CBCD1C302120CBC11C402120CBC6D
:102373004AC402120CBCDEC402120CBC27C60212F1
:102383000CBCEAC902120CBCD9CA02120CBCC0CBE9
:1023930002120CBC38CC02120CBCFACC02120CBCDC
:1023A300F8CE02120CBC10CF02120CBC24CF0212C6
:1023B3000CBC5CCF02120CBC8ACF02120CBC11D134
:1023C30002120CBC1CD202120CBC6ED202120CBC48
:1023D300D6D202120CBC88D302120CBCB8D30212A0
:1023E3000CBC9CD402120CBC4DD502120CBC3CD7C5
:1023F30002120CBC71D702120CBCD9D702120CBC4E
:1024030008D902120CBCBAD902120CBCEBD90212C5
:102413000CBC03DA02120CBC92DA02120CBC46DDCD
:1024230002120CBC1EDF02120CBC3ADF02120CBCFF
:1024330056DF02120CBC24E002120CBC08E40212A8
:102443000CBC2C8201120CBC648201120CBC4287AE
:1024530001120CBC888701120CBCD58801120CBC7C
:10246300408901120CBCC98A01120CBCD98D01121E
:102473000CBCF48E01120CBC069901120CBC999988
:1024830001120CBCEB9C01120CBCE79D01120CBCAD
:10249300429E01120CBC8C9F01120CBC7AA001124B
:1024A3000CBC16A301120CBC8AA401120CBC0DA512
:1024B30001120CBC10A501120CBC85A501120CBCA9
:1024C3008FA501120CBC9CA501120CBCC7A501125F
:1024D3000CBC77A601120CBC70A701120CBC1BA884
:1024E30001120CBC39A801120CBC52A801120CBC7D
:1024F3007BA801120CBC9DA801120CBCF2AA01120C
:102503000CBCB7AB01120CBCFCAB01120CBC7BAC1A
:1025130001120CBC27AD01120CBC59AD01120CBC4D
:10252300ADAD01120CBCE8AD01120CBC2FAE011213
:102533000CBC7FAE01120CBC84AE01120CBCD8AE35
:1025430001120CBC04AF01120CBCEDAF01120CBCA8
:102553003EB001120CBC9EB001120CBCF8B00112CB
:102563000CBC93B101120CBCD2B401120CBCE4B587
:1025730001120CBC5EB701120CBC6EBA01120CBC8A
:102583000CBB01120CBC02BE01120CBCC1BE011279
:102593000CBC05BF01120CBCB0C001120CBCC4C002
:1025A30001120CBCCEC001120CBCD8C001120CBC71
:1025B300E4C001120CBC09C101120CBCE2C201123D
:1025C3000CBC37C301120CBC41C301120CBC4BC37E
:1025D30001120CBCC0C301120CBC0FC401120CBC11
:1025E30020C501120CBC6DC501120CBC7AC60112C8
:1025F3000CBCBEC601120CBC64C701120CBC57C88C
:1026030001120CBC1DC901120CBC40CA01120CBC46
:102613005ECB01120CBC46CC01120CBC5ECC011289
:102623000CBCB5CC01120CBCBFCC01120CBCC9CC88
:1026330001120CBCD4CC01120CBCF2CC01120CBCA8
:102643003ACD01120CBC9CCD01120CBCC3CD0112BE
:102653000CBCD5CD01120CBC70CE01120CBCA5CEA6
:1026630001120CBC8CCF01120CBCD1CF01120CBCDB
:10267300B7D001120CBCDED001120CBC61D1011227
:102683000CBCD2D101120CBC5BD301120CBC87D49D
:1026930001120CBC4AD501120CBC12D601120CBC9F
:1026A3009CD601120CBCC4D701120CBC66D8011213
:1026B3000CBCE1D801120CBC9DD901120CBCE7D9AA
:1026C30001120CBC41DA01120CBC19DB01120CBC67
:1026D3003CDB01120CBCEFDB01120CBC11DC011260
:1026E3000CBC7ADC01120CBC90DE01120CBC88DF3E
:1026F30001120CBC4CE001120CBC7EE201120CBCBA
:10270300C8E201120CBC18E301120CBC7CE30112F9
:102713000CBCDEE301120CBC0CE401120CBC30E473
:1027230001120CBC65E401120CBC96E401120CBC52
:10273300C9E401120CBC19E501120CBC6CE50112D1
:102743000CBC91E601120CBC31E801120CBC8CE804
:1027530001120CBCB5E801120CBC42E901120CBC1D
:10276300B0E901120CBCBEE901120CBCE2E9011292
:102773000CBC37EA01120CBC52EA01120CBC04EB8C
:1027830001120CBC3CEB01120CBC7FEB01120CBC24
:10279300E2EB01120CBCE4ED01120CBC0EEE0112D3
:1027A3000CBC05EF01120CBC0FF001120CBCBFF006
:1027B30001120CBCC5B905120CBCFDB905120CBC49
:1027C3001EBA05120CBC60BA05120CBCC2BA0512C3
:1027D3000CBCCCBA05120CBCDCBA05120CBC17BB82
:1027E30005120CBCF7BE05120CBCE4C005120CBCF0
:1027F300CAC205120CBC61C305120CBC03C405128A
:102803000CBC3B3400120CBCE63400120CBC9435F7
:1028130000120CBC9A3600120CBCBA3600120CBC67
:10282300E33700120CBC9E3900120CBC113A0012A3
:102833000CBCB53A00120CBCC13B00120CBC2C3CC6
:1028430000120CBC683C00120CBCAB3C00120CBC6C
:10285300E63C00120CBC283D00120CBCBD3D00122E
:102863000CBC393E00120CBC033F00120CBCE03F11
:1028730000120CBC784000120CBC924000120CBC3D
:10288300C24000120CBCF34000120CBCB941001250
:102893000CBCC94100120CBC184200120CBC2542EE
:1028A30000120CBC2E4200120CBCAC4200120CBC39
:1028B300084300120CBC534300120CBC6E430012BD
:1028C3000CBC994300120CBCB64300120CBCC243AF
:1028D30000120CBC594500120CBC724500120CBC12
:1028E300F74500120CBC0A4600120CBC2946001224
:1028F3000CBCCD4600120CBC4E4800120CBC014A65
:1029030000120CBC974A00120CBC9A4A00120CBC71
:102913000A4B00120CBC284B00120CBCBF4B00121C
:102923000CBC074C00120CBC0A4C00120CBCD04C63
:1029330000120CBC3D4D00120CBC634D00120CBCCC
:10294300EE4D00120CBC0C4E00120CBC524E001289
:102953000CBC064F00120CBC504F00120CBC7F4F36
:1029630000120CBCDC4F00120CBC115000120CBC4A
:102973003D5000120CBC4B5000120CBC985000127E
:102983000CBC085100120CBC515100120CBC9D51DF
:1029930000120CBCC95100120CBCD45100120CBC67
:1029A300F25100120CBCDD5200120CBCE7520012B3
:1029B3000CBC225300120CBC325300120CBC8653C5
:1029C30000120CBC9A5300120CBCC95400120CBC6C
:1029D300DE5400120CBC6C5500120CBCB155001235
:1029E3000CBC3D5600120CBC485600120CBC8A5756
:1029F30000120CBCA55700120CBCF15700120CBC02
:102A0300605800120CBC995800120CBCB358001249
:102A13000CBC135900120CBCB25900120CBCFD596A
:102A230000120CBCCD5C00120CBC7F5D00120CBC10
:102A3300EC5D00120CBC2C6000120CBC4460001254
:102A43000CBC476000120CBC536000120CBC6760E6
:102A530000120CBC6F6000120CBCA26000120CBC14
:102A6300A56100120CBC326200120CBCA2620012FF
:102A73000CBC246300120CBCE56300120CBC0464A0
:102A830000120CBCA56400120CBC026500120CBC45
:102A9300056500120CBC796500120CBCC8660012F7
:102AA3000CBCCE6700120CBC596800120CBC7469D4
:102AB30000120CBC3C6A00120CBC6D6A00120CBC08
:102AC300906A00120CBC996A00120CBCC86A00120E
:102AD3000CBC586B00120CBC0E6C00120CBC836C4B
:102AE30000120CBC2A6D00120CBC9F6D00120CBCB2
:102AF300D66D00120CBC146E00120CBC19FC021231
:102B03000CBCEFFB02120CBCDBFB02120CBCD1FBB6
:102B130002120CBC64FB02120CBC95F902120CBC31
:102B230053F902120CBC69F802120CBC3DF80212F4
:102B33000CBCF4F702120CBC5DD805120CBCAFD769
:102B430005120CBC31F702120CBC00F402120CBCCF
:102B530012D705120CBC08D705120CBCA2F1021245
:102B63000CBC72F102120CBC22F102120CBCBCF0C0
:102B730002120CBC7BF002120CBC5BF002120CBC08
:102B83008DEF02120CBC27EF02120CBCC6EE021230
:102B93000CBC66EE02120CBC04ED02120CBC98ECE9
:102BA30002120CBCECEB02120CBCE7EB02120CBCE5
:102BB300D0EB02120CBC9BEB02120CBC35E80212E8
:102BC3000CBC32E802120CBC9DD605120CBC19E8F1
:102BD30002120CBC82D605120CBCD2D505120CBC59
:102BE300D8D405120CBCFED305120CBC54D105126B
:102BF3000CBC66D005120CBC0EE802120CBCDDE75F
:102C030002120CBC04E602120CBC8BE502120CBCD3
:102C1300F8CF05120CBC22E502120CBC95E402129B
:102C23000CBC51E402120CBC2AE402120CBC33FDAE
:102C330002120CBCA3CF05120CBC8BA006120CBC59
:102C43004ECF05120CBC21CF05120CBCEECE0512E3
:102C53000CBCC6CE05120CBC67CE05120CBC47CE0D
:102C630005120CBC12CE05120CBCD6CA05120CBC44
:102C7300ABC805120CBC9BC605120CBC18C60512CA
:102C83000CBCCCC505120CBC80C505120CBCDAC447
:102C930005120CBCE8FC02120CBC5BF00300000044
:102CA30080FB87000100681C350004002E1C2500F2
:102CB3000200321C26000200341C27000200361CCE
:102CC30028000100401C29000100411C840004006D
:102CD3001D19860001009B1B2A000100421C2B00CA
:102CE3000100431C2C000100481C2D0008002B1977
:102CF3002E000100491C2F0001004A1C3000010076
:102D03004B1C310001004C1C32000100331933000D
:102D130001003419340001004D1C3600010035193F
:102D2300380001004E1C39000100471C83000200DB
:102D3300661C63000100401964000100441C650027
:102D43000100451C6D0001004119710008002319A1
:102D530066000100651C43000100561C440002008C
:102D6300571C45000100591C460002005A1C47002D
:102D730008003819480001005C1C4B0001005D1C71
:102D830004000100691CA10001006C1C3700010054
:102D93006B1C880001006A1C3C00010036193D00D1
:102DA30001004F1C490002005E1C6700010042192C
:102DB3004D000200601C4E000100621C4F00020027
:102DC300631C3E000100551C51000100511C5200C0
:102DD3000100521C53000100541C54000100371918
:102DE300000000000000000136360101000102016D
:102DF30000010301000104010606050200000701AA
:102E030000340801000F090401010D0100FF0E0841
:102E1300000017020000190100FF1A0100011B0145
:102E230000FE1C0100081D0200001F01000120011B
:102E33000001210200002301000F240200002601EB
:102E4300000127010008280200FF2A0100072B01C7
:102E530002402C0100002D0100012E0100012F0171
:102E630000FF30010B1D310800003A0100083B014F
:102E7300000F3C0100013D0100FF3E04000042043D
:102E83000000460400004A0400004E0400005204FF
:102E93000000560400005A04000000000300200153
:102EA3002A820000000020012B8200000100200183
:102EB3002B820000020020012B820000004042010F
:102EC30033810000040042017481000005004201C7
:102ED3001F8100000600420133810000070030011A
:102EE3002982000010004203FA1B00001100300386
:102EF300D9170000120010030B1C0300000021036C
:102F0300DA170000FDFF210124820300FDFF2101E8
:102F13002482060000001001C9170600FDFF21816D
:102F23002482020400002905CA17020401002901B2
:102F330020820204020029011E820204FDFF2101F6
:102F4300248201037103010301030103010301034C
:102F53002203020301031003000300030003000321
:102F630000030003000342030003240306030003DA
:102F7300000304031203250323032503230304038C
:102F830004030003000300034403000300032303BB
:102F930000036503210035038103000305030003D8
:102FA3000003000300032503230303007100300122
:102FB30060001100700031022003500480001000F3
:102FC300610000001400630073007200620043009C
:102FD30000001300060000000000040012000000BF
:102FE30000000000000004000400370037003C022A
:102FF30044000000000000000000650000003500F0
:103003008100000005000000830000000304710438
:1030130002046004110470040204020401040204A3
:10302300100461040004140463047304720462044E
:1030330043040004130406040004000404041204FB
:1030430000040004000400045104640000040004AC
:1030530000044404000400040004000465040004A4
:10306300350481046400050400048304000403029E
:1030730071023001600211027002010202020202B7
:103083008002100261023A0041006302730272027D
:10309300620243020002130238000002000204022B
:1030A30012020002000200020002040204023700BE
:1030B30037003C02440200023900000200026502AC
:1030C300000235028102000205028202830200022D
:1030D300010171010101010111010101310101012D
:1030E30001018001100161013B00140063017301C0
:1030F3007201620143010001130106013D01350024
:103103000401120100010001000100010401040196
:10311300330133013C014401320136000001000157
:103123006501000135008101000105018201830170
:10313300000136000100060000000F00000000003F
:10314300000000000000000003FFFF00000403FF75
:10315300FF0000FFFF0FF4010005C404032000017A
:1031630000000B000000000000000003010F00003E
:10317300000000000000000000000000000000004C
:10318300000000000000000000000000000000003C
:1031930000182A18061840170C1830180C183C1879
:1031A300121840170C1830181818401700000000A8
:1031B3001E184017000000000000000024184017EC
:1031C30000000000000000000000000000000000FC
:1031D30000000000000000000000000000000000EC
:1031E3000000000000000000000000001300961B18
:1031F3001F009C1B1F80A21B00001A1C01001A1C2D
:103203000200181B0280121B03001E1B0400241B58
:1032130004802A1B0500301B06003C1B30005A1B90
:103223003100541B3200661B33006C1B3500721BCC
:103233003400781B36007E1B11008A1B1400901B80
:1032430015004E1BFFFF00000A00000002000000F3
:10325300040000000800000010000000200000002F
:103263004000000080000000000100000002000098
:10327300000400000008000000100000002000000F
:1032830000400000017E2406AE2408A8240BCC24B1
:10329300106621028424059C24078A240C66240DCD
:1032A3007224644A1FFF000007ECFDFDFDECDCDC2B
:1032B300CCBCACAC9C9C8C7C7C6C6C5C5C5C4C4CEB
:1032C3003C3C2C2C1C1C03EAF5E5D5D5C5B5A595CE
:1032D300958585757565655555454535352525159B
:1032E300150500160F00000B150B020002220F3309
:1032F30000000E0FD0D1D2D3D4D5D6D7D8D9DADBAC
:10330300DCDDDEDF5A6967426565416C6C69616EBD
:103313006365303900000000000000000000000079
:103323000000000000034D4C4651181A2505020009
:103333003C40423A3F3F392F4730000119161816D7
:103343001618230300303017181921301B1D1F30A6
:10335300303016181920231A1C1E300C0E020B04D1
:103363000B0A0708000F0204020101010109020010
:10337300BE040AE80300000000000003007F000E03
:10338300000100E803080404051003030A0C0915EF
:10339300081E1E0C28FF00040209033C0C05081537
:1033A3001000E4F0A3F0A3F0A3221233A5F02290BF
:1033B3001A8D1249B112286E221233C022E0F50889
:1033C300E4F509F50AF50B22E824FBF582E934FF5D
:1033D300F58322E82411F582E439F583E022F583AD
:1033E3001233E722E0F508A3E0F50922122AEA7472
:1033F30004120D077F08020A957401F09004B2E0ED
:10340300640F227409120D077F04020A95EA24133C
:10341300FAE43FFB122A18E9227905122A247406DA
:1034230022A3A3E024F5C3941322122AF69004D214
:1034330012696F7A147B0022C082C083901A6C7465
:1034430062F0A37428F0A37474F0A37428F0901AA4
:1034530070744AF0A37428F0A37444F0A37428F0A2
:10346300A37480F0A37428F0A37486F0A37428F0E7
:10347300A3747AF0A37428F0A37432F0A37428F031
:10348300901A7C7456F0A37428F0A3745CF0A374B0
:1034930028F0A37450F0A37428F0A3748CF0A374E1
:1034A30028F0901A8D1253806009901A8D1249AD3D
:1034B300121632901A8A124CC7740812601CA3F0B9
:1034C300901B36F0901A8FF07C0BFDF97A907B1AE3
:1034D3001215607C0B7D0079007A9B7B1A121560B4
:1034E300024B2174F712082174F7120DB5EAFEEBB3
:1034F300FF1235797405124DE57403F012369012FC
:103503004DC72430FCE43FFD8C82123571123585A2
:103513006008123D9E74FFF0A3F0EE242EE43F1CDE
:103523001CFD8C82F583A3E0C0E08A828B83124A60
:1035330079D0E0123585888289831252B42403F04E
:10354300EE123DA812100D7403F09004C7120B6421
:103553007402120D97123972120D07E9F5087007FC
:10356300EEFAEFFB1228FEA9087409023DB7F583B2
:10357300E08882898322EA12357E221254C33FF502
:10358300832212629C124DD3E8F0A3E9126573E023
:103593002274F0120821EAFEEBFF8C0C8D0D890BCF
:1035A300123690F583124DDB741012100DE0F508FE
:1035B300A3123573F0E824FFF582E9123984E50894
:1035C300F0E824FEF582E9123984E50BF09004CC8F
:1035D300E0C0E0E824FDF582E9123984D0E0F09000
:1035E30004CBE0C0E0E824FCF582E9123984D0E0A2
:1035F300F0741212100D1233E31233CBE509F0E825
:1036030024FAF8E934FFF98882F583E508F0EE241B
:1036130004FCE43FFD88088A828B83E0F50E8C82EC
:103623008D83E0250EC3950812629C124C01850C14
:1036330082850D83A3A3A3A3A3A3A3A3E064037021
:1036430009EE124DB5F0A3E48003123989123991C2
:103653007409F075089075091A750A007808120C38
:10366300D5125D66120D077508FF7509FF780812FC
:103673000CD9AC0CAD0D123972120D07E9F50870B7
:1036830007EEFAEFFB1228FEA9080233F7EA240239
:10369300FAE43FFB8A8222C082C083901AACE0C363
:1036A3009408400474078001E08A828B83F03333EB
:1036B3003354F8F9024B2174F01208218A088B095C
:1036C300890A8C0E8D0F750C00A2AFE433F50BC283
:1036D300AF901AA680451237BC503D1237D664030B
:1036E3007036E50824F9F508E50934FFF5098E82FB
:1036F3008F83A3A3E02405FCA3E03400FDAA08AB59
:103703000912171CE50824FFF508E50934FFF5093C
:103713007410250CF50C150A123BAB126D24E50A47
:103723006004EE4F70B0E50BA2E092AFA2AFE433BA
:10373300F50BC2AF901AA6803E12528D8882F58394
:10374300124501850882850983F08A8289831237AD
:10375300CDA3A3E0C0E0E50824FFF582E509123913
:1037630084D0E0F0E50824FEF508E50934FFF50907
:10377300050C150A123BAB1239FF60211237D664D0
:103783000270F11237BCEE40B0124EFCA2E550E4D9
:10379300850E82850F837401F0E50A70D7E50BA2CD
:1037A300E092AF850882850983E50CF0E50824FFE4
:1037B300FAE50934FFFB0233F71237C2A2E622EE21
:1037C3002411F582E43FF583E0221237D12212520D
:1037D300D2A3228E828F83A3A3124A7D1259A922D8
:1037E30074F012082174F3120DB5740312100DE96D
:1037F300F0740212100DEAF08B0B85188285198381
:10380300E4F004120D8F122814E9F89004B1E029B2
:103813002437F508FA7B001215788A0C8B0DAE0C51
:10382300AF0DEA4F7003023969EA2402F50EE43F53
:10383300F50FA808EA28F8E43BF9850E82850F8383
:103843001242FD9004B1E0F9FAC3E49AFA95E0FB61
:10385300850E82850F83E02AF50CA3E03BF50D90DE
:1038630004AF1233E3750A007808120CD5E9FC7D26
:1038730000AA0CAB0D124D37120D07AC18AD19741D
:103883000112100DE0F9E50C24FFFAE50D34FFFBFE
:1038930012281A8A828B83E4F0E50BC454F0F99062
:1038A3001B37E0C4333354C0F89004ABE0A2E0E428
:1038B3003313134849440FC0E0EA24FFF582EB12A7
:1038C3003984D0E0F0EA24FEF50CEB34FFF50D74F7
:1038D3000312100DE0F8740212100DE0C454F04806
:1038E300850C82850D83F0A80C850E82850F8312CB
:1038F3005FE92AC3988E828F83A3A3A3A3F0850EC7
:1039030082850F83E8F0A3E50DF01239891239910E
:10391300E4F0740C12100DE4F075089B75091A7825
:1039230008120CD5125D66120D078518828519835E
:10393300E06009EE240E124EFE4408F0122A06E956
:10394300F9E4F508F5097808120CD97406120D97F5
:10395300123974120D07E97006EEFAEFFB800BEED5
:10396300FAEFFB12157E7A007B00740D0233F479B3
:1039730003EEFAEFFB122A1E740222EE24FFF582F5
:10398300EF34FFF58322EE12357EE4F0A322F0122A
:10399300399622EE125C893FF5832274F2120821D4
:1039A3008A0C8B0DA2AFE433F50AC2AF750800751C
:1039B3000900901AA6802C123BBB5024850C8285EB
:1039C3000D83A3A3125D798E828F83A3A31249ADC6
:1039D300122A0CE9600A123BB6C2E6F08E088F0980
:1039E300123BAB1239FF70CFE50845096006123A66
:1039F30098D2E6F0E50AA2E092AF800DE0FEA3E0E4
:103A0300FFEE4F227402120D077F06020A9574F02F
:103A13001208218A0E8B0F8C0C8D0D750A00A2AF34
:103A2300E433F50BC2AF7E007F00901AA68010AE80
:103A330008AF09123A90124EFCD2E7F012498B12EA
:103A4300499F6034123A98A2E750F18508828509AC
:103A530083A3A3120B64AC0CAD0DAA0EAB0F122AF9
:103A6300127402120D07E960D3EE4F60C2123E32A8
:103A73007006123AAAD2E4F0E50BA2E092AFEE4F41
:103A830060061228F8750A01A90A0233F71237C231
:103A9300D2E4F0EE22E508125CA33509F583E022B7
:103AA300AA82AB8312171C8E828F83A3A3124A7D33
:103AB300E02274F212082174FE120DB5750C007524
:103AC3000D00851882851983E4F0A3F0A2AF33F5C6
:103AD3000AC2AF901AA6126D24802BEE24FBF58246
:103AE300EF34FF1233E1780C120CD9123B99120D0B
:103AF30007EEFCEFFDAA18AB1912159CAE08AF092F
:103B0300901AACE014F0EE4F602B123BBB501DEE4D
:103B1300240BF8E43FF98882F583E024FFF0A3E067
:103B230034FFF08882898312538060AF8E0C8F0D2F
:103B3300123BAB80A1E50AA2E092AF901AACE06021
:103B43002C9004B2E0640F6006901B36E0701E7A7E
:103B5300847B1A122AF690821A120B607A847B1ADB
:103B6300124BA9120D07800574F0124A8AAA18ABEA
:103B7300191215A28A088B09AE08AF09EA4F601320
:103B8300122826123BB6A2E28E828F83A350D974E9
:103B9300E980D7023A07EEFCEFFD7AA67B1A1215ED
:103BA300AE7402228E0A8F0BEE24FBF582EF34FFF4
:103BB300F58322EE1237C3221237C2A2E72274F72B
:103BC300120821EAFEEBFF122826124A761209F6A2
:103BD300E964019004CE700AE02401F8A3E0340004
:103BE30080031249FCF91250FE124C01901AACE00A
:103BF300701F9004B2E0640F70177A847B1A122A44
:103C0300F690821A120B607A847B1A124BA9120D5A
:103C130007A8A8C2AF901AACE004F0E8A2E78004BA
:103C2300E508A2E092AF02500C74F7120821EAFEF5
:103C3300EBFFEA123C62F0122826EEFCEFFD7AA6B7
:103C43007B1A1215A8A8A8C2AF901AAC12455090BF
:103C530004B2E0640F700579081229BE02500C12F9
:103C630037C3C2E42274F712082174EA120DB5EACD
:103C7300FEEBFF9004ABE0602A85188285198374FC
:103C830001F012100DE4123D1D12100D123AA3C0E3
:103C9300E0740A12100DD0E0126009740B12100DBB
:103CA3001252697416023DB774F7120821EAFEEB4B
:103CB300FF122808E9F974DC69601E74DD69601974
:103CC30074E469601474F369600F74DE69600A74E4
:103CD300DF69600574DB697007EEFAEFFB1229C434
:103CE30002500C74F712082174EB120DB5EAFEEBC7
:103CF300FF8518828519837406123D1D12100DAAC3
:103D030082AB8312171CEE2408FCE43FFD740A12F5
:103D1300100D1252697415023DB7F0EA2413FCE446
:103D23003FFD74022274F712082174F7120DB5EAED
:103D3300FEEBFFEA2430124EFE605DEA123DA8124C
:103D4300100D7403F09004C7120B64123D9E120B06
:103D5300649004DAE0F97404120D97EEFAEFFB12A3
:103D6300280E7404120D07E9F974DC69602374DD0D
:103D730069601E74E469601974F369601474DE6920
:103D8300600F74DF69600A74E869600574DB697049
:103D930007EEFAEFFB1229C402356CEE242EF582EE
:103DA300E43FF5832212617AAA18AB1912171C7427
:103DB30008227403120D0702500C74F21208218AB0
:103DC3000C8B0D750A00750B007508E7A2AFE43381
:103DD300F509C2AF901AA68003123BA71239FF6000
:103DE30025123BBB50F3123E3270EEEE2432123FEB
:103DF300C9E06870E4780A120CD9123B99120D07D6
:103E0300901AACE014F0E509A2E092AFEE4F601314
:103E1300EEFAEFFB12282679F0EEFAEFFB1229C433
:103E2300750800A908AA0CAB0D1229C4023A0C129A
:103E33003996E064012274F412082174F7120DB567
:103E4300EAFEEBFF8A82F583A3E064F37003023E8C
:103E5300D78A828B83A3E064DF60798A828B83A312
:103E6300E064E8606F8A828B83A3E064DB606512A1
:103E73002868E9F5087055EE240E124EFE604D12C7
:103E83003EE16048740812100D123EF0120B647587
:103E930008FF7509FF7808120CD98E828F83A3A3BC
:103EA300A3A3A3A3A3A3E0F97404120D9712280EEE
:103EB3007404120D07E9F50874F369600F74DF6980
:103EC300600A74E869600574DB69700F8E828F8302
:103ED300A3E508F0EEFAEFFB122874023406EE2491
:103EE3000FFAE43FFB79091228AAEA4B2274021263
:103EF300576F74FFF0A3123EFD221252BDA3A322FB
:103F030074F1120821EAFEEBFF7508008A82F5833B
:103F1300A3A3A3A3A3A312342440037508E88A82AE
:103F23008B83A3A3A3A3A3A3A3A3A3A3E0C39410DB
:103F330040057508E880138A828B83A3A3A3A3A3F8
:103F4300A3A3A3A3A3E0640F600B901B13E0540887
:103F530070037508E8EA240B123FC9A3A3A3A3A324
:103F6300A3A3A3E0C398500DEA240B124EFE640FE3
:103F730060037508E89004CBE0F47003A3E0F470E9
:103F8300037508EC7A237B0012162C8B0BA90B907C
:103F93001A8D123FD860278E828F83A3A3A982AA8A
:103FA30083890C8A0D750E00780C120CD57C237D49
:103FB30000901A8DE0FA124D37120D078003750831
:103FC3001AA908025D61F582E43FF583E0F88A826D
:103FD3008B83A3A322EAF0A3EBF0EA492274F51240
:103FE3000821EAFEEBFF8A82F583A3A3A3A3A3A37D
:103FF300A3A3E09004B2124070E09004CDF0EA2451
:104003000B124EFE9004AD124070A3E0901B37F0EC
:10401300F91212E4901B37E0600BEE2404124EF009
:104023002406124066901B361233FC600474018030
:10403300027400901A8F1266B4120CD57C0B7D00AB
:104043007A907B1A124D37120D07EE2418F508E407
:104053003FF5097808120CD57C0B7D007A9B7B1AFF
:10406300024D24FAE43FFB79E11212CC2212669E40
:10407300A3A3A3A32274F7120821EAFEEBFF8A820B
:10408300F583A3E070031233B212622502500C745D
:10409300F7120821EAFEEBFF901A8D12538060108D
:1040A300901A8D1249AD901A8DE4F0A3F0121632D6
:1040B3008E828F837408124A91121E4202500C742E
:1040C300F6120821901B36E06010901A8FE0700AF8
:1040D3001240E0EA4B60031228FE02631F9004AD16
:1040E300E0FB9004CDE0FA9004B2E0F9122820221C
:1040F30074F412082174E7120DB5EAFEEBFF750B99
:10410300018A82F583A3A3A3A3A3A3A3E0A2E250FE
:1041130069EA242BF582E43F125D77EA2413FAE47B
:104123003FFB12282CE97052908172E06401700504
:10413300750B0080451241B2120CD57C0B7D0074C7
:1041430011120D8F124D37120D07122A06E9FA7458
:104153000E120D87880889097808120CD975083062
:104163007509007808120CD9EE125FD2120B641293
:10417300616C790112341E120D078518828519832B
:104183007410F012616C740212100DAA82AB8312C8
:104193001710EE242B126965740B12100D124C01CB
:1041A300740D12100DE50B1263DE7419023408EE60
:1041B30024081266BC22C082C083901B37E06003D0
:1041C300122A78024B21C082C083901B2E746CF09C
:1041D300A3741AF0A37470F0A3741AF0A3747CF0A0
:1041E300A3741AF0901C7F740FF0A37430F0901B2B
:1041F300187402F0A37428F0901AB17438F0A37401
:1042030028F0901AB3743EF0A37428F0901B13E0C7
:104213004402024625C082C083EAFCEBFD79030217
:10422300532CC082C083790802649FC082C0837408
:10423300FE120DB5901AB974E6F0A37428F0901A23
:10424300BB74E0F0A37428F080077AA67B1A1242AD
:104253008A901AA612538070F1901AA812538060A4
:10426300097AA87B1A12428A80EF901AA6E4F0A377
:10427300F0901AACF0A3F0A3F0901AC77422F0A345
:104283007429F07402801C1215A285188285198383
:10429300EAF0A3EB12429E1229F422F0AA18AB19FA
:1042A300227411120D07024B2174F6120821E9FF43
:1042B300743229F582E43433F583E493FEFA7B0008
:1042C300121578EA4B6007EA2E1242FA80267A0228
:1042D3007B00121578EA4B601774482FF582E4349B
:1042E30033F583E4938A828B83F0A3741A1246C353
:1042F3007A007B0002631F124BF0E8126299A3A3BA
:10430300A3A3E4F022E9FC740629F8EAA2E0501E14
:10431300E875F00A84E5F0F96014740A28C399F883
:10432300E9C394054004740A28F8740B28F8ECC315
:1043330094134004791480027906E829790024094A
:10434300F85001097A0A7B00120642E8F9020CB917
:10435300C082C083901B13E05402600A121E48E916
:104363006004790180027900024B21C082C08390EE
:104373001B13E054026014901AACE0700A12537DD0
:1043830060091243935004790180027900024B21A2
:104393001233D6A2E722C082C08390816FE0F890E7
:1043A3001AAEE0C398500512157880047A007B009A
:1043B300024B21C082C0831229F47900024B21C031
:1043C30082C08374FE120DB5851882851983EAF0C5
:1043D300A3EB12452CA3A3A3A3A3E0600A14605785
:1043E30024FE605A02449C9004B2E0640F601212EF
:1043F30029CAE9700C1249A7901AB5124A79120911
:10440300F69004DAE0C0E08518828519831252A081
:10441300D0E012452C7414125CBDFCA3E0FD7AA815
:104423007B1A12159CA8A8C2AF901AAE12455079F8
:10443300201229BE0242861247FA741580D9124708
:10444300FAA3A3A3A3E060511247FA123AAEC0E065
:10445300851882851983E02406F582E43BF583D031
:10446300E0125CBD2402F8A3E03400F98882F583EE
:10447300E02401FAA3E03400FB88828983EAF0A3F5
:10448300EB125CBD12483A851882851983601312BA
:10449300450160051245134048AA18AB191229F4C7
:1044A300809212450160F21245135021124520FA01
:1044B300851882851983A3E0C824061247F6F87489
:1044C300681254B53433F583E4936A601485188213
:1044D300851983124501640870BF12452064087072
:1044E300B812452014124534240AC0E08518828589
:1044F3001983124A79D0E01245340402441A124552
:1045030005221249FCC82406F582E438F583E0222B
:10451300851882851983124505C3940A228518825A
:104523008519831237D1A3E02212453EF583888291
:104533002212453EC8240612482422F0851882859B
:1045430019831249FC22A8A8C2AF901AADE004F067
:10455300E8A2E792AF22C082C083901ABD125380B3
:1045630060081248011209F680027900024B217497
:10457300F7120821EAFEEBFFEA1239977401124B96
:10458300AFF8A3E0F9123579124C01EA2435124E43
:10459300FEC0E0EA2413F582E43FF583D0E0F0EABD
:1045A3002436124EFEC0E0EA2414F582E43FF5837C
:1045B300D0E0F0EA2438124EFEC0E0EA2418F58277
:1045C300E43FF583D0E0F0EA242FF582E43FF5835E
:1045D300120B64126179EA2431124EFEF912397812
:1045E300120D07E9F5087007EEFAEFFB1228FEA992
:1045F3000802500CC082C0831229CAE960047920E2
:1046030080027901024B21C082C083EA2411124641
:104613001BD2E0800DEA240DF582E43BF583E02212
:10462300F0A3F0024B21C082C083124618640170CC
:10463300111246BD400C8A828B83A3E0F91229C470
:1046430080661246AEA2E650128A828B83A3E0F9FB
:10465300901AB7124A791209F6804D12461864016E
:10466300700D1246BD50088A828B83743080368A5F
:10467300828B83A3E0641B8A828B83700474228001
:1046830024A3E0700D124618F874531254B5343352
:10469300800B124618F874481254B53433F583E48A
:1046A300938A828B831246C3024B211246B222EABB
:1046B3002410F582E43BF583E0221246B2A2E32202
:1046C300F0901B0EE0F91215842274F7120821E909
:1046D300FE12537D70030247F3EE6014741B6E7079
:1046E3001AE8125C8939F583E0640570030247CB4D
:1046F300901AB0124801A3E40247D274E96E7068BD
:10470300E82412F582E439F583E0700B121E4EE9BA
:104713006005124844606179EE12124E901AAF128E
:10472300481B901AAF603A124847901AAF700B12A9
:10473300481B14F01214040247F3124839C2E7125B
:1047430049E2240D1247F664037009124814124912
:1047530098D2E2F079ED12124E12482C1209F6802B
:104763007812480774E9806774E16E703E121E4E3A
:10477300E9605512484470509004D4E0C0E01248F8
:10478300142412F582E438F583D0E0F09004C3E0FA
:10479300C0E0901AAF124810124810D0E0F0900415
:1047A300C3E004F079011213EC8045741C6E701899
:1047B300901AAF1249AD901ABF124A791209F690B6
:1047C3001AAFE4F0A3F08028901AAF124807EEF076
:1047D300901AAF1249AD1228EC1249C3E05480601D
:1047E3000312648E901AAFE4F0A3F079101229BE7D
:1047F30002500C12482422851882851983A3E0F500
:104803008388822212480B22124A81A3221252CE9B
:1048130022901AAF1252AF221252AF24121248241E
:1048230022F582E438F583E022901AAF1249B19061
:104833001AB3124A7D22E0F8A3E0C82410124824D8
:1048430022901AAF1249CAE054042274F4120821C8
:10485300750A00750B00A2AFE433FEC2AF12537D9D
:104863006003024941124A761209F6E94410F890AE
:104873001AA6800985080A85090B12498B12499FDC
:104883007003024941123A98586870E8780A120C8A
:10489300D9AC08AD09123B9D120D07901AAFE5087C
:1048A300F0A3E5091249E2124998A2E7500302492D
:1048B30048901AADE014F0EEA2E092AF901AAFE088
:1048C300240EF8A3E03400F9E8FEE9FF8882F583BB
:1048D3001249AD901AAF124526F91228B0E9901A81
:1048E300AA12601C8E828F83E054806018124814D1
:1048F30024131247F6F9121308124814241412470A
:10490300F6F91212FC1249C3A3E05401605F901A36
:10491300AA12538060451249D960401249D9F879E7
:1049230000901AAA1249AD12064AE8C0E01249B72C
:10493300D0E01249E7C3941340117402800FEEA232
:10494300E092AF8037901AAC0248B77400C0E09091
:104953001AB0E0C8124982D0E0800D1249B7740141
:104963001249E21249827401F07903800C901AAF64
:10497300124839A2E1B3E433F91213EC02340B24E5
:104983001AF582E438F58322E50824FBF582E5096C
:1049930034FFF58322125CA3124827221233E7E582
:1049A300084509228518828519831249B122E0FA44
:1049B300A3E0FB221252AC2419F582E438F58322DA
:1049C300901AAF1249CA221249FCC81249D22212C4
:1049D30054C338F583221252AC24181248242212ED
:1049E30049F4C8221249F4F5838882A3A3A3A3E060
:1049F30022F0901AAF1249FC22E0F8A3E02274F7E8
:104A0300120821EAFEEBFF1229EE124EFBA2E3404D
:104A13000A123E32700590816D800390816EE0F939
:104A2300EEFCEFFD7AA67B1A1215B4E96038EEFAB4
:104A3300EFFB901AB9124A791209F6EE240E124EC0
:104A4300FE54047012124549EE12357AA3E0540164
:104A5300701E1228F88019EEFAEFFB901AB1124A71
:104A6300791209F6800A8E828F83A374F1124A8A1F
:104A730002500C901ABB124A7D22124A8122E0F89E
:104A8300A3E0F583888222124A911228EC22F0EEE9
:104A9300FAEFFB22024B1A74F7120821EAFEEBFF2E
:104AA3007900901B13E05402700CEA2433124EFE7B
:104AB3005404600279E8901B13E05460700CEA24FC
:104AC30033124EFE5402600279E88A828B83A3A3D9
:104AD300A3A3E0F8908173E0C398500279E8EA2435
:104AE30031124EFE700CEA242E124EFE700479F53C
:104AF300800BE970051228DAE9F9E96007EEFAEFAD
:104B0300FB1229C402500CC082C0838A828B837437
:104B13000DF0121E428007C082C0831228F8D08392
:104B2300D082020CB974F4120821EAFEEBFF8A82E8
:104B3300F583E4F0A3124BAF540490816D7012E03F
:104B4300F8901AADE0C398401279F11229C40234E7
:104B53000BE0F8901AACE0C39850EE124BB5A3E00B
:104B630054016037EA2437124EFEC394054033EAFA
:104B73002433124EFE540570297AC17B1A122AF689
:104B8300EE2437F582E43FF5831233BC7808120C28
:104B9300D17AC17B1A124BA9120D07EEFA1255A650
:104BA30080AC79E880A5122AEA740422F0124BB58E
:104BB300E022EA2433F582E43FF5832274F61208F7
:104BC30021E9FE2451FAE43400FB121578EA4B6024
:104BD30015EE8A828B83A3A3A3A3F0EA2451124B7D
:104BE300F0124C0180047A007B0002631FF8E43B5F
:104BF300F98A828B83A3A32212696F901B8BE8F03F
:104C0300A3E9F022024B1AC082C083901ACA744CE3
:104C1300F0A37429F0A3747CF0A37429F0A3745255
:104C2300F0A37429F0A37458F0A37429F0A3747645
:104C3300F0A37429F0A3746AF0A37429F0A3746435
:104C4300F0A37429F0A37482F0A37429F0A37488E9
:104C5300F0A37429F0A3748EF0A37429F0A3749ABB
:104C6300F0A37429F0A3745EF0A37429F0A374462F
:104C7300F0A37429F0A37440F0A37429F0901AE60A
:104C83007470F0A37429F0A37494F0A37429F0A3AF
:104C930074AEF0A3742AF0A374A0F0A37429F0A354
:104CA30074A6F0A37429F0901B0AE4F0901B0DF096
:104CB300901AF6124CC77402F0901AFF124CC77484
:104CC3000102462574BEF0A37429F0A32274F512E1
:104CD300082174F1120DB58518828519837402F0C9
:104CE300740112100DE9F060047AFF7BFF74021265
:104CF300100D12576475080275091B750A007808B0
:104D0300120CD57C0B7D00740712100DAA82AB83A5
:104D1300124D37120D07AA18AB19121E42740F80D9
:104D230003124D37120D077F03020A957C0B7D009A
:104D33007A027B1B12155474032274F71208217430
:104D4300FD120DB5851882851983740AF07401125A
:104D5300100DE9F0740212100DEA1263DE023DB584
:104D630074F612082174F7120DB5EAFEEBFFEA128E
:104D73004DB5124DE57402F0EA2428FCE43FFDAA88
:104D830018AB19121710EE2431124DBB2433125DE8
:104D9300DD120CD97402120D9779831A1A1239761F
:104DA300120D07E9F5087007EEFAEFFB1228FE0271
:104DB300631812357E740122F582E43FF5831233C2
:104DC300E7125285F583124DD3E8F0A3E9F0EE2202
:104DD300124DDB8A828B8322E024FFF8A3E034FFA9
:104DE300F922F0A3E4F0EA1239972274F0120821B1
:104DF30012684D120FB67808790C12073278081230
:104E03000CD17AF97B1A0233EF74F412082174C6B9
:104E1300120DB59004B2E0640F600D8518828519F8
:104E230083742E12578380227AF07B1A12342D1248
:104E3300064A88088909E4F50AF50B7808120CD1AB
:104E43007AF07B1A124BA9120D07743A02340874D4
:104E5300F5120821EAFEEBFF8A82F583A3E0F870DE
:104E630078EA2430124EFE64026007E064036002B5
:104E730078E8EA2426F582E43FF5831234264004D9
:104E830078E88058E87052EA2426124066EE24310E
:104E9300124EF02430124EFE6402700EEE242812DD
:104EA30069659004C1124C0180179004C174FEF02F
:104EB300A304F0EE2428FCE43FFD7AB87B04121728
:104EC3001CEE241B1241B5120CD5124D2F120D07E7
:104ED300EEFAEFFB12293AE9F8E8600EE88E828FCA
:104EE30083A3126181741712622B024D2AFAE43FE5
:104EF300FB79501212CCEE22EE2410F582E43FF53A
:104F030083E02274F612082174F7120DB5901B0D7D
:104F1300E070377401F0F91213B6AA18AB19122A0C
:104F23000075080275091B7808120CD975080175FC
:104F330009007808120CD99004C7120B6474061286
:104F43000D977A0312341C120D0702631A74F712B9
:104F5300082112512C7004A374EBF0901B0DE0A2F6
:104F6300E25003C2E2F0E0A2E1500512513D800994
:104F73008E828F83742A12622B02500C74F41208EF
:104F83002174FE120DB5125032125278EC8518823C
:104F93008519831252C7E0F50B7015AA18AB19795E
:104FA300531212CCEE2413FAE43FFB794A1212CCCB
:104FB3001241B2120CD5124D2F120D071249A7A997
:104FC3000B12292E901B0DE0A2E1500312514490C5
:104FD3001B0DE4F0740202340874F7120821EAFE90
:104FE300EBFF8A82F583A374EBF0901B0DE0A2E143
:104FF30050077A0079EB122934EEFAEFFB12296A93
:105003008007EEFAEFFB122A6C7F01020A9574F710
:10501300120821125032901B0AE4F0901B0DF07A13
:10502300FF7BFF8E828F83A3E0F912292E80DA1291
:10503300517D7AF97B1A122AF62274F7120821EAB3
:10504300FEEBFF12296480BA74F71208211251BAD9
:10505300A3A3A3E060047400800274EB12508B508E
:1050630003C2E2F0E0A2E1500512518E8011A2E0EA
:10507300500D8E828F83742AF0A374EB12622BEE91
:10508300FAEFFB12291080818E828F83A3F0901B8D
:105093000DE0A2E22274F6120821EAFEEBFF901B58
:1050A3000DE0D2E1F079011213B68E828F83A3E073
:1050B3007038122A06E9FAEE240DF508E43FF509E3
:1050C3007808120CD97508017509007808120CD9F3
:1050D3001250FE120B64EE2402FCE43FFD12341C5A
:1050E300120D07E98E828F83A3F08E828F83A3E054
:1050F30060067A00F912293402631FEE240BF5824D
:10510300E43FF5832274F712082112512C7004A393
:1051130074EBF0901B0DE0A2E25003C2E2F0E0A2B8
:10512300E1500312513D02500CEAFEEBFF790112EC
:1051330013BC8E828F83E0642022C2E1F0125144BB
:10514300227A008E828F83A3E0F91229342274F726
:1051530012082112517D8E828F83A3A3A3A3E06043
:10516300047400800274EB12508B5003C2E2F0E02F
:10517300A2E1500312518E025082EAFEEBFF790145
:105183001213BC7AF07B1A122AF622C2E11266AF1E
:10519300E0A2E4E433FA1251462274F71208211212
:1051A30051BA74EB1250905003C2E2F0E0A2E15006
:1051B3000312513D02500CEAFEEBFF79011213BCBE
:1051C3008E828F83A32274F71208211251DF0250BB
:1051D3000574F71208211251DF02500CEAFEEBFFAF
:1051E3007AF07B1A122AF6EEFAEFFB12298E22745A
:1051F300F712082174EF120DB5EAFEEBFFEA126114
:105203006D7AB87B0412170AE960568518828519EE
:10521300837409F0740112100D74EFF01252787454
:105223000212100DEC1252C7A3A3E0C0E0740412E3
:10523300100DD0E01252B4640870158E828F83A3D0
:10524300A31252A0E0C0E0740512100DD0E0800656
:10525300740512100DE4126009740612100D125237
:10526300697411023DB7AA82AB83122A36AA18AB1E
:1052730019121E4222125285F583125297FCA3E0A3
:10528300F922EE12528DFB8882222402F8E43FF9C0
:10529300E8FAE9221249FC8882F583E0221252AF30
:1052A3002407F582E438F58322901AAF1249FCC82B
:1052B300221252B8221252BDE022F08E828F83A3B3
:1052C300A3A3A3221262991252CE221252D222E037
:1052D300F8A3E0F5838882A3A322C082C083122AA5
:1052E30078024B21C082C083901B2A74CAF0A37436
:1052F3001AF0A374E6F0A3741AF0901C7974D3F037
:10530300A37430F0A37471F0A37430F0901B16747F
:1053130028F0A37429F0901B13E04401024625C032
:1053230082C083EAFCEBFD79021229DC024B217473
:10533300F612082174FE120DB5901B0F12538060F4
:10534300077A0F7B1B1229F4901B15E4F0900B8452
:1053530012538060208007AA18AB191229F4901BFE
:105363000EE0F91215908B09A90985188285198316
:10537300123FD870E2740202631C901AAF12696F75
:10538300E8492274F7120821E9FA7B00901B0EE02A
:10539300F91215BA02500C74F712082174F0120DA9
:1053A300B5EAFCEBFDE9FE8A828B83E0F8745E12BA
:1053B30054B53433F583E493C0E0740112100DD077
:1053C300E0F0640B700DE98A828B83A3F0122A5AF2
:1053D3000254B0E070030254B0640C60030254A1A1
:1053E300741A6E700B740412100DE4F0A30254A02F
:1053F300740412100D125764EA2432125C6DC0E07B
:10540300740312100DD0E012669A120FEA7406129A
:10541300100D120FF68C828D83A3A3A3A3A3A3A3C2
:10542300A3A312696B740A12100DE8F0A3E91254D6
:10543300BAE054106009851882851983E48013EC5F
:105443002412125C6DF89004D4E0C3988518828509
:105453001983F0E0C0E0740C12100DD0E0F0EC24DE
:1054630015125C6DC0E0740D12100DD0E0F0EC2449
:1054730016125C6DC0E0740E12100DD0E0F0EC2437
:1054830017125C6DC0E0740F12100DD0E01254BA05
:10549300A3E054016008740112100D7411F074023A
:1054A30012100DEEF07401120D8F121E42741002D1
:1054B3003DB728F582E422F0EC1254C33DF5832274
:1054C300240EF582E422C082C083901B15E064039E
:1054D3007004790180027900024B2174F7120821CC
:1054E300901B15E0125559747728F582741C39F511
:1054F300831259EBC2E7F0125560A3E493FE25E053
:10550300FCE433FD74772CF582741C3D125D77EC5B
:105513004D6005EE901B15F08A828B83E025E0FC3D
:10552300E433FDE82CF582E93DF583E493FCC454B0
:105533000F25E0F874241254B5341BF583125380FD
:105543007005122A48800CEC540F125560124A79E8
:105553001209F602500C25E0F8E433F92225E0FCA9
:10556300E82CF582E439F5832274F212082174FEE3
:10557300120DB5890B8A088B0912560B1255FC6064
:105583001A126016F50A7808120CD512561824025E
:10559300125D6D120D071255A4800312562A023AAA
:1055A30007AA0CEFFB901B0EE0F91215842274F08E
:1055B30012082174FE120DB5890B8A0E8B0F125639
:1055C3000BF5081255FC6027126016A808EA28128A
:1055D30042FA850E08850F09F50A7808120CD512D0
:1055E3005618125D6B120D071255A479008005122F
:1055F300562A791A74020233F4FA7B001215788A58
:105603000C8B0DAF0DEA4F22742729F582E4343356
:10561300F583E49322A80B743D1254B53433F58318
:10562300E493FC7D00EA22851882851983E50BF05B
:10563300791AAA18AB191229C422C082C083E9902F
:105643001B0E02462574F612082174FE120DB5EAEC
:10565300FEEBFFEA542070308039A8A8C2AF901A3D
:10566300AEE0141245528A828B83125751901B115C
:105673001257641229D0851882851983E064156056
:10568300077A117B1B1229F47AA87B1A1215A2EA56
:105693004B70C7EF5480700C8016901B11EAF0A377
:1056A300EB125777901B0EE0F9121590EA4B70EA54
:1056B300EE5410600B851882851983742D1257835D
:1056C300EEA2E0500B851882851983742412578348
:1056D300EE5402600B851882851983742512578353
:1056E300EE5404600B851882851983742612578340
:1056F300EE5408600B85188285198374281257832A
:10570300EE5440600D740112100D12576A742C127E
:105713005783EE5480600D740112100D12576A7492
:105723002F125783901B0F125380601BA8A8C2AF80
:10573300901B0F1249AD901B0FE4F0A3124552A327
:10574300EAF0A3E91257777A007B000253781257E5
:105753005522E0851882851983F022A3A3A3A3A36E
:10576300A3EAF0A3EBF022E412576F22F08518822C
:1057730085198322F01229D07A117B1B1229F42276
:1057830012429E1229D022C082C083901B11126341
:10579300D9687002EB697007901B11E4F0A3F00263
:1057A3004B2174F7120821EAFEEBFFEA4F70031254
:1057B300111CA2AFE433F508C2AF8E828F8312535C
:1057C300806028E824FBFAE934FFFB901B11125D8B
:1057D30079E86C7002E96D7007901B11E4F0A3F097
:1057E3008E828F83E4F0A3F0121632023C23C08230
:1057F300C083901B38743CF0A3742AF0A3744EF05A
:10580300A3742AF0A37454F0A3742AF0A3740AF0C7
:10581300A37429F0A3745AF0A3742AF0A37404F0B8
:10582300A37429F0A37410F0A37429F0901B467499
:105833008AF0A3742AF0A37460F0A3742AF0A3740B
:1058430066F0A3742AF0A37472F0A3742AF0A3740D
:105853006CF0A3742AF0901B37E4024625C082C083
:10586300839004C1E064FE7003A3E0F470097CB884
:105873007D04121710801C8A828B83A3A3A3A3A386
:10588300A3A3A37402F09004C112696B8A828B8371
:10589300124C01024B21C082C0839004CBC3E0941D
:1058A300FEA3E094FF4004790380027902024B21B6
:1058B300C082C0831259F48C828D831259A96870F7
:1058C30039740268701C8A828B83125902E06870F3
:1058D300298A828B83A3125902A3E068701C790181
:1058E300801A7403687013EC2405FC50010DEA243C
:1058F30005FA50010B12171680027900024B21A3FF
:10590300A3A3A3A3E0F88C828D83A3A3A3A3A322C1
:1059130074F61208217E00740A12100DE012599DCC
:10592300FF8A828B83A3A3A3A3A3A3A3A3E06F7084
:105933006474026F704E8A828B83C082C0838882B4
:105943008983A3A3A3A3A3E0F50888828983A3A3E0
:10595300A3A3A3A3E0FBAA08D083D082E06A7003C9
:10596300A3E06B703088828983A3A3A3E0FA8882C3
:105973008983A3A3A3A3E0F9EA6C7002E96D701510
:105983007E01801174036F700CE82405FCE439FD7B
:10599300121716E9FEEEF902631FF8A3E0F98882F5
:1059A300F5831259A922A3E01313543F540322C0D1
:1059B30082C0838A828B83A3A3A3A3A3A3A3A3E00D
:1059C300640270169004C11259EB687003A3E06976
:1059D30070047901800F7900800BEAFCEBFD7AB843
:1059E3007B0412170A024B2112696F8A828B83E0B0
:1059F300228A828B831259A9F82274F01208217427
:105A0300FC120DB5E9851882851983F07402121012
:105A13000DECF0A3EDF08A0A8B0B750800740212EB
:105A2300100DE02408125C6DC0E0740112100DD05B
:105A3300E0125CBDA2E75008750EFF750FFF800AE8
:105A43009004C7E0F50EA3E0F50F8518828519834E
:105A5300E0C2E7125CC254206007125C8F740880B6
:105A630004125C8FE4125CC254046007125C9A74E3
:105A7300808005125C9A7410125CC2541060061286
:105A83005C75E4800B9004D4E0C0E0125C75D0E058
:105A9300125CC2A2E050037508205408600674101B
:105AA3004508F5088A828B83A3A3E024FFFEA3E0C5
:105AB30034FFFFEA125C80C39402E0400F640B6082
:105AC30009E0148E828F83125CB374034508F508D2
:105AD3007509009004E7E0640170118A828B83A347
:105AE300A3A3A3E0C39467400375091085188285B7
:105AF3001983E0F50C750D00740E780C120E94E505
:105B03000D4509F509E06402701B9004CCE08E8218
:105B13008F83F09004CBE0C0E012397ED0E0F0EE4A
:105B230024FEFE801CE06403701DEE24F9FEEF34B6
:105B3300FFFF7CDB7D04EEFAEFFB12171CEE24FF64
