:020000040000FA
:06000000020FE3020609F5
:03002B00020DB50E
:03004300020C6943
:0300530002053E65
:1000830002059D0100F0FF0700080000FFFF0000CC
:10009300070400000003000147726F757000FF043E
:1000A30000100020FD00020000D315000000000036
:1000B300003316000000000000AF15000000000030
:1000C3000000000000BB150000000000000000005D
:1000D30000000006FFFF1E01BD190000E11900002A
:1000E300000000000000000000000000000000000D
:1000F300124261736564206F6E205449204343327A
:100103003533300101040100010005EC8D011D8F21
:10011300010400003A1A000000E8030000FFFFB4E6
:100123001A0188130000E803000064006400B801AA
:10013300A0BB0D00A0BB0D000202020704010105D4
:100143001E02051E020A0A0101010809080103B87B
:100153000B02803E0102FEFFE8030A050001FFFFD8
:10016300010A1401E00105030101FF0F10FEFF0363
:100173000003000300030003000300030003000364
:100183000005000A00140028004F009E000000D55F
:1001930031000000006D3100000000FF000000FF8F
:1001A30000120FF3601D1210027005191919801A3D
:1001B300120E97701F120EABC37003E66733191943
:1001C3001940071818182208080874FFF618F618BB
:1001D300F618F622120EAB6017121090702192F0EF
:1001E3001210997019501720F0140808080909090A
:1001F300E7F61819E7F61819E7F61819E7F62212C1
:10020300109960E6E869701F0808E62480F608E4A0
:1002130036F618547FB47F0CE654806007F6E41872
:10022300F618F622181822E9C6CC08C6CD08C6CEA1
:1002330008C6CFC0E0E8C0E0EAC0E0EBC0E009E9EF
:10024300F809E7FA09E7FBE6F918E6F8C3EC98EDD5
:1002530099EE9AEBC2E7F5F0EFC2E795F0500E6026
:100263000CEBCFFBEACEFAE9CDF9E8CCF8EAA2E74A
:10027300D2E7FAEB33FB13F5F0EEA2E7D2E7FEEF9A
:1002830033FFC5F013A2E730E601B313C5F0C3C0D3
:10029300E0C0F07F00C39BFB605E9418600F401DBD
:1002A30014601AD0E023F9D0E0F80203858AF0E95C
:1002B300486003D2F0E4AFF0FAF9F8803BEB30E4A6
:1002C3000D89F0EA6003D2F0E4AFF0F9CAF8EB303D
:1002D300E30D88F0EF6002D2F0AFF0E4CAC9F8EBA7
:1002E30054076014FBC3EA13FAE913F9E813F8EFB0
:1002F300135002D2E0FFDBEDD0E0C0E030E739C3BA
:10030300E49FFFF5F0EC98FC42F0ED99FD42F0EE2E
:100313009AFE42F0D0E0F9D0E0F8E5F0607AE92304
:10032300F9EE20E742D8028067C3EF33FFEC33FCDA
:10033300ED33FDEE33FE80EAEC28FCED39FDEE3AB9
:10034300FED0E023F9D0E0F84002801BC3EE13FE99
:10035300ED13FDEC13FCEF135002D2E0FF08B800DD
:10036300067F7F74FF802EEF3350178CF020F0024E
:1003730060100CBC000C0DBD00080EBE000408E8A4
:1003830060DFE933E813FFEE2313FE4F4D4C800883
:10039300E95480FFE4FEFDFCEE33EF33F47004FC1C
:1003A300FD7E80D0E0FBD0E0FAD0E0F8D0E0CFC60D
:1003B30018CEC618CDC618CCC6F92200120FF360AA
:1003C3004F1210026012E7548066F6120E977011F6
:1003D300121090703B090909F4F618F618F618F68E
:1003E30022120EAB701512109908080860EAE64451
:1003F3007FF618768018E4F618F622121099601624
:100403001210907012E4F608F608F608E65480F627
:1004130009090918181822EAC0E0EBC0E0ECC0E0B3
:10042300EDC0E0E687F0A4FBACF008E687F0A42C6F
:10043300FCE435F0FA1809E687F0A42C4B6002744B
:1004430001CA35F0FCE433FB09E687F0D2F7A42CAC
:10045300CB35F0FC1908E687F0A42BCC35F0FBE490
:1004630033FD0819E687F0D2E7A42C4ACB35F0CD4B
:100473003400FC09E687F0D2E7A42DCC35F0FDE487
:1004830033FA0918E687F0D2F7A42CCD35F0CA3435
:1004930000FC08E687F0D2E7D2F7A42ACC35F07A3D
:1004A3007E20E70B0ACB33CBCD33CDCC33CC33CB50
:1004B3003350147004ED30E00ED2F1E4CD3DCDCCD9
:1004C3003CCC3B5005DA05C2F1EB547FC63308E65A
:1004D3003392F0FBE73309E733C39A502D2B70199E
:1004E3000C0D4C4D70151806E608C333700D20F142
:1004F3000AA2F013F6E418800B4024E4F630F0026D
:10050300768018F618F618F68024D33B145010742E
:10051300FFA2F013F6187680E418F618F6800FA2FF
:10052300F013F618E63303F618ECF618EDF6D0E000
:10053300FDD0E0FCD0E0FBD0E0FA22C0E074F11281
:1005430008AFA2AFE433F509D2AF85A708AFA1EF97
:100553005508FE74105E600612133F75A1EF740810
:100563005E600812134575A1F78024EFA2E092F0B4
:10057300E508A2E082F05017906198E0F89006BB7E
:10058300E0C398A2D265D0335002E8F075A1FEE52E
:1005930009A2E092AF7F0202096BC0E074F2120875
:1005A300AFA2AFE433FED2AF9061A4E0F8759B0035
:1005B300E59158540860087591F71213938023E569
:1005C3009158541060087591EF1213998014E591B6
:1005D300A2E092F0E8A2E082F05007E0C2E0F0125D
:1005E30014E39061A3E0F8E5E9585404600E121493
:1005F300B975E9FB906193E0A2E640F2EEA2E092C6
:10060300AF7F0102096BC0E074F21208AFA2AFE43E
:1006130033FED2AF9061A5E0F8E5BF5854046006FD
:1006230075BFFB1214FB80D4C3E498F8E499F91264
:10063300066C8026C3E49AFAE49BFBE920E7E912FF
:10064300066CE498F8E499F922C3E498F8E499F97C
:1006530012066CE498F8E499F9C3E49AFAE49BFB74
:1006630022EB20E7CFE920E7E0B90010BB0008E860
:100673008AF084F8AAF022E4FBC8FA22EB70227B0A
:1006830010C833C8C933C9335007C39AC3DBF280D8
:10069300069A50012ADBEAC833F4C8C933F4C9FA0D
:1006A3002275F008E4C833C8C933C933C99AC99B52
:1006B3005004C92AC93BD5F0ECFBC833F4C8E4C9DC
:1006C300FA2212070520F01430E72B74FFFCFBFA23
:1006D300747F8022E4FCFBFA7480801AB48008BC27
:1006E30000F2BB00EF800F50EBF9E4C39AFAE49BEE
:1006F300FBE49CFCE499C6CC18C6CB18C6CA18C642
:10070300F922E4C9C608CAC608CBC6D3330308CC4A
:10071300C63392F0C3947F402E94184019C9B90789
:1007230004CACBCC225025C309CA33CACB33CBCCA2
:1007330033CC33D9F422F4600DC9CCC313CB13CB20
:10074300CA13CAD9F6CC22E4FCFBFA2214FCFBFA46
:1007530022080808EAC0E0EBC0E086F0E7A4FA1834
:100763000986F0E7A42AFA180986F0E7A42AFA18FA
:100773000986F0E7A42AFA1986F0E7A4FBE5F02A34
:10078300FA190886F0E7A42BFBE5F03AFA19088674
:10079300F0E7A42BFBE5F03AFA18180986F0E7A472
:1007A300C5F02BFBE43AFA1908E7C5F0C6A426F610
:1007B300E5F03BFBE43AFA1886F0E7A4F6E5F00827
:1007C30026F6E43B08F6E43A08F6D0E0FBD0E0FA7C
:1007D30022E4CFC0E0E4CEC0E0E4CDC0E0E4CCC08E
:1007E300E075F020E626F608E633F608E633F60869
:1007F300E633F6181818EC33FCED33FDEE33FEEF59
:1008030033FFC3EC9709ED9709EE9709EF97191991
:1008130019400FFFEC97FC09ED97FD09EE97FE19C0
:100823001906D5F0BFECF709EDF709EEF709EFF775
:10083300191919D0E0FCD0E0FDD0E0FED0E0FF2292
:100843002518C582C0E0E51934FFC583C0E0E5186B
:10085300C3958224F810AF08858319858218800810
:10086300858319858218D2AFCEF0A3E520F0A37853
:1008730008E608F0A3DEFAEFF0A3E58124FAF8E630
:1008830008F0A3E608F0A3E608F0A30808E608F0DA
:10089300A3E608F0A315811581D0E0FED0E0F8159A
:1008A3008115811581E8C0E0EEC0E022C0D0251893
:1008B300C582C0E0E51934FFC583C0E0E518C395E0
:1008C3008224F310AF0885831985821880088583F5
:1008D30019858218D2AFC8F0A3E9F0A3EAF0A3EB1D
:1008E300F0A37908E709F0A3D8FAECF0A3EDF0A39D
:1008F300EEF0A3EFF0A3D0E0F0A3D0E0F0A3D0E0BC
:10090300F0A3E520F0A3E5F0F0A322E9799EC60861
:10091300CAC608CBC608CCC6C370207996CACBCC4E
:100923007019798ECBCC70137986CC700EF9802A2E
:10093300CA33CACB33CBCC33CC331930E7F2CCCB6D
:10094300CA3350147004EA30E00DE4CA3ACACB3B10
:10095300CBCC3CCC500209C3E913C6CC182313C635
:10096300CB18C6CA18C6F922851983851882E0C038
:10097300E0A3E0F9A3E0FAA3E0FBA37808E0F6081C
:10098300A3DFFAE0FCA3E0FDA3E0FEA3E0FFA3E006
:10099300C0E0A3E0C0E0A3E0F5D0A3E0F520A3E02E
:1009A300A3F5F010AF088583198582188008858325
:1009B30019858218D2AFD082D083D0E0F8D0E0324C
:1009C30012107BB90003020A02E490040178B179A2
:1009D3001A8002F0A3D8FCD9FA7AB17B1D90008665
:1009E300781F79028015E493A3AD82AE838A828B4C
:1009F30083F0A3AA82AB838D828E83D8E9D9E7756E
:100A030082EA7583FD7404120D2C75824575832E5D
:100A13007400120D2C75F0108E1A8F1B85821F85A2
:100A2300831E851882851983E0CEA3E0CF851F82BC
:100A3300851E83EBC9EAC8EDCBECCAC3E833C8E92A
:100A430033C9EA33CAEB33CBC3EA9EF51DEB9FF5FB
:100A53001CB35004AB1CAA1DEC33CCED33CDD5F045
:100A6300DAAE1AAF1B22D083D082ECC0E0EDC0E037
:100A7300E493A3FCE493A3FDED4C600D120B41EC56
:100A830024FFFCED34FFFD80EFE493A3FCE493A388
:100A9300FDED4C600D120C14EC24FFFCED34FFFD56
:100AA30080EFD0E0FDD0E0FCE493A3C0E0E493C08A
:100AB300E022D083D082E9C0E0E493A3C386F0C5EB
:100AC300F095F0F908E493A386F0C5F095F0700B68
:100AD300E493A3C3994005E9048002A3E475F002FB
:100AE300A42582F582E5F03583F583D0E0F9E4931C
:100AF300A3C0E0E493C0E022851983851882E0A3B4
:100B0300FEE0A3F5207808E0A3F608DFFAE0A3FFF0
:100B1300E0A3C0E0E0A3C0E0E0A3C0E0E0A3C0E046
:100B2300E0A3C0E010AF088582188583198008858B
:100B33008218858319D2AFD083D082020D32C0E0F0
:100B4300C3E49396087401939618400FE493667078
:100B53000808740193661870007019A3A3C3E49383
:100B630096087401939618A3A3400DD0E0D0E0D06B
:100B7300E0020AA5A3A3A3A3A3A3D0E022C082C03B
:100B83008374FE120E18851882851983EAF0A3EB8D
:100B9300F07C017D00AA18AB1979001212C78518E1
:100BA30082851983E0FAA3E0FB7402120D65D083FA
:100BB300D082227404800474028000CCC0E0EDC0B3
:100BC300E0E518C39CCCAD1950011D10AF068C187D
:100BD3008D1980068C188D19D2AF120CAED0E0FDA2
:100BE300D0E0FC2274028000CCC0E0EDC0E0E51848
:100BF300C39CCCAD1950011D10AF068C188D198004
:100C0300068C188D19D2AF120C8CD0E0FDD0E0FC0D
:100C130022C0E0C0F088F0E4936670080874019382
:100C230066187000A8F0A3A3700BD0F0D0E0D0E05A
:100C3300D0E0020AA5A3A3D0F0D0E022D083D082D3
:100C4300CCC0E0E493A36006120D0D1470FAE49394
:100C5300A36006120E2E1470FAD0E0FCE493A3C036
:100C6300E0E493C0E022C0E074F21208AFA2AFE464
:100C730033FED2AFC2C0E5D1A2E450031212AFEEED
:100C8300A2E092AF7F0102096BCAC0E0E493A3C55F
:100C930082CCC582C583CDC583F0A3C582CCC58272
:100CA300C583CDC583DAE5D0E0CA22CAC0E0E0A39C
:100CB300C582CCC582C583CDC583F0A3C582CCC50F
:100CC30082C583CDC583DAE6D0E0CA22C008C3E07B
:100CD30096F50808A3E096420808A3E096420808A0
:100CE300A3E09645087001D3D008227009080808CC
:100CF300226016181818C6C333C608C633C608C6FA
:100D030033C608C633C6D5E0EA22C0E0E493A3D3D2
:100D13009C5010E493A3C39C400AD0E0D0E0D0E001
:100D2300020C5CA3A3A3D0E022C09FF59FE473D081
:100D33009F22D083D082C09FE493C0E0740193C00C
:100D4300E0740293F59F222518F58210AF08F51879
:100D5300400C15198008F51840021519D2AF8519F2
:100D6300832200C0D0251810AF08F518500C0519C0
:100D73008008F51850020519D2AFD0D02274048030
:100D83000A74038006740280027401C0E0F4041242
:100D93000D4AD0E012103E22BB0102E722C082C0FE
:100DA3008389828A83BB0003E08002E493D083D0EB
:100DB3008222C0E0C0D0E8C0E0A8A8D2AFC2C7E892
:100DC300A2E792AFD0E0F8D0D0D0E03260160808A6
:100DD30008C6C313C618C613C618C613C618C61347
:100DE300C6D5E0EA222518F8E43519F9222518FAC0
:100DF300E43519FB222518FCE43519FD22C3E0C6AE
:100E030096F608A3E0C696F608A3E0C696F608A3EE
:100E1300E0C696F622251810AF08F518400C1519F0
:100E23008008F51840021519D2AF22C0E0E493A35D
:100E33006C7009D0E0D0E0D0E0020C5CA3A3D0E05A
:100E430022E066701008A3E066700A08A3E06670EB
:100E53000408A3E06622C3E09608A3E09608A3E093
:100E63009608A3E096A2D265D03322E766701008F5
:100E730009E766700A0809E76670040809E766224D
:100E8300C3E096F008A3E096F008A3E096F008A369
:100E9300E096F022181818E60846087009E62608B6
:100EA3007005E633F4220822191919E70947097076
:100EB30009E727097005E733F4220922C3E493966F
:100EC3000874019396087402939608740393962208
:100ED300C3E697F60809E697F60809E697F60809C0
:100EE300E697F622E026F608A3E036F608A3E036F6
:100EF300F608A3E036F622E647F60809E647F608C1
:100F030009E647F60809E647F622700422600D1841
:100F1300C6C333C608C633C6D5E0F41822E657F66F
:100F23000809E657F60809E657F60809E657F622D0
:100F3300E056F608A3E056F608A3E056F608A3E049
:100F430056F622E056F008A3E056F008A3E056F068
:100F530008A3E056F022E627F60809E637F6080963
:100F6300E637F60809E637F622E026F008A3E0366E
:100F7300F008A3E036F008A3E036F022E493F60885
:100F8300740193F608740293F608740393F622E44B
:100F9300C396F608E496F608E496F608E496F62275
:100FA300600D08C6A2E713C618C613C6D5E0F32220
:100FB300C6F4C608C6F4C608C6F4C608C6F4C622F4
:100FC300C3E7960809E7960809E7960809E7962212
:100FD300C3E09608A3E09608A3E09608A3E0962250
:100FE30075D00075813F751801751904000209C396
:100FF300E6084608C3134608336002E633F422E7E3
:10100300094709C3134709336002E733F422600C2D
:1010130008C6C313C618C613C6D5E0F422E6F00803
:10102300A3E6F008A3E6F008A3E6F022E0F608A39F
:10103300E0F608A3E0F608A3E0F622CAC0E0E6F073
:10104300A308DAFAD0E0FA22E0FAA3E0FBA3E0FC7B
:10105300A3E0FD22EAF0A3EBF0A3ECF0A3EDF02272
:10106300E0F8A3E0F9A3E0FAA3E0FB22E8F0A3E9A8
:10107300F0A3EAF0A3EBF022E5C754F84401F5C767
:101083007901222518F582E43519F58322E727191A
:10109300471947194722E62618461846184622C21A
:1010A300AF75D69F02000022120D35927000120D0B
:1010B300350E7100120D35417100120D356F71003F
:1010C300120D35937300120D35AF7300120D35F405
:1010D3007300120D35797400120D35C57400120DAD
:1010E30035557500120D352E7600120D357F7600BD
:1010F300120D35E47600120D35577700120D359B2E
:101103007700120D35F37700120D35157800120DA7
:1011130035A57800120D35367900120D3582790028
:10112300120D35AE7900120D35EF7900120D3590A1
:101133007B00120D35727C00120D354E7D00120DB1
:101143003576C706120D35B7C706120D35D1C7065A
:10115300120D35EDC706120D3516C806120D35579B
:10116300C806120D35B6C806120D3520C906120D74
:10117300357FC906120D35BCC906120D357ACA066C
:10118300120D35287E00120D35437E00120D357584
:101193007E00120D35A27E00120D35C77E00120DA2
:1011A30035F27E00120D351D7F00120D354D7F0087
:1011B300120D3531E106120D3542E106120D35E00F
:1011C300E106120D35FAE106120D35F07F00120D1E
:1011D300353CD006120D3593D006120D354BD20691
:1011E300120D3571D206120D359FE706120D35CF5C
:1011F300E306120D35DFE306120D35F4E306120D97
:10120300353DE406120D3553DD06120D35D7DD06E7
:10121300120D353FDE06120D35ED7F00120D35E65A
:10122300FF04120D35F4FF04120D35BDE406120D53
:1012330035E2E406120D35F5E406120D3500E50638
:10124300120D3555C006120D3563C006120D35DC7F
:10125300C006120D35B1C106120D3583C306120D3A
:1012630035E8C306120D3506C406120D3533C40620
:10127300120D353BC606120D35D9C606120D35FDC6
:10128300C606120D35F0E606120D35BD9706120D92
:10129300352A9806120D35E29806120D355899062F
:1012A300120D356C9A06120D35FC9B06120D356531
:1012B3009C06120D35B49C06120D35BD9C06120D0D
:1012C30035CC9C06120D35E29C06120D35F59C06B5
:1012D300120D35FE9C06120D35119D06120D353D7E
:1012E3009D06120D35D49F06120D3514A006120D5E
:1012F3003550A006120D3564A006120D357DA006EB
:10130300120D356EA106120D3520A206120D3534CD
:10131300A206120D3591FE05120D35B5FE05120D0F
:1013230035CEFE05120D350CFF05120D353CFF05BC
:10133300120D3569FF05120D35CFFF05120D35D29C
:10134300FF05120D35DCFF05120D35E9FF05120D02
:101353003595CD06120D35B5CD06120D35F4CD06F6
:10136300120D3512CE06120D352DCE06120D359304
:10137300CE06120D359FCE06120D35FCCE06120D8C
:10138300350BCF06120D352FCF06120D35F0CF06D4
:10139300120D35FDCF06120D350ED006120D354652
:1013A300E406120D358EE406120D35BAE406120D6D
:1013B300352DAC06120D3589AD06120D3597AD06E8
:1013C300120D35AAAD06120D35BFAD06120D35D47B
:1013D300AD06120D35E7AD06120D3563AE06120DDF
:1013E30035C8AE06120D355EAF06120D3537B006A1
:1013F300120D3547B006120D3556B006120D3510D5
:10140300E206120D3534E206120D355CE206120DCA
:101413003584E206120D35B8D206120D35DFD20639
:10142300120D35FDD206120D356CD306120D35C2E1
:10143300CA06120D35DBCA06120D35E7CA06120DB0
:1014430035FBCA06120D3519CB06120D3523CB0613
:10145300120D352DCB06120D3540CB06120D35C6B8
:10146300CB06120D353BCC06120D356ACC06120D98
:1014730035B8CC06120D3507CD06120D3522CD0633
:10148300120D352CCD06120D353DCD06120D3580CE
:10149300CD06120D35D4E506120D35008006120D6A
:1014A300352C8006120D35498006120D355C8006F9
:1014B300120D35778006120D35D18006120D35FFDA
:1014C3008006120D350F8506120D356D8606120D39
:1014D300359F8606120D35028706120D356E880676
:1014E300120D35968806120D35AB8806120D35BBE5
:1014F3008806120D35FB8806120D353D8906120D3F
:10150300354D8906120D3509DB06120D3523DB0631
:10151300120D354BDB06120D3564DB06120D3588D3
:10152300DB06120D35A6DB06120D35BDDB06120DEB
:1015330035EBDB06120D3506DC06120D356FE606BC
:10154300120D3575FC03120D3585FC03120D358A1A
:10155300FD03120D35BCFD03120D35ECFD03120D19
:10156300350FFE03120D3526FE03120D3560FE0303
:10157300120D35C5FE03120D3507FF03120D354E4F
:10158300FF03120D357BFF03120D35A6FF03120D6A
:1015930035C4D906120D35E2D906120D3544DA06E3
:1015A300120D35DEDA06120D3546E006120D353919
:1015B300DC06120D3581DC06120D35CFD606120D71
:1015C3003530D806120D357FD806120D35A4D9064D
:1015D300120D3531EC05120D35BBEF05120D35B784
:1015E300F105120D35E9F205120D35C2F305120DA1
:1015F3003552F505120D351EF605120D3572F60539
:10160300120D350DD506120D352ED506120D356882
:10161300D606120D3592D606120D35B5E606120D15
:1016230035C5E606120D35CFE606120D35C5B905EB
:10163300120D35C8B905120D35A4C105120D35F6C5
:10164300C205120D3557C405120D352EC505120DF1
:101653003507C605120D35F0C605120D35E4C7056D
:10166300120D359CC805120D35CCC805120D357CFD
:10167300CA05120D3594FE01120D35B4FE01120D8B
:1016830035C8FF01120D35CBFF01120D3558DF06AA
:10169300120D358EDF06120D35A6DF06120D35E865
:1016A300DF06120D35F8DF06120D353CE006120D8C
:1016B300359F9006120D35D99006120D35429106CD
:1016C300120D35619106120D357A9106120D351CF6
:1016D3009206120D35259206120D35769206120DDD
:1016E300359F9206120D35AC9206120D351D9306E9
:1016F300120D35AB9306120D35F99306120D352FE6
:101703009406120D35909406120D35B99406120DF8
:1017130035309506120D358C9506120D35C9950693
:10172300120D35009606120D35129606120D35244C
:101733009606120D35439606120D354C9606120D7C
:1017430035079706120D35539706120D35919706F7
:10175300120D351BE506120D3548A206120D35880C
:10176300A306120D35ABA306120D35BCA306120D4D
:1017730035DBA506120D35FBA506120D35C2FD029C
:10178300120D35F8FD02120D3540FE02120D35998A
:10179300FF02120D35ABE904120D35DCEA04120D1C
:1017A3003518EB04120D35D2EC04120D35FCEC04A4
:1017B300120D3575EF04120D35B5EF04120D3549D1
:1017C300F104120D35E8F104120D3540F204120D47
:1017D30035D3F204120D350DF304120D354FF30416
:1017E300120D35C2F404120D3542F604120D357F85
:1017F300F804120D35ADF804120D35D9F804120DA5
:1018030035E2F804120D353FF904120D35CFF90412
:10181300120D350BFD04120D358DFD04120D357FB0
:10182300E706120D3595E706120D35BFB406120D06
:1018330035D5B406120D3579B506120D35B8B50692
:10184300120D35D5B506120D3506B606120D3553F4
:10185300B606120D3587B606120D35C2B606120D41
:1018630035B7B806120D3558DE06120D35B7DE064C
:10187300120D35F5DE06120D3536DF06120D350075
:101883008004120D350C8004120D356E8004120D88
:1018930035788004120D35058104120D354181041C
:1018A300120D35048204120D35178204120D35858D
:1018B3008204120D35ED8204120D357C8304120D62
:1018C30035FA8304120D359F8504120D35588704AC
:1018D300120D359E8804120D351B8A04120D35C274
:1018E3008A04120D35908F04120D35879004120D62
:1018F30035169104120D353B9104120D35D8910420
:10190300120D35F59104120D35159204120D35861D
:101913009204120D35A39204120D35D19204120DC7
:1019230035699404120D358A9404120D35309504EB
:10193300120D35789504120D35EA9504120D356DA7
:101943009604120D35D29604120D352F9704120DFD
:1019530035CE9704120D35429804120D357E980446
:10196300120D35EB9804120D35559A04120D35D628
:101973009B04120D35859C04120D35E79E04120D50
:1019830035499F04120D35779F04120D358FA1043D
:10199300120D351FA404120D3522A504120D35971F
:1019A300F605120D35B1F705120D3546F905120D81
:1019B30035E0F905120D3500FA05120D3503FA0568
:1019C300120D3516FA05120D355BFA05120D358722
:1019D300FA05120D35D9FA05120D35F1FA05120D76
:1019E300352CFB05120D359BFB05120D35F7FB0559
:1019F300120D3593FC05120D35FBFC05120D352731
:101A0300FD05120D3554E706120D359FCB04120D5B
:101A1300353ECC04120D35BACC04120D35A9CD04D4
:101A2300120D35A7CE04120D3526CF04120D3568DD
:101A3300D004120D3509D104120D35C9D204120D8B
:101A430035D0D304120D35EDD304120D3518D5045A
:101A5300120D3555D604120D35FFD604120D356916
:101A6300DA04120D3571DC04120D35FADC04120DA3
:101A73003554DD04120D35A2DD04120D351DDE04CF
:101A8300120D359FDE04120D35DBDE04120D357F9A
:101A9300E504120D35DAE704120D35B6E804120D2C
:101AA30035349D05120D35669D05120D35EA9D05EC
:101AB300120D354D9F05120D353BA005120D350353
:101AC300A205120D3528A205120D357AA205120DB5
:101AD300350CA305120D3558A305120D356BA3055F
:101AE300120D35C8A305120D3537A405120D3504A3
:101AF300A505120D3572A505120D35A9A505120D03
:101B030035F2A505120D359AA705120D3579A805ED
:101B1300120D35C7A905120D35AAAA05120D3536C2
:101B2300AB05120D356FAB05120D358EAB05120DDE
:101B330035D9AB05120D35F9AB05120D35B6AC052C
:101B4300120D35C3AD05120D35D7AD05120D352B6D
:101B5300AE05120D3586AE05120D35D3AE05120D49
:101B630035DBAF05120D3560B205120D3586B205B2
:101B7300120D3501B305120D3526B305120D35AD22
:101B8300B305120D3589B405120D35C7B405120D11
:101B9300354BB505120D3536B605120D3539B6057B
:101BA300120D3543B605120D354DB605120D3569C7
:101BB300B605120D35E5B605120D351EB705120D26
:101BC300353AB705120D3566B705120D358DB705D4
:101BD300120D35B1B705120D35ECB705120D355F92
:101BE300B805120D3593B805120D359DB805120DC4
:101BF30035D9B805120D35F3B805120D351AB905E7
:101C0300120D3549B905120D3568B905120D358028
:101C1300B905120D3592B905120D351FE606120DE1
:101C23003537E606120D35F37F00120D357D890633
:101C3300120D35CC8906120D358A8B06120D3544EB
:101C43008D06120D35828D06120D35778E06120D17
:101C530035828F06120D35A48F06120D35EE8F06D1
:101C6300120D356F9006120D352AA904120D354D4C
:101C7300A904120D35ABAA04120D35F4AA04120DF2
:101C83003552AB04120D35B8AB04120D35BBAB04A2
:101C9300120D350CAC04120D3586AC04120D35143F
:101CA300AD04120D3517AD04120D359FAD04120DA1
:101CB30035E2AD04120D3552B204120D35F0B30402
:101CC300120D352AB404120D3570B404120D35D03B
:101CD300B704120D3555B804120D35EDB904120DC4
:101CE30035FCBA04120D3529BC04120D3589BC0428
:101CF300120D3565BD04120D35EFBD04120D35F21D
:101D0300BD04120D35D7BE04120D351DC004120DCE
:101D130035D1C104120D35A4C304120D3536C404E4
:101D2300120D35CBC404120D35BDC504120D357D1E
:101D3300C704120D3593C804120D3502CA04120DDF
:101D43003547CA04120D35F2CA04120D3500800559
:101D5300120D359B8005120D350E8105120D3529A7
:101D63008105120D35CA8105120D35118205120D3B
:101D730035348305120D35778305120D35F383054D
:101D8300120D35468405120D35A58405120D35B2A5
:101D93008505120D35CF8805120D35058A05120DFF
:101DA300358E8A05120D35928C05120D35368D054B
:101DB300120D35D58D05120D35368E05120D35A54F
:101DC3008E05120D35FE8F05120D35E89005120DA7
:101DD30035239105120D35439105120D35F4910507
:101DE300120D35319205120D35BA9205120D3535A6
:101DF3009405120D35009605120D355B9705120DEE
:101E030035D09805120D35DF9905120D356C9A05FD
:101E1300120D35D59A05120D35E19B05120D35CB03
:101E2300D903120D352EDA03120D3576DA03120DAE
:101E330035B4DA03120D350FDB03120D356CDB03FA
:101E4300120D35A7DB03120D3529DC03120D358383
:101E5300DC03120D35F7DD03120D3575DE03120DAC
:101E6300358DDF03120D35B5DF03120D3504E103A4
:101E7300120D3515E103120D352DE103120D354217
:101E8300E203120D351FE303120D351CE403120D9B
:101E93003540E403120D3533FD02120D3578E403AA
:101EA300120D359AE403120D35B9E403120D358D85
:101EB300E503120D35E7E503120D3588E803120D2E
:101EC30035E1E803120D3500E903120D35EBE903A3
:101ED300120D3521EA03120D355BEB03120D35DAD2
:101EE300EB03120D3511EC03120D354BEC03120D00
:101EF30035BAEC03120D357BED03120D3554EF03A8
:101F0300120D355BF003120D35CCF103120D35CCF8
:101F1300F303120D35EBEB05120D3521F803120D0A
:101F230035E2F803120D355AF903120D3571F90331
:101F3300120D356BFA03120D3563FB03120D35D207
:101F4300FB03120D35C4B806120D3574BA06120D13
:101F53003533BB06120D359BBB06120D350FBC0680
:101F6300120D3594BC06120D35B2BC06120D35F6B2
:101F7300BC06120D351CBD06120D3543BD06120DF0
:101F8300355BBD06120D3573BD06120D3515BE0644
:101F9300120D3557BE06120D3579BF06120D358267
:101FA300BF06120D358BBF06120D3594BF06120DF9
:101FB300359EBF06120D353DA706120D3571AB06D2
:101FC300120D357FAB06120D3584AB06120D35733A
:101FD300FE04120D353FE306120D3528E706120DF8
:101FE3003575E506120D3585E506120D3587B00604
:101FF300120D35A9E206120D35D3E206120D350096
:102003008003120D35328003120D359E8003120DAD
:1020130035398103120D35D88103120D351D820325
:10202300120D353F8203120D35588203120D357E92
:102033008203120D35A08203120D35DE8203120DC9
:1020430035228303120D35448303120D35A6830312
:10205300120D356D8403120D35248503120D35964B
:102063008503120D35688603120D35B28603120DF2
:1020730035058703120D356B8703120D35A58703CD
:10208300120D35F78703120D35138803120D353EF4
:102093008803120D35458A03120D35998B03120DF2
:1020A30035BB8B03120D35EF8B03120D35108C03EB
:1020B300120D351F8C03120D352A8C03120D35DAE0
:1020C3008C03120D35438D03120D35F08D03120D64
:1020D30035288E03120D35EE8E03120D35FB8F035B
:1020E300120D35459003120D35D49003120D35387A
:1020F3009103120D35739103120D35DF9303120D06
:1021030035339503120D356C9803120D3539990348
:10211300120D35C79903120D35F09903120D35626F
:102123009A03120D35F69A03120D35549B03120DC3
:1021330035469C03120D35689C03120D35C49D036F
:10214300120D35DD9D03120D35F09D03120D354D36
:102153009E03120D355C9E03120D35EF9E03120D87
:1021630035FB9F03120D3508A003120D3511A00393
:10217300120D35E9A103120D350FA303120D351FFF
:10218300A303120D3521A403120D3598A403120DD8
:1021930035C7A403120D35CDA503120D3513A603C0
:1021A300120D35DFA703120D35B7AB03120D35C181
:1021B300AB03120D35D5AB03120D35DFAB03120D97
:1021C30035E9AB03120D35F3AB03120D350CAC033C
:1021D300120D3516AC03120D358AAC03120D35956D
:1021E300AC03120D35BAAC03120D35C5AC03120D99
:1021F3003513AD03120D351DAD03120D3528AD0397
:10220300120D354CAD03120D3570AD03120D35CCE7
:10221300AD03120D3512AE03120D352FAE03120DA1
:1022230035ACAE03120D35E3AE03120D3522AF0309
:10223300120D356FAF03120D35F1AF03120D358A51
:10224300B003120D355AB203120D35B8B203120D95
:1022530035D4B303120D35FAB303120D3539B50373
:10226300120D355FB803120D35A0BA03120D357C7C
:10227300BC03120D3512BD03120D3539BF03120D08
:1022830035E5BF03120D351AC003120D357FC003A8
:10229300120D3589C003120D35B3C203120D35DAA1
:1022A300C303120D351AC403120D35C0C403120D36
:1022B3003551C603120D35DAC703120D35FAC703BC
:1022C300120D3553C803120D3555C903120D359F31
:1022D300C903120D35EFC903120D35D9CA03120D07
:1022E300354ECB03120D3568CC03120D35E3CC0309
:1022F300120D35E8CD03120D3593D003120D35B20F
:10230300D003120D3513D203120D35D5D303120D9D
:102313003529D403120D35E1D403120D3590D503BD
:10232300120D35E6D503120D359CD603120D35314A
:10233300D703120D359DD703120D35D7D703120DD1
:102343003508D803120D3564D903120D3500800208
:10235300120D35328002120D35698002120D35528D
:102363008202120D35358302120D358D8302120D53
:1023730035C88402120D35148502120D353C8802CE
:10238300120D359E8B02120D35EB8C02120D358129
:102393008D02120D358D8D02120D35BF8D02120D7A
:1023A30035418F02120D354F9002120D357990028F
:1023B300120D35D09002120D35299102120D35956B
:1023C3009102120D35AC9302120D353B9502120D9D
:1023D30035059602120D35439702120D3573990296
:1023E300120D35439C02120D35509C02120D35D748
:1023F3009C02120D357F9D02120D35C29D02120DF6
:10240300350B9E02120D355F9E02120D35C49E02DE
:10241300120D352C9F02120D35499F02120D35798D
:102423009F02120D35AE9F02120D357EA002120DD2
:102433003527A102120D35ABA302120D35CBA40231
:10244300120D35B4A502120D3536A602120D3558FC
:10245300AA02120D3595AA02120D35EDAA02120D2C
:102463003520AB02120D35A1AB02120D35EEAB02D6
:10247300120D3579AC02120D35CBAC02120D35A21B
:10248300AD02120D355BAE02120D35F6AE02120D22
:10249300350FB202120D352FB302120D35E0B6021D
:1024A300120D35FEB702120D3501B802120D35308B
:1024B300B802120D3536BA02120D350FBB02120DDA
:1024C3003544BB02120D354CBC02120D3502BD0260
:1024D300120D35A3BE02120D35C8BE02120D35070B
:1024E300BF02120D3579BF02120D355DC002120D08
:1024F300352AC102120D3560C302120D35D1C30254
:10250300120D3511C402120D354AC402120D35DE07
:10251300C402120D3527C602120D35EAC902120D87
:1025230035D9CA02120D35C0CB02120D3538CC0293
:10253300120D35FACC02120D35F8CE02120D3510FC
:10254300CF02120D3524CF02120D355CCF02120DCE
:10255300358ACF02120D3511D102120D351CD2026C
:10256300120D356ED202120D35D6D202120D3588F8
:10257300D302120D35B8D302120D359CD402120DBD
:10258300354DD502120D353CD702120D3571D702E8
:10259300120D35D9D702120D3508D902120D35BAED
:1025A300D902120D35EBD902120D3503DA02120DE1
:1025B3003592DA02120D3546DD02120D351EDF02A9
:1025C300120D353ADF02120D3556DF02120D352496
:1025D300E002120D3508E402120D35238F01120DAE
:1025E300355B8F01120D35399401120D357F94013E
:1025F300120D35CC9501120D35379601120D35C0EC
:102603009701120D35D09A01120D35EB9B01120D76
:1026130035FDA501120D3590A601120D35E2A90174
:10262300120D35DEAA01120D3539AB01120D3583BA
:10263300AC01120D3571AD01120D350DB001120D46
:102643003581B101120D3504B201120D3507B20106
:10265300120D357CB201120D3586B201120D359380
:10266300B201120D35BEB201120D356EB301120D5A
:102673003567B401120D3512B501120D3530B501B0
:10268300120D3549B501120D3572B501120D359490
:10269300B501120D35E9B701120D35AEB801120DB2
:1026A30035F3B801120D3572B901120D351EBA0199
:1026B300120D3550BA01120D35A4BA01120D35DFD2
:1026C300BA01120D3526BB01120D3576BB01120D71
:1026D300357BBB01120D35CFBB01120D35FBBB01A1
:1026E300120D35E4BC01120D3535BD01120D3595C2
:1026F300BD01120D35EFBD01120D358ABE01120D5C
:1027030035C9C101120D35DBC201120D3555C401A6
:10271300120D3565C701120D3503C801120D35F9C8
:10272300CA01120D35B8CB01120D35FCCB01120DC8
:1027330035A7CD01120D35BBCD01120D35C5CD0128
:10274300120D35CFCD01120D35DBCD01120D350044
:10275300CE01120D35D9CF01120D352ED001120D38
:102763003538D001120D3542D001120D35B7D001E5
:10277300120D3506D101120D3517D201120D356434
:10278300D201120D3571D301120D35B5D301120DDE
:10279300355BD401120D354ED501120D3514D6011A
:1027A300120D3537D701120D3555D801120D353DB0
:1027B300D901120D3555D901120D35ACD901120DC0
:1027C30035B6D901120D35C0D901120D35CBD9015A
:1027D300120D35E9D901120D3531DA01120D359398
:1027E300DA01120D35BADA01120D35CCDA01120D08
:1027F3003567DB01120D359CDB01120D3583DC01DE
:10280300120D35C8DC01120D35AEDD01120D35D5C3
:10281300DD01120D3558DE01120D35C9DE01120D31
:102823003552E001120D357EE101120D3541E20111
:10283300120D3509E301120D3593E301120D35BB7A
:10284300E401120D355DE501120D35D8E501120DD8
:102853003594E601120D35DEE601120D3538E70138
:10286300120D3510E801120D3533E801120D35E66E
:10287300E801120D3508E901120D3571E901120D58
:102883003587EB01120D357FEC01120D3543ED0158
:10289300120D3575EF01120D35BFEF01120D350F16
:1028A300F001120D3573F001120D35D5F001120D43
:1028B3003503F101120D3527F101120D355CF101DC
:1028C300120D358DF101120D35C0F101120D3510C8
:1028D300F201120D3563F201120D3588F301120D69
:1028E3003528F501120D3583F501120D35ACF501CF
:1028F300120D3539F601120D35A7F601120D35B556
:10290300F601120D35D9F601120D352EF701120D10
:102913003549F701120D35FBF701120D3533F80177
:10292300120D3576F801120D35D9F801120D35DB8C
:10293300FA01120D3505FB01120D35FCFB01120DD9
:102943003506FD01120D35B6FD01120D356ACB05B5
:10295300120D35A2CB05120D35C3CB05120D35056E
:10296300CC05120D3567CC05120D3571CC05120D52
:102973003581CC05120D35BCCC05120D359CD00527
:10298300120D3589D205120D356FD405120D35069A
:10299300D505120D35A8D505120D35833600120D58
:1029A300352E3700120D35DC3700120D35E23800B5
:1029B300120D35023900120D352B3A00120D35E692
:1029C3003B00120D35593C00120D35FD3C00120D34
:1029D30035093E00120D35743E00120D35B03E0030
:1029E300120D35F33E00120D352E3F00120D3570DA
:1029F3003F00120D35054000120D35814000120DC8
:102A0300354B4100120D35284200120D35C04200EE
:102A1300120D35DA4200120D350A4300120D353B13
:102A23004300120D35014400120D35114400120DFF
:102A330035604400120D356D4400120D35764400A7
:102A4300120D35F44400120D35504500120D359B1F
:102A53004500120D35B64500120D35E14500120D46
:102A630035FE4500120D350A4600120D35A147000B
:102A7300120D35BA4700120D353F4800120D35527D
:102A83004800120D35714800120D35154900120D1D
:102A930035964A00120D35494C00120D35DF4C00B6
:102AA300120D35E24C00120D35524D00120D3570EA
:102AB3004D00120D35074E00120D354F4E00120D0D
:102AC30035524E00120D35184F00120D35854F004B
:102AD300120D35AB4F00120D35365000120D355423
:102AE3005000120D359A5000120D354E5100120D43
:102AF30035985100120D35C75100120D352452007F
:102B0300120D35595200120D35855200120D3593B1
:102B13005200120D35E05200120D35505300120DC4
:102B230035995300120D35E55300120D351154003C
:102B3300120D351C5400120D353A5400120D352573
:102B43005500120D352F5500120D356A5500120D23
:102B5300357A5500120D35CE5500120D35E255006C
:102B6300120D35115700120D35265700120D35B4CD
:102B73005700120D35F95700120D35855800120D07
:102B830035905800120D35D25900120D35ED59000C
:102B9300120D35395A00120D35A85A00120D35E1C0
:102BA3005A00120D35FB5A00120D355B5B00120DF6
:102BB30035FA5B00120D35455C00120D35155F00CB
:102BC300120D35C75F00120D35346000120D3574D8
:102BD3006200120D358C6200120D358F6200120DEA
:102BE300359B6200120D35AF6200120D35B76200DE
:102BF300120D35EA6200120D35ED6300120D357AC0
:102C03006400120D35EA6400120D356C6500120D77
:102C1300352D6600120D354C6600120D35ED66003C
:102C2300120D354A6700120D354D6700120D35C17F
:102C33006700120D35106900120D35166A00120D6A
:102C430035A16A00120D35BC6B00120D35846C0082
:102C5300120D35B56C00120D35D86C00120D35E12F
:102C63006C00120D35106D00120D35A06D00120DA4
:102C730035566E00120D35CB6E00120D35726F0096
:102C8300120D35E76F00120D351E7000120D355C05
:102C93007000120D35E8FC02120D357CFC02120D9A
:102CA3003519FC02120D35EFFB02120D35DBFB0269
:102CB300120D35D1FB02120D3564FB02120D359551
:102CC300F902120D3553F902120D3569F802120D8E
:102CD30035B7EB05120D3560EB05120D353DF802E6
:102CE300120D35F4F702120D3502EA05120D3554B3
:102CF300E905120D3531F702120D3500F402120DFC
:102D030035A2F102120D3572F102120D3522F102D4
:102D1300120D35BCF002120D357BF002120D355B3E
:102D2300F002120D358DEF02120D3527EF02120D51
:102D330035C6EE02120D3566EE02120D3504ED02B4
:102D4300120D3598EC02120D35ECEB02120D35E73E
:102D5300EB02120D35D0EB02120D359BEB02120D77
:102D630035B7E805120D3535E802120D35ADE80526
:102D7300120D3542E805120D3527E805120D35779A
:102D8300E705120D357DE605120D35A3E505120D98
:102D93003532E802120D3519E802120D350EE8023C
:102DA300120D35DDE702120D35F9E205120D35047A
:102DB300E602120D358BE502120D3522E502120DE6
:102DC3003595E402120D350BE205120D3551E4027F
:102DD300120D3547F603120D352AE402120D35485C
:102DE300E105120D35F3E005120D35C6E005120DB0
:102DF3003593E005120D356BE005120D350CE0053A
:102E0300120D35ECDF05120D35B7DF05120D357BDD
:102E1300DC05120D3550DA05120D3540D805120DBB
:102E230035BDD705120D3571D705120D359DE10559
:102E3300120D3525D705120D357FD605120D3557E1
:102E4300E40300000080FBE473870001008E1E355D
:102E5300000400541E25000200581E260002005ADA
:102E63001E270002005C1E28000100661E290001C7
:102E730000671E84000400411B86000100BF1D2A59
:102E8300000100681E2B000100691E2C0001006E6A
:102E93001E2D0008004F1B2E0001006F1E2F000186
:102EA30000701E30000100711E31000100721E32DD
:102EB300000100571B33000100581B34000100734D
:102EC3001E36000100591B38000100741E39000131
:102ED300006D1E830002008C1E63000100641B64EE
:102EE3000001006A1E650001006B1E6D0001006594
:102EF3001B71000800471B660001008B1E43000185
:102F0300007C1E440002007D1E450001007F1E461A
:102F1300000200801E470008005C1B48000100827D
:102F23001E4B000100831E040001008F1EA100013F
:102F330000921E37000100911E88000100901E3C84
:102F43000001005A1B3D000100751E490002008468
:102F53001E67000100661B4D000200861E4E000125
:102F630000881E4F000200891E3E0001007B1E5197
:102F7300000100771E52000100781E530001007A01
:102F83001E540001005B1B0000000000000001361E
:102F930036010100010201000103010001040106E1
:102FA3000605020000070100340801000F090401AF
:102FB300010D0100FF0E08000017020000190100B7
:102FC300FF1A0100011B0100FE1C0100081D020085
:102FD300001F010001200100012102000023010064
:102FE3000F24020000260100012701000828020027
:102FF300FF2A0100072B0102402C0100002D0100D4
:10300300012E0100012F0100FF30010B1D310800CB
:10301300003A0100083B01000F3C0100013D0100A3
:10302300FF3E04000042040000460400004A04007E
:10303300004E04000052040000560400005A04002D
:1030430000000003002001218F0000000020012266
:103053008F000001002001228F00000200200122C6
:103063008F000000404201FF8D0000040042011464
:103073008D0000050042018A8D000006004201FF19
:103083008D000007003001208F0000100042031E56
:103093001E000011003003FD19000012001003315F
:1030A3001E030000002103FE190000FDFF21011B88
:1030B3008F0300FDFF21011B8F060000001001ECB0
:1030C300190600FDFF21811B8F020400002905ED75
:1030D30019020401002901178F02040200290115B6
:1030E3008F0204FDFF21011B8F00202020202020C0
:1030F30020202028282828282020202020202020A5
:1031030020202020202020202020881010101010A4
:1031130010101010101010101010040404040404F4
:1031230004040404101010101010104141414141D7
:10313300410101010101010101010101010101013C
:1031430001010101011010101010104242424242CD
:10315300420202020202020202020202020202020C
:103163000202020202101010102001037103010376
:1031730001030103010301032203020301031003FB
:1031830000030003000300030003000300034203E2
:1031930000032403060300030003040312032503AF
:1031A3002303250323030403040300030003000391
:1031B30044030003000323030003650321003503D5
:1031C3008103000305030003000300030003250339
:1031D300230303007100300160001100700031020D
:1031E30020035004800010006100000014006300FD
:1031F3007300720062004300000013000600000029
:1032030000000400120000000000000000000400A1
:103213000400370037003C024400000000000000B7
:10322300000065000000350081000000050000007B
:10323300830000000101710101010101110101017C
:103243003101010101018001100161013B00140002
:10325300630173017201620143010001130106015D
:103263003D013500040112010001000100010001CC
:1032730004010401330133013C01440132013600EE
:103283000001000165010001350081010001050114
:103293008201830100010302710230016002110205
:1032A30070020102020202028002100261023A006D
:1032B30041006302730272026202430200021302BC
:1032C300380000020002040212020002000200029F
:1032D300000204020402370037003C0244020002E9
:1032E3003900000200026502000235028102000279
:1032F30005028202830200020304710402046004D3
:1033030011047004020402040104020410046104A1
:103313000004140463047304720462044304000489
:10332300130406040004000404041204000400044B
:103333000004000451046400000400040004440475
:10334300000400040004000465040004350481043F
:103353006400050400048304000436000100060031
:1033630000000F000000000000000000000000004B
:1033730003FFFF00000403FFFF0000FFFF0FF40142
:103383000005C4040320000100000B00000000003E
:1033930000000003010F0000000000000000000017
:1033A300000000000000000000000000000000001A
:1033B300000000000000000013000B1D1F00111D82
:1033C3001F80171D00008F1D01008F1D02008D1C23
:1033D3000280871C0300931C0400991C04809F1C1B
:1033E3000500A51C0600B11C3000CF1C3100C91C10
:1033F3003200DB1C3300E11C3500E71C3400ED1CFC
:103403003600F31C1100FF1C1400051D1500C31C1E
:10341300FFFF00005D19871963199D1869198D193C
:10342300691999196F199D1869198D1975199D18BD
:10343300000000007B199D18000000000000000040
:1034430081199D180000000000000000000000002A
:103453000000000000000000000000000000000069
:103463000000000000000000000000000000000059
:103473000A00000002000000040000000800000031
:103483001000000020000000400000008000000049
:10349300000100000002000000040000000800001A
:1034A3000010000000200000004000000117260665
:1034B30047260841260B652610FF22021D260535E7
:1034C300260723260CFF250D0B2664E320FF0000AF
:1034D300030003000400080010001F003E007B00EF
:1034E300F600EC01D703AF075D0FB91E713D000075
:1034F30007ECFDFDFDECDCDCCCBCACAC9C9C8C7C1B
:103503007C6C6C5C5C5C4C4C3C3C2C2C1C1C03EAC3
:10351300F5E5D5D5C5B5A5959585857575656555C8
:103523005545453535252515150500160F00000BA6
:10353300150B020002220F3300000E0F5A69674277
:103543006565416C6C69616E63653039000000002C
:10355300000000000000000000000000D0D1D2D322
:10356300D4D5D6D7D8D9DADBDCDDDEDF00034D4C8A
:103573004651181A250502303017181921301B1D22
:103583001F30003C40423A3F3F392F47300001197A
:103593001618161618230300303016181920231A8C
:1035A3001C1E300C0E020B040B0A0708000F02044A
:1035B3000201010101090200BE040AE80300000040
:1035C30000E80303007F000E00010000000404096B
:1035D300100803030A0C0510001E080C281EFF0028
:1035E3000209033C0C0508151504E4F0A3F0A3F04D
:1035F300A3221235EDF022901CB1124BF9122A07C7
:103603002212360822E0F508E4F509F50AF50B2243
:10361300E824FBF582E934FFF58322E82411F582DF
:10362300E439F583E022F58312362F22E0F508A36F
:10363300E0F50922122C837404120D657F08020A37
:10364300FB7401F09006D3E0640F227409120D6538
:103653007F04020AFBEA2413FAE43FFB122BB1E9CD
:10366300227905122BBD740622A3A3E024F5C3948B
:103673001322122C8F9006F3126BB77A147B00225D
:10368300C082C083901C9074FBF0A37429F0A374D0
:103693000DF0A3742AF0901C9474E3F0A37429F042
:1036A300A374DDF0A37429F0A37419F0A3742AF0B2
:1036B300A3741FF0A3742AF0A37413F0A3742AF065
:1036C300A374CBF0A37429F0901CA074EFF0A3743F
:1036D30029F0A374F5F0A37429F0A374E9F0A3749B
:1036E30029F0A37425F0A3742AF0901CB11255C8D5
:1036F3006009901CB1124BF512178F901CAE124F3C
:103703000F7408126264A3F0901D5AF0901CB3F07A
:103713007C0BFDF97AB47B1C1216BD7C0B7D007902
:10372300007ABF7B1C1216BD024D6974F712084361
:1037330074F7120E18EAFEEBFF1237C1740512502C
:103743002D7403F01238D812500F2430FCE43FFDDF
:103753008C821237B91237CD6008123FE674FFF03E
:10376300A3F0EE242EE43F1C1CFD8C82F583A3E022
:10377300C0E08A828B83124CC1D0E01237CD88829D
:1037830089831254FC2403F0EE123FF01210867466
:1037930003F09006E8120BBA7402120DF8123BBA4A
:1037A300120D65E9F5087007EEFAEFFB122A97A9E7
:1037B300087409023FFFF583E08882898322EA12B5
:1037C30037C62212570B3FF583221264E412501BB3
:1037D300E8F0A3E91267BBE02274F0120843EAFEA3
:1037E300EBFF8C0C8D0D890B1238D8F58312502307
:1037F3007410121086E0F508A31237BBF0E824FF1B
:10380300F582E9123BCCE508F0E824FEF582E912E3
:103813003BCCE50BF09006EDE0C0E0E824FDF5823B
:10382300E9123BCCD0E0F09006ECE0C0E0E824FCE9
:10383300F582E9123BCCD0E0F074121210861236F6
:103843002B123613E509F0E824FAF8E934FFF98876
:1038530082F583E508F0EE2404FCE43FFD88088A42
:10386300828B83E0F50E8C828D83E0250EC3950851
:103873001264E4124E49850C82850D83A3A3A3A38E
:10388300A3A3A3A3E064037009EE124FFDF0A3E426
:103893008003123BD1123BD97409F07508B4750942
:1038A3001C750A007808120D84125FAE120D65753F
:1038B30008FF7509FF7808120D88AC0CAD0D123B9B
:1038C300BA120D65E9F5087007EEFAEFFB122A97B5
:1038D300A90802363FEA2402FAE43FFB8A8222C0A7
:1038E30082C083901CD0E0C3940840047407800115
:1038F300E08A828B83F033333354F8F9024D6974D1
:10390300F01208438A088B09890A8C0E8D0F750CF7
:1039130000A2AFE433F50BC2AF901CCA8045123A44
:1039230004503D123A1E64037036E50824F9F50885
:10393300E50934FFF5098E828F83A3A3E02405FCF8
:10394300A3E03400FDAA08AB09121879E50824FFA7
:10395300F508E50934FFF5097410250CF50C150A73
:10396300123DF3126F6CE50A6004EE4F70B0E50B85
:10397300A2E092AFA2AFE433F50BC2AF901CCA80B2
:103983003E1254D58882F5831247498508828509FA
:1039930083F08A828983123A15A3A3E0C0E0E50885
:1039A30024FFF582E509123BCCD0E0F0E50824FEC4
:1039B300F508E50934FFF509050C150A123DF31264
:1039C3003C476021123A1E640270F1123A04EE4041
:1039D300B0125144A2E550E4850E82850F83740131
:1039E300F0E50A70D7E50BA2E092AF85088285095E
:1039F30083E50CF0E50824FFFAE50934FFFB023602
:103A03003F123A0AA2E622EE2411F582E43FF5833F
:103A1300E022123A192212551AA3228E828F83A30F
:103A2300A3124CC5125BF12274F012084374F31213
:103A33000E187403121086E9F07402121086EAF06D
:103A43008B0B851882851983E4F004120DF012297B
:103A5300ADE9F89006D2E0292437F508FA7B001285
:103A630016D58A0C8B0DAE0CAF0DEA4F7003023BDB
:103A7300B1EA2402F50EE43FF50FA808EA28F8E4BA
:103A83003BF9850E82850F831245459006D2E0F9F6
:103A9300FAC3E49AFA95E0FB850E82850F83E02A48
:103AA300F50CA3E03BF50D9006D012362B750A00FA
:103AB3007808120D84E9FC7D00AA0CAB0D124F7F30
:103AC300120D65AC18AD197401121086E0F9E50CFE
:103AD30024FFFAE50D34FFFB1229B38A828B83E4BA
:103AE300F0E50BC454F0F9901D5BE0C4333354C0CC
:103AF300F89006CCE0A2E0E43313134849440FC026
:103B0300E0EA24FFF582EB123BCCD0E0F0EA24FE9E
:103B1300F50CEB34FFF50D7403121086E0F8740214
:103B2300121086E0C454F048850C82850D83F0A8FA
:103B33000C850E82850F831262312AC3988E828F81
:103B430083A3A3A3A3F0850E82850F83E8F0A3E5E7
:103B53000DF0123BD1123BD9E4F0740C121086E441
:103B6300F07508BF75091C7808120D84125FAE1238
:103B73000D65851882851983E06009EE240E1251C4
:103B8300464408F0122B9FE9F9E4F508F509780893
:103B9300120D887406120DF8123BBC120D65E97004
:103BA30006EEFAEFFB800BEEFAEFFB1216DB7A0060
:103BB3007B00740D02363C7903EEFAEFFB122BB750
:103BC300740222EE24FFF582EF34FFF58322EE1216
:103BD30037C6E4F0A322F0123BDE22EE125ED13FA1
:103BE300F5832274F21208438A0C8B0DA2AFE433DF
:103BF300F50AC2AF750800750900901CCA802C1223
:103C03003E035024850C82850D83A3A3125FC18ECE
:103C1300828F83A3A3124BF5122BA5E9600A123DF1
:103C2300FEC2E6F08E088F09123DF3123C4770CFB7
:103C3300E50845096006123CE0D2E6F0E50AA2E099
:103C430092AF800DE0FEA3E0FFEE4F227402120D4F
:103C5300657F06020AFB74F01208438A0E8B0F8CF1
:103C63000C8D0D750A00A2AFE433F50BC2AF7E00D5
:103C73007F00901CCA8010AE08AF09123CD81251C5
:103C830044D2E7F0124BD3124BE76034123CE0A26C
:103C9300E750F1850882850983A3A3120BBAAC0C04
:103CA300AD0DAA0EAB0F122BAB7402120D65E960BA
:103CB300D3EE4F60C212407A7006123CF2D2E4F0A7
:103CC300E50BA2E092AFEE4F6006122A91750A014E
:103CD300A90A02363F123A0AD2E4F0EE22E50812AC
:103CE3005EEB3509F583E022AA82AB831218798E45
:103CF300828F83A3A3124CC5E02274F2120843748B
:103D0300FE120E18750C00750D0085188285198337
:103D1300E4F0A3F0A2AF33F50AC2AF901CCA126F4E
:103D23006C802BEE24FBF582EF34FF123629780CDE
:103D3300120D88123DE1120D65EEFCEFFDAA18ABE2
:103D4300191216F9AE08AF09901CD0E014F0EE4F2B
:103D5300602B123E03501DEE240BF8E43FF98882DA
:103D6300F583E024FFF0A3E034FFF0888289831217
:103D730055C860AF8E0C8F0D123DF380A1E50AA2EA
:103D8300E092AF901CD0E0602C9006D3E0640F600B
:103D930006901D5AE0701E7AA87B1C122C8F908F00
:103DA30011120BB67AA87B1C124DF1120D6580051A
:103DB30074F0124CD2AA18AB191216FF8A088B0999
:103DC300AE08AF09EA4F60131229BF123DFEA2E20B
:103DD3008E828F83A350D974E980D7023C4FEEFCC7
:103DE300EFFD7ACA7B1C12170B7402228E0A8F0B0B
:103DF300EE24FBF582EF34FFF58322EE123A0B2219
:103E0300123A0AA2E72274F7120843EAFEEBFF1202
:103E130029BF124CBE122E4AE964019006EF700AC4
:103E2300E02401F8A3E034008003124C44F9125358
:103E330046124E49901CD0E0701F9006D3E0640FE9
:103E430070177AA87B1C122C8F908F11120BB67AE5
:103E5300A87B1C124DF1120D65A8A8C2AF901CD00F
:103E6300E004F0E8A2E78004E508A2E092AF025282
:103E73005474F7120843EAFEEBFFEA123EAAF0126B
:103E830029BFEEFCEFFD7ACA7B1C121705A8A8C256
:103E9300AF901CD01247989006D3E0640F70057959
:103EA30008122B57025254123A0BC2E42274F7122F
:103EB300084374EA120E18EAFEEBFF9006CCE060AA
:103EC3002A8518828519837401F0121086E4123F43
:103ED30065121086123CEBC0E0740A121086D0E023
:103EE300126251740B1210861254B17416023FFF02
:103EF30074F7120843EAFEEBFF1229A1E9F974DC17
:103F030069601E74DD69601974E469601474F3698F
:103F1300600F74DE69600A74DF69600574DB6970C1
:103F230007EEFAEFFB122B5D02525474F7120843AB
:103F330074EB120E18EAFEEBFF8518828519837461
:103F430006123F65121086AA82AB83121879EE24FB
:103F530008FCE43FFD740A1210861254B174150272
:103F63003FFFF0EA2413FCE43FFD74022274F712CE
:103F7300084374F7120E18EAFEEBFFEA24301251DD
:103F830046605DEA123FF01210867403F09006E873
:103F9300120BBA123FE6120BBA9006FBE0F9740457
:103FA300120DF8EEFAEFFB1229A77404120D65E95E
:103FB300F974DC69602374DD69601E74E469601957
:103FC30074F369601474DE69600F74DF69600A74E6
:103FD300E869600574DB697007EEFAEFFB122B5D8D
:103FE3000237B4EE242EF582E43FF583221263C236
:103FF300AA18AB191218797408227403120D6502FA
:10400300525474F21208438A0C8B0D750A00750B17
:10401300007508E7A2AFE433F509C2AF901CCA806C
:1040230003123DEF123C476025123E0350F312404A
:104033007A70EEEE2432124211E06870E4780A12CC
:104043000D88123DE1120D65901CD0E014F0E509D6
:10405300A2E092AFEE4F6013EEFAEFFB1229BF79A5
:10406300F0EEFAEFFB122B5D750800A908AA0CAB62
:104073000D122B5D023C54123BDEE064012274F40A
:1040830012084374F7120E18EAFEEBFF8A82F583D7
:10409300A3E064F3700302411F8A828B83A3E0646D
:1040A300DF60798A828B83A3E064E8606F8A828B06
:1040B30083A3E064DB6065122A01E9F5087055EE1D
:1040C300240E125146604D124129604874081210A3
:1040D30086124138120BBA7508FF7509FF7808126A
:1040E3000D888E828F83A3A3A3A3A3A3A3A3E0F925
:1040F3007404120DF81229A77404120D65E9F5086A
:1041030074F369600F74DF69600A74E869600574A9
:10411300DB69700F8E828F83A3E508F0EEFAEFFB65
:10412300122A0D02364EEE240FFAE43FFB790912F0
:104133002A43EA4B2274021259B774FFF0A31241C7
:104143004522125505A3A32274F1120843EAFEEB9C
:10415300FF7508008A82F583A3A3A3A3A3A3123642
:104163006C40037508E88A828B83A3A3A3A3A3A34C
:10417300A3A3A3A3E0C3941040057508E880138AA2
:10418300828B83A3A3A3A3A3A3A3A3A3A3E0640FEB
:10419300600B901D37E0540870037508E8EA240BA0
:1041A300124211A3A3A3A3A3A3A3A3E0C398500DF7
:1041B300EA240B125146640F60037508E89006EC7D
:1041C300E0F47003A3E0F470037508EC7A237B003A
:1041D3001217898B0BA90B901CB112422060278EFA
:1041E300828F83A3A3A982AA83890C8A0D750E00EB
:1041F300780C120D847C237D00901CB1E0FA124FE1
:104203007F120D65800375081AA908025FA9F5825C
:10421300E43FF583E0F88A828B83A3A322EAF0A329
:10422300EBF0EA492274F5120843EAFEEBFF8A82B7
:10423300F583A3A3A3A3A3A3A3A3E09006D312424E
:10424300B8E09006EEF0EA240B1251469006CE1227
:1042530042B8A3E0901D5BF0F9121441901D5BE09E
:10426300600BEE240412513824061242AE901D5AFC
:104273001236446004740180027400901CB3126807
:10428300FC120D847C0B7D007AB47B1C124F7F12D1
:104293000D65EE2418F508E43FF5097808120D843E
:1042A3007C0B7D007ABF7B1C024F6CFAE43FFB79E9
:1042B300E1121429221268E6A3A3A3A32274F7121E
:1042C3000843EAFEEBFF8A82F583A3E0700312350D
:1042D300FA12646D02525474F7120843EAFEEBFFBC
:1042E300901CB11255C86010901CB1124BF5901C74
:1042F300B1E4F0A3F012178F8E828F837408124CEF
:10430300D9121FB702525474F6120843901D5AE093
:104313006010901CB3E0700A124328EA4B6003124A
:104323002A970265679006CEE0FB9006EEE0FA90CE
:1043330006D3E0F91229B92274F412084374E71280
:104343000E18EAFEEBFF750B018A82F583A3A3A384
:10435300A3A3A3A3E0A2E25069EA242BF582E43FDE
:10436300125FBFEA2413FAE43FFB1229C5E9705236
:10437300908E4EE064017005750B0080451243FA80
:10438300120D847C0B7D007411120DF0124F7F12FD
:104393000D65122B9FE9FA740E120DE8880889093E
:1043A3007808120D887508307509007808120D8891
:1043B300EE12621A120BBA1263B479011236661244
:1043C3000D658518828519837410F01263B4740225
:1043D300121086AA82AB8312186DEE242B126BADDA
:1043E300740B121086124E49740D121086E50B12CF
:1043F30066267419023650EE240812690422C0821C
:10440300C083901D5BE06003122C11024D69C082D2
:10441300C083901D527490F0A3741CF0A37494F0A5
:10442300A3741CF0A374A0F0A3741CF0901EC574B5
:10443300FBF0A37432F0901D3C749BF0A37429F03D
:10444300901CD574D1F0A37429F0901CD774D7F0C5
:10445300A37429F0901D37E0440202486DC082C066
:1044630083EAFCEBFD7903025574C082C0837908AB
:104473000266E7C082C08374FE120E18901CDD74BE
:104483007FF0A3742AF0901CDF7479F0A3742AF0F0
:1044930080077ACA7B1C1244D2901CCA1255C8707A
:1044A300F1901CCC1255C860097ACC7B1C1244D203
:1044B30080EF901CCAE4F0A3F0901CD0F0A3F0A30B
:1044C300F0901CEB74BBF0A3742AF07402801C12EE
:1044D30016FF851882851983EAF0A3EB1244E612CE
:1044E3002B8D22F0AA18AB19227411120D65024DFF
:1044F3006974F6120843E9FF748529F582E43435BB
:10450300F583E493FEFA7B001216D5EA4B6007EAC3
:104513002E12454280267A027B001216D5EA4B60A2
:1045230017747A2FF582E43435F583E4938A828B0A
:1045330083F0A3741A12490B7A007B000265671299
:104543004E38E81264E1A3A3A3A3E4F022E9FC74C8
:104553000629F8EAA2E0501EE875F00A84E5F0F9AE
:104563006014740A28C399F8E9C394054004740AD3
:1045730028F8740B28F8ECC39413400479148002D0
:104583007906E82979002409F85001097A0A7B00A1
:10459300120664E8F9020D32C082C083901D37E031
:1045A3005402600A121FBDE9600479018002790098
:1045B300024D69C082C083901D37E054026014909D
:1045C3001CD0E0700A1255C560091245DB5004790E
:1045D3000180027900024D6912361EA2E722C082D1
:1045E300C083908E4BE0F8901CD2E0C39850051224
:1045F30016D580047A007B00024D69C082C0831205
:104603002B8D7900024D69C082C08374FE120E188F
:10461300851882851983EAF0A3EB124774A3A3A339
:10462300A3A3E0600A14605724FE605A0246E49094
:1046330006D3E0640F6012122B63E9700C124BEF88
:10464300901CD9124CC1122E4A9006FBE0C0E085A3
:1046530018828519831254E8D0E012477474141237
:104663005F05FCA3E0FD7ACC7B1C1216F9A8A8C257
:10467300AF901CD21247987920122B570244CE12C6
:104683004A42741580D9124A42A3A3A3A3E06051FE
:10469300124A42123CF6C0E0851882851983E02451
:1046A30006F582E43BF583D0E0125F052402F8A30C
:1046B300E03400F98882F583E02401FAA3E03400B2
:1046C300FB88828983EAF0A3EB125F05124A828595
:1046D30018828519836013124749600512475B40AE
:1046E30048AA18AB19122B8D809212474960F21217
:1046F300475B5021124768FA851882851983A3E026
:10470300C82406124A3EF874B01256FD3435F583B8
:10471300E4936A60148518828519831247496408F3
:1047230070BF124768640870B81247681412477C58
:10473300240AC0E0851882851983124CC1D0E01287
:10474300477C0402466212474D22124C44C8240699
:10475300F582E438F583E0228518828519831247B0
:104763004DC3940A22851882851983123A19A3E04E
:1047730022124786F583888222124786C8240612AE
:104783004A6C22F0851882851983124C4422A8A80A
:10479300C2AF901CD1E004F0E8A2E792AF22C0823E
:1047A300C083901CE11255C86008124A49122E4A70
:1047B30080027900024D6974F7120843EAFEEBFFA9
:1047C300EA123BDF7401124DF7F8A3E0F91237C187
:1047D300124E49EA2435125146C0E0EA2413F58209
:1047E300E43FF583D0E0F0EA2436125146C0E0EA14
:1047F3002414F582E43FF583D0E0F0EA2438125123
:1048030046C0E0EA2418F582E43FF583D0E0F0EAFD
:10481300242FF582E43FF583120BBA1263C1EA2415
:1048230031125146F9123BC0120D65E9F5087007C4
:10483300EEFAEFFB122A97A908025254C082C083F2
:10484300122B63E96004792080027901024D69C06B
:1048530082C083EA2411124863D2E0800DEA240D5A
:10486300F582E43BF583E022F0A3F0024D69C082B8
:10487300C08312486064017011124905400C8A829A
:104883008B83A3E0F9122B5D80661248F6A2E650F3
:10489300128A828B83A3E0F9901CDB124CC1122E87
:1048A3004A804D1248606401700D12490550088A10
:1048B300828B83743080368A828B83A3E0641B8A65
:1048C300828B83700474228024A3E0700D124860ED
:1048D300F8749B1256FD3435800B124860F8747AD5
:1048E3001256FD3435F583E4938A828B8312490B88
:1048F300024D691248FA22EA2410F582E43BF5835B
:10490300E0221248FAA2E322F0901D32E0F91216D7
:10491300E12274F7120843E9FE1255C57003024AF7
:104923003BEE6014741B6E701AE8125ED139F58386
:10493300E064057003024A13901CD4124A49A3E4AD
:10494300024A1A74E96E7068E82412F582E439F5B4
:1049530083E0700B121FC3E96005124A8C60617912
:10496300EE1213AB901CD3124A63901CD3603A121D
:104973004A8F901CD3700B124A6314F01215610214
:104983004A3B124A81C2E7124C2A240D124A3E6462
:10499300037009124A5C124BE0D2E2F079ED121374
:1049A300AB124A74122E4A8078124A4F74E9806718
:1049B30074E16E703E121FC3E96055124A8C705049
:1049C3009006F5E0C0E0124A5C2412F582E438F563
:1049D30083D0E0F09006E4E0C0E0901CD3124A5884
:1049E300124A58D0E0F09006E4E004F07901121581
:1049F300498045741C6E7018901CD3124BF5901CA3
:104A0300E3124CC1122E4A901CD3E4F0A3F0802889
:104A1300901CD3124A4FEEF0901CD3124BF5122A7E
:104A230085124C0BE0548060031266D6901CD3E4CD
:104A3300F0A3F07910122B57025254124A6C2285BC
:104A43001882851983A3E0F583888222124A5322B0
:104A5300124CC9A32212551622901CD31254F722CA
:104A63001254F72412124A6C22F582E438F583E0DB
:104A730022901CD3124BF9901CD7124CC522E0F89C
:104A8300A3E0C82410124A6C22901CD3124C12E0EB
:104A930054042274F4120843750A00750B00A2AF84
:104AA300E433FEC2AF1255C56003024B89124CBEFC
:104AB300122E4AE94410F8901CCA800985080A8519
:104AC300090B124BD3124BE77003024B89123CE0E4
:104AD300586870E8780A120D88AC08AD09123DE5F4
:104AE300120D65901CD3E508F0A3E509124C2A12B8
:104AF3004BE0A2E75003024B90901CD1E014F0EE80
:104B0300A2E092AF901CD3E0240EF8A3E03400F9A6
:104B1300E8FEE9FF8882F583124BF5901CD3124718
:104B23006EF9122A49E9901CCE1262648E828F8339
:104B3300E054806018124A5C2413124A3EF912149E
:104B430065124A5C2414124A3EF9121459124C0B92
:104B5300A3E05401605F901CCE1255C86045124C0F
:104B6300216040124C21F87900901CCE124BF512B3
:104B7300066CE8C0E0124BFFD0E0124C2FC3941335
:104B830040117402800FEEA2E092AF8037901CD0E8
:104B9300024AFF7400C0E0901CD4E0C8124BCAD094
:104BA300E0800D124BFF7401124C2A124BCA7401A0
:104BB300F07903800C901CD3124A81A2E1B3E43351
:104BC300F9121549023653241AF582E438F5832283
:104BD300E50824FBF582E50934FFF58322125EEB39
:104BE300124A6F2212362FE508450922851882855D
:104BF3001983124BF922E0FAA3E0FB221254F424A6
:104C030019F582E438F58322901CD3124C12221238
:104C13004C44C8124C1A2212570B38F583221254F3
:104C2300F42418124A6C22124C3CC822124C3CF554
:104C3300838882A3A3A3A3E022F0901CD3124C4445
:104C430022E0F8A3E02274F7120843EAFEEBFF1216
:104C53002B87125143A2E3400A12407A7005908ECB
:104C6300498003908E4AE0F9EEFCEFFD7ACA7B1C83
:104C7300121711E96038EEFAEFFB901CDD124CC1FC
:104C8300122E4AEE240E125146540470121247910A
:104C9300EE1237C2A3E05401701E122A918019EE5E
:104CA300FAEFFB901CD5124CC1122E4A800A8E8259
:104CB3008F83A374F1124CD2025254901CDF124C16
:104CC300C522124CC922E0F8A3E0F58388822212A0
:104CD3004CD9122A8522F0EEFAEFFB22024D6274C0
:104CE300F7120843EAFEEBFF7900901D37E0540208
:104CF300700CEA24331251465404600279E8901D83
:104D030037E05460700CEA243312514654026002B7
:104D130079E88A828B83A3A3A3A3E0F8908E4FE064
:104D2300C398500279E8EA2431125146700CEA2400
:104D33002E125146700479F5800BE97005122A731F
:104D4300E9F9E96007EEFAEFFB122B5D025254C05A
:104D530082C0838A828B83740DF0121FB78007C0D1
:104D630082C083122A91D083D082020D3274F4124E
:104D73000843EAFEEBFF8A82F583E4F0A3124DF7C2
:104D83005404908E497012E0F8901CD1E0C398400F
:104D93001279F1122B5D023653E0F8901CD0E0C378
:104DA3009850EE124DFDA3E054016037EA24371208
:104DB3005146C394054033EA2433125146540570D7
:104DC300297AE57B1C122C8FEE2437F582E43FF51C
:104DD300831236047808120D807AE57B1C124DF19C
:104DE300120D65EEFA1257EE80AC79E880A5122C0D
:104DF30083740422F0124DFDE022EA2433F582E4A9
:104E03003FF5832274F6120843E9FE2451FAE43491
:104E130000FB1216D5EA4B6015EE8A828B83A3A39F
:104E2300A3A3F0EA2451124E38124E4980047A00AB
:104E33007B00026567F8E43BF98A828B83A3A32294
:104E4300126BB7901DAFE8F0A3E9F022024D62C0E8
:104E530082C083901CEE74E5F0A3742AF0A374154A
:104E6300F0A3742BF0A374EBF0A3742AF0A374F1F2
:104E7300F0A3742AF0A3740FF0A3742BF0A37403AC
:104E8300F0A3742BF0A374FDF0A3742AF0A3741B96
:104E9300F0A3742BF0A37421F0A3742BF0A3742755
:104EA300F0A3742BF0A37433F0A3742BF0A374F763
:104EB300F0A3742AF0A374DFF0A3742AF0A374D9C7
:104EC300F0A3742AF0901D0A7409F0A3742BF0A3C5
:104ED300742DF0A3742BF0A37447F0A3742CF0A3E8
:104EE3007439F0A3742BF0A3743FF0A3742BF090E8
:104EF3001D2EE4F0901D31F0901D1A124F0F740215
:104F0300F0901D23124F0F740102486D7457F0A3E4
:104F1300742BF0A32274F512084374F1120E188552
:104F230018828519837402F07401121086E9F06007
:104F3300047AFF7BFF74021210861259AC7508269F
:104F430075091D750A007808120D847C0B7D0074A9
:104F530007121086AA82AB83124F7F120D65AA181F
:104F6300AB19121FB7740F8003124F7F120D657FA9
:104F730003020AFB7C0B7D007A267B1D1216B1749B
:104F8300032274F712084374FD120E1885188285E4
:104F93001983740AF07401121086E9F07402121076
:104FA30086EA126626023FFD74F612084374F7126E
:104FB3000E18EAFEEBFFEA124FFD12502D7402F0B9
:104FC300EA2428FCE43FFDAA18AB1912186DEE245D
:104FD300311250032433126025120D887402120D0E
:104FE300F879831A1A123BBE120D65E9F5087007AA
:104FF300EEFAEFFB122A970265601237C67401229C
:10500300F582E43FF58312362F1254CDF583125007
:105013001BE8F0A3E9F0EE221250238A828B83224D
:10502300E024FFF8A3E034FFF922F0A3E4F0EA124E
:105033003BDF2274F0120843126A9512102F78088E
:10504300790C1207547808120D807A1D7B1D0236E5
:105053003774F412084374C6120E189006D3E06432
:105063000F600D851882851983742E1259CB802207
:105073007A147B1D12367512066C88088909E4F5CB
:105083000AF50B7808120D807A147B1D124DF1126C
:105093000D65743A02365074F5120843EAFEEBFFCD
:1050A3008A82F583A3E0F87078EA243012514664CB
:1050B300026007E06403600278E8EA2426F582E4EC
:1050C3003FF58312366E400478E88058E87052EA60
:1050D30024261242AEEE24311251382430125146A6
:1050E3006402700EEE2428126BAD9006E2124E4954
:1050F30080179006E274FEF0A304F0EE2428FCE48B
:105103003FFD7AD97B06121879EE241B1243FD1258
:105113000D84124F77120D65EEFAEFFB122AD3E9D5
:10512300F8E8600EE88E828F83A31263C9741712A6
:105133006473024F72FAE43FFB7950121429EE2292
:10514300EE2410F582E43FF583E02274F61208435F
:1051530074F7120E18901D31E070377401F0F912D4
:105163001513AA18AB19122B9975082675091D7802
:1051730008120D887508017509007808120D8890CA
:1051830006E8120BBA7406120DF87A03123664128B
:105193000D6502656274F71208431253747004A319
:1051A30074EBF0901D31E0A2E25003C2E2F0E0A202
:1051B300E1500512538580098E828F83742A12640D
:1051C3007302525474F412084374FE120E181252EE
:1051D3007A1254C0EC85188285198312550FE0F5B5
:1051E3000B7015AA18AB197953121429EE2413FA6C
:1051F300E43FFB794A1214291243FA120D84124F29
:1052030077120D65124BEFA90B122AC7901D31E0DF
:10521300A2E1500312538C901D31E4F07402023664
:105223005074F7120843EAFEEBFF8A82F583A374F6
:10523300EBF0901D31E0A2E150077A0079EB122ADE
:10524300CDEEFAEFFB122B038007EEFAEFFB122CE5
:10525300057F01020AFB74F712084312527A901D6C
:105263002EE4F0901D31F07AFF7BFF8E828F83A3B3
:10527300E0F9122AC780DA1253C57A1D7B1D122C5E
:105283008F2274F7120843EAFEEBFF122AFD80BA5D
:1052930074F7120843125402A3A3A3E0600474003A
:1052A300800274EB1252D35003C2E2F0E0A2E15049
:1052B300051253D68011A2E0500D8E828F83742A7B
:1052C300F0A374EB126473EEFAEFFB122AA9808148
:1052D3008E828F83A3F0901D31E0A2E22274F61236
:1052E3000843EAFEEBFF901D31E0D2E1F0790112B1
:1052F30015138E828F83A3E07038122B9FE9FAEE89
:10530300240DF508E43FF5097808120D88750801A6
:105313007509007808120D88125346120BBAEE2451
:1053230002FCE43FFD123664120D65E98E828F8321
:10533300A3F08E828F83A3E060067A00F9122ACD50
:10534300026567EE240BF582E43FF5832274F712BE
:1053530008431253747004A374EBF0901D31E0A260
:10536300E25003C2E2F0E0A2E1500312538502527D
:1053730054EAFEEBFF79011215198E828F83E064E4
:105383002022C2E1F012538C227A008E828F83A3F3
:10539300E0F9122ACD2274F71208431253C58E8204
:1053A3008F83A3A3A3A3E060047400800274EB12B1
:1053B30052D35003C2E2F0E0A2E150031253D602EB
:1053C30052CAEAFEEBFF79011215197A147B1D12FA
:1053D3002C8F22C2E11268F7E0A2E4E433FA1253FD
:1053E3008E2274F712084312540274EB1252D850EF
:1053F30003C2E2F0E0A2E15003125385025254EAE1
:10540300FEEBFF79011215198E828F83A32274F7A5
:1054130012084312542702524D74F71208431254D0
:1054230027025254EAFEEBFF7A147B1D122C8FEEF7
:10543300FAEFFB122B272274F712084374EF120EB4
:1054430018EAFEEBFFEA1263B57AD97B06121867F6
:10545300E960568518828519837409F07401121066
:105463008674EFF01254C07402121086EC12550FBA
:10547300A3A3E0C0E07404121086D0E01254FC64CD
:105483000870158E828F83A3A31254E8E0C0E074E2
:1054930005121086D0E080067405121086E41262AD
:1054A3005174061210861254B17411023FFFAA827E
:1054B300AB83122BCFAA18AB19121FB7221254CDEC
:1054C300F5831254DFFCA3E0F922EE1254D5FB88D6
:1054D30082222402F8E43FF9E8FAE922124C4488D4
:1054E30082F583E0221254F72407F582E438F5832A
:1054F30022901CD3124C44C8221255002212550587
:10550300E022F08E828F83A3A3A3A3221264E1126D
:1055130055162212551A22E0F8A3E0F5838882A3D8
:10552300A322C082C083122C11024D69C082C083A2
:10553300901D4E74EEF0A3741CF0A3740AF0A374D0
:105543001DF0901EBF7437F0A37432F0A37499F06A
:10555300A37432F0901D3A74C1F0A3742AF0901D25
:1055630037E0440102486DC082C083EAFCEBFD7959
:1055730002122B75024D6974F612084374FE120E63
:1055830018901D331255C860077A337B1D122B8D7B
:10559300901D39E4F0900D971255C860208007AA3A
:1055A30018AB19122B8D901D32E0F91216ED8B09F1
:1055B300A90985188285198312422070E2740202B8
:1055C3006564901CD3126BB7E8492274F712084341
:1055D300E9FA7B00901D32E0F91217170252547456
:1055E300F712084374F0120E18EAFCEBFDE9FE8A89
:1055F300828B83E0F874A61256FD3435F583E49369
:10560300C0E07401121086D0E0F0640B700DE98ADB
:10561300828B83A3F0122BF30256F8E07003025639
:10562300F8640C60030256E9741A6E700B7404126A
:105633001086E4F0A30256E874041210861259ACE3
:10564300EA2432125EB5C0E07403121086D0E01271
:1056530068E2121063740612108612106F8C828D2A
:1056630083A3A3A3A3A3A3A3A3A3126BB3740A1239
:105673001086E8F0A3E9125702E054106009851878
:1056830082851983E48013EC2412125EB5F8900628
:10569300F5E0C398851882851983F0E0C0E0740CA7
:1056A300121086D0E0F0EC2415125EB5C0E0740D44
:1056B300121086D0E0F0EC2416125EB5C0E0740E32
:1056C300121086D0E0F0EC2417125EB5C0E0740F20
:1056D300121086D0E0125702A3E05401600874014F
:1056E3001210867411F07402121086EEF074011217
:1056F3000DF0121FB77410023FFF28F582E422F069
:10570300EC12570B3DF58322240EF582E422C0826E
:10571300C083901D39E0640370047901800279002D
:10572300024D6974F7120843901D39E01257A174B2
:10573300BD28F582741E39F583125C33C2E7F0127B
:1057430057A8A3E493FE25E0FCE433FD74BD2CF5D8
:1057530082741E3D125FBFEC4D6005EE901D39F063
:105763008A828B83E025E0FCE433FDE82CF582E9B3
:105773003DF583E493FCC4540F25E0F874481256B6
:10578300FD341DF5831255C87005122BE1800CEC16
:10579300540F1257A8124CC1122E4A02525425E03C
:1057A300F8E433F92225E0FCE82CF582E439F583AB
:1057B3002274F212084374FE120E18890B8A088BA6
:1057C30009125853125844601A12625EF50A780897
:1057D300120D841258602402125FB5120D65125720
:1057E300EC8003125872023C4FAA0CEFFB901D325F
:1057F300E0F91216E12274F012084374FE120E1837
:10580300890B8A0E8B0F125853F5081258446027E0
:1058130012625EA808EA28124542850E08850F0920
:10582300F50A7808120D84125860125FB3120D65E1
:105833001257EC79008005125872791A74020236F5
:105843003CFA7B001216D58A0C8B0DAF0DEA4F2262
:10585300746F29F582E43435F583E49322A80B743D
:10586300901256FD3435F583E493FC7D00EA2285DE
:105873001882851983E50BF0791AAA18AB19122B34
:105883005D22C082C083E9901D3202486D74F61216
:10589300084374FE120E18EAFEEBFFEA5420703040
:1058A3008039A8A8C2AF901CD2E01412479A8A820A
:1058B3008B83125999901D351259AC122B69851897
:1058C30082851983E0641560077A357B1D122B8D61
:1058D3007ACC7B1C1216FFEA4B70C7EF5480700C16
:1058E3008016901D35EAF0A3EB1259BF901D32E0EC
:1058F300F91216EDEA4B70EAEE5410600B8518822C
:10590300851983742D1259CBEEA2E0500B851882B2
:1059130085198374241259CBEE5402600B851882C7
:1059230085198374251259CBEE5404600B851882B4
:1059330085198374261259CBEE5408600B8518829F
:1059430085198374281259CBEE5440600D740112EB
:1059530010861259B2742C1259CBEE5480600D7418
:10596300011210861259B2742F1259CB901D3312A3
:1059730055C8601BA8A8C2AF901D33124BF5901DEC
:1059830033E4F0A312479AA3EAF0A3E91259BF7ACA
:10599300007B000255C012599D22E08518828519AB
:1059A30083F022A3A3A3A3A3A3EAF0A3EBF022E42F
:1059B3001259B722F085188285198322F0122B69B8
:1059C3007A357B1D122B8D221244E6122B6922C0DD
:1059D30082C083901D35126621687002EB697007DF
:1059E300901D35E4F0A3F0024D6974F7120843EA01
:1059F300FEEBFFEA4F70031211CBA2AFE433F508BD
:105A0300C2AF8E828F831255C86028E824FBFAE95F
:105A130034FFFB901D35125FC1E86C7002E96D70B5
:105A230007901D35E4F0A3F08E828F83E4F0A3F09A
:105A330012178F023E6BC082C083901D5C74D5F039
:105A4300A3742BF0A374E7F0A3742BF0A374EDF00D
:105A5300A3742BF0A374A3F0A3742AF0A374F3F03C
:105A6300A3742BF0A3749DF0A3742AF0A374A9F07C
:105A7300A3742AF0901D6A7423F0A3742CF0A3740A
:105A8300F9F0A3742BF0A374FFF0A3742BF0A374A9
:105A93000BF0A3742CF0A37405F0A3742CF0901DE9
:105AA3005BE402486DC082C0839006E2E064FE704E
:105AB30003A3E0F470097CD97D0612186D801C8A5B
:105AC300828B83A3A3A3A3A3A3A3A37402F090062F
:105AD300E2126BB38A828B83124E49024D69C082F4
:105AE300C0839006ECC3E094FEA3E094FF400479E6
:105AF3000380027902024D69C082C083125C3C8C30
:105B0300828D83125BF1687039740268701C8A821B
:105B13008B83125B4AE06870298A828B83A3125BB2
:105B23004AA3E068701C7901801A7403687013EC4F
:105B33002405FC50010DEA2405FA50010B121873D9
