:020000040000FA
:06000000020FE702060AF0
:03002B00020DB90A
:03004300020C6D3F
:0300530002053F64
:1000830002059E0100F0FF0700080000FFFF0000CB
:10009300070400000003000147726F757000FF043E
:1000A3000010040020FD00020000E3150000000022
:1000B30000004316000000000000BF150000000010
:1000C300000000000000CB1500000000000000004D
:1000D3000000000006FFFF1E01CD190000F119000A
:1000E300000000000000000000000000000000000D
:1000F30000124261736564206F6E205449204343AC
:100103003235333001010401000100055D9A01819C
:100113009B01040000381A000000E8030000FFFF01
:10012300B21A0188130000E803000064006400B8F9
:1001330001A0BB0D00A0BB0D0002020207040101D8
:10014300051E02051E020A0A01010108090801032E
:10015300B80B02803E0102FEFFE8030A050001FF1F
:10016300FF010A1401E00105030101FF0F10FEFF67
:100173000300030003000300030003000300030064
:10018300030005000A00140028004F009E00000031
:10019300883200000000FA3000000000FF00000079
:1001A300FF00120FF7601D12100670051919198050
:1001B3001A120E9B701F120EAFC37003E66733193A
:1001C300191940071818182208080874FFF618F6BA
:1001D30018F618F622120EAF6017121094702192BF
:1001E300F012109D7019501720F01408080809091F
:1001F30009E7F61819E7F61819E7F61819E7F622CA
:1002030012109D60E6E869701F0808E62480F6086E
:10021300E436F618547FB47F0CE654806007F6E4A6
:1002230018F618F622181822E9C6CC08C6CD08C657
:10023300CE08C6CFC0E0E8C0E0EAC0E0EBC0E0090A
:10024300E9F809E7FA09E7FBE6F918E6F8C3EC98D9
:10025300ED99EE9AEBC2E7F5F0EFC2E795F0500E99
:10026300600CEBCFFBEACEFAE9CDF9E8CCF8EAA2D1
:10027300E7D2E7FAEB33FB13F5F0EEA2E7D2E7FEA2
:10028300EF33FFC5F013A2E730E601B313C5F0C3A4
:10029300C0E0C0F07F00C39BFB605E9418600F401A
:1002A3001D14601AD0E023F9D0E0F80203868AF027
:1002B300E9486003D2F0E4AFF0FAF9F8803BEB30A1
:1002C300E40D89F0EA6003D2F0E4AFF0F9CAF8EB89
:1002D30030E30D88F0EF6002D2F0AFF0E4CAC9F862
:1002E300EB54076014FBC3EA13FAE913F9E813F8B4
:1002F300EF135002D2E0FFDBEDD0E0C0E030E7398E
:10030300C3E49FFFF5F0EC98FC42F0ED99FD42F059
:10031300EE9AFE42F0D0E0F9D0E0F8E5F0607AE939
:1003230023F9EE20E742D8028067C3EF33FFEC33B3
:10033300FCED33FDEE33FE80EAEC28FCED39FDEEF7
:100343003AFED0E023F9D0E0F84002801BC3EE135D
:10035300FEED13FDEC13FCEF135002D2E0FF08B8DF
:1003630000067F7F74FF802EEF3350178CF020F050
:100373000260100CBC000C0DBD00080EBE0004088A
:10038300E860DFE933E813FFEE2313FE4F4D4C80A3
:1003930008E95480FFE4FEFDFCEE33EF33F4700410
:1003A300FCFD7E80D0E0FBD0E0FAD0E0F8D0E0CFD7
:1003B300C618CEC618CDC618CCC6F92200120FF740
:1003C300604F1210066012E7548066F6120E9B709F
:1003D30011121094703B090909F4F618F618F6186F
:1003E300F622120EAF701512109D08080860EAE697
:1003F300447FF618768018E4F618F62212109D60F2
:10040300161210947012E4F608F608F608E6548003
:10041300F609090918181822EAC0E0EBC0E0ECC09D
:10042300E0EDC0E0E687F0A4FBACF008E687F0A4BB
:100433002CFCE435F0FA1809E687F0A42C4B600293
:100443007401CA35F0FCE433FB09E687F0D2F7A464
:100453002CCB35F0FC1908E687F0A42BCC35F0FB48
:10046300E433FD0819E687F0D2E7A42C4ACB35F034
:10047300CD3400FC09E687F0D2E7A42DCC35F0FD9E
:10048300E433FA0918E687F0D2F7A42CCD35F0CA85
:100493003400FC08E687F0D2E7D2F7A42ACC35F083
:1004A3007A7E20E70B0ACB33CBCD33CDCC33CC33A1
:1004B300CB3350147004ED30E00ED2F1E4CD3DCDDA
:1004C300CC3CCC3B5005DA05C2F1EB547FC6330874
:1004D300E63392F0FBE73309E733C39A502D2B70D1
:1004E300190C0D4C4D70151806E608C333700D201A
:1004F300F10AA2F013F6E418800B4024E4F630F07E
:1005030002768018F618F618F68024D33B145010A0
:1005130074FFA2F013F6187680E418F618F6800F2D
:10052300A2F013F618E63303F618ECF618EDF6D03E
:10053300E0FDD0E0FCD0E0FBD0E0FA22C0E074F1B3
:100543001208B0A2AFE433F509D2AF85A708AFA173
:10055300EF5508FE74105E600612134F75A1EF7419
:10056300085E600812135575A1F78024EFA2E0928C
:10057300F0E508A2E082F05017906198E0F8900649
:10058300BAE0C398A2D265D0335002E8F075A1FE59
:10059300E509A2E092AF7F0202096CC0E074F21297
:1005A30008B0A2AFE433FED2AF9061A4E0F8759B2C
:1005B30000E59158540860087591F71213A380233E
:1005C300E59158541060087591EF1213A98014E552
:1005D30091A2E092F0E8A2E082F05007E0C2E0F0DE
:1005E3001214F39061A3E0F8E5E9585404600E1285
:1005F30014C975E9FB906193E0A2E640F2EEA2E034
:1006030092AF7F0102096CC0E074F21208B0A2AF8E
:10061300E433FED2AF9061A5E0F8E5BF585404601F
:100623000675BFFB12150B80D4C3E498F8E499F95F
:1006330012066D8026C3E49AFAE49BFBE920E7E9FE
:1006430012066DE498F8E499F922C3E498F8E49962
:10065300F912066DE498F8E499F9C3E49AFAE49B75
:10066300FB22EB20E7CFE920E7E0B90010BB00084D
:10067300E88AF084F8AAF022E4FBC8FA22EB70229D
:100683007B10C833C8C933C9335007C39AC3DBF2DD
:1006930080069A50012ADBEAC833F4C8C933F4C987
:1006A300FA2275F008E4C833C8C933C933C99AC9F3
:1006B3009B5004C92AC93BD5F0ECFBC833F4C8E40A
:1006C300C9FA2212070620F01430E72B74FFFCFB53
:1006D300FA747F8022E4FCFBFA7480801AB48008E9
:1006E300BC00F2BB00EF800F50EBF9E4C39AFAE4CD
:1006F3009BFBE49CFCE499C6CC18C6CB18C6CA186D
:10070300C6F922E4C9C608CAC608CBC6D333030850
:10071300CCC63392F0C3947F402E94184019C9B9C4
:100723000704CACBCC225025C309CA33CACB33CB67
:10073300CC33CC33D9F422F4600DC9CCC313CB131F
:10074300CBCA13CAD9F6CC22E4FCFBFA2214FCFB75
:10075300FA22080808EAC0E0EBC0E086F0E7A4FA52
:10076300180986F0E7A42AFA180986F0E7A42AFAFA
:10077300180986F0E7A42AFA1986F0E7A4FBE5F046
:100783002AFA190886F0E7A42BFBE5F03AFA1908D0
:1007930086F0E7A42BFBE5F03AFA18180986F0E790
:1007A300A4C5F02BFBE43AFA1908E7C5F0C6A42662
:1007B300F6E5F03BFBE43AFA1886F0E7A4F6E5F039
:1007C3000826F6E43B08F6E43A08F6D0E0FBD0E06E
:1007D300FA22E4CFC0E0E4CEC0E0E4CDC0E0E4CC54
:1007E300C0E075F020E626F608E633F608E633F6B1
:1007F30008E633F6181818EC33FCED33FDEE33FE40
:10080300EF33FFC3EC9709ED9709EE9709EF9719BB
:100813001919400FFFEC97FC09ED97FD09EE97FEC0
:10082300191906D5F0BFECF709EDF709EEF709EF53
:10083300F7191919D0E0FCD0E0FDD0E0FED0E0FFBD
:10084300222518C582C0E0E51934FFC583C0E0E561
:1008530018C3958224F810AF088583198582188000
:1008630008858319858218D2AFCEF0A3E520F0A3C3
:100873007808E608F0A3DEFAEFF0A3E58124FAF89E
:10088300E608F0A3E608F0A3E608F0A30808E608E4
:10089300F0A3E608F0A315811581D0E0FED0E0F8BF
:1008A300158115811581E8C0E0EEC0E022C0D02596
:1008B30018C582C0E0E51934FFC583C0E0E518C35D
:1008C300958224F310AF08858319858218800885E3
:1008D3008319858218D2AFC8F0A3E9F0A3EAF0A385
:1008E300EBF0A37908E709F0A3D8FAECF0A3EDF055
:1008F300A3EEF0A3EFF0A3D0E0F0A3D0E0F0A3D0F9
:10090300E0F0A3E520F0A3E5F0F0A322E9799EC689
:1009130008CAC608CBC608CCC6C370207996CACB12
:10092300CC7019798ECBCC70137986CC700EF9808C
:100933002ACA33CACB33CBCC33CC331930E7F2CC0E
:10094300CBCA3350147004EA30E00DE4CA3ACACB80
:100953003BCBCC3CCC500209C3E913C6CC182313C0
:10096300C6CB18C6CA18C6F922851983851882E032
:10097300C0E0A3E0F9A3E0FAA3E0FBA37808E0F664
:1009830008A3DFFAE0FCA3E0FDA3E0FEA3E0FFA3DE
:10099300E0C0E0A3E0C0E0A3E0F5D0A3E0F520A32E
:1009A300E0A3F5F010AF08858319858218800885C8
:1009B3008319858218D2AFD082D083D0E0F8D0E0FB
:1009C3003212107FB90003020A03E490040178AFE6
:1009D300791A8002F0A3D8FCD9FA7AAF7B1D900074
:1009E30086782079028015E493A3AD82AE838A8250
:1009F3008B83F0A3AA82AB838D828E83D8E9D9E758
:100A03007582EA7583FD7404120D30758255758302
:100A13002E7400120D30E4730075F0108E1A8F1BC4
:100A230085821F85831E851882851983E0CEA3E006
:100A3300CF851F82851E83EBC9EAC8EDCBECCAC301
:100A4300E833C8E933C9EA33CAEB33CBC3EA9EF5CB
:100A53001DEB9FF51CB35004AB1CAA1DEC33CCED6E
:100A630033CDD5F0DAAE1AAF1B22D083D082ECC0DF
:100A7300E0EDC0E0E493A3FCE493A3FDED4C600D33
:100A8300120B45EC24FFFCED34FFFD80EFE493A350
:100A9300FCE493A3FDED4C600D120C18EC24FFFC59
:100AA300ED34FFFD80EFD0E0FDD0E0FCE493A3C084
:100AB300E0E493C0E022D083D082E9C0E0E493A3D2
:100AC300C386F0C5F095F0F908E493A386F0C5F06A
:100AD30095F0700BE493A3C3994005E9048002A346
:100AE300E475F002A42582F582E5F03583F583D021
:100AF300E0F9E493A3C0E0E493C0E0228519838581
:100B03001882E0A3FEE0A3F5207808E0A3F608DF4F
:100B1300FAE0A3FFE0A3C0E0E0A3C0E0E0A3C0E0ED
:100B2300E0A3C0E0E0A3C0E010AF0885821885838E
:100B3300198008858218858319D2AFD083D08202A9
:100B43000D36C0E0C3E49396087401939618400FE2
:100B5300E49366700808740193661870007019A313
:100B6300A3C3E49396087401939618A3A3400DD0EE
:100B7300E0D0E0D0E0020AA9A3A3A3A3A3A3D0E0FB
:100B830022C082C08374FE120E1C851882851983CD
:100B9300EAF0A3EBF07C017D00AA18AB19790012EF
:100BA30012D7851882851983E0FAA3E0FB74021239
:100BB3000D69D083D082227404800474028000CC37
:100BC300C0E0EDC0E0E518C39CCCAD1950011D1089
:100BD300AF068C188D1980068C188D19D2AF120CA4
:100BE300B2D0E0FDD0E0FC2274028000CCC0E0ED86
:100BF300C0E0E518C39CCCAD1950011D10AF068CA5
:100C0300188D1980068C188D19D2AF120C90D0E074
:100C1300FDD0E0FC22C0E0C0F088F0E493667008E9
:100C23000874019366187000A8F0A3A3700BD0F0AA
:100C3300D0E0D0E0D0E0020AA9A3A3D0F0D0E02214
:100C4300D083D082CCC0E0E493A36006120D1114CC
:100C530070FAE493A36006120E321470FAD0E0FC2B
:100C6300E493A3C0E0E493C0E022C0E074F212086E
:100C7300B0A2AFE433FED2AFC2C0E5D1A2E45003C9
:100C83001212BFEEA2E092AF7F0102096CCAC0E06C
:100C9300E493A3C582CCC582C583CDC583F0A3C528
:100CA30082CCC582C583CDC583DAE5D0E0CA22CA2A
:100CB300C0E0E0A3C582CCC582C583CDC583F0A3C4
:100CC300C582CCC582C583CDC583DAE6D0E0CA220E
:100CD300C008C3E096F50808A3E096420808A3E01D
:100CE30096420808A3E09645087001D3D008227005
:100CF30009080808226016181818C6C333C608C6A0
:100D030033C608C633C608C633C6D5E0EA22C0E0F8
:100D1300E493A3D39C5010E493A3C39C400AD0E074
:100D2300D0E0D0E0020C60A3A3A3D0E022C09FF5E3
:100D33009FE473D09F22D083D082C09FE493C0E00E
:100D4300740193C0E0740293F59F222518F5821075
:100D5300AF08F518400C15198008F518400215194D
:100D6300D2AF8519832200C0D0251810AF08F5181B
:100D7300500C05198008F51850020519D2AFD0D0D0
:100D8300227404800A74038006740280027401C012
:100D9300E0F404120D4ED0E012104222BB0102E730
:100DA30022C082C08389828A83BB0003E08002E47D
:100DB30093D083D08222C0E0C0D0E8C0E0A8A8D2FC
:100DC300AFC2C7E8A2E792AFD0E0F8D0D0D0E0320C
:100DD3006016080808C6C313C618C613C618C61378
:100DE300C618C613C6D5E0EA222518F8E43519F962
:100DF300222518FAE43519FB222518FCE43519FDE0
:100E030022C3E0C696F608A3E0C696F608A3E0C69A
:100E130096F608A3E0C696F622251810AF08F51833
:100E2300400C15198008F51840021519D2AF22C0DD
:100E3300E0E493A36C7009D0E0D0E0D0E0020C6052
:100E4300A3A3D0E022E066701008A3E066700A084E
:100E5300A3E066700408A3E06622C3E09608A3E05B
:100E63009608A3E09608A3E096A2D265D03322E7C2
:100E73006670100809E766700A0809E766700408D7
:100E830009E76622C3E096F008A3E096F008A3E022
:100E930096F008A3E096F022181818E608460870A2
:100EA30009E626087005E633F4220822191919E722
:100EB3000947097009E727097005E733F422092276
:100EC300C3E4939608740193960874029396087486
:100ED30003939622C3E697F60809E697F60809E610
:100EE30097F60809E697F622E026F608A3E036F619
:100EF30008A3E036F608A3E036F622E647F608092B
:100F0300E647F60809E647F60809E647F6227004BD
:100F130022600D18C6C333C608C633C6D5E0F4181D
:100F230022E657F60809E657F60809E657F60809D0
:100F3300E657F622E056F608A3E056F608A3E05675
:100F4300F608A3E056F622E056F008A3E056F008B0
:100F5300A3E056F008A3E056F022E627F60809E6D8
:100F630037F60809E637F60809E637F622E026F0F1
:100F730008A3E036F008A3E036F008A3E036F02239
:100F8300E493F608740193F608740293F608740365
:100F930093F622E4C396F608E496F608E496F60878
:100FA300E496F622600D08C6A2E713C618C613C658
:100FB300D5E0F322C6F4C608C6F4C608C6F4C608CC
:100FC300C6F4C622C3E7960809E7960809E7960818
:100FD30009E79622C3E09608A3E09608A3E09608E3
:100FE300A3E0962275D00075813F75180175190429
:100FF300000209C4E6084608C3134608336002E644
:1010030033F422E7094709C3134709336002E7337F
:10101300F422600C08C6C313C618C613C6D5E0F481
:1010230022E6F008A3E6F008A3E6F008A3E6F02220
:10103300E0F608A3E0F608A3E0F608A3E0F622CA68
:10104300C0E0E6F0A308DAFAD0E0FA22E0FAA3E07F
:10105300FBA3E0FCA3E0FD22EAF0A3EBF0A3ECF09A
:10106300A3EDF022E0F8A3E0F9A3E0FAA3E0FB226A
:10107300E8F0A3E9F0A3EAF0A3EBF022E5C754F804
:101083004401F5C77901222518F582E43519F58362
:1010930022E72719471947194722E6261846184613
:1010A300184622C2AF75D69F02000022120D391EC8
:1010B3007000120D399A7000120D39CD7000120DA7
:1010C30039FB7000120D391F7300120D393B730089
:1010D300120D39807300120D39057400120D395148
:1010E3007400120D39E17400120D39BA7500120D36
:1010F300390B7600120D39707600120D39E3760044
:10110300120D39277700120D397F7700120D39A19F
:101113007700120D39317800120D39C27800120DA3
:10112300390E7900120D393A7900120D397B7900A5
:10113300120D391C7B00120D39FE7B00120D39DABA
:101143007C00120D39E0D206120D3921D306120D9F
:10115300393BD306120D3964D306120D39C3D306B6
:10116300120D392DD406120D398CD406120D39C93E
:10117300D406120D3987D506120D399EDD06120DE0
:1011830039CEDD06120D39F5DD06120D3952DE06B4
:10119300120D3992DF06120D39ADDF06120D39DF5C
:1011A300DF06120D390CE006120D3931E006120D7F
:1011B300395CE006120D3987E006120D39B7E006F7
:1011C300120D3941F006120D3952F006120D39F0A5
:1011D300F006120D390AF106120D39F27F00120DD5
:1011E30039E6FF04120D39F4FF04120D39EBFF0544
:1011F300120D39C6F206120D39D6F206120D39EB6D
:10120300F206120D3934F306120D3963EC06120D92
:1012130039E7EC06120D394FED06120D39F87F0050
:10122300120D393DF306120D3962F306120D3975AD
:10123300F306120D3980F306120D394DCF06120D48
:10124300395BCF06120D39D4CF06120D39A9D0065A
:10125300120D397BD206120D396FAB06120D398D83
:10126300AB06120D39BAAB06120D39BDAD06120D20
:101273003938AE06120D39E5AE06120D3956AF06F2
:10128300120D39F4AF06120D3918B006120D39914B
:10129300B006120D392AF506120D3986FA02120D1F
:1012A30039F3FA02120D39ABFB02120D3921FC029C
:1012B300120D3935FD02120D39C5FE02120D392EFC
:1012C300FF02120D397DFF02120D3986FF02120D46
:1012D3003995FF02120D39ABFF02120D39BEFF0221
:1012E300120D39C7FF02120D39B4FA05120D39E098
:1012F300FA05120D3977FD05120D39B7FD05120DEB
:1013030039F3FD05120D3907FE05120D3920FE05CF
:10131300120D3911FF05120D39C3FF05120D39D70F
:10132300FF05120D392DE606120D3951E606120D91
:10133300396AE606120D39A8E606120D39D8E60613
:10134300120D3905E706120D396BE706120D396EDA
:10135300E706120D3978E706120D3985E706120DF7
:1013630039A2D806120D39C2D806120D3901D90691
:10137300120D391FD906120D393AD906120D39A0AB
:10138300D906120D39ACD906120D3909DA06120D38
:101393003918DA06120D393CDA06120D39FDDA0670
:1013A300120D390ADB06120D391BDB06120D394FFC
:1013B300F206120D3997F206120D39C3F206120D19
:1013C3003925BB06120D3981BC06120D398FBC06B7
:1013D300120D39A2BC06120D39B7BC06120D39CC59
:1013E300BC06120D39DFBC06120D395BBD06120DAA
:1013F30039C0BD06120D3956BE06120D392FBF0670
:10140300120D393FBF06120D394EBF06120D39209A
:10141300F106120D3944F106120D396CF106120D65
:101423003994F106120D3949DB06120D3970DB06CA
:10143300120D398EDB06120D39FDDB06120D39CF85
:10144300D506120D39E8D506120D39F4D506120D5D
:101453003908D606120D3926D606120D3930D606AE
:10146300120D393AD606120D394DD606120D39D35F
:10147300D606120D3948D706120D3977D706120D45
:1014830039C5D706120D3914D806120D392FD806CF
:10149300120D3939D806120D394AD806120D398D75
:1014A300D806120D3954F406120D39668A06120D48
:1014B30039928A06120D39AF8A06120D39C28A068D
:1014C300120D39DD8A06120D39378B06120D396577
:1014D3008B06120D39758F06120D39D39006120D36
:1014E30039059106120D39689106120D39D4920609
:1014F300120D39FC9206120D39119306120D392182
:101503009306120D39619306120D39A39306120D3A
:1015130039B39306120D3919EA06120D3933EA0667
:10152300120D395BEA06120D3974EA06120D399869
:10153300EA06120D39B6EA06120D39CDEA06120D86
:1015430039FBEA06120D3916EB06120D39B1FF010C
:10155300120D3975FC03120D3985FC03120D398AFE
:10156300FD03120D39BCFD03120D39ECFD03120D01
:10157300390FFE03120D3926FE03120D3960FE03E7
:10158300120D39C5FE03120D3907FF03120D394E33
:10159300FF03120D397BFF03120D39A6FF03120D52
:1015A300398FE706120D39ADE706120D390FE8063C
:1015B300120D39A9E806120D3956EF06120D3949F5
:1015C300EB06120D3991EB06120D3919E306120DD4
:1015D300397AE406120D39D4E806120D39F9E90611
:1015E300120D39008006120D398A8306120D3986D1
:1015F3008506120D39B88606120D39918706120D2C
:1016030039218906120D39ED8906120D39418A06F1
:10161300120D3957E106120D3978E106120D39B270
:10162300E206120D39DCE206120D39EFF406120D53
:1016330039FFF406120D3909F506120D395DD3058C
:10164300120D3960D305120D393CDB05120D398EAD
:10165300DC05120D39EFDD05120D39C6DE05120D5D
:10166300399FDF05120D3988E005120D397CE1053C
:10167300120D3934E205120D3964E205120D3914E5
:10168300E405120D39C9E406120D39E9E406120D19
:1016930039FDE506120D3900E606120D3968EE062E
:1016A300120D399EEE06120D39B6EE06120D39F8FB
:1016B300EE06120D3908EF06120D394CEF06120D26
:1016C3003951A406120D398BA406120D39F4A40660
:1016D300120D3913A506120D392CA506120D39CE9C
:1016E300A506120D39D7A506120D3928A606120D27
:1016F3003951A606120D395EA606120D39CFA6067C
:10170300120D395DA706120D39ABA706120D39E18B
:10171300A706120D3942A806120D396BA806120D41
:1017230039E2A806120D393EA906120D397BA90626
:10173300120D39B2A906120D39C4A906120D39D6F4
:10174300A906120D39F5A906120D39FEA906120DC7
:1017530039B9AA06120D3905AB06120D3943AB068A
:10176300120D399BF306120D3940B106120D398063
:10177300B206120D39A3B206120D39B4B206120D18
:1017830039D3B406120D39F3B406120D39B47D0002
:10179300120D39EA7D00120D39327E00120D398B9C
:1017A3007F00120D39ABE904120D39DCEA04120D86
:1017B3003918EB04120D39D2EC04120D39FCEC0488
:1017C300120D3975EF04120D39B5EF04120D3949B5
:1017D300F104120D39E8F104120D3940F204120D2F
:1017E30039D3F204120D390DF304120D394FF304FA
:1017F300120D39C2F404120D3942F604120D397F69
:10180300F804120D39ADF804120D39D9F804120D8C
:1018130039E2F804120D393FF904120D39CFF904F6
:10182300120D390BFD04120D398DFD04120D39DA39
:10183300FF02120D39F0FF02120D39B7C306120D64
:1018430039CDC306120D3971C406120D39B0C40661
:10185300120D39CDC406120D39FEC406120D394BD3
:10186300C506120D397FC506120D39BAC506120D0C
:1018730039AFC706120D3968ED06120D39C7ED06EB
:10188300120D3905EE06120D3946EE06120D39001A
:101893008004120D390C8004120D396E8004120D70
:1018A30039788004120D39058104120D3941810400
:1018B300120D39048204120D39178204120D398571
:1018C3008204120D39ED8204120D397C8304120D4A
:1018D30039FA8304120D399F8504120D3958870490
:1018E300120D399E8804120D391B8A04120D39C258
:1018F3008A04120D39908F04120D39879004120D4A
:1019030039169104120D393B9104120D39D8910403
:10191300120D39F59104120D39159204120D398601
:101923009204120D39A39204120D39D19204120DAF
:1019330039699404120D398A9404120D39309504CF
:10194300120D39789504120D39EA9504120D396D8B
:101953009604120D39D29604120D392F9704120DE5
:1019630039CE9704120D39429804120D397E98042A
:10197300120D39EB9804120D39559A04120D39D60C
:101983009B04120D39859C04120D39E79E04120D38
:1019930039499F04120D39779F04120D398FA10421
:1019A300120D391FA404120D3922A504120D39E3B7
:1019B3009306120D39009506120D399D9606120DE8
:1019C300393F9706120D395F9706120D3962970654
:1019D300120D39759706120D39BA9706120D39E6AD
:1019E3009706120D393D9806120D39559806120DBA
:1019F30039909806120D39FF9806120D395B990636
:101A0300120D39F79906120D395F9A06120D398BAB
:101A13009A06120D39C69B06120D398EF506120D64
:101A2300399FCB04120D393ECC04120D39BACC04C4
:101A3300120D39A9CD04120D39A7CE04120D392682
:101A4300CF04120D3968D004120D3909D104120DD7
:101A530039C9D204120D39D0D304120D39EDD30490
:101A6300120D3918D504120D3955D604120D39FF4C
:101A7300D604120D3969DA04120D3971DC04120D22
:101A830039FADC04120D3954DD04120D39A2DD04D8
:101A9300120D391DDE04120D399FDE04120D39DBE0
:101AA300DE04120D397FE504120D39DAE704120D55
:101AB30039B6E804120D39349D05120D39669D05BA
:101AC300120D39EA9D05120D394D9F05120D393B53
:101AD300A005120D3903A205120D3928A205120D16
:101AE300397AA205120D390CA305120D3958A30535
:101AF300120D396BA305120D39C8A305120D393721
:101B0300A405120D3904A505120D3972A505120D90
:101B130039A9A505120D39F2A505120D399AA705A4
:101B2300120D3979A805120D39C7A905120D39AA65
:101B3300AA05120D3936AB05120D396FAB05120D1F
:101B4300398EAB05120D39D9AB05120D39F9AB0539
:101B5300120D39B6AC05120D39C3AD05120D39D7C7
:101B6300AD05120D392BAE05120D3986AE05120DDA
:101B730039D3AE05120D39DBAF05120D3960B2054D
:101B8300120D3986B205120D3901B305120D39262E
:101B9300B305120D39ADB305120D3989B405120D14
:101BA30039C7B405120D394BB505120D3936B605D3
:101BB300120D3939B605120D3943B605120D394DDB
:101BC300B605120D3969B605120D39E5B605120DC4
:101BD300391EB705120D393AB705120D3966B70527
:101BE300120D398DB705120D39B1B705120D39EC48
:101BF300B705120D395FB805120D3993B805120DEB
:101C0300399DB805120D39D9B805120D39F3B80548
:101C1300120D391AB905120D3949B905120D396872
:101C2300B905120D3980B905120D3992B905120D96
:101C3300399FF406120D39B7F406120D39F57F00FA
:101C4300120D392F9D06120D397E9D06120D393C5A
:101C53009F06120D39F6A006120D3934A106120D96
:101C63003929A206120D3934A306120D3956A306DB
:101C7300120D39A0A306120D3921A406120D392A1B
:101C8300A904120D394DA904120D39ABAA04120D82
:101C930039F4AA04120D3952AB04120D39B8AB044E
:101CA300120D39BBAB04120D390CAC04120D39867D
:101CB300AC04120D3914AD04120D3917AD04120D15
:101CC300399FAD04120D39E2AD04120D3952B2043D
:101CD300120D39F0B304120D392AB404120D397000
:101CE300B404120D39D0B704120D3955B804120DCE
:101CF30039EDB904120D39FCBA04120D3929BC04AB
:101D0300120D3989BC04120D3965BD04120D39EF6A
:101D1300BD04120D39F2BD04120D39D7BE04120DE4
:101D2300391DC004120D39D1C104120D39A4C304E5
:101D3300120D3936C404120D39CBC404120D39BD4A
:101D4300C504120D397DC704120D3993C804120D51
:101D53003902CA04120D3947CA04120D39F2CA04F2
:101D6300120D39008005120D399B8005120D390EB5
:101D73008105120D39298105120D39CA8105120D0C
:101D830039118205120D39348305120D3977830514
:101D9300120D39F38305120D39468405120D39A549
:101DA3008405120D39B28505120D39CF8805120D40
:101DB30039058A05120D398E8A05120D39928C0563
:101DC300120D39368D05120D39D58D05120D3936A3
:101DD3008E05120D39A58E05120D39FE8F05120DD4
:101DE30039E89005120D39239105120D39439105F8
:101DF300120D39F49105120D39319205120D39BACC
:101E03009205120D39359405120D39009605120D00
:101E1300395B9705120D39D09805120D39DF9905F5
:101E2300120D396C9A05120D39D59A05120D39E147
:101E33009B05120D39CBD903120D392EDA03120D7E
:101E43003976DA03120D39B4DA03120D390FDB03D5
:101E5300120D396CDB03120D39A7DB03120D39297F
:101E6300DC03120D3983DC03120D39F7DD03120D88
:101E73003975DE03120D398DDF03120D39B5DF031A
:101E8300120D3904E103120D3915E103120D392D39
:101E9300E103120D3942E203120D391FE303120D60
:101EA30039CED205120D3940E403120D3957E4033C
:101EB300120D3978E403120D399AE403120D39B97E
:101EC300E403120D398DE503120D39E7E503120D15
:101ED3003988E803120D39E1E803120D3900E903EB
:101EE300120D39EBE903120D3921EA03120D395BA7
:101EF300EB03120D39DAEB03120D3911EC03120D5A
:101F0300394BEC03120D39BAEC03120D397BED0397
:101F1300120D3954EF03120D395BF003120D396EB4
:101F2300FA05120D39CCF303120D3947F603120DDE
:101F33003921F803120D39E2F803120D395AF90366
:101F4300120D3971F903120D396BFA03120D39634E
:101F5300FB03120D39D2FB03120D39BCC706120D58
:101F6300396CC906120D392BCA06120D3993CA06EC
:101F7300120D3907CB06120D398CCB06120D39AA77
:101F8300CB06120D39EECB06120D3914CC06120D09
:101F9300393BCC06120D3953CC06120D396BCC06E6
:101FA300120D390DCD06120D394FCD06120D3971B3
:101FB300CE06120D397ACE06120D3983CE06120DD6
:101FC300398CCE06120D3996CE06120D3935B6066A
:101FD300120D3969BA06120D3977BA06120D397C1A
:101FE300BA06120D3973FE04120D3962F506120D8D
:101FF30039F5F306120D3905F406120D397FBF06C4
:10200300120D39B9F106120D39E3F106120D39003B
:102013008003120D39328003120D399E8003120D95
:1020230039398103120D39D88103120D391D820309
:10203300120D393F8203120D39588203120D397E76
:102043008203120D39A08203120D39DE8203120DB1
:1020530039228303120D39448303120D39A68303F6
:10206300120D396D8403120D39248503120D39962F
:102073008503120D39688603120D39B28603120DDA
:1020830039058703120D396B8703120D39A58703B1
:10209300120D39F78703120D39138803120D393ED8
:1020A3008803120D39458A03120D39998B03120DDA
:1020B30039BB8B03120D39EF8B03120D39108C03CF
:1020C300120D391F8C03120D392A8C03120D39DAC4
:1020D3008C03120D39438D03120D39F08D03120D4C
:1020E30039288E03120D39EE8E03120D39FB8F033F
:1020F300120D39459003120D39D49003120D39385E
:102103009103120D39739103120D39DF9303120DED
:1021130039339503120D396C9803120D393999032C
:10212300120D39C79903120D39F09903120D396253
:102133009A03120D39F69A03120D39549B03120DAB
:1021430039469C03120D39689C03120D39C49D0353
:10215300120D39DD9D03120D39F09D03120D394D1A
:102163009E03120D395C9E03120D39EF9E03120D6F
:1021730039FB9F03120D3908A003120D3911A00377
:10218300120D39E9A103120D390FA303120D391FE3
:10219300A303120D3921A403120D3998A403120DC0
:1021A30039C7A403120D39CDA503120D3913A603A4
:1021B300120D39DFA703120D39B7AB03120D39C165
:1021C300AB03120D39D5AB03120D39DFAB03120D7F
:1021D30039E9AB03120D39F3AB03120D390CAC0320
:1021E300120D3916AC03120D398AAC03120D399551
:1021F300AC03120D39BAAC03120D39C5AC03120D81
:102203003913AD03120D391DAD03120D3928AD037A
:10221300120D394CAD03120D3970AD03120D39CCCB
:10222300AD03120D3912AE03120D392FAE03120D89
:1022330039ACAE03120D39E3AE03120D3922AF03ED
:10224300120D396FAF03120D39F1AF03120D398A35
:10225300B003120D395AB203120D39B8B203120D7D
:1022630039D4B303120D39FAB303120D3939B50357
:10227300120D395FB803120D39A0BA03120D397C60
:10228300BC03120D3912BD03120D3939BF03120DF0
:1022930039E5BF03120D391AC003120D397FC0038C
:1022A300120D3989C003120D39B3C203120D39DA85
:1022B300C303120D391AC403120D39C0C403120D1E
:1022C3003951C603120D39DAC703120D39FAC703A0
:1022D300120D3953C803120D3955C903120D399F15
:1022E300C903120D39EFC903120D39D9CA03120DEF
:1022F300394ECB03120D3968CC03120D39E3CC03ED
:10230300120D39E8CD03120D3993D003120D39B2F2
:10231300D003120D3913D203120D39D5D303120D85
:102323003929D403120D39E1D403120D3990D503A1
:10233300120D39E6D503120D399CD603120D39312E
:10234300D703120D399DD703120D39D7D703120DB9
:102353003908D803120D3964D903120D39879B014B
:10236300120D39B99B01120D39F09B01120D39D9A8
:102373009D01120D39BC9E01120D39149F01120DDE
:10238300394FA001120D399BA001120D39C3A301CE
:10239300120D3925A701120D3972A801120D390842
:1023A300A901120D3914A901120D3946A901120D03
:1023B30039C8AA01120D39D6AB01120D3900AC018F
:1023C300120D3957AC01120D39B0AC01120D391C85
:1023D300AD01120D3933AF01120D39C2B001120D27
:1023E300398CB101120D39CAB201120D39FAB40197
:1023F300120D39CAB701120D39D7B701120D395E63
:10240300B801120D3906B901120D3949B901120D7E
:102413003992B901120D39E6B901120D394BBA01DE
:10242300120D39B3BA01120D39D0BA01120D3900A8
:10243300BB01120D3935BB01120D3905BC01120D5B
:1024430039AEBC01120D3932BF01120D3952C00130
:10245300120D393BC101120D39BDC101120D39DF16
:10246300C501120D391CC601120D3974C601120DB6
:1024730039A7C601120D3928C701120D3975C701D5
:10248300120D3900C801120D3952C801120D392934
:10249300C901120D39E2C901120D397DCA01120DAC
:1024A3003996CD01120D39B6CE01120D3967D2011D
:1024B300120D3985D301120D3988D301120D39B7A5
:1024C300D301120D39BDD501120D3996D601120D66
:1024D30039CBD601120D39D3D701120D3989D80161
:1024E300120D392ADA01120D394FDA01120D398E24
:1024F300DA01120D3900DB01120D39E4DB01120D93
:1025030039B1DC01120D39E7DE01120D3958DF0153
:10251300120D3998DF01120D39D1DF01120D396522
:10252300E001120D39AEE101120D3971E501120D11
:102533003960E601120D3947E701120D39BFE70192
:10254300120D3981E801120D397FEA01120D399715
:10255300EA01120D39ABEA01120D39E3EA01120D5A
:102563003911EB01120D3998EC01120D39A3ED016C
:10257300120D39F5ED01120D395DEE01120D390F12
:10258300EF01120D393FEF01120D3923F001120D46
:1025930039D4F001120D39C3F201120D39F8F201E9
:1025A300120D3960F301120D398FF401120D394107
:1025B300F501120D3972F501120D398AF501120D6B
:1025C3003919F601120D39CDF801120D39A5FA01A9
:1025D300120D39C1FA01120D39DDFA01120D39ABB1
:1025E300FB01120D398FFF01120D39008002120D0C
:1025F30039388002120D39168502120D395C8502B5
:10260300120D39A98602120D39148702120D399D54
:102613008802120D39AD8B02120D39C88C02120DCE
:1026230039DA9602120D396D9702120D39BF9A02EB
:10263300120D39BB9B02120D39169C02120D396023
:102643009D02120D394E9E02120D39EAA002120D9F
:10265300395EA202120D39E1A202120D39E4A2027F
:10266300120D3959A302120D3963A302120D3970E9
:10267300A302120D399BA302120D394BA402120DB2
:102683003944A502120D39EFA502120D390DA60228
:10269300120D3926A602120D394FA602120D3971F9
:1026A300A602120D39C6A802120D398BA902120D0A
:1026B30039D0A902120D394FAA02120D39FBAA0211
:1026C300120D392DAB02120D3981AB02120D39BC3B
:1026D300AB02120D3903AC02120D3953AC02120DC9
:1026E3003958AC02120D39ACAC02120D39D8AC0218
:1026F300120D39C1AD02120D3912AE02120D39722B
:10270300AE02120D39CCAE02120D3967AF02120DB3
:1027130039A6B202120D39B8B302120D3932B5021D
:10272300120D3942B802120D39E0B802120D39D632
:10273300BB02120D3995BC02120D39D9BC02120D20
:102743003984BE02120D3998BE02120D39A2BE029F
:10275300120D39ACBE02120D39B8BE02120D39DDAD
:10276300BE02120D39B6C002120D390BC102120D91
:102773003915C102120D391FC102120D3994C1025C
:10278300120D39E3C102120D39F4C202120D39419F
:10279300C302120D394EC402120D3992C402120D36
:1027A3003938C502120D392BC602120D39F1C60292
:1027B300120D3914C802120D3932C902120D391A19
:1027C300CA02120D3932CA02120D3989CA02120D18
:1027D3003993CA02120D399DCA02120D39A8CA02D1
:1027E300120D39C6CA02120D390ECB02120D397001
:1027F300CB02120D3997CB02120D39A9CB02120D60
:102803003944CC02120D3979CC02120D3960CD0254
:10281300120D39A5CD02120D398BCE02120D39B22C
:10282300CE02120D3935CF02120D39A6CF02120D89
:10283300392FD102120D395BD202120D391ED30288
:10284300120D39E6D302120D3970D402120D3998E4
:10285300D502120D393AD602120D39B5D602120D30
:102863003971D702120D39BBD702120D3915D802AF
:10287300120D39EDD802120D3910D902120D39C3D8
:10288300D902120D39E5D902120D394EDA02120DB1
:102893003964DC02120D395CDD02120D3920DE02CF
:1028A300120D3952E002120D399CE002120D39EC7F
:1028B300E002120D3950E102120D39B2E102120D9C
:1028C30039E0E102120D3904E202120D3939E20254
:1028D300120D396AE202120D399DE202120D39ED31
:1028E300E202120D3940E302120D3965E402120DC2
:1028F3003905E602120D3960E602120D3989E60246
:10290300120D3916E702120D3984E702120D3992BE
:10291300E702120D39B6E702120D390BE802120D68
:102923003926E802120D39D8E802120D3910E902EE
:10293300120D3953E902120D39B6E902120D39B8F5
:10294300EB02120D39E2EB02120D39D9EC02120D32
:1029530039E3ED02120D3993EE02120D3971EF02D4
:10296300120D39A9EF02120D39CAEF02120D390CFB
:10297300F002120D396EF002120D3978F002120DC9
:102983003988F002120D39C3F002120D39A3F40293
:10299300120D3990F602120D3976F802120D390D27
:1029A300F902120D39AFF902120D390F3600120D6B
:1029B30039BA3600120D39683700120D396E3800F6
:1029C300120D398E3800120D39B73900120D3972D4
:1029D3003B00120D39E53B00120D39893C00120D05
:1029E30039953D00120D39003E00120D393C3E0071
:1029F300120D397F3E00120D39BA3E00120D39FC1B
:102A03003E00120D39913F00120D390D4000120D99
:102A130039D74000120D39B44100120D394C420030
:102A2300120D39664200120D39964200120D39C754
:102A33004200120D398D4300120D399D4300120DD2
:102A430039EC4300120D39F94300120D39024400E9
:102A5300120D39804400120D39DC4400120D392760
:102A63004500120D39424500120D396D4500120D16
:102A7300398A4500120D39964500120D392D47004C
:102A8300120D39464700120D39CB4700120D39DEBE
:102A93004700120D39FD4700120D39A14800120DF0
:102AA30039224A00120D39D54B00120D396B4C00F7
:102AB300120D396E4C00120D39DE4C00120D39FC2B
:102AC3004C00120D39934D00120D39DB4D00120DE0
:102AD30039DE4D00120D39A44E00120D39114F008D
:102AE300120D39374F00120D39C24F00120D39E064
:102AF3004F00120D39265000120D39DA5000120D15
:102B030039245100120D39535100120D39B05100BF
:102B1300120D39E55100120D39115200120D391FF2
:102B23005200120D396C5200120D39DC5200120D95
:102B330039255300120D39715300120D399D53007D
:102B4300120D39A85300120D39C65300120D39B1B5
:102B53005400120D39BB5400120D39F65400120DF6
:102B630039065500120D395A5500120D396E5500AC
:102B7300120D399D5600120D39B25600120D39400F
:102B83005700120D39855700120D39115800120DD7
:102B9300391C5800120D395E5900120D397959004C
:102BA300120D39C55900120D39345A00120D396D01
:102BB3005A00120D39875A00120D39E75A00120DC7
:102BC30039865B00120D39D15B00120D39A15E000D
:102BD300120D39535F00120D39C05F00120D390019
:102BE3006200120D39186200120D391B6200120DBA
:102BF30039276200120D393B6200120D394362001E
:102C0300120D39766200120D39796300120D3906FF
:102C13006400120D39766400120D39F86400120D48
:102C230039B96500120D39D86500120D397966007E
:102C3300120D39D66600120D39D96600120D394DC1
:102C43006700120D399C6800120D39A26900120D3C
:102C5300392D6A00120D39486B00120D39106C00C2
:102C6300120D39416C00120D39646C00120D396D6F
:102C73006C00120D399C6C00120D392C6D00120D75
:102C830039E26D00120D39576E00120D39FE6E00D8
:102C9300120D39736F00120D39AA6F00120D39E846
:102CA3006F00120D3983D205120D3917D205120D9B
:102CB30039B4D105120D398AD105120D3976D105F2
:102CC300120D396CD105120D39FFD005120D3930B3
:102CD300CF05120D39EECE05120D3904CE05120DB6
:102CE300393AFA05120D39E3F905120D39D8CD0534
:102CF300120D398FCD05120D3985F805120D39D70F
:102D0300F705120D39CCCC05120D399BC905120DEF
:102D1300393DC705120D390DC705120D39BDC6055D
:102D2300120D3957C605120D3916C605120D39F69F
:102D3300C505120D3928C505120D39C2C405120D7A
:102D43003961C405120D3901C405120D399FC2053D
:102D5300120D3933C205120D3987C105120D39829F
:102D6300C105120D396BC105120D3936C105120D9E
:102D7300393AF705120D39D0BD05120D3930F70573
:102D8300120D39C5F605120D39AAF605120D39FAD9
:102D9300F505120D3900F505120D3926F405120D4E
:102DA30039CDBD05120D39B4BD05120D39A9BD05C7
:102DB300120D3978BD05120D397CF105120D399FBD
:102DC300BB05120D3926BB05120D39BDBA05120D0F
:102DD3003930BA05120D398EF005120D39ECB905EB
:102DE300120D39CCF103120D39C5B905120D39CBCA
:102DF300EF05120D3976EF05120D3949EF05120D66
:102E03003916EF05120D39EEEE05120D398FEE0569
:102E1300120D396FEE05120D393AEE05120D39FE1A
:102E2300EA05120D39D3E805120D39C3E605120D73
:102E33003940E605120D39F4E505120D3920F00588
:102E4300120D39A8E505120D3902E505120D391CDD
:102E5300E40300000080FB870001008D1E350004A1
:102E630000531E25000200571E26000200591E278C
:102E73000002005B1E28000100651E290001006698
:102E83001E840004003F1B86000100BD1D2A0001B3
:102E930000671E2B000100681E2C0001006D1E2D13
:102EA3000008004D1B2E0001006E1E2F0001006F55
:102EB3001E30000100701E31000100711E3200013E
:102EC30000551B33000100561B34000100721E36EF
:102ED300000100571B38000100731E390001006C0C
:102EE3001E830002008B1E63000100621B6400014D
:102EF30000691E650001006A1E6D000100631B71FD
:102F0300000800451B660001008A1E430001007B88
:102F13001E440002007C1E450001007E1E46000286
:102F2300007F1E470008005A1B48000100811E4B0A
:102F3300000100821E040001008E1EA10001009109
:102F43001E37000100901E880001008F1E3C000107
:102F530000581B3D000100741E49000200831E67D8
:102F6300000100641B4D000200851E4E0001008716
:102F73001E4F000200881E3E0001007A1E51000110
:102F830000761E52000100771E53000100791E5483
:102F9300000100591B00000000000000013636014B
:102FA30001000102010001030100010401060605FD
:102FB300020000070100340801000F090401010D9C
:102FC3000100FF0E08000017020000190100FF1A9C
:102FD3000100011B0100FE1C0100081D0200001F6F
:102FE30001000120010001210200002301000F2440
:102FF3000200002601000127010008280200FF2A21
:103003000100072B0102402C0100002D0100012EBD
:103013000100012F0100FF30010B1D310800003AB0
:103023000100083B01000F3C0100013D0100FF3E90
:1030330004000042040000460400004A0400004E5D
:1030430004000052040000560400005A040000006B
:103053000003002001869B000000002001859B00E7
:103063000001002001859B000002002001859B00D8
:103073000000404201799A000004004201B3990024
:103083000005004201E799000006004201799A0019
:103093000007003001849B0000100042031D1E0046
:1030A3000011003003FB19000012001003301E034F
:1030B3000000002103FC190000FDFF21017F9B0399
:1030C30000FDFF21017F9B060000001001E91906A6
:1030D30000FDFF21817F9B020400002905EA1902FC
:1030E30004010029017B9B0204020029017D9B024C
:1030F30004FDFF21017F9B01037103010301030110
:10310300030103010322030203010310030003006D
:10311300030003000300030003000342030003242E
:1031230003060300030003040312032503230325FB
:103133000323030403040300030003000344030005
:103143000300032303000365032100350381030008
:103153000305030003000300030003250323030304
:1031630002710230016002110270020102020202C6
:10317300028002100261023A00410063027302728C
:10318300026202430200021302380000020002043A
:1031930002120200020002000200020402040237CB
:1031A3000037003C024402000239000002000265BD
:1031B300020002350281020002050282028302003C
:1031C300020101710101010101110101013101013B
:1031D3000101018001100161013B001400630173CF
:1031E300017201620143010001130106013D013532
:1031F30000040112010001000100010001040104A7
:1032030001330133013C0144013201360000010066
:10321300016501000135008101000105018201837F
:103223000100010304710402046004110470040228
:10323300040204010402041004610400041404637E
:1032430004730472046204430400041304060400B8
:1032530004000404041204000400040004000451E4
:103263000464000004000400044404000400040097
:1032730004000465040004350481046400050400AB
:103283000483040004030071003001600011007026
:10329300003102200350048000100061000000147C
:1032A3000063007300720062004300000013000615
:1032B30000000000000400120000000000000000F5
:1032C3000004000400370037003C02440000000003
:1032D30000000000006500000035008100000005CB
:1032E3000000008300000036000100060000000F0C
:1032F3000000000000000000000000000003FFFFCA
:1033030000000403FFFF0000FFFF0FF4010005C4EA
:10331300040320000100000B000000000000000077
:1033230003010F0000000000000000000000000087
:10333300000000000000000000000000000000008A
:1033430000000000006D1997197319AD1879199DC4
:10335300197919A9197F19AD1879199D198519AD0D
:1033630018000000008B19AD1800000000000000D9
:10337300009119AD180000000000000000000000DB
:10338300000000000000000000000000000000003A
:10339300000000000000000000000000000000002A
:1033A300001300211D1F00271D1F802D1D0000A5D8
:1033B3001D0100A51D0200A31C02809D1C0300A982
:1033C3001C0400AF1C0480B51C0500BB1C0600C711
:1033D3001C3000E51C3100DF1C3200F11C3300F708
:1033E3001C3500FD1C3400031D3600091D1100159A
:1033F3001D14001B1D1500D91CFFFF00000A00004F
:10340300000200000004000000080000001000009B
:1034130000200000004000000080000000000100C8
:10342300000002000000040000000800000010007B
:103433000000200000004000000127260657260850
:1034430051260B7526100F23022D2605452607331B
:10345300260C0F260D1B2664F320FF000003000338
:10346300000400080010001F003E007B00F600EC83
:1034730001D703AF075D0FB91E713D000007ECFDD7
:10348300FDFDECDCDCCCBCACAC9C9C8C7C7C6C6C27
:103493005C5C5C4C4C3C3C2C2C1C1C03EAF5E5D5D9
:1034A300D5C5B5A595958585757565655555454509
:1034B3003535252515150500160F00000B150B02D4
:1034C3000002220F3300000E0F5A696742656541FF
:1034D3006C6C69616E6365303900000000000000A8
:1034E300000000000000000000D0D1D2D3D4D5D614
:1034F300D7D8D9DADBDCDDDEDF00034D4C465118CB
:103503001A250502303016181920231A1C1E300004
:103513003C40423A3F3F392F4730000119161816F5
:103523001618230300303017181921301B1D1F30C4
:103533000C0E020B040B0A0708000F020402010120
:103543000101090200BE040AE8030000E8030000C9
:10355300010003007F0000000E00040408040503BB
:103563000A0C101508091E0C28FF03100209033C5E
:103573000C050815001EE4F0A3F0A3F0A3221235F6
:1035830079F022901CAF124B85122A172212359420
:1035930022E0F508E4F509F50AF50B22E824FBF52A
:1035A30082E934FFF58322E82411F582E439F583B7
:1035B300E022F5831235BB22E0F508A3E0F50922EA
:1035C300122C937404120D697F08020AFF7401F030
:1035D3009006D2E0640F227409120D697F04020A77
:1035E300FFEA2413FAE43FFB122BC1E92279051207
:1035F3002BCD740622A3A3E024F5C3941322122C2B
:103603009F9006F2126B437A147B0022C082C08320
:10361300901C8E740BF0A3742AF0A3741DF0A37492
:103623002AF0901C9274F3F0A37429F0A374EDF0C4
:10363300A37429F0A37429F0A3742AF0A3742FF0C0
:10364300A3742AF0A37423F0A3742AF0A374DBF009
:10365300A37429F0901C9E74FFF0A37429F0A37443
:1036630005F0A3742AF0A374F9F0A37429F0A374EA
:1036730035F0A3742AF0901CAF1255546009901CC6
:10368300AF124B8112179F901CAC124E9B74081201
:1036930061F0A3F0901D58F0901CB1F07C0BFDF984
:1036A3007AB27B1C1216CD7C0B7D0079007ABD7B30
:1036B3001C1216CD024CF574F712084474F7120E5F
:1036C3001CEAFEEBFF12374D7405124FB97403F079
:1036D300123864124F9B2430FCE43FFD8C82123776
:1036E300451237596008123F7274FFF0A3F0EE24BD
:1036F3002EE43F1C1CFD8C82F583A3E0C0E08A828C
:103703008B83124C4DD0E01237598882898312542F
:10371300882403F0EE123F7C12108A7403F09006A3
:10372300E7120BBE7402120DFC123B46120D69E93F
:10373300F5087007EEFAEFFB122AA7A9087409022D
:103743003F8BF583E08882898322EA123752221263
:1037530056973FF58322126470124FA7E8F0A3E94E
:10376300126747E02274F0120844EAFEEBFF8C0C68
:103773008D0D890B123864F583124FAF741012103C
:103783008AE0F508A3123747F0E824FFF582E9122F
:103793003B58E508F0E824FEF582E9123B58E50BB7
:1037A300F09006ECE0C0E0E824FDF582E9123B5816
:1037B300D0E0F09006EBE0C0E0E824FCF582E912EB
:1037C3003B58D0E0F0741212108A1235B712359FAD
:1037D300E509F0E824FAF8E934FFF98882F583E58E
:1037E30008F0EE2404FCE43FFD88088A828B83E022
:1037F300F50E8C828D83E0250EC39508126470123A
:103803004DD5850C82850D83A3A3A3A3A3A3A3A353
:10381300E064037009EE124F89F0A3E48003123BC6
:103823005D123B657409F07508B275091C750A00D1
:103833007808120D88125F3A120D697508FF750931
:10384300FF7808120D8CAC0CAD0D123B46120D69BE
:10385300E9F5087007EEFAEFFB122AA7A90802356B
:10386300CBEA2402FAE43FFB8A8222C082C083901F
:103873001CCEE0C39408400474078001E08A828B65
:1038830083F033333354F8F9024CF574F0120844DF
:103893008A088B09890A8C0E8D0F750C00A2AFE480
:1038A30033F50BC2AF901CC88045123990503D12BE
:1038B30039AA64037036E50824F9F508E50934FFED
:1038C300F5098E828F83A3A3E02405FCA3E03400D3
:1038D300FDAA08AB09121889E50824FFF508E509D4
:1038E30034FFF5097410250CF50C150A123D7F12EF
:1038F3006EF8E50A6004EE4F70B0E50BA2E092AFFC
:10390300A2AFE433F50BC2AF901CC8803E125461E2
:103913008882F5831246D5850882850983F08A82D9
:1039230089831239A1A3A3E0C0E0E50824FFF5824F
:10393300E509123B58D0E0F0E50824FEF508E50957
:1039430034FFF509050C150A123D7F123BD36021A4
:103953001239AA640270F1123990EE40B01250D0BD
:10396300A2E550E4850E82850F837401F0E50A70A9
:10397300D7E50BA2E092AF850882850983E50CF0B9
:10398300E50824FFFAE50934FFFB0235CB1239962B
:10399300A2E622EE2411F582E43FF583E0221239F8
:1039A300A5221254A6A3228E828F83A3A3124C5165
:1039B300125B7D2274F012084474F3120E1C74031C
:1039C30012108AE9F0740212108AEAF08B0B851840
:1039D30082851983E4F004120DF41229BDE9F890ED
:1039E30006D1E0292437F508FA7B001216E58A0C84
:1039F3008B0DAE0CAF0DEA4F7003023B3DEA240280
:103A0300F50EE43FF50FA808EA28F8E43BF9850E24
:103A130082850F831244D19006D1E0F9FAC3E49A68
:103A2300FA95E0FB850E82850F83E02AF50CA3E06F
:103A33003BF50D9006CF1235B7750A007808120DC5
:103A430088E9FC7D00AA0CAB0D124F0B120D69AC7B
:103A530018AD19740112108AE0F9E50C24FFFAE598
:103A63000D34FFFB1229C38A828B83E4F0E50BC478
:103A730054F0F9901D59E0C4333354C0F89006CB89
:103A8300E0A2E0E43313134849440FC0E0EA24FF03
:103A9300F582EB123B58D0E0F0EA24FEF50CEB3450
:103AA300FFF50D740312108AE0F8740212108AE015
:103AB300C454F048850C82850D83F0A80C850E82D2
:103AC300850F831261BD2AC3988E828F83A3A3A31C
:103AD300A3F0850E82850F83E8F0A3E50DF0123B7A
:103AE3005D123B65E4F0740C12108AE4F07508BDB6
:103AF30075091C7808120D88125F3A120D69851832
:103B030082851983E06009EE240E1250D24408F036
:103B1300122BAFE9F9E4F508F5097808120D8C7456
:103B230006120DFC123B48120D69E97006EEFAEF1E
:103B3300FB800BEEFAEFFB1216EB7A007B00740DA1
:103B43000235C87903EEFAEFFB122BC7740222EE9B
:103B530024FFF582EF34FFF58322EE123752E4F0AF
:103B6300A322F0123B6A22EE125E5D3FF5832274BC
:103B7300F21208448A0C8B0DA2AFE433F50AC2AFEC
:103B8300750800750900901CC8802C123D8F5024C5
:103B9300850C82850D83A3A3125F4D8E828F83A331
:103BA300A3124B81122BB5E9600A123D8AC2E6F0DB
:103BB3008E088F09123D7F123BD370CFE50845096C
:103BC3006006123C6CD2E6F0E50AA2E092AF800DEB
:103BD300E0FEA3E0FFEE4F227402120D697F06029E
:103BE3000AFF74F01208448A0E8B0F8C0C8D0D752E
:103BF3000A00A2AFE433F50BC2AF7E007F00901C36
:103C0300C88010AE08AF09123C641250D0D2E7F05E
:103C1300124B5F124B736034123C6CA2E750F18578
:103C23000882850983A3A3120BBEAC0CAD0DAA0EAB
:103C3300AB0F122BBB7402120D69E960D3EE4F6018
:103C4300C21240067006123C7ED2E4F0E50BA2E0FD
:103C530092AFEE4F6006122AA1750A01A90A023536
:103C6300CB123996D2E4F0EE22E508125E773509DD
:103C7300F583E022AA82AB831218898E828F83A3F5
:103C8300A3124C51E02274F212084474FE120E1C6B
:103C9300750C00750D00851882851983E4F0A3F077
:103CA300A2AF33F50AC2AF901CC8126EF8802BEE98
:103CB30024FBF582EF34FF1235B5780C120D8C120C
:103CC3003D6D120D69EEFCEFFDAA18AB1912170931
:103CD300AE08AF09901CCEE014F0EE4F602B123DFE
:103CE3008F501DEE240BF8E43FF98882F583E0241E
:103CF300FFF0A3E034FFF08882898312555460AF4C
:103D03008E0C8F0D123D7F80A1E50AA2E092AF9049
:103D13001CCEE0602C9006D2E0640F6006901D5824
:103D2300E0701E7AA67B1C122C9F909B6F120BBA1D
:103D33007AA67B1C124D7D120D69800574F0124C1E
:103D43005EAA18AB1912170F8A088B09AE08AF09C0
:103D5300EA4F60131229CF123D8AA2E28E828F832B
:103D6300A350D974E980D7023BDBEEFCEFFD7AC8A0
:103D73007B1C12171B7402228E0A8F0BEE24FBF599
:103D830082EF34FFF58322EE12399722123996A27D
:103D9300E72274F7120844EAFEEBFF1229CF124C14
:103DA3004A120A19E964019006EE700AE02401F848
:103DB300A3E034008003124BD0F91252D2124DD536
:103DC300901CCEE0701F9006D2E0640F70177AA6A5
:103DD3007B1C122C9F909B6F120BBA7AA67B1C1232
:103DE3004D7D120D69A8A8C2AF901CCEE004F0E887
:103DF300A2E78004E508A2E092AF0251E074F71253
:103E03000844EAFEEBFFEA123E36F01229CFEEFC3D
:103E1300EFFD7AC87B1C121715A8A8C2AF901CCE61
:103E23001247249006D2E0640F70057908122B67BD
:103E33000251E0123997C2E42274F712084474EA7B
:103E4300120E1CEAFEEBFF9006CBE0602A85188277
:103E53008519837401F012108AE4123EF112108A5C
:103E6300123C77C0E0740A12108AD0E01261DD744C
:103E73000B12108A12543D7416023F8B74F712080A
:103E830044EAFEEBFF1229B1E9F974DC69601E74A0
:103E9300DD69601974E469601474F369600F74DE9A
:103EA30069600A74DF69600574DB697007EEFAEF15
:103EB300FB122B6D0251E074F712084474EB120EDF
:103EC3001CEAFEEBFF8518828519837406123EF106
:103ED30012108AAA82AB83121889EE2408FCE43FED
:103EE300FD740A12108A12543D7415023F8BF0EAD6
:103EF3002413FCE43FFD74022274F712084474F7A0
:103F0300120E1CEAFEEBFFEA24301250D2605DEA87
:103F1300123F7C12108A7403F09006E7120BBE1254
:103F23003F72120BBE9006FAE0F97404120DFCEE18
:103F3300FAEFFB1229B77404120D69E9F974DC690D
:103F4300602374DD69601E74E469601974F3696049
:103F53001474DE69600F74DF69600A74E8696005D0
:103F630074DB697007EEFAEFFB122B6D023740EE3C
:103F7300242EF582E43FF5832212634EAA18AB196F
:103F83001218897408227403120D690251E074F245
:103F93001208448A0C8B0D750A00750B007508E72F
:103FA300A2AFE433F509C2AF901CC88003123D7B76
:103FB300123BD36025123D8F50F312400670EEEE94
:103FC300243212419DE06870E4780A120D8C123D90
:103FD3006D120D69901CCEE014F0E509A2E092AFDA
:103FE300EE4F6013EEFAEFFB1229CF79F0EEFAEF02
:103FF300FB122B6D750800A908AA0CAB0D122B6DD3
:10400300023BE0123B6AE064012274F41208447438
:10401300F7120E1CEAFEEBFF8A82F583A3E064F33A
:1040230070030240AB8A828B83A3E064DF60798AEA
:10403300828B83A3E064E8606F8A828B83A3E0644E
:10404300DB6065122A11E9F5087055EE240E125053
:10405300D2604D1240B56048740812108A1240C4F1
:10406300120BBE7508FF7509FF7808120D8C8E823E
:104073008F83A3A3A3A3A3A3A3A3E0F97404120DA3
:10408300FC1229B77404120D69E9F50874F3696029
:104093000F74DF69600A74E869600574DB69700F87
:1040A3008E828F83A3E508F0EEFAEFFB122A1D023E
:1040B30035DAEE240FFAE43FFB7909122A53EA4B6F
:1040C30022740212594374FFF0A31240D1221254F6
:1040D30091A3A32274F1120844EAFEEBFF750800D2
:1040E3008A82F583A3A3A3A3A3A31235F840037580
:1040F30008E88A828B83A3A3A3A3A3A3A3A3A3A355
:10410300E0C3941040057508E880138A828B83A36B
:10411300A3A3A3A3A3A3A3A3A3E0640F600B901D76
:1041230035E0540870037508E8EA240B12419DA397
:10413300A3A3A3A3A3A3A3E0C398500DEA240B1244
:1041430050D2640F60037508E89006EBE0F4700347
:10415300A3E0F470037508EC7A237B001217998BA4
:104163000BA90B901CAF1241AC60278E828F83A3E7
:10417300A3A982AA83890C8A0D750E00780C120DEF
:10418300887C237D00901CAFE0FA124F0B120D695F
:10419300800375081AA908025F35F582E43FF583A9
:1041A300E0F88A828B83A3A322EAF0A3EBF0EA4927
:1041B3002274F5120844EAFEEBFF8A82F583A3A377
:1041C300A3A3A3A3A3A3E09006D2124244E09006C4
:1041D300EDF0EA240B1250D29006CD124244A3E034
:1041E300901D59F0F9121451901D59E0600BEE2403
:1041F300041250C4240612423A901D581235D0605E
:1042030004740180027400901CB1126888120D8836
:104213007C0B7D007AB27B1C124F0B120D69EE24CE
:1042230018F508E43FF5097808120D887C0B7D002A
:104233007ABD7B1C024EF8FAE43FFB79E112143994
:1042430022126872A3A3A3A32274F7120844EAFEFE
:10425300EBFF8A82F583A3E070031235861263F9BC
:104263000251E074F7120844EAFEEBFF901CAF1210
:1042730055546010901CAF124B81901CAFE4F0A317
:10428300F012179F8E828F837408124C65121FCD14
:104293000251E074F6120844901D58E06010901C1F
:1042A300B1E0700A1242B4EA4B6003122AA7026417
:1042B300F39006CDE0FB9006EDE0FA9006D2E0F92C
:1042C3001229C92274F412084474E7120E1CEAFE80
:1042D300EBFF750B018A82F583A3A3A3A3A3A3A377
:1042E300E0A2E25069EA242BF582E43F125F4BEA35
:1042F3002413FAE43FFB1229D5E97052909AB7E0F0
:1043030064017005750B008045124386120D887C8D
:104313000B7D007411120DF4124F0B120D69122B49
:10432300AFE9FA740E120DEC880889097808120DAA
:104333008C7508307509007808120D8CEE1261A691
:10434300120BBE12634079011235F2120D69851802
:10435300828519837410F0126340740212108AAAC2
:1043630082AB8312187DEE242B126B39740B12105F
:104373008A124DD5740D12108AE50B1265B27419A9
:104383000235DCEE240812689022C082C083901D9F
:1043930059E06003122C21024CF5C082C083901DAA
:1043A30050748EF0A3741CF0A37492F0A3741CF0E9
:1043B300A3749EF0A3741CF0901EC47426F0A3741F
:1043C30032F0901D3A74ABF0A37429F0901CD374AF
:1043D300E1F0A37429F0901CD574E7F0A37429F0DD
:1043E300901D35E044020247F9C082C083EAFCEB2A
:1043F300FD7903025500C082C0837908026673C049
:1044030082C08374FE120E1C901CDB748FF0A374A5
:104413002AF0901CDD7489F0A3742AF080077AC80F
:104423007B1C12445E901CC812555470F1901CCA38
:1044330012555460097ACA7B1C12445E80EF901CAB
:10444300C8E4F0A3F0901CCEF0A3F0A3F0901CE915
:1044530074CBF0A3742AF07402801C12170F851812
:1044630082851983EAF0A3EB124472122B9D22F08A
:10447300AA18AB19227411120D69024CF574F612C5
:104483000844E9FF741229F582E43435F583E49393
:10449300FEFA7B001216E5EA4B6007EA2E1244CEC1
:1044A30080267A027B001216E5EA4B601774282FE8
:1044B300F582E43435F583E4938A828B83F0A37425
:1044C3001A1248977A007B000264F3124DC4E81273
:1044D300646DA3A3A3A3E4F022E9FC740629F8EA1C
:1044E300A2E0501EE875F00A84E5F0F96014740A3E
:1044F30028C399F8E9C394054004740A28F8740B97
:1045030028F8ECC394134004791480027906E8294F
:1045130079002409F85001097A0A7B00120665E83C
:10452300F9020D36C082C083901D35E05402600A43
:10453300121FD3E96004790180027900024CF5C0AF
:1045430082C083901D35E054026014901CCEE0704D
:104553000A125551600912456750047901800279A6
:1045630000024CF51235AAA2E722C082C083909ABA
:10457300B4E0F8901CD0E0C39850051216E580040F
:104583007A007B00024CF5C082C083122B9D790018
:10459300024CF5C082C08374FE120E1C85188285FE
:1045A3001983EAF0A3EB124700A3A3A3A3A3E0603C
:1045B3000A14605724FE605A0246709006D2E064E3
:1045C3000F6012122B73E9700C124B7B901CD712E5
:1045D3004C4D120A199006FAE0C0E085188285193D
:1045E30083125474D0E01247007414125E91FCA33A
:1045F300E0FD7ACA7B1C121709A8A8C2AF901CD091
:104603001247247920122B6702445A1249CE74159B
:1046130080D91249CEA3A3A3A3E060511249CE12BD
:104623003C82C0E0851882851983E02406F582E484
:104633003BF583D0E0125E912402F8A3E03400F945
:104643008882F583E02401FAA3E03400FB888289A1
:1046530083EAF0A3EB125E91124A0E851882851944
:104663008360131246D560051246E74048AA18AB8B
:1046730019122B9D80921246D560F21246E7502103
:104683001246F4FA851882851983A3E0C82406121A
:1046930049CAF8743D1256893435F583E4936A6048
:1046A300148518828519831246D5640870BF124693
:1046B300F4640870B81246F414124708240AC0E0E0
:1046C300851882851983124C4DD0E01247080402E5
:1046D30045EE1246D922124BD0C82406F582E4389F
:1046E300F583E0228518828519831246D9C3940A7B
:1046F300228518828519831239A5A3E02212471255
:10470300F583888222124712C824061249F822F040
:10471300851882851983124BD022A8A8C2AF901C9A
:10472300CFE004F0E8A2E792AF22C082C083901CDE
:10473300DF12555460081249D5120A198002790014
:10474300024CF574F7120844EAFEEBFFEA123B6BE6
:104753007401124D83F8A3E0F912374D124DD5EAD7
:1047630024351250D2C0E0EA2413F582E43FF583E6
:10477300D0E0F0EA24361250D2C0E0EA2414F582E5
:10478300E43FF583D0E0F0EA24381250D2C0E0EAE7
:104793002418F582E43FF583D0E0F0EA242FF58274
:1047A300E43FF583120BBE12634DEA24311250D25B
:1047B300F9123B4C120D69E9F5087007EEFAEFFBAD
:1047C300122AA7A9080251E0C082C083122B73E901
:1047D3006004792080027901024CF5C082C083EA2B
:1047E30024111247EFD2E0800DEA240DF582E43B59
:1047F300F583E022F0A3F0024CF5C082C083124798
:10480300EC64017011124891400C8A828B83A3E0FF
:10481300F9122B6D8066124882A2E650128A828BAF
:1048230083A3E0F9901CD9124C4D120A19804D1242
:1048330047EC6401700D12489150088A828B83748F
:104843003080368A828B83A3E0641B8A828B8370D9
:104853000474228024A3E0700D1247ECF87407124D
:1048630056893435800B1247ECF874281256893474
:1048730035F583E4938A828B83124897024CF512B1
:10488300488622EA2410F582E43BF583E0221248AD
:1048930086A2E322F0901D30E0F91216F12274F79C
:1048A300120844E9FE12555170030249C7EE601421
:1048B300741B6E701AE8125E5D39F583E06405704F
:1048C3000302499F901CD21249D5A3E40249A6745E
:1048D300E96E7068E82412F582E439F583E0700B21
:1048E300121FD9E96005124A18606179EE1213BBF1
:1048F300901CD11249EF901CD1603A124A1B901CB4
:10490300D1700B1249EF14F01215710249C7124A04
:104913000DC2E7124BB6240D1249CA640370091283
:1049230049E8124B6CD2E2F079ED1213BB124A0044
:10493300120A1980781249DB74E9806774E16E709A
:104943003E121FD9E96055124A1870509006F4E0E0
:10495300C0E01249E82412F582E438F583D0E0F090
:104963009006E3E0C0E0901CD11249E41249E4D080
:10497300E0F09006E3E004F07901121559804574E4
:104983001C6E7018901CD1124B81901CE1124C4D7F
:10499300120A19901CD1E4F0A3F08028901CD112C4
:1049A30049DBEEF0901CD1124B81122A95124B97E2
:1049B300E054806003126662901CD1E4F0A3F079A6
:1049C30010122B670251E01249F8228518828519CB
:1049D30083A3E0F5838882221249DF22124C55A378
:1049E300221254A222901CD11254832212548324E3
:1049F300121249F822F582E438F583E022901CD1A3
:104A0300124B85901CD5124C5122E0F8A3E0C82428
:104A1300101249F822901CD1124B9EE054042274C8
:104A2300F4120844750A00750B00A2AFE433FEC20A
:104A3300AF1255516003024B15124C4A120A19E981
:104A43004410F8901CC8800985080A85090B124B8D
:104A53005F124B737003024B15123C6C586870E87D
:104A6300780A120D8CAC08AD09123D71120D6990D4
:104A73001CD1E508F0A3E509124BB6124B6CA2E773
:104A83005003024B1C901CCFE014F0EEA2E092AF57
:104A9300901CD1E0240EF8A3E03400F9E8FEE9FF0E
:104AA3008882F583124B81901CD11246FAF9122A9F
:104AB30059E9901CCC1261F08E828F83E0548060A0
:104AC300181249E824131249CAF91214751249E855
:104AD30024141249CAF9121469124B97A3E0540122
:104AE300605F901CCC1255546045124BAD60401270
:104AF3004BADF87900901CCC124B8112066DE8C0C7
:104B0300E0124B8BD0E0124BBBC3941340117402E1
:104B1300800FEEA2E092AF8037901CCE024A8B74D6
:104B230000C0E0901CD2E0C8124B56D0E0800D12BA
:104B33004B8B7401124BB6124B567401F079038000
:104B43000C901CD1124A0DA2E1B3E433F9121559AA
:104B53000235DF241AF582E438F58322E50824FBC5
:104B6300F582E50934FFF58322125E771249FB22B1
:104B73001235BBE508450922851882851983124B36
:104B83008522E0FAA3E0FB221254802419F582E483
:104B930038F58322901CD1124B9E22124BD0C8129F
:104BA3004BA62212569738F58322125480241812EA
:104BB30049F822124BC8C822124BC8F5838882A336
:104BC300A3A3A3E022F0901CD1124BD022E0F8A3C0
:104BD300E02274F7120844EAFEEBFF122B971250FF
:104BE300CFA2E3400A1240067005909AB280039068
:104BF3009AB3E0F9EEFCEFFD7AC87B1C121721E9AA
:104C03006038EEFAEFFB901CDB124C4D120A19EEE2
:104C1300240E1250D25404701212471DEE12374E56
:104C2300A3E05401701E122AA18019EEFAEFFB9043
:104C33001CD3124C4D120A19800A8E828F83A374DF
:104C4300F1124C5E0251E0901CDD124C5122124CC9
:104C53005522E0F8A3E0F583888222124C65122ADC
:104C63009522F0EEFAEFFB22024CEE74F7120844A1
:104C7300EAFEEBFF7900901D35E05402700CEA2444
:104C8300331250D25404600279E8901D35E0546029
:104C9300700CEA24331250D25402600279E88A82FB
:104CA3008B83A3A3A3A3E0F8909AB8E0C398500220
:104CB30079E8EA24311250D2700CEA242E1250D231
:104CC300700479F5800BE97005122A83E9F9E9602C
:104CD30007EEFAEFFB122B6D0251E0C082C0838A0C
:104CE300828B83740DF0121FCD8007C082C08312A4
:104CF3002AA1D083D082020D3674F4120844EAFE4E
:104D0300EBFF8A82F583E4F0A3124D835404909A57
:104D1300B27012E0F8901CCFE0C398401279F11200
:104D23002B6D0235DFE0F8901CCEE0C39850EE12F5
:104D33004D89A3E054016037EA24371250D2C3945B
:104D4300054033EA24331250D2540570297AE37BA9
:104D53001C122C9FEE2437F582E43FF58312359025
:104D63007808120D847AE37B1C124D7D120D69EED7
:104D7300FA12577A80AC79E880A5122C9374042236
:104D8300F0124D89E022EA2433F582E43FF58322D1
:104D930074F6120844E9FE2451FAE43400FB1216B7
:104DA300E5EA4B6015EE8A828B83A3A3A3A3F0EA03
:104DB3002451124DC4124DD580047A007B00026445
:104DC300F3F8E43BF98A828B83A3A322126B43900B
:104DD3001DADE8F0A3E9F022024CEEC082C083903F
:104DE3001CEC74F5F0A3742AF0A37425F0A3742BC0
:104DF300F0A374FBF0A3742AF0A37401F0A3742B43
:104E0300F0A3741FF0A3742BF0A37413F0A3742BFB
:104E1300F0A3740DF0A3742BF0A3742BF0A3742BE5
:104E2300F0A37431F0A3742BF0A37437F0A3742BA5
:104E3300F0A37443F0A3742BF0A37407F0A3742BB3
:104E4300F0A374EFF0A3742AF0A374E9F0A3742A17
:104E5300F0901D087419F0A3742BF0A3743DF0A314
:104E6300742BF0A37457F0A3742CF0A37449F0A32C
:104E7300742BF0A3744FF0A3742BF0901D2CE4F06B
:104E8300901D2FF0901D18124E9B7402F0901D215F
:104E9300124E9B74010247F97467F0A3742BF0A3BD
:104EA3002274F512084474F1120E1C8518828519B8
:104EB300837402F0740112108AE9F060047AFF7BB4
:104EC300FF740212108A12593875082475091D756A
:104ED3000A007808120D887C0B7D00740712108A73
:104EE300AA82AB83124F0B120D69AA18AB19121FBA
:104EF300CD740F8003124F0B120D697F03020AFF5B
:104F03007C0B7D007A247B1D1216C174032274F777
:104F130012084474FD120E1C851882851983740AC5
:104F2300F0740112108AE9F0740212108AEA126511
:104F3300B2023F8974F612084474F7120E1CEAFE9B
:104F4300EBFFEA124F89124FB97402F0EA2428FCEE
:104F5300E43FFDAA18AB1912187DEE2431124F8FCE
:104F63002433125FB1120D8C7402120DFC79831A73
:104F73001A123B4A120D69E9F5087007EEFAEFFBC6
:104F8300122AA70264EC123752740122F582E43F1D
:104F9300F5831235BB125459F583124FA7E8F0A3DA
:104FA300E9F0EE22124FAF8A828B8322E024FFF8CE
:104FB300A3E034FFF922F0A3E4F0EA123B6B22747E
:104FC300F0120844126A211210337808790C120780
:104FD300557808120D847A1B7B1D0235C374F412B5
:104FE300084474C6120E1C9006D2E0640F600D854F
:104FF3001882851983742E12595780227A127B1DC9
:1050030012360112066D88088909E4F50AF50B7852
:1050130008120D847A127B1D124D7D120D69743AAC
:105023000235DC74F5120844EAFEEBFF8A82F5834D
:10503300A3E0F87078EA24301250D264026007E0EB
:105043006403600278E8EA2426F582E43FF58312DC
:1050530035FA400478E88058E87052EA2426124270
:105063003AEE24311250C424301250D26402700E2E
:10507300EE2428126B399006E1124DD58017900665
:10508300E174FEF0A304F0EE2428FCE43FFD7AD89B
:105093007B06121889EE241B124389120D88124FC6
:1050A30003120D69EEFAEFFB122AE3E9F8E8600E4A
:1050B300E88E828F83A312635574171263FF024E27
:1050C300FEFAE43FFB7950121439EE22EE2410F578
:1050D30082E43FF583E02274F612084474F7120E5B
:1050E3001C901D2FE070377401F0F9121523AA18D4
:1050F300AB19122BA975082475091D7808120D8C9C
:105103007508017509007808120D8C9006E7120BDB
:10511300BE7406120DFC7A031235F0120D69026497
:10512300EE74F71208441253007004A374EBF0906A
:105133001D2FE0A2E25003C2E2F0E0A2E15005120B
:10514300531180098E828F83742A1263FF0251E008
:1051530074F412084474FE120E1C12520612544CBC
:10516300EC85188285198312549BE0F50B7015AA00
:1051730018AB197953121439EE2413FAE43FFB796F
:105183004A121439124386120D88124F03120D6905
:10519300124B7BA90B122AD7901D2FE0A2E15003DB
:1051A300125318901D2FE4F074020235DC74F712C9
:1051B3000844EAFEEBFF8A82F583A374EBF0901DAB
:1051C3002FE0A2E150077A0079EB122ADDEEFAEF25
:1051D300FB122B138007EEFAEFFB122C157F010253
:1051E3000AFF74F7120844125206901D2CE4F09043
:1051F3001D2FF07AFF7BFF8E828F83A3E0F9122AA3
:10520300D780DA1253517A1B7B1D122C9F2274F71D
:10521300120844EAFEEBFF122B0D80BA74F7120852
:105223004412538EA3A3A3E060047400800274EBC2
:1052330012525F5003C2E2F0E0A2E1500512536242
:105243008011A2E0500D8E828F83742AF0A374EB39
:105253001263FFEEFAEFFB122AB980818E828F83ED
:10526300A3F0901D2FE0A2E22274F6120844EAFE96
:10527300EBFF901D2FE0D2E1F079011215238E820E
:105283008F83A3E07038122BAFE9FAEE240DF508F3
:10529300E43FF5097808120D8C750801750900784B
:1052A30008120D8C1252D2120BBEEE2402FCE43F04
:1052B300FD1235F0120D69E98E828F83A3F08E8281
:1052C3008F83A3E060067A00F9122ADD0264F3EE0D
:1052D300240BF582E43FF5832274F712084412533A
:1052E300007004A374EBF0901D2FE0A2E25003C200
:1052F300E2F0E0A2E150031253110251E0EAFEEBA7
:10530300FF79011215298E828F83E0642022C2E186
:10531300F0125318227A008E828F83A3E0F9122AA7
:10532300DD2274F71208441253518E828F83A3A394
:10533300A3A3E060047400800274EB12525F500375
:10534300C2E2F0E0A2E15003125362025256EAFEB7
:10535300EBFF79011215297A127B1D122C9F22C2B1
:10536300E1126883E0A2E4E433FA12531A2274F7D9
:1053730012084412538E74EB1252645003C2E2F0CB
:10538300E0A2E150031253110251E0EAFEEBFF7970
:10539300011215298E828F83A32274F712084412F7
:1053A30053B30251D974F71208441253B30251E0B4
:1053B300EAFEEBFF7A127B1D122C9FEEFAEFFB1233
:1053C3002B372274F712084474EF120E1CEAFEEB1B
:1053D300FFEA1263417AD87B06121877E960568593
:1053E30018828519837409F0740112108A74EFF01E
:1053F30012544C740212108AEC12549BA3A3E0C003
:10540300E0740412108AD0E0125488640870158E78
:10541300828F83A3A3125474E0C0E0740512108A30
:10542300D0E08006740512108AE41261DD7406125E
:10543300108A12543D7411023F8BAA82AB83122B44
:10544300DFAA18AB19121FCD22125459F583125437
:105453006BFCA3E0F922EE125461FB888222240242
:10546300F8E43FF9E8FAE922124BD08882F583E0A9
:10547300221254832407F582E438F58322901CD149
:10548300124BD0C82212548C22125491E022F08E77
:10549300828F83A3A3A3A32212646D1254A22212A8
:1054A30054A622E0F8A3E0F5838882A3A322C08256
:1054B300C083122C21024CF5C082C083901D4C7412
:1054C300ECF0A3741CF0A37408F0A3741DF0901EF9
:1054D300BE74C4F0A37431F0A37462F0A37431F00A
:1054E300901D3874D1F0A3742AF0901D35E0440167
:1054F3000247F9C082C083EAFCEBFD7902122B85D7
:10550300024CF574F612084474FE120E1C901D3101
:1055130012555460077A317B1D122B9D901D37E481
:10552300F0900D9612555460208007AA18AB1912FB
:105533002B9D901D30E0F91216FD8B09A9098518E2
:10554300828519831241AC70E274020264F0901CEC
:10555300D1126B43E8492274F7120844E9FA7B003D
:10556300901D30E0F91217270251E074F712084436
:1055730074F0120E1CEAFCEBFDE9FE8A828B83E0D9
:10558300F874331256893435F583E493C0E074011B
:1055930012108AD0E0F0640B700DE98A828B83A32A
:1055A300F0122C03025684E07003025684640C60EC
:1055B30003025675741A6E700B740412108AE4F0A9
:1055C300A3025674740412108A125938EA24321250
:1055D3005E41C0E0740312108AD0E012686E1210AC
:1055E30067740612108A1210738C828D83A3A3A38F
:1055F300A3A3A3A3A3A3126B3F740A12108AE8F018
:10560300A3E912568EE05410600985188285198328
:10561300E48013EC2412125E41F89006F4E0C39880
:10562300851882851983F0E0C0E0740C12108AD0CB
:10563300E0F0EC2415125E41C0E0740D12108AD024
:10564300E0F0EC2416125E41C0E0740E12108AD012
:10565300E0F0EC2417125E41C0E0740F12108AD000
:10566300E012568EA3E054016008740112108A748C
:1056730011F0740212108AEEF07401120DF4121F6D
:10568300CD7410023F8B28F582E422F0EC1256977A
:105693003DF58322240EF582E422C082C083901D4F
:1056A30037E064037004790180027900024CF574D9
:1056B300F7120844901D37E012572D74BC28F58269
:1056C300741E39F583125BBFC2E7F0125734A3E4AB
:1056D30093FE25E0FCE433FD74BC2CF582741E3D7F
:1056E300125F4BEC4D6005EE901D37F08A828B8381
:1056F300E025E0FCE433FDE82CF582E93DF583E4A5
:1057030093FCC4540F25E0F87446125689341DF5F2
:10571300831255547005122BF1800CEC540F125761
:1057230034124C4D120A190251E025E0F8E433F922
:105733002225E0FCE82CF582E439F5832274F21289
:10574300084474FE120E1C890B8A088B091257DF5A
:105753001257D0601A1261EAF50A7808120D8812FE
:1057630057EC2402125F41120D691257788003121D
:1057730057FE023BDBAA0CEFFB901D30E0F912163B
:10578300F12274F012084474FE120E1C890B8A0E67
:105793008B0F1257DFF5081257D060271261EAA862
:1057A30008EA281244CE850E08850F09F50A780801
:1057B300120D881257EC125F3F120D691257787958
:1057C3000080051257FE791A74020235C8FA7B006D
:1057D3001216E58A0C8B0DAF0DEA4F2274FC29F5E6
:1057E30082E43434F583E49322A80B741D125689A2
:1057F3003435F583E493FC7D00EA2285188285190C
:1058030083E50BF0791AAA18AB19122B6D22C0820B
:10581300C083E9901D300247F974F612084474FE00
:10582300120E1CEAFEEBFFEA542070308039A8A860
:10583300C2AF901CD0E0141247268A828B83125980
:1058430025901D33125938122B79851882851983B7
:10585300E0641560077A337B1D122B9D7ACA7B1C8B
:1058630012170FEA4B70C7EF5480700C8016901D0F
:1058730033EAF0A3EB12594B901D30E0F91216FDF9
:10588300EA4B70EAEE5410600B8518828519837415
:105893002D125957EEA2E0500B8518828519837497
:1058A30024125957EE5402600B85188285198374AC
:1058B30025125957EE5404600B8518828519837499
:1058C30026125957EE5408600B8518828519837484
:1058D30028125957EE5440600D740112108A125960
:1058E3003E742C125957EE5480600D740112108AC5
:1058F30012593E742F125957901D31125554601B83
:10590300A8A8C2AF901D31124B81901D31E4F0A3C2
:10591300124726A3EAF0A3E912594B7A007B00024F
:10592300554C12592922E0851882851983F022A348
:10593300A3A3A3A3A3EAF0A3EBF022E41259432207
:10594300F085188285198322F0122B797A337B1D17
:10595300122B9D22124472122B7922C082C0839093
:105963001D331265AD687002EB697007901D33E457
:10597300F0A3F0024CF574F7120844EAFEEBFFEAD9
:105983004F70031211DBA2AFE433F508C2AF8E826E
:105993008F831255546028E824FBFAE934FFFB9007
:1059A3001D33125F4DE86C7002E96D7007901D3373
:1059B300E4F0A3F08E828F83E4F0A3F012179F022A
:1059C3003DF7C082C083901D5A74E5F0A3742BF099
:1059D300A374F7F0A3742BF0A374FDF0A3742BF05E
:1059E300A374B3F0A3742AF0A37403F0A3742CF08C
:1059F300A374ADF0A3742AF0A374B9F0A3742AF0CE
:105A0300901D687433F0A3742CF0A37409F0A3748D
:105A13002CF0A3740FF0A3742CF0A3741BF0A374E5
:105A23002CF0A37415F0A3742CF0901D59E40247D5
:105A3300F9C082C0839006E1E064FE7003A3E0F442
:105A430070097CD87D0612187D801C8A828B83A303
:105A5300A3A3A3A3A3A3A37402F09006E1126B3F35
:105A63008A828B83124DD5024CF5C082C083900687
:105A7300EBC3E094FEA3E094FF4004790380027932
:105A830002024CF5C082C083125BC88C828D8312E4
:105A93005B7D687039740268701C8A828B83125A2A
:105AA300D6E06870298A828B83A3125AD6A3E06852
:105AB300701C7901801A7403687013EC2405FC5080
:105AC300010DEA2405FA50010B12188380027900B4
:105AD300024CF5A3A3A3A3A3E0F88C828D83A3A315
:105AE300A3A3A32274F61208447E00740A12108A38
:105AF300E0125B71FF8A828B83A3A3A3A3A3A3A357
:105B0300A3E06F706474026F704E8A828B83C082CD
:105B1300C08388828983A3A3A3A3A3E0F508888213
:105B23008983A3A3A3A3A3A3E0FBAA08D083D08262
:105B3300E06A7003A3E06B703088828983A3A3A318
