:020000040000FA
:06000000020FE3020609F5
:03002B00020DB50E
:03004300020C6943
:0300530002053E65
:1000830002059D0100F0FF0700080000FFFF0000CC
:10009300070400000003000147726F757000FF043E
:1000A30000100020FD00020000D315000000000036
:1000B300003316000000000000AF15000000000030
:1000C3000000000000BB150000000000000000005D
:1000D30000000006FFFF1E01D5190000F9190000FA
:1000E300000000000000000000000000000000000D
:1000F300124261736564206F6E205449204343327A
:100103003533300101040100010005FF93015795C8
:10011300010400004E1A000000E8030000FFFFC8BE
:100123001A0188130000E803000064006400B801AA
:10013300A0BB0D00A0BB0D000202020704010105D4
:100143001E02051E020A0A0101010809080103B87B
:100153000B02803E0102FEFFE8030A050001FFFFD8
:10016300010A1401E00105030101FF0F10FEFF0363
:100173000003000300030003000300030003000364
:100183000005000A00140028004F009E000000FF35
:100193003100000000973100000000FF000000FF65
:1001A30000120FF3601D1210027005191919801A3D
:1001B300120E97701F120EABC37003E66733191943
:1001C3001940071818182208080874FFF618F618BB
:1001D300F618F622120EAB6017121090702192F0EF
:1001E3001210997019501720F0140808080909090A
:1001F300E7F61819E7F61819E7F61819E7F62212C1
:10020300109960E6E869701F0808E62480F608E4A0
:1002130036F618547FB47F0CE654806007F6E41872
:10022300F618F622181822E9C6CC08C6CD08C6CEA1
:1002330008C6CFC0E0E8C0E0EAC0E0EBC0E009E9EF
:10024300F809E7FA09E7FBE6F918E6F8C3EC98EDD5
:1002530099EE9AEBC2E7F5F0EFC2E795F0500E6026
:100263000CEBCFFBEACEFAE9CDF9E8CCF8EAA2E74A
:10027300D2E7FAEB33FB13F5F0EEA2E7D2E7FEEF9A
:1002830033FFC5F013A2E730E601B313C5F0C3C0D3
:10029300E0C0F07F00C39BFB605E9418600F401DBD
:1002A30014601AD0E023F9D0E0F80203858AF0E95C
:1002B300486003D2F0E4AFF0FAF9F8803BEB30E4A6
:1002C3000D89F0EA6003D2F0E4AFF0F9CAF8EB303D
:1002D300E30D88F0EF6002D2F0AFF0E4CAC9F8EBA7
:1002E30054076014FBC3EA13FAE913F9E813F8EFB0
:1002F300135002D2E0FFDBEDD0E0C0E030E739C3BA
:10030300E49FFFF5F0EC98FC42F0ED99FD42F0EE2E
:100313009AFE42F0D0E0F9D0E0F8E5F0607AE92304
:10032300F9EE20E742D8028067C3EF33FFEC33FCDA
:10033300ED33FDEE33FE80EAEC28FCED39FDEE3AB9
:10034300FED0E023F9D0E0F84002801BC3EE13FE99
:10035300ED13FDEC13FCEF135002D2E0FF08B800DD
:10036300067F7F74FF802EEF3350178CF020F0024E
:1003730060100CBC000C0DBD00080EBE000408E8A4
:1003830060DFE933E813FFEE2313FE4F4D4C800883
:10039300E95480FFE4FEFDFCEE33EF33F47004FC1C
:1003A300FD7E80D0E0FBD0E0FAD0E0F8D0E0CFC60D
:1003B30018CEC618CDC618CCC6F92200120FF360AA
:1003C3004F1210026012E7548066F6120E977011F6
:1003D300121090703B090909F4F618F618F618F68E
:1003E30022120EAB701512109908080860EAE64451
:1003F3007FF618768018E4F618F622121099601624
:100403001210907012E4F608F608F608E65480F627
:1004130009090918181822EAC0E0EBC0E0ECC0E0B3
:10042300EDC0E0E687F0A4FBACF008E687F0A42C6F
:10043300FCE435F0FA1809E687F0A42C4B6002744B
:1004430001CA35F0FCE433FB09E687F0D2F7A42CAC
:10045300CB35F0FC1908E687F0A42BCC35F0FBE490
:1004630033FD0819E687F0D2E7A42C4ACB35F0CD4B
:100473003400FC09E687F0D2E7A42DCC35F0FDE487
:1004830033FA0918E687F0D2F7A42CCD35F0CA3435
:1004930000FC08E687F0D2E7D2F7A42ACC35F07A3D
:1004A3007E20E70B0ACB33CBCD33CDCC33CC33CB50
:1004B3003350147004ED30E00ED2F1E4CD3DCDCCD9
:1004C3003CCC3B5005DA05C2F1EB547FC63308E65A
:1004D3003392F0FBE73309E733C39A502D2B70199E
:1004E3000C0D4C4D70151806E608C333700D20F142
:1004F3000AA2F013F6E418800B4024E4F630F0026D
:10050300768018F618F618F68024D33B145010742E
:10051300FFA2F013F6187680E418F618F6800FA2FF
:10052300F013F618E63303F618ECF618EDF6D0E000
:10053300FDD0E0FCD0E0FBD0E0FA22C0E074F11281
:1005430008AFA2AFE433F509D2AF85A708AFA1EF97
:100553005508FE74105E600612133F75A1EF740810
:100563005E600812134575A1F78024EFA2E092F0B4
:10057300E508A2E082F05017906198E0F89006BB7E
:10058300E0C398A2D265D0335002E8F075A1FEE52E
:1005930009A2E092AF7F0202096BC0E074F2120875
:1005A300AFA2AFE433FED2AF9061A4E0F8759B0035
:1005B300E59158540860087591F71213938023E569
:1005C3009158541060087591EF1213998014E591B6
:1005D300A2E092F0E8A2E082F05007E0C2E0F0125D
:1005E30014E39061A3E0F8E5E9585404600E121493
:1005F300B975E9FB906193E0A2E640F2EEA2E092C6
:10060300AF7F0102096BC0E074F21208AFA2AFE43E
:1006130033FED2AF9061A5E0F8E5BF5854046006FD
:1006230075BFFB1214FB80D4C3E498F8E499F91264
:10063300066C8026C3E49AFAE49BFBE920E7E912FF
:10064300066CE498F8E499F922C3E498F8E499F97C
:1006530012066CE498F8E499F9C3E49AFAE49BFB74
:1006630022EB20E7CFE920E7E0B90010BB0008E860
:100673008AF084F8AAF022E4FBC8FA22EB70227B0A
:1006830010C833C8C933C9335007C39AC3DBF280D8
:10069300069A50012ADBEAC833F4C8C933F4C9FA0D
:1006A3002275F008E4C833C8C933C933C99AC99B52
:1006B3005004C92AC93BD5F0ECFBC833F4C8E4C9DC
:1006C300FA2212070520F01430E72B74FFFCFBFA23
:1006D300747F8022E4FCFBFA7480801AB48008BC27
:1006E30000F2BB00EF800F50EBF9E4C39AFAE49BEE
:1006F300FBE49CFCE499C6CC18C6CB18C6CA18C642
:10070300F922E4C9C608CAC608CBC6D3330308CC4A
:10071300C63392F0C3947F402E94184019C9B90789
:1007230004CACBCC225025C309CA33CACB33CBCCA2
:1007330033CC33D9F422F4600DC9CCC313CB13CB20
:10074300CA13CAD9F6CC22E4FCFBFA2214FCFBFA46
:1007530022080808EAC0E0EBC0E086F0E7A4FA1834
:100763000986F0E7A42AFA180986F0E7A42AFA18FA
:100773000986F0E7A42AFA1986F0E7A4FBE5F02A34
:10078300FA190886F0E7A42BFBE5F03AFA19088674
:10079300F0E7A42BFBE5F03AFA18180986F0E7A472
:1007A300C5F02BFBE43AFA1908E7C5F0C6A426F610
:1007B300E5F03BFBE43AFA1886F0E7A4F6E5F00827
:1007C30026F6E43B08F6E43A08F6D0E0FBD0E0FA7C
:1007D30022E4CFC0E0E4CEC0E0E4CDC0E0E4CCC08E
:1007E300E075F020E626F608E633F608E633F60869
:1007F300E633F6181818EC33FCED33FDEE33FEEF59
:1008030033FFC3EC9709ED9709EE9709EF97191991
:1008130019400FFFEC97FC09ED97FD09EE97FE19C0
:100823001906D5F0BFECF709EDF709EEF709EFF775
:10083300191919D0E0FCD0E0FDD0E0FED0E0FF2292
:100843002518C582C0E0E51934FFC583C0E0E5186B
:10085300C3958224F810AF08858319858218800810
:10086300858319858218D2AFCEF0A3E520F0A37853
:1008730008E608F0A3DEFAEFF0A3E58124FAF8E630
:1008830008F0A3E608F0A3E608F0A30808E608F0DA
:10089300A3E608F0A315811581D0E0FED0E0F8159A
:1008A3008115811581E8C0E0EEC0E022C0D0251893
:1008B300C582C0E0E51934FFC583C0E0E518C395E0
:1008C3008224F310AF0885831985821880088583F5
:1008D30019858218D2AFC8F0A3E9F0A3EAF0A3EB1D
:1008E300F0A37908E709F0A3D8FAECF0A3EDF0A39D
:1008F300EEF0A3EFF0A3D0E0F0A3D0E0F0A3D0E0BC
:10090300F0A3E520F0A3E5F0F0A322E9799EC60861
:10091300CAC608CBC608CCC6C370207996CACBCC4E
:100923007019798ECBCC70137986CC700EF9802A2E
:10093300CA33CACB33CBCC33CC331930E7F2CCCB6D
:10094300CA3350147004EA30E00DE4CA3ACACB3B10
:10095300CBCC3CCC500209C3E913C6CC182313C635
:10096300CB18C6CA18C6F922851983851882E0C038
:10097300E0A3E0F9A3E0FAA3E0FBA37808E0F6081C
:10098300A3DFFAE0FCA3E0FDA3E0FEA3E0FFA3E006
:10099300C0E0A3E0C0E0A3E0F5D0A3E0F520A3E02E
:1009A300A3F5F010AF088583198582188008858325
:1009B30019858218D2AFD082D083D0E0F8D0E0324C
:1009C30012107BB90003020A02E490040178C5798E
:1009D3001A8002F0A3D8FCD9FA7AC57B1D90008651
:1009E300781F79028015E493A3AD82AE838A828B4C
:1009F30083F0A3AA82AB838D828E83D8E9D9E7756E
:100A030082EA7583FD7404120D2C75826F75832E33
:100A13007400120D2C75F0108E1A8F1B85821F85A2
:100A2300831E851882851983E0CEA3E0CF851F82BC
:100A3300851E83EBC9EAC8EDCBECCAC3E833C8E92A
:100A430033C9EA33CAEB33CBC3EA9EF51DEB9FF5FB
:100A53001CB35004AB1CAA1DEC33CCED33CDD5F045
:100A6300DAAE1AAF1B22D083D082ECC0E0EDC0E037
:100A7300E493A3FCE493A3FDED4C600D120B41EC56
:100A830024FFFCED34FFFD80EFE493A3FCE493A388
:100A9300FDED4C600D120C14EC24FFFCED34FFFD56
:100AA30080EFD0E0FDD0E0FCE493A3C0E0E493C08A
:100AB300E022D083D082E9C0E0E493A3C386F0C5EB
:100AC300F095F0F908E493A386F0C5F095F0700B68
:100AD300E493A3C3994005E9048002A3E475F002FB
:100AE300A42582F582E5F03583F583D0E0F9E4931C
:100AF300A3C0E0E493C0E022851983851882E0A3B4
:100B0300FEE0A3F5207808E0A3F608DFFAE0A3FFF0
:100B1300E0A3C0E0E0A3C0E0E0A3C0E0E0A3C0E046
:100B2300E0A3C0E010AF088582188583198008858B
:100B33008218858319D2AFD083D082020D32C0E0F0
:100B4300C3E49396087401939618400FE493667078
:100B53000808740193661870007019A3A3C3E49383
:100B630096087401939618A3A3400DD0E0D0E0D06B
:100B7300E0020AA5A3A3A3A3A3A3D0E022C082C03B
:100B83008374FE120E18851882851983EAF0A3EB8D
:100B9300F07C017D00AA18AB1979001212C78518E1
:100BA30082851983E0FAA3E0FB7402120D65D083FA
:100BB300D082227404800474028000CCC0E0EDC0B3
:100BC300E0E518C39CCCAD1950011D10AF068C187D
:100BD3008D1980068C188D19D2AF120CAED0E0FDA2
:100BE300D0E0FC2274028000CCC0E0EDC0E0E51848
:100BF300C39CCCAD1950011D10AF068C188D198004
:100C0300068C188D19D2AF120C8CD0E0FDD0E0FC0D
:100C130022C0E0C0F088F0E4936670080874019382
:100C230066187000A8F0A3A3700BD0F0D0E0D0E05A
:100C3300D0E0020AA5A3A3D0F0D0E022D083D082D3
:100C4300CCC0E0E493A36006120D0D1470FAE49394
:100C5300A36006120E2E1470FAD0E0FCE493A3C036
:100C6300E0E493C0E022C0E074F21208AFA2AFE464
:100C730033FED2AFC2C0E5D1A2E450031212AFEEED
:100C8300A2E092AF7F0102096BCAC0E0E493A3C55F
:100C930082CCC582C583CDC583F0A3C582CCC58272
:100CA300C583CDC583DAE5D0E0CA22CAC0E0E0A39C
:100CB300C582CCC582C583CDC583F0A3C582CCC50F
:100CC30082C583CDC583DAE6D0E0CA22C008C3E07B
:100CD30096F50808A3E096420808A3E096420808A0
:100CE300A3E09645087001D3D008227009080808CC
:100CF300226016181818C6C333C608C633C608C6FA
:100D030033C608C633C6D5E0EA22C0E0E493A3D3D2
:100D13009C5010E493A3C39C400AD0E0D0E0D0E001
:100D2300020C5CA3A3A3D0E022C09FF59FE473D081
:100D33009F22D083D082C09FE493C0E0740193C00C
:100D4300E0740293F59F222518F58210AF08F51879
:100D5300400C15198008F51840021519D2AF8519F2
:100D6300832200C0D0251810AF08F518500C0519C0
:100D73008008F51850020519D2AFD0D02274048030
:100D83000A74038006740280027401C0E0F4041242
:100D93000D4AD0E012103E22BB0102E722C082C0FE
:100DA3008389828A83BB0003E08002E493D083D0EB
:100DB3008222C0E0C0D0E8C0E0A8A8D2AFC2C7E892
:100DC300A2E792AFD0E0F8D0D0D0E03260160808A6
:100DD30008C6C313C618C613C618C613C618C61347
:100DE300C6D5E0EA222518F8E43519F9222518FAC0
:100DF300E43519FB222518FCE43519FD22C3E0C6AE
:100E030096F608A3E0C696F608A3E0C696F608A3EE
:100E1300E0C696F622251810AF08F518400C1519F0
:100E23008008F51840021519D2AF22C0E0E493A35D
:100E33006C7009D0E0D0E0D0E0020C5CA3A3D0E05A
:100E430022E066701008A3E066700A08A3E06670EB
:100E53000408A3E06622C3E09608A3E09608A3E093
:100E63009608A3E096A2D265D03322E766701008F5
:100E730009E766700A0809E76670040809E766224D
:100E8300C3E096F008A3E096F008A3E096F008A369
:100E9300E096F022181818E60846087009E62608B6
:100EA3007005E633F4220822191919E70947097076
:100EB30009E727097005E733F4220922C3E493966F
:100EC3000874019396087402939608740393962208
:100ED300C3E697F60809E697F60809E697F60809C0
:100EE300E697F622E026F608A3E036F608A3E036F6
:100EF300F608A3E036F622E647F60809E647F608C1
:100F030009E647F60809E647F622700422600D1841
:100F1300C6C333C608C633C6D5E0F41822E657F66F
:100F23000809E657F60809E657F60809E657F622D0
:100F3300E056F608A3E056F608A3E056F608A3E049
:100F430056F622E056F008A3E056F008A3E056F068
:100F530008A3E056F022E627F60809E637F6080963
:100F6300E637F60809E637F622E026F008A3E0366E
:100F7300F008A3E036F008A3E036F022E493F60885
:100F8300740193F608740293F608740393F622E44B
:100F9300C396F608E496F608E496F608E496F62275
:100FA300600D08C6A2E713C618C613C6D5E0F32220
:100FB300C6F4C608C6F4C608C6F4C608C6F4C622F4
:100FC300C3E7960809E7960809E7960809E7962212
:100FD300C3E09608A3E09608A3E09608A3E0962250
:100FE30075D00075813F751801751904000209C396
:100FF300E6084608C3134608336002E633F422E7E3
:10100300094709C3134709336002E733F422600C2D
:1010130008C6C313C618C613C6D5E0F422E6F00803
:10102300A3E6F008A3E6F008A3E6F022E0F608A39F
:10103300E0F608A3E0F608A3E0F622CAC0E0E6F073
:10104300A308DAFAD0E0FA22E0FAA3E0FBA3E0FC7B
:10105300A3E0FD22EAF0A3EBF0A3ECF0A3EDF02272
:10106300E0F8A3E0F9A3E0FAA3E0FB22E8F0A3E9A8
:10107300F0A3EAF0A3EBF022E5C754F84401F5C767
:101083007901222518F582E43519F58322E727191A
:10109300471947194722E62618461846184622C21A
:1010A300AF75D69F02000022120D35BC7000120DE1
:1010B30035387100120D356B7100120D35997100C1
:1010C300120D35BD7300120D35D97300120D351E87
:1010D3007400120D35A37400120D35EF7400120D58
:1010E300357F7500120D35587600120D35A976003F
:1010F300120D350E7700120D35817700120D35C5AF
:101103007700120D351D7800120D353F7800120D52
:1011130035CF7800120D35607900120D35AC7900AA
:10112300120D35D87900120D35197A00120D35BA22
:101133007B00120D359C7C00120D35787D00120D5D
:1011430035CCD006120D350DD106120D3527D1063B
:10115300120D3543D106120D356CD106120D35AD86
:10116300D106120D350CD206120D3576D206120DAC
:1011730035D5D206120D3512D306120D35D0D3064E
:10118300120D35A1E006120D35BCE006120D35EE49
:10119300E006120D351BE106120D3540E106120D76
:1011A300356BE106120D3596E106120D35C6E106E3
:1011B300120D35ADEF06120D35BEEF06120D355C7F
:1011C300F006120D3576F006120D35F9FF01120DFA
:1011D3003592D906120D35E9D906120D35A1DB0674
:1011E300120D35C7DB06120D35E6FF04120D35C2AD
:1011F300F206120D35D2F206120D35E7F206120D84
:101203003530F306120D35F4EA06120D3578EB0688
:10121300120D35E0EB06120D35FC7F00120D35394A
:10122300F306120D355EF306120D3571F306120D3A
:10123300357CF306120D3539CD06120D3547CD0633
:10124300120D35C0CD06120D3595CE06120D35673C
:10125300D006120D3594F406120D356A9E06120D52
:1012630035A69E06120D35F39E06120D35BBA0065C
:10127300120D35A9A206120D3586A306120D35C827
:10128300A306120D35ADA506120D3588F901120D11
:1012930035F5F901120D35ADFA01120D3523FB01B8
:1012A300120D3537FC01120D35C7FD01120D353016
:1012B300FE01120D357FFE01120D3588FE01120D60
:1012C3003597FE01120D35ADFE01120D35C0FE013D
:1012D300120D35C9FE01120D3586FA02120D35B213
:1012E300FA02120D3549FD02120D3589FD02120D68
:1012F30035C5FD02120D35D9FD02120D35F2FD0281
:10130300120D35E3FE02120D3595FF02120D35A9BC
:10131300FF02120D35D8E506120D35FCE506120D58
:101323003515E606120D3553E606120D3583E6062E
:10133300120D35B0E606120D3516E706120D3519F6
:10134300E706120D3523E706120D3530E706120DB9
:1013530035EBD606120D350BD706120D354AD706D7
:10136300120D3568D706120D3583D706120D35E9F0
:10137300D706120D35F5D706120D3552D806120DC4
:101383003561D806120D3585D806120D3546D906B6
:10139300120D3553D906120D3564D906120D354B8E
:1013A300F206120D3593F206120D35BFF206120D39
:1013B3003511B906120D356DBA06120D357BBA0615
:1013C300120D358EBA06120D35A3BA06120D35B8B5
:1013D300BA06120D35CBBA06120D3547BB06120DF0
:1013E30035ACBB06120D3542BC06120D351BBD06CE
:1013F300120D352BBD06120D353ABD06120D358C77
:10140300F006120D35B0F006120D35D8F006120DA8
:101413003500F106120D350EDC06120D3535DC06EE
:10142300120D3553DC06120D35C2DC06120D3518CC
:10143300D406120D3531D406120D353DD406120DE6
:101443003551D406120D356FD406120D3579D406F5
:10145300120D3583D406120D3596D406120D351CA4
:10146300D506120D3591D506120D35C0D506120DD0
:10147300350ED606120D355DD606120D3578D60615
:10148300120D3582D606120D3593D606120D35D6BA
:10149300D606120D35F9F306120D35ED9406120D2D
:1014A30035199506120D35369506120D35499506F3
:1014B300120D35649506120D35BE9506120D35ECE9
:1014C3009506120D35FC9906120D355A9B06120D21
:1014D300358C9B06120D35EF9B06120D355B9D0671
:1014E300120D35839D06120D35989D06120D35A8F4
:1014F3009D06120D35E89D06120D352A9E06120D26
:10150300353A9E06120D35C4E906120D35DEE9069D
:10151300120D3506EA06120D351FEA06120D354384
:10152300EA06120D3561EA06120D3578EA06120D48
:1015330035A6EA06120D35C1EA06120D35B67F004F
:10154300120D3575FC03120D3585FC03120D358A1A
:10155300FD03120D35BCFD03120D35ECFD03120D19
:10156300350FFE03120D3526FE03120D3560FE0303
:10157300120D35C5FE03120D3507FF03120D354E4F
:10158300FF03120D357BFF03120D35A6FF03120D6A
:10159300353AE706120D3558E706120D35BAE70658
:1015A300120D3554E806120D35E7ED06120D35DC44
:1015B300FE01120D3524FF01120D3528E406120D2C
:1015C3003589E506120D357FE806120D35A4E906C7
:1015D300120D35878A06120D35118E06120D350D43
:1015E3009006120D353F9106120D35189206120D15
:1015F30035A89306120D35749406120D35C894065A
:10160300120D3566E206120D3587E206120D35C15D
:10161300E306120D35EBE306120D35BDFF02120D85
:1016230035CDFF02120D35D7FF02120D355DD305FF
:10163300120D3560D305120D353CDB05120D358EC9
:10164300DC05120D35EFDD05120D35C6DE05120D75
:10165300359FDF05120D3588E005120D357CE10558
:10166300120D3534E205120D3564E205120D351401
:10167300E405120D35527E00120D35727E00120DF7
:1016830035867F00120D35897F00120D35F9EC0682
:10169300120D352FED06120D3547ED06120D358966
:1016A300ED06120D3599ED06120D35DDED06120D21
:1016B3003503AD06120D353DAD06120D35A6AD064B
:1016C300120D35C5AD06120D35DEAD06120D358092
:1016D300AE06120D3589AE06120D35DAAE06120DC1
:1016E3003503AF06120D3510AF06120D3581AF0667
:1016F300120D350FB006120D355DB006120D359380
:10170300B006120D35F4B006120D351DB106120DDB
:101713003594B106120D35F0B106120D352DB20612
:10172300120D3564B206120D3576B206120D3588E8
:10173300B206120D35A7B206120D35B0B206120D60
:10174300356BB306120D35B7B306120D35F5B30677
:10175300120D3597F306120D35B4FA05120D35F453
:10176300FB05120D3517FC05120D3528FC05120D6E
:101773003547FE05120D3567FE05120D3563DE068E
:10178300120D3599DE06120D35E1DE06120D353ADE
:10179300E006120D35ABE904120D35DCEA04120D37
:1017A3003518EB04120D35D2EC04120D35FCEC04A4
:1017B300120D3575EF04120D35B5EF04120D3549D1
:1017C300F104120D35E8F104120D3540F204120D47
:1017D30035D3F204120D350DF304120D354FF30416
:1017E300120D35C2F404120D3542F604120D357F85
:1017F300F804120D35ADF804120D35D9F804120DA5
:1018030035E2F804120D353FF904120D35CFF90412
:10181300120D350BFD04120D358DFD04120D3583AC
:10182300F506120D3599F506120D35A3C106120DF5
:1018330035B9C106120D355DC206120D359CC206BF
:10184300120D35B9C206120D35EAC206120D35372F
:10185300C306120D356BC306120D35A6C306120D52
:10186300359BC506120D35F9EB06120D3558EC06FE
:10187300120D3596EC06120D35D7EC06120D35E632
:10188300EE06120D35EBEE06120D35FEEE06120DC9
:101893003570EF06120D35008004120D350C8004EF
:1018A300120D356E8004120D35788004120D350546
:1018B3008104120D35418104120D35048204120D89
:1018C30035178204120D35858204120D35ED82041D
:1018D300120D357C8304120D35FA8304120D359FE6
:1018E3008504120D35588704120D359E8804120D98
:1018F300351B8A04120D35C28A04120D35908F04EC
:10190300120D35879004120D35169104120D353BD7
:101913009104120D35D89104120D35F59104120D71
:1019230035159204120D35869204120D35A39204D7
:10193300120D35D19204120D35699404120D358AB6
:101943009404120D35309504120D35789504120D5B
:1019530035EA9504120D356D9604120D35D29604B1
:10196300120D352F9704120D35CE9704120D354203
:101973009804120D357E9804120D35EB9804120D60
:1019830035559A04120D35D69B04120D35859C04EA
:10199300120D35E79E04120D35499F04120D35775C
:1019A3009F04120D358FA104120D351FA404120DCF
:1019B3003522A504120D35008006120D351E810651
:1019C300120D35B18206120D35568306120D35768A
:1019D3008306120D35798306120D358C8306120D9D
:1019E30035D18306120D35FD8306120D354F84065E
:1019F300120D35678406120D35A28406120D3511BA
:101A03008506120D356D8506120D35098606120DF4
:101A130035718606120D359D8606120D35B0880682
:101A2300120D352FF506120D359FCB04120D353EE1
:101A3300CC04120D35BACC04120D35A9CD04120D08
:101A430035A7CE04120D3526CF04120D3568D00408
:101A5300120D3509D104120D35C9D204120D35D03A
:101A6300D304120D35EDD304120D3518D504120D20
:101A73003555D604120D35FFD604120D3569DA0437
:101A8300120D3571DC04120D35FADC04120D3554D8
:101A9300DD04120D35A2DD04120D351DDE04120D19
:101AA300359FDE04120D35DBDE04120D357FE504B0
:101AB300120D35DAE704120D35B6E804120D35348C
:101AC3009D05120D35669D05120D35EA9D05120D16
:101AD300354D9F05120D353BA005120D3503A205AB
:101AE300120D3528A205120D357AA205120D350CFB
:101AF300A305120D3558A305120D356BA305120D61
:101B030035C8A305120D3537A405120D3504A505F7
:101B1300120D3572A505120D35A9A505120D35F265
:101B2300A505120D359AA705120D3579A805120DD5
:101B330035C7A905120D35AAAA05120D3536AB0511
:101B4300120D356FAB05120D358EAB05120D35D960
:101B5300AB05120D35F9AB05120D35B6AC05120DFB
:101B630035C3AD05120D35D7AD05120D352BAE05B9
:101B7300120D3586AE05120D35D3AE05120D35DBCC
:101B8300AF05120D3560B205120D3586B205120D83
:101B93003501B305120D3526B305120D35ADB30569
:101BA300120D3589B405120D35C7B405120D354B29
:101BB300B505120D3536B605120D3539B605120DBC
:101BC3003543B605120D354DB605120D3569B6050B
:101BD300120D35E5B605120D351EB705120D353A52
:101BE300B705120D3566B705120D358DB705120D04
:101BF30035B1B705120D35ECB705120D355FB805D4
:101C0300120D3593B805120D359DB805120D35D952
:101C1300B805120D35F3B805120D351AB905120DB5
:101C23003549B905120D3568B905120D3580B90569
:101C3300120D3592B905120D3544F406120D355CBB
:101C4300F406120D35F6FF01120D35E1A506120D4E
:101C53003530A606120D35EEA706120D35A8A906D6
:101C6300120D35E6A906120D35DBAA06120D35E66F
:101C7300AB06120D3508AC06120D3552AC06120D2B
:101C830035D3AC06120D352AA904120D354DA9041E
:101C9300120D35ABAA04120D35F4AA04120D3552F8
:101CA300AB04120D35B8AB04120D35BBAB04120DEA
:101CB300350CAC04120D3586AC04120D3514AD048D
:101CC300120D3517AD04120D359FAD04120D35E21B
:101CD300AD04120D3552B204120D35F0B304120DDA
:101CE300352AB404120D3570B404120D35D0B7047F
:101CF300120D3555B804120D35EDB904120D35FC2E
:101D0300BA04120D3529BC04120D3589BC04120D19
:101D13003565BD04120D35EFBD04120D35F2BD045A
:101D2300120D35D7BE04120D351DC004120D35D169
:101D3300C104120D35A4C304120D3536C404120DAB
:101D430035CBC404120D35BDC504120D357DC70452
:101D5300120D3593C804120D3502CA04120D35470E
:101D6300CA04120D35F2CA04120D35008005120D96
:101D7300359B8005120D350E8105120D3529810520
:101D8300120D35CA8105120D35118205120D353438
:101D93008305120D35778305120D35F38305120D77
:101DA30035468405120D35A58405120D35B285051A
:101DB300120D35CF8805120D35058A05120D358EA6
:101DC3008A05120D35928C05120D35368D05120DCF
:101DD30035D58D05120D35368E05120D35A58E05BB
:101DE300120D35FE8F05120D35E89005120D3523C2
:101DF3009105120D35439105120D35F49105120D20
:101E030035319205120D35BA9205120D353594050B
:101E1300120D35009605120D355B9705120D35D061
:101E23009805120D35DF9905120D356C9A05120DC3
:101E330035D59A05120D35E19B05120D35CBD90326
:101E4300120D352EDA03120D3576DA03120D35B481
:101E5300DA03120D350FDB03120D356CDB03120DA4
:101E630035A7DB03120D3529DC03120D3583DC03A3
:101E7300120D35F7DD03120D3575DE03120D358DA9
:101E8300DF03120D35B5DF03120D3504E103120D27
:101E93003515E103120D352DE103120D3542E20331
:101EA300120D351FE303120D351CE403120D35CE5D
:101EB300D205120D3557E403120D3578E403120DE4
:101EC300359AE403120D35B9E403120D358DE5039C
:101ED300120D35E7E503120D3588E803120D35E1E0
:101EE300E803120D3500E903120D35EBE903120D7A
:101EF3003521EA03120D355BEB03120D35DAEB03E3
:101F0300120D3511EC03120D354BEC03120D35BADE
:101F1300EC03120D357BED03120D3554EF03120D57
:101F2300355BF003120D356EFA05120D35CCF30354
:101F3300120D3547F603120D3521F803120D35E264
:101F4300F803120D355AF903120D3571F903120D09
:101F5300356BFA03120D3563FB03120D35D2FB0308
:101F6300120D35A8C506120D3558C706120D3517C3
:101F7300C806120D357FC806120D35F3C806120DBB
:101F83003578C906120D3596C906120D35DAC9061C
:101F9300120D3500CA06120D3527CA06120D353F3C
:101FA300CA06120D3557CA06120D35F9CA06120DA7
:101FB300353BCB06120D355DCC06120D3566CC06CE
:101FC300120D356FCC06120D3578CC06120D358205
:101FD300CC06120D3521B406120D3555B806120D77
:101FE3003563B806120D3568B806120D3573FE0455
:101FF300120D35BBF106120D3503F506120D35A989
:10200300FF05120D35B9FF05120D356BBD06120D17
:102013003525F106120D354FF106120D35CCF406B8
:10202300120D355AF506120D35008003120D3532A7
:102033008003120D359E8003120D35398103120D75
:1020430035D88103120D351D8203120D353F8203EE
:10205300120D35588203120D357E8203120D35A001
:102063008203120D35DE8203120D35228303120D16
:1020730035448303120D35A68303120D356D840396
:10208300120D35248503120D35968503120D35681F
:102093008603120D35B28603120D35058703120D23
:1020A300356B8703120D35A58703120D35F78703AB
:1020B300120D35138803120D353E8803120D354575
:1020C3008A03120D35998B03120D35BB8B03120D49
:1020D30035EF8B03120D35108C03120D351F8C0356
:1020E300120D352A8C03120D35DA8C03120D35438C
:1020F3008D03120D35F08D03120D35288E03120D4D
:1021030035EE8E03120D35FB8F03120D354590030B
:10211300120D35D49003120D35389103120D35731A
:102123009103120D35DF9303120D35339503120D11
:10213300356C9803120D35399903120D35C7990380
:10214300120D35F09903120D35629A03120D35F60F
:102153009A03120D35549B03120D35469C03120D41
:1021630035689C03120D35C49D03120D35DD9D03A7
:10217300120D35F09D03120D354D9E03120D355C86
:102183009E03120D35EF9E03120D35FB9F03120DB7
:102193003508A003120D3511A003120D35E9A10373
:1021A300120D350FA303120D351FA303120D352195
:1021B300A403120D3598A403120D35C7A403120D01
:1021C30035CDA503120D3513A603120D35DFA70375
:1021D300120D35B7AB03120D35C1AB03120D35D557
:1021E300AB03120D35DFAB03120D35E9AB03120D53
:1021F30035F3AB03120D350CAC03120D3516AC03DE
:10220300120D358AAC03120D3595AC03120D35BA98
:10221300AC03120D35C5AC03120D3513AD03120D0E
:10222300351DAD03120D3528AD03120D354CAD032D
:10223300120D3570AD03120D35CCAD03120D3512F1
:10224300AE03120D352FAE03120D35ACAE03120DD6
:1022530035E3AE03120D3522AF03120D356FAF0315
:10226300120D35F1AF03120D358AB003120D355A35
:10227300B203120D35B8B203120D35D4B303120DE8
:1022830035FAB303120D3539B503120D355FB803B3
:10229300120D35A0BA03120D357CBC03120D351295
:1022A300BD03120D3539BF03120D35E5BF03120D02
:1022B300351AC003120D357FC003120D3589C003D3
:1022C300120D35B3C203120D35DAC303120D351ADD
:1022D300C403120D35C0C403120D3551C603120DCC
:1022E30035DAC703120D35FAC703120D3553C80388
:1022F300120D3555C903120D359FC903120D35EF64
:10230300C903120D35D9CA03120D354ECB03120D75
:102313003568CC03120D35E3CC03120D35E8CD033C
:10232300120D3593D003120D35B2D003120D3513B0
:10233300D203120D35D5D303120D3529D403120D53
:1023430035E1D403120D3590D503120D35E6D503CF
:10235300120D359CD603120D3531D703120D359D61
:10236300D703120D35D7D703120D3508D803120D35
:102373003564D903120D355E9501120D3590950123
:10238300120D35C79501120D35B09701120D359316
:102393009801120D35EB9801120D35269A01120D95
:1023A30035729A01120D359A9D01120D35FCA0016B
:1023B300120D3549A201120D35DFA201120D35EBC5
:1023C300A201120D351DA301120D359FA401120D9B
:1023D30035ADA501120D35D7A501120D352EA60178
:1023E300120D3587A601120D35F3A601120D350A1C
:1023F300A901120D3599AA01120D3563AB01120D16
:1024030035A1AC01120D35D1AE01120D35A1B101CB
:10241300120D35AEB101120D3535B201120D35DD98
:10242300B201120D3520B301120D3569B301120D3E
:1024330035BDB301120D3522B401120D358AB40135
:10244300120D35A7B401120D35D7B401120D350C99
:10245300B501120D35DCB501120D3585B601120D2E
:102463003509B901120D3529BA01120D3512BB0117
:10247300120D3594BB01120D35B6BF01120D35F3A4
:10248300BF01120D354BC001120D357EC001120D77
:1024930035FFC001120D354CC101120D35D7C101F5
:1024A300120D3529C201120D3500C301120D35B9C4
:1024B300C301120D3554C401120D356DC701120D40
:1024C300358DC801120D353ECC01120D355CCD01A1
:1024D300120D355FCD01120D358ECD01120D3594E0
:1024E300CF01120D356DD001120D35A2D001120DA1
:1024F30035AAD101120D3560D201120D3501D40177
:10250300120D3526D401120D3565D401120D35D7C0
:10251300D401120D35BBD501120D3588D601120D2C
:1025230035BED801120D352FD901120D356FD901E2
:10253300120D35A8D901120D353CDA01120D35857E
:10254300DB01120D3548DF01120D3537E001120DA5
:10255300351EE101120D3596E101120D3558E201E8
:10256300120D3556E401120D356EE401120D35825C
:10257300E401120D35BAE401120D35E8E401120D40
:10258300356FE601120D357AE701120D35CCE701FF
:10259300120D3534E801120D35E6E801120D35163A
:1025A300E901120D35FAE901120D35ABEA01120DFD
:1025B300359AEC01120D35CFEC01120D3537ED01D3
:1025C300120D3566EE01120D3518EF01120D354966
:1025D300EF01120D3561EF01120D35F0EF01120D10
:1025E30035A4F201120D357CF401120D3598F40176
:1025F300120D35B4F401120D3582F501120D356655
:10260300F901120D35008002120D35388002120DCA
:1026130035168502120D355C8502120D35A9860229
:10262300120D35148702120D359D8802120D35AD3A
:102633008B02120D35C88C02120D35DA9602120D7B
:10264300356D9702120D35BF9A02120D35BB9B02F1
:10265300120D35169C02120D35609D02120D354E7A
:102663009E02120D35EAA002120D355EA202120D72
:1026730035E1A202120D35E4A202120D3559A3026F
:10268300120D3563A302120D3570A302120D359B93
:10269300A302120D354BA402120D3544A502120DEF
:1026A30035EFA502120D350DA602120D3526A60231
:1026B300120D354FA602120D3571A602120D35C645
:1026C300A802120D358BA902120D35D0A902120DE5
:1026D300354FAA02120D35FBAA02120D352DAB029E
:1026E300120D3581AB02120D35BCAB02120D350351
:1026F300AC02120D3553AC02120D3558AC02120D5B
:1027030035ACAC02120D35D8AC02120D35C1AD0299
:10271300120D3512AE02120D3572AE02120D35CC0A
:10272300AE02120D3567AF02120D35A6B202120DBD
:1027330035B8B302120D3532B502120D3542B80267
:10274300120D35E0B802120D35D6BB02120D3595C8
:10275300BC02120D35D9BC02120D3584BE02120D16
:102763003598BE02120D35A2BE02120D35ACBE0263
:10277300120D35B8BE02120D35DDBE02120D35B68F
:10278300C002120D350BC102120D3515C102120D17
:10279300351FC102120D3594C102120D35E3C1027A
:1027A300120D35F4C202120D3541C302120D354E1E
:1027B300C402120D3592C402120D3538C502120D32
:1027C300352BC602120D35F1C602120D3514C8029F
:1027D300120D3532C902120D351ACA02120D3532E5
:1027E300CA02120D3589CA02120D3593CA02120D9F
:1027F300359DCA02120D35A8CA02120D35C6CA028A
:10280300120D350ECB02120D3570CB02120D35971A
:10281300CB02120D35A9CB02120D3544CC02120D99
:102823003579CC02120D3560CD02120D35A5CD02DE
:10283300120D358BCE02120D35B2CE02120D353587
:10284300CF02120D35A6CF02120D352FD102120D74
:10285300355BD202120D351ED302120D35E6D302BB
:10286300120D3570D402120D3598D502120D353A7A
:10287300D602120D35B5D602120D3571D702120DDF
:1028830035BBD702120D3515D802120D35EDD8021E
:10289300120D3510D902120D35C3D902120D35E5CB
:1028A300D902120D354EDA02120D3564DC02120D17
:1028B300355CDD02120D3520DE02120D3552E002C9
:1028C300120D359CE002120D35ECE002120D35506D
:1028D300E102120D35B2E102120D35E0E102120DF3
:1028E3003504E202120D3539E202120D356AE202B5
:1028F300120D359DE202120D35EDE202120D354047
:10290300E302120D3565E402120D3505E602120DE0
:102913003560E602120D3589E602120D3516E7021F
:10292300120D3584E702120D3592E702120D35B60A
:10293300E702120D350BE802120D3526E802120DDF
:1029430035D8E802120D3510E902120D3553E902AC
:10295300120D35B6E902120D35B8EB02120D35E250
:10296300EB02120D35D9EC02120D35E3ED02120D17
:102973003593EE02120D3571EF02120D35A9EF02F8
:10298300120D35CAEF02120D350CF002120D356E21
:10299300F002120D3578F002120D3588F002120D97
:1029A30035C3F002120D35A3F402120D3590F60271
:1029B300120D3576F802120D350DF902120D35AFF1
:1029C300F902120D35AD3600120D35583700120DD0
:1029D30035063800120D350C3900120D352C39002F
:1029E300120D35553A00120D35103C00120D35838A
:1029F3003C00120D35273D00120D35333E00120DFC
:102A0300359E3E00120D35DA3E00120D351D3F0096
:102A1300120D35583F00120D359A3F00120D352F18
:102A23004000120D35AB4000120D35754100120DFB
:102A330035524200120D35EA4200120D35044300AF
:102A4300120D35344300120D35654300120D352B3D
:102A53004400120D353B4400120D358A4400120D1B
:102A630035974400120D35A04400120D351E450064
:102A7300120D357A4500120D35C54500120D35E0AE
:102A83004500120D350B4600120D35284600120D78
:102A930035344600120D35CB4700120D35E447009F
:102AA300120D35694800120D357C4800120D359B17
:102AB3004800120D353F4900120D35C04A00120D72
:102AC30035734C00120D35094D00120D350C4D00B8
:102AD300120D357C4D00120D359A4D00120D353116
:102AE3004E00120D35794E00120D357C4E00120D3D
:102AF30035424F00120D35AF4F00120D35D54F0043
:102B0300120D35605000120D357E5000120D35C484
:102B13005000120D35785100120D35C25100120DBF
:102B230035F15100120D354E5200120D358352000E
:102B3300120D35AF5200120D35BD5200120D350A7C
:102B43005300120D357A5300120D35C35300120D85
:102B5300350F5400120D353B5400120D3546540009
:102B6300120D35645400120D354F5500120D3559B1
:102B73005500120D35945500120D35A45500120D54
:102B830035F85500120D350C5600120D353B570024
:102B9300120D35505700120D35DE5700120D352337
:102BA3005800120D35AF5800120D35BA5800120DEA
:102BB30035FC5900120D35175A00120D35635A00B2
:102BC300120D35D25A00120D350B5B00120D35254F
:102BD3005B00120D35855B00120D35245C00120D70
:102BE300356F5C00120D353F5F00120D35F15F004C
:102BF300120D355E6000120D359E6200120D35B662
:102C03006200120D35B96200120D35C56200120D56
:102C130035D96200120D35E16200120D35146300DF
:102C2300120D35176400120D35A46400120D35140E
:102C33006500120D35966500120D35576600120DAD
:102C430035766600120D35176700120D357467006F
:102C5300120D35776700120D35EB6700120D353A0B
:102C63006900120D35406A00120D35CB6A00120D52
:102C730035E66B00120D35AE6C00120D35DF6C00BE
:102C8300120D35026D00120D350B6D00120D353A24
:102C93006D00120D35CA6D00120D35806E00120DD8
:102CA30035F56E00120D359C6F00120D3511700055
:102CB300120D35487000120D35867000120D3583E4
:102CC300D205120D3517D205120D35B4D105120DEB
:102CD300358AD105120D3576D105120D356CD10526
:102CE300120D35FFD005120D3530CF05120D35EE1F
:102CF300CE05120D3504CE05120D353AFA05120D27
:102D030035E3F905120D35D8CD05120D358FCD05F7
:102D1300120D3585F805120D35D7F705120D35CC93
:102D2300CC05120D359BC905120D353DC705120D96
:102D3300350DC705120D35BDC605120D3557C60530
:102D4300120D3516C605120D35F6C505120D3528BB
:102D5300C505120D35C2C405120D3561C405120D2A
:102D63003501C405120D359FC205120D3533C20559
:102D7300120D3587C105120D3582C105120D356B54
:102D8300C105120D3536C105120D353AF705120D81
:102D930035D0BD05120D3530F705120D35C5F605D5
:102DA300120D35AAF605120D35FAF505120D35008B
:102DB300F505120D3526F405120D35CDBD05120DA1
:102DC30035B4BD05120D35A9BD05120D3578BD0508
:102DD300120D357CF105120D359FBB05120D3526FD
:102DE300BB05120D35BDBA05120D3530BA05120DEE
:102DF300358EF005120D35ECB905120D35CCF10306
:102E0300120D35C5B905120D35CBEF05120D35760B
:102E1300EF05120D3549EF05120D3516EF05120DAD
:102E230035EEEE05120D358FEE05120D356FEE05FD
:102E3300120D353AEE05120D35FEEA05120D35D3A6
:102E4300E805120D35C3E605120D3540E605120DF2
:102E530035F4E505120D3520F005120D35A8E5050D
:102E6300120D3502E505120D3540E4030000008024
:102E7300FBE47387000100A21E35000400681E25D1
:102E83000002006C1E260002006E1E270002007066
:102E93001E280001007A1E290001007B1E84000405
:102EA30000551B86000100D31D2A0001007C1E2B48
:102EB3000001007D1E2C000100821E2D000800630E
:102EC3001B2E000100831E2F000100841E30000111
:102ED30000851E31000100861E320001006B1B338A
:102EE3000001006C1B34000100871E360001006DD9
:102EF3001B38000100881E39000100811E83000277
:102F030000A01E63000100781B640001007E1E65A3
:102F13000001007F1E6D000100791B710008005B3A
:102F23001B660001009F1E43000100901E44000227
:102F330000911E45000100931E46000200941E47A7
:102F4300000800701B48000100961E4B000100970B
:102F53001E04000100A31EA1000100A61E370001EC
:102F630000A51E88000100A41E3C0001006E1B3D4D
:102F7300000100891E49000200981E670001007AC3
:102F83001B4D0002009A1E4E0001009C1E4F0002C2
:102F9300009D1E3E0001008F1E510001008B1E523A
:102FA3000001008C1E530001008E1E540001006FAF
:102FB3001B00000000000000013636010100010281
:102FC30001000103010001040106060502000007D8
:102FD3000100340801000F090401010D0100FF0E77
:102FE30008000017020000190100FF1A0100011B6D
:102FF3000100FE1C0100081D0200001F010001204A
:10300300010001210200002301000F240200002619
:1030130001000127010008280200FF2A0100072BF5
:103023000102402C0100002D0100012E0100012F9F
:103033000100FF30010B1D310800003A0100083B7D
:1030430001000F3C0100013D0100FF3E040000426E
:10305300040000460400004A0400004E040000522D
:10306300040000560400005A04000000000300207E
:10307300015B95000000002001599500000100202C
:1030830001599500000200200159950000004042BB
:10309300011294000004004201F092000005004276
:1030A300018C9300000600420112940000070030D7
:1030B300015D95000010004203321E000011003034
:1030C30003111A000012001003451E030000002123
:1030D30003121A0000FDFF21014F950300FDFF219C
:1030E300014F95060000001001001A0600FDFF21A4
:1030F300814F95020400002905011A0204010029E9
:1031030001559502040200290153950204FDFF2194
:10311300014F95002020202020202020202828282F
:10312300282820202020202020202020202020208C
:1031330020202020881010101010101010101010D4
:1031430010101010040404040404040404041010F4
:103153001010101010414141414141010101010191
:10316300010101010101010101010101010101103D
:103173001010101010424242424242020202020266
:10318300020202020202020202020202020202100E
:103193001010102001037103010301030103010354
:1031A30001032203020301031003000300030003CE
:1031B3000003000300030003420300032403060388
:1031C300000300030403120325032303250323033E
:1031D3000403040300030003000344030003000388
:1031E3002303000365032100350381030003050363
:1031F30000030003000300032503230303007100FE
:10320300300160001100700031022003500480007F
:10321300100061000000140063007300720062007C
:103223004300000013000600000000000400120029
:103233000000000000000000040004003700370015
:103243003C02440000000000000000006500000094
:10325300350081000000050000008300000001012B
:10326300710101010101110101013101010101019B
:103273008001100161013B001400630173017201BD
:10328300620143010001130106013D013500040100
:1032930012010001000100010001040104013301D6
:1032A30033013C0144013201360000010001650194
:1032B3000001350081010001050182018301000144
:1032C3000302710230016002110270020102020264
:1032D30002028002100261023A004100630273029B
:1032E300720262024302000213023800000200026B
:1032F300040212020002000200020002040204029D
:10330300370037003C024402000239000002000289
:103313006502000235028102000205028202830275
:103323000002030471040204600411047004020423
:10333300020401040204100461040004140463047D
:1033430073047204620443040004130406040004B7
:1033530000040404120400040004000400045104E3
:103363006400000400040004440400040004000496
:1033730000046504000435048104640005040004AA
:103383008304000436000100060000000F00000063
:103393000000000000000000000003FFFF00000425
:1033A30003FFFF0000FFFF0FF4010005C404032027
:1033B300000100000B000000000000000003010FEB
:1033C30000000000000000000000000000000000FA
:1033D30000000000000000000000000000000000EA
:1033E30000001300291D1F002F1D1F80351D000025
:1033F300AD1D0100AD1D0200AB1C0280A51C030026
:10340300B11C0400B71C0480BD1C0500C31C0600CE
:10341300CF1C3000ED1C3100E71C3200F91C3300D7
:10342300FF1C3500051D34000B1D3600111D110056
:103433001D1D1400231D1500E11CFFFF000075195D
:103443009F197B19B5188119A5198119B119871904
:10345300B5188119A5198D19B51800000000931925
:10346300B51800000000000000009919B51800000D
:103473000000000000000000000000000000000049
:103483000000000000000000000000000000000039
:10349300000000000000000000000A00000002001D
:1034A30000000400000008000000100000002000DD
:1034B3000000400000008000000000010000000246
:1034C30000000004000000080000001000000020BD
:1034D300000000400000014126067126086B260B00
:1034E3008F26102923024726055F26074D260C2920
:1034F300260D3526640D21FF0000030003000400A0
:10350300080010001F003E007B00F600EC01D7030B
:10351300AF075D0FB91E713D000007ECFDFDFDEC2B
:10352300DCDCCCBCACAC9C9C8C7C7C6C6C5C5C5C58
:103533004C4C3C3C2C2C1C1C03EAF5E5D5D5C5B5FD
:10354300A595958585757565655555454535352528
:103553002515150500160F00000B150B020002229E
:103563000F3300000E0F5A6967426565416C6C6941
:10357300616E636530390000000000000000000048
:10358300000000000000D0D1D2D3D4D5D6D7D8D9EB
:10359300DADBDCDDDEDF00034D4C4651181A25056E
:1035A30002303017181921301B1D1F30003C4042D8
:1035B3003A3F3F392F4730000119161816161823C2
:1035C3000300303016181920231A1C1E300C0E026B
:1035D3000B040B0A0708000F020402010101010991
:1035E3000200BE040AE80300000000E80303007FB2
:1035F300000E0001000000040409100803030A0C74
:103603000510001E080C281EFF000209033C0C05D0
:1036130008151504E4F0A3F0A3F0A322123617F063
:1036230022901CC5124C23122A312212363222E078
:10363300F508E4F509F50AF50B22E824FBF582E920
:1036430034FFF58322E82411F582E439F583E0227F
:10365300F58312365922E0F508A3E0F50922122C6E
:10366300AD7404120D657F08020AFB7401F0900625
:10367300D3E0640F227409120D657F04020AFBEA8A
:103683002413FAE43FFB122BDBE9227905122BE723
:10369300740622A3A3E024F5C3941322122CB99039
:1036A30006F3126BE17A147B0022C082C083901C64
:1036B300A47425F0A3742AF0A37437F0A3742AF03A
:1036C300901CA8740DF0A3742AF0A37407F0A374DC
:1036D3002AF0A37443F0A3742AF0A37449F0A374EB
:1036E3002AF0A3743DF0A3742AF0A374F5F0A37435
:1036F30029F0901CB47419F0A3742AF0A3741FF07A
:10370300A3742AF0A37413F0A3742AF0A3744FF0E4
:10371300A3742AF0901CC51255F26009901CC512BF
:103723004C1F12178F901CC2124F39740812628EED
:10373300A3F0901D6EF0901CC7F07C0BFDF97AC8C6
:103743007B1C1216BD7C0B7D0079007AD37B1C1287
:1037530016BD024D9374F712084374F7120E18EA5C
:10376300FEEBFF1237EB74051250577403F0123956
:10377300021250392430FCE43FFD8C821237E312ED
:1037830037F7600812401074FFF0A3F0EE242EE424
:103793003F1C1CFD8C82F583A3E0C0E08A828B83EF
:1037A300124CEBD0E01237F7888289831255262416
:1037B30003F0EE12401A1210867403F09006E8121A
:1037C3000BBA7402120DF8123BE4120D65E9F50809
:1037D3007007EEFAEFFB122AC1A908740902402907
:1037E300F583E08882898322EA1237F02212573563
:1037F3003FF5832212650E125045E8F0A3E91267E4
:10380300E5E02274F0120843EAFEEBFF8C0C8D0D09
:10381300890B123902F58312504D7410121086E091
:10382300F508A31237E5F0E824FFF582E9123BF629
:10383300E508F0E824FEF582E9123BF6E50BF0908B
:1038430006EDE0C0E0E824FDF582E9123BF6D0E0A6
:10385300F09006ECE0C0E0E824FCF582E9123BF6C8
:10386300D0E0F0741212108612365512363DE50977
:10387300F0E824FAF8E934FFF98882F583E508F0E3
:10388300EE2404FCE43FFD88088A828B83E0F50E76
:103893008C828D83E0250EC3950812650E124E733C
:1038A300850C82850D83A3A3A3A3A3A3A3A3E06491
:1038B300037009EE125027F0A3E48003123BFB12BE
:1038C3003C037409F07508C875091C750A0078086B
:1038D300120D84125FD8120D657508FF7509FF7804
:1038E30008120D88AC0CAD0D123BE4120D65E9F521
:1038F300087007EEFAEFFB122AC1A908023669EA3B
:103903002402FAE43FFB8A8222C082C083901CE433
:10391300E0C39408400474078001E08A828B83F03B
:1039230033333354F8F9024D9374F01208438A0881
:103933008B09890A8C0E8D0F750C00A2AFE433F549
:103943000BC2AF901CDE8045123A2E503D123A480E
:1039530064037036E50824F9F508E50934FFF50931
:103963008E828F83A3A3E02405FCA3E03400FDAA89
:1039730008AB09121879E50824FFF508E50934FFB7
:10398300F5097410250CF50C150A123E1D126F96DD
:10399300E50A6004EE4F70B0E50BA2E092AFA2AF70
:1039A300E433F50BC2AF901CDE803E1254FF8882D5
:1039B300F583124773850882850983F08A82898398
:1039C300123A3FA3A3E0C0E0E50824FFF582E5092E
:1039D300123BF6D0E0F0E50824FEF508E50934FFD4
:1039E300F509050C150A123E1D123C716021123AAD
:1039F30048640270F1123A2EEE40B012516EA2E505
:103A030050E4850E82850F837401F0E50A70D7E5D3
:103A13000BA2E092AF850882850983E50CF0E508E7
:103A230024FFFAE50934FFFB023669123A34A2E6B1
:103A330022EE2411F582E43FF583E022123A432279
:103A4300125544A3228E828F83A3A3124CEF125CE0
:103A53001B2274F012084374F3120E18740312102D
:103A630086E9F07402121086EAF08B0B85188285C2
:103A73001983E4F004120DF01229D7E9F89006D265
:103A8300E0292437F508FA7B001216D58A0C8B0D32
:103A9300AE0CAF0DEA4F7003023BDBEA2402F50ED6
:103AA300E43FF50FA808EA28F8E43BF9850E828580
:103AB3000F8312456F9006D2E0F9FAC3E49AFA95A0
:103AC300E0FB850E82850F83E02AF50CA3E03BF52E
:103AD3000D9006D0123655750A007808120D84E948
:103AE300FC7D00AA0CAB0D124FA9120D65AC18ADED
:103AF300197401121086E0F9E50C24FFFAE50D3480
:103B0300FFFB1229DD8A828B83E4F0E50BC454F0BA
:103B1300F9901D6FE0C4333354C0F89006CCE0A293
:103B2300E0E43313134849440FC0E0EA24FFF5826D
:103B3300EB123BF6D0E0F0EA24FEF50CEB34FFF594
:103B43000D7403121086E0F87402121086E0C45458
:103B5300F048850C82850D83F0A80C850E82850FB5
:103B63008312625B2AC3988E828F83A3A3A3A3F0DD
:103B7300850E82850F83E8F0A3E50DF0123BFB125F
:103B83003C03E4F0740C121086E4F07508D3750955
:103B93001C7808120D84125FD8120D658518828572
:103BA3001983E06009EE240E1251704408F0122BC1
:103BB300C9E9F9E4F508F5097808120D88740612C5
:103BC3000DF8123BE6120D65E97006EEFAEFFB8085
:103BD3000BEEFAEFFB1216DB7A007B00740D023654
:103BE300667903EEFAEFFB122BE1740222EE24FF57
:103BF300F582EF34FFF58322EE1237F0E4F0A322CF
:103C0300F0123C0822EE125EFB3FF5832274F2129F
:103C130008438A0C8B0DA2AFE433F50AC2AF7508D3
:103C230000750900901CDE802C123E2D5024850C5B
:103C330082850D83A3A3125FEB8E828F83A3A312CE
:103C43004C1F122BCFE9600A123E28C2E6F08E0801
:103C53008F09123E1D123C7170CFE50845096006BD
:103C6300123D0AD2E6F0E50AA2E092AF800DE0FE33
:103C7300A3E0FFEE4F227402120D657F06020AFBDA
:103C830074F01208438A0E8B0F8C0C8D0D750A008D
:103C9300A2AFE433F50BC2AF7E007F00901CDE8041
:103CA30010AE08AF09123D0212516ED2E7F0124B6B
:103CB300FD124C116034123D0AA2E750F1850882CF
:103CC300850983A3A3120BBAAC0CAD0DAA0EAB0FDF
:103CD300122BD57402120D65E960D3EE4F60C21248
:103CE30040A47006123D1CD2E4F0E50BA2E092AFB3
:103CF300EE4F6006122ABB750A01A90A0236691241
:103D03003A34D2E4F0EE22E508125F153509F58363
:103D1300E022AA82AB831218798E828F83A3A31227
:103D23004CEFE02274F212084374FE120E18750C65
:103D330000750D00851882851983E4F0A3F0A2AF06
:103D430033F50AC2AF901CDE126F96802BEE24FB74
:103D5300F582EF34FF123653780C120D88123E0BA6
:103D6300120D65EEFCEFFDAA18AB191216F9AE0899
:103D7300AF09901CE4E014F0EE4F602B123E2D507F
:103D83001DEE240BF8E43FF98882F583E024FFF06D
:103D9300A3E034FFF0888289831255F260AF8E0C62
:103DA3008F0D123E1D80A1E50AA2E092AF901CE4A4
:103DB300E0602C9006D3E0640F6006901D6EE07007
:103DC3001E7ABC7B1C122CB990953C120BB67ABCA4
:103DD3007B1C124E1B120D65800574F0124CFCAA5D
:103DE30018AB191216FF8A088B09AE08AF09EA4F00
:103DF30060131229E9123E28A2E28E828F83A35018
:103E0300D974E980D7023C79EEFCEFFD7ADE7B1CA6
:103E130012170B7402228E0A8F0BEE24FBF582EF2E
:103E230034FFF58322EE123A3522123A34A2E72206
:103E330074F7120843EAFEEBFF1229E9124CE81269
:103E43002E74E964019006EF700AE02401F8A3E000
:103E530034008003124C6EF9125370124E73901C8F
:103E6300E4E0701F9006D3E0640F70177ABC7B1CEC
:103E7300122CB990953C120BB67ABC7B1C124E1BCC
:103E8300120D65A8A8C2AF901CE4E004F0E8A2E715
:103E93008004E508A2E092AF02527E74F712084351
:103EA300EAFEEBFFEA123ED4F01229E9EEFCEFFD45
:103EB3007ADE7B1C121705A8A8C2AF901CE4124738
:103EC300C29006D3E0640F70057908122B81025269
:103ED3007E123A35C2E42274F712084374EA120ED2
:103EE30018EAFEEBFF9006CCE0602A85188285195C
:103EF300837401F0121086E4123F8F121086123D74
:103F030015C0E0740A121086D0E012627B740B12A3
:103F130010861254DB741602402974F7120843EA20
:103F2300FEEBFF1229CBE9F974DC69601E74DD69CD
:103F3300601974E469601474F369600F74DE696076
:103F43000A74DF69600574DB697007EEFAEFFB1230
:103F53002B8702527E74F712084374EB120E18EA91
:103F6300FEEBFF8518828519837406123F8F1210AA
:103F730086AA82AB83121879EE2408FCE43FFD7411
:103F83000A1210861254DB7415024029F0EA241336
:103F9300FCE43FFD74022274F712084374F7120E17
:103FA30018EAFEEBFFEA2430125170605DEA12401A
:103FB3001A1210867403F09006E8120BBA1240101E
:103FC300120BBA9006FBE0F97404120DF8EEFAEF47
:103FD300FB1229D17404120D65E9F974DC696023BD
:103FE30074DD69601E74E469601974F369601474A4
:103FF300DE69600F74DF69600A74E869600574DB69
:10400300697007EEFAEFFB122B870237DEEE242EE0
:10401300F582E43FF583221263ECAA18AB19121858
:10402300797408227403120D6502527E74F2120829
:10403300438A0C8B0D750A00750B007508E7A2AF58
:10404300E433F509C2AF901CDE8003123E19123C23
:10405300716025123E2D50F31240A470EEEE24320F
:1040630012423BE06870E4780A120D88123E0B128C
:104073000D65901CE4E014F0E509A2E092AFEE4F69
:104083006013EEFAEFFB1229E979F0EEFAEFFB1277
:104093002B87750800A908AA0CAB0D122B87023CCD
:1040A3007E123C08E064012274F412084374F71290
:1040B3000E18EAFEEBFF8A82F583A3E064F3700334
:1040C3000241498A828B83A3E064DF60798A828B11
:1040D30083A3E064E8606F8A828B83A3E064DB6080
:1040E30065122A2BE9F5087055EE240E1251706003
:1040F3004D12415360487408121086124162120B2C
:10410300BA7508FF7509FF7808120D888E828F83B0
:10411300A3A3A3A3A3A3A3A3E0F97404120DF8120A
:1041230029D17404120D65E9F50874F369600F74FD
:10413300DF69600A74E869600574DB69700F8E8259
:104143008F83A3E508F0EEFAEFFB122A37023678E5
:10415300EE240FFAE43FFB7909122A6DEA4B22742D
:10416300021259E174FFF0A312416F2212552FA3DB
:10417300A32274F1120843EAFEEBFF7508008A825A
:10418300F583A3A3A3A3A3A312369640037508E85C
:104193008A828B83A3A3A3A3A3A3A3A3A3A3E0C301
:1041A300941040057508E880138A828B83A3A3A328
:1041B300A3A3A3A3A3A3A3E0640F600B901D4BE0F1
:1041C300540870037508E8EA240B12423BA3A3A327
:1041D300A3A3A3A3A3E0C398500DEA240B12517029
:1041E300640F60037508E89006ECE0F47003A3E045
:1041F300F470037508EC7A237B001217898B0BA9E3
:104203000B901CC512424A60278E828F83A3A3A9F9
:1042130082AA83890C8A0D750E00780C120D847C9A
:10422300237D00901CC5E0FA124FA9120D6580038F
:1042330075081AA908025FD3F582E43FF583E0F815
:104243008A828B83A3A322EAF0A3EBF0EA492274C8
:10425300F5120843EAFEEBFF8A82F583A3A3A3A327
:10426300A3A3A3A3E09006D31242E2E09006EEF0EC
:10427300EA240B1251709006CE1242E2A3E0901D85
:104283006FF0F9121441901D6FE0600BEE240412DD
:10429300516224061242D8901D6E12366E60047469
:1042A3000180027400901CC7126926120D847C0BD6
:1042B3007D007AC87B1C124FA9120D65EE2418F5F8
:1042C30008E43FF5097808120D847C0B7D007AD34E
:1042D3007B1C024F96FAE43FFB79E1121429221268
:1042E3006910A3A3A3A32274F7120843EAFEEBFF0A
:1042F3008A82F583A3E07003123624126497025274
:104303007E74F7120843EAFEEBFF901CC51255F2C8
:104313006010901CC5124C1F901CC5E4F0A3F01252
:10432300178F8E828F837408124D03121FD502528A
:104333007E74F6120843901D6EE06010901CC7E077
:10434300700A124352EA4B6003122AC1026591902C
:1043530006CEE0FB9006EEE0FA9006D3E0F91229D0
:10436300E32274F412084374E7120E18EAFEEBFF1B
:10437300750B018A82F583A3A3A3A3A3A3A3E0A23E
:10438300E25069EA242BF582E43F125FE9EA241341
:10439300FAE43FFB1229EFE97052909461E0640163
:1043A3007005750B008045124424120D847C0B7D2F
:1043B300007411120DF0124FA9120D65122BC9E9E9
:1043C300FA740E120DE8880889097808120D8875A9
:1043D30008307509007808120D88EE126244120B3A
:1043E300BA1263DE7901123690120D658518828543
:1043F30019837410F01263DE7402121086AA82AB62
:104403008312186DEE242B126BD7740B12108612C5
:104413004E73740D121086E50B1266507419023632
:104423007AEE240812692E22C082C083901D6FE0A9
:104433006003122C3B024D93C082C083901D6674AF
:10444300A4F0A3741CF0A374A8F0A3741CF0A374C9
:10445300B4F0A3741CF0901ED97425F0A37433F048
:10446300901D5074C5F0A37429F0901CE974FBF0FF
:10447300A37429F0901CEB7401F0A3742AF0901D2F
:104483004BE04402024897C082C083EAFCEBFD790B
:104493000302559EC082C0837908026711C082C09F
:1044A3008374FE120E18901CF174A9F0A3742AF001
:1044B300901CF374A3F0A3742AF080077ADE7B1CAC
:1044C3001244FC901CDE1255F270F1901CE0125560
:1044D300F260097AE07B1C1244FC80EF901CDEE45E
:1044E300F0A3F0901CE4F0A3F0A3F0901CFF74E59C
:1044F300F0A3742AF07402801C1216FF85188285BB
:104503001983EAF0A3EB124510122BB722F0AA1875
:10451300AB19227411120D65024D9374F612084300
:10452300E9FF74AF29F582E43435F583E493FEFAA9
:104533007B001216D5EA4B6007EA2E12456C8026E3
:104543007A027B001216D5EA4B601774A42FF5820A
:10455300E43435F583E4938A828B83F0A3741A12CF
:1045630049357A007B00026591124E62E812650BB1
:10457300A3A3A3A3E4F022E9FC740629F8EAA2E0CA
:10458300501EE875F00A84E5F0F96014740A28C334
:1045930099F8E9C394054004740A28F8740B28F8C1
:1045A300ECC394134004791480027906E829790056
:1045B3002409F85001097A0A7B00120664E8F9021B
:1045C3000D32C082C083901D4BE05402600A121F5B
:1045D300DBE96004790180027900024D93C082C057
:1045E30083901D4BE054026014901CE4E0700A12A7
:1045F30055EF6009124605500479018002790002E3
:104603004D93123648A2E722C082C08390945EE0A5
:10461300F8901CE6E0C39850051216D580047A0082
:104623007B00024D93C082C083122BB77900024DE9
:1046330093C082C08374FE120E1885188285198375
:10464300EAF0A3EB12479EA3A3A3A3A3E0600A147B
:10465300605724FE605A02470E9006D3E0640F6051
:1046630012122B8DE9700C124C19901CED124CEBAD
:10467300122E749006FBE0C0E08518828519831220
:104683005512D0E012479E7414125F2FFCA3E0FD75
:104693007AE07B1C1216F9A8A8C2AF901CE6124759
:1046A300C27920122B810244F8124A6C741580D906
:1046B300124A6CA3A3A3A3E06051124A6C123D20DB
:1046C300C0E0851882851983E02406F582E43BF572
:1046D30083D0E0125F2F2402F8A3E03400F988822C
:1046E300F583E02401FAA3E03400FB88828983EA9E
:1046F300F0A3EB125F2F124AAC85188285198360F1
:104703001312477360051247854048AA18AB191264
:104713002BB7809212477360F212478550211247DC
:1047230092FA851882851983A3E0C82406124A6881
:10473300F874DA1257273435F583E4936A601485E5
:104743001882851983124773640870BF12479264F5
:104753000870B8124792141247A6240AC0E08518BD
:1047630082851983124CEBD0E01247A60402468CD3
:1047730012477722124C6EC82406F582E438F5837B
:10478300E022851882851983124777C3940A22850C
:104793001882851983123A43A3E0221247B0F583A6
:1047A3008882221247B0C82406124A9622F085183E
:1047B30082851983124C6E22A8A8C2AF901CE5E033
:1047C30004F0E8A2E792AF22C082C083901CF512E6
:1047D30055F26008124A73122E7480027900024D5A
:1047E3009374F7120843EAFEEBFFEA123C097401E3
:1047F300124E21F8A3E0F91237EB124E73EA243577
:10480300125170C0E0EA2413F582E43FF583D0E04F
:10481300F0EA2436125170C0E0EA2414F582E43F32
:10482300F583D0E0F0EA2438125170C0E0EA24188E
:10483300F582E43FF583D0E0F0EA242FF582E43FEC
:10484300F583120BBA1263EBEA2431125170F91299
:104853003BEA120D65E9F5087007EEFAEFFB122A41
:10486300C1A90802527EC082C083122B8DE9600465
:10487300792080027901024D93C082C083EA24111A
:1048830012488DD2E0800DEA240DF582E43BF583D6
:10489300E022F0A3F0024D93C082C08312488A64E1
:1048A30001701112492F400C8A828B83A3E0F91205
:1048B3002B878066124920A2E650128A828B83A33B
:1048C300E0F9901CEF124CEB122E74804D12488AC3
:1048D3006401700D12492F50088A828B83743080D3
:1048E300368A828B83A3E0641B8A828B8370047471
:1048F300228024A3E0700D12488AF874C51257274A
:104903003435800B12488AF874A41257273435F5CE
:1049130083E4938A828B83124935024D931249248F
:1049230022EA2410F582E43BF583E022124924A213
:10493300E322F0901D46E0F91216E12274F7120803
:1049430043E9FE1255EF7003024A65EE6014741BCF
:104953006E701AE8125EFB39F583E064057003029A
:104963004A3D901CE8124A73A3E4024A4474E96E78
:104973007068E82412F582E439F583E0700B121FA6
:10498300E1E96005124AB6606179EE1213AB901C3F
:10499300E7124A8D901CE7603A124AB9901CE770FF
:1049A3000B124A8D14F0121561024A65124AABC20A
:1049B300E7124C54240D124A6864037009124A86A4
:1049C300124C0AD2E2F079ED1213AB124A9E122E68
:1049D300748078124A7974E9806774E16E703E12CC
:1049E3001FE1E96055124AB670509006F5E0C0E049
:1049F300124A862412F582E438F583D0E0F090065B
:104A0300E4E0C0E0901CE7124A82124A82D0E0F050
:104A13009006E4E004F079011215498045741C6E98
:104A23007018901CE7124C1F901CF7124CEB122EBF
:104A330074901CE7E4F0A3F08028901CE7124A79F5
:104A4300EEF0901CE7124C1F122AAF124C35E054C3
:104A5300806003126700901CE7E4F0A3F079101262
:104A63002B8102527E124A9622851882851983A3CE
:104A7300E0F583888222124A7D22124CF3A322128C
:104A8300554022901CE7125521221255212412125F
:104A93004A9622F582E438F583E022901CE7124C13
:104AA30023901CEB124CEF22E0F8A3E0C824101271
:104AB3004A9622901CE7124C3CE054042274F412F0
:104AC3000843750A00750B00A2AFE433FEC2AF12B0
:104AD30055EF6003024BB3124CE8122E74E94410F5
:104AE300F8901CDE800985080A85090B124BFD121C
:104AF3004C117003024BB3123D0A586870E8780AF0
:104B0300120D88AC08AD09123E0F120D65901CE71B
:104B1300E508F0A3E509124C54124C0AA2E750032E
:104B2300024BBA901CE5E014F0EEA2E092AF901CA9
:104B3300E7E0240EF8A3E03400F9E8FEE9FF8882F9
:104B4300F583124C1F901CE7124798F9122A73E958
:104B5300901CE212628E8E828F83E0548060181262
:104B63004A862413124A68F9121465124A862414D9
:104B7300124A68F9121459124C35A3E05401605FCC
:104B8300901CE21255F26045124C4B6040124C4BA4
:104B9300F87900901CE2124C1F12066CE8C0E01278
:104BA3004C29D0E0124C59C3941340117402800F66
:104BB300EEA2E092AF8037901CE4024B297400C050
:104BC300E0901CE8E0C8124BF4D0E0800D124C29B1
:104BD3007401124C54124BF47401F07903800C905D
:104BE3001CE7124AABA2E1B3E433F91215490236CA
:104BF3007D241AF582E438F58322E50824FBF58247
:104C0300E50934FFF58322125F15124A9922123601
:104C130059E508450922851882851983124C2322F8
:104C2300E0FAA3E0FB2212551E2419F582E438F5BD
:104C33008322901CE7124C3C22124C6EC8124C4447
:104C43002212573538F5832212551E2418124A961C
:104C530022124C66C822124C66F5838882A3A3A352
:104C6300A3E022F0901CE7124C6E22E0F8A3E022AE
:104C730074F7120843EAFEEBFF122BB112516DA237
:104C8300E3400A1240A4700590945C800390945D05
:104C9300E0F9EEFCEFFD7ADE7B1C121711E96038B8
:104CA300EEFAEFFB901CF1124CEB122E74EE240E75
:104CB300125170540470121247BBEE1237ECA3E08A
:104CC3005401701E122ABB8019EEFAEFFB901CE907
:104CD300124CEB122E74800A8E828F83A374F1120E
:104CE3004CFC02527E901CF3124CEF22124CF32226
:104CF300E0F8A3E0F583888222124D03122AAF2243
:104D0300F0EEFAEFFB22024D8C74F7120843EAFE31
:104D1300EBFF7900901D4BE05402700CEA24331230
:104D230051705404600279E8901D4BE05460700C9C
:104D3300EA24331251705402600279E88A828B8329
:104D4300A3A3A3A3E0F8909462E0C398500279E888
:104D5300EA2431125170700CEA242E12517070043F
:104D630079F5800BE97005122A9DE9F9E96007EEF0
:104D7300FAEFFB122B8702527EC082C0838A828B9A
:104D830083740DF0121FD58007C082C083122ABB23
:104D9300D083D082020D3274F4120843EAFEEBFF93
:104DA3008A82F583E4F0A3124E21540490945C703C
:104DB30012E0F8901CE5E0C398401279F1122B87BA
:104DC30002367DE0F8901CE4E0C39850EE124E27C3
:104DD300A3E054016037EA2437125170C3940540AD
:104DE30033EA2433125170540570297AF97B1C126B
:104DF3002CB9EE2437F582E43FF58312362E78087A
:104E0300120D807AF97B1C124E1B120D65EEFA12FD
:104E1300581880AC79E880A5122CAD740422F012E6
:104E23004E27E022EA2433F582E43FF5832274F629
:104E3300120843E9FE2451FAE43400FB1216D5EAC2
:104E43004B6015EE8A828B83A3A3A3A3F0EA2451BC
:104E5300124E62124E7380047A007B00026591F851
:104E6300E43BF98A828B83A3A322126BE1901DC3D7
:104E7300E8F0A3E9F022024D8CC082C083901D02AA
:104E8300740FF0A3742BF0A3743FF0A3742BF0A35F
:104E93007415F0A3742BF0A3741BF0A3742BF0A36D
:104EA3007439F0A3742BF0A3742DF0A3742BF0A327
:104EB3007427F0A3742BF0A37445F0A3742BF0A311
:104EC300744BF0A3742BF0A37451F0A3742BF0A3D1
:104ED300745DF0A3742BF0A37421F0A3742BF0A3DF
:104EE3007409F0A3742BF0A37403F0A3742BF09054
:104EF3001D1E7433F0A3742BF0A37457F0A3742B0B
:104F0300F0A37471F0A3742CF0A37463F0A3742B57
:104F1300F0A37469F0A3742BF0901D42E4F0901D8C
:104F230045F0901D2E124F397402F0901D37124F29
:104F33003974010248977481F0A3742BF0A322748F
:104F4300F512084374F1120E1885188285198374BB
:104F530002F07401121086E9F060047AFF7BFF749B
:104F6300021210861259D675083A75091D750A0082
:104F73007808120D847C0B7D007407121086AA82B8
:104F8300AB83124FA9120D65AA18AB19121FD57462
:104F93000F8003124FA9120D657F03020AFB7C0BDE
:104FA3007D007A3A7B1D1216B174032274F712083E
:104FB3004374FD120E18851882851983740AF074E0
:104FC30001121086E9F07402121086EA126650028A
:104FD300402774F612084374F7120E18EAFEEBFF2B
:104FE300EA1250271250577402F0EA2428FCE43FD7
:104FF300FDAA18AB1912186DEE243112502D24336B
:1050030012604F120D887402120DF879831A1A1266
:105013003BE8120D65E9F5087007EEFAEFFB122A7B
:10502300C102658A1237F0740122F582E43FF583E9
:105033001236591254F7F583125045E8F0A3E9F0FC
:10504300EE2212504D8A828B8322E024FFF8A3E0E4
:1050530034FFF922F0A3E4F0EA123C092274F012BF
:105063000843126ABF12102F7808790C120754787C
:1050730008120D807A317B1D02366174F4120843E5
:1050830074C6120E189006D3E0640F600D85188263
:10509300851983742E1259F580227A287B1D1236C6
:1050A3009F12066C88088909E4F50AF50B78081243
:1050B3000D807A287B1D124E1B120D65743A023641
:1050C3007A74F5120843EAFEEBFF8A82F583A3E0C4
:1050D300F87078EA243012517064026007E06403C8
:1050E300600278E8EA2426F582E43FF583123698D5
:1050F300400478E88058E87052EA24261242D8EE39
:10510300243112516224301251706402700EEE2465
:1051130028126BD79006E2124E7380179006E27442
:10512300FEF0A304F0EE2428FCE43FFD7AD97B06CD
:10513300121879EE241B124427120D84124FA11268
:105143000D65EEFAEFFB122AFDE9F8E8600EE88E32
:10515300828F83A31263F3741712649D024F9CFA28
:10516300E43FFB7950121429EE22EE2410F582E479
:105173003FF583E02274F612084374F7120E189079
:105183001D45E070377401F0F9121513AA18AB1915
:10519300122BC375083A75091D7808120D88750816
:1051A300017509007808120D889006E8120BBA748D
:1051B30006120DF87A0312368E120D6502658C7491
:1051C300F712084312539E7004A374EBF0901D452D
:1051D300E0A2E25003C2E2F0E0A2E150051253AFB5
:1051E30080098E828F83742A12649D02527E74F426
:1051F30012084374FE120E181252A41254EAEC85DC
:105203001882851983125539E0F50B7015AA18AB6E
:10521300197953121429EE2413FAE43FFB794A1245
:105223001429124424120D84124FA1120D65124C3D
:1052330019A90B122AF1901D45E0A2E15003125364
:10524300B6901D45E4F0740202367A74F7120843EF
:10525300EAFEEBFF8A82F583A374EBF0901D45E031
:10526300A2E150077A0079EB122AF7EEFAEFFB126C
:105273002B2D8007EEFAEFFB122C2F7F01020AFB86
:1052830074F71208431252A4901D42E4F0901D4596
:10529300F07AFF7BFF8E828F83A3E0F9122AF180DD
:1052A300DA1253EF7A317B1D122CB92274F71208EC
:1052B30043EAFEEBFF122B2780BA74F7120843125E
:1052C300542CA3A3A3E060047400800274EB125275
:1052D300FD5003C2E2F0E0A2E15005125400801138
:1052E300A2E0500D8E828F83742AF0A374EB1264B4
:1052F3009DEEFAEFFB122AD380818E828F83A3F077
:10530300901D45E0A2E22274F6120843EAFEEBFF89
:10531300901D45E0D2E1F079011215138E828F833F
:10532300A3E07038122BC9E9FAEE240DF508E43F27
:10533300F5097808120D88750801750900780812B7
:105343000D88125370120BBAEE2402FCE43FFD12D7
:10535300368E120D65E98E828F83A3F08E828F8342
:10536300A3E060067A00F9122AF7026591EE240B96
:10537300F582E43FF5832274F712084312539E70BB
:1053830004A374EBF0901D45E0A2E25003C2E2F0E7
:10539300E0A2E150031253AF02527EEAFEEBFF7923
:1053A300011215198E828F83E0642022C2E1F0126C
:1053B30053B6227A008E828F83A3E0F9122AF72252
:1053C30074F71208431253EF8E828F83A3A3A3A310
:1053D300E060047400800274EB1252FD5003C2E2D9
:1053E300F0E0A2E150031254000252F4EAFEEBFF94
:1053F30079011215197A287B1D122CB922C2E112E8
:105403006921E0A2E4E433FA1253B82274F71208D4
:105413004312542C74EB1253025003C2E2F0E0A285
:10542300E150031253AF02527EEAFEEBFF79011201
:1054330015198E828F83A32274F7120843125451D5
:1054430002527774F712084312545102527EEAFE55
:10545300EBFF7A287B1D122CB9EEFAEFFB122B51CE
:105463002274F712084374EF120E18EAFEEBFFEAF8
:105473001263DF7AD97B06121867E96056851882B2
:105483008519837409F0740112108674EFF01254B5
:10549300EA7402121086EC125539A3A3E0C0E0743B
:1054A30004121086D0E0125526640870158E828F80
:1054B30083A3A3125512E0C0E07405121086D0E056
:1054C30080067405121086E412627B74061210863D
:1054D3001254DB7411024029AA82AB83122BF9AA5E
:1054E30018AB19121FD5221254F7F583125509FC74
:1054F300A3E0F922EE1254FFFB8882222402F8E48F
:105503003FF9E8FAE922124C6E8882F583E0221211
:1055130055212407F582E438F58322901CE7124CC9
:105523006EC82212552A2212552FE022F08E828F46
:1055330083A3A3A3A32212650B1255402212554441
:1055430022E0F8A3E0F5838882A3A322C082C0836C
:10555300122C3B024D93C082C083901D627402F0F3
:10556300A3741DF0A3741EF0A3741DF0901ED374D6
:1055730061F0A37432F0A374C3F0A37432F0901DEE
:105583004E74EBF0A3742AF0901D4BE044010248E3
:1055930097C082C083EAFCEBFD7902122B9F024D78
:1055A3009374F612084374FE120E18901D47125599
:1055B300F260077A477B1D122BB7901D4DE4F090E4
:1055C3000D971255F260208007AA18AB19122BB75A
:1055D300901D46E0F91216ED8B09A90985188285FD
:1055E300198312424A70E2740202658E901CE7121C
:1055F3006BE1E8492274F7120843E9FA7B00901D36
:1056030046E0F912171702527E74F712084374F03A
:10561300120E18EAFCEBFDE9FE8A828B83E0F87434
:10562300D01257273435F583E493C0E07401121088
:1056330086D0E0F0640B700DE98A828B83A3F012AD
:105643002C1D025722E07003025722640C600302F0
:105653005713741A6E700B7404121086E4F0A302CD
:10566300571274041210861259D6EA2432125EDFDE
:10567300C0E07403121086D0E012690C1210637438
:105683000612108612106F8C828D83A3A3A3A3A38B
:10569300A3A3A3A3126BDD740A121086E8F0A3E997
:1056A30012572CE054106009851882851983E48011
:1056B30013EC2412125EDFF89006F5E0C398851808
:1056C30082851983F0E0C0E0740C121086D0E0F0FC
:1056D300EC2415125EDFC0E0740D121086D0E0F0EA
:1056E300EC2416125EDFC0E0740E121086D0E0F0D8
:1056F300EC2417125EDFC0E0740F121086D0E012A4
:10570300572CA3E05401600874011210867411F041
:105713007402121086EEF07401120DF0121FD5748C
:105723001002402928F582E422F0EC1257353DF5AA
:105733008322240EF582E422C082C083901D4DE0B3
:1057430064037004790180027900024D9374F712A7
:105753000843901D4DE01257CB74D128F582741E77
:1057630039F583125C5DC2E7F01257D2A3E493FECE
:1057730025E0FCE433FD74D12CF582741E3D125FE9
:10578300E9EC4D6005EE901D4DF08A828B83E02598
:10579300E0FCE433FDE82CF582E93DF583E493FC7A
:1057A300C4540F25E0F8745C125727341DF5831297
:1057B30055F27005122C0B800CEC540F1257D212B9
:1057C3004CEB122E7402527E25E0F8E433F92225C5
:1057D300E0FCE82CF582E439F5832274F2120843E5
:1057E30074FE120E18890B8A088B0912587D125801
:1057F3006E601A126288F50A7808120D8412588AAC
:105803002402125FDF120D65125816800312589C92
:10581300023C79AA0CEFFB901D46E0F91216E12237
:1058230074F012084374FE120E18890B8A0E8B0F44
:1058330012587DF50812586E6027126288A808EA8C
:105843002812456C850E08850F09F50A7808120D94
:105853008412588A125FDD120D6512581679008082
:105863000512589C791A7402023666FA7B001216E6
:10587300D58A0C8B0DAF0DEA4F22749929F582E47A
:105883003435F583E49322A80B74BA1257273435C1
:10589300F583E493FC7D00EA22851882851983E56C
:1058A3000BF0791AAA18AB19122B8722C082C08376
:1058B300E9901D4602489774F612084374FE120ECF
:1058C30018EAFEEBFFEA542070308039A8A8C2AF73
:1058D300901CE6E0141247C48A828B831259C3904A
:1058E3001D491259D6122B93851882851983E064BA
:1058F3001560077A497B1D122BB77AE07B1C1216C1
:10590300FFEA4B70C7EF5480700C8016901D49EA74
:10591300F0A3EB1259E9901D46E0F91216EDEA4B9C
:1059230070EAEE5410600B851882851983742D126A
:1059330059F5EEA2E0500B85188285198374241261
:1059430059F5EE5402600B8518828519837425126C
:1059530059F5EE5404600B85188285198374261259
:1059630059F5EE5408600B85188285198374281243
:1059730059F5EE5440600D74011210861259DC740F
:105983002C1259F5EE5480600D74011210861259D1
:10599300DC742F1259F5901D471255F2601BA8A80D
:1059A300C2AF901D47124C1F901D47E4F0A312474E
:1059B300C4A3EAF0A3E91259E97A007B000255EA8D
:1059C3001259C722E0851882851983F022A3A3A365
:1059D300A3A3A3EAF0A3EBF022E41259E122F0859A
:1059E300188285198322F0122B937A497B1D122B7F
:1059F300B722124510122B9322C082C083901D49F7
:105A030012664B687002EB697007901D49E4F0A3BE
:105A1300F0024D9374F7120843EAFEEBFFEA4F706E
:105A2300031211CBA2AFE433F508C2AF8E828F838A
:105A33001255F26028E824FBFAE934FFFB901D4974
:105A4300125FEBE86C7002E96D7007901D49E4F09A
:105A5300A3F08E828F83E4F0A3F012178F023E959A
:105A6300C082C083901D7074FFF0A3742BF0A374E5
:105A730011F0A3742CF0A37417F0A3742CF0A37487
:105A8300CDF0A3742AF0A3741DF0A3742CF0A374B7
:105A9300C7F0A3742AF0A374D3F0A3742AF0901D63
:105AA3007E744DF0A3742CF0A37423F0A3742CF034
:105AB300A37429F0A3742CF0A37435F0A3742CF011
:105AC300A3742FF0A3742CF0901D6FE4024897C0C9
:105AD30082C0839006E2E064FE7003A3E0F47009E1
:105AE3007CD97D0612186D801C8A828B83A3A3A3A5
:105AF300A3A3A3A3A37402F09006E2126BDD8A8230
:105B03008B83124E73024D93C082C0839006ECC305
:105B1300E094FEA3E094FF4004790380027902023B
:105B23004D93C082C083125C668C828D83125C1B92
:105B3300687039740268701C8A828B83125B74E00C
