:020000040000FA
:06000000020FE3020609F5
:03002B00020DB50E
:03004300020C6943
:0300530002053E65
:1000830002059D0100F0FF0700080000FFFF0000CC
:10009300070400000003000147726F757000FF043E
:1000A30000100020FD00020000EB1500000000001E
:1000B300004B16000000000000C715000000000000
:1000C3000000000000D31500000000000000000045
:1000D30000000006FFFF1E01D5190000F9190000FA
:1000E300000000000000000000000000000000000D
:1000F300124261736564206F6E205449204343327A
:100103003533300101040100010005A0D901DDDA16
:10011300010400003A1A000000E8030000FFFFB4E6
:100123001A0188130000E803000064006400B801AA
:10013300A0BB0D00A0BB0D000202020704010105D4
:100143001E02051E020A0A0101010809080103B87B
:100153000B02803E0102FEFFE8030A050001FFFFD8
:10016300010A1401E00105030101FF0F10FEFF0363
:100173000003000300030003000300030003000364
:100183000005000A00140028004F009E000000F341
:1001930031000000008B3100000000FF000000FF71
:1001A30000120FF3601D1210027005191919801A3D
:1001B300120E97701F120EABC37003E66733191943
:1001C3001940071818182208080874FFF618F618BB
:1001D300F618F622120EAB6017121090702192F0EF
:1001E3001210997019501720F0140808080909090A
:1001F300E7F61819E7F61819E7F61819E7F62212C1
:10020300109960E6E869701F0808E62480F608E4A0
:1002130036F618547FB47F0CE654806007F6E41872
:10022300F618F622181822E9C6CC08C6CD08C6CEA1
:1002330008C6CFC0E0E8C0E0EAC0E0EBC0E009E9EF
:10024300F809E7FA09E7FBE6F918E6F8C3EC98EDD5
:1002530099EE9AEBC2E7F5F0EFC2E795F0500E6026
:100263000CEBCFFBEACEFAE9CDF9E8CCF8EAA2E74A
:10027300D2E7FAEB33FB13F5F0EEA2E7D2E7FEEF9A
:1002830033FFC5F013A2E730E601B313C5F0C3C0D3
:10029300E0C0F07F00C39BFB605E9418600F401DBD
:1002A30014601AD0E023F9D0E0F80203858AF0E95C
:1002B300486003D2F0E4AFF0FAF9F8803BEB30E4A6
:1002C3000D89F0EA6003D2F0E4AFF0F9CAF8EB303D
:1002D300E30D88F0EF6002D2F0AFF0E4CAC9F8EBA7
:1002E30054076014FBC3EA13FAE913F9E813F8EFB0
:1002F300135002D2E0FFDBEDD0E0C0E030E739C3BA
:10030300E49FFFF5F0EC98FC42F0ED99FD42F0EE2E
:100313009AFE42F0D0E0F9D0E0F8E5F0607AE92304
:10032300F9EE20E742D8028067C3EF33FFEC33FCDA
:10033300ED33FDEE33FE80EAEC28FCED39FDEE3AB9
:10034300FED0E023F9D0E0F84002801BC3EE13FE99
:10035300ED13FDEC13FCEF135002D2E0FF08B800DD
:10036300067F7F74FF802EEF3350178CF020F0024E
:1003730060100CBC000C0DBD00080EBE000408E8A4
:1003830060DFE933E813FFEE2313FE4F4D4C800883
:10039300E95480FFE4FEFDFCEE33EF33F47004FC1C
:1003A300FD7E80D0E0FBD0E0FAD0E0F8D0E0CFC60D
:1003B30018CEC618CDC618CCC6F92200120FF360AA
:1003C3004F1210026012E7548066F6120E977011F6
:1003D300121090703B090909F4F618F618F618F68E
:1003E30022120EAB701512109908080860EAE64451
:1003F3007FF618768018E4F618F622121099601624
:100403001210907012E4F608F608F608E65480F627
:1004130009090918181822EAC0E0EBC0E0ECC0E0B3
:10042300EDC0E0E687F0A4FBACF008E687F0A42C6F
:10043300FCE435F0FA1809E687F0A42C4B6002744B
:1004430001CA35F0FCE433FB09E687F0D2F7A42CAC
:10045300CB35F0FC1908E687F0A42BCC35F0FBE490
:1004630033FD0819E687F0D2E7A42C4ACB35F0CD4B
:100473003400FC09E687F0D2E7A42DCC35F0FDE487
:1004830033FA0918E687F0D2F7A42CCD35F0CA3435
:1004930000FC08E687F0D2E7D2F7A42ACC35F07A3D
:1004A3007E20E70B0ACB33CBCD33CDCC33CC33CB50
:1004B3003350147004ED30E00ED2F1E4CD3DCDCCD9
:1004C3003CCC3B5005DA05C2F1EB547FC63308E65A
:1004D3003392F0FBE73309E733C39A502D2B70199E
:1004E3000C0D4C4D70151806E608C333700D20F142
:1004F3000AA2F013F6E418800B4024E4F630F0026D
:10050300768018F618F618F68024D33B145010742E
:10051300FFA2F013F6187680E418F618F6800FA2FF
:10052300F013F618E63303F618ECF618EDF6D0E000
:10053300FDD0E0FCD0E0FBD0E0FA22C0E074F11281
:1005430008AFA2AFE433F509D2AF85A708AFA1EF97
:100553005508FE74105E600612135775A1EF7408F8
:100563005E600812135D75A1F78024EFA2E092F09C
:10057300E508A2E082F05017906198E0F89006BB7E
:10058300E0C398A2D265D0335002E8F075A1FEE52E
:1005930009A2E092AF7F0202096BC0E074F2120875
:1005A300AFA2AFE433FED2AF9061A4E0F8759B0035
:1005B300E59158540860087591F71213AB8023E551
:1005C3009158541060087591EF1213B18014E5919E
:1005D300A2E092F0E8A2E082F05007E0C2E0F0125D
:1005E30014FB9061A3E0F8E5E9585404600E12147B
:1005F300D175E9FB906193E0A2E640F2EEA2E092AE
:10060300AF7F0102096BC0E074F21208AFA2AFE43E
:1006130033FED2AF9061A5E0F8E5BF5854046006FD
:1006230075BFFB12151380D4C3E498F8E499F9124B
:10063300066C8026C3E49AFAE49BFBE920E7E912FF
:10064300066CE498F8E499F922C3E498F8E499F97C
:1006530012066CE498F8E499F9C3E49AFAE49BFB74
:1006630022EB20E7CFE920E7E0B90010BB0008E860
:100673008AF084F8AAF022E4FBC8FA22EB70227B0A
:1006830010C833C8C933C9335007C39AC3DBF280D8
:10069300069A50012ADBEAC833F4C8C933F4C9FA0D
:1006A3002275F008E4C833C8C933C933C99AC99B52
:1006B3005004C92AC93BD5F0ECFBC833F4C8E4C9DC
:1006C300FA2212070520F01430E72B74FFFCFBFA23
:1006D300747F8022E4FCFBFA7480801AB48008BC27
:1006E30000F2BB00EF800F50EBF9E4C39AFAE49BEE
:1006F300FBE49CFCE499C6CC18C6CB18C6CA18C642
:10070300F922E4C9C608CAC608CBC6D3330308CC4A
:10071300C63392F0C3947F402E94184019C9B90789
:1007230004CACBCC225025C309CA33CACB33CBCCA2
:1007330033CC33D9F422F4600DC9CCC313CB13CB20
:10074300CA13CAD9F6CC22E4FCFBFA2214FCFBFA46
:1007530022080808EAC0E0EBC0E086F0E7A4FA1834
:100763000986F0E7A42AFA180986F0E7A42AFA18FA
:100773000986F0E7A42AFA1986F0E7A4FBE5F02A34
:10078300FA190886F0E7A42BFBE5F03AFA19088674
:10079300F0E7A42BFBE5F03AFA18180986F0E7A472
:1007A300C5F02BFBE43AFA1908E7C5F0C6A426F610
:1007B300E5F03BFBE43AFA1886F0E7A4F6E5F00827
:1007C30026F6E43B08F6E43A08F6D0E0FBD0E0FA7C
:1007D30022E4CFC0E0E4CEC0E0E4CDC0E0E4CCC08E
:1007E300E075F020E626F608E633F608E633F60869
:1007F300E633F6181818EC33FCED33FDEE33FEEF59
:1008030033FFC3EC9709ED9709EE9709EF97191991
:1008130019400FFFEC97FC09ED97FD09EE97FE19C0
:100823001906D5F0BFECF709EDF709EEF709EFF775
:10083300191919D0E0FCD0E0FDD0E0FED0E0FF2292
:100843002518C582C0E0E51934FFC583C0E0E5186B
:10085300C3958224F810AF08858319858218800810
:10086300858319858218D2AFCEF0A3E520F0A37853
:1008730008E608F0A3DEFAEFF0A3E58124FAF8E630
:1008830008F0A3E608F0A3E608F0A30808E608F0DA
:10089300A3E608F0A315811581D0E0FED0E0F8159A
:1008A3008115811581E8C0E0EEC0E022C0D0251893
:1008B300C582C0E0E51934FFC583C0E0E518C395E0
:1008C3008224F310AF0885831985821880088583F5
:1008D30019858218D2AFC8F0A3E9F0A3EAF0A3EB1D
:1008E300F0A37908E709F0A3D8FAECF0A3EDF0A39D
:1008F300EEF0A3EFF0A3D0E0F0A3D0E0F0A3D0E0BC
:10090300F0A3E520F0A3E5F0F0A322E9799EC60861
:10091300CAC608CBC608CCC6C370207996CACBCC4E
:100923007019798ECBCC70137986CC700EF9802A2E
:10093300CA33CACB33CBCC33CC331930E7F2CCCB6D
:10094300CA3350147004EA30E00DE4CA3ACACB3B10
:10095300CBCC3CCC500209C3E913C6CC182313C635
:10096300CB18C6CA18C6F922851983851882E0C038
:10097300E0A3E0F9A3E0FAA3E0FBA37808E0F6081C
:10098300A3DFFAE0FCA3E0FDA3E0FEA3E0FFA3E006
:10099300C0E0A3E0C0E0A3E0F5D0A3E0F520A3E02E
:1009A300A3F5F010AF088583198582188008858325
:1009B30019858218D2AFD082D083D0E0F8D0E0324C
:1009C30012107BB90003020A02E490040178B179A2
:1009D3001A8002F0A3D8FCD9FA7AB17B1D90008665
:1009E300781F79028015E493A3AD82AE838A828B4C
:1009F30083F0A3AA82AB838D828E83D8E9D9E7756E
:100A0300820F7583AA7407120D2C75826375832E6A
:100A13007400120D2C75F0108E1A8F1B85821F85A2
:100A2300831E851882851983E0CEA3E0CF851F82BC
:100A3300851E83EBC9EAC8EDCBECCAC3E833C8E92A
:100A430033C9EA33CAEB33CBC3EA9EF51DEB9FF5FB
:100A53001CB35004AB1CAA1DEC33CCED33CDD5F045
:100A6300DAAE1AAF1B22D083D082ECC0E0EDC0E037
:100A7300E493A3FCE493A3FDED4C600D120B41EC56
:100A830024FFFCED34FFFD80EFE493A3FCE493A388
:100A9300FDED4C600D120C14EC24FFFCED34FFFD56
:100AA30080EFD0E0FDD0E0FCE493A3C0E0E493C08A
:100AB300E022D083D082E9C0E0E493A3C386F0C5EB
:100AC300F095F0F908E493A386F0C5F095F0700B68
:100AD300E493A3C3994005E9048002A3E475F002FB
:100AE300A42582F582E5F03583F583D0E0F9E4931C
:100AF300A3C0E0E493C0E022851983851882E0A3B4
:100B0300FEE0A3F5207808E0A3F608DFFAE0A3FFF0
:100B1300E0A3C0E0E0A3C0E0E0A3C0E0E0A3C0E046
:100B2300E0A3C0E010AF088582188583198008858B
:100B33008218858319D2AFD083D082020D32C0E0F0
:100B4300C3E49396087401939618400FE493667078
:100B53000808740193661870007019A3A3C3E49383
:100B630096087401939618A3A3400DD0E0D0E0D06B
:100B7300E0020AA5A3A3A3A3A3A3D0E022C082C03B
:100B83008374FE120E18851882851983EAF0A3EB8D
:100B9300F07C017D00AA18AB1979001212DF8518C9
:100BA30082851983E0FAA3E0FB7402120D65D083FA
:100BB300D082227404800474028000CCC0E0EDC0B3
:100BC300E0E518C39CCCAD1950011D10AF068C187D
:100BD3008D1980068C188D19D2AF120CAED0E0FDA2
:100BE300D0E0FC2274028000CCC0E0EDC0E0E51848
:100BF300C39CCCAD1950011D10AF068C188D198004
:100C0300068C188D19D2AF120C8CD0E0FDD0E0FC0D
:100C130022C0E0C0F088F0E4936670080874019382
:100C230066187000A8F0A3A3700BD0F0D0E0D0E05A
:100C3300D0E0020AA5A3A3D0F0D0E022D083D082D3
:100C4300CCC0E0E493A36006120D0D1470FAE49394
:100C5300A36006120E2E1470FAD0E0FCE493A3C036
:100C6300E0E493C0E022C0E074F21208AFA2AFE464
:100C730033FED2AFC2C0E5D1A2E450031212C7EED5
:100C8300A2E092AF7F0102096BCAC0E0E493A3C55F
:100C930082CCC582C583CDC583F0A3C582CCC58272
:100CA300C583CDC583DAE5D0E0CA22CAC0E0E0A39C
:100CB300C582CCC582C583CDC583F0A3C582CCC50F
:100CC30082C583CDC583DAE6D0E0CA22C008C3E07B
:100CD30096F50808A3E096420808A3E096420808A0
:100CE300A3E09645087001D3D008227009080808CC
:100CF300226016181818C6C333C608C633C608C6FA
:100D030033C608C633C6D5E0EA22C0E0E493A3D3D2
:100D13009C5010E493A3C39C400AD0E0D0E0D0E001
:100D2300020C5CA3A3A3D0E022C09FF59FE473D081
:100D33009F22D083D082C09FE493C0E0740193C00C
:100D4300E0740293F59F222518F58210AF08F51879
:100D5300400C15198008F51840021519D2AF8519F2
:100D6300832200C0D0251810AF08F518500C0519C0
:100D73008008F51850020519D2AFD0D02274048030
:100D83000A74038006740280027401C0E0F4041242
:100D93000D4AD0E012103E22BB0102E722C082C0FE
:100DA3008389828A83BB0003E08002E493D083D0EB
:100DB3008222C0E0C0D0E8C0E0A8A8D2AFC2C7E892
:100DC300A2E792AFD0E0F8D0D0D0E03260160808A6
:100DD30008C6C313C618C613C618C613C618C61347
:100DE300C6D5E0EA222518F8E43519F9222518FAC0
:100DF300E43519FB222518FCE43519FD22C3E0C6AE
:100E030096F608A3E0C696F608A3E0C696F608A3EE
:100E1300E0C696F622251810AF08F518400C1519F0
:100E23008008F51840021519D2AF22C0E0E493A35D
:100E33006C7009D0E0D0E0D0E0020C5CA3A3D0E05A
:100E430022E066701008A3E066700A08A3E06670EB
:100E53000408A3E06622C3E09608A3E09608A3E093
:100E63009608A3E096A2D265D03322E766701008F5
:100E730009E766700A0809E76670040809E766224D
:100E8300C3E096F008A3E096F008A3E096F008A369
:100E9300E096F022181818E60846087009E62608B6
:100EA3007005E633F4220822191919E70947097076
:100EB30009E727097005E733F4220922C3E493966F
:100EC3000874019396087402939608740393962208
:100ED300C3E697F60809E697F60809E697F60809C0
:100EE300E697F622E026F608A3E036F608A3E036F6
:100EF300F608A3E036F622E647F60809E647F608C1
:100F030009E647F60809E647F622700422600D1841
:100F1300C6C333C608C633C6D5E0F41822E657F66F
:100F23000809E657F60809E657F60809E657F622D0
:100F3300E056F608A3E056F608A3E056F608A3E049
:100F430056F622E056F008A3E056F008A3E056F068
:100F530008A3E056F022E627F60809E637F6080963
:100F6300E637F60809E637F622E026F008A3E0366E
:100F7300F008A3E036F008A3E036F022E493F60885
:100F8300740193F608740293F608740393F622E44B
:100F9300C396F608E496F608E496F608E496F62275
:100FA300600D08C6A2E713C618C613C6D5E0F32220
:100FB300C6F4C608C6F4C608C6F4C608C6F4C622F4
:100FC300C3E7960809E7960809E7960809E7962212
:100FD300C3E09608A3E09608A3E09608A3E0962250
:100FE30075D00075813F751801751904000209C396
:100FF300E6084608C3134608336002E633F422E7E3
:10100300094709C3134709336002E733F422600C2D
:1010130008C6C313C618C613C6D5E0F422E6F00803
:10102300A3E6F008A3E6F008A3E6F022E0F608A39F
:10103300E0F608A3E0F608A3E0F622CAC0E0E6F073
:10104300A308DAFAD0E0FA22E0FAA3E0FBA3E0FC7B
:10105300A3E0FD22EAF0A3EBF0A3ECF0A3EDF02272
:10106300E0F8A3E0F9A3E0FAA3E0FB22E8F0A3E9A8
:10107300F0A3EAF0A3EBF022E5C754F84401F5C767
:101083007901222518F582E43519F58322E727191A
:10109300471947194722E62618461846184622C21A
:1010A300AF75D69F02000022120D3571EF02120DAB
:1010B30035EDEF02120D3520F002120D354EF00220
:1010C300120D3572F202120D358EF202120D35D366
:1010D300F202120D3558F302120D35A4F302120D6C
:1010E3003534F402120D350DF502120D355EF5029D
:1010F300120D35C3F502120D3536F602120D357A8F
:10110300F602120D35D2F602120D35F4F602120D67
:101113003584F702120D3515F802120D3561F80208
:10112300120D358DF802120D35CEF802120D356F02
:10113300FA02120D3551FB02120D352DFC02120D70
:101143003596A107120D35D7A107120D35F1A10769
:10115300120D350DA207120D3536A207120D357784
:10116300A207120D35D6A207120D3540A307120DA3
:10117300359FA307120D35DCA307120D359AA4077B
:10118300120D350BAC07120D3526AC07120D355871
:10119300AC07120D3585AC07120D35AAAC07120D3D
:1011A30035D5AC07120D3500AD07120D3530AD073F
:1011B300120D35BABC07120D35CBBC07120D3569BC
:1011C300BD07120D3583BD07120D35E2FF01120D68
:1011D3003593A707120D35EAA707120D35A2A90704
:1011E300120D35C8A907120D35E87F00120D35CF52
:1011F300BF07120D35DFBF07120D35F4BF07120D00
:10120300353DC007120D35DCB807120D3560B9073F
:10121300120D35C8B907120D35FD7F00120D359932
:10122300FF06120D35BEFF06120D35D1FF06120D56
:1012330035DCFF06120D3540FC04120D354EFC045F
:10124300120D35C7FC04120D359CFD04120D356ECD
:10125300FF04120D3531C207120D355FC406120D9E
:10126300359BC406120D35E8C406120D35A0C6061B
:10127300120D352EC706120D35EFC706120D352494
:10128300C906120D3512CB06120D35EFCB06120D22
:101293003531CC06120D3516CE06120D354ACE0663
:1012A300120D350EF506120D357BF506120D35338D
:1012B300F606120D35A9F606120D35BDF706120D09
:1012C300354DF906120D35B6F906120D3505FA0638
:1012D300120D350EFA06120D351DFA06120D3533B1
:1012E300FA06120D3546FA06120D354FFA06120D9F
:1012F3003562FA06120D358EFA06120D3525FD06F6
:10130300120D3565FD06120D35A1FD06120D35B51D
:10131300FD06120D35CEFD06120D35BFFE06120D6C
:101323003571FF06120D3585FF06120D35A6B2077E
:10133300120D35CAB207120D35E3B207120D35216E
:10134300B307120D3551B307120D357EB307120DD6
:1013530035E4B307120D35E7B307120D35F1B307C3
:10136300120D35FEB307120D35ECA407120D350C23
:10137300A507120D354BA507120D3569A507120DEB
:101383003584A507120D35EAA507120D35F6A50715
:10139300120D3553A607120D3562A607120D3586B9
:1013A300A607120D3547A707120D3554A707120DCF
:1013B3003565A707120D3558BF07120D35A0BF07B6
:1013C300120D35CCBF07120D35E58907120D3541D6
:1013D3008B07120D354F8B07120D35628B07120DDC
:1013E30035778B07120D358C8B07120D359F8B07C5
:1013F300120D351B8C07120D35808C07120D351617
:101403008D07120D35EF8D07120D35FF8D07120D68
:10141300350E8E07120D3599BD07120D35BDBD076B
:10142300120D35E5BD07120D350DBE07120D358DB5
:10143300FD01120D35B4FD01120D35D2FD01120D62
:101443003541FE01120D3507FD02120D3520FD0257
:10145300120D352CFD02120D3540FD02120D355EC5
:10146300FD02120D3568FD02120D3572FD02120DDB
:101473003585FD02120D350BFE02120D3580FE027D
:10148300120D35AFFE02120D35FDFE02120D354C65
:10149300FF02120D3567FF02120D3571FF02120DA7
:1014A3003582FF02120D35C5FF02120D3515C10736
:1014B300120D3573E406120D359FE406120D35BC8B
:1014C300E406120D35CFE406120D35EAE406120DDB
:1014D3003544E506120D3572E506120D3582E9062F
:1014E300120D35E0EA06120D3512EB06120D3575B5
:1014F300EB06120D35E1EC06120D3509ED06120D62
:10150300351EED06120D352EED06120D356EED0668
:10151300120D35B0ED06120D35C0ED06120D3592E4
:10152300B607120D35ACB607120D35D4B607120D3A
:1015330035EDB607120D3511B707120D352FB70765
:10154300120D3546B707120D3574B707120D358FD7
:10155300B707120D35B0C107120D350D9E07120DD9
:10156300351D9E07120D35229F07120D35549F0717
:10157300120D35849F07120D35A79F07120D35BE37
:101583009F07120D35F89F07120D355DA007120D49
:10159300359FA007120D35E6A007120D3513A107DD
:1015A300120D353EA107120D3508B407120D35266D
:1015B300B407120D3588B407120D3522B507120D85
:1015C30035CFBB07120D35C2B707120D350AB80761
:1015D300120D3592AF07120D35F3B007120D354DCD
:1015E300B507120D3572B607120D350DDA06120D59
:1015F3003597DD06120D3593DF06120D35C5E0066E
:10160300120D359EE106120D352EE306120D35FA45
:10161300E306120D354EE406120D35D0AD07120D5B
:1016230035F1AD07120D352BAF07120D3555AF0749
:10163300120D35F6C107120D3506C207120D35100E
:10164300C207120D35919C06120D35949C06120D9E
:101653003570A406120D35C2A506120D3523A70653
:10166300120D35FAA706120D35D3A806120D35BC97
:10167300A906120D35B0AA06120D3568AB06120D78
:101683003598AB06120D3548AD06120D3542B1073C
:10169300120D3562B107120D3576B207120D357989
:1016A300B207120D35E1BA07120D3517BB07120D3C
:1016B300352FBB07120D3571BB07120D3581BB07E3
:1016C300120D35C5BB07120D35F0ED06120D352A87
:1016D300EE06120D3593EE06120D35B2EE06120D1F
:1016E30035CBEE06120D356DEF06120D3576EF068E
:1016F300120D35C7EF06120D35F0EF06120D35FD4D
:10170300EF06120D356EF006120D35FCF006120DC4
:10171300354AF106120D3580F106120D35E1F10659
:10172300120D350AF206120D3581F206120D35DD62
:10173300F206120D351AF306120D3551F306120D8A
:101743003563F306120D3575F306120D3594F30662
:10175300120D359DF306120D3558F406120D35A4FE
:10176300F406120D35E2F406120D3546C007120DCC
:1017730035008007120D35408107120D356381074F
:10178300120D35748107120D35938307120D35B38E
:101793008307120D35C2FD03120D35F8FD03120D3B
:1017A3003540FE03120D3599FF03120D356AE4052A
:1017B300120D359BE505120D35D7E505120D359153
:1017C300E705120D35BBE705120D3534EA05120D99
:1017D3003574EA05120D3508EC05120D35A7EC0535
:1017E300120D35FFEC05120D3592ED05120D35CCBA
:1017F300ED05120D350EEE05120D3581EF05120DB7
:101803003501F105120D353EF305120D356CF30567
:10181300120D3598F305120D35A1F305120D35FEA2
:10182300F305120D358EF405120D35CAF705120DA9
:10183300354CF805120D35CBFF05120D35E1FF05CB
:10184300120D35779207120D358D9207120D353132
:101853009307120D35709307120D358D9307120DF3
:1018630035BE9307120D350B9407120D353F9407C0
:10187300120D357A9407120D356F9607120D35E167
:10188300B907120D3540BA07120D357EBA07120D8E
:1018930035BFBA07120D35008005120D350C8005D2
:1018A300120D356E8005120D35788005120D350544
:1018B3008105120D35418105120D35048205120D86
:1018C30035178205120D35858205120D35ED82051A
:1018D300120D357C8305120D35FA8305120D359FE4
:1018E3008505120D35588705120D359E8805120D95
:1018F300351B8A05120D35C28A05120D35908F05E9
:10190300120D35879005120D35169105120D353BD5
:101913009105120D35D89105120D35F59105120D6E
:1019230035159205120D35869205120D35A39205D4
:10193300120D35D19205120D35699405120D358AB4
:101943009405120D35309505120D35789505120D58
:1019530035EA9505120D356D9605120D35D29605AE
:10196300120D352F9705120D35CE9705120D354201
:101973009805120D357E9805120D35EB9805120D5D
:1019830035559A05120D35D69B05120D35859C05E7
:10199300120D35E79E05120D35499F05120D35775A
:1019A3009F05120D358FA105120D351FA405120DCC
:1019B3003522A505120D35B07000120D35CE71001C
:1019C300120D35617300120D35067400120D3526A4
:1019D3007400120D35297400120D353C7400120D7C
:1019E30035817400120D35AD7400120D35FF74008E
:1019F300120D35177500120D35527500120D35C1D4
:101A03007500120D351D7600120D35B97600120DD5
:101A130035217700120D354D7700120D35087E0004
:101A2300120D35D3FF04120D352AA905120D35C940
:101A3300A905120D3545AA05120D3534AB05120D56
:101A43003532AC05120D35B1AC05120D35F3AD05CC
:101A5300120D3594AE05120D3554B005120D355BDC
:101A6300B105120D3578B105120D35A3B205120D6E
:101A730035E0B305120D358AB405120D35F4B705FB
:101A8300120D35FCB905120D3585BA05120D35DF7A
:101A9300BA05120D352DBB05120D35A8BB05120D68
:101AA300352ABC05120D3566BC05120D350AC30572
:101AB300120D3565C505120D3541C605120D3500EC
:101AC3008006120D35328006120D35B68006120DD2
:101AD30035198206120D35078306120D35CF84069C
:101AE300120D35F48406120D35468506120D35D8D0
:101AF3008506120D35248606120D35378606120D1E
:101B030035948606120D35038706120D35D08706E8
:101B1300120D353E8806120D35758806120D35BE39
:101B23008806120D35668A06120D35458B06120D91
:101B330035938C06120D35768D06120D35028E0601
:101B4300120D353B8E06120D355A8E06120D35A534
:101B53008E06120D35C58E06120D35828F06120DB7
:101B6300358F9006120D35A39006120D35F79006AA
:101B7300120D35529106120D359F9106120D35A7A0
:101B83009206120D352C9506120D35529506120D3F
:101B930035CD9506120D35F29506120D357996065B
:101BA300120D35559706120D35939706120D3517FD
:101BB3009806120D35029906120D35059906120D78
:101BC300350F9906120D35199906120D35359906FB
:101BD300120D35B19906120D35EA9906120D350627
:101BE3009A06120D35329A06120D35599A06120DC0
:101BF300357D9A06120D35B89A06120D352B9B06C4
:101C0300120D355F9B06120D35699B06120D35A526
:101C13009B06120D35BF9B06120D35E69B06120D72
:101C230035159C06120D35349C06120D354C9C0659
:101C3300120D355E9C06120D3560C107120D357805
:101C4300C107120D35E5FF01120D35A9F805120D77
:101C530035F8F805120D35B6FA05120D3570FC0589
:101C6300120D35AEFC05120D35A3FD05120D35AE73
:101C7300FE05120D35D0FE05120D351AFF05120DA6
:101C8300359BFF05120D35CBD904120D35EED90462
:101C9300120D354CDB04120D3595DB04120D35F3B3
:101CA300DB04120D3559DC04120D355CDC04120D16
:101CB30035ADDC04120D3527DD04120D35B5DD0419
:101CC300120D35B8DD04120D3540DE04120D3583D7
:101CD300DE04120D35F3E204120D3591E404120D06
:101CE30035CBE404120D3511E504120D3571E8040A
:101CF300120D35F6E804120D358EEA04120D359DEA
:101D0300EB04120D35CAEC04120D352AED04120D45
:101D13003506EE04120D3590EE04120D3593EE04E4
:101D2300120D3578EF04120D35BEF004120D357225
:101D3300F204120D3545F404120D35D7F404120DD7
:101D4300356CF504120D355EF604120D351EF804DC
:101D5300120D3534F904120D35A3FA04120D35E8CA
:101D6300FA04120D3593FB04120D3536C705120D17
:101D730035D1C705120D3544C805120D355FC805A9
:101D8300120D3500C905120D3547C905120D356A07
:101D9300CA05120D35ADCA05120D3529CB05120D35
:101DA300357CCB05120D35DBCB05120D35E8CC05A3
:101DB300120D3505D005120D353BD105120D35C475
:101DC300D105120D35C8D305120D356CD405120D8E
:101DD300350BD505120D356CD505120D35DBD50543
:101DE300120D3534D705120D351ED805120D355990
:101DF300D805120D3579D805120D352AD905120DDE
:101E03003567D905120D35F0D905120D356BDB0594
:101E1300120D3536DD05120D3591DE05120D350631
:101E2300E005120D3515E105120D35A2E105120D80
:101E3300350BE205120D3517E305120D35E3DA0113
:101E4300120D3546DB01120D358EDB01120D35CC3B
:101E5300DB01120D3527DC01120D3584DC01120D77
:101E630035BFDC01120D3541DD01120D359BDD015E
:101E7300120D350FDF01120D358DDF01120D35A562
:101E8300E001120D35CDE001120D351CE201120DFA
:101E9300352DE201120D3545E201120D355AE301EC
:101EA300120D3537E401120D3533FD03120D35588C
:101EB300E501120D356FE501120D3590E501120DA7
:101EC30035B2E501120D35D1E501120D35A5E60157
:101ED300120D35FFE601120D35A0E901120D35F99A
:101EE300E901120D3518EA01120D3503EB01120D4C
:101EF3003539EB01120D3573EC01120D35F2EC019E
:101F0300120D3529ED01120D3563ED01120D35D298
:101F1300ED01120D3593EE01120D356CF001120D2A
:101F230035C7D906120D35E4F201120D35E4F4017B
:101F3300120D355FF701120D3539F901120D35FA1E
:101F4300F901120D3572FA01120D3589FA01120DDC
:101F53003583FB01120D357BFC01120D35EAFC01C3
:101F6300120D357C9607120D352C9807120D35EBA3
:101F73009807120D35539907120D35C79907120D9E
:101F8300354C9A07120D356A9A07120D35AE9A072A
:101F9300120D35D49A07120D35FB9A07120D35131E
:101FA3009B07120D352B9B07120D35CD9B07120D89
:101FB300350F9C07120D35319D07120D353A9D07DC
:101FC300120D35439D07120D354C9D07120D3556E5
:101FD3009D07120D35F58407120D35298907120D5A
:101FE30035378907120D353C8907120D3598AA0735
:101FF300120D35C8BE07120D35D0FF02120D35B6CE
:10200300C007120D35C6C007120D353F8E07120DDE
:102013003532BE07120D355CBE07120D3500800444
:10202300120D35328004120D359E8004120D3539A0
:102033008104120D35D88104120D351D8204120D51
:10204300353F8204120D35588204120D357E820409
:10205300120D35A08204120D35DE8204120D3522D5
:102063008304120D35448304120D35A68304120D27
:10207300356D8404120D35248504120D35968504BF
:10208300120D35688604120D35B28604120D35051E
:102093008704120D356B8704120D35A58704120DC5
:1020A30035F78704120D35138804120D353E880465
:1020B300120D35458A04120D35998B04120D35BB6B
:1020C3008B04120D35EF8B04120D35108C04120D99
:1020D300351F8C04120D352A8C04120D35DA8C044D
:1020E300120D35438D04120D35F08D04120D352874
:1020F3008E04120D35EE8E04120D35FB8F04120D76
:1021030035459004120D35D49004120D35389104E1
:10211300120D35739104120D35DF9304120D35330F
:102123009504120D356C9804120D35399904120D6E
:1021330035C79904120D35F09904120D35629A04CE
:10214300120D35F69A04120D35549B04120D3546C3
:102153009C04120D35689C04120D35C49D04120DA8
:1021630035DD9D04120D35F09D04120D354D9E0491
:10217300120D355C9E04120D35EF9E04120D35FBD6
:102183009F04120D3508A004120D3511A004120D81
:1021930035E9A104120D350FA304120D351FA30455
:1021A300120D3521A404120D3598A404120D35C760
:1021B300A404120D35CDA504120D3513A604120D7A
:1021C30035DFA704120D35B7AB04120D35C1AB04CF
:1021D300120D35D5AB04120D35DFAB04120D35E905
:1021E300AB04120D35F3AB04120D350CAC04120D18
:1021F3003516AC04120D358AAC04120D3595AC04BA
:10220300120D35BAAC04120D35C5AC04120D3513DD
:10221300AD04120D351DAD04120D3528AD04120D9C
:10222300354CAD04120D3570AD04120D35CCAD0433
:10223300120D3512AE04120D352FAE04120D35AC4E
:10224300AE04120D35E3AE04120D3522AF04120DA8
:10225300356FAF04120D35F1AF04120D358AB0049A
:10226300120D355AB204120D35B8B204120D35D41D
:10227300B304120D35FAB304120D3539B504120D3A
:10228300355FB804120D35A0BA04120D357CBC04B9
:10229300120D3512BD04120D3539BF04120D35E58B
:1022A300BF04120D351AC004120D357FC004120D80
:1022B3003589C004120D35B3C204120D35DAC304D7
:1022C300120D351AC404120D35C0C404120D355154
:1022D300C604120D35DAC704120D35FAC704120D00
:1022E3003553C804120D3555C904120D359FC90461
:1022F300120D35EFC904120D35D9CA04120D354E2E
:10230300CB04120D3568CC04120D35E3CC04120D49
:1023130035E8CD04120D3593D004120D35B2D00437
:10232300120D3513D204120D35D5D304120D3529F0
:10233300D404120D35E1D404120D3590D504120DD9
:1023430035E6D504120D359CD604120D3531D7046C
:10235300120D359DD704120D35D7D704120D35084C
:10236300D804120D3564D904120D35008003120D03
:1023730035328003120D35698003120D3552820305
:10238300120D35358303120D358D8303120D35C8B8
:102393008403120D35148503120D353C8803120D89
:1023A300359E8B03120D35EB8C03120D35818D0396
:1023B300120D358D8D03120D35BF8D03120D354171
:1023C3008F03120D354F9003120D35799003120DC3
:1023D30035D09003120D35299103120D35959103D4
:1023E300120D35AC9303120D353B9503120D3505D4
:1023F3009603120D35439703120D35739903120D8E
:1024030035439C03120D35509C03120D35D79C03A5
:10241300120D357F9D03120D35C29D03120D350B31
:102423009E03120D355F9E03120D35C49E03120DDC
:10243300352C9F03120D35499F03120D35799F03E8
:10244300120D35AE9F03120D357EA003120D3527F5
:10245300A103120D35ABA303120D35CBA403120D4B
:1024630035B4A503120D3536A603120D3558AA034C
:10247300120D3595AA03120D35EDAA03120D352061
:10248300AB03120D35A1AB03120D35EEAB03120DE9
:102493003579AC03120D35CBAC03120D35A2AD0368
:1024A300120D355BAE03120D35F6AE03120D350F6B
:1024B300B203120D352FB303120D35E0B603120D1F
:1024C30035FEB703120D3501B803120D3530B803CD
:1024D300120D3536BA03120D350FBB03120D3544F9
:1024E300BB03120D354CBC03120D3502BD03120D97
:1024F30035A3BE03120D35C8BE03120D3507BF0346
:10250300120D3579BF03120D355DC003120D352A47
:10251300C103120D3560C303120D35D1C303120D70
:102523003511C403120D354AC403120D35DEC4033D
:10253300120D3527C603120D35EAC903120D35D91D
:10254300CA03120D35C0CB03120D3538CC03120D5F
:1025530035FACC03120D35F8CE03120D3510CF0327
:10256300120D3524CF03120D355CCF03120D358ABE
:10257300CF03120D3511D103120D351CD203120DE9
:10258300356ED203120D35D6D203120D3588D3031F
:10259300120D35B8D303120D359CD403120D354DEE
:1025A300D503120D353CD703120D3571D703120D28
:1025B30035D9D703120D3508D903120D35BAD9030E
:1025C300120D35EBD903120D3503DA03120D3592D3
:1025D300DA03120D3546DD03120D351EDF03120D2E
:1025E300353ADF03120D3556DF03120D3524E003B0
:1025F300120D3508E403120D35008002120D353833
:102603008002120D35168502120D355C8502120DFE
:1026130035A98602120D35148702120D359D8802E5
:10262300120D35AD8B02120D35C88C02120D35DA41
:102633009602120D356D9702120D35BF9A02120DD7
:1026430035BB9B02120D35169C02120D35609D029F
:10265300120D354E9E02120D35EAA002120D355EA3
:10266300A202120D35E1A202120D35E4A202120DEF
:102673003559A302120D3563A302120D3570A3025F
:10268300120D359BA302120D354BA402120D3544D6
:10269300A502120D35EFA502120D350DA602120D7E
:1026A3003526A602120D354FA602120D3571A6026C
:1026B300120D35C6A802120D358BA902120D35D0A5
:1026C300A902120D354FAA02120D35FBAA02120DF3
:1026D300352DAB02120D3581AB02120D35BCAB02A9
:1026E300120D3503AC02120D3553AC02120D3558E1
:1026F300AC02120D35ACAC02120D35D8AC02120D82
:1027030035C1AD02120D3512AE02120D3572AE0295
:10271300120D35CCAE02120D3567AF02120D35A680
:10272300B202120D35B8B302120D3532B502120DD5
:102733003542B802120D35E0B802120D35D6BB0290
:10274300120D3595BC02120D35D9BC02120D35841C
:10275300BE02120D3598BE02120D35A2BE02120D35
:1027630035ACBE02120D35B8BE02120D35DDBE0208
:10277300120D35B6C002120D350BC102120D3515FF
:10278300C102120D351FC102120D3594C102120D83
:1027930035E3C102120D35F4C202120D3541C302F5
:1027A300120D354EC402120D3592C402120D353886
:1027B300C502120D352BC602120D35F1C602120DDC
:1027C3003514C802120D3532C902120D351ACA0268
:1027D300120D3532CA02120D3589CA02120D359314
:1027E300CA02120D359DCA02120D35A8CA02120D76
:1027F30035C6CA02120D350ECB02120D3570CB024F
:10280300120D3597CB02120D35A9CB02120D3544AB
:10281300CC02120D3579CC02120D3560CD02120DAA
:1028230035A5CD02120D358BCE02120D35B2CE0277
:10283300120D3535CF02120D35A6CF02120D352FED
:10284300D102120D355BD202120D351ED302120DC9
:1028530035E6D302120D3570D402120D3598D50228
:10286300120D353AD602120D35B5D602120D357159
:10287300D702120D35BBD702120D3515D802120D32
:1028830035EDD802120D3510D902120D35C3D90218
:10289300120D35E5D902120D354EDA02120D3564EB
:1028A300DC02120D355CDD02120D3520DE02120D45
:1028B3003552E002120D359CE002120D35ECE002B8
:1028C300120D3550E102120D35B2E102120D35E061
:1028D300E102120D3504E202120D3539E202120D46
:1028E300356AE202120D359DE202120D35EDE20268
:1028F300120D3540E302120D3565E402120D350564
:10290300E602120D3560E602120D3589E602120D5C
:102913003516E702120D3584E702120D3592E702F0
:10292300120D35B6E702120D350BE802120D3526EE
:10293300E802120D35D8E802120D3510E902120D26
:102943003553E902120D35B6E902120D35B8EB0223
:10295300120D35E2EB02120D35D9EC02120D35E3FF
:10296300ED02120D3593EE02120D3536AE06120D41
:10297300356EAE06120D358FAE06120D35D1AE068D
:10298300120D3533AF06120D353DAF06120D354D21
:10299300AF06120D3588AF06120D3568B306120D5A
:1029A3003555B506120D353BB706120D35D2B706B0
:1029B300120D3574B806120D35A13600120D354CC3
:1029C3003700120D35FA3700120D35003900120D9C
:1029D30035203900120D35493A00120D35043C00FB
:1029E300120D35773C00120D351B3D00120D3527B6
:1029F3003E00120D35923E00120D35CE3E00120DF3
:102A030035113F00120D354C3F00120D358E3F003E
:102A1300120D35234000120D359F4000120D35690C
:102A23004100120D35464200120D35DE4200120DF3
:102A330035F84200120D35284300120D3559430075
:102A4300120D351F4400120D352F4400120D357E33
:102A53004400120D358B4400120D35944400120DC1
:102A630035124500120D356E4500120D35B945007E
:102A7300120D35D44500120D35FF4500120D351CDE
:102A83004600120D35284600120D35BF4700120DC2
:102A930035D84700120D355D4800120D35704800DA
:102AA300120D358F4800120D35334900120D35B420
:102AB3004A00120D35674C00120D35FD4C00120D06
:102AC30035004D00120D35704D00120D358E4D0041
:102AD300120D35254E00120D356D4E00120D357059
:102AE3004E00120D35364F00120D35A34F00120D57
:102AF30035C94F00120D35545000120D3572500078
:102B0300120D35B85000120D356C5100120D35B64B
:102B13005100120D35E55100120D35425200120DD0
:102B230035775200120D35A35200120D35B1520004
:102B3300120D35FE5200120D356E5300120D35B7CE
:102B43005300120D35035400120D352F5400120D8E
:102B5300353A5400120D35585400120D35435500C3
:102B6300120D354D5500120D35885500120D35984F
:102B73005500120D35EC5500120D35005600120D9F
:102B8300352F5700120D35445700120D35D257001B
:102B9300120D35175800120D35A35800120D35AE1E
:102BA3005800120D35F05900120D350B5A00120D55
:102BB30035575A00120D35C65A00120D35FF5A000B
:102BC300120D35195B00120D35795B00120D3518A6
:102BD3005C00120D35635C00120D35335F00120D7E
:102BE30035E55F00120D35526000120D359262001B
:102BF300120D35AA6200120D35AD6200120D35B902
:102C03006200120D35CD6200120D35D56200120D32
:102C130035086300120D350B6400120D35986400FE
:102C2300120D35086500120D358A6500120D354BFE
:102C33006600120D356A6600120D350B6700120D22
:102C430035686700120D356B6700120D35DF6700BD
:102C5300120D352E6900120D35346A00120D35BF81
:102C63006A00120D35DA6B00120D35A26C00120DDD
:102C730035D36C00120D35F66C00120D35FF6C0068
:102C8300120D352E6D00120D35BE6D00120D35740B
:102C93006E00120D35E96E00120D35906F00120DA6
:102CA30035057000120D353C7000120D357A700039
:102CB300120D35E8FC03120D357CFC03120D35199A
:102CC300FC03120D35EFFB03120D35DBFB03120D75
:102CD30035D1FB03120D3564FB03120D3595F90352
:102CE300120D3553F903120D3569F803120D35939F
:102CF300D906120D353CD906120D353DF803120DD8
:102D030035F4F703120D35DED706120D3530D7062D
:102D1300120D3531F703120D3500F403120D35A2F0
:102D2300F103120D3572F103120D3522F103120D69
:102D330035BCF003120D357BF003120D355BF00348
:102D4300120D358DEF03120D3527EF03120D35C626
:102D5300EE03120D3566EE03120D3504ED03120D6D
:102D63003598EC03120D35ECEB03120D35E7EB034D
:102D7300120D35D0EB03120D359BEB03120D35937A
:102D8300D606120D3535E803120D3589D606120D18
:102D9300351ED606120D3503D606120D3553D5064C
:102DA300120D3559D406120D357FD306120D353267
:102DB300E803120D3519E803120D350EE803120D61
:102DC30035DDE703120D35D5D006120D3504E603C4
:102DD300120D358BE503120D3522E503120D3595E2
:102DE300E403120D35E7CF06120D3551E403120D3E
:102DF3003573F101120D352AE403120D3514C4069F
:102E0300120D35BFC306120D3592C306120D355F81
:102E1300C306120D3537C306120D35D8C206120D7F
:102E230035B8C206120D3583C206120D3547BF06EB
:102E3300120D351CBD06120D350CBB06120D35895E
:102E4300BA06120D353DBA06120D3579CF06120DAD
:102E530035F1B906120D354BB906120D3534E501BE
:102E630000000080FBE473870001008E1E35000420
:102E730000541E25000200581E260002005A1E2779
:102E83000002005C1E28000100661E290001006785
:102E93001E84000400411B86000100BF1D2A00019F
:102EA30000681E2B000100691E2C0001006E1E2D00
:102EB3000008004F1B2E0001006F1E2F0001007041
:102EC3001E30000100711E31000100721E3200012C
:102ED30000571B33000100581B34000100731E36DA
:102EE300000100591B38000100741E390001006DF8
:102EF3001E830002008C1E63000100641B6400013A
:102F0300006A1E650001006B1E6D000100651B71E8
:102F1300000800471B660001008B1E430001007C74
:102F23001E440002007D1E450001007F1E46000274
:102F330000801E470008005C1B48000100821E4BF6
:102F4300000100831E040001008F1EA100010092F6
:102F53001E37000100911E88000100901E3C0001F5
:102F6300005A1B3D000100751E49000200841E67C4
:102F7300000100661B4D000200861E4E0001008802
:102F83001E4F000200891E3E0001007B1E510001FE
:102F930000771E52000100781E530001007A1E5470
:102FA3000001005B1B000000000000000136360139
:102FB30001000102010001030100010401060605ED
:102FC300020000070100340801000F090401010D8C
:102FD3000100FF0E08000017020000190100FF1A8C
:102FE3000100011B0100FE1C0100081D0200001F5F
:102FF30001000120010001210200002301000F2430
:103003000200002601000127010008280200FF2A10
:103013000100072B0102402C0100002D0100012EAD
:103023000100012F0100FF30010B1D310800003AA0
:103033000100083B01000F3C0100013D0100FF3E80
:1030430004000042040000460400004A0400004E4D
:1030530004000052040000560400005A040000005B
:103063000003002001E2DA000000002001E1DA00A1
:103073000001002001E1DA000002002001E1DA0092
:103083000000404201B3D90000040042019AD80075
:10309300000500420122D9000006004201B3D90015
:1030A3000007003001E0DA0000100042031E1E009A
:1030B3000011003003FD19000012001003311E033C
:1030C3000000002103FE190000FDFF2101DBDA03EC
:1030D30000FDFF2101DBDA060000001001EC1906F8
:1030E30000FDFF2181DBDA020400002905ED19024E
:1030F3000401002901D7DA020402002901D9DA0206
:1031030004FDFF2101DBDA002020202020202020E5
:103113002028282828282020202020202020202084
:1031230020202020202020208810101010101010A4
:1031330010101010101010100404040404040404EC
:10314300040410101010101010414141414141017D
:10315300010101010101010101010101010101015C
:10316300010101101010101010424242424242026B
:10317300020202020202020202020202020202022C
:103183000202021010101020010371030103010356
:1031930001030103010322030203010310030003DC
:1031A30000030003000300030003000342030003C2
:1031B300240306030003000304031203250323036C
:1031C3002503230304030403000300030003440350
:1031D3000003000323030003650321003503810378
:1031E3000003050300030003000300032503230377
:1031F30003007100300160001100700031022003F0
:10320300500480001000610000001400630073008C
:10321300720062004300000013000600000000007B
:10322300040012000000000000000000040004007D
:10323300370037003C02440000000000000000009B
:1032430065000000350081000000050000008300D8
:1032530000000101710101010101110101013101AD
:10326300010101018001100161013B0014006301B0
:1032730073017201620143010001130106013D0163
:1032830035000401120100010001000100010401E5
:103293000401330133013C014401320136000001D2
:1032A3000001650100013500810100010501820172
:1032B30083010001030271023001600211027002F6
:1032C3000102020202028002100261023A0041007E
:1032D30063027302720262024302000213023800A5
:1032E30000020002040212020002000200020002B5
:1032F30004020402370037003C0244020002390092
:10330300000200026502000235028102000205028A
:1033130082028302000203047104020460041104A4
:103323007004020402040104020410046104000492
:103333001404630473047204620443040004130456
:10334300060400040004040412040004000400043E
:103353000004510464000004000400044404000455
:1033630000040004000465040004350481046400BF
:103373000504000483040004360001000600000075
:103383000F0000000000000000000000000003FF29
:10339300FF00000403FFFF0000FFFF0FF40100051F
:1033A300C4040320000100000B0000000000000023
:1033B3000003010F000000000000000000000000F7
:1033C30000000000000000000000000000000000FA
:1033D3000000000000001300291D1F002F1D1F8087
:1033E300351D0000AD1D0100AD1D0200AB1C0280A8
:1033F300A51C0300B11C0400B71C0480BD1C050000
:10340300C31C0600CF1C3000ED1C3100E71C32004A
:10341300F91C3300FF1C3500051D34000B1D36005D
:10342300111D11001D1D1400231D1500E11CFFFFBC
:10343300000075199F197B19B5188119A5198119F0
:10344300B1198719B5188119A5198D19B518000077
:1034530000009319B518000000000000000099193E
:10346300B51800000000000000000000000000008C
:103473000000000000000000000000000000000049
:1034830000000000000000000000000000000A002F
:10349300000002000000040000000800000010000B
:1034A3000000200000004000000080000000000138
:1034B30000000002000000040000000800000010EB
:1034C30000000020000000400000013526066526AC
:1034D300085F260B8326101D23023B260553260770
:1034E30041260C1D260D2926640121FF000003003F
:1034F30003000400080010001F003E007B00F600DC
:10350300EC01D703AF075D0FB91E713D000007EC57
:10351300FDFDFDECDCDCCCBCACAC9C9C8C7C7C6C05
:103523006C5C5C5C4C4C3C3C2C2C1C1C03EAF5E5B1
:10353300D5D5C5B5A59595858575756565555545E8
:10354300453535252515150500160F00000B150B00
:10355300020002220F3300000E0F5A6967426565AD
:10356300416C6C69616E63653039000000000000D6
:1035730000000000000000000000D0D1D2D3D4D559
:10358300D6D7D8D9DADBDCDDDEDF00034D4C46517C
:10359300181A250502303017181921301B1D1F304A
:1035A300003C40423A3F3F392F473000011916187B
:1035B300161618230300303016181920231A1C1E60
:1035C300300C0E020B040B0A0708000F0204020161
:1035D300010101090200BE040AE80300000000E83B
:1035E3000303007F000E000100000004040910081B
:1035F30003030A0C0510001E080C281EFF00020915
:10360300033C0C0508151504E4F0A3F0A3F0A32272
:1036130012360BF022901CB1124C17122A252212DB
:10362300362622E0F508E4F509F50AF50B22E8242D
:10363300FBF582E934FFF58322E82411F582E439AE
:10364300F583E022F58312364D22E0F508A3E0F579
:103653000922122CA17404120D657F08020AFB745F
:1036630001F09006D3E0640F227409120D657F0404
:10367300020AFBEA2413FAE43FFB122BCFE9227977
:1036830005122BDB740622A3A3E024F5C3941322B3
:10369300122CAD9006F3126BD57A147B0022C082F4
:1036A300C083901C907419F0A3742AF0A3742BF0B8
:1036B300A3742AF0901C947401F0A3742AF0A374E9
:1036C300FBF0A37429F0A37437F0A3742AF0A37456
:1036D3003DF0A3742AF0A37431F0A3742AF0A37409
:1036E300E9F0A37429F0901CA0740DF0A3742AF0E0
:1036F300A37413F0A3742AF0A37407F0A3742AF03D
:10370300A37443F0A3742AF0901CB11255E6600928
:10371300901CB1124C131217A7901CAE124F2D74AC
:1037230008126282A3F0901D5AF0901CB3F07C0B38
:10373300FDF97AB47B1C1216D57C0B7D0079007AD7
:10374300BF7B1C1216D5024D8774F712084374F71A
:10375300120E18EAFEEBFF1237DF740512504B749A
:1037630003F01238F612502D2430FCE43FFD8C8216
:103773001237D71237EB600812400474FFF0A3F03E
:10378300EE242EE43F1C1CFD8C82F583A3E0C0E0F5
:103793008A828B83124CDFD0E01237EB88828983D5
:1037A30012551A2403F0EE12400E1210867403F021
:1037B3009006E8120BBA7402120DF8123BD8120DE0
:1037C30065E9F5087007EEFAEFFB122AB5A908744C
:1037D3000902401DF583E08882898322EA1237E4D7
:1037E300221257293FF58322126502125039E8F05D
:1037F300A3E91267D9E02274F0120843EAFEEBFF53
:103803008C0C8D0D890B1238F6F583125041741010
:10381300121086E0F508A31237D9F0E824FFF582E9
:10382300E9123BEAE508F0E824FEF582E9123BEAF7
:10383300E50BF09006EDE0C0E0E824FDF582E91227
:103843003BEAD0E0F09006ECE0C0E0E824FCF5822F
:10385300E9123BEAD0E0F0741212108612364912D4
:103863003631E509F0E824FAF8E934FFF98882F5FE
:1038730083E508F0EE2404FCE43FFD88088A828B8C
:1038830083E0F50E8C828D83E0250EC395081265C7
:1038930002124E67850C82850D83A3A3A3A3A3A362
:1038A300A3A3E064037009EE12501BF0A3E48003AA
:1038B300123BEF123BF77409F07508B475091C75D8
:1038C3000A007808120D84125FCC120D657508FF8B
:1038D3007509FF7808120D88AC0CAD0D123BD81298
:1038E3000D65E9F5087007EEFAEFFB122AB5A90892
:1038F30002365DEA2402FAE43FFB8A8222C082C0D8
:1039030083901CD0E0C39408400474078001E08ACC
:10391300828B83F033333354F8F9024D8774F012FA
:1039230008438A088B09890A8C0E8D0F750C00A237
:10393300AFE433F50BC2AF901CCA8045123A225054
:103943003D123A3C64037036E50824F9F508E509AD
:1039530034FFF5098E828F83A3A3E02405FCA3E043
:103963003400FDAA08AB09121891E50824FFF508F5
:10397300E50934FFF5097410250CF50C150A123E00
:1039830011126F8AE50A6004EE4F70B0E50BA2E0F6
:1039930092AFA2AFE433F50BC2AF901CCA803E12C4
:1039A30054F38882F583124767850882850983F07B
:1039B3008A828983123A33A3A3E0C0E0E50824FF97
:1039C300F582E509123BEAD0E0F0E50824FEF508AC
:1039D300E50934FFF509050C150A123E11123C6581
:1039E3006021123A3C640270F1123A22EE40B012A6
:1039F3005162A2E550E4850E82850F837401F0E5E0
:103A03000A70D7E50BA2E092AF850882850983E5AA
:103A13000CF0E50824FFFAE50934FFFB02365D12DA
:103A23003A28A2E622EE2411F582E43FF583E02250
:103A3300123A3722125538A3228E828F83A3A31200
:103A43004CE3125C0F2274F012084374F3120E1845
:103A53007403121086E9F07402121086EAF08B0BDD
:103A6300851882851983E4F004120DF01229CBE93D
:103A7300F89006D2E0292437F508FA7B001216EDF8
:103A83008A0C8B0DAE0CAF0DEA4F7003023BCFEAED
:103A93002402F50EE43FF50FA808EA28F8E43BF901
:103AA300850E82850F831245639006D2E0F9FAC32F
:103AB300E49AFA95E0FB850E82850F83E02AF50CE4
:103AC300A3E03BF50D9006D0123649750A0078083D
:103AD300120D84E9FC7D00AA0CAB0D124F9D120D53
:103AE30065AC18AD197401121086E0F9E50C24FFDA
:103AF300FAE50D34FFFB1229D18A828B83E4F0E5CA
:103B03000BC454F0F9901D5BE0C4333354C0F890F8
:103B130006CCE0A2E0E43313134849440FC0E0EAC3
:103B230024FFF582EB123BEAD0E0F0EA24FEF50C29
:103B3300EB34FFF50D7403121086E0F874021210D3
:103B430086E0C454F048850C82850D83F0A80C856B
:103B53000E82850F8312624F2AC3988E828F83A3AE
:103B6300A3A3A3F0850E82850F83E8F0A3E50DF0F0
:103B7300123BEF123BF7E4F0740C121086E4F0757D
:103B830008BF75091C7808120D84125FCC120D65ED
:103B9300851882851983E06009EE240E125164446E
:103BA30008F0122BBDE9F9E4F508F5097808120DC0
:103BB300887406120DF8123BDA120D65E97006EEF1
:103BC300FAEFFB800BEEFAEFFB1216F37A007B00A1
:103BD300740D02365A7903EEFAEFFB122BD57402F9
:103BE30022EE24FFF582EF34FFF58322EE1237E451
:103BF300E4F0A322F0123BFC22EE125EEF3FF583CA
:103C03002274F21208438A0C8B0DA2AFE433F50A37
:103C1300C2AF750800750900901CCA802C123E21A2
:103C23005024850C82850D83A3A3125FDF8E828FC0
:103C330083A3A3124C13122BC3E9600A123E1CC2C6
:103C4300E6F08E088F09123E11123C6570CFE5082D
:103C530045096006123CFED2E6F0E50AA2E092AF07
:103C6300800DE0FEA3E0FFEE4F227402120D657F8C
:103C730006020AFB74F01208438A0E8B0F8C0C8D1C
:103C83000D750A00A2AFE433F50BC2AF7E007F00CF
:103C9300901CCA8010AE08AF09123CF6125162D2D2
:103CA300E7F0124BF1124C056034123CFEA2E750D0
:103CB300F1850882850983A3A3120BBAAC0CAD0D61
:103CC300AA0EAB0F122BC97402120D65E960D3EE75
:103CD3004F60C21240987006123D10D2E4F0E50B1B
:103CE300A2E092AFEE4F6006122AAF750A01A90A4D
:103CF30002365D123A28D2E4F0EE22E508125F099B
:103D03003509F583E022AA82AB831218918E828F44
:103D130083A3A3124CE3E02274F212084374FE124D
:103D23000E18750C00750D00851882851983E4F053
:103D3300A3F0A2AF33F50AC2AF901CCA126F8A80F8
:103D43002BEE24FBF582EF34FF123647780C120D6D
:103D530088123DFF120D65EEFCEFFDAA18AB191298
:103D63001711AE08AF09901CD0E014F0EE4F602B92
:103D7300123E21501DEE240BF8E43FF98882F583AF
:103D8300E024FFF0A3E034FFF0888289831255E634
:103D930060AF8E0C8F0D123E1180A1E50AA2E09256
:103DA300AF901CD0E0602C9006D3E0640F600690C7
:103DB3001D5AE0701E7AA87B1C122CAD90DACB1230
:103DC3000BB67AA87B1C124E0F120D65800574F09A
:103DD300124CF0AA18AB191217178A088B09AE08F0
:103DE300AF09EA4F60131229DD123E1CA2E28E8254
:103DF3008F83A350D974E980D7023C6DEEFCEFFDAD
:103E03007ACA7B1C1217237402228E0A8F0BEE24AC
:103E1300FBF582EF34FFF58322EE123A2922123AA0
:103E230028A2E72274F7120843EAFEEBFF1229DD0A
:103E3300124CDC122E68E964019006EF700AE0244C
:103E430001F8A3E034008003124C62F912536412A8
:103E53004E67901CD0E0701F9006D3E0640F70177C
:103E63007AA87B1C122CAD90DACB120BB67AA87B06
:103E73001C124E0F120D65A8A8C2AF901CD0E0040F
:103E8300F0E8A2E78004E508A2E092AF0252727460
:103E9300F7120843EAFEEBFFEA123EC8F01229DDEF
:103EA300EEFCEFFD7ACA7B1C12171DA8A8C2AF90C7
:103EB3001CD01247B69006D3E0640F700579081240
:103EC3002B75025272123A29C2E42274F712084384
:103ED30074EA120E18EAFEEBFF9006CCE0602A8526
:103EE30018828519837401F0121086E4123F83123D
:103EF3001086123D09C0E0740A121086D0E01262E7
:103F03006F740B1210861254CF741602401D74F78F
:103F1300120843EAFEEBFF1229BFE9F974DC69607A
:103F23001E74DD69601974E469601474F369600FC9
:103F330074DE69600A74DF69600574DB697007EE1B
:103F4300FAEFFB122B7B02527274F712084374EBE5
:103F5300120E18EAFEEBFF85188285198374061288
:103F63003F83121086AA82AB83121891EE2408FCB9
:103F7300E43FFD740A1210861254CF741502401DDB
:103F8300F0EA2413FCE43FFD74022274F7120843A1
:103F930074F7120E18EAFEEBFFEA24301251646044
:103FA3005DEA12400E1210867403F09006E8120BBD
:103FB300BA124004120BBA9006FBE0F97404120D16
:103FC300F8EEFAEFFB1229C57404120D65E9F974D2
:103FD300DC69602374DD69601E74E469601974F33D
:103FE30069601474DE69600F74DF69600A74E869DC
:103FF300600574DB697007EEFAEFFB122B7B023767
:10400300D2EE242EF582E43FF583221263E0AA1850
:10401300AB191218917408227403120D65025272BF
:1040230074F21208438A0C8B0D750A00750B007528
:1040330008E7A2AFE433F509C2AF901CCA800312AC
:104043003E0D123C656025123E2150F312409870DC
:10405300EEEE243212422FE06870E4780A120D88E3
:10406300123DFF120D65901CD0E014F0E509A2E0AB
:1040730092AFEE4F6013EEFAEFFB1229DD79F0EE0B
:10408300FAEFFB122B7B750800A908AA0CAB0D12E3
:104093002B7B023C72123BFCE064012274F4120895
:1040A3004374F7120E18EAFEEBFF8A82F583A3E04E
:1040B30064F3700302413D8A828B83A3E064DF6073
:1040C300798A828B83A3E064E8606F8A828B83A3FF
:1040D300E064DB6065122A1FE9F5087055EE240ED3
:1040E300125164604D1241476048740812108612E1
:1040F3004156120BBA7508FF7509FF7808120D882F
:104103008E828F83A3A3A3A3A3A3A3A3E0F9740421
:10411300120DF81229C57404120D65E9F50874F33C
:1041230069600F74DF69600A74E869600574DB69AC
:10413300700F8E828F83A3E508F0EEFAEFFB122A4D
:104143002B02366CEE240FFAE43FFB7909122A6145
:10415300EA4B2274021259D574FFF0A31241632271
:10416300125523A3A32274F1120843EAFEEBFF7551
:1041730008008A82F583A3A3A3A3A3A312368A40CC
:10418300037508E88A828B83A3A3A3A3A3A3A3A392
:10419300A3A3E0C3941040057508E880138A828BBB
:1041A30083A3A3A3A3A3A3A3A3A3A3E0640F600B6D
:1041B300901D37E0540870037508E8EA240B124297
:1041C3002FA3A3A3A3A3A3A3A3E0C398500DEA24FF
:1041D3000B125164640F60037508E89006ECE0F479
:1041E3007003A3E0F470037508EC7A237B001217C5
:1041F300A18B0BA90B901CB112423E60278E828FBC
:1042030083A3A3A982AA83890C8A0D750E00780C57
:10421300120D847C237D00901CB1E0FA124F9D1295
:104223000D65800375081AA908025FC7F582E43F8C
:10423300F583E0F88A828B83A3A322EAF0A3EBF051
:10424300EA492274F5120843EAFEEBFF8A82F583FA
:10425300A3A3A3A3A3A3A3A3E09006D31242D6E0F0
:104263009006EEF0EA240B1251649006CE1242D669
:10427300A3E0901D5BF0F9121459901D5BE0600BF5
:10428300EE240412515624061242CC901D5A1236C3
:10429300626004740180027400901CB312691A12E4
:1042A3000D847C0B7D007AB47B1C124F9D120D652F
:1042B300EE2418F508E43FF5097808120D847C0B09
:1042C3007D007ABF7B1C024F8AFAE43FFB79E1123F
:1042D300144122126904A3A3A3A32274F71208436F
:1042E300EAFEEBFF8A82F583A3E07003123618120D
:1042F300648B02527274F7120843EAFEEBFF901CC0
:10430300B11255E66010901CB1124C13901CB1E42D
:10431300F0A3F01217A78E828F837408124CF71242
:104323001FD502527274F6120843901D5AE06010B2
:10433300901CB3E0700A124346EA4B6003122AB59D
:104343000265859006CEE0FB9006EEE0FA9006D378
:10435300E0F91229D72274F412084374E7120E18F5
:10436300EAFEEBFF750B018A82F583A3A3A3A3A344
:10437300A3A3E0A2E25069EA242BF582E43F125F93
:10438300DDEA2413FAE43FFB1229E3E9705290DAE1
:1043930002E064017005750B008045124418120D8C
:1043A300847C0B7D007411120DF0124F9D120D656C
:1043B300122BBDE9FA740E120DE8880889097808F2
:1043C300120D887508307509007808120D88EE12F1
:1043D3006238120BBA1263D27901123684120D6558
:1043E3008518828519837410F01263D27402121037
:1043F30086AA82AB83121885EE242B126BCB740B27
:10440300121086124E67740D121086E50B12664465
:10441300741902366EEE240812692222C082C08308
:10442300901D5BE06003122C2F024D87C082C08376
:10443300901D527490F0A3741CF0A37494F0A374B1
:104443001CF0A374A0F0A3741CF0901EC57419F0A3
:10445300A37433F0901D3C74B9F0A37429F0901C3D
:10446300D574EFF0A37429F0901CD774F5F0A374FE
:1044730029F0901D37E0440202488BC082C083EAD2
:10448300FCEBFD7903025592C082C0837908026771
:1044930005C082C08374FE120E18901CDD749DF05B
:1044A300A3742AF0901CDF7497F0A3742AF080079A
:1044B3007ACA7B1C1244F0901CCA1255E670F19024
:1044C3001CCC1255E660097ACC7B1C1244F080EFB9
:1044D300901CCAE4F0A3F0901CD0F0A3F0A3F090DA
:1044E3001CEB74D9F0A3742AF07402801C12171702
:1044F300851882851983EAF0A3EB124504122BABCE
:1045030022F0AA18AB19227411120D65024D87749B
:10451300F6120843E9FF74A329F582E43435F583E1
:10452300E493FEFA7B001216EDEA4B6007EA2E12C3
:10453300456080267A027B001216EDEA4B60177401
:10454300982FF582E43435F583E4938A828B83F0E4
:10455300A3741A1249297A007B00026585124E560C
:10456300E81264FFA3A3A3A3E4F022E9FC740629E1
:10457300F8EAA2E0501EE875F00A84E5F0F9601449
:10458300740A28C399F8E9C394054004740A28F807
:10459300740B28F8ECC39413400479148002790651
:1045A300E82979002409F85001097A0A7B001206E8
:1045B30064E8F9020D32C082C083901D37E05402D3
:1045C300600A121FDBE96004790180027900024D61
:1045D30087C082C083901D37E054026014901CD0C2
:1045E300E0700A1255E360091245F950047901801D
:1045F300027900024D8712363CA2E722C082C083B3
:1046030090D9FFE0F8901CD2E0C39850051216ED44
:1046130080047A007B00024D87C082C083122BABDB
:104623007900024D87C082C08374FE120E1885186C
:1046330082851983EAF0A3EB124792A3A3A3A3A352
:10464300E0600A14605724FE605A0247029006D3C2
:10465300E0640F6012122B81E9700C124C0D901C58
:10466300D9124CDF122E689006FBE0C0E085188259
:10467300851983125506D0E01247927414125F23F2
:10468300FCA3E0FD7ACC7B1C121711A8A8C2AF9043
:104693001CD21247B67920122B750244EC124A60E1
:1046A300741580D9124A60A3A3A3A3E06051124AF0
:1046B30060123D14C0E0851882851983E02406F555
:1046C30082E43BF583D0E0125F232402F8A3E034B5
:1046D30000F98882F583E02401FAA3E03400FB8823
:1046E300828983EAF0A3EB125F23124AA085188222
:1046F300851983601312476760051247794048AAFA
:1047030018AB19122BAB809212476760F2124779EC
:104713005021124786FA851882851983A3E0C8249D
:1047230006124A5CF874CE12571B3435F583E493B2
:104733006A6014851882851983124767640870BFFD
:10474300124786640870B81247861412479A240ADF
:10475300C0E0851882851983124CDFD0E012479A96
:104763000402468012476B22124C62C82406F5826B
:10477300E438F583E02285188285198312476BC3D9
:10478300940A22851882851983123A37A3E02212EC
:1047930047A4F5838882221247A4C82406124A8AB2
:1047A30022F0851882851983124C6222A8A8C2AF11
:1047B300901CD1E004F0E8A2E792AF22C082C0834C
:1047C300901CE11255E66008124A67122E688002B7
:1047D3007900024D8774F7120843EAFEEBFFEA12F1
:1047E3003BFD7401124E15F8A3E0F91237DF124EA8
:1047F30067EA2435125164C0E0EA2413F582E43FEA
:10480300F583D0E0F0EA2436125164C0E0EA2414C0
:10481300F582E43FF583D0E0F0EA2438125164C016
:10482300E0EA2418F582E43FF583D0E0F0EA242F90
:10483300F582E43FF583120BBA1263DFEA243112E7
:104843005164F9123BDE120D65E9F5087007EEFAC3
:10485300EFFB122AB5A908025272C082C083122B41
:1048630081E96004792080027901024D87C082C00A
:1048730083EA2411124881D2E0800DEA240DF582E7
:10488300E43BF583E022F0A3F0024D87C082C083AE
:1048930012487E64017011124923400C8A828B8373
:1048A300A3E0F9122B7B8066124914A2E650128A08
:1048B300828B83A3E0F9901CDB124CDF122E6880FD
:1048C3004D12487E6401700D12492350088A828B71
:1048D30083743080368A828B83A3E0641B8A828B45
:1048E30083700474228024A3E0700D12487EF87450
:1048F300B912571B3435800B12487EF8749812573F
:104903001B3435F583E4938A828B83124929024D44
:104913008712491822EA2410F582E43BF583E0224A
:10492300124918A2E322F0901D32E0F91216F9227F
:1049330074F7120843E9FE1255E37003024A59EE75
:104943006014741B6E701AE8125EEF39F583E0642D
:10495300057003024A31901CD4124A67A3E4024A49
:104963003874E96E7068E82412F582E439F583E05F
:10497300700B121FE1E96005124AAA606179EE1219
:1049830013C3901CD3124A81901CD3603A124AADD0
:10499300901CD3700B124A8114F0121579024A59F4
:1049A300124A9FC2E7124C48240D124A5C640370FA
:1049B30009124A7A124BFED2E2F079ED1213C312B6
:1049C3004A92122E688078124A6D74E9806774E106
:1049D3006E703E121FE1E96055124AAA70509006AC
:1049E300F5E0C0E0124A7A2412F582E438F583D068
:1049F300E0F09006E4E0C0E0901CD3124A76124A3D
:104A030076D0E0F09006E4E004F0790112156180BD
:104A130045741C6E7018901CD3124C13901CE31237
:104A23004CDF122E68901CD3E4F0A3F08028901C76
:104A3300D3124A6DEEF0901CD3124C13122AA31218
:104A43004C29E0548060031266F4901CD3E4F0A375
:104A5300F07910122B75025272124A8A228518823B
:104A6300851983A3E0F583888222124A7122124CAE
:104A7300E7A32212553422901CD312551522125546
:104A8300152412124A8A22F582E438F583E0229033
:104A93001CD3124C17901CD7124CE322E0F8A3E06E
:104AA300C82410124A8A22901CD3124C30E05404BA
:104AB3002274F4120843750A00750B00A2AFE433A5
:104AC300FEC2AF1255E36003024BA7124CDC122E59
:104AD30068E94410F8901CCA800985080A85090B07
:104AE300124BF1124C057003024BA7123CFE58689F
:104AF30070E8780A120D88AC08AD09123E03120D56
:104B030065901CD3E508F0A3E509124C48124BFE4F
:104B1300A2E75003024BAE901CD1E014F0EEA2E0EA
:104B230092AF901CD3E0240EF8A3E03400F9E8FE22
:104B3300E9FF8882F583124C13901CD312478CF93A
:104B4300122A67E9901CCE1262828E828F83E05410
:104B5300806018124A7A2413124A5CF912147D12E7
:104B63004A7A2414124A5CF9121471124C29A3E0F4
:104B73005401605F901CCE1255E66045124C3F60B5
:104B830040124C3FF87900901CCE124C1312066C65
:104B9300E8C0E0124C1DD0E0124C4DC394134011F9
:104BA3007402800FEEA2E092AF8037901CD0024BCC
:104BB3001D7400C0E0901CD4E0C8124BE8D0E08024
:104BC3000D124C1D7401124C48124BE87401F0791C
:104BD30003800C901CD3124A9FA2E1B3E433F91271
:104BE3001561023671241AF582E438F58322E5084B
:104BF30024FBF582E50934FFF58322125F09124A8B
:104C03008D2212364DE508450922851882851983C0
:104C1300124C1722E0FAA3E0FB221255122419F5D5
:104C230082E438F58322901CD3124C3022124C625A
:104C3300C8124C382212572938F5832212551224F0
:104C430018124A8A22124C5AC822124C5AF58388E7
:104C530082A3A3A3A3E022F0901CD3124C6222E010
:104C6300F8A3E02274F7120843EAFEEBFF122BA528
:104C7300125161A2E3400A124098700590D9FD8059
:104C83000390D9FEE0F9EEFCEFFD7ACA7B1C121704
:104C930029E96038EEFAEFFB901CDD124CDF122E8F
:104CA30068EE240E125164540470121247AFEE12D0
:104CB30037E0A3E05401701E122AAF8019EEFAEF19
:104CC300FB901CD5124CDF122E68800A8E828F83D4
:104CD300A374F1124CF0025272901CDF124CE322C7
:104CE300124CE722E0F8A3E0F583888222124CF706
:104CF300122AA322F0EEFAEFFB22024D8074F71280
:104D03000843EAFEEBFF7900901D37E05402700C74
:104D1300EA24331251645404600279E8901D37E0A9
:104D23005460700CEA24331251645402600279E82F
:104D33008A828B83A3A3A3A3E0F890DA03E0C3984A
:104D4300500279E8EA2431125164700CEA242E12DD
:104D53005164700479F5800BE97005122A91E9F921
:104D6300E96007EEFAEFFB122B7B025272C082C09E
:104D7300838A828B83740DF0121FD58007C082C093
:104D830083122AAFD083D082020D3274F412084307
:104D9300EAFEEBFF8A82F583E4F0A3124E15540476
:104DA30090D9FD7012E0F8901CD1E0C398401279BD
:104DB300F1122B7B023671E0F8901CD0E0C39850BF
:104DC300EE124E1BA3E054016037EA2437125164FC
:104DD300C394054033EA2433125164540570297A8D
:104DE300E57B1C122CADEE2437F582E43FF58312EC
:104DF30036227808120D807AE57B1C124E0F120DB5
:104E030065EEFA12580C80AC79E880A5122CA174D7
:104E13000422F0124E1BE022EA2433F582E43FF52C
:104E2300832274F6120843E9FE2451FAE43400FBAA
:104E33001216EDEA4B6015EE8A828B83A3A3A3A31C
:104E4300F0EA2451124E56124E6780047A007B001A
:104E5300026585F8E43BF98A828B83A3A322126B54
:104E6300D5901DAFE8F0A3E9F022024D80C082C0C7
:104E730083901CEE7403F0A3742BF0A37433F0A39C
:104E8300742BF0A37409F0A3742BF0A3740FF0A395
:104E9300742BF0A3742DF0A3742BF0A37421F0A34F
:104EA300742BF0A3741BF0A3742BF0A37439F0A339
:104EB300742BF0A3743FF0A3742BF0A37445F0A3F9
:104EC300742BF0A37451F0A3742BF0A37415F0A307
:104ED300742BF0A374FDF0A3742AF0A374F7F0A36A
:104EE300742AF0901D0A7427F0A3742BF0A3744B5B
:104EF300F0A3742BF0A37465F0A3742CF0A3745780
:104F0300F0A3742BF0A3745DF0A3742BF0901D2E0B
:104F1300E4F0901D31F0901D1A124F2D7402F090A1
:104F23001D23124F2D740102488B7475F0A3742B4B
:104F3300F0A32274F512084374F1120E1885188237
:104F43008519837402F07401121086E9F060047A03
:104F5300FF7BFF74021210861259CA750826750961
:104F63001D750A007808120D847C0B7D00740712EE
:104F73001086AA82AB83124F9D120D65AA18AB1936
:104F8300121FD5740F8003124F9D120D657F03020C
:104F93000AFB7C0B7D007A267B1D1216C974032243
:104FA30074F712084374FD120E188518828519834D
:104FB300740AF07401121086E9F07402121086EA82
:104FC30012664402401B74F612084374F7120E185B
:104FD300EAFEEBFFEA12501B12504B7402F0EA2474
:104FE30028FCE43FFDAA18AB19121885EE243112F0
:104FF30050212433126043120D887402120DF87984
:10500300831A1A123BDC120D65E9F5087007EEFAF4
:10501300EFFB122AB502657E1237E4740122F58292
:10502300E43FF58312364D1254EBF583125039E801
:10503300F0A3E9F0EE221250418A828B8322E0240E
:10504300FFF8A3E034FFF922F0A3E4F0EA123BFDFA
:105053002274F0120843126AB312102F7808790CE5
:105063001207547808120D807A1D7B1D0236557481
:10507300F412084374C6120E189006D3E0640F604E
:105083000D851882851983742E1259E980227A14AA
:105093007B1D12369312066C88088909E4F50AF51C
:1050A3000B7808120D807A147B1D124E0F120D65BA
:1050B300743A02366E74F5120843EAFEEBFF8A82F5
:1050C300F583A3E0F87078EA243012516464026037
:1050D30007E06403600278E8EA2426F582E43FF5FA
:1050E3008312368C400478E88058E87052EA24260C
:1050F3001242CCEE24311251562430125164640210
:10510300700EEE2428126BCB9006E2124E678017C6
:105113009006E274FEF0A304F0EE2428FCE43FFDC5
:105123007AD97B06121891EE241B12441B120D84AC
:10513300124F95120D65EEFAEFFB122AF1E9F8E82A
:10514300600EE88E828F83A31263E7741712649153
:10515300024F90FAE43FFB7950121441EE22EE2401
:1051630010F582E43FF583E02274F612084374F7E6
:10517300120E18901D31E070377401F0F912152BDF
:10518300AA18AB19122BB775082675091D780812D2
:105193000D887508017509007808120D889006E8D6
:1051A300120BBA7406120DF87A03123682120D65C9
:1051B30002658074F71208431253927004A374EBD0
:1051C300F0901D31E0A2E25003C2E2F0E0A2E15010
:1051D300051253A380098E828F83742A126491026D
:1051E300527274F412084374FE120E18125298127B
:1051F30054DEEC85188285198312552DE0F50B706A
:1052030015AA18AB197953121441EE2413FAE43F8B
:10521300FB794A121441124418120D84124F95124D
:105223000D65124C0DA90B122AE5901D31E0A2E188
:1052330050031253AA901D31E4F0740202366E74C7
:10524300F7120843EAFEEBFF8A82F583A374EBF0BF
:10525300901D31E0A2E150077A0079EB122AEBEEC0
:10526300FAEFFB122B218007EEFAEFFB122C237FC0
:1052730001020AFB74F7120843125298901D2EE4A0
:10528300F0901D31F07AFF7BFF8E828F83A3E0F9CC
:10529300122AE580DA1253E37A1D7B1D122CAD220C
:1052A30074F7120843EAFEEBFF122B1B80BA74F764
:1052B300120843125420A3A3A3E0600474008002E5
:1052C30074EB1252F15003C2E2F0E0A2E150051276
:1052D30053F48011A2E0500D8E828F83742AF0A3C1
:1052E30074EB126491EEFAEFFB122AC780818E826F
:1052F3008F83A3F0901D31E0A2E22274F6120843DB
:10530300EAFEEBFF901D31E0D2E1F0790112152B9B
:105313008E828F83A3E07038122BBDE9FAEE240D41
:10532300F508E43FF5097808120D88750801750939
:10533300007808120D88125364120BBAEE2402FC93
:10534300E43FFD123682120D65E98E828F83A3F04E
:105353008E828F83A3E060067A00F9122AEB02653E
:1053630085EE240BF582E43FF5832274F71208439C
:105373001253927004A374EBF0901D31E0A2E2503B
:1053830003C2E2F0E0A2E150031253A3025272EA15
:10539300FEEBFF79011215318E828F83E0642022A8
:1053A300C2E1F01253AA227A008E828F83A3E0F91E
:1053B300122AEB2274F71208431253E38E828F836F
:1053C300A3A3A3A3E060047400800274EB1252F160
:1053D3005003C2E2F0E0A2E150031253F40252E898
:1053E300EAFEEBFF79011215317A147B1D122CAD05
:1053F30022C2E1126915E0A2E4E433FA1253AC22AB
:1054030074F712084312542074EB1252F65003C27D
:10541300E2F0E0A2E150031253A3025272EAFEEB60
:10542300FF79011215318E828F83A32274F712083C
:105433004312544502526B74F71208431254450247
:105443005272EAFEEBFF7A147B1D122CADEEFAEFDB
:10545300FB122B452274F712084374EF120E18EA5D
:10546300FEEBFFEA1263D37AD97B0612187FE96059
:10547300568518828519837409F074011210867495
:10548300EFF01254DE7402121086EC12552DA3A312
:10549300E0C0E07404121086D0E012551A6408705C
:1054A300158E828F83A3A3125506E0C0E074051204
:1054B3001086D0E080067405121086E412626F74C1
:1054C300061210861254CF741102401DAA82AB83B8
:1054D300122BEDAA18AB19121FD5221254EBF58328
:1054E3001254FDFCA3E0F922EE1254F3FB8882224E
:1054F3002402F8E43FF9E8FAE922124C628882F5C3
:1055030083E0221255152407F582E438F5832290AF
:105513001CD3124C62C82212551E22125523E022BC
:10552300F08E828F83A3A3A3A3221264FF125534A8
:105533002212553822E0F8A3E0F5838882A3A32240
:10554300C082C083122C2F024D87C082C083901D5E
:105553004E74EEF0A3741CF0A3740AF0A3741DF050
:10556300901EBF7455F0A37432F0A374B7F0A37404
:1055730032F0901D3A74DFF0A3742AF0901D37E0E7
:10558300440102488BC082C083EAFCEBFD7902121E
:105593002B93024D8774F612084374FE120E189073
:1055A3001D331255E660077A337B1D122BAB901D1A
:1055B30039E4F0900D971255E660208007AA18ABE6
:1055C30019122BAB901D32E0F91217058B09A909AB
:1055D30085188285198312423E70E2740202658245
:1055E300901CD3126BD5E8492274F7120843E9FAE9
:1055F3007B00901D32E0F912172F02527274F712DA
:10560300084374F0120E18EAFCEBFDE9FE8A828B64
:1056130083E0F874C412571B3435F583E493C0E078
:105623007401121086D0E0F0640B700DE98A828B4E
:1056330083A3F0122C11025716E07003025716646D
:105643000C6003025707741A6E700B7404121086F1
:10565300E4F0A302570674041210861259CAEA240E
:1056630032125ED3C0E07403121086D0E0126900D8
:10567300121063740612108612106F8C828D83A32E
:10568300A3A3A3A3A3A3A3A3126BD1740A1210868B
:10569300E8F0A3E9125720E05410600985188285C9
:1056A3001983E48013EC2412125ED3F89006F5E01C
:1056B300C398851882851983F0E0C0E0740C12103A
:1056C30086D0E0F0EC2415125ED3C0E0740D121006
:1056D30086D0E0F0EC2416125ED3C0E0740E1210F4
:1056E30086D0E0F0EC2417125ED3C0E0740F1210E2
:1056F30086D0E0125720A3E0540160087401121011
:10570300867411F07402121086EEF07401120DF01B
:10571300121FD5741002401D28F582E422F0EC120A
:1057230057293DF58322240EF582E422C082C083EB
:10573300901D39E064037004790180027900024D01
:105743008774F7120843901D39E01257BF74BD28C0
:10575300F582741E39F583125C51C2E7F01257C605
:10576300A3E493FE25E0FCE433FD74BD2CF58274C1
:105773001E3D125FDDEC4D6005EE901D39F08A820F
:105783008B83E025E0FCE433FDE82CF582E93DF56D
:1057930083E493FCC4540F25E0F8744812571B3478
:1057A3001DF5831255E67005122BFF800CEC540F88
:1057B3001257C6124CDF122E6802527225E0F8E42B
:1057C30033F92225E0FCE82CF582E439F5832274D1
:1057D300F212084374FE120E18890B8A088B091201
:1057E3005871125862601A12627CF50A7808120D19
:1057F3008412587E2402125FD3120D6512580A8058
:1058030003125890023C6DAA0CEFFB901D32E0F995
:105813001216F92274F012084374FE120E18890B43
:105823008A0E8B0F125871F50812586260271262A4
:105833007CA808EA28124560850E08850F09F50A39
:105843007808120D8412587E125FD1120D6512581A
:105853000A79008005125890791A740202365AFAAE
:105863007B001216ED8A0C8B0DAF0DEA4F22748D5F
:1058730029F582E43435F583E49322A80B74AE1240
:10588300571B3435F583E493FC7D00EA22851882A7
:10589300851983E50BF0791AAA18AB19122B7B2211
:1058A300C082C083E9901D3202488B74F61208430C
:1058B30074FE120E18EAFEEBFFEA542070308039B2
:1058C300A8A8C2AF901CD2E0141247B88A828B8377
:1058D3001259B7901D351259CA122B878518828524
:1058E3001983E0641560077A357B1D122BAB7ACCE4
:1058F3007B1C121717EA4B70C7EF5480700C80168D
:10590300901D35EAF0A3EB1259DD901D32E0F91238
:105913001705EA4B70EAEE5410600B85188285195F
:1059230083742D1259E9EEA2E0500B851882851974
:105933008374241259E9EE5402600B851882851989
:105943008374251259E9EE5404600B851882851976
:105953008374261259E9EE5408600B851882851961
:105963008374281259E9EE5440600D7401121086B5
:105973001259D0742C1259E9EE5480600D7401123F
:1059830010861259D0742F1259E9901D331255E61F
:10599300601BA8A8C2AF901D33124C13901D33E4B3
:1059A300F0A31247B8A3EAF0A3E91259DD7A007B0A
:1059B300000255DE1259BB22E0851882851983F057
:1059C30022A3A3A3A3A3A3EAF0A3EBF022E4125917
:1059D300D522F085188285198322F0122B877A3518
:1059E3007B1D122BAB22124504122B8722C082C0CF
:1059F30083901D3512663F687002EB697007901D36
:105A030035E4F0A3F0024D8774F7120843EAFEEB86
:105A1300FFEA4F70031211CBA2AFE433F508C2AF14
:105A23008E828F831255E66028E824FBFAE934FF5F
:105A3300FB901D35125FDFE86C7002E96D70079013
:105A43001D35E4F0A3F08E828F83E4F0A3F01217E8
:105A5300A7023E89C082C083901D5C74F3F0A374D7
:105A63002BF0A37405F0A3742CF0A3740BF0A374B0
:105A73002CF0A374C1F0A3742AF0A37411F0A374DF
:105A83002CF0A374BBF0A3742AF0A374C7F0A3741F
:105A93002AF0901D6A7441F0A3742CF0A37417F0DC
:105AA300A3742CF0A3741DF0A3742CF0A37429F039
:105AB300A3742CF0A37423F0A3742CF0901D5BE467
:105AC30002488BC082C0839006E2E064FE7003A3A9
:105AD300E0F470097CD97D06121885801C8A828BBC
:105AE30083A3A3A3A3A3A3A3A37402F09006E21228
:105AF3006BD18A828B83124E67024D87C082C0832B
:105B03009006ECC3E094FEA3E094FF400479038085
:105B1300027902024D87C082C083125C5A8C828D47
:105B230083125C0F687039740268701C8A828B83DD
:105B3300125B68E06870298A828B83A3125B68A377
