:020000040000FA
:06000000020B5B020295F9
:03002B0002093B8C
:03004300020809A7
:030053000201CADD
:100083000202290100F0FF0700080000FFFF000043
:10009300070400000003000147726F757000FF043E
:1000A30000100020FD00020000031100000000000A
:1000B300006311000000000000DF100000000000DA
:1000C3000000000000EB1000000000000000000032
:1000D30000000006FFFF1E124261736564206F6E0D
:1000E30020544920434332353330010104010001D8
:1000F3000005EA85011587E11400001D15000000C5
:1001030000000000000000000000000000000002EA
:100113000401000100011787011387E11400002384
:1001230015000000000000000000000000000000B7
:1001330000000001FF0201040000291A000000E88A
:10014300030000FFFFA31A0188130000E803000067
:1001530064006400B801A0BB0D00A0BB0D00020247
:100163000207040101051E02051E020A0A0101011C
:100173000809080103B80B02803E0102FEFFE803F1
:100183000A050001FFFF010A1401E0010503010153
:10019300FF0F10FEFF03000300030003000300032F
:1001A3000003000300030005000A00140028004FA9
:1001B300009E000000182D00000000EC2B00000042
:1001C30000FF000000FF00C0E074F11204ACA2AF16
:1001D300E433F509D2AF85A708AFA1EF5508FE7444
:1001E300105E6006120E6F75A1EF74085E60081250
:1001F3000E7575A1F78024EFA2E092F0E508A2E066
:1002030082F05017906198E0F89006A8E0C398A296
:10021300D265D0335002E8F075A1FEE509A2E09261
:10022300AF7F0202050BC0E074F21204ACA2AFE48C
:1002330033FED2AF9061A4E0F8759B00E59158546A
:100243000860087591F7120EC38023E59158541086
:1002530060087591EF120EC98014E591A2E092F047
:10026300E8A2E082F05007E0C2E0F01210139061C0
:10027300A3E0F8E5E9585404600E120FE975E9FBB1
:10028300906193E0A2E640F2EEA2E092AF7F01021A
:10029300050BC0E074F21204ACA2AFE433FED2AF9C
:1002A3009061A5E0F8E5BF585404600675BFFB12E2
:1002B300102B80D4C3E498F8E499F91202F880264D
:1002C300C3E49AFAE49BFBE920E7E91202F8E49815
:1002D300F8E499F922C3E498F8E499F91202F8E4EE
:1002E30098F8E499F9C3E49AFAE49BFB22EB20E73C
:1002F300CFE920E7E0B90010BB0008E88AF084F8F2
:10030300AAF022E4FBC8FA22EB70227B10C833C8A0
:10031300C933C9335007C39AC3DBF280069A50012D
:100323002ADBEAC833F4C8C933F4C9FA2275F008E2
:10033300E4C833C8C933C933C99AC99B5004C92A0D
:10034300C93BD5F0ECFBC833F4C8E4C9FA2208086A
:1003530008EAC0E0EBC0E086F0E7A4FA180986F0EB
:10036300E7A42AFA180986F0E7A42AFA180986F0FE
:10037300E7A42AFA1986F0E7A4FBE5F02AFA19089C
:1003830086F0E7A42BFBE5F03AFA190886F0E7A418
:100393002BFBE5F03AFA18180986F0E7A4C5F02B11
:1003A300FBE43AFA1908E7C5F0C6A426F6E5F03BE4
:1003B300FBE43AFA1886F0E7A4F6E5F00826F6E43B
:1003C3003B08F6E43A08F6D0E0FBD0E0FA22E4CFAB
:1003D300C0E0E4CEC0E0E4CDC0E0E4CCC0E075F022
:1003E30020E626F608E633F608E633F608E633F6A3
:1003F300181818EC33FCED33FDEE33FEEF33FFC377
:10040300EC9709ED9709EE9709EF97191919400F22
:10041300FFEC97FC09ED97FD09EE97FE191906D538
:10042300F0BFECF709EDF709EEF709EFF719191922
:10043300D0E0FCD0E0FDD0E0FED0E0FF222518C5DF
:1004430082C0E0E51934FFC583C0E0E518C3958297
:1004530024F810AF088583198582188008858319CD
:10046300858218D2AFCEF0A3E520F0A37808E60882
:10047300F0A3DEFAEFF0A3E58124FAF8E608F0A38F
:10048300E608F0A3E608F0A30808E608F0A3E608E8
:10049300F0A315811581D0E0FED0E0F81581158118
:1004A3001581E8C0E0EEC0E022C0D02518C582C0A7
:1004B300E0E51934FFC583C0E0E518C3958224F352
:1004C30010AF088583198582188008858319858272
:1004D30018D2AFC8F0A3E9F0A3EAF0A3EBF0A37935
:1004E30008E709F0A3D8FAECF0A3EDF0A3EEF0A32C
:1004F300EFF0A3D0E0F0A3D0E0F0A3D0E0F0A3E5C9
:1005030020F0A3E5F0F0A322851983851882E0C0CB
:10051300E0A3E0F9A3E0FAA3E0FBA37808E0F60880
:10052300A3DFFAE0FCA3E0FDA3E0FEA3E0FFA3E06A
:10053300C0E0A3E0C0E0A3E0F5D0A3E0F520A3E092
:10054300A3F5F010AF088583198582188008858389
:1005530019858218D2AFD082D083D0E0F8D0E032B0
:10056300120BD5B900030205A2E490040178A07927
:100573001A8002F0A3D8FCD9FA7AA07B1D900086DA
:10058300784579028015E493A3AD82AE838A828B8A
:1005930083F0A3AA82AB838D828E83D8E9D9E775D2
:1005A30082E77583BF74061208CC7582457583296B
:1005B30074001208CC75F0108E1A8F1B85821F856C
:1005C300831E851882851983E0CEA3E0CF851F8221
:1005D300851E83EBC9EAC8EDCBECCAC3E833C8E98F
:1005E30033C9EA33CAEB33CBC3EA9EF51DEB9FF560
:1005F3001CB35004AB1CAA1DEC33CCED33CDD5F0AA
:10060300DAAE1AAF1B22D083D082ECC0E0EDC0E09B
:10061300E493A3FCE493A3FDED4C600D1206E1EC1F
:1006230024FFFCED34FFFD80EFE493A3FCE493A3EC
:10063300FDED4C600D1207B4EC24FFFCED34FFFD1F
:1006430080EFD0E0FDD0E0FCE493A3C0E0E493C0EE
:10065300E022D083D082E9C0E0E493A3C386F0C54F
:10066300F095F0F908E493A386F0C5F095F0700BCC
:10067300E493A3C3994005E9048002A3E475F0025F
:10068300A42582F582E5F03583F583D0E0F9E49380
:10069300A3C0E0E493C0E022851983851882E0A318
:1006A300FEE0A3F5207808E0A3F608DFFAE0A3FF55
:1006B300E0A3C0E0E0A3C0E0E0A3C0E0E0A3C0E0AB
:1006C300E0A3C0E010AF08858218858319800885F0
:1006D3008218858319D2AFD083D0820208D2C0E0BA
:1006E300C3E49396087401939618400FE4936670DD
:1006F3000808740193661870007019A3A3C3E493E8
:1007030096087401939618A3A3400DD0E0D0E0D0CF
:10071300E0020645A3A3A3A3A3A3D0E022C082C003
:100723008374FE1209CE851882851983EAF0A3EB40
:10073300F07C017D00AA18AB197900120DF785181A
:1007430082851983E0FAA3E0FB74021208EAD083DE
:10075300D082227404800474028000CCC0E0EDC017
:10076300E0E518C39CCCAD1950011D10AF068C18E1
:100773008D1980068C188D19D2AF12084ED0E0FD6A
:10078300D0E0FC2274028000CCC0E0EDC0E0E518AC
:10079300C39CCCAD1950011D10AF068C188D198068
:1007A300068C188D19D2AF12082CD0E0FDD0E0FCD6
:1007B30022C0E0C0F088F0E49366700808740193E7
:1007C30066187000A8F0A3A3700BD0F0D0E0D0E0BF
:1007D300D0E0020645A3A3D0F0D0E022D083D0829C
:1007E300CCC0E0E493A3600612086F1470FAE4939C
:1007F300A360061209B81470FAD0E0FCE493A3C016
:10080300E0E493C0E022C0E074F21204ACA2AFE4CF
:1008130033FED2AFC2C0E5D1A2E45003120DDFEE26
:10082300A2E092AF7F0102050BCAC0E0E493A3C527
:1008330082CCC582C583CDC583F0A3C582CCC582D6
:10084300C583CDC583DAE5D0E0CA22CAC0E0E0A300
:10085300C582CCC582C583CDC583F0A3C582CCC573
:1008630082C583CDC583DAE6D0E0CA22C0E0E49333
:10087300A3D39C5010E493A3C39C400AD0E0D0E0E0
:10088300D0E00207FCA3A3A3D0E022C008C3E096F4
:10089300F50808A3E096420808A3E096420808A3D7
:1008A300E09645087001D3D0082270090808082291
:1008B3006016181818C6C333C608C633C608C6332D
:1008C300C608C633C6D5E0EA22C09FF59FE473D0BD
:1008D3009F22D083D082C09FE493C0E0740193C071
:1008E300E0740293F59F2200C0D0251810AF08F5DD
:1008F30018500C05198008F51850020519D2AFD00D
:10090300D0222518F58210AF08F518400C15198070
:1009130008F51840021519D2AF8519832274048093
:100923000A74038006740280027401C0E0F40412A6
:100933000905D0E0120B9822C0E0C0D0E8C0E0A8BF
:10094300A8D2AFC2C7E8A2E792AFD0E0F8D0D0D028
:10095300E032BB0102E722C082C08389828A83BB63
:100963000003E08002E493D083D08222601608085B
:1009730008C6C313C618C613C618C613C618C613AB
:10098300C6D5E0EA222518F8E43519F9222518FA24
:10099300E43519FB222518FCE43519FD22C3E0C612
:1009A30096F608A3E0C696F608A3E0C696F608A353
:1009B300E0C696F622C0E0E493A36C7009D0E0D0C1
:1009C300E0D0E00207FCA3A3D0E022251810AF0873
:1009D300F518400C15198008F51840021519D2AF07
:1009E30022E066701008A3E066700A08A3E0667050
:1009F3000408A3E06622C3E09608A3E09608A3E0F8
:100A03009608A3E096A2D265D03322E76670100859
:100A130009E766700A0809E76670040809E76622B1
:100A2300C3E096F008A3E096F008A3E096F008A3CD
:100A3300E096F022C3E697F60809E697F60809E67A
:100A430097F60809E697F622C3E493960874019390
:100A5300960874029396087403939622E627F60881
:100A630009E637F60809E637F60809E637F622E01D
:100A730026F608A3E036F608A3E036F608A3E03628
:100A8300F622700422600D18C6C333C608C633C6E7
:100A9300D5E0F41822E493F608740193F60874027F
:100AA30093F608740393F622E056F608A3E056F68D
:100AB30008A3E056F608A3E056F622E056F008A392
:100AC300E056F008A3E056F008A3E056F022E6470C
:100AD300F60809E647F60809E647F60809E647F681
:100AE30022E026F008A3E036F008A3E036F008A3DE
:100AF300E036F022E657F60809E657F60809E65706
:100B0300F60809E657F622E4C396F608E496F608D3
:100B1300E496F608E496F622600D08C6A2E713C62B
:100B230018C613C6D5E0F322C6F4C608C6F4C60831
:100B3300C6F4C608C6F4C622C3E7960809E79608B2
:100B430009E7960809E79622C3E09608A3E096080A
:100B5300A3E09608A3E0962275D00075813F75182F
:100B63000175190400020563E6F008A3E6F008A383
:100B7300E6F008A3E6F022600C08C6C313C618C645
:100B830013C6D5E0F422E0F608A3E0F608A3E0F6E6
:100B930008A3E0F622CAC0E0E6F0A308DAFAD0E040
:100BA300FA22E8F0A3E9F0A3EAF0A3EBF022E0F8DD
:100BB300A3E0F9A3E0FAA3E0FB22EAF0A3EBF0A39E
:100BC300ECF0A3EDF022E0FAA3E0FBA3E0FCA3E04A
:100BD300FD22E5C754F84401F5C77901222518F52C
:100BE30082E43519F58322C2AF75D69F0200002235
:100BF3001208D568E3051208D518E4051208D533A1
:100C0300E4051208D59EE4051208D5A8E4051208E8
:100C1300D545E5051208D5F3E5051208D551E705D5
:100C23001208D5A8E7051208D5DCE7051208D5C5D3
:100C3300B9051208D541BA051208D574BA051208C8
:100C4300D5A2BA051208D5C6BC051208D5E2BC0563
:100C53001208D527BD051208D5ACBD051208D5F875
:100C6300BD051208D588BE051208D561BF05120857
:100C7300D5B2BF051208D517C0051208D58AC0051D
:100C83001208D5CEC0051208D526C1051208D548CD
:100C9300C1051208D5D8C1051208D569C2051208C5
:100CA300D5B5C2051208D5E1C2051208D522C30580
:100CB3001208D5C3C4051208D5A5C5051208D581E8
:100CC300C6051208D5AFFC051208D5F0FC051208BD
:100CD300D50AFD051208D533FD051208D592FD0589
:100CE3001208D5FCFD051208D55BFE051208D59840
:100CF300FE051208D556FF051208D5CDD0061208F9
:100D0300D5DED0061208D57CD1061208D596D106B9
:100D13001208D5F0FF011208D5BCD5061208D53B41
:100D2300D2061208D54BD2061208D560D206120895
:100D3300D5A9D2061208D5EFCC061208D573CD0675
:100D43001208D5DBCD061208D5F3FF011208D5A58D
:100D5300D5061208D5B3D5061208D5D3D306120883
:100D6300D5F0D3061208D5FFD3061208D508D4064A
:100D73001208D585B4061208D593B4061208D50C0B
:100D8300B5061208D5E1B5061208D5B3B7061208A1
:100D9300D5C2FD021208D5E0FD021208D50DFE02F0
:100DA3001208D583FE021208D521FF021208D54B83
:100DB300FF021208D5F4D4061208D59B9006120838
:100DC300D50891061208D5C091061208D5369206A9
:100DD3001208D54A93061208D5DA94061208D543A9
:100DE30095061208D59295061208D59B950612080A
:100DF300D5AA95061208D5C095061208D5D395062F
:100E03001208D5DC95061208D5EF95061208D51BF6
:100E130096061208D5B298061208D5F2980612085B
:100E2300D52E99061208D54299061208D55B990664
:100E33001208D54C9A061208D5FE9A061208D51246
:100E43009B061208D5B9C6061208D5DDC6061208D8
:100E5300D5F6C6061208D534C7061208D564C706E8
:100E63001208D591C7061208D5F7C7061208D5FA96
:100E7300C7061208D504C8061208D511C8061208F9
:100E8300D5EBBA061208D50BBB061208D54ABB062A
:100E93001208D568BB061208D583BB061208D5E92C
:100EA300BB061208D5F5BB061208D552BC061208BC
:100EB300D561BC061208D585BC061208D546BD0609
:100EC3001208D553BD061208D564BD061208D5B263
:100ED300D2061208D5FAD2061208D526D30612086E
:100EE300D55DA0061208D5B9A1061208D5C7A1067B
:100EF3001208D5DAA1061208D5EFA1061208D50407
:100F0300A2061208D517A2061208D593A206120844
:100F1300D5F8A2061208D58EA3061208D567A40633
:100F23001208D577A4061208D586A4061208D5663A
:100F33007F001208D58A7F001208D5B27F001208FD
:100F4300D5DA7F001208D592BD061208D5B9BD06C1
:100F53001208D5D7BD061208D546BE061208D51805
:100F6300B8061208D531B8061208D53DB8061208DE
:100F7300D551B8061208D56FB8061208D579B80648
:100F83001208D583B8061208D596B8061208D51CE0
:100F9300B9061208D591B9061208D5C0B9061208C8
:100FA300D50EBA061208D55DBA061208D578BA0668
:100FB3001208D582BA061208D593BA061208D5D6F6
:100FC300BA061208D588D3061208D500800612087F
:100FD300D52C80061208D54980061208D55C8006F8
:100FE3001208D57780061208D5D180061208D5FFDE
:100FF30080061208D50F85061208D56D86061208DD
:10100300D59F86061208D50287061208D56E880674
:101013001208D59688061208D5AB88061208D5BBE8
:1010230088061208D5FB88061208D53D89061208E2
:10103300D54D89061208D5A5CA061208D5BFCA061A
:101043001208D5E7CA061208D500CB061208D52424
:10105300CB061208D542CB061208D559CB06120887
:10106300D587CB061208D5A2CB061208D573D406B2
:101073001208D575FC031208D585FC031208D58A1E
:10108300FD031208D5BCFD031208D5ECFD031208BD
:10109300D50FFE031208D526FE031208D560FE0302
:1010A3001208D5C5FE031208D507FF031208D54E53
:1010B300FF031208D57BFF031208D5A6FF0312080E
:1010C300D560C9061208D57EC9061208D5E0C9063F
:1010D3001208D57ACA061208D5E2CF061208D5D56A
:1010E300CB061208D51DCC061208D5A5C3061208D7
:1010F300D506C5061208D51BC8061208D540C90671
:101103001208D522E8051208D5ACEB051208D5A8BC
:10111300ED051208D5DAEE051208D5B3EF0512086E
:10112300D543F1051208D50FF2051208D563F20570
:101133001208D5E3C1061208D504C2061208D53E2B
:10114300C3061208D568C3061208D5B9D406120817
:10115300D5C9D4061208D5D3D4061208D5ABE904F1
:101163001208D5AEE9041208D58AF1041208D5DCB9
:10117300F2041208D53DF4041208D514F50412083C
:10118300D5EDF5041208D5D6F6041208D5CAF7042E
:101193001208D582F8041208D5B2F8041208D562F1
:1011A300FA041208D555C5061208D575C5061208E6
:1011B300D589C6061208D58CC6061208D5F4CE0604
:1011C3001208D52ACF061208D542CF061208D584B5
:1011D300CF061208D594CF061208D5D8CF06120829
:1011E300D57D89061208D5B789061208D5208A0647
:1011F3001208D53F8A061208D5588A061208D5FA6E
:101203008A061208D5038B061208D5548B061208DA
:10121300D57D8B061208D58A8B061208D5FB8B0663
:101223001208D5898C061208D5D78C061208D50D5D
:101233008D061208D56E8D061208D5978D061208F5
:10124300D50E8E061208D56A8E061208D5A78E060D
:101253001208D5DE8E061208D5F08E061208D502C6
:101263008F061208D5218F061208D52A8F06120879
:10127300D5E58F061208D53190061208D56F900672
:101283001208D59EFF051208D5269B061208D566BF
:101293009C061208D5899C061208D59A9C0612084A
:1012A300D5B99E061208D5D99E061208D5B2FD01FE
:1012B3001208D5E8FD011208D530FE011208D589C0
:1012C300FF011208D5206B001208D5516C001208DB
:1012D300D58D6C001208D5476E001208D5716E00CB
:1012E3001208D5EA70001208D52A71001208D5BE7B
:1012F30072001208D55D73001208D5B57300120889
:10130300D54874001208D58274001208D5C474003D
:101313001208D53776001208D5B777001208D5F42E
:1013230079001208D5227A001208D54E7A001208E5
:10133300D5577A001208D5B47A001208D5447B0039
:101343001208D5807E001208D5027F001208D585C9
:10135300D5061208D59BD5061208D5EFA8061208A4
:10136300D505A9061208D5A9A9061208D5E8A90624
:101373001208D505AA061208D536AA061208D5837F
:10138300AA061208D5B7AA061208D5F2AA061208A9
:10139300D5E7AC061208D5F4CD061208D553CE0610
:1013A3001208D591CE061208D5D2CE061208D53131
:1013B300D5061208D50080041208D50C8004120843
:1013C300D56E80041208D57880041208D5058104EF
:1013D3001208D54181041208D50482041208D517D6
:1013E30082041208D58582041208D5ED82041208FE
:1013F300D57C83041208D5FA83041208D59F85048B
:101403001208D55887041208D59E88041208D51BE4
:101413008A041208D5C28A041208D5908F041208D0
:10142300D58790041208D51691041208D53B910470
:101433001208D5D891041208D5F591041208D515D0
:1014430092041208D58692041208D5A392041208B6
:10145300D5D192041208D56994041208D58A94044C
:101463001208D53095041208D57895041208D5EAE8
:1014730095041208D56D96041208D5D29604120865
:10148300D52F97041208D5CE97041208D542980495
:101493001208D57E98041208D5EB98041208D55586
:1014A3009A041208D5D69B041208D5859C04120809
:1014B300D5E79E041208D5499F041208D5779F04E7
:1014C3001208D58FA1041208D51FA4041208D5222F
:1014D300A5041208D588F2051208D5AEF205120844
:1014E300D5E8F2051208D5F1F2051208D5F4F20594
:1014F3001208D51EF3051208D5D6F4051208D5CA6D
:10150300F6051208D59FF7051208D5E3F70512086B
:10151300D510F8051208D5F6F8051208D518F905FF
:101523001208D590F9051208D531FA051208D50D20
:10153300FB051208D575FB051208D5A1FB0512089A
:10154300D5B6FB051208D595FC051208D59FCB042B
:101553001208D53ECC041208D5BACC041208D5A97A
:10156300CD041208D5A7CE041208D526CF0412083D
:10157300D568D0041208D509D1041208D5C9D204FC
:101583001208D5D0D3041208D5EDD3041208D51808
:10159300D5041208D555D6041208D5FFD60412086F
:1015A300D569DA041208D571DC041208D5FADC0413
:1015B3001208D554DD041208D5A2DD041208D51D86
:1015C300DE041208D59FDE041208D5DBDE04120800
:1015D300D57FE5041208D5DAE7041208D5B6E80486
:1015E3001208D5349D051208D5669D051208D5EA63
:1015F3009D051208D54D9F051208D53BA00512087D
:10160300D503A2051208D528A2051208D57AA2058A
:101613001208D50CA3051208D558A3051208D56BDB
:10162300A3051208D5C8A3051208D537A4051208C7
:10163300D504A5051208D572A5051208D5A9A505D7
:101643001208D5F2A5051208D59AA7051208D5796F
:10165300A8051208D5C7A9051208D5AAAA05120814
:10166300D536AB051208D56FAB051208D58EAB0581
:101673001208D5D9AB051208D5F9AB051208D5B6B2
:10168300AC051208D5C3AD051208D5D7AD051208B0
:10169300D52BAE051208D586AE051208D5D3AE05F7
:1016A3001208D5DBAF051208D560B2051208D5863E
:1016B300B2051208D501B3051208D526B3051208E1
:1016C300D5ADB3051208D589B4051208D5C7B4053D
:1016D3001208D54BB5051208D536B6051208D5390B
:1016E300B6051208D543B6051208D54DB60512083E
:1016F300D569B6051208D5E5B6051208D51EB70596
:101703001208D53AB7051208D566B7051208D58D64
:10171300B7051208D5B1B7051208D5ECB7051208FD
:10172300D55FB8051208D593B8051208D59DB8053D
:101733001208D5D9B8051208D5F3B8051208D51A79
:10174300B9051208D549B9051208D568B9051208B3
:10175300D580B9051208D592B9051208D523D40648
:101763001208D53BD4061208D5F6FF011208D5900E
:10177300F6011208D5DFF6011208D59DF80112080B
:10178300D557FA011208D595FA011208D58AFB013B
:101793001208D595FC011208D5B7FC011208D50132
:1017A300FD011208D582FD011208D52AA9041208E9
:1017B300D54DA9041208D5ABAA041208D5F4AA047E
:1017C3001208D552AB041208D5B8AB041208D5BB26
:1017D300AB041208D50CAC041208D586AC0412086D
:1017E300D514AD041208D517AD041208D59FAD0466
:1017F3001208D5E2AD041208D552B2041208D5F08E
:10180300B3041208D52AB4041208D570B40412081C
:10181300D5D0B7041208D555B8041208D5EDB904CC
:101823001208D5FCBA041208D529BC041208D589BC
:10183300BC041208D565BD041208D5EFBD04120817
:10184300D5F2BD041208D5D7BE041208D51DC004B5
:101853001208D5D1C1041208D5A4C3041208D53681
:10186300C4041208D5CBC4041208D5BDC50412089C
:10187300D57DC7041208D593C8041208D502CA043B
:101883001208D547CA041208D5F2CA041208D500B3
:1018930080051208D59B80051208D50E8105120814
:1018A300D52981051208D5CA81051208D5118205EB
:1018B3001208D53483051208D57783051208D5F3AA
:1018C30083051208D54684051208D5A58405120898
:1018D300D5B285051208D5CF88051208D5058A0526
:1018E3001208D58E8A051208D5928C051208D536B2
:1018F3008D051208D5D58D051208D5368E0512082B
:10190300D5A58E051208D5FE8F051208D5E89005DA
:101913001208D52391051208D54391051208D5F471
:1019230091051208D53192051208D5BA920512080D
:10193300D53594051208D50096051208D55B970591
:101943001208D5D098051208D5DF99051208D56C71
:101953009A051208D5D59A051208D5E19B051208F8
:10196300D5CBD9031208D52EDA031208D576DA03BC
:101973001208D5B4DA031208D50FDB031208D56CAD
:10198300DB031208D5A7DB031208D529DC031208F1
:10199300D583DC031208D5F7DD031208D575DE0302
:1019A3001208D58DDF031208D5B5DF031208D5045D
:1019B300E1031208D515E1031208D52DE10312083E
:1019C300D542E2031208D51FE3031208D51CE40332
:1019D3001208D540E4031208D5D1FB021208D578CA
:1019E300E4031208D59AE4031208D5B9E4031208F4
:1019F300D58DE5031208D5E7E5031208D588E8037A
:101A03001208D5E1E8031208D500E9031208D5EB63
:101A1300E9031208D521EA031208D55BEB03120888
:101A2300D5DAEB031208D511EC031208D54BEC03FE
:101A33001208D5BAEC031208D57BED031208D5546E
:101A4300EF031208D56EE2051208D5CCF103120894
:101A5300D5CCF3031208D547F6031208D521F803B2
:101A63001208D5E2F8031208D55AF9031208D57102
:101A7300F9031208D56BFA031208D563FB031208A6
:101A8300D5D2FB031208D5F4AC061208D5A4AE06D2
:101A93001208D563AF061208D5CBAF061208D53F9F
:101AA300B0061208D5C4B0061208D5E2B006120873
:101AB300D526B1061208D54CB1061208D573B10666
:101AC3001208D58BB1061208D5A3B1061208D54565
:101AD300B2061208D587B2061208D5A9B3061208B2
:101AE300D5B2B3061208D5BBB3061208D5C4B306E4
:101AF3001208D5CEB3061208D550FB041208D584BC
:101B0300FF041208D592FF041208D597FF041208A8
:101B1300D570C0061208D559D5061208D529D306A3
:101B23001208D539D3061208D5B7A4061208D5A5CD
:101B3300D1061208D5CFD1061208D50080031208AA
:101B4300D53280031208D59E80031208D53981034C
:101B53001208D5D881031208D51D82031208D53F78
:101B630082031208D55882031208D57E8203120815
:101B7300D5A082031208D5DE82031208D52283037F
:101B83001208D54483031208D5A683031208D56D22
:101B930084031208D52485031208D59685031208F9
:101BA300D56886031208D5B286031208D5058703C4
:101BB3001208D56B87031208D5A587031208D5F73A
:101BC30087031208D51388031208D53E8803120829
:101BD300D5458A031208D5998B031208D5BB8B030D
:101BE3001208D5EF8B031208D5108C031208D51FEA
:101BF3008C031208D52A8C031208D5DA8C03120839
:101C0300D5438D031208D5F08D031208D5288E0312
:101C13001208D5EE8E031208D5FB8F031208D545A3
:101C230090031208D5D490031208D53891031208F3
:101C3300D57391031208D5DF93031208D5339503A7
:101C43001208D56C98031208D53999031208D5C721
:101C530099031208D5F099031208D5629A03120862
:101C6300D5F69A031208D5549B031208D5469C0354
:101C73001208D5689C031208D5C49D031208D5DD4C
:101C83009D031208D5F09D031208D54D9E0312083B
:101C9300D55C9E031208D5EF9E031208D5FB9F0364
:101CA3001208D508A0031208D511A0031208D5E91C
:101CB300A1031208D50FA3031208D51FA30312080B
:101CC300D521A4031208D598A4031208D5C7A403E9
:101CD3001208D5CDA5031208D513A6031208D5DF24
:101CE300A7031208D5B7AB031208D5C1AB0312087B
:101CF300D5D5AB031208D5DFAB031208D5E9AB0387
:101D03001208D5F3AB031208D50CAC031208D51691
:101D1300AC031208D58AAC031208D595AC0312089C
:101D2300D5BAAC031208D5C5AC031208D513AD035D
:101D33001208D51DAD031208D528AD031208D54CE2
:101D4300AD031208D570AD031208D5CCAD0312084C
:101D5300D512AE031208D52FAE031208D5ACAE03CD
:101D63001208D5E3AE031208D522AF031208D56FCC
:101D7300AF031208D5F1AF031208D58AB0031208D6
:101D8300D55AB2031208D5B8B2031208D5D4B30397
:101D93001208D5FAB3031208D539B5031208D55F73
:101DA300B8031208D5A0BA031208D57CBC031208E5
:101DB300D512BD031208D539BF031208D5E5BF03F9
:101DC3001208D51AC0031208D57FC0031208D5899B
:101DD300C0031208D5B3C2031208D5DAC30312082D
:101DE300D51AC4031208D5C0C4031208D551C603BB
:101DF3001208D5DAC7031208D5FAC7031208D55358
:101E0300C8031208D555C9031208D59FC903120880
:101E1300D5EFC9031208D5D9CA031208D54ECB038F
:101E23001208D568CC031208D5E3CC031208D5E811
:101E3300CD031208D593D0031208D5B2D0031208EC
:101E4300D513D2031208D5D5D3031208D529D40349
:101E53001208D5E1D4031208D590D5031208D5E6AC
:101E6300D5031208D59CD6031208D531D70312081F
:101E7300D59DD7031208D5D7D7031208D508D803A1
:101E83001208D564D9031208D50080021208D5328E
:101E930080021208D56980021208D5528202120804
:101EA300D53583021208D58D83021208D5C8840262
:101EB3001208D51485021208D53C88021208D59E53
:101EC3008B021208D5EB8C021208D5818D02120801
:101ED300D58D8D021208D5BF8D021208D5418F0210
:101EE3001208D54F90021208D57990021208D5D066
:101EF30090021208D52991021208D5959102120871
:101F0300D5AC93021208D53B95021208D50596026B
:101F13001208D54397021208D57399021208D543C4
:101F23009C021208D5509C021208D5D79C021208B5
:101F3300D57F9D021208D5C29D021208D50B9E02C1
:101F43001208D55F9E021208D5C49E021208D52C32
:101F53009F021208D5499F021208D5799F021208E1
:101F6300D5AE9F021208D57EA0021208D527A10282
:101F73001208D5ABA3021208D5CBA4021208D5B41C
:101F8300A5021208D536A6021208D558AA021208CD
:101F9300D595AA021208D5EDAA021208D520AB02E4
:101FA3001208D5A1AB021208D5EEAB021208D579FF
:101FB300AC021208D5CBAC021208D5A2AD021208AE
:101FC300D55BAE021208D5F6AE021208D50FB202E7
:101FD3001208D52FB3021208D5E0B6021208D5FEB7
:101FE300B7021208D501B8021208D530B802120898
:101FF300D536BA021208D50FBB021208D544BB026C
:102003001208D54CBC021208D502BD021208D5A392
:10201300BE021208D5C8BE021208D507BF021208B5
:10202300D579BF021208D55DC0021208D52AC102B4
:102033001208D560C3021208D5D1C3021208D51104
:10204300C4021208D54AC4021208D5DEC40212081B
:10205300D527C6021208D5EAC9021208D5D9CA0281
:102063001208D5C0CB021208D538CC021208D5FA13
:10207300CC021208D5F8CE021208D510CF021208EE
:10208300D524CF021208D55CCF021208D58ACF021D
:102093001208D511D1021208D51CD2021208D56E2E
:1020A300D2021208D5D6D2021208D588D30212085A
:1020B300D5B8D3021208D59CD4021208D54DD50247
:1020C3001208D53CD7021208D571D7021208D5D908
:1020D300D7021208D508D9021208D5BAD9021208B4
:1020E300D5EBD9021208D503DA021208D592DA0227
:1020F3001208D546DD021208D51EDF021208D53AB2
:10210300DF021208D556DF021208D524E0021208B6
:10211300D508E4021208D51F87011208D557870195
:102123001208D5358C011208D57B8C011208D5C84D
:102133008D011208D5338E011208D5BC8F01120808
:10214300D5CC92011208D5E793011208D5F99D0168
:102153001208D58C9E011208D5DEA1011208D5DA2A
:10216300A2011208D535A3011208D57FA4011208D4
:10217300D56DA5011208D509A8011208D57DA901BD
:102183001208D500AA011208D503AA011208D578AE
:10219300AA011208D582AA011208D58FAA01120832
:1021A300D5BAAA011208D56AAB011208D563AC01EE
:1021B3001208D50EAD011208D52CAD011208D54574
:1021C300AD011208D56EAD011208D590AD0112080C
:1021D300D5E5AF011208D5AAB0011208D5EFB001B9
:1021E3001208D56EB1011208D51AB2011208D54CE6
:1021F300B2011208D5A0B2011208D5DBB201120850
:10220300D522B3011208D572B3011208D577B301F1
:102213001208D5CBB3011208D5F7B3011208D5E0E4
:10222300B4011208D531B5011208D591B5011208D0
:10223300D5EBB5011208D586B6011208D5C5B9018B
:102243001208D5D7BA011208D551BC011208D561BD
:10225300BF011208D5FFBF011208D5F5C20112084C
:10226300D5B4C3011208D5F8C3011208D5A3C5011B
:102273001208D5B7C5011208D5C1C5011208D5CBBF
:10228300C5011208D5D7C5011208D5FCC50112082E
:10229300D5D5C7011208D52AC8011208D534C801FB
:1022A3001208D53EC8011208D5B3C8011208D502D9
:1022B300C9011208D513CA011208D560CA01120850
:1022C300D56DCB011208D5B1CB011208D557CC017E
:1022D3001208D54ACD011208D510CE011208D53304
:1022E300CF011208D551D0011208D539D1011208F6
:1022F300D551D1011208D5A8D1011208D5B2D10107
:102303001208D5BCD1011208D5C7D1011208D5E5F1
:10231300D1011208D52DD2011208D58FD20112088E
:10232300D5B6D2011208D5C8D2011208D563D3019C
:102333001208D598D3011208D57FD4011208D5C449
:10234300D4011208D5AAD5011208D5D1D501120896
:10235300D554D6011208D5C5D6011208D54ED801D9
:102363001208D57AD9011208D53DDA011208D5052C
:10237300DB011208D58FDB011208D5B7DC01120887
:10238300D559DD011208D5D4DD011208D590DE013F
:102393001208D5DADE011208D534DF011208D50C94
:1023A300E0011208D52FE0011208D5E2E00112087E
:1023B300D504E1011208D56DE1011208D583E301CB
:1023C3001208D57BE4011208D53FE5011208D57147
:1023D300E7011208D5BBE7011208D50BE801120883
:1023E300D56FE8011208D5D1E8011208D5FFE8013D
:1023F3001208D523E9011208D558E9011208D58935
:10240300E9011208D5BCE9011208D50CEA0112084A
:10241300D55FEA011208D584EB011208D524ED013A
:102423001208D57FED011208D5A8ED011208D535A4
:10243300EE011208D5A3EE011208D5B1EE01120880
:10244300D5D5EE011208D52AEF011208D545EF01C3
:102453001208D5F7EF011208D52FF0011208D57233
:10246300F0011208D5D5F0011208D5D7F2011208F0
:10247300D501F3011208D5F8F3011208D502F501CD
:102483001208D5B2F5011208D55BC7051208D5931A
:10249300C7051208D5B4C7051208D5F6C705120833
:1024A300D558C8051208D562C8051208D572C805E3
:1024B3001208D5ADC8051208D58DCC051208D57AFA
:1024C300CE051208D560D0051208D5F7D00512083D
:1024D300D599D1051208D51131001208D5BC3100A8
:1024E3001208D56A32001208D57033001208D5904D
:1024F30033001208D5B934001208D5743600120817
:10250300D5E736001208D58B37001208D597380067
:102513001208D50239001208D53E39001208D581B8
:1025230039001208D5BC39001208D5FE390012084B
:10253300D5933A001208D50F3B001208D5D93B00BA
:102543001208D5B63C001208D54E3D001208D568D6
:102553003D001208D5983D001208D5C93D00120868
:10256300D58F3E001208D59F3E001208D5EE3E00DF
:102573001208D5FB3E001208D5043F001208D5828D
:102583003F001208D5DE3F001208D529400012088B
:10259300D54440001208D56F40001208D58C400086
:1025A3001208D59840001208D52F42001208D548CA
:1025B30042001208D5CD42001208D5E042001208AD
:1025C300D5FF42001208D5A343001208D5244500C5
:1025D3001208D5D746001208D56D47001208D570EA
:1025E30047001208D5E047001208D5FE470012083D
:1025F300D59548001208D5DD48001208D5E04800FB
:102603001208D5A649001208D5134A001208D53975
:102613004A001208D5C44A001208D5E24A0012083B
:10262300D5284B001208D5DC4B001208D5264C00E8
:102633001208D5554C001208D5B24C001208D5E744
:102643004C001208D5134D001208D5214D00120875
:10265300D56E4D001208D5DE4D001208D5274E0069
:102663001208D5734E001208D59F4E001208D5AA42
:102673004E001208D5C84E001208D5B34F001208F9
:10268300D5BD4F001208D5F84F001208D5085000E9
:102693001208D55C50001208D57050001208D59F5F
:1026A30051001208D5B451001208D5425200120845
:1026B300D58752001208D51353001208D51E5300B4
:1026C3001208D56054001208D57B54001208D5C7F0
:1026D30054001208D53655001208D56F550012085C
:1026E300D58955001208D5E955001208D58856003A
:1026F3001208D5D356001208D5A359001208D55590
:102703005A001208D5C25A001208D5025D001208F9
:10271300D51A5D001208D51D5D001208D5295D008C
:102723001208D53D5D001208D5455D001208D57825
:102733005D001208D57B5E001208D5085F00120801
:10274300D5785F001208D5FA5F001208D5BB600088
:102753001208D5DA60001208D57B61001208D5D8BB
:1027630061001208D5DB61001208D54F6200120820
:10277300D59E63001208D5A464001208D52F650006
:102783001208D54A66001208D51267001208D5430D
:1027930067001208D56667001208D56F6700120834
:1027A300D59E67001208D52E68001208D5E468008C
:1027B3001208D55969001208D5006A001208D575A8
:1027C3006A001208D5AC6A001208D5EA6A0012083A
:1027D300D564FB021208D595F9021208D553F90204
:1027E3001208D569F8021208D53DF8021208D5F48B
:1027F300F7021208D531F7021208D500F4021208C5
:10280300D5A2F1021208D572F1021208D522F10203
:102813001208D5BCF0021208D57BF0021208D55B72
:10282300F0021208D58DEF021208D527EF02120825
:10283300D5C6EE021208D566EE021208D504ED02E3
:102843001208D598EC021208D5ECEB021208D5E772
:10285300EB021208D5D0EB021208D59BEB0212084B
:10286300D594E1051208D535E8021208D5EADE054C
:102873001208D5FCDD051208D58EDD051208D53307
:10288300FD021208D5E8FC021208D57CFC021208EE
:10289300D532E8021208D519E8021208D50EE8026B
:1028A3001208D5DDE7021208D519FC021208D50477
:1028B300E6021208D58BE5021208D522E5021208BA
:1028C300D595E4021208D5EFFB021208D551E402B4
:1028D3001208D55BF0031208D52AE4021208D53991
:1028E300DD051208D5E4DC051208D5B7DC051208AE
:1028F300D584DC051208D55CDC051208D5FDDB05A3
:102903001208D5DDDB051208D5A8DB051208D56C46
:10291300D8051208D541D6051208D531D4051208B9
:10292300D5AED3051208D562D3051208D5DBFB0259
:102933001208D516D3051208D570D2051208D5573B
:10294300E40300000080FBE47387000100A31E354D
:10295300000400691E250002006D1E260002006FA0
:102963001E27000200711E280001007B1E290001A2
:10297300007C1E84000400301B86000100AE1D2A6B
:102983000001007D1E2B0001007E1E2C0001008330
:102993001E2D0008003E1B2E000100841E2F000187
:1029A30000851E30000100861E31000100871E32A3
:1029B300000100461B33000100471B34000100885F
:1029C3001E36000100481B38000100891E39000132
:1029D30000821E83000200A11E63000100531B64DA
:1029E3000001007F1E65000100801E6D0001005480
:1029F3001B71000800361B66000100A01E43000186
:102A030000911E44000200921E45000100941E46E0
:102A1300000200951E470008004B1B480001009769
:102A23001E4B000100981E04000100A41EA100011A
:102A330000A71E37000100A61E88000100A51E3C4A
:102A4300000100491B3D0001008A1E490002009954
:102A53001E67000100551B4D0002009B1E4E000126
:102A6300009D1E4F0002009E1E3E000100901E515D
:102A73000001008C1E520001008D1E530001008FC7
:102A83001E540001004A1B00000000000000013634
:102A930036010100010201000103010001040106E6
:102AA3000605020000070100340801000F090401B4
:102AB300010D0100FF0E08000017020000190100BC
:102AC300FF1A0100011B0100FE1C0100081D02008A
:102AD300001F010001200100012102000023010069
:102AE3000F2402000026010001270100082802002C
:102AF300FF2A0100072B0102402C0100002D0100D9
:102B0300012E0100012F0100FF30010B1D310800D0
:102B1300003A0100083B01000F3C0100013D0100A8
:102B2300FF3E04000042040000460400004A040083
:102B3300004E04000052040000560400005A040032
:102B4300000400030020011E870000000020011D77
:102B5300870000010020011D870000020020011DE5
:102B630087000000404201F485000004004201EEAA
:102B7300840000050042015585000006004201F46F
:102B8300850000070030011C87000010004203F499
:102B93001D000011003003D51900001200100307B7
:102BA3001E030000002103D6190000FDFF210119B7
:102BB300870300FDFF21011987060000001001D8DB
:102BC300190600FDFF21811987020400002905E091
:102BD300190204010029010F870204020029010DD3
:102BE300870204FDFF21011987010371030103011A
:102BF3000301030103010322030203010310030082
:102C03000300030003000300030003000342030067
:102C13000324030603000300030403120325032311
:102C230003250323030403040300030003000344F5
:102C3300030003000323030003650321003503811D
:102C4300030003050300030003000300032503231C
:102C530003030271023001600211027002010202D9
:102C63000202028002100261023A00410063027311
:102C730002720262024302000213023800000200E1
:102C83000204021202000200020002000204020413
:102C930002370037003C0244020002390000020000
:102CA30002650200023502810200020502820283EC
:102CB3000200020101710101010101110101013150
:102CC30001010101018001100161013B0014006356
:102CD3000173017201620143010001130106013D09
:102CE300013500040112010001000100010001048B
:102CF300010401330133013C014401320136000078
:102D03000100016501000135008101000105018217
:102D130001830100010300710030016000110070A4
:102D230000310220035004800010006100000014F1
:102D3300006300730072006200430000001300068A
:102D4300000000000004001200000000000000006A
:102D53000004000400370037003C02440000000078
:102D63000000000000650000003500810000000540
:102D730000000083000000030471040204600411D6
:102D83000470040204020401040204100461040038
:102D930004140463047304720462044304000413FC
:102DA30004060400040004040412040004000400E4
:102DB30004000451046400000400040004440400FB
:102DC3000400040004000465040004350481046461
:102DD300000504000483040004360001000600001B
:102DE300000F0000000000000000000000000003CE
:102DF300FFFF00000403FFFF0000FFFF0FF40100CB
:102E030005C4040320000100000B000000000000C3
:102E1300000003010F00000000000000000000009C
:102E2300000000000000000000000000000000009F
:102E3300000000000000009314BD149914D3139FE5
:102E430014C3149F14CF14A514D3139F14C314AB2A
:102E530014D31300000000B114D3130000000000CA
:102E6300000000B714D313000000000000000000AE
:102E7300000000000000000000000000000000004F
:102E8300000000000000000000000000000000003F
:102E930000000013004D181F0053181F805918001D
:102EA30000D1180100D1180200CF170280C91703FF
:102EB30000D5170400DB170480E1170500E71706A8
:102EC30000F3173000111831000B1832001D1833AE
:102ED3000023183500291834002F1836003518112F
:102EE3000041181400471815000518FFFF00000AD9
:102EF30000000002000000040000000800000010B1
:102F030000000020000000400000008000000000DE
:102F1300010000000200000004000000080000009F
:102F23001000000020000000400000015321068330
:102F330021087D210BA121103B1E0259210571217E
:102F4300075F210C3B210D4721641F1CFF00000379
:102F53000003000400080010001F003E007B00F681
:102F630000EC01D703AF075D0FB91E713D000007E9
:102F7300ECFDFDFDECDCDCCCBCACAC9C9C8C7C7C2B
:102F83006C6C5C5C5C4C4C3C3C2C2C1C1C03EAF5D0
:102F9300E5D5D5C5B5A595958585757565655555EE
:102FA30045453535252515150500160F00000B156C
:102FB3000B020002220F3300000E0F5A69674265AD
:102FC30065416C6C69616E63653039000000000017
:102FD30000000000000000000000000600000010D8
:102FE30001D9190600FDFF21811987D0D1D2D3D48D
:102FF300D5D6D7D8D9DADBDCDDDEDF00034D4C468E
:1030030051181A250502303017181921301B1D1FBE
:10301300300001191618161618230300003C40420D
:103023003A3F3F392F4730303016181920231A1CE6
:103033001E300C0E020B040B0A0708000F020402D9
:1030430001010101090200BE040AE80300000000B7
:10305300010003007F0000000E00E80304040910D0
:103063000503030A0C1008001E0C2800FF080209C0
:10307300033C0C050815041EE4F0A3F0A3F0A322FF
:1030830012307BF022901CA0124687122543221295
:10309300309622E0F508E4F509F50AF50B22E82459
:1030A300FBF582E934FFF58322E82411F582E43944
:1030B300F583E022F5831230BD22E0F508A3E0F5A5
:1030C30009221227BF74041208EA7F0802069B74C0
:1030D30001F09006C0E0640F2274091208EA7F042D
:1030E30002069BEA2413FAE43FFB1226EDE9227958
:1030F300051226F9740622A3A3E024F5C394132230
:103103001227CB9006E01266457A147B0022C08218
:10311300C083901C7F7437F0A37425F0A37449F027
:10312300A37425F0901C83741FF0A37425F0A3747B
:1031330019F0A37425F0A37455F0A37425F0A374B8
:103143005BF0A37425F0A3744FF0A37425F0A3746C
:1031530007F0A37425F0901C8F742BF0A37425F053
:10316300A37431F0A37425F0A37425F0A37425F0A0
:10317300A37461F0A37425F0901CA012505660094B
:10318300901CA01246831212BF901C9D12499D747D
:1031930008125CF2A3F0901D49F0901CA2F07C0B86
:1031A300FDF97AA37B1C1211ED7C0B7D0079007A6B
:1031B300AE7B1C1211ED0247F774F712044074F74B
:1031C3001209CEEAFEEBFF12324F7405124ABB74AA
:1031D30003F0123366124A9D2430FCE43FFD8C82D7
:1031E30012324712325B6008123A7474FFF0A3F094
:1031F300EE242EE43F1C1CFD8C82F583A3E0C0E08B
:103203008A828B8312474FD0E012325B8882898394
:10321300124F8A2403F0EE123A7E120BE07403F08D
:103223009006D512075A74021209981236481208EA
:10323300EAE9F5087007EEFAEFFB1225D3A9087443
:1032430009023A8DF583E08882898322EA12325497
:10325300221251993FF58322125F72124AA9E8F0B4
:10326300A3E9126249E02274F0120440EAFEEBFF84
:103273008C0C8D0D890B123366F583124AB17410D1
:10328300120BE0E0F508A3123249F0E824FFF582BF
:10329300E912365AE508F0E824FEF582E912365AB7
:1032A300E50BF09006DAE0C0E0E824FDF582E912D0
:1032B300365AD0E0F09006D9E0C0E0E824FCF5826D
:1032C300E912365AD0E0F07412120BE01230B91240
:1032D30030A1E509F0E824FAF8E934FFF98882F52A
:1032E30083E508F0EE2404FCE43FFD88088A828B22
:1032F30083E0F50E8C828D83E0250EC39508125F63
:10330300721248D7850C82850D83A3A3A3A3A3A31D
:10331300A3A3E064037009EE124A8BF0A3E48003D5
:1033230012365F1236677409F07508A375091C75A8
:103333000A007808120924125A3C1208EA7508FF99
:103343007509FF7808120928AC0CAD0D1236481226
:1033530008EAE9F5087007EEFAEFFB1225D3A9088E
:103363000230CDEA2402FAE43FFB8A8222C082C003
:1033730083901CBFE0C39408400474078001E08A73
:10338300828B83F033333354F8F90247F774F01226
:1033930004408A088B09890A8C0E8D0F750C00A2D4
:1033A300AFE433F50BC2AF901CB980451234925091
:1033B3003D1234AC64037036E50824F9F508E509D9
:1033C30034FFF5098E828F83A3A3E02405FCA3E0D9
:1033D3003400FDAA08AB091213A9E50824FFF50878
:1033E300E50934FFF5097410250CF50C150A12389C
:1033F300811269FAE50A6004EE4F70B0E50BA2E0B2
:1034030092AFA2AFE433F50BC2AF901CB9803E126A
:103413004F638882F5831241D7850882850983F03B
:103423008A8289831234A3A3A3E0C0E0E50824FFC2
:10343300F582E50912365AD0E0F0E50824FEF508D6
:10344300E50934FFF509050C150A1238811236D542
:1034530060211234AC640270F1123492EE40B01267
:103463004BD2A2E550E4850E82850F837401F0E50B
:103473000A70D7E50BA2E092AF850882850983E540
:103483000CF0E50824FFFAE50934FFFB0230CD1206
:103493003498A2E622EE2411F582E43FF583E0227C
:1034A3001234A722124FA8A3228E828F83A3A312C2
:1034B300475312567F2274F012044074F31209CE5C
:1034C3007403120BE0E9F07402120BE0EAF08B0BC9
:1034D300851882851983E4F0041209901224E9E91E
:1034E300F89006BFE0292437F508FA7B001212058D
:1034F3008A0C8B0DAE0CAF0DEA4F700302363FEA18
:103503002402F50EE43FF50FA808EA28F8E43BF996
:10351300850E82850F83123FD39006BFE0F9FAC36D
:10352300E49AFA95E0FB850E82850F83E02AF50C79
:10353300A3E03BF50D9006BD1230B9750A0078087B
:10354300120924E9FC7D00AA0CAB0D124A0D1208E6
:10355300EAAC18AD197401120BE0E0F9E50C24FF95
:10356300FAE50D34FFFB1224EF8A828B83E4F0E546
:103573000BC454F0F9901D4AE0C4333354C0F8909F
:1035830006B9E0A2E0E43313134849440FC0E0EA6C
:1035930024FFF582EB12365AD0E0F0EA24FEF50C54
:1035A300EB34FFF50D7403120BE0E0F87402120B19
:1035B300E0E0C454F048850C82850D83F0A80C85A7
:1035C3000E82850F83125CBF2AC3988E828F83A3DA
:1035D300A3A3A3F0850E82850F83E8F0A3E50DF086
:1035E30012365F123667E4F0740C120BE0E4F075E8
:1035F30008AE75091C7808120924125A3C1208EA0D
:10360300851882851983E06009EE240E124BD44499
:1036130008F01226DBE9F9E4F508F5097808120940
:1036230028740612099812364A1208EAE97006EE5F
:10363300FAEFFB800BEEFAEFFB12120B7A007B0022
:10364300740D0230CA7903EEFAEFFB1226F374020B
:1036530022EE24FFF582EF34FFF58322EE1232547B
:10366300E4F0A322F012366C22EE12595F3FF58389
:103673002274F21204408A0C8B0DA2AFE433F50AD4
:10368300C2AF750800750900901CB9802C123891DF
:103693005024850C82850D83A3A3125A4F8E828FEB
:1036A30083A3A31246831226E1E9600A12388CC26F
:1036B300E6F08E088F091238811236D570CFE508EF
:1036C3004509600612376ED2E6F0E50AA2E092AF32
:1036D300800DE0FEA3E0FFEE4F2274021208EA7FA2
:1036E3000602069B74F01204408A0E8B0F8C0C8D1D
:1036F3000D750A00A2AFE433F50BC2AF7E007F0065
:10370300901CB98010AE08AF09123766124BD2D2A3
:10371300E7F0124661124675603412376EA2E75025
:10372300F1850882850983A3A312075AAC0CAD0D5A
:10373300AA0EAB0F1226E774021208EAE960D3EE71
:103743004F60C2123B087006123780D2E4F0E50BDB
:10375300A2E092AFEE4F60061225CD750A01A90AC9
:103763000230CD123498D2E4F0EE22E508125979F2
:103773003509F583E022AA82AB831213A98E828FC7
:1037830083A3A3124753E02274F212044074FE127F
:1037930009CE750C00750D00851882851983E4F038
:1037A300A3F0A2AF33F50AC2AF901CB91269FA8035
:1037B3002BEE24FBF582EF34FF1230B7780C12099D
:1037C3002812386F1208EAEEFCEFFDAA18AB1912A3
:1037D3001229AE08AF09901CBFE014F0EE4F602B26
:1037E300123891501DEE240BF8E43FF98882F583DB
:1037F300E024FFF0A3E034FFF0888289831250565F
:1038030060AF8E0C8F0D12388180A1E50AA2E09281
:10381300AF901CBFE0602C9006C0E0640F60069080
:103823001D49E0701E7A977B1C1227CB90870612E6
:1038330007567A977B1C12487F1208EA800574F0BA
:10384300124760AA18AB1912122F8A088B09AE0807
:10385300AF09EA4F60131224FB12388CA2E28E8266
:103863008F83A350D974E980D70236DDEEFCEFFDD8
:103873007AB97B1C12123B7402228E0A8F0BEE2440
:10388300FBF582EF34FFF58322EE123499221234D2
:1038930098A2E72274F7120440EAFEEBFF1224FB1E
:1038A30012474C12294AE964019006DC700AE024AD
:1038B30001F8A3E0340080031246D2F9124DD4126A
:1038C30048D7901CBFE0701F9006C0E0640F7017CC
:1038D3007A977B1C1227CB9087061207567A977B21
:1038E3001C12487F1208EAA8A8C2AF901CBFE004CC
:1038F300F0E8A2E78004E508A2E092AF024CE2748C
:10390300F7120440EAFEEBFFEA123938F01224FB07
:10391300EEFCEFFD7AB97B1C121235A8A8C2AF905A
:103923001CBF1242269006C0E0640F70057908128E
:103933002693024CE2123499C2E42274F712044033
:1039430074EA1209CEEAFEEBFF9006B9E0602A851D
:1039530018828519837401F0120BE0E41239F31213
:103963000BE0123779C0E0740A120BE0D0E0125C6E
:10397300DF740B120BE0124F3F7416023A8D74F78B
:10398300120440EAFEEBFF1224DDE9F974DC6960FE
:103993001E74DD69601974E469601474F369600F5F
:1039A30074DE69600A74DF69600574DB697007EEB1
:1039B300FAEFFB122699024CE274F712044074EBFF
:1039C3001209CEEAFEEBFF8518828519837406126D
:1039D30039F3120BE0AA82AB831213A9EE2408FC7D
:1039E300E43FFD740A120BE0124F3F7415023A8D47
:1039F300F0EA2413FCE43FFD74022274F71204403E
:103A030074F71209CEEAFEEBFFEA2430124BD460BE
:103A13005DEA123A7E120BE07403F09006D51207AA
:103A23005A123A7412075A9006E8E0F9740412091C
:103A330098EEFAEFFB1224E374041208EAE9F9742E
:103A4300DC69602374DD69601E74E469601974F3D2
:103A530069601474DE69600F74DF69600A74E86971
:103A6300600574DB697007EEFAEFFB1226990232E8
:103A730042EE242EF582E43FF58322125E50AA180B
:103A8300AB191213A974082274031208EA024CE258
:103A930074F21204408A0C8B0D750A00750B0075C5
:103AA30008E7A2AFE433F509C2AF901CB980031253
:103AB300387D1236D5602512389150F3123B0870C9
:103AC300EEEE2432123C9FE06870E4780A12092873
:103AD30012386F1208EA901CBFE014F0E509A2E067
:103AE30092AFEE4F6013EEFAEFFB1224FB79F0EE88
:103AF300FAEFFB122699750800A908AA0CAB0D1260
:103B030026990236E212366CE064012274F4120440
:103B13004074F71209CEEAFEEBFF8A82F583A3E035
:103B230064F37003023BAD8A828B83A3E064DF609E
:103B3300798A828B83A3E064E8606F8A828B83A394
:103B4300E064DB606512253DE9F5087055EE240E4F
:103B5300124BD4604D123BB760487408120BE0124D
:103B63003BC612075A7508FF7509FF780812092822
:103B73008E828F83A3A3A3A3A3A3A3A3E0F97404B7
:103B83001209981224E374041208EAE9F50874F39D
:103B930069600F74DF69600A74E869600574DB6942
:103BA300700F8E828F83A3E508F0EEFAEFFB1225E8
:103BB300490230DCEE240FFAE43FFB790912257F3A
:103BC300EA4B22740212544574FFF0A3123BD32232
:103BD300124F93A3A32274F1120440EAFEEBFF7584
:103BE30008008A82F583A3A3A3A3A3A31230FA40F8
:103BF300037508E88A828B83A3A3A3A3A3A3A3A328
:103C0300A3A3E0C3941040057508E880138A828B50
:103C130083A3A3A3A3A3A3A3A3A3A3E0640F600B02
:103C2300901D26E0540870037508E8EA240B123C43
:103C33009FA3A3A3A3A3A3A3A3E0C398500DEA2424
:103C43000B124BD4640F60037508E89006D9E0F4B7
:103C53007003A3E0F470037508EC7A237B0012125F
:103C6300B98B0BA90B901CA0123CAE60278E828FE0
:103C730083A3A3A982AA83890C8A0D750E00780CED
:103C83001209247C237D00901CA0E0FA124A0D1235
:103C930008EA800375081AA908025A37F582E43F37
:103CA300F583E0F88A828B83A3A322EAF0A3EBF0E7
:103CB300EA492274F5120440EAFEEBFF8A82F58397
:103CC300A3A3A3A3A3A3A3A3E09006C0123D46E02E
:103CD3009006DBF0EA240B124BD49006BB123D4650
:103CE300A3E0901D4AF0F9120F71901D4AE0600B9A
:103CF300EE2404124BC62406123D3C901D4912309B
:103D0300D26004740180027400901CA212638A12B0
:103D130009247C0B7D007AA37B1C124A0D1208EA4E
:103D2300EE2418F508E43FF50978081209247C0B02
:103D33007D007AAE7B1C0249FAFAE43FFB79E1127B
:103D43000F5922126374A3A3A3A32274F71204408E
:103D5300EAFEEBFF8A82F583A3E070031230881238
:103D63005EFB024CE274F7120440EAFEEBFF901C88
:103D7300A01250566010901CA0124683901CA0E421
:103D8300F0A3F01212BF8E828F837408124767125A
:103D93001AF9024CE274F6120440901D49E06010D7
:103DA300901CA2E0700A123DB6EA4B60031225D3C1
:103DB300025FF59006BBE0FB9006DBE0FA9006C0DD
:103DC300E0F91224F52274F412044074E71209CEC8
:103DD300EAFEEBFF750B018A82F583A3A3A3A3A3DA
:103DE300A3A3E0A2E25069EA242BF582E43F125A2E
:103DF3004DEA2413FAE43FFB122501E97052908641
:103E03004EE064017005750B008045123E8812096F
:103E1300247C0B7D007411120990124A0D1208EADA
:103E23001226DBE9FA740E120988880889097808D2
:103E33001209287508307509007808120928EE124E
:103E43005CA812075A125E4279011230F41208EA92
:103E53008518828519837410F0125E427402120B66
:103E6300E0AA82AB8312139DEE242B12663B740BE4
:103E7300120BE01248D7740D120BE0E50B1260B47D
:103E830074190230DEEE240812639222C082C083CA
:103E9300901D4AE0600312274D0247F7C082C0839A
:103EA300901D41747FF0A3741CF0A37483F0A3747A
:103EB3001CF0A3748FF0A3741CF0901EDA747AF0D4
:103EC300A3742DF0901D2B74D7F0A37424F0901CD1
:103ED300C4740DF0A37425F0901CC67413F0A3747E
:103EE30025F0901D26E044020242FBC082C083EA13
:103EF300FCEBFD7903025002C082C08379080261A2
:103F030075C082C08374FE1209CE901CCC74BBF0C2
:103F1300A37425F0901CCE74B5F0A37425F080072C
:103F23007AB97B1C123F60901CB912505670F19005
:103F33001CBB12505660097ABB7B1C123F6080EF9A
:103F4300901CB9E4F0A3F0901CBFF0A3F0A3F09091
:103F53001CDA74F7F0A37425F07402801C12122F7C
:103F6300851882851983EAF0A3EB123F741226C9E0
:103F730022F0AA18AB192274111208EA0247F77447
:103F8300F6120440E9FF741F29F582E43430F58307
:103F9300E493FEFA7B00121205EA4B6007EA2E1245
:103FA3003FD080267A027B00121205EA4B60177419
:103FB300092FF582E43430F583E4938A828B83F00E
:103FC300A3741A1243997A007B00025FF51248C664
:103FD300E8125F6FA3A3A3A3E4F022E9FC7406290C
:103FE300F8EAA2E0501EE875F00A84E5F0F96014DF
:103FF300740A28C399F8E9C394054004740A28F89D
:10400300740B28F8ECC394134004791480027906E6
:10401300E82979002409F85001097A0A7B00120281
:10402300F0E8F90208D2C082C083901D26E0540252
:10403300600A121AFFE960047901800279000247DD
:10404300F7C082C083901D26E054026014901CBF09
:10405300E0700A12505360091240695004790180DC
:104063000279000247F71230ACA2E722C082C08374
:1040730090864BE0F8901CC1E0C3985005121205DE
:1040830080047A007B000247F7C082C0831226C9EE
:1040930079000247F7C082C08374FE1209CE8518E7
:1040A30082851983EAF0A3EB124202A3A3A3A3A37D
:1040B300E0600A14605724FE605A0241729006C001
:1040C300E0640F601212269FE9700C12467D901C6B
:1040D300C812474F12294A9006E8E0C0E0851882CB
:1040E300851983124F76D0E0124202741412599349
:1040F300FCA3E0FD7ABB7B1C121229A8A8C2AF90D7
:104103001CC11242267920122693023F5C1244D02E
:10411300741580D91244D0A3A3A3A3E06051124421
:10412300D0123784C0E0851882851983E02406F510
:1041330082E43BF583D0E01259932402F8A3E034E0
:1041430000F98882F583E02401FAA3E03400FB88B8
:10415300828983EAF0A3EB125993124510851882E2
:1041630085198360131241D760051241E94048AABB
:1041730018AB191226C980921241D760F21241E995
:1041830050211241F6FA851882851983A3E0C824C9
:10419300061244CCF8743F12518B3430F583E49308
:1041A3006A60148518828519831241D7640870BF29
:1041B3001241F6640870B81241F61412420A240A36
:1041C300C0E085188285198312474FD0E012420A56
:1041D300040240F01241DB221246D2C82406F582C3
:1041E300E438F583E0228518828519831241DBC305
:1041F300940A228518828519831234A7A3E0221218
:104203004214F583888222124214C824061244FA07
:1042130022F08518828519831246D222A8A8C2AF3C
:10422300901CC0E004F0E8A2E792AF22C082C083F2
:10423300901CD012505660081244D712294A8002AB
:1042430079000247F774F7120440EAFEEBFFEA1223
:10425300366D7401124885F8A3E0F912324F124803
:10426300D7EA2435124BD4C0E0EA2413F582E43FA5
:10427300F583D0E0F0EA2436124BD4C0E0EA2414EC
:10428300F582E43FF583D0E0F0EA2438124BD4C042
:10429300E0EA2418F582E43FF583D0E0F0EA242F26
:1042A300F582E43FF58312075A125E4FEA24311276
:1042B3004BD4F912364E1208EAE9F5087007EEFA04
:1042C300EFFB1225D3A908024CE2C082C083122659
:1042D3009FE960047920800279010247F7C082C018
:1042E30083EA24111242F1D2E0800DEA240DF58213
:1042F300E43BF583E022F0A3F00247F7C082C083DA
:104303001242EE64017011124393400C8A828B8334
:10431300A3E0F91226998066124384A2E650128A1A
:10432300828B83A3E0F9901CCA12474F12294A805B
:104333004D1242EE6401700D12439350088A828B32
:1043430083743080368A828B83A3E0641B8A828BDA
:1043530083700474228024A3E0700D1242EEF8747B
:104363002A12518B3430800B1242EEF87409125129
:104373008B3430F583E4938A828B8312439902470B
:10438300F712438822EA2410F582E43BF583E02206
:10439300124388A2E322F0901D21E0F912121122A8
:1043A30074F7120440E9FE12505370030244C9EE3D
:1043B3006014741B6E701AE812595F39F583E06458
:1043C3000570030244A1901CC31244D7A3E4024422
:1043D300A874E96E7068E82412F582E439F583E085
:1043E300700B121B05E9600512451A606179EE1224
:1043F3000EDB901CC21244F1901CC2603A12451DA0
:10440300901CC2700B1244F114F01210910244C9B3
:1044130012450FC2E71246B8240D1244CC64037050
:10442300091244EA12466ED2E2F079ED120EDB1263
:10443300450212294A80781244DD74E9806774E1E9
:104443006E703E121B05E9605512451A70509006B6
:10445300E2E0C0E01244EA2412F582E438F583D0A6
:10446300E0F09006D1E0C0E0901CC21244E6124492
:10447300E6D0E0F09006D1E004F0790112107980E3
:1044830045741C6E7018901CC2124683901CD21285
:10449300474F12294A901CC2E4F0A3F08028901CD5
:1044A300C21244DDEEF0901CC21246831225C112E3
:1044B3004699E054806003126164901CC2E4F0A347
:1044C300F07910122693024CE21244FA22851882E4
:1044D300851983A3E0F5838882221244E1221247DF
:1044E30057A322124FA422901CC2124F8522124FAF
:1044F3008524121244FA22F582E438F583E02290EF
:104503001CC2124687901CC612475322E0F8A3E050
:10451300C824101244FA22901CC21246A0E054048C
:104523002274F4120440750A00750B00A2AFE43341
:10453300FEC2AF125053600302461712474C1229B2
:104543004AE94410F8901CB9800985080A85090BCB
:10455300124661124675700302461712376E586889
:1045630070E8780A120928AC08AD091238731208EA
:10457300EA901CC2E508F0A3E5091246B812466E9C
:10458300A2E7500302461E901CC0E014F0EEA2E026
:1045930092AF901CC2E0240EF8A3E03400F9E8FEC9
:1045A300E9FF8882F583124683901CC21241FCF90D
:1045B300122585E9901CBD125CF28E828F83E05434
:1045C3008060181244EA24131244CCF9120F951296
:1045D30044EA24141244CCF9120F89124699A3E039
:1045E3005401605F901CBD12505660451246AF6087
:1045F300401246AFF87900901CBD1246831202F8B0
:10460300E8C0E012468DD0E01246BDC394134011BA
:104613007402800FEEA2E092AF8037901CBF024578
:104623008D7400C0E0901CC3E0C8124658D0E080EF
:104633000D12468D74011246B81246587401F07972
:1046430003800C901CC212450FA2E1B3E433F912AC
:1046530010790230E1241AF582E438F58322E50863
:1046630024FBF582E50934FFF583221259791244BC
:10467300FD221230BDE5084509228518828519837C
:1046830012468722E0FAA3E0FB22124F822419F597
:1046930082E438F58322901CC21246A0221246D22D
:1046A300C81246A82212519938F58322124F822448
:1046B300181244FA221246CAC8221246CAF583883F
:1046C30082A3A3A3A3E022F0901CC21246D222E04D
:1046D300F8A3E02274F7120440EAFEEBFF1226C3AC
:1046E300124BD1A2E3400A123B0870059086498021
:1046F3000390864AE0F9EEFCEFFD7AB97B1C1212B7
:1047030041E96038EEFAEFFB901CCC12474F1229B7
:104713004AEE240E124BD45404701212421FEE12AE
:104723003250A3E05401701E1225CD8019EEFAEF2A
:10473300FB901CC412474F12294A800A8E828F8332
:10474300A374F1124760024CE2901CCE124753222D
:1047530012475722E0F8A3E0F583888222124767C5
:104763001225C122F0EEFAEFFB220247F074F71292
:104773000440EAFEEBFF7900901D26E05402700C22
:10478300EA2433124BD45404600279E8901D26E0E6
:104793005460700CEA2433124BD45402600279E85B
:1047A3008A828B83A3A3A3A3E0F890864FE0C398E8
:1047B300500279E8EA2431124BD4700CEA242E1209
:1047C3004BD4700479F5800BE970051225AFE9F934
:1047D300E96007EEFAEFFB122699024CE2C082C0B1
:1047E300838A828B83740DF0121AF98007C082C00A
:1047F300831225CDD083D0820208D274F4120440F0
:10480300EAFEEBFF8A82F583E4F0A31248855404A1
:104813009086497012E0F8901CC0E0C3984012796A
:10482300F11226990230E1E0F8901CBFE0C39850E2
:10483300EE12488BA3E054016037EA2437124BD4BD
:10484300C394054033EA2433124BD4540570297AB8
:10485300D47B1C1227CBEE2437F582E43FF5831279
:10486300309278081209207AD47B1C12487F1208F0
:10487300EAEEFA12527C80AC79E880A51227BF7465
:104883000422F012488BE022EA2433F582E43FF558
:10489300832274F6120440E9FE2451FAE43400FB47
:1048A300121205EA4B6015EE8A828B83A3A3A3A39E
:1048B300F0EA24511248C61248D780047A007B00DC
:1048C300025FF5F8E43BF98A828B83A3A322126685
:1048D30045901D9EE8F0A3E9F0220247F0C082C094
:1048E30083901CDD7421F0A37426F0A37451F0A30C
:1048F3007426F0A37427F0A37426F0A3742DF0A3F9
:104903007426F0A3744BF0A37426F0A3743FF0A3B2
:104913007426F0A37439F0A37426F0A37457F0A39C
:104923007426F0A3745DF0A37426F0A37463F0A35C
:104933007426F0A3746FF0A37426F0A37433F0A36A
:104943007426F0A3741BF0A37426F0A37415F0A3CC
:104953007426F0901CF97445F0A37426F0A37469CF
:10496300F0A37426F0A37483F0A37427F0A37475E3
:10497300F0A37426F0A3747BF0A37426F0901D1D9E
:10498300E4F0901D20F0901D0912499D7402F090EF
:104993001D1212499D74010242FB7493F0A3742605
:1049A300F0A32274F512044074F11209CE85188223
:1049B3008519837402F07401120BE0E9F060047A44
:1049C300FF7BFF7402120BE012543A750815750948
:1049D3001D750A0078081209247C0B7D00740712E8
:1049E3000BE0AA82AB83124A0D1208EAAA18AB198C
:1049F300121AF9740F8003124A0D1208EA7F030298
:104A0300069B7C0B7D007A157B1D1211E17403223A
:104A130074F712044074FD1209CE85188285198338
:104A2300740AF07401120BE0E9F07402120BE0EA6D
:104A33001260B4023A8B74F612044074F71209CE72
:104A4300EAFEEBFFEA124A8B124ABB7402F0EA2435
:104A530028FCE43FFDAA18AB1912139DEE24311272
:104A63004A912433125AB31209287402120998790D
:104A7300831A1A12364C1208EAE9F5087007EEFA9F
:104A8300EFFB1225D3025FEE123254740122F5823A
:104A9300E43FF5831230BD124F5BF583124AA9E858
:104AA300F0A3E9F0EE22124AB18A828B8322E0243A
:104AB300FFF8A3E034FFF922F0A3E4F0EA12366D25
:104AC3002274F0120440126523120B897808790CC2
:104AD30012035178081209207A0C7B1D0230C57429
:104AE300F412044074C61209CE9006C0E0640F604D
:104AF3000D851882851983742E12545980227A03E6
:104B03007B1D1231031202F888088909E4F50AF5BE
:104B13000B78081209207A037B1D12487F1208EADA
:104B2300743A0230DE74F5120440EAFEEBFF8A8227
:104B3300F583A3E0F87078EA2430124BD464026062
:104B430007E06403600278E8EA2426F582E43FF58F
:104B5300831230FC400478E88058E87052EA242637
:104B6300123D3CEE2431124BC62430124BD4640266
:104B7300700EEE242812663B9006CF1248D780179A
:104B83009006CF74FEF0A304F0EE2428FCE43FFD6E
:104B93007AC67B061213A9EE241B123E8B1209243C
:104BA300124A051208EAEEFAEFFB12260FE9F8E8BB
:104BB300600EE88E828F83A3125E577417125F0113
:104BC300024A00FAE43FFB7950120F59EE22EE2419
:104BD30010F582E43FF583E02274F612044074F783
:104BE3001209CE901D20E070377401F0F9121043C2
:104BF300AA18AB191226D575081575091D78081260
:104C0300092875080175090078081209289006D546
:104C130012075A74061209987A031230F21208EA3C
:104C2300025FF074F7120440124E027004A374EB97
:104C3300F0901D20E0A2E25003C2E2F0E0A2E150B6
:104C430005124E1380098E828F83742A125F01022C
:104C53004CE274F412044074FE1209CE124D081291
:104C63004F4EEC851882851983124F9DE0F50B702A
:104C730015AA18AB197953120F59EE2413FAE43F0E
:104C8300FB794A120F59123E88120924124A05125F
:104C930008EA12467DA90B122603901D20E0A2E12B
:104CA3005003124E1A901D20E4F074020230DE7499
:104CB300F7120440EAFEEBFF8A82F583A374EBF05C
:104CC300901D20E0A2E150077A0079EB122609EE4D
:104CD300FAEFFB12263F8007EEFAEFFB1227417F24
:104CE3000102069B74F7120440124D08901D1DE447
:104CF300F0901D20F07AFF7BFF8E828F83A3E0F973
:104D030012260380DA124E537A0C7B1D1227CB2214
:104D130074F7120440EAFEEBFF12263980BA74F7E7
:104D2300120440124E90A3A3A3E060047400800217
:104D330074EB124D615003C2E2F0E0A2E1500512A0
:104D43004E648011A2E0500D8E828F83742AF0A3EB
:104D530074EB125F01EEFAEFFB1225E580818E8280
:104D63008F83A3F0901D20E0A2E22274F612044088
:104D7300EAFEEBFF901D20E0D2E1F079011210432F
:104D83008E828F83A3E070381226DBE9FAEE240DBE
:104D9300F508E43FF5097808120928750801750933
:104DA300007808120928124DD412075AEE2402FC87
:104DB300E43FFD1230F21208EAE98E828F83A3F0FA
:104DC3008E828F83A3E060067A00F9122609025FC0
:104DD300F5EE240BF582E43FF5832274F7120440C9
:104DE300124E027004A374EBF0901D20E0A2E25077
:104DF30003C2E2F0E0A2E15003124E13024CE2EAD6
:104E0300FEEBFF79011210498E828F83E06420222A
:104E1300C2E1F0124E1A227A008E828F83A3E0F948
:104E23001226092274F7120440124E538E828F8386
:104E3300A3A3A3A3E060047400800274EB124D618A
:104E43005003C2E2F0E0A2E15003124E64024D5857
:104E5300EAFEEBFF79011210497A037B1D1227CB7F
:104E630022C2E1126385E0A2E4E433FA124E1C226B
:104E730074F7120440124E9074EB124D665003C245
:104E8300E2F0E0A2E15003124E13024CE2EAFEEB21
:104E9300FF79011210498E828F83A32274F71204C3
:104EA30040124EB5024CDB74F7120440124EB502A9
:104EB3004CE2EAFEEBFF7A037B1D1227CBEEFAEFFF
:104EC300FB1226632274F712044074EF1209CEEA30
:104ED300FEEBFFEA125E437AC67B06121397E96084
:104EE300568518828519837409F07401120BE074D6
:104EF300EFF0124F4E7402120BE0EC124F9DA3A37E
:104F0300E0C0E07404120BE0D0E0124F8A64087032
:104F1300158E828F83A3A3124F76E0C0E07405122F
:104F23000BE0D0E080067405120BE0E4125CDF7442
:104F330006120BE0124F3F7411023A8DAA82AB8323
:104F430012270BAA18AB19121AF922124F5BF58319
:104F5300124F6DFCA3E0F922EE124F63FB8882220D
:104F63002402F8E43FF9E8FAE9221246D28882F5EE
:104F730083E022124F852407F582E438F5832290DB
:104F83001CC21246D2C822124F8E22124F93E02225
:104F9300F08E828F83A3A3A3A322125F6F124FA469
:104FA30022124FA822E0F8A3E0F5838882A3A3226C
:104FB300C082C08312274D0247F7C082C083901D71
:104FC3003D74DDF0A3741CF0A374F9F0A3741CF01A
:104FD300901ED474B6F0A3742CF0A37454F0A3748D
:104FE3002CF0901D2974FDF0A37425F0901D26E08C
:104FF30044010242FBC082C083EAFCEBFD7902124A
:1050030026B10247F774F612044074FE1209CE90DB
:105013001D2212505660077A227B1D1226C9901D4D
:1050230028E4F0900D8412505660208007AA18AB34
:10503300191226C9901D21E0F912121D8B09A90925
:10504300851882851983123CAE70E27402025FF206
:10505300901CC2126645E8492274F7120440E9FA2B
:105063007B00901D21E0F9121247024CE274F71203
:10507300044074F01209CEEAFCEBFDE9FE8A828B50
:1050830083E0F8743512518B3430F583E493C0E038
:105093007401120BE0D0E0F0640B700DE98A828B8F
:1050A30083A3F012272F025186E070030251866416
:1050B3000C6003025177741A6E700B7404120BE0C8
:1050C300E4F0A30251767404120BE012543AEA247A
:1050D30032125943C0E07403120BE0D0E012637044
:1050E300120BB17406120BE0120BA58C828D83A3F5
:1050F300A3A3A3A3A3A3A3A3126641740A120BE061
:10510300E8F0A3E9125190E05410600985188285F4
:105113001983E48013EC2412125943F89006E2E059
:10512300C398851882851983F0E0C0E0740C120BD4
:10513300E0D0E0F0EC2415125943C0E0740D120BDB
:10514300E0D0E0F0EC2416125943C0E0740E120BC9
:10515300E0D0E0F0EC2417125943C0E0740F120BB7
:10516300E0D0E0125190A3E0540160087401120BE7
:10517300E07411F07402120BE0EEF0740112099066
:10518300121AF97410023A8D28F582E422F0EC1217
:1051930051993DF58322240EF582E422C082C08317
:1051A300901D28E0640370047901800279000247AE
:1051B300F774F7120440901D28E012522F74D2287E
:1051C300F582741E39F5831256C1C2E7F0125236C6
:1051D300A3E493FE25E0FCE433FD74D22CF5827442
:1051E3001E3D125A4DEC4D6005EE901D28F08A824B
:1051F3008B83E025E0FCE433FDE82CF582E93DF503
:1052030083E493FCC4540F25E0F8743712518B34B4
:105213001DF583125056700512271D800CEC540F98
:1052230012523612474F12294A024CE225E0F8E4A3
:1052330033F92225E0FCE82CF582E439F583227466
:10524300F212044074FE1209CE890B8A088B0912EC
:1052530052E11252D2601A125CECF50A7808120974
:10526300241252EE2402125A431208EA12527A808E
:10527300031253000236DDAA0CEFFB901D21E0F967
:105283001212112274F012044074FE1209CE890B1B
:105293008A0E8B0F1252E1F5081252D26027125C6C
:1052A300ECA808EA28123FD0850E08850F09F50AF5
:1052B30078081209241252EE125A411208EA1252C5
:1052C3007A79008005125300791A74020230CAFAFF
:1052D3007B001212058A0C8B0DAF0DEA4F2274FE70
:1052E30029F582E4342FF583E49322A80B74141276
:1052F300518B3430F583E493FC7D00EA22851882D8
:10530300851983E50BF0791AAA18AB19122699228D
:10531300C082C083E9901D210242FB74F61204404F
:1053230074FE1209CEEAFEEBFFEA54207030803996
:10533300A8A8C2AF901CC1E0141242288A828B83B2
:10534300125427901D2412543A1226A585188285DB
:105353001983E0641560077A247B1D1226C97ABB82
:105363007B1C12122FEA4B70C7EF5480700C80160F
:10537300901D24EAF0A3EB12544D901D21E0F91285
:10538300121DEA4B70EAEE5410600B8518828519E2
:1053930083742D125459EEA2E0500B85188285199F
:1053A300837424125459EE5402600B8518828519B4
:1053B300837425125459EE5404600B8518828519A1
:1053C300837426125459EE5408600B85188285198C
:1053D300837428125459EE5440600D7401120BE08B
:1053E300125440742C125459EE5480600D740112FF
:1053F3000BE0125440742F125459901D2212505630
:10540300601BA8A8C2AF901D22124683901D22E400
:10541300F0A3124228A3EAF0A3E912544D7A007BC9
:105423000002504E12542B22E0851882851983F016
:1054330022A3A3A3A3A3A3EAF0A3EBF022E41254B1
:105443004522F085188285198322F01226A57A2435
:105453007B1D1226C922123F741226A522C082C0C8
:1054630083901D241260AF687002EB697007901D72
:1054730024E4F0A3F00247F774F7120440EAFEEBCA
:10548300FFEA4F7003120D13A2AFE433F508C2AF66
:105493008E828F831250566028E824FBFAE934FF8A
:1054A300FB901D24125A4FE86C7002E96D7007904F
:1054B3001D24E4F0A3F08E828F83E4F0A3F0121294
:1054C300BF0238F9C082C083901D4B7411F0A374DE
:1054D30027F0A37423F0A37427F0A37429F0A37413
:1054E30027F0A374DFF0A37425F0A3742FF0A37443
:1054F30027F0A374D9F0A37425F0A374E5F0A37483
:1055030025F0901D59745FF0A37427F0A37435F050
:10551300A37427F0A3743BF0A37427F0A37447F09C
:10552300A37427F0A37441F0A37427F0901D4AE4F9
:105533000242FBC082C0839006CFE064FE7003A3E7
:10554300E0F470097CC67D0612139D801C8A828B51
:1055530083A3A3A3A3A3A3A3A37402F09006CF12D0
:1055630066418A828B831248D70247F7C082C08381
:105573009006D9C3E094FEA3E094FF40047903802E
:105583000279020247F7C082C0831256CA8C828D09
:105593008312567F687039740268701C8A828B8309
:1055A3001255D8E06870298A828B83A31255D8A339
:1055B300E068701C7901801A7403687013EC240589
:1055C300FC50010DEA2405FA50010B1213A38002CB
:1055D30079000247F7A3A3A3A3A3E0F88C828D83EA
:1055E300A3A3A3A3A32274F61204407E00740A1299
:1055F3000BE0E0125673FF8A828B83A3A3A3A3A3BA
:10560300A3A3A3E06F706474026F704E8A828B83CE
:10561300C082C08388828983A3A3A3A3A3E0F508E0
:1056230088828983A3A3A3A3A3A3E0FBAA08D083AF
:10563300D082E06A7003A3E06B703088828983A311
:10564300A3A3E0FA88828983A3A3A3A3E0F9EA6C66
:105653007002E96D70157E01801174036F700CE8A0
:105663002405FCE439FD1213A3E9FEEEF9025FF50C
:10567300F8A3E0F98882F58312567F22A3E013137F
:10568300543F540322C082C0838A828B83A3A3A383
:10569300A3A3A3A3A3E0640270169006CF1256C17E
:1056A300687003A3E06970047901800F7900800BAF
:1056B300EAFCEBFD7AC67B061213970247F71266E4
:1056C300458A828B83E0228A828B8312567FF8225B
:1056D30074F012044074FC1209CEE985188285190E
:1056E30083F07402120BE0ECF0A3EDF08A0A8B0B4B
:1056F3007508007402120BE0E02408125943C0E05D
:105703007401120BE0D0E0125993A2E75008750E12
:10571300FF750FFF800A9006D5E0F50EA3E0F50FA5
:10572300851882851983E0C2E712599854206007CF
:1057330012596574088004125965E4125998540487
:1057430060071259707480800512597074101259D1
:10575300985410600612594BE4800B9006E2E0C0A7
:10576300E012594BD0E0125998A2E050037508207B
:105773005408600674104508F5088A828B83A3A336
:10578300E024FFFEA3E034FFFFEA125956C394025C
:10579300E0400F640B6009E0148E828F83125989F5
:1057A30074034508F5087509009006F5E064017077
:1057B300118A828B83A3A3A3A3E0C39467400375D9
:1057C3000910851882851983E0F50C750D00740E98
:1057D300780C120A85E50D4509F509E06402701B92
:1057E3009006DAE08E828F83F09006D9E0C0E01253
:1057F3003654D0E0F0EE24FEFE801CE06403701DFE
:10580300EE24F9FEEF34FFFF7CE97D06EEFAEFFBB1
:105813001213A9EE24FF1EEF34FFFF8003E0602F75
:105823007401120BE0E060187414120BE0E0650ED3
:105833007004A3E0650F700874404508F508800FF5
:105843008E828F83E50FF0123654E50E12597F7462
:1058530001120BE0E0F50C750D00740A780C120AC6
:1058630085E50D4509F509E0640270237402120B06
:10587300E01260AA8E828F83F07402120BE012375B
:1058830086C0E0123654D0E0F0EE24FEFE8020E025
:1058930064037021EE24F9FEEF34FFFF7402120B50
:1058A300E0125A4FEEFAEFFB1213A9EE24FF1EEF9C
:1058B30034FFFF8003E0601C7414120BE0A3E08E3E
:1058C300828F83F07414120BE0E0C0E0123654D0E0
:1058D300E012597FEEF8EFF9E824FF1EE934FFFFE9
:1058E300E50A12595670059006C580039006D1E06B
:1058F300FA04F0EA88828983125E57E5091259890E
:105903008E82F583E508F0E50A2404F8E4350BF903
:10591300E50A2402FAE4350BFBEEFC8A828B83E072
:10592300F50888828983E02508C39C125F72EEF034
:10593300A3EFF0850A82850B83A3E4F0F90230C854
:10594300F582E43DF583E022EA2412F582E4350B87
:10595300F5832212595F350BF583E022240DF5827E
:10596300E422EA2410F582E4350BF58322EA125986
:1059730079350BF583222411F582E422F0EE24FE1F
:10598300FEEF34FFFF22F0EE24FF1EEF34FFFF2271
:10599300125445E022F0EA125199350BF583E022C7
:1059A30074F112044074FE1209CE8518828519839E
:1059B300ECF0A3EDF0890B8A0E750A1A7415120B1D
:1059C300E01268D412257F8A0C8B0DAE0CAF0DEA62
:1059D3004F605A7413120BE01260AF125AAEF0A369
:1059E300E9124ABEE50BF0750A0078081209247C17
:1059F3000B7D00EA125A411208EA7411120BE012ED
:105A0300075A7402120BE0125A4FA90E12364A12A9
:105A130008EAE9F50A7016E50B24F9600314700629
:105A230012388CD2E5F0EEFAEFFB1225D3A90A74F3
:105A3300021208EA7F0702069B7C0B7D00EE241B03
:105A4300FAE43FFB1211E1740322F583E0FCA3E0C7
:105A5300FD2274F612044074F71209CEEAFEEBFF3E
:105A63007801EA2432124BD460027805EA125AAE66
:105A7300124ABB7404125E4AAA18AB1912139DEEA4
:105A8300242F124A912431125AB312092874021294
:105A9300099879031A1A12364C1208EAE9F50870C4
:105AA30007EEFAEFFB1225D3025FEE123254E8221F
:105AB300F582E43F123247124F8E04F078082274C5
:105AC300F21204408A088B09ECFEEDFF8A828B8375
:105AD3007405F0EC125EE3126237F0EA2403F50A70
:105AE300E43509F50B850A82F583E0F50CA3E0F5AF
:105AF3000DEC2425F582E43FF583120BB1E50C127E
:105B03005979350DF583120BA5EC125E43AA0CAB44
:105B13000D12139D850A82850B83126954125CA8AA
:105B2300125CCB125434EE242F124BD4C0E0125C1F
:105B3300B1D0E0125CF72415F582E438F583E41262
