:020000040000FA
:06000000020FC70205EB30
:03002B00020D992A
:03004300020C4D5F
:0300530002052083
:1000830002057F0100F0FF0700080000FFFF0000EA
:10009300070400000003000147726F757000FF043E
:1000A30000100020FD0002000015150000000000F4
:1000B300007515000000000000F1140000000000AE
:1000C3000000000000FD140000000000000000001C
:1000D30000000006FFFF1E01F91800001D190000B3
:1000E300000000000000000000000000000000000D
:1000F300102020202020202020202020202020200D
:10010300200101040100010005CE8101EC820104FC
:100113000000241A000000E8030000FFFF9E1A01FC
:1001230088130000E803000064006400B801A0BB6A
:100133000D00A0BB0D0002020207040101051E020F
:10014300051E020A0A0101010809080103B80B028E
:10015300803E0102FEFFE8030A050001FFFF010ADA
:100163001401E0020000000105030101FF0F10FE6E
:10017300FF7630000000000E3000000000FF00009A
:1001830000FF00120FD7601D120FE6700519191931
:10019300801A120E7B701F120E8FC37003E6673333
:1001A30019191940071818182208080874FFF618B7
:1001B300F618F618F622120E8F60171210747021BB
:1001C30092F012107D7019501720F01408080809D6
:1001D3000909E7F61819E7F61819E7F61819E7F603
:1001E3002212107D60E6E869701F0808E62480F695
:1001F30008E436F618547FB47F0CE654806007F6A3
:10020300E418F618F622181822E9C6CC08C6CD0859
:10021300C6CE08C6CFC0E0E8C0E0EAC0E0EBC0E06D
:1002230009E9F809E7FA09E7FBE6F918E6F8C3EC88
:1002330098ED99EE9AEBC2E7F5F0EFC2E795F0502F
:100243000E600CEBCFFBEACEFAE9CDF9E8CCF8EA85
:10025300A2E7D2E7FAEB33FB13F5F0EEA2E7D2E71E
:10026300FEEF33FFC5F013A2E730E601B313C5F089
:10027300C3C0E0C0F07F00C39BFB605E9418600FB7
:10028300401D14601AD0E023F9D0E0F80203678A16
:10029300F0E9486003D2F0E4AFF0FAF9F8803BEB01
:1002A30030E40D89F0EA6003D2F0E4AFF0F9CAF864
:1002B300EB30E30D88F0EF6002D2F0AFF0E4CAC98F
:1002C300F8EB54076014FBC3EA13FAE913F9E813D4
:1002D300F8EF135002D2E0FFDBEDD0E0C0E030E7EF
:1002E30039C3E49FFFF5F0EC98FC42F0ED99FD4231
:1002F300F0EE9AFE42F0D0E0F9D0E0F8E5F0607A53
:10030300E923F9EE20E742D8028067C3EF33FFEC1D
:1003130033FCED33FDEE33FE80EAEC28FCED39FDD2
:10032300EE3AFED0E023F9D0E0F84002801BC3EEA2
:1003330013FEED13FDEC13FCEF135002D2E0FF08A4
:10034300B800067F7F74FF802EEF3350178CF020A8
:10035300F00260100CBC000C0DBD00080EBE0004C2
:1003630008E860DFE933E813FFEE2313FE4F4D4C3B
:100373008008E95480FFE4FEFDFCEE33EF33F470B4
:1003830004FCFD7E80D0E0FBD0E0FAD0E0F8D0E0C2
:10039300CFC618CEC618CDC618CCC6F92200120F88
:1003A300D7604F120FE66012E7548066F6120E7B99
:1003B3007011121074703B090909F4F618F618F657
:1003C30018F622120E8F701512107D08080860EAC5
:1003D300E6447FF618768018E4F618F62212107DAC
:1003E30060161210747012E4F608F608F608E65464
:1003F30080F609090918181822EAC0E0EBC0E0ECFE
:10040300C0E0EDC0E0E687F0A4FBACF008E687F0BF
:10041300A42CFCE435F0FA1809E687F0A42C4B6011
:10042300027401CA35F0FCE433FB09E687F0D2F726
:10043300A42CCB35F0FC1908E687F0A42BCC35F0BF
:10044300FBE433FD0819E687F0D2E7A42C4ACB3549
:10045300F0CD3400FC09E687F0D2E7A42DCC35F0CB
:10046300FDE433FA0918E687F0D2F7A42CCD35F072
:10047300CA3400FC08E687F0D2E7D2F7A42ACC35C9
:10048300F07A7E20E70B0ACB33CBCD33CDCC33CC04
:1004930033CB3350147004ED30E00ED2F1E4CD3D94
:1004A300CDCC3CCC3B5005DA05C2F1EB547FC633CF
:1004B30008E63392F0FBE73309E733C39A502D2B59
:1004C30070190C0D4C4D70151806E608C333700DEA
:1004D30020F10AA2F013F6E418800B4024E4F6306E
:1004E300F002768018F618F618F68024D33B1450E1
:1004F3001074FFA2F013F6187680E418F618F6804D
:100503000FA2F013F618E63303F618ECF618EDF61F
:10051300D0E0FDD0E0FCD0E0FBD0E0FA22C0E074F4
:10052300F1120891A2AFE433F509D2AF85A708AF62
:10053300A1EF5508FE74105E600612128175A1EFDB
:1005430074085E600812128775A1F78024EFA2E099
:1005530092F0E508A2E082F05017906198E0F890DD
:1005630006A8E0C398A2D265D0335002E8F075A183
:10057300FEE509A2E092AF7F0202094DC0E074F2EA
:10058300120891A2AFE433FED2AF9061A4E0F875F4
:100593009B00E59158540860087591F71212D580B5
:1005A30023E59158541060087591EF1212DB801403
:1005B300E591A2E092F0E8A2E082F05007E0C2E009
:1005C300F01214259061A3E0F8E5E9585404600E95
:1005D3001213FB75E9FB906193E0A2E640F2EEA2F1
:1005E300E092AF7F0102094DC0E074F2120891A2BC
:1005F300AFE433FED2AF9061A5E0F8E5BF585404F1
:10060300600675BFFB12143D80D4C3E498F8E499E7
:10061300F912064E8026C3E49AFAE49BFBE920E72D
:10062300E912064EE498F8E499F922C3E498F8E451
:1006330099F912064EE498F8E499F9C3E49AFAE4B6
:100643009BFB22EB20E7CFE920E7E0B90010BB00DA
:1006530008E88AF084F8AAF022E4FBC8FA22EB70D7
:10066300227B10C833C8C933C9335007C39AC3DBCD
:10067300F280069A50012ADBEAC833F4C8C933F47E
:10068300C9FA2275F008E4C833C8C933C933C99A13
:10069300C99B5004C92AC93BD5F0ECFBC833F4C845
:1006A300E4C9FA221206E720F01430E72B74FFFCAA
:1006B300FBFA747F8022E4FCFBFA7480801AB48016
:1006C30008BC00F2BB00EF800F50EBF9E4C39AFAC9
:1006D300E49BFBE49CFCE499C6CC18C6CB18C6CAC1
:1006E30018C6F922E4C9C608CAC608CBC6D3330361
:1006F30008CCC63392F0C3947F402E94184019C996
:10070300B90704CACBCC225025C309CA33CACB3399
:10071300CBCC33CC33D9F422F4600DC9CCC313CB87
:1007230013CBCA13CAD9F6CC22E4FCFBFA2214FC7D
:10073300FBFA22080808EAC0E0EBC0E086F0E7A471
:10074300FA180986F0E7A42AFA180986F0E7A42A1A
:10075300FA180986F0E7A42AFA1986F0E7A4FBE55C
:10076300F02AFA190886F0E7A42BFBE5F03AFA1908
:100773000886F0E7A42BFBE5F03AFA18180986F08F
:10078300E7A4C5F02BFBE43AFA1908E7C5F0C6A4C1
:1007930026F6E5F03BFBE43AFA1886F0E7A4F6E523
:1007A300F00826F6E43B08F6E43A08F6D0E0FBD07E
:1007B300E0FA22E4CFC0E0E4CEC0E0E4CDC0E0E460
:1007C300CCC0E075F020E626F608E633F608E633FB
:1007D300F608E633F6181818EC33FCED33FDEE3368
:1007E300FEEF33FFC3EC9709ED9709EE9709EF97F7
:1007F300191919400FFFEC97FC09ED97FD09EE97C6
:10080300FE191906D5F0BFECF709EDF709EEF70964
:10081300EFF7191919D0E0FCD0E0FDD0E0FED0E0ED
:10082300FF222518C582C0E0E51934FFC583C0E067
:10083300E518C3958224F810AF08858319858218BB
:100843008008858319858218D2AFCEF0A3E520F006
:10085300A37808E608F0A3DEFAEFF0A3E58124FA13
:10086300F8E608F0A3E608F0A3E608F0A30808E614
:1008730008F0A3E608F0A315811581D0E0FED0E0CF
:10088300F8158115811581E8C0E0EEC0E022C0D0E3
:100893002518C582C0E0E51934FFC583C0E0E5181B
:1008A300C3958224F310AF088583198582188008C5
:1008B300858319858218D2AFC8F0A3E9F0A3EAF0C3
:1008C300A3EBF0A37908E709F0A3D8FAECF0A3EDC2
:1008D300F0A3EEF0A3EFF0A3D0E0F0A3D0E0F0A3F9
:1008E300D0E0F0A3E520F0A3E5F0F0A322E9799EA0
:1008F300C608CAC608CBC608CCC6C370207996CA38
:10090300CBCC7019798ECBCC70137986CC700EF961
:10091300802ACA33CACB33CBCC33CC331930E7F27A
:10092300CCCBCA3350147004EA30E00DE4CA3ACA9F
:10093300CB3BCBCC3CCC500209C3E913C6CC182328
:1009430013C6CB18C6CA18C6F9228519838518821F
:10095300E0C0E0A3E0F9A3E0FAA3E0FBA37808E09A
:10096300F608A3DFFAE0FCA3E0FDA3E0FEA3E0FFAB
:10097300A3E0C0E0A3E0C0E0A3E0F5D0A3E0F5204E
:10098300A3E0A3F5F010AF088583198582188008CA
:10099300858319858218D2AFD082D083D0E0F8D076
:1009A300E03212105FB900030209E4E49004017815
:1009B3009B791A8002F0A3D8FCD9FA7A9B7B1D900D
:1009C3000086780179028015E493A3AD82AE838A11
:1009D300828B83F0A3AA82AB838D828E83D8E9D9DD
:1009E300E77582EA7583FD7404120D1075826975CB
:1009F300832D7400120D10E47375F0108E1A8F1B83
:100A030085821F85831E851882851983E0CEA3E026
:100A1300CF851F82851E83EBC9EAC8EDCBECCAC321
:100A2300E833C8E933C9EA33CAEB33CBC3EA9EF5EB
:100A33001DEB9FF51CB35004AB1CAA1DEC33CCED8E
:100A430033CDD5F0DAAE1AAF1B22D083D082ECC0FF
:100A5300E0EDC0E0E493A3FCE493A3FDED4C600D53
:100A6300120B25EC24FFFCED34FFFD80EFE493A390
:100A7300FCE493A3FDED4C600D120BF8EC24FFFC9A
:100A8300ED34FFFD80EFD0E0FDD0E0FCE493A3C0A4
:100A9300E0E493C0E022D083D082E9C0E0E493A3F2
:100AA300C386F0C5F095F0F908E493A386F0C5F08A
:100AB30095F0700BE493A3C3994005E9048002A366
:100AC300E475F002A42582F582E5F03583F583D041
:100AD300E0F9E493A3C0E0E493C0E02285198385A1
:100AE3001882E0A3FEE0A3F5207808E0A3F608DF70
:100AF300FAE0A3FFE0A3C0E0E0A3C0E0E0A3C0E00E
:100B0300E0A3C0E0E0A3C0E010AF088582188583AE
:100B1300198008858218858319D2AFD083D08202C9
:100B23000D16C0E0C3E49396087401939618400F22
:100B3300E49366700808740193661870007019A333
:100B4300A3C3E49396087401939618A3A3400DD00E
:100B5300E0D0E0D0E0020A89A3A3A3A3A3A3D0E03B
:100B630022C082C08374FE120DFC8518828519830E
:100B7300EAF0A3EBF07C017D00AA18AB197900120F
:100B83001209851882851983E0FAA3E0FB74021227
:100B93000D49D083D082227404800474028000CC77
:100BA300C0E0EDC0E0E518C39CCCAD1950011D10A9
:100BB300AF068C188D1980068C188D19D2AF120CC4
:100BC30092D0E0FDD0E0FC2274028000CCC0E0EDC6
:100BD300C0E0E518C39CCCAD1950011D10AF068CC5
:100BE300188D1980068C188D19D2AF120C70D0E0B5
:100BF300FDD0E0FC22C0E0C0F088F0E4936670080A
:100C03000874019366187000A8F0A3A3700BD0F0CA
:100C1300D0E0D0E0D0E0020A89A3A3D0F0D0E02254
:100C2300D083D082CCC0E0E493A36006120CF1140D
:100C330070FAE493A36006120E121470FAD0E0FC6B
:100C4300E493A3C0E0E493C0E022C0E074F212088E
:100C530091A2AFE433FED2AFC2C0E5D1A2E4500308
:100C63001211F1EEA2E092AF7F0102094DCAC0E07A
:100C7300E493A3C582CCC582C583CDC583F0A3C548
:100C830082CCC582C583CDC583DAE5D0E0CA22CA4A
:100C9300C0E0E0A3C582CCC582C583CDC583F0A3E4
:100CA300C582CCC582C583CDC583DAE6D0E0CA222E
:100CB300C008C3E096F50808A3E096420808A3E03D
:100CC30096420808A3E09645087001D3D008227025
:100CD30009080808226016181818C6C333C608C6C0
:100CE30033C608C633C608C633C6D5E0EA22C0E019
:100CF300E493A3D39C5010E493A3C39C400AD0E095
:100D0300D0E0D0E0020C40A3A3A3D0E022C09FF523
:100D13009FE473D09F22D083D082C09FE493C0E02E
:100D2300740193C0E0740293F59F222518F5821095
:100D3300AF08F518400C15198008F518400215196D
:100D4300D2AF8519832200C0D0251810AF08F5183B
:100D5300500C05198008F51850020519D2AFD0D0F0
:100D6300227404800A74038006740280027401C032
:100D7300E0F404120D2ED0E012102222BB0102E790
:100D830022C082C08389828A83BB0003E08002E49D
:100D930093D083D08222C0E0C0D0E8C0E0A8A8D21C
:100DA300AFC2C7E8A2E792AFD0E0F8D0D0D0E0322C
:100DB3006016080808C6C313C618C613C618C61398
:100DC300C618C613C6D5E0EA222518F8E43519F982
:100DD300222518FAE43519FB222518FCE43519FD00
:100DE30022C3E0C696F608A3E0C696F608A3E0C6BB
:100DF30096F608A3E0C696F622251810AF08F51854
:100E0300400C15198008F51840021519D2AF22C0FD
:100E1300E0E493A36C7009D0E0D0E0D0E0020C4092
:100E2300A3A3D0E022E066701008A3E066700A086E
:100E3300A3E066700408A3E06622C3E09608A3E07B
:100E43009608A3E09608A3E096A2D265D03322E7E2
:100E53006670100809E766700A0809E766700408F7
:100E630009E76622C3E096F008A3E096F008A3E042
:100E730096F008A3E096F022181818E608460870C2
:100E830009E626087005E633F4220822191919E742
:100E93000947097009E727097005E733F422092296
:100EA300C3E49396087401939608740293960874A6
:100EB30003939622C3E697F60809E697F60809E630
:100EC30097F60809E697F622E026F608A3E036F639
:100ED30008A3E036F608A3E036F622E647F608094B
:100EE300E647F60809E647F60809E647F6227004DE
:100EF30022600D18C6C333C608C633C6D5E0F4183E
:100F030022E657F60809E657F60809E657F60809F0
:100F1300E657F622E056F608A3E056F608A3E05695
:100F2300F608A3E056F622E056F008A3E056F008D0
:100F3300A3E056F008A3E056F022E627F60809E6F8
:100F430037F60809E637F60809E637F622E026F011
:100F530008A3E036F008A3E036F008A3E036F02259
:100F6300E493F608740193F608740293F608740385
:100F730093F622E4C396F608E496F608E496F60898
:100F8300E496F622600D08C6A2E713C618C613C678
:100F9300D5E0F322C6F4C608C6F4C608C6F4C608EC
:100FA300C6F4C622C3E7960809E7960809E7960838
:100FB30009E79622C3E09608A3E09608A3E0960803
:100FC300A3E0962275D00075813F75180175190449
:100FD300000209A5E6084608C3134608336002E683
:100FE30033F422E7094709C3134709336002E733A0
:100FF300F422600C08C6C313C618C613C6D5E0F4A2
:1010030022E6F008A3E6F008A3E6F008A3E6F02240
:10101300E0F608A3E0F608A3E0F608A3E0F622CA88
:10102300C0E0E6F0A308DAFAD0E0FA22E0FAA3E09F
:10103300FBA3E0FCA3E0FD22EAF0A3EBF0A3ECF0BA
:10104300A3EDF022E0F8A3E0F9A3E0FAA3E0FB228A
:10105300E8F0A3E9F0A3EAF0A3EBF022E5C754F824
:101063004401F5C77901222518F582E43519F58382
:1010730022E72719471947194722E6261846184633
:10108300184622C2AF75D69F02000022120D191313
:101093006F00120D198F6F00120D19C26F00120D20
:1010A30019F06F00120D19147200120D193072002D
:1010B300120D19757200120D19FA7200120D1946EC
:1010C3007300120D19D67300120D19AF7400120DAF
:1010D30019007500120D19657500120D19D87500E8
:1010E300120D191C7600120D19747600120D199643
:1010F3007600120D19267700120D19B77700120D1D
:1011030019037800120D192F7800120D1970780049
:10111300120D19117A00120D19F37A00120D19CF5D
:101123007B00120D19EFB706120D190AB806120D3E
:10113300193CB806120D1969B806120D198EB806B6
:10114300120D19B9B806120D19E4B806120D1914C7
:10115300B906120D199EC806120D19AFC806120D55
:10116300194DC906120D1967C906120D19F9FF01A8
:10117300120D19E97F00120D19727F00120D1982E9
:101183007F00120D19977F00120D19E07F00120DD9
:1011930019C0C406120D1944C506120D19ACC506B3
:1011A300120D19E1FF04120D19ABB106120D19B995
:1011B300B106120D1932B206120D1907B306120D3C
:1011C30019D9B406120D1930CC06120D19E58C0687
:1011D300120D19528D06120D190A8E06120D198061
:1011E3008E06120D19948F06120D19249106120DF5
:1011F300198D9106120D19DC9106120D19E5910650
:10120300120D19F49106120D190A9206120D191DE9
:101213009206120D19269206120D19399206120D15
:1012230019659206120D19FC9406120D193C9506C8
:10123300120D19789506120D198C9506120D19A524
:101243009506120D19969606120D19489706120D5A
:10125300195C9706120D198ABE06120D19AEBE0649
:10126300120D19C7BE06120D1905BF06120D193549
:10127300BF06120D1962BF06120D19C8BF06120D63
:1012830019CBBF06120D19D5BF06120D19E2BF0601
:10129300120D1948B506120D1968B506120D19A7D6
:1012A300B506120D19C5B506120D19E0B506120DD6
:1012B3001946B606120D1952B606120D19AFB60627
:1012C300120D19BEB606120D19E2B606120D19A3B8
:1012D300B706120D19B0B706120D19C1B706120DD4
:1012E300196ACB06120D1982CB06120D19AECB0665
:1012F300120D1955A106120D19AFA206120D19BD33
:10130300A206120D19D0A206120D19E5A206120D9E
:1013130019FAA206120D190DA306120D1989A306B7
:10132300120D19EEA306120D1984A406120D195DF0
:10133300A506120D196DA506120D197CA506120D31
:10134300197DC906120D19A1C906120D19C9C906BD
:10135300120D19F1C906120D1978FD01120D199F0D
:10136300FD01120D19BDFD01120D192CFE01120D07
:1013730019A97C00120D19C27C00120D19CE7C0034
:10138300120D19E27C00120D19007D00120D190ACD
:101393007D00120D19147D00120D19277D00120D09
:1013A30019AD7D00120D19227E00120D19517E0018
:1013B300120D199F7E00120D19EE7E00120D1909F0
:1013C3007F00120D19137F00120D19247F00120DD7
:1013D30019677F00120D19CFCA06120D1982EB058A
:1013E300120D19AEEB05120D19CBEB05120D19DE1B
:1013F300EB05120D19F9EB05120D1953EC05120D3E
:101403001981EC05120D1991F005120D19EFF10573
:10141300120D1921F205120D1984F205120D19F09E
:10142300F305120D1918F405120D192DF405120DFB
:10143300193DF405120D197DF405120D19BFF405BC
:10144300120D19CFF405120D1976C206120D19905B
:10145300C206120D19B8C206120D19D1C206120D19
:1014630019F5C206120D1913C306120D192AC30664
:10147300120D1958C306120D1973C306120D19B1B3
:10148300CB06120D1975FC03120D1985FC03120D01
:10149300198AFD03120D19BCFD03120D19ECFD038E
:1014A300120D190FFE03120D1926FE03120D1960FA
:1014B300FE03120D19C5FE03120D1907FF03120DCA
:1014C300194EFF03120D197BFF03120D19A6FF031B
:1014D300120D1931C106120D194FC106120D19B1A2
:1014E300C106120D194BC206120D19B3C706120D10
:1014F30019A6C306120D19EEC306120D1976BB0603
:10150300120D19D7BC06120D19ECBF06120D1911D5
:10151300C106120D191CE105120D19A6E405120DE1
:1015230019A2E605120D19D4E705120D19ADE80548
:10153300120D193DEA05120D1909EB05120D195D7E
:10154300EB05120D19B4B906120D19D5B906120D12
:10155300190FBB06120D1939BB06120D19F5CB066F
:10156300120D1905CC06120D190FCC06120D19C553
:10157300B905120D19C8B905120D19A4C105120D2B
:1015830019F6C205120D1957C405120D192EC505FA
:10159300120D1907C605120D19F0C605120D19E42F
:1015A300C705120D199CC805120D19CCC805120DDB
:1015B300197CCA05120D1926BD06120D1946BD0662
:1015C300120D195ABE06120D195DBE06120D19C56C
:1015D300C606120D19FBC606120D1913C706120D06
:1015E3001955C706120D1965C706120D19A9C706A5
:1015F300120D19008006120D193A8006120D19A357
:101603008006120D19C28006120D19DB8006120D19
:10161300197D8106120D19868106120D19D78106CF
:10162300120D19008206120D190D8206120D197E74
:101633008206120D190C8306120D195A8306120D18
:1016430019908306120D19F18306120D191A8406D7
:10165300120D19918406120D19ED8406120D192A23
:101663008506120D19618506120D19738506120D73
:1016730019858506120D19A48506120D19AD850667
:10168300120D19688606120D19B48606120D19F289
:101693008606120D1916CA06120D19709706120D39
:1016A30019B09806120D19D39806120D19E498066D
:1016B300120D19039B06120D19239B06120D19C255
:1016C300FD02120D19F8FD02120D1940FE02120D52
:1016D3001999FF02120D19ABE904120D19DCEA0482
:1016E300120D1918EB04120D19D2EC04120D19FC8A
:1016F300EC04120D1975EF04120D19B5EF04120D58
:101703001949F104120D19E8F104120D1940F204FC
:10171300120D19D3F204120D190DF304120D194F02
:10172300F304120D19C2F404120D1942F604120D3A
:10173300197FF804120D19ADF804120D19D9F80424
:10174300120D19E2F804120D193FF904120D19CF05
:10175300F904120D190BFD04120D198DFD04120D60
:101763001993CC06120D19A9CC06120D19E5A90679
:10177300120D19FBA906120D199FAA06120D19DEE7
:10178300AA06120D19FBAA06120D192CAB06120D8F
:101793001979AB06120D19ADAB06120D19E8AB069C
:1017A300120D19DDAD06120D19C5C506120D19244A
:1017B300C606120D1962C606120D19A3C606120D2E
:1017C30019008004120D190C8004120D196E800487
:1017D300120D19788004120D19058104120D194197
:1017E3008104120D19048204120D19178204120DBB
:1017F30019858204120D19ED8204120D197C8304DC
:10180300120D19FA8304120D199F8504120D19582C
:101813008704120D199E8804120D191B8A04120DD8
:1018230019C28A04120D19908F04120D198790049E
:10183300120D19169104120D193B9104120D19D8AA
:101843009104120D19F59104120D19159204120D3C
:1018530019869204120D19A39204120D19D1920440
:10186300120D19699404120D198A9404120D19307A
:101873009504120D19789504120D19EA9504120DA9
:10188300196D9604120D19D29604120D192F97048F
:10189300120D19CE9704120D19429804120D197ED8
:1018A3009804120D19EB9804120D19559A04120D90
:1018B30019D69B04120D19859C04120D19E79E0479
:1018C300120D19499F04120D19779F04120D198FD8
:1018D300A104120D191FA404120D1922A504120D3F
:1018E300191E8706120D19088806120D19BF8906DD
:1018F300120D19DF8906120D19E28906120D19F569
:101903008906120D19178A06120D193B8A06120D44
:1019130019928A06120D19AA8A06120D19E58A066A
:10192300120D19568B06120D19B28B06120D194E94
:101933008C06120D19B68C06120D1968CC06120D01
:10194300199FCB04120D193ECC04120D19BACC0405
:10195300120D19A9CD04120D19A7CE04120D1926C3
:10196300CF04120D1968D004120D1909D104120DF8
:1019730019C9D204120D19D0D304120D19EDD304D1
:10198300120D1918D504120D1955D604120D19FF8D
:10199300D604120D1969DA04120D1971DC04120D43
:1019A30019FADC04120D1954DD04120D19A2DD0419
:1019B300120D191DDE04120D199FDE04120D19DB21
:1019C300DE04120D197FE504120D19DAE704120D76
:1019D30019B6E804120D19349D05120D19669D05FB
:1019E300120D19EA9D05120D194D9F05120D193B94
:1019F300A005120D1903A205120D1928A205120D37
:101A0300197AA205120D190CA305120D1958A30575
:101A1300120D196BA305120D19C8A305120D193761
:101A2300A405120D1904A505120D1972A505120DB1
:101A330019A9A505120D19F2A505120D199AA705E5
:101A4300120D1979A805120D19C7A905120D19AAA6
:101A5300AA05120D1936AB05120D196FAB05120D40
:101A6300198EAB05120D19D9AB05120D19F9AB057A
:101A7300120D19B6AC05120D19C3AD05120D19D708
:101A8300AD05120D192BAE05120D1986AE05120DFB
:101A930019D3AE05120D19DBAF05120D1960B2058E
:101AA300120D1986B205120D1901B305120D19266F
:101AB300B305120D19ADB305120D1989B405120D35
:101AC30019C7B405120D194BB505120D1936B60514
:101AD300120D1939B605120D1943B605120D194D1C
:101AE300B605120D1969B605120D19E5B605120DE5
:101AF300191EB705120D193AB705120D1966B70568
:101B0300120D198DB705120D19B1B705120D19EC88
:101B1300B705120D195FB805120D1993B805120D0B
:101B2300199DB805120D19D9B805120D19F3B80589
:101B3300120D191AB905120D1949B905120D1968B3
:101B4300B905120D1980B905120D1992B905120DB7
:101B5300191ACB06120D1932CB06120D19FCFF010F
:101B6300120D19FFF405120D194EF505120D190C7E
:101B7300F705120D19C6F805120D1904F905120D12
:101B830019F9F905120D1904FB05120D1926FB05A8
:101B9300120D1970FB05120D19F1FB05120D192A0F
:101BA300A904120D194DA904120D19ABAA04120DA3
:101BB30019F4AA04120D1952AB04120D19B8AB048F
:101BC300120D19BBAB04120D190CAC04120D1986BE
:101BD300AC04120D1914AD04120D1917AD04120D36
:101BE300199FAD04120D19E2AD04120D1952B2047E
:101BF300120D19F0B304120D192AB404120D197041
:101C0300B404120D19D0B704120D1955B804120DEE
:101C130019EDB904120D19FCBA04120D1929BC04EB
:101C2300120D1989BC04120D1965BD04120D19EFAB
:101C3300BD04120D19F2BD04120D19D7BE04120D05
:101C4300191DC004120D19D1C104120D19A4C30426
:101C5300120D1936C404120D19CBC404120D19BD8B
:101C6300C504120D197DC704120D1993C804120D72
:101C73001902CA04120D1947CA04120D19F2CA0433
:101C8300120D19008005120D199B8005120D190EF6
:101C93008105120D19298105120D19CA8105120D2D
:101CA30019118205120D19348305120D1977830555
:101CB300120D19F38305120D19468405120D19A58A
:101CC3008405120D19B28505120D19CF8805120D61
:101CD30019058A05120D198E8A05120D19928C05A4
:101CE300120D19368D05120D19D58D05120D1936E4
:101CF3008E05120D19A58E05120D19FE8F05120DF5
:101D030019E89005120D19239105120D1943910538
:101D1300120D19F49105120D19319205120D19BA0C
:101D23009205120D19359405120D19009605120D21
:101D3300195B9705120D19D09805120D19DF990536
:101D4300120D196C9A05120D19D59A05120D19E188
:101D53009B05120D19CBD903120D192EDA03120D9F
:101D63001976DA03120D19B4DA03120D190FDB0316
:101D7300120D196CDB03120D19A7DB03120D1929C0
:101D8300DC03120D1983DC03120D19F7DD03120DA9
:101D93001975DE03120D198DDF03120D19B5DF035B
:101DA300120D1904E103120D1915E103120D192D7A
:101DB300E103120D1942E203120D191FE303120D81
:101DC300191CE403120D1940E403120D1957E4031F
:101DD300120D1978E403120D199AE403120D19B9BF
:101DE300E403120D198DE503120D19E7E503120D36
:101DF3001988E803120D19E1E803120D1900E9032C
:101E0300120D19EBE903120D1921EA03120D195BE7
:101E1300EB03120D19DAEB03120D1933FD02120D48
:101E2300194BEC03120D19BAEC03120D197BED03D8
:101E3300120D1954EF03120D195BF003120D19CC97
:101E4300F103120D19CCF303120D1947F603120D0A
:101E53001921F803120D19E2F803120D195AF903A7
:101E6300120D1971F903120D196BFA03120D19638F
:101E7300FB03120D19D2FB03120D1921FC05120DE0
:101E830019D1FD05120D1990FE05120D19F8FE0565
:101E9300120D196CFF05120D19D6E005120D190864
:101EA300AE06120D194CAE06120D1972AE06120DC6
:101EB3001999AE06120D19B1AE06120D19C9AE0667
:101EC300120D196BAF06120D19ADAF06120D19CF16
:101ED300B006120D19D8B006120D19E1B006120D95
:101EE30019EAB006120D19F4B006120D19659C0615
:101EF300120D1999A006120D19A7A006120D19ACFF
:101F0300A006120D196EFE04120D19CDFF01120D5C
:101F13001970CA06120D1980CA06120D19ADA5064D
:101F2300120D19008003120D19328003120D199E30
:101F33008003120D19398103120D19D88103120D73
:101F4300191D8203120D193F8203120D19588203C2
:101F5300120D197E8203120D19A08203120D19DED0
:101F63008203120D19228303120D19448303120DE8
:101F730019A68303120D196D8403120D1924850309
:101F8300120D19968503120D19688603120D19B2E5
:101F93008603120D19058703120D196B8703120DA2
:101FA30019A58703120D19F78703120D1913880357
:101FB300120D193E8803120D19458A03120D199942
:101FC3008B03120D19BB8B03120D19EF8B03120D2B
:101FD30019108C03120D191F8C03120D192A8C036F
:101FE300120D19DA8C03120D19438D03120D19F01A
:101FF3008D03120D19288E03120D19EE8E03120D87
:1020030019FB8F03120D19459003120D19D4900378
:10201300120D19389103120D19739103120D19DF63
:102023009303120D19339503120D196C9803120DB6
:1020330019399903120D19C79903120D19F0990350
:10204300120D19629A03120D19F69A03120D1954FF
:102053009B03120D19469C03120D19689C03120D64
:1020630019C49D03120D19DD9D03120D19F09D0373
:10207300120D194D9E03120D195C9E03120D19EFDB
:102083009E03120D19FB9F03120D1908A003120DD5
:102093001911A003120D19E9A103120D190FA303BE
:1020A300120D191FA303120D1921A403120D199860
:1020B300A403120D19C7A403120D19CDA503120D04
:1020C3001913A603120D19DFA703120D19B7AB03DA
:1020D300120D19C1AB03120D19D5AB03120D19DF84
:1020E300AB03120D19E9AB03120D19F3AB03120D78
:1020F300190CAC03120D1916AC03120D198AAC039B
:10210300120D1995AC03120D19BAAC03120D19C5B2
:10211300AC03120D1913AD03120D191DAD03120DEE
:102123001928AD03120D194CAD03120D1970AD032F
:10213300120D19CCAD03120D1912AE03120D192F86
:10214300AE03120D19ACAE03120D19E3AE03120D5B
:102153001922AF03120D196FAF03120D19F1AF035B
:10216300120D198AB003120D195AB203120D19B8C0
:10217300B203120D19D4B303120D19FAB303120DDE
:102183001939B503120D195FB803120D19A0BA035B
:10219300120D197CBC03120D1912BD03120D19394E
:1021A300BF03120D19E5BF03120D191AC003120D57
:1021B300197FC003120D1989C003120D19B3C2038D
:1021C300120D19DAC303120D191AC403120D19C023
:1021D300C403120D1951C603120D19DAC703120DE8
:1021E30019FAC703120D1953C803120D1955C90360
:1021F300120D199FC903120D19EFC903120D19D935
:10220300CA03120D194ECB03120D1968CC03120D1C
:1022130019E3CC03120D19E8CD03120D1993D00362
:10222300120D19B2D003120D1913D203120D19D5C1
:10223300D303120D1929D403120D19E1D403120D7E
:102243001990D503120D19E6D503120D199CD60367
:10225300120D1931D703120D199DD703120D19D77A
:10226300D703120D1908D803120D1964D903120DDF
:1022730019008002120D19328002120D19698002B1
:10228300120D19528202120D19358302120D198D86
:102293008302120D19C88402120D19148502120D3E
:1022A300193C8802120D199E8B02120D19EB8C0238
:1022B300120D19818D02120D198D8D02120D19BF88
:1022C3008D02120D19418F02120D194F9002120D3A
:1022D30019799002120D19D09002120D1929910249
:1022E300120D19959102120D19AC9302120D193B9F
:1022F3009502120D19059602120D19439702120D3C
:1023030019739902120D19439C02120D19509C0264
:10231300120D19D79C02120D197F9D02120D19C2BD
:102323009D02120D190B9E02120D195F9E02120DD2
:1023330019C49E02120D192C9F02120D19499F02F6
:10234300120D19799F02120D19AE9F02120D197EFB
:10235300A002120D1927A102120D19ABA302120D2F
:1023630019CBA402120D19B4A502120D1936A60237
:10237300120D1958AA02120D1995AA02120D19ED80
:10238300AA02120D1920AB02120D19A1AB02120DF4
:1023930019EEAB02120D1979AC02120D19CBAC0276
:1023A300120D19A2AD02120D195BAE02120D19F630
:1023B300AE02120D190FB202120D192FB302120D34
:1023C30019E0B602120D19FEB702120D1901B80277
:1023D300120D1930B802120D1936BA02120D190F67
:1023E300BB02120D1944BB02120D194CBC02120D93
:1023F3001902BD02120D19A3BE02120D19C8BE02A5
:10240300120D1907BF02120D1979BF02120D195DC2
:10241300C002120D192AC102120D1960C302120D56
:1024230019D1C302120D1911C402120D194AC402A3
:10243300120D19DEC402120D1927C602120D19EA74
:10244300C902120D19D9CA02120D19C0CB02120DFD
:102453001938CC02120D19FACC02120D19F8CE025A
:10246300120D1910CF02120D1924CF02120D195C8F
:10247300CF02120D198ACF02120D1911D102120DBA
:10248300191CD202120D196ED202120D19D6D202E4
:10249300120D1988D302120D19B8D302120D199C0B
:1024A300D402120D194DD502120D193CD702120D8B
:1024B3001971D702120D19D9D702120D1908D902B1
:1024C300120D19BAD902120D19EBD902120D190303
:1024D300DA02120D1992DA02120D1946DD02120DFB
:1024E300191EDF02120D193ADF02120D1956DF020F
:1024F300120D1924E002120D1908E402120D19F24B
:102503008201120D192A8301120D19088801120D77
:10251300194E8801120D199B8901120D19068A01A2
:10252300120D198F8B01120D199F8E01120D19BAFD
:102533008F01120D19CC9901120D195F9A01120D19
:1025430019B19D01120D19AD9E01120D19089F01BC
:10255300120D1952A001120D1940A101120D19DC1F
:10256300A301120D1950A501120D19D3A501120DC6
:1025730019D6A501120D194BA601120D1955A60165
:10258300120D1962A601120D198DA601120D193D26
:10259300A701120D1936A801120D19E1A801120D98
:1025A30019FFA801120D1918A901120D1941A9014A
:1025B300120D1963A901120D19B8AB01120D197D82
:1025C300AC01120D19C2AC01120D1941AD01120D6E
:1025D30019EDAD01120D191FAE01120D1973AE01E4
:1025E300120D19AEAE01120D19F5AE01120D1945FA
:1025F300AF01120D194AAF01120D199EAF01120D51
:1026030019CAAF01120D19B3B001120D1904B101AA
:10261300120D1964B101120D19BEB101120D195930
:10262300B201120D1998B501120D19AAB601120DB6
:102633001924B801120D1934BB01120D19D2BB01B3
:10264300120D19C8BE01120D1987BF01120D19CB46
:10265300BF01120D1976C101120D198AC101120DA4
:102663001994C101120D199EC101120D19AAC101BC
:10267300120D19CFC101120D19A8C301120D19FDB5
:10268300C301120D1907C401120D1911C401120D52
:102693001986C401120D19D5C401120D19E6C5011D
:1026A300120D1933C601120D1940C701120D1984F9
:1026B300C701120D192AC801120D191DC901120DE6
:1026C30019E3C901120D1906CB01120D1924CC010E
:1026D300120D190CCD01120D1924CD01120D197B08
:1026E300CD01120D1985CD01120D198FCD01120DDA
:1026F300199ACD01120D19B8CD01120D1900CE0191
:10270300120D1962CE01120D1989CE01120D199BFA
:10271300CE01120D1936CF01120D196BCF01120D17
:102723001952D001120D1997D001120D197DD10143
:10273300120D19A4D101120D1927D201120D1998E6
:10274300D201120D1921D401120D194DD501120D0B
:102753001910D601120D19D8D601120D1962D7011D
:10276300120D198AD801120D192CD901120D19A7AE
:10277300D901120D1963DA01120D19ADDA01120D27
:102783001907DB01120D19DFDB01120D1902DC0140
:10279300120D19B5DC01120D19D7DC01120D194008
:1027A300DD01120D1956DF01120D194EE001120D54
:1027B3001912E101120D1944E301120D198EE301FF
:1027C300120D19DEE301120D1942E401120D19A4D1
:1027D300E401120D19D2E401120D19F6E401120DF0
:1027E300192BE501120D195CE501120D198FE50195
:1027F300120D19DFE501120D1932E601120D1957F9
:10280300E701120D19F7E801120D1952E901120D32
:10281300197BE901120D1908EA01120D1976EA0173
:10282300120D1984EA01120D19A8EA01120D19FDFE
:10283300EA01120D1918EB01120D19CAEB01120D61
:102843001902EC01120D1945EC01120D19A8EC0146
:10285300120D19AAEE01120D19D4EE01120D19CBA6
:10286300EF01120D19D5F001120D1985F101120DA9
:102873001963F201120D199BF201120D19BCF20139
:10288300120D19FEF201120D1960F301120D196AEE
:10289300F301120D197AF301120D19B5F301120D9B
:1028A3001995F701120D1982F901120D1968FB012F
:1028B300120D19FFFB01120D19A1FC01120D1904D0
:1028C3003500120D19AF3500120D195D3600120DCA
:1028D30019633700120D19833700120D19AC380034
:1028E300120D19673A00120D19DA3A00120D197E0A
:1028F3003B00120D198A3C00120D19F53C00120D14
:1029030019313D00120D19743D00120D19AF3D0030
:10291300120D19F13D00120D19863E00120D190218
:102923003F00120D19CC3F00120D19A94000120DE2
:1029330019414100120D195B4100120D198B410021
:10294300120D19BC4100120D19824200120D199289
:102953004200120D19E14200120D19EE4200120D50
:1029630019F74200120D19754300120D19D14300D6
:10297300120D191C4400120D19374400120D19626F
:102983004400120D197F4400120D198B4400120DDF
:1029930019224600120D193B4600120D19C04600BC
:1029A300120D19D34600120D19F24600120D199695
:1029B3004700120D19174900120D19CA4A00120DCA
:1029C30019604B00120D19634B00120D19D34B0004
:1029D300120D19F14B00120D19884C00120D19D06C
:1029E3004C00120D19D34C00120D19994D00120D04
:1029F30019064E00120D192C4E00120D19B74E0078
:102A0300120D19D54E00120D191B4F00120D19CFBF
:102A13004F00120D19195000120D19485000120DD4
:102A230019A55000120D19DA5000120D19065100A4
:102A3300120D19145100120D19615100120D19D103
:102A43005100120D191A5200120D19665200120D7F
:102A530019925200120D199D5200120D19BB52000A
:102A6300120D19A65300120D19B05300120D19EBD4
:102A73005300120D19FB5300120D194F5400120D80
:102A830019635400120D19925500120D19A7550020
:102A9300120D19355600120D197A5600120D19062A
:102AA3005700120D19115700120D19535800120D2A
:102AB300196E5800120D19BA5800120D1929590030
:102AC300120D19625900120D197C5900120D19DCEF
:102AD3005900120D197B5A00120D19C65A00120D16
:102AE30019965D00120D19485E00120D19B55E00AE
:102AF300120D19F56000120D190D6100120D191058
:102B03006100120D191C6100120D19306100120DC4
:102B130019386100120D196B6100120D196E6200F4
:102B2300120D19FB6200120D196B6300120D19EDE2
:102B33006300120D19AE6400120D19CD6400120D5D
:102B4300196E6500120D19CB6500120D19CE6500C3
:102B5300120D19426600120D19916700120D199793
:102B63006800120D19226900120D193D6A00120D39
:102B730019056B00120D19366B00120D19596B00F4
:102B8300120D19626B00120D19916B00120D1921B0
:102B93006C00120D19D76C00120D194C6D00120D3B
:102BA30019F36D00120D19686E00120D199F6E0056
:102BB300120D19DD6E00120D19E8FC02120D197CBD
:102BC300FC02120D1919FC02120D19EFFB02120D72
:102BD30019DBFB02120D19D1FB02120D1964FB0262
:102BE300120D1995F902120D1953F902120D1969F3
:102BF300F802120D19A2E005120D194BE005120D92
:102C0300193DF802120D19F4F702120D19EDDE0544
:102C1300120D193FDE05120D1931F702120D1900BD
:102C2300F402120D19A2F102120D1972F102120D22
:102C33001922F102120D19BCF002120D197BF002D8
:102C4300120D195BF002120D198DEF02120D1927E7
:102C5300EF02120D19C6EE02120D1966EE02120DE5
:102C63001904ED02120D1998EC02120D19ECEB0286
:102C7300120D19E7EB02120D19D0EB02120D199B7D
:102C8300EB02120D19A2DD05120D1935E802120D22
:102C93001998DD05120D192DDD05120D1912DD052B
:102CA300120D1962DC05120D1968DB05120D198E60
:102CB300DA05120D1932E802120D1919E802120D84
:102CC300190EE802120D19DDE702120D19E4D705FA
:102CD300120D1904E602120D198BE502120D1922C9
:102CE300E502120D1995E402120D19F6D605120D1F
:102CF3001951E402120D19EAAD06120D192AE40264
:102D0300120D1933D605120D19DED505120D19B1A1
:102D1300D505120D197ED505120D1956D505120DBF
:102D230019F7D405120D19D7D405120D19A2D4051C
:102D3300120D1966D105120D193BCF05120D192B72
:102D4300CD05120D19A8CC05120D195CCC05120D79
:102D53001988D605120D1910CC05120D196ACB0569
:102D6300120D1911EC0300000080FB8700010076AF
:102D73001E350004003C1E25000200401E260002F2
:102D830000421E27000200441E280001004E1E2997
:102D93000001004F1E840004002B1B86000100A9C4
:102DA3001D2A000100501E2B000100511E2C0001A2
:102DB30000561E2D000800391B2E000100571E2F40
:102DC300000100581E30000100591E310001005A55
:102DD3001E32000100411B33000100421B3400017D
:102DE300005B1E36000100431B380001005C1E39E6
:102DF300000100551E83000200741E630001004E93
:102E03001B64000100521E65000100531E6D00018A
:102E1300004F1B71000800311B66000100731E4345
:102E2300000100641E44000200651E4500010067A6
:102E33001E46000200681E47000800461B480001AA
:102E4300006A1E4B0001006B1E04000100771EA1E7
:102E53000001007A1E37000100791E880001007806
:102E63001E3C000100441B3D0001005D1E490002A1
:102E7300006C1E67000100501B4D0002006E1E4EC9
:102E8300000100701E4F000200711E3E000100632E
:102E93001E510001005F1E52000100601E5300011D
:102EA30000621E54000100451B00000000000000EA
:102EB3000136360101000102010001030100010492
:102EC30001060605020000070100340801000F098E
:102ED3000401010D0100FF0E080000170200001994
:102EE3000100FF1A0100011B0100FE1C0100081D67
:102EF3000200001F01000120010001210200002344
:102F030001000F2402000026010001270100082808
:102F13000200FF2A0100072B0102402C0100002DB3
:102F23000100012E0100012F0100FF30010B1D31B3
:102F33000800003A0100083B01000F3C0100013D7D
:102F43000100FF3E04000042040000460400004A62
:102F53000400004E04000052040000560400005A0E
:102F6300040000000003002001F0820000000020A4
:102F730001F182000001002001F182000002002023
:102F830001F182000000404201E28100000400429E
:102F9300012382000005004201D88100000600429F
:102FA30001E281000007003001EF820000100042BF
:102FB30003081E000011003003E71900001200107F
:102FC30003191E030000002103E8190000FDFF217F
:102FD30001EA820300FDFF2101EA820600000010DE
:102FE30001D7190600FDFF2181EA820204000029AE
:102FF30005D819020401002901E68202040200290E
:1030030001E4820204FDFF2101EA8201037103014D
:10301300030103010301030103220302030103105C
:103023000300030003000300030003000300034243
:103033000300032403060300030003040312032510
:1030430003230325032303040304030003000300F2
:103053000344030003000323030003650321003536
:10306300038103000305030003000300030003259A
:10307300032303030071003001600011007000316D
:10308300022003500480001000610000001400635C
:10309300007300720062004300000013000600008A
:1030A3000000000400120000000000000000000403
:1030B300000400370037003C024400000000000019
:1030C30000000065000000350081000000050000DD
:1030D30000830000000304710402046004110470FF
:1030E3000402040204010402041004610400041431
:1030F30004630473047204620443040004130406A7
:103103000400040004040412040004000400040086
:103113000451046400000400040004440400040097
:1031230004000400046504000435048104640005FC
:1031330004000483040004030271023001600211DD
:103143000270020102020202028002100261023ACC
:10315300004100630273027202620243020002131F
:103163000238000002000204021202000200020000
:1031730002000204020402370037003C024402004A
:1031830002390000020002650200023502810200DA
:1031930002050282028302000201017101010101A1
:1031A30001110101013101010101018001100161DE
:1031B300013B0014006301730172016201430100CA
:1031C30001130106013D0135000401120100010054
:1031D300010001000104010401330133013C0144F6
:1031E3000132013600000100016501000135008153
:1031F300010001050182018301000136000100067F
:103203000000000F000000000000000000000000AC
:103213000003FFFF00000403FFFF0000FFFF0FF4A4
:10322300010005C4040320000100000B000000009E
:103233000000000003010F00000000000000000078
:10324300000000000000000000000000000000007B
:103253000000000000000000009F18C918A518DF37
:1032630017AB18CF18AB18DB18B118DF17AB18CF93
:1032730018B718DF1700000000BD18DF17000000A3
:103283000000000000C318DF17000000000000006A
:10329300000000000000000000000000000000002B
:1032A300000000000000000000000000000000001B
:1032B30000000000001300411C1F00471C1F804D2D
:1032C3001C0000C51C0100C51C0200C31B0280BDFD
:1032D3001B0300C91B0400CF1B0480D51B0500DBA7
:1032E3001B0600E71B3000051C3100FF1B320011D9
:1032F3001C3300171C35001D1C3400231C36002909
:103303001C1100351C14003B1C1500F91BFFFF00AA
:10331300000A000000020000000400000008000092
:1033230000100000002000000040000000800000AA
:10333300000001000000020000000400000008007B
:1033430000001000000020000000400000013B25A9
:10335300066B250865250B892510232202412505C7
:1033630059250747250C23250D2F25640720FF002A
:103373000007ECFDFDFDECDCDCCCBCACAC9C9C8C18
:103383007C7C6C6C5C5C5C4C4C3C3C2C2C1C1C03B3
:10339300EAF5E5D5D5C5B5A59595858575756565B5
:1033A300555545453535252515150500160F0000DE
:1033B3000B150B020002220F3300000E0FD0D1D2E7
:1033C300D3D4D5D6D7D8D9DADBDCDDDEDF5A6967CB
:1033D300426565416C6C69616E636530390000005C
:1033E3000000000000000000000000000000034D8A
:1033F3004C4651181A250502003C40423A3F3F39DA
:103403002F47300001191618161618230300303001
:1034130017181921301B1D1F30303016181920239F
:103423001A1C1E300C0E020B040B0A0708000F02B5
:10343300040201010101090200BE040AE8030000BD
:103443000000000003007F000E000100E8030804F1
:1034530004051003030A0C0915081E1E0C28FF009F
:10346300040209033C0C0508151000E4F0A3F0A3C3
:10347300F0A32212346EF022901C9B124A7A122976
:103483002B2212348922E0F508E4F509F50AF50B3D
:1034930022E824FBF582E934FFF58322E82411F5C1
:1034A30082E439F583E022F5831234B022E0F50893
:1034B300A3E0F50922122BA77404120D497F080219
:1034C3000ADF7401F09006C0E0640F227409120D44
:1034D300497F04020ADFEA2413FAE43FFB122AD5E8
:1034E300E9227905122AE1740622A3A3E024F5C395
:1034F300941322122BB39006E0126A387A147B00DD
:1035030022C082C083901C7A741FF0A37429F0A395
:103513007431F0A37429F0901C7E7407F0A374290E
:10352300F0A37401F0A37429F0A3743DF0A37429EC
:10353300F0A37443F0A37429F0A37437F0A37429A0
:10354300F0A374EFF0A37428F0901C8A7413F0A313
:103553007429F0A37419F0A37429F0A3740DF0A3D4
:103563007429F0A37449F0A37429F0901C9B12549E
:10357300496009901C9B124A761216D1901C98122E
:103583004D9074081260E5A3F0901D44F0901C9DCB
:10359300F07C0BFDF97A9E7B1C1215FF7C0B7D00E2
:1035A30079007AA97B1C1215FF024BEA74F7120803
:1035B3002574F7120DFCEAFEEBFF12364274051276
:1035C3004EAE7403F0123759124E902430FCE43F90
:1035D300FD8C8212363A12364E6008123E6774FF33
:1035E300F0A3F0EE242EE43F1C1CFD8C82F583A394
:1035F300E0C0E08A828B83124B42D0E012364E88C1
:1036030082898312537D2403F0EE123E7112106AF5
:103613007403F09006D5120B9E7402120DDC123A5D
:103623003B120D49E9F5087007EEFAEFFB1229BBCF
:10363300A9087409023E80F583E08882898322EA1F
:103643001236472212558C3FF58322126365124EC0
:103653009CE8F0A3E912663CE02274F0120825EA24
:10366300FEEBFF8C0C8D0D890B123759F583124E2F
:10367300A4741012106AE0F508A312363CF0E82493
:10368300FFF582E9123A4DE508F0E824FEF582E9F8
:10369300123A4DE50BF09006DAE0C0E0E824FDF5C0
:1036A30082E9123A4DD0E0F09006D9E0C0E0E82478
:1036B300FCF582E9123A4DD0E0F0741212106A124E
:1036C30034AC123494E509F0E824FAF8E934FFF94C
:1036D3008882F583E508F0EE2404FCE43FFD8808C6
:1036E3008A828B83E0F50E8C828D83E0250EC39551
:1036F30008126365124CCA850C82850D83A3A3A3AC
:10370300A3A3A3A3A3E064037009EE124E7EF0A368
:10371300E48003123A52123A5A7409F075089E75FE
:10372300091C750A007808120D68125E2F120D49E4
:103733007508FF7509FF7808120D6CAC0CAD0D12FE
:103743003A3B120D49E9F5087007EEFAEFFB12292F
:10375300BBA9080234C0EA2402FAE43FFB8A8222AE
:10376300C082C083901CBAE0C394084004740780ED
:1037730001E08A828B83F033333354F8F9024BEA46
:1037830074F01208258A088B09890A8C0E8D0F752F
:103793000C00A2AFE433F50BC2AF901CB48045120A
:1037A3003885503D12389F64037036E50824F9F5D7
:1037B30008E50934FFF5098E828F83A3A3E024056E
:1037C300FCA3E03400FDAA08AB091217BBE50824EB
:1037D300FFF508E50934FFF5097410250CF50C1500
:1037E3000A123C74126DEDE50A6004EE4F70B0E509
:1037F3000BA2E092AFA2AFE433F50BC2AF901CB4BF
:10380300803E1253568882F5831245CA8508828505
:103813000983F08A828983123896A3A3E0C0E0E586
:103823000824FFF582E509123A4DD0E0F0E50824BB
:10383300FEF508E50934FFF509050C150A123C7479
:10384300123AC8602112389F640270F1123885EE73
:1038530040B0124FC5A2E550E4850E82850F8374F4
:1038630001F0E50A70D7E50BA2E092AF85088285E7
:103873000983E50CF0E50824FFFAE50934FFFB02B0
:1038830034C012388BA2E622EE2411F582E43FF510
:1038930083E02212389A2212539BA3228E828F83B3
:1038A300A3A3124B46125A722274F012082574F322
:1038B300120DFC740312106AE9F0740212106AEA22
:1038C300F08B0B851882851983E4F004120DD41252
:1038D30028D1E9F89006BFE0292437F508FA7B00E0
:1038E3001216178A0C8B0DAE0CAF0DEA4F70030244
:1038F3003A32EA2402F50EE43FF50FA808EA28F865
:10390300E43BF9850E82850F831243C69006BFE020
:10391300F9FAC3E49AFA95E0FB850E82850F83E0FA
:103923002AF50CA3E03BF50D9006BD1234AC750AE5
:10393300007808120D68E9FC7D00AA0CAB0D124E4D
:1039430000120D49AC18AD19740112106AE0F9E5C3
:103953000C24FFFAE50D34FFFB1228D78A828B83F0
:10396300E4F0E50BC454F0F9901D45E0C43333543F
:10397300C0F89006B9E0A2E0E43313134849440FBA
:10398300C0E0EA24FFF582EB123A4DD0E0F0EA24DE
:10399300FEF50CEB34FFF50D740312106AE0F874B6
:1039A3000212106AE0C454F048850C82850D83F03E
:1039B300A80C850E82850F831260B22AC3988E826B
:1039C3008F83A3A3A3A3F0850E82850F83E8F0A3BF
:1039D300E50DF0123A52123A5AE4F0740C12106ADE
:1039E300E4F07508A975091C7808120D68125E2F9A
:1039F300120D49851882851983E06009EE240E12A1
:103A03004FC74408F0122AC3E9F9E4F508F5097829
:103A130008120D6C7406120DDC123A3D120D49E9C1
:103A23007006EEFAEFFB800BEEFAEFFB12161D7A2F
:103A3300007B00740D0234BD7903EEFAEFFB122A0A
:103A4300DB740222EE24FFF582EF34FFF58322EECE
:103A5300123647E4F0A322F0123A5F22EE125D52CF
:103A63003FF5832274F21208258A0C8B0DA2AFE472
:103A730033F50AC2AF750800750900901CB4802C99
:103A8300123C845024850C82850D83A3A3125E42CD
:103A93008E828F83A3A3124A76122AC9E9600A127F
:103AA3003C7FC2E6F08E088F09123C74123AC8704C
:103AB300CFE50845096006123B61D2E6F0E50AA2AC
:103AC300E092AF800DE0FEA3E0FFEE4F22740212FE
:103AD3000D497F06020ADF74F01208258A0E8B0F48
:103AE3008C0C8D0D750A00A2AFE433F50BC2AF7ECB
:103AF300007F00901CB48010AE08AF09123B59122E
:103B03004FC5D2E7F0124A54124A686034123B613F
:103B1300A2E750F1850882850983A3A3120B9EAC0B
:103B23000CAD0DAA0EAB0F122ACF7402120D49E988
:103B330060D3EE4F60C2123EFB7006123B73D2E4B9
:103B4300F0E50BA2E092AFEE4F60061229B5750ABD
:103B530001A90A0234C012388BD2E4F0EE22E50840
:103B6300125D6C3509F583E022AA82AB831217BB81
:103B73008E828F83A3A3124B46E02274F212082590
:103B830074FE120DFC750C00750D008518828519E5
:103B930083E4F0A3F0A2AF33F50AC2AF901CB412D2
:103BA3006DED802BEE24FBF582EF34FF1234AA78FF
:103BB3000C120D6C123C62120D49EEFCEFFDAA18BB
:103BC300AB1912163BAE08AF09901CBAE014F0EE25
:103BD3004F602B123C84501DEE240BF8E43FF98810
:103BE30082F583E024FFF0A3E034FFF08882898329
:103BF30012544960AF8E0C8F0D123C7480A1E50AFC
:103C0300A2E092AF901CBAE0602C9006C0E0640F73
:103C13006006901D44E0701E7A927B1C122BB390B9
:103C230082E0120B9A7A927B1C124C72120D49801D
:103C33000574F0124B53AA18AB191216418A088B5C
:103C430009AE08AF09EA4F60131228E3123C7FA2C2
:103C5300E28E828F83A350D974E980D7023AD0EEE3
:103C6300FCEFFD7AB47B1C12164D7402228E0A8F70
:103C73000BEE24FBF582EF34FFF58322EE12388C32
:103C83002212388BA2E72274F7120825EAFEEBFF13
:103C93001228E3124B3F1209FAE964019006DC7023
:103CA3000AE02401F8A3E034008003124AC5F912A4
:103CB30051C7124CCA901CBAE0701F9006C0E06452
:103CC3000F70177A927B1C122BB39082E0120B9A1F
:103CD3007A927B1C124C72120D49A8A8C2AF901C99
:103CE300BAE004F0E8A2E78004E508A2E092AF029C
:103CF30050D574F7120825EAFEEBFFEA123D2BF0CC
:103D03001228E3EEFCEFFD7AB47B1C121647A8A839
:103D1300C2AF901CBA1246199006C0E0640F70053A
:103D23007908122A7B0250D512388CC2E42274F728
:103D330012082574EA120DFCEAFEEBFF9006B9E0C7
:103D4300602A8518828519837401F012106AE412BF
:103D53003DE612106A123B6CC0E0740A12106AD07E
:103D6300E01260D2740B12106A1253327416023EC0
:103D73008074F7120825EAFEEBFF1228C5E9F974EF
:103D8300DC69601E74DD69601974E469601474F39E
:103D930069600F74DE69600A74DF69600574DB694A
:103DA3007007EEFAEFFB122A810250D574F712085E
:103DB3002574EB120DFCEAFEEBFF8518828519834F
:103DC3007406123DE612106AAA82AB831217BBEE89
:103DD3002408FCE43FFD740A12106A12533274156E
:103DE300023E80F0EA2413FCE43FFD74022274F7E0
:103DF30012082574F7120DFCEAFEEBFFEA243012D9
:103E03004FC7605DEA123E7112106A7403F09006A8
:103E1300D5120B9E123E67120B9E9006E8E0F974D2
:103E230004120DDCEEFAEFFB1228CB7404120D49D9
:103E3300E9F974DC69602374DD69601E74E4696008
:103E43001974F369601474DE69600F74DF69600AC2
:103E530074E869600574DB697007EEFAEFFB122AF8
:103E630081023635EE242EF582E43FF58322126279
:103E730043AA18AB191217BB7408227403120D4915
:103E83000250D574F21208258A0C8B0D750A007541
:103E93000B007508E7A2AFE433F509C2AF901CB479
:103EA3008003123C70123AC86025123C8450F3120E
:103EB3003EFB70EEEE2432124092E06870E4780A22
:103EC300120D6C123C62120D49901CBAE014F0E51D
:103ED30009A2E092AFEE4F6013EEFAEFFB1228E374
:103EE30079F0EEFAEFFB122A81750800A908AA0CF3
:103EF300AB0D122A81023AD5123A5FE064012274B3
:103F0300F412082574F7120DFCEAFEEBFF8A82F522
:103F130083A3E064F37003023FA08A828B83A3E050
:103F230064DF60798A828B83A3E064E8606F8A82AE
:103F33008B83A3E064DB6065122925E9F5087055DE
:103F4300EE240E124FC7604D123FAA604874081248
:103F5300106A123FB9120B9E7508FF7509FF7808A6
:103F6300120D6C8E828F83A3A3A3A3A3A3A3A3E0A9
:103F7300F97404120DDC1228CB7404120D49E9F50F
:103F83000874F369600F74DF69600A74E869600597
:103F930074DB69700F8E828F83A3E508F0EEFAEF6E
:103FA300FB1229310234CFEE240FFAE43FFB7909E7
:103FB300122967EA4B22740212583874FFF0A312D5
:103FC3003FC622125386A3A32274F1120825EAFEE8
:103FD300EBFF7508008A82F583A3A3A3A3A3A3120F
:103FE30034ED40037508E88A828B83A3A3A3A3A3BC
:103FF300A3A3A3A3A3E0C3941040057508E880130B
:104003008A828B83A3A3A3A3A3A3A3A3A3A3E064F1
:104013000F600B901D21E0540870037508E8EA2433
:104023000B124092A3A3A3A3A3A3A3A3E0C39850FB
:104033000DEA240B124FC7640F60037508E890065E
:10404300D9E0F47003A3E0F470037508EC7A237BE2
:10405300001216CB8B0BA90B901C9B1240A160275F
:104063008E828F83A3A3A982AA83890C8A0D750EDE
:1040730000780C120D687C237D00901C9BE0FA12E3
:104083004E00120D49800375081AA908025E2AF52D
:1040930082E43FF583E0F88A828B83A3A322EAF0CC
:1040A300A3EBF0EA492274F5120825EAFEEBFF8A36
:1040B30082F583A3A3A3A3A3A3A3A3E09006C012A3
:1040C3004139E09006DBF0EA240B124FC79006BBA0
:1040D300124139A3E0901D45F0F9121383901D4559
:1040E300E0600BEE2404124FB9240612412F901DF9
:1040F300441234C56004740180027400901C9D1244
:10410300677D120D687C0B7D007A9E7B1C124E002E
:10411300120D49EE2418F508E43FF5097808120D4D
:10412300687C0B7D007AA97B1C024DEDFAE43FFB12
:1041330079E112136B22126767A3A3A3A32274F777
:10414300120825EAFEEBFF8A82F583A3E0700312CF
:10415300347B1262EE0250D574F7120825EAFEEBA7
:10416300FF901C9B1254496010901C9B124A76903E
:104173001C9BE4F0A3F01216D18E828F8374081275
:104183004B5A121EED0250D574F6120825901D44A9
:10419300E06010901C9DE0700A1241A9EA4B600395
:1041A3001229BB0263E89006BBE0FB9006DBE0FA52
:1041B3009006C0E0F91228DD2274F412082574E792
:1041C300120DFCEAFEEBFF750B018A82F583A3A3B4
:1041D300A3A3A3A3A3E0A2E25069EA242BF582E4FC
:1041E3003F125E40EA2413FAE43FFB1228E9E97028
:1041F30052908221E064017005750B0080451242E4
:104203007B120D687C0B7D007411120DD4124E00CD
:10421300120D49122AC3E9FA740E120DCC880889CB
:10422300097808120D6C7508307509007808120DAD
:104233006CEE12609B120B9E12623579011234E709
:10424300120D498518828519837410F01262357432
:104253000212106AAA82AB831217AFEE242B126AE2
:104263002E740B12106A124CCA740D12106AE50BED
:104273001264A774190234D1EE240812678522C090
:1042830082C083901D45E06003122B35024BEAC0C8
:1042930082C083901D3C747AF0A3741CF0A3747ED7
:1042A300F0A3741CF0A3748AF0A3741CF0901E9105
:1042B30074D8F0A37430F0901D2674BFF0A3742853
:1042C300F0901CBF74F5F0A37428F0901CC174FB2C
:1042D300F0A37428F0901D21E044020246EEC08250
:1042E300C083EAFCEBFD79030253F5C082C08379F6
:1042F30008026568C082C08374FE120DFC901CC75F
:1043030074A3F0A37429F0901CC9749DF0A37429BD
:10431300F080077AB47B1C124353901CB4125449A7
:1043230070F1901CB612544960097AB67B1C124393
:104333005380EF901CB4E4F0A3F0901CBAF0A3F008
:10434300A3F0901CD574DFF0A37429F07402801CD1
:10435300121641851882851983EAF0A3EB1243678D
:10436300122AB122F0AA18AB19227411120D4902B4
:104373004BEA74F6120825E9FF74FB29F582E4344D
:1043830033F583E493FEFA7B00121617EA4B6007BA
:10439300EA2E1243C380267A027B00121617EA4BD9
:1043A300601774112FF582E43434F583E4938A8221
:1043B3008B83F0A3741A12478C7A007B000263E8A4
:1043C300124CB9E8126362A3A3A3A3E4F022E9FCAD
:1043D300740629F8EAA2E0501EE875F00A84E5F0B5
:1043E300F96014740A28C399F8E9C3940540047466
:1043F3000A28F8740B28F8ECC3941340047914804A
:10440300027906E82979002409F85001097A0A7B20
:1044130000120646E8F9020D16C082C083901D21E2
:10442300E05402600A121EF3E96004790180027904
:1044330000024BEAC082C083901D21E05402601445
:10444300901CBAE0700A125446600912445C50048E
:10445300790180027900024BEA12349FA2E722C05D
:1044630082C08390821EE0F8901CBCE0C398500584
:1044730012161780047A007B00024BEAC082C083C5
:10448300122AB17900024BEAC082C08374FE120D76
:10449300FC851882851983EAF0A3EB1245F5A3A3E3
:1044A300A3A3A3E0600A14605724FE605A02456583
:1044B3009006C0E0640F6012122A87E9700C124A5A
:1044C30070901CC3124B421209FA9006E8E0C0E058
:1044D300851882851983125369D0E01245F5741447
:1044E300125D86FCA3E0FD7AB67B1C12163BA8A8DE
:1044F300C2AF901CBC1246197920122A7B02434F8B
:104503001248C3741580D91248C3A3A3A3A3E060C0
:10451300511248C3123B77C0E0851882851983E0A6
:104523002406F582E43BF583D0E0125D862402F88D
:10453300A3E03400F98882F583E02401FAA3E03490
:1045430000FB88828983EAF0A3EB125D861249039C
:1045530085188285198360131245CA60051245DCEC
:104563004048AA18AB19122AB180921245CA60F2C8
:104573001245DC50211245E9FA851882851983A377
:10458300E0C824061248BFF8743112557E3434F55E
:1045930083E4936A60148518828519831245CA647B
:1045A3000870BF1245E9640870B81245E914124552
:1045B300FD240AC0E0851882851983124B42D0E09E
:1045C3001245FD040244E31245CE22124AC5C82413
:1045D30006F582E438F583E0228518828519831273
:1045E30045CEC3940A2285188285198312389AA36B
:1045F300E022124607F583888222124607C8240662
:104603001248ED22F0851882851983124AC522A823
:10461300A8C2AF901CBBE004F0E8A2E792AF22C0AF
:1046230082C083901CCB12544960081248CA1209F5
:10463300FA80027900024BEA74F7120825EAFEEBCE
:10464300FFEA123A607401124C78F8A3E0F91236CB
:1046530042124CCAEA2435124FC7C0E0EA2413F5CC
:1046630082E43FF583D0E0F0EA2436124FC7C0E07E
:10467300EA2414F582E43FF583D0E0F0EA2438120B
:104683004FC7C0E0EA2418F582E43FF583D0E0F099
:10469300EA242FF582E43FF583120B9E126242EA6D
:1046A3002431124FC7F9123A41120D49E9F5087046
:1046B30007EEFAEFFB1229BBA9080250D5C082C04E
:1046C30083122A87E96004792080027901024BEA88
:1046D300C082C083EA24111246E4D2E0800DEA24AA
:1046E3000DF582E43BF583E022F0A3F0024BEAC030
:1046F30082C0831246E164017011124786400C8A1E
:10470300828B83A3E0F9122A818066124777A2E69F
:1047130050128A828B83A3E0F9901CC5124B42127C
:1047230009FA804D1246E16401700D124786500864
:104733008A828B83743080368A828B83A3E0641BE6
:104743008A828B83700474228024A3E0700D124646
:10475300E1F8741C12557E3434800B1246E1F87470
:104763001112557E3434F583E4938A828B83124786
:104773008C024BEA12477B22EA2410F582E43BF5D4
:1047830083E02212477BA2E322F0901D1CE0F91282
:1047930016232274F7120825E9FE12544670030209
:1047A30048BCEE6014741B6E701AE8125D5239F542
:1047B30083E064057003024894901CBE1248CAA3A8
:1047C300E402489B74E96E7068E82412F582E439C8
:1047D300F583E0700B121EF9E9600512490D606163
:1047E30079EE1212ED901CBD1248E4901CBD603AA4
:1047F300124910901CBD700B1248E414F01214A35C
:104803000248BC124902C2E7124AAB240D1248BF48
:10481300640370091248DD124A61D2E2F079ED12A5
:1048230012ED1248F51209FA80781248D074E98023
:104833006774E16E703E121EF9E9605512490D70FE
:10484300509006E2E0C0E01248DD2412F582E4381D
:10485300F583D0E0F09006D1E0C0E0901CBD124893
:10486300D91248D9D0E0F09006D1E004F0790112D2
:10487300148B8045741C6E7018901CBD124A769080
:104883001CCD124B421209FA901CBDE4F0A3F08038
:1048930028901CBD1248D0EEF0901CBD124A76122F
:1048A30029A9124A8CE054806003126557901CBDFD
:1048B300E4F0A3F07910122A7B0250D51248ED22BE
:1048C300851882851983A3E0F5838882221248D450
:1048D30022124B4AA32212539722901CBD125378E3
:1048E3002212537824121248ED22F582E438F5831C
:1048F300E022901CBD124A7A901CC1124B4622E062
:10490300F8A3E0C824101248ED22901CBD124A936C
:10491300E054042274F4120825750A00750B00A2F2
:10492300AFE433FEC2AF1254466003024A0A124B8D
:104933003F1209FAE94410F8901CB4800985080A6B
:1049430085090B124A54124A687003024A0A123B41
:1049530061586870E8780A120D6CAC08AD09123C16
:1049630066120D49901CBDE508F0A3E509124AAB98
:10497300124A61A2E75003024A11901CBBE014F0F3
:10498300EEA2E092AF901CBDE0240EF8A3E0340049
:10499300F9E8FEE9FF8882F583124A76901CBD127E
:1049A30045EFF912296DE9901CB81260E58E828FEC
:1049B30083E0548060181248DD24131248BFF912B3
:1049C30013A71248DD24141248BFF912139B124A8D
:1049D3008CA3E05401605F901CB8125449604512E7
:1049E3004AA26040124AA2F87900901CB8124A7693
:1049F30012064EE8C0E0124A80D0E0124AB0C394D7
:104A03001340117402800FEEA2E092AF8037901C26
:104A1300BA0249807400C0E0901CBEE0C8124A4B41
:104A2300D0E0800D124A807401124AAB124A4B74D3
:104A330001F07903800C901CBD124902A2E1B3E49A
:104A430033F912148B0234D4241AF582E438F58333
:104A530022E50824FBF582E50934FFF58322125D84
:104A63006C1248F0221234B0E508450922851882F9
:104A7300851983124A7A22E0FAA3E0FB22125375C6
:104A83002419F582E438F58322901CBD124A93223F
:104A9300124AC5C8124A9B2212558C38F58322123A
:104AA300537524181248ED22124ABDC822124ABD7A
:104AB300F5838882A3A3A3A3E022F0901CBD124A2E
:104AC300C522E0F8A3E02274F7120825EAFEEBFF03
:104AD300122AAB124FC4A2E3400A123EFB700590A8
:104AE300821C800390821DE0F9EEFCEFFD7AB47B1B
:104AF3001C121653E96038EEFAEFFB901CC7124BF9
:104B0300421209FAEE240E124FC7540470121246D1
:104B130012EE123643A3E05401701E1229B5801918
:104B2300EEFAEFFB901CBF124B421209FA800A8E79
:104B3300828F83A374F1124B530250D5901CC91278
:104B43004B4622124B4A22E0F8A3E0F583888222E7
:104B5300124B5A1229A922F0EEFAEFFB22024BE381
:104B630074F7120825EAFEEBFF7900901D21E0544B
:104B730002700CEA2433124FC75404600279E890A0
:104B83001D21E05460700CEA2433124FC7540260B5
:104B93000279E88A828B83A3A3A3A3E0F8908222FD
:104BA300E0C398500279E8EA2431124FC7700CEA47
:104BB300242E124FC7700479F5800BE97005122972
:104BC30097E9F9E96007EEFAEFFB122A810250D563
:104BD300C082C0838A828B83740DF0121EED80071E
:104BE300C082C0831229B5D083D082020D1674F41B
:104BF300120825EAFEEBFF8A82F583E4F0A3124C48
:104C030078540490821C7012E0F8901CBBE0C398A7
:104C1300401279F1122A810234D4E0F8901CBAE0F0
:104C2300C39850EE124C7EA3E054016037EA243758
:104C3300124FC7C394054033EA2433124FC75405B8
:104C430070297ACF7B1C122BB3EE2437F582E43F15
:104C5300F5831234857808120D647ACF7B1C124CCD
:104C630072120D49EEFA12566F80AC79E880A512E4
:104C73002BA7740422F0124C7EE022EA2433F5823F
:104C8300E43FF5832274F6120825E9FE2451FAE481
:104C93003400FB121617EA4B6015EE8A828B83A34E
:104CA300A3A3A3F0EA2451124CB9124CCA80047A8C
:104CB300007B000263E8F8E43BF98A828B83A3A3B9
:104CC30022126A38901D99E8F0A3E9F022024BE31F
:104CD300C082C083901CD87409F0A3742AF0A37413
:104CE30039F0A3742AF0A3740FF0A3742AF0A37409
:104CF30015F0A3742AF0A37433F0A3742AF0A374F9
:104D030027F0A3742AF0A37421F0A3742AF0A374E8
:104D13003FF0A3742AF0A37445F0A3742AF0A3749C
:104D23004BF0A3742AF0A37457F0A3742AF0A3746E
:104D33001BF0A3742AF0A37403F0A3742AF0A374E2
:104D4300FDF0A37429F0901CF4742DF0A3742AF0E1
:104D5300A37451F0A3742AF0A3746BF0A3742BF023
:104D6300A3745DF0A3742AF0A37463F0A3742AF010
:104D7300901D18E4F0901D1BF0901D04124D9074CB
:104D830002F0901D0D124D9074010246EE747BF0FB
:104D9300A3742AF0A32274F512082574F1120DFCF2
:104DA3008518828519837402F0740112106AE9F080
:104DB30060047AFF7BFF740212106A12582D750883
:104DC3001075091D750A007808120D687C0B7D00AB
:104DD300740712106AAA82AB83124E00120D49AAFD
:104DE30018AB19121EED740F8003124E00120D49F9
:104DF3007F03020ADF7C0B7D007A107B1D1215F303
:104E030074032274F712082574FD120DFC851882B1
:104E1300851983740AF0740112106AE9F07402129E
:104E2300106AEA1264A7023E7E74F612082574F72C
:104E3300120DFCEAFEEBFFEA124E7E124EAE740236
:104E4300F0EA2428FCE43FFDAA18AB191217AFEED1
:104E53002431124E842433125EA6120D6C74021296
:104E63000DDC79831A1A123A3F120D49E9F50870DD
:104E730007EEFAEFFB1229BB0263E1123647740116
:104E830022F582E43FF5831234B012534EF58312B8
:104E93004E9CE8F0A3E9F0EE22124EA48A828B83A3
:104EA30022E024FFF8A3E034FFF922F0A3E4F0EAC0
:104EB300123A602274F01208251269161210137840
:104EC30008790C1207367808120D647A077B1D02E5
:104ED30034B874F412082574C6120DFC9006C0E0B1
:104EE300640F600D851882851983742E12584C80C7
:104EF300227AFE7B1C1234F612064E88088909E4D6
:104F0300F50AF50B7808120D647AFE7B1C124C72BD
:104F1300120D49743A0234D174F5120825EAFEEBF6
:104F2300FF8A82F583A3E0F87078EA2430124FC732
:104F330064026007E06403600278E8EA2426F582ED
:104F4300E43FF5831234EF400478E88058E8705268
:104F5300EA242612412FEE2431124FB92430124F86
:104F6300C76402700EEE2428126A2E9006CF124CEC
:104F7300CA80179006CF74FEF0A304F0EE2428FC39
:104F8300E43FFD7AC67B061217BBEE241B12427E5A
:104F9300120D68124DF8120D49EEFAEFFB1229F7C4
:104FA300E9F8E8600EE88E828F83A312624A7417D1
:104FB3001262F4024DF3FAE43FFB795012136BEEE5
:104FC30022EE2410F582E43FF583E02274F6120802
:104FD3002574F7120DFC901D1BE070377401F0F976
:104FE300121455AA18AB19122ABD75081075091D9C
:104FF3007808120D6C7508017509007808120D6C9C
:105003009006D5120B9E7406120DDC7A031234E55A
:10501300120D490263E374F71208251251F5700467
:10502300A374EBF0901D1BE0A2E25003C2E2F0E098
:10503300A2E1500512520680098E828F83742A12D0
:1050430062F40250D574F412082574FE120DFC129A
:1050530050FB125341EC851882851983125390E05B
:10506300F50B7015AA18AB19795312136BEE2413B1
:10507300FAE43FFB794A12136B12427B120D68125A
:105083004DF8120D49124A70A90B1229EB901D1B02
:10509300E0A2E1500312520D901D1BE4F0740202D2
:1050A30034D174F7120825EAFEEBFF8A82F583A355
:1050B30074EBF0901D1BE0A2E150077A0079EB122C
:1050C30029F1EEFAEFFB122A278007EEFAEFFB1223
:1050D3002B297F01020ADF74F71208251250FB9077
:1050E3001D18E4F0901D1BF07AFF7BFF8E828F83E7
:1050F300A3E0F91229EB80DA1252467A077B1D12DC
:105103002BB32274F7120825EAFEEBFF122A218043
:10511300BA74F7120825125283A3A3A3E0600474A0
:1051230000800274EB1251545003C2E2F0E0A2E19A
:1051330050051252578011A2E0500D8E828F837456
:105143002AF0A374EB1262F4EEFAEFFB1229CD807E
:10515300818E828F83A3F0901D1BE0A2E22274F65E
:10516300120825EAFEEBFF901D1BE0D2E1F0790166
:105173001214558E828F83A3E07038122AC3E9FA82
:10518300EE240DF508E43FF5097808120D6C750857
:10519300017509007808120D6C1251C7120B9EEEAF
:1051A3002402FCE43FFD1234E5120D49E98E828F9F
:1051B30083A3F08E828F83A3E060067A00F912291D
:1051C300F10263E8EE240BF582E43FF5832274F7E2
:1051D3001208251251F57004A374EBF0901D1BE027
:1051E300A2E25003C2E2F0E0A2E15003125206022F
:1051F30050D5EAFEEBFF790112145B8E828F83E0B8
:10520300642022C2E1F012520D227A008E828F8333
:10521300A3E0F91229F12274F71208251252468EDF
:10522300828F83A3A3A3A3E060047400800274EBC2
:105233001251545003C2E2F0E0A2E150031252575C
:1052430002514BEAFEEBFF790112145B7AFE7B1CE1
:10525300122BB322C2E1126778E0A2E4E433FA121C
:10526300520F2274F712082512528374EB1251590C
:105273005003C2E2F0E0A2E150031252060250D5FD
:10528300EAFEEBFF790112145B8E828F83A32274F3
:10529300F71208251252A80250CE74F712082512ED
:1052A30052A80250D5EAFEEBFF7AFE7B1C122BB309
:1052B300EEFAEFFB122A4B2274F712082574EF1251
:1052C3000DFCEAFEEBFFEA1262367AC67B06121782
:1052D300A9E960568518828519837409F07401124F
:1052E300106A74EFF0125341740212106AEC1253F5
:1052F30090A3A3E0C0E0740412106AD0E012537DBF
:10530300640870158E828F83A3A3125369E0C0E0F3
:10531300740512106AD0E08006740512106AE41254
:1053230060D2740612106A1253327411023E80AABC
:1053330082AB83122AF3AA18AB19121EED22125361
:105343004EF583125360FCA3E0F922EE125356FB91
:105353008882222402F8E43FF9E8FAE922124AC5D6
:105363008882F583E0221253782407F582E438F526
:105373008322901CBD124AC5C822125381221253A4
:1053830086E022F08E828F83A3A3A3A322126362FB
:105393001253972212539B22E0F8A3E0F5838882ED
:1053A300A3A322C082C083122B35024BEAC082C062
:1053B30083901D3874D8F0A3741CF0A374F4F0A385
:1053C300741CF0901E8B749CF0A37431F0A3743A98
:1053D300F0A37431F0901D2474E5F0A37429F090C8
:1053E3001D21E044010246EEC082C083EAFCEBFDCE
:1053F3007902122A99024BEA74F612082574FE12F6
:105403000DFC901D1D12544960077A1D7B1D122A45
:10541300B1901D23E4F0900D84125449602080075D
:10542300AA18AB19122AB1901D1CE0F912162F8B82
:1054330009A9098518828519831240A170E27402B3
:105443000263E5901CBD126A38E8492274F712081A
:1054530025E9FA7B00901D1CE0F91216590250D57C
:1054630074F712082574F0120DFCEAFCEBFDE9FE5B
:105473008A828B83E0F8742712557E3434F583E4F3
:1054830093C0E0740112106AD0E0F0640B700DE970
:105493008A828B83A3F0122B17025579E0700302E3
:1054A3005579640C600302556A741A6E700B7404A8
:1054B30012106AE4F0A3025569740412106A1258B8
:1054C3002DEA2432125D36C0E0740312106AD0E074
:1054D300126763121047740612106A1210538C82FB
:1054E3008D83A3A3A3A3A3A3A3A3A3126A34740AC0
:1054F30012106AE8F0A3E9125583E054106009859D
:105503001882851983E48013EC2412125D36F89017
:1055130006E2E0C398851882851983F0E0C0E07441
:105523000C12106AD0E0F0EC2415125D36C0E07462
:105533000D12106AD0E0F0EC2416125D36C0E07450
:105543000E12106AD0E0F0EC2417125D36C0E0743E
:105553000F12106AD0E0125583A3E054016008745F
:105563000112106A7411F0740212106AEEF07401E1
:10557300120DD4121EED7410023E8028F582E4222F
:10558300F0EC12558C3DF58322240EF582E422C003
:1055930082C083901D23E064037004790180027943
:1055A30000024BEA74F7120825901D23E0125622DD
:1055B300748928F582741E39F583125AB4C2E7F050
:1055C300125629A3E493FE25E0FCE433FD74892CF1
:1055D300F582741E3D125E40EC4D6005EE901D2376
:1055E300F08A828B83E025E0FCE433FDE82CF5822E
:1055F300E93DF583E493FCC4540F25E0F8743212BB
:10560300557E341DF5831254497005122B05800C09
:10561300EC540F125629124B421209FA0250D525A7
:10562300E0F8E433F92225E0FCE82CF582E439F5CF
:10563300832274F212082574FE120DFC890B8A086A
:105643008B091256D41256C5601A1260DFF50A7818
:1056530008120D681256E12402125E36120D491229
:10566300566D80031256F3023AD0AA0CEFFB901D3D
:105673001CE0F91216232274F012082574FE120D91
:10568300FC890B8A0E8B0F1256D4F5081256C5608F
:10569300271260DFA808EA281243C3850E08850F86
:1056A30009F50A7808120D681256E1125E34120DDC
:1056B3004912566D790080051256F3791A74020265
:1056C30034BDFA7B001216178A0C8B0DAF0DEA4F0F
:1056D3002274F029F582E43433F583E49322A80B92
:1056E300740612557E3434F583E493FC7D00EA227C
:1056F300851882851983E50BF0791AAA18AB19125C
:105703002A8122C082C083E9901D1C0246EE74F6F2
:1057130012082574FE120DFCEAFEEBFFEA5420701A
:10572300308039A8A8C2AF901CBCE01412461B8A73
:10573300828B8312581A901D1F12582D122A8D85A1
:105743001882851983E0641560077A1F7B1D122A6E
:10575300B17AB67B1C121641EA4B70C7EF548070C6
:105763000C8016901D1FEAF0A3EB125840901D1CED
:10577300E0F912162FEA4B70EAEE5410600B85180D
:1057830082851983742D12584CEEA2E0500B8518B4
:1057930082851983742412584CEE5402600B8518C9
:1057A30082851983742512584CEE5404600B8518B6
:1057B30082851983742612584CEE5408600B8518A1
:1057C30082851983742812584CEE5440600D74017D
:1057D30012106A125833742C12584CEE5480600D18
:1057E300740112106A125833742F12584C901D1DF5
:1057F300125449601BA8A8C2AF901D1D124A76908F
:105803001D1DE4F0A312461BA3EAF0A3E9125840BE
:105813007A007B0002544112581E22E085188285CB
:105823001983F022A3A3A3A3A3A3EAF0A3EBF0227B
:10583300E412583822F085188285198322F0122A3F
:105843008D7A1F7B1D122AB122124367122A8D22E1
:10585300C082C083901D1F1264A2687002EB69703E
:1058630007901D1FE4F0A3F0024BEA74F71208251A
:10587300EAFEEBFFEA4F700312116DA2AFE433F5BA
:1058830008C2AF8E828F831254496028E824FBFA42
:10589300E934FFFB901D1F125E42E86C7002E96D54
:1058A3007007901D1FE4F0A3F08E828F83E4F0A3B2
:1058B300F01216D1023CECC082C083901D4674F9ED
:1058C300F0A3742AF0A3740BF0A3742BF0A3741148
:1058D300F0A3742BF0A374C7F0A37429F0A3741777
:1058E300F0A3742BF0A374C1F0A37429F0A374CDB7
:1058F300F0A37429F0901D547447F0A3742BF0A304
:10590300741DF0A3742BF0A37423F0A3742BF0A3E2
:10591300742FF0A3742BF0A37429F0A3742BF090CD
:105923001D45E40246EEC082C0839006CFE064FECC
:105933007003A3E0F470097CC67D061217AF801CC8
:105943008A828B83A3A3A3A3A3A3A3A37402F0902C
:1059530006CF126A348A828B83124CCA024BEAC086
:1059630082C0839006D9C3E094FEA3E094FF400471
:10597300790380027902024BEAC082C083125ABDC6
:105983008C828D83125A72687039740268701C8A13
:10599300828B831259CBE06870298A828B83A3128E
:1059A30059CBA3E068701C7901801A7403687013E3
:1059B300EC2405FC50010DEA2405FA50010B1217E3
:1059C300B580027900024BEAA3A3A3A3A3E0F88C5A
:1059D300828D83A3A3A3A3A32274F61208257E00BA
:1059E300740A12106AE0125A66FF8A828B83A3A399
:1059F300A3A3A3A3A3A3E06F706474026F704E8A82
:105A0300828B83C082C08388828983A3A3A3A3A339
:105A1300E0F50888828983A3A3A3A3A3A3E0FBAA39
:105A230008D083D082E06A7003A3E06B7030888271
:105A33008983A3A3A3E0FA88828983A3A3A3A3E012
:105A4300F9EA6C7002E96D70157E01801174036FC1
:105A5300700CE82405FCE439FD1217B5E9FEEEF9F4
:105A63000263E8F8A3E0F98882F583125A7222A34D
:105A7300E01313543F540322C082C0838A828B8372
:105A8300A3A3A3A3A3A3A3A3E0640270169006CFCA
:105A9300125AB4687003A3E06970047901800F7926
:105AA30000800BEAFCEBFD7AC67B061217A9024BBA
:105AB300EA126A388A828B83E0228A828B83125AA3
:105AC30072F82274F012082574FC120DFCE9851893
:105AD30082851983F0740212106AECF0A3EDF08A48
:105AE3000A8B0B750800740212106AE02408125D19
:105AF30036C0E0740112106AD0E0125D86A2E7504E
:105B030008750EFF750FFF800A9006D5E0F50EA30A
:105B1300E0F50F851882851983E0C2E7125D8B5487
:105B2300206007125D5874088004125D58E4125D0A
:105B33008B54046007125D6374808005125D637487
