:020000040000FA
:0600000002105702060B7E
:03002B00020E0FB3
:03004300020CDDCF
:0300530002054063
:03006B000207D6B3
:1000830002059F0100F0FF0700080000FFFF0000CA
:10009300070400000003000147726F757000FF043E
:1000A30000100020FD00020000C915000000000040
:1000B300002916000000000000A515000000000044
:1000C3000000000000B11500000000000000000067
:1000D30000000006FFFF1E01AD190000D11900004A
:1000E300000000000000000000000000000000000D
:1000F300102020202020202020202020202020200D
:100103002001010401000100057D8201B683010481
:100113000000241A000000E8030000FFFF9E1A01FC
:1001230088130000E803000064006400B801A0BB6A
:100133000D00A0BB0D0002020207040101051E020F
:10014300051E020A0A0101010809080103B80B028E
:10015300803E0102FEFFE8030A050001FFFF010ADA
:100163001401E0020000000105030101FF0F10FE6E
:10017300FF03000300030003000300030003000365
:1001830000030005000A00140028004F009E000031
:1001930000583200000000CA3000000000FF0000D9
:1001A30000FF00121067601D1210767005191919EF
:1001B300801A120F0B701F120F1FC37003E66733F1
:1001C30019191940071818182208080874FFF61897
:1001D300F618F618F622120F1F6017121104702179
:1001E30092F012110D7019501720F0140808080925
:1001F3000909E7F61819E7F61819E7F61819E7F6E3
:100203002212110D60E6E869701F0808E62480F6E3
:1002130008E436F618547FB47F0CE654806007F682
:10022300E418F618F622181822E9C6CC08C6CD0839
:10023300C6CE08C6CFC0E0E8C0E0EAC0E0EBC0E04D
:1002430009E9F809E7FA09E7FBE6F918E6F8C3EC68
:1002530098ED99EE9AEBC2E7F5F0EFC2E795F0500F
:100263000E600CEBCFFBEACEFAE9CDF9E8CCF8EA65
:10027300A2E7D2E7FAEB33FB13F5F0EEA2E7D2E7FE
:10028300FEEF33FFC5F013A2E730E601B313C5F069
:10029300C3C0E0C0F07F00C39BFB605E9418600F97
:1002A300401D14601AD0E023F9D0E0F80203878AD6
:1002B300F0E9486003D2F0E4AFF0FAF9F8803BEBE1
:1002C30030E40D89F0EA6003D2F0E4AFF0F9CAF844
:1002D300EB30E30D88F0EF6002D2F0AFF0E4CAC96F
:1002E300F8EB54076014FBC3EA13FAE913F9E813B4
:1002F300F8EF135002D2E0FFDBEDD0E0C0E030E7CF
:1003030039C3E49FFFF5F0EC98FC42F0ED99FD4210
:10031300F0EE9AFE42F0D0E0F9D0E0F8E5F0607A32
:10032300E923F9EE20E742D8028067C3EF33FFECFD
:1003330033FCED33FDEE33FE80EAEC28FCED39FDB2
:10034300EE3AFED0E023F9D0E0F84002801BC3EE82
:1003530013FEED13FDEC13FCEF135002D2E0FF0884
:10036300B800067F7F74FF802EEF3350178CF02088
:10037300F00260100CBC000C0DBD00080EBE0004A2
:1003830008E860DFE933E813FFEE2313FE4F4D4C1B
:100393008008E95480FFE4FEFDFCEE33EF33F47094
:1003A30004FCFD7E80D0E0FBD0E0FAD0E0F8D0E0A2
:1003B300CFC618CEC618CDC618CCC6F92200121067
:1003C30067604F1210766012E7548066F6120F0BC7
:1003D3007011121104703B090909F4F618F618F6A6
:1003E30018F622120F1F701512110D08080860EA83
:1003F300E6447FF618768018E4F618F62212110DFB
:1004030060161211047012E4F608F608F608E654B2
:1004130080F609090918181822EAC0E0EBC0E0ECDD
:10042300C0E0EDC0E0E687F0A4FBACF008E687F09F
:10043300A42CFCE435F0FA1809E687F0A42C4B60F1
:10044300027401CA35F0FCE433FB09E687F0D2F706
:10045300A42CCB35F0FC1908E687F0A42BCC35F09F
:10046300FBE433FD0819E687F0D2E7A42C4ACB3529
:10047300F0CD3400FC09E687F0D2E7A42DCC35F0AB
:10048300FDE433FA0918E687F0D2F7A42CCD35F052
:10049300CA3400FC08E687F0D2E7D2F7A42ACC35A9
:1004A300F07A7E20E70B0ACB33CBCD33CDCC33CCE4
:1004B30033CB3350147004ED30E00ED2F1E4CD3D74
:1004C300CDCC3CCC3B5005DA05C2F1EB547FC633AF
:1004D30008E63392F0FBE73309E733C39A502D2B39
:1004E30070190C0D4C4D70151806E608C333700DCA
:1004F30020F10AA2F013F6E418800B4024E4F6304E
:10050300F002768018F618F618F68024D33B1450C0
:100513001074FFA2F013F6187680E418F618F6802C
:100523000FA2F013F618E63303F618ECF618EDF6FF
:10053300D0E0FDD0E0FCD0E0FBD0E0FA22C0E074D4
:10054300F1120923A2AFE433F509D2AF85A708AFAF
:10055300A1EF5508FE74105E600612133575A1EF06
:1005630074085E600812133B75A1F78024EFA2E0C4
:1005730092F0E508A2E082F05017906198E0F890BD
:1005830006A8E0C398A2D265D0335002E8F075A163
:10059300FEE509A2E092AF7F020209DFC0E074F238
:1005A300120923A2AFE433FED2AF9061A4E0F87541
:1005B3009B00E59158540860087591F712138980E0
:1005C30023E59158541060087591EF12138F80142E
:1005D300E591A2E092F0E8A2E082F05007E0C2E0E9
:1005E300F01214D99061A3E0F8E5E9585404600EC1
:1005F3001214AF75E9FB906193E0A2E640F2EEA21C
:10060300E092AF7F010209DFC0E074F2120923A276
:10061300AFE433FED2AF9061A5E0F8E5BF585404D0
:10062300600675BFFB1214F180D4C3E498F8E49913
:10063300F912066E8026C3E49AFAE49BFBE920E7ED
:10064300E912066EE498F8E499F922C3E498F8E411
:1006530099F912066EE498F8E499F9C3E49AFAE476
:100663009BFB22EB20E7CFE920E7E0B90010BB00BA
:1006730008E88AF084F8AAF022E4FBC8FA22EB70B7
:10068300227B10C833C8C933C9335007C39AC3DBAD
:10069300F280069A50012ADBEAC833F4C8C933F45E
:1006A300C9FA2275F008E4C833C8C933C933C99AF3
:1006B300C99B5004C92AC93BD5F0ECFBC833F4C825
:1006C300E4C9FA2212070720F01430E72B74FFFC69
:1006D300FBFA747F8022E4FCFBFA7480801AB480F6
:1006E30008BC00F2BB00EF800F50EBF9E4C39AFAA9
:1006F300E49BFBE49CFCE499C6CC18C6CB18C6CAA1
:1007030018C6F922E4C9C608CAC608CBC6D3330340
:1007130008CCC63392F0C3947F402E94184019C975
:10072300B90704CACBCC225025C309CA33CACB3379
:10073300CBCC33CC33D9F422F4600DC9CCC313CB67
:1007430013CBCA13CAD9F6CC22E4FCFBFA2214FC5D
:10075300FBFA22080808EAC0E0EBC0E086F0E7A451
:10076300FA180986F0E7A42AFA180986F0E7A42AFA
:10077300FA180986F0E7A42AFA1986F0E7A4FBE53C
:10078300F02AFA190886F0E7A42BFBE5F03AFA19E8
:100793000886F0E7A42BFBE5F03AFA18180986F06F
:1007A300E7A4C5F02BFBE43AFA1908E7C5F0C6A4A1
:1007B30026F6E5F03BFBE43AFA1886F0E7A4F6E503
:1007C300F00826F6E43B08F6E43A08F6D0E0FBD05E
:1007D300E0FA22C0E074F11209237A0A7B001211B5
:1007E300C7A2824028A2844004D2F08002C2F0A2B1
:1007F300F09284A284E433F5087509007808120D99
:10080300C67A817B81121FCB7402120DF4A295402C
:1008130028A2844004D2F08002C2F0A2F09284A203
:1008230084E433F5087509007808120DC67A5F7BF6
:1008330081121FCB7402120DF47A0279011211BBDB
:100843007F020209DFE4CFC0E0E4CEC0E0E4CDC024
:10085300E0E4CCC0E075F020E626F608E633F608BF
:10086300E633F608E633F6181818EC33FCED33FDDF
:10087300EE33FEEF33FFC3EC9709ED9709EE9709CB
:10088300EF97191919400FFFEC97FC09ED97FD0934
:10089300EE97FE191906D5F0BFECF709EDF709EE4F
:1008A300F709EFF7191919D0E0FCD0E0FDD0E0FE0D
:1008B300D0E0FF222518C582C0E0E51934FFC583C7
:1008C300C0E0E518C3958224F810AF088583198525
:1008D30082188008858319858218D2AFCEF0A3E5EC
:1008E30020F0A37808E608F0A3DEFAEFF0A3E58191
:1008F30024FAF8E608F0A3E608F0A3E608F0A30854
:1009030008E608F0A3E608F0A315811581D0E0FE00
:10091300D0E0F8158115811581E8C0E0EEC0E02232
:10092300C0D02518C582C0E0E51934FFC583C0E0F7
:10093300E518C3958224F310AF08858319858218BF
:100943008008858319858218D2AFC8F0A3E9F0A384
:10095300EAF0A3EBF0A37908E709F0A3D8FAECF0E7
:10096300A3EDF0A3EEF0A3EFF0A3D0E0F0A3D0E06B
:10097300F0A3D0E0F0A3E520F0A3E5F0F0A322E993
:10098300799EC608CAC608CBC608CCC6C3702079F0
:1009930096CACBCC7019798ECBCC70137986CC7078
:1009A3000EF9802ACA33CACB33CBCC33CC331930BC
:1009B300E7F2CCCBCA3350147004EA30E00DE4CA3A
:1009C3003ACACB3BCBCC3CCC500209C3E913C6CCCF
:1009D300182313C6CB18C6CA18C6F92285198385EE
:1009E3001882E0C0E0A3E0F9A3E0FAA3E0FBA37858
:1009F30008E0F608A3DFFAE0FCA3E0FDA3E0FEA312
:100A0300E0FFA3E0C0E0A3E0C0E0A3E0F5D0A3E0F3
:100A1300F520A3E0A3F5F010AF08858319858218AC
:100A23008008858319858218D2AFD082D083D0E025
:100A3300F8D0E0321210EFB90003020A76E4900412
:100A430001789B791A8002F0A3D8FCD9FA7A9B7BB0
:100A53001D900086782179028015E493A3AD82AEC0
:100A6300838A828B83F0A3AA82AB838D828E83D801
:100A7300E9D9E77582EA7583FD7404120DA07582C6
:100A83002375832E7400120DA075F0108E1A8F1B20
:100A930085821F85831E851882851983E0CEA3E096
:100AA300CF851F82851E83EBC9EAC8EDCBECCAC391
:100AB300E833C8E933C9EA33CAEB33CBC3EA9EF55B
:100AC3001DEB9FF51CB35004AB1CAA1DEC33CCEDFE
:100AD30033CDD5F0DAAE1AAF1B22D083D082ECC06F
:100AE300E0EDC0E0E493A3FCE493A3FDED4C600DC3
:100AF300120BB5EC24FFFCED34FFFD80EFE493A370
:100B0300FCE493A3FDED4C600D120C88EC24FFFC78
:100B1300ED34FFFD80EFD0E0FDD0E0FCE493A3C013
:100B2300E0E493C0E022851983851882E0A3FEE008
:100B3300A3F5207808E0A3F608DFFAE0A3FFE0A31B
:100B4300C0E0E0A3C0E0E0A3C0E0E0A3C0E0E0A316
:100B5300C0E010AF08858218858319800885821844
:100B6300858319D2AFD083D082020DA6D083D082E1
:100B7300E9C0E0E493A3C386F0C5F095F0F908E477
:100B830093A386F0C5F095F0700BE493A3C399404B
:100B930005E9048002A3E475F002A42582F582E549
:100BA300F03583F583D0E0F9E493A3C0E0E493C088
:100BB300E022C0E0C3E49396087401939618400FB3
:100BC300E49366700808740193661870007019A3A3
:100BD300A3C3E49396087401939618A3A3400DD07E
:100BE300E0D0E0D0E0020B19A3A3A3A3A3A3D0E01A
:100BF30022C082C08374FE120E8C851882851983ED
:100C0300EAF0A3EBF07C017D00AA18AB197900127E
:100C130012BD851882851983E0FAA3E0FB740212E2
:100C23000DF4D083D082227404800474028000CC3B
:100C3300C0E0EDC0E0E518C39CCCAD1950011D1018
:100C4300AF068C188D1980068C188D19D2AF120D32
:100C530022D0E0FDD0E0FC2274028000CCC0E0EDA5
:100C6300C0E0E518C39CCCAD1950011D10AF068C34
:100C7300188D1980068C188D19D2AF120D00D0E093
:100C8300FDD0E0FC22C0E0C0F088F0E49366700879
:100C93000874019366187000A8F0A3A3700BD0F03A
:100CA300D0E0D0E0D0E0020B19A3A3D0F0D0E02233
:100CB300D083D082CCC0E0E493A36006120D62140B
:100CC30070FAE493A36006120EA21470FAD0E0FC4B
:100CD300E493A3C0E0E493C0E022C0E074F21209FD
:100CE30023A2AFE433FED2AFC2C0E5D1A2E45003E6
:100CF3001212A5EEA2E092AF7F010209DFCAC0E0A3
:100D0300E493A3C582CCC582C583CDC583F0A3C5B7
:100D130082CCC582C583CDC583DAE5D0E0CA22CAB9
:100D2300C0E0E0A3C582CCC582C583CDC583F0A353
:100D3300C582CCC582C583CDC583DAE6D0E0CA229D
:100D43007009080808226016181818C6C333C608A5
:100D5300C633C608C633C608C633C6D5E0EA22C0C2
:100D6300E0E493A3D39C5010E493A3C39C400AD024
:100D7300E0D0E0D0E0020CD0A3A3A3D0E022C008CF
:100D8300C3E096F50808A3E096420808A3E096425C
:100D93000808A3E09645087001D3D00822C09FF548
:100DA3009FE473D09F22D083D082C09FE493C0E09E
:100DB300740193C0E0740293F59F227404800A7453
:100DC300038006740280027401C0E0F404120DD99A
:100DD300D0E01210B2222518F58210AF08F51840A2
:100DE3000C15198008F51840021519D2AF8519831F
:100DF3002200C0D0251810AF08F518500C05198033
:100E030008F51850020519D2AFD0D022C0E0C0D0E7
:100E1300E8C0E0A8A8D2AFC2C7E8A2E792AFD0E08B
:100E2300F8D0D0D0E032BB0102E722C082C0838970
:100E3300828A83BB0003E08002E493D083D08222C2
:100E43006016080808C6C313C618C613C618C61307
:100E5300C618C613C6D5E0EA22C3E0C696F608A3B1
:100E6300E0C696F608A3E0C696F608A3E0C696F693
:100E7300222518F8E43519F9222518FAE43519FB67
:100E8300222518FCE43519FD22251810AF08F518A2
:100E9300400C15198008F51840021519D2AF22C06D
:100EA300E0E493A36C7009D0E0D0E0D0E0020CD072
:100EB300A3A3D0E022C3E09608A3E09608A3E0969C
:100EC30008A3E096A2D265D03322E7667010080922
:100ED300E766700A0809E76670040809E76622E016
:100EE30066701008A3E066700A08A3E06670040841
:100EF300A3E06622C3E096F008A3E096F008A3E01F
:100F030096F008A3E096F022181818E60846087031
:100F130009E626087005E633F4220822191919E7B1
:100F23000947097009E727097005E733F422092205
:100F3300C3E4939608740193960874029396087415
:100F430003939622C3E697F60809E697F60809E69F
:100F530097F60809E697F622E026F608A3E036F6A8
:100F630008A3E036F608A3E036F622E647F60809BA
:100F7300E647F60809E647F60809E647F62270044D
:100F830022600D18C6C333C608C633C6D5E0F418AD
:100F930022E657F60809E657F60809E657F6080960
:100FA300E657F622E056F608A3E056F608A3E05605
:100FB300F608A3E056F622E056F008A3E056F00840
:100FC300A3E056F008A3E056F022E627F60809E668
:100FD30037F60809E637F60809E637F622E026F081
:100FE30008A3E036F008A3E036F008A3E036F022C9
:100FF300E493F608740193F608740293F6087403F5
:1010030093F622E4C396F608E496F608E496F60807
:10101300E496F622600D08C6A2E713C618C613C6E7
:10102300D5E0F322C6F4C608C6F4C608C6F4C6085B
:10103300C6F4C622C3E7960809E7960809E79608A7
:1010430009E79622C3E09608A3E09608A3E0960872
:10105300A3E0962275D00075813F751801751904B8
:1010630000020A37E6084608C3134608336002E65F
:1010730033F422E7094709C3134709336002E7330F
:10108300F422600C08C6C313C618C613C6D5E0F411
:1010930022E6F008A3E6F008A3E6F008A3E6F022B0
:1010A300E0F608A3E0F608A3E0F608A3E0F622CAF8
:1010B300C0E0E6F0A308DAFAD0E0FA22E0FAA3E00F
:1010C300FBA3E0FCA3E0FD22EAF0A3EBF0A3ECF02A
:1010D300A3EDF022E0F8A3E0F9A3E0FAA3E0FB22FA
:1010E300E8F0A3E9F0A3EAF0A3EBF022E5C754F894
:1010F3004401F5C77901222518F582E43519F583F2
:1011030022E72719471947194722E62618461846A2
:10111300184622C2AF75D69F02000022120DA96B9A
:101123007000120DA99E7000120DA9CC7000120D53
:10113300A9F07200120DA90C7300120DA9517300CE
:10114300120DA9D67300120DA9227400120DA9B2B3
:101153007400120DA98B7500120DA9DC7500120D18
:10116300A9417600120DA9B47600120DA9F87600F4
:10117300120DA9507700120DA9727700120DA90262
:101183007800120DA9937800120DA9DF7800120DD3
:10119300A90B7900120DA94C7900120DA9ED7A0063
:1011A300120DA9CF7B00120DA9AB7C00120DA9CDA6
:1011B300B506120DA911B806120DA92DB806120D08
:1011C300A978B806120DA99DB806120DA9D8FF0477
:1011D300120DA9E6FF04120DA92CBE06120DA94794
:1011E300BE06120DA979BE06120DA9A6BE06120DE2
:1011F300A9CBBE06120DA9F6BE06120DA921BF0684
:10120300120DA951BF06120DA92BCD06120DA93C33
:10121300CD06120DA9DACD06120DA9F4CD06120DD5
:10122300A9FD7F00120DA9F5D106120DA91ACF064B
:10123300120DA92ACF06120DA93FCF06120DA988B8
:10124300CF06120DA94DC906120DA9D1C906120D5B
:10125300A939CA06120DA9FA7F00120DA93AB206DE
:10126300120DA948B206120DA9C1B206120DA99614
:10127300B306120DA968B506120DA966D106120DA3
:10128300A9728D06120DA9DF8D06120DA9978E0680
:10129300120DA90D8F06120DA9219006120DA9B1E9
:1012A3009106120DA91A9206120DA9699206120D42
:1012B300A9729206120DA9819206120DA9979206A0
:1012C300120DA9AA9206120DA9B39206120DA9C670
:1012D3009206120DA9F29206120DA9899506120D16
:1012E300A9C99506120DA9059606120DA919960608
:1012F300120DA9329606120DA9239706120DA9D530
:101303009706120DA9E99706120DA917C306120D28
:10131300A93BC306120DA954C306120DA992C30615
:10132300120DA9C2C306120DA9EFC306120DA955CA
:10133300C406120DA958C406120DA962C406120DE3
:10134300A96FC406120DA985BB06120DA9A5BB067C
:10135300120DA9E4BB06120DA902BC06120DA91DAC
:10136300BC06120DA983BC06120DA98FBC06120D73
:10137300A9ECBC06120DA9FBBC06120DA91FBD06E4
:10138300120DA9E0BD06120DA9EDBD06120DA9FEB1
:10139300BD06120DA9A3CE06120DA9EBCE06120DA2
:1013A300A917CF06120DA9E2A106120DA93EA306A5
:1013B300120DA94CA306120DA95FA306120DA97461
:1013C300A306120DA989A306120DA99CA306120D4B
:1013D300A918A406120DA97DA406120DA913A5062A
:1013E300120DA9ECA506120DA9FCA506120DA90B59
:1013F300A606120DA90ACE06120DA92ECE06120DAF
:10140300A956CE06120DA97ECE06120DA9857D0022
:10141300120DA9AC7D00120DA9CA7D00120DA939C8
:101423007E00120DA9B2B806120DA9CBB806120D93
:10143300A9D7B806120DA9EBB806120DA909B9066A
:10144300120DA913B906120DA91DB906120DA93063
:10145300B906120DA9B6B906120DA92BBA06120DBB
:10146300A95ABA06120DA9A8BA06120DA9F7BA0607
:10147300120DA912BB06120DA91CBB06120DA92D34
:10148300BB06120DA970BB06120DA94AD006120D98
:10149300A982EB05120DA9AEEB05120DA9CBEB0545
:1014A300120DA9DEEB05120DA9F9EB05120DA953D7
:1014B300EC05120DA981EC05120DA991F005120D91
:1014C300A9EFF105120DA921F205120DA984F20568
:1014D300120DA9F0F305120DA918F405120DA92D8B
:1014E300F405120DA93DF405120DA97DF405120DA5
:1014F300A9BFF405120DA9CFF405120DA903C70660
:10150300120DA91DC706120DA945C706120DA95E26
:10151300C706120DA982C706120DA9A0C706120D90
:10152300A9B7C706120DA9E5C706120DA900C8067B
:10153300120DA9E5D006120DA975FC03120DA9859C
:10154300FC03120DA98AFD03120DA9BCFD03120DA4
:10155300A9ECFD03120DA90FFE03120DA926FE032C
:10156300120DA960FE03120DA9C5FE03120DA907F2
:10157300FF03120DA94EFF03120DA97BFF03120DEA
:10158300A9A6FF03120DA9BEC506120DA9DCC50647
:10159300120DA93EC606120DA9D8C606120DA94002
:1015A300CC06120DA933C806120DA97BC806120D6D
:1015B300A942FE01120DA9A3FF01120DA979C406C8
:1015C300120DA99EC506120DA91CE105120DA9A6AF
:1015D300E405120DA9A2E605120DA9D4E705120D23
:1015E300A9ADE805120DA93DEA05120DA909EB0500
:1015F300120DA95DEB05120DA9F1BF06120DA9127B
:10160300C006120DA94CC106120DA976C106120D12
:10161300A92BD106120DA93BD106120DA945D1065E
:10162300120DA9C5B905120DA9C8B905120DA9A4B2
:10163300C105120DA9F6C205120DA957C405120D55
:10164300A92EC505120DA907C605120DA9F0C605D9
:10165300120DA9E4C705120DA99CC805120DA9CC4A
:10166300C805120DA97CCA05120DA9B3C106120D36
:10167300A9D3C106120DA9E7C206120DA9EAC20633
:10168300120DA952CB06120DA988CB06120DA9A0E3
:10169300CB06120DA9E2CB06120DA9F2CB06120D51
:1016A300A936CC06120DA9008006120DA93A8006B0
:1016B300120DA9A38006120DA9C28006120DA9DB83
:1016C3008006120DA97D8106120DA9868106120DD1
:1016D300A9D78106120DA9008206120DA90D820653
:1016E300120DA97E8206120DA90C8306120DA95AAA
:1016F3008306120DA9908306120DA9F18306120D1C
:10170300A91A8406120DA9918406120DA9ED840667
:10171300120DA92A8506120DA9618506120DA9735A
:101723008506120DA9858506120DA9A48506120D3D
:10173300A9AD8506120DA9688606120DA9B4860601
:10174300120DA9F28606120DA991CF06120DA9FD5D
:101753009706120DA93D9906120DA9609906120D5F
:10176300A9719906120DA9909B06120DA9B09B06AB
:10177300120DA9C2FD02120DA9F8FD02120DA94016
:10178300FE02120DA999FF02120DA9ABE904120D75
:10179300A9DCEA04120DA918EB04120DA9D2EC047A
:1017A300120DA9FCEC04120DA975EF04120DA9B5D5
:1017B300EF04120DA949F104120DA9E8F104120D69
:1017C300A940F204120DA9D3F204120DA90DF304DA
:1017D300120DA94FF304120DA9C2F404120DA9426C
:1017E300F604120DA97FF804120DA9ADF804120D29
:1017F300A9D9F804120DA9E2F804120DA93FF904BE
:10180300120DA9CFF904120DA90BFD04120DA98D18
:10181300FD04120DA9DA7F00120DA9F07F00120D4D
:10182300A974AA06120DA98AAA06120DA92EAB063F
:10183300120DA96DAB06120DA98AAB06120DA9BB39
:10184300AB06120DA908AC06120DA93CAC06120D8D
:10185300A977AC06120DA96CAE06120DA952CA06E1
:10186300120DA9B1CA06120DA9EFCA06120DA930AD
:10187300CB06120DA9008004120DA90C8004120DD1
:10188300A96E8004120DA9788004120DA9058104A4
:10189300120DA9418104120DA9048204120DA91786
:1018A3008204120DA9858204120DA9ED8204120D82
:1018B300A97C8304120DA9FA8304120DA99F850440
:1018C300120DA9588704120DA99E8804120DA91B95
:1018D3008A04120DA9C28A04120DA9908F04120D55
:1018E300A9879004120DA9169104120DA93B910426
:1018F300120DA9D89104120DA9F59104120DA91581
:101903009204120DA9869204120DA9A39204120D3A
:10191300A9D19204120DA9699404120DA98A940401
:10192300120DA9309504120DA9789504120DA9EA98
:101933009504120DA96D9604120DA9D29604120DE9
:10194300A92F9704120DA9CE9704120DA94298044A
:10195300120DA97E9804120DA9EB9804120DA95536
:101963009A04120DA9D69B04120DA9859C04120D8D
:10197300A9E79E04120DA9499F04120DA9779F049C
:10198300120DA98FA104120DA91FA404120DA922DF
:10199300A504120DA91E8706120DA90B8806120DA8
:1019A300A9158A06120DA9358A06120DA9388A06C9
:1019B300120DA94B8A06120DA99B8A06120DA9C8FE
:1019C3008A06120DA91F8B06120DA9378B06120D5D
:1019D300A9728B06120DA9E38B06120DA93F8C0683
:1019E300120DA9DB8C06120DA9438D06120DA9CA8F
:1019F300D106120DA99FCB04120DA93ECC04120DE2
:101A0300A9BACC04120DA9A9CD04120DA9A7CE041D
:101A1300120DA926CF04120DA968D004120DA9092D
:101A2300D104120DA9C9D204120DA9D0D304120DE9
:101A3300A9EDD304120DA918D504120DA955D60486
:101A4300120DA9FFD604120DA969DA04120DA971AA
:101A5300DC04120DA9FADC04120DA954DD04120DE5
:101A6300A9A2DD04120DA91DDE04120DA99FDE0437
:101A7300120DA9DBDE04120DA97FE504120DA9DA0C
:101A8300E704120DA9B6E804120DA9349D05120D41
:101A9300A9669D05120DA9EA9D05120DA94D9F0585
:101AA300120DA93BA005120DA903A205120DA92829
:101AB300A205120DA97AA205120DA90CA305120DF8
:101AC300A958A305120DA96BA305120DA9C8A30557
:101AD300120DA937A405120DA904A505120DA972AB
:101AE300A505120DA9A9A505120DA9F2A505120DAB
:101AF300A99AA705120DA979A805120DA9C7A905C9
:101B0300120DA9AAAA05120DA936AB05120DA96FCC
:101B1300AB05120DA98EAB05120DA9D9AB05120D9C
:101B2300A9F9AB05120DA9B6AC05120DA9C3AD05F4
:101B3300120DA9D7AD05120DA92BAE05120DA9865D
:101B4300AE05120DA9D3AE05120DA9DBAF05120D1B
:101B5300A960B205120DA986B205120DA901B3053C
:101B6300120DA926B305120DA9ADB305120DA9894E
:101B7300B405120DA9C7B405120DA94BB505120D75
:101B8300A936B605120DA939B605120DA943B60536
:101B9300120DA94DB605120DA969B605120DA9E5D9
:101BA300B605120DA91EB705120DA93AB705120DF8
:101BB300A966B705120DA98DB705120DA9B1B70511
:101BC300120DA9ECB705120DA95FB805120DA99363
:101BD300B805120DA99DB805120DA9D9B805120DA6
:101BE300A9F3B805120DA91AB905120DA949B9052A
:101BF300120DA968B905120DA980B905120DA99294
:101C0300B905120DA995D006120DA9ADD006120D76
:101C1300A9F2FF01120DA9FFF405120DA94EF50556
:101C2300120DA90CF705120DA9C6F805120DA9048A
:101C3300F905120DA9F9F905120DA904FB05120DF9
:101C4300A926FB05120DA970FB05120DA9F1FB05D1
:101C5300120DA92AA904120DA94DA904120DA9ABAD
:101C6300AA04120DA9F4AA04120DA952AB04120D71
:101C7300A9B8AB04120DA9BBAB04120DA90CAC049B
:101C8300120DA986AC04120DA914AD04120DA917E7
:101C9300AD04120DA99FAD04120DA9E2AD04120DFE
:101CA300A952B204120DA9F0B304120DA92AB40467
:101CB300120DA970B404120DA9D0B704120DA955C1
:101CC300B804120DA9EDB904120DA9FCBA04120D42
:101CD300A929BC04120DA989BC04120DA965BD0470
:101CE300120DA9EFBD04120DA9F2BD04120DA9D75F
:101CF300BE04120DA91DC004120DA9D1C104120DF9
:101D0300A9A4C304120DA936C404120DA9CBC4049B
:101D1300120DA9BDC504120DA97DC704120DA99307
:101D2300C804120DA902CA04120DA947CA04120D50
:101D3300A9F2CA04120DA9008005120DA99B800502
:101D4300120DA90E8105120DA9298105120DA9CA2B
:101D53008105120DA9118205120DA9348305120DF7
:101D6300A9778305120DA9F38305120DA9468405EE
:101D7300120DA9A58405120DA9B28505120DA9CFCF
:101D83008805120DA9058A05120DA98E8A05120D63
:101D9300A9928C05120DA9368D05120DA9D58D05B5
:101DA300120DA9368E05120DA9A58E05120DA9FED9
:101DB3008F05120DA9E89005120DA9239105120DA7
:101DC300A9439105120DA9F49105120DA9319205AC
:101DD300120DA9BA9205120DA9359405120DA90089
:101DE3009605120DA95B9705120DA9D09805120D42
:101DF300A9DF9905120DA96C9A05120DA9D59A05AB
:101E0300120DA9E19B05120DA9CBD903120DA92E21
:101E1300DA03120DA976DA03120DA9B4DA03120D4F
:101E2300A90FDB03120DA96CDB03120DA9A7DB03BA
:101E3300120DA929DC03120DA983DC03120DA9F7E6
:101E4300DD03120DA975DE03120DA98DDF03120D3B
:101E5300A9B5DF03120DA904E103120DA915E103CE
:101E6300120DA92DE103120DA942E203120DA91FC0
:101E7300E303120DA91CE403120DA940E403120DA0
:101E8300A957E403120DA978E403120DA99AE403F8
:101E9300120DA9B9E403120DA98DE503120DA9E7EB
:101EA300E503120DA988E803120DA9E1E803120D59
:101EB300A900E903120DA9EBE903120DA988D605C0
:101EC300120DA95BEB03120DA9DAEB03120DA91195
:101ED300EC03120DA94BEC03120DA9BAEC03120D7E
:101EE300A97BED03120DA954EF03120DA95BF003B7
:101EF300120DA9CCF103120DA9CCF303120DA947BE
:101F0300F603120DA921F803120DA9E2F803120D2D
:101F1300A95AF903120DA971F903120DA96BFA035A
:101F2300120DA963FB03120DA9D2FB03120DA92104
:101F3300FC05120DA9D1FD05120DA9EF6F00120DBD
:101F4300A9F8FE05120DA96CFF05120DA979AE06BD
:101F5300120DA997AE06120DA9DBAE06120DA9014B
:101F6300AF06120DA928AF06120DA940AF06120D38
:101F7300A958AF06120DA9FAAF06120DA93CB00677
:101F8300120DA95EB106120DA967B106120DA97053
:101F9300B106120DA979B106120DA983B106120D6E
:101FA300A9F29C06120DA926A106120DA934A106B9
:101FB300120DA939A106120DA965FE04120DA99EE1
:101FC300D106120DA9EBCF06120DA9FBCF06120DF8
:101FD300A93CA606120DA9008003120DA9328003A5
:101FE300120DA99E8003120DA9398103120DA9D8E0
:101FF3008103120DA91D8203120DA93F8203120D45
:10200300A9588203120DA97E8203120DA9A082038F
:10201300120DA9DE8203120DA9228303120DA94416
:102023008303120DA9A68303120DA96D8403120D58
:10203300A9248503120DA9968503120DA9688603A9
:10204300120DA9B28603120DA9058703120DA96B00
:102053008703120DA9A58703120DA9F78703120D94
:10206300A9138803120DA93E8803120DA9458A03FB
:10207300120DA9998B03120DA9BB8B03120DA9EFA6
:102083008B03120DA9108C03120DA91F8C03120DC3
:10209300A92A8C03120DA9DA8C03120DA9438D030F
:1020A300120DA9F08D03120DA9288E03120DA9EEAE
:1020B3008E03120DA9FB8F03120DA9459003120D78
:1020C300A9D49003120DA9389103120DA97391039A
:1020D300120DA9DF9303120DA9339503120DA96CF9
:1020E3009803120DA9399903120DA9C79903120D6B
:1020F300A9F09903120DA9629A03120DA9F69A0386
:10210300120DA9549B03120DA9469C03120DA96835
:102113009C03120DA9C49D03120DA9DD9D03120D8D
:10212300A9F09D03120DA94D9E03120DA95C9E03F8
:10213300120DA9EF9E03120DA9FB9F03120DA9080F
:10214300A003120DA911A003120DA9E9A103120DF9
:10215300A90FA303120DA91FA303120DA921A40301
:10216300120DA998A403120DA9C7A403120DA9CD9A
:10217300A503120DA913A603120DA9DFA703120DC0
:10218300A9B7AB03120DA9C1AB03120DA9D5AB03BC
:10219300120DA9DFAB03120DA9E9AB03120DA9F3CD
:1021A300AB03120DA90CAC03120DA916AC03120D4F
:1021B300A98AAC03120DA995AC03120DA9BAAC03FD
:1021C300120DA9C5AC03120DA913AD03120DA91D60
:1021D300AD03120DA928AD03120DA94CAD03120DC9
:1021E300A970AD03120DA9CCAD03120DA912AE0354
:1021F300120DA92FAE03120DA9ACAE03120DA9E364
:10220300AE03120DA922AF03120DA96FAF03120D76
:10221300A9F1AF03120DA98AB003120DA95AB20393
:10222300120DA9B8B203120DA9D4B303120DA9FA62
:10223300B303120DA939B503120DA95FB803120D2B
:10224300A9A0BA03120DA97CBC03120DA912BD03E8
:10225300120DA939BF03120DA9E5BF03120DA91A67
:10226300C003120DA97FC003120DA989C003120D6B
:10227300A9B3C203120DA9DAC303120DA91AC40329
:10228300120DA9C0C403120DA951C603120DA9DA78
:10229300C703120DA9FAC703120DA953C803120DE0
:1022A300A955C903120DA99FC903120DA9EFC903AB
:1022B300120DA9D9CA03120DA94ECB03120DA96899
:1022C300CC03120DA9E3CC03120DA9E8CD03120D23
:1022D300A993D003120DA9B2D003120DA913D203EF
:1022E300120DA9D5D303120DA929D403120DA9E107
:1022F300D403120DA990D503120DA9E6D503120D2F
:10230300A99CD603120DA931D703120DA99DD7039A
:10231300120DA9D7D703120DA908D803120DA9646A
:10232300D903120DA9008002120DA9328002120DE9
:10233300A9698002120DA9528202120DA9358302E6
:10234300120DA98D8302120DA9C88402120DA914BE
:102353008502120DA93C8802120DA99E8B02120D53
:10236300A9EB8C02120DA9818D02120DA98D8D028C
:10237300120DA9BF8D02120DA9418F02120DA94F93
:102383009002120DA9799002120DA9D09002120D9C
:10239300A9299102120DA9959102120DA9AC9302DC
:1023A300120DA93B9502120DA9059602120DA94320
:1023B3009702120DA9739902120DA9439C02120DE3
:1023C300A9509C02120DA9D79C02120DA97F9D0250
:1023D300120DA9C29D02120DA90B9E02120DA95F37
:1023E3009E02120DA9C49E02120DA92C9F02120D6A
:1023F300A9499F02120DA9799F02120DA9AE9F024E
:10240300120DA97EA002120DA927A102120DA9ABDC
:10241300A302120DA9CBA402120DA9B4A502120D99
:10242300A936A602120DA958AA02120DA995AA024D
:10243300120DA9EDAA02120DA920AB02120DA9A13A
:10244300AB02120DA9EEAB02120DA979AC02120D6B
:10245300A9CBAC02120DA9A2AD02120DA95BAE026B
:10246300120DA9F6AE02120DA90FB202120DA92F79
:10247300B302120DA9E0B602120DA9FEB702120DA6
:10248300A901B802120DA930B802120DA936BA0279
:10249300120DA90FBB02120DA944BB02120DA94CC8
:1024A300BC02120DA902BD02120DA9A3BE02120D98
:1024B300A9C8BE02120DA907BF02120DA979BF0256
:1024C300120DA95DC002120DA92AC102120DA96045
:1024D300C302120DA9D1C302120DA911C402120D18
:1024E300A94AC402120DA9DEC402120DA927C6020D
:1024F300120DA9EAC902120DA9D9CA02120DA9C067
:10250300CB02120DA938CC02120DA9FACC02120D7E
:10251300A9F8CE02120DA910CF02120DA924CF02E1
:10252300120DA95CCF02120DA98ACF02120DA911B7
:10253300D102120DA91CD202120DA96ED202120DE4
:10254300A9D6D202120DA988D302120DA9B8D302BB
:10255300120DA99CD402120DA94DD502120DA93C4E
:10256300D702120DA971D702120DA9D9D702120DE4
:10257300A908D902120DA9BAD902120DA9EBD902E1
:10258300120DA903DA02120DA992DA02120DA9465D
:10259300DD02120DA91EDF02120DA93ADF02120D90
:1025A300A956DF02120DA924E002120DA908E402C4
:1025B300120DA9BC8301120DA9F48301120DA9D236
:1025C3008801120DA9188901120DA9658A01120D3E
:1025D300A9D08A01120DA9598C01120DA9698F0185
:1025E300120DA9849001120DA9969A01120DA92921
:1025F3009B01120DA97B9E01120DA9779F01120D5C
:10260300A9D29F01120DA91CA101120DA90AA201B1
:10261300120DA9A6A401120DA91AA601120DA99DB6
:10262300A601120DA9A0A601120DA915A701120D4D
:10263300A91FA701120DA92CA701120DA957A701C4
:10264300120DA907A801120DA900A901120DA9AB2A
:10265300A901120DA9C9A901120DA9E2A901120D1F
:10266300A90BAA01120DA92DAA01120DA982AC0171
:10267300120DA947AD01120DA98CAD01120DA90BC5
:10268300AE01120DA9B7AE01120DA9E9AE01120DEB
:10269300A93DAF01120DA978AF01120DA9BFAF017A
:1026A300120DA90FB001120DA914B001120DA968E2
:1026B300B001120DA994B001120DA97DB101120D43
:1026C300A9CEB101120DA92EB201120DA988B20132
:1026D300120DA923B301120DA962B601120DA9743B
:1026E300B701120DA9EEB801120DA9FEBB01120D1F
:1026F300A99CBC01120DA992BF01120DA951C001E1
:10270300120DA995C001120DA940C201120DA954C1
:10271300C201120DA95EC201120DA968C201120DF8
:10272300A974C201120DA999C201120DA972C401A3
:10273300120DA9C7C401120DA9D1C401120DA9DB41
:10274300C401120DA950C501120DA99FC501120D97
:10275300A9B0C601120DA9FDC601120DA90AC8012F
:10276300120DA94EC801120DA9F4C801120DA9E753
:10277300C901120DA9ADCA01120DA9D0CB01120DC9
:10278300A9EECC01120DA9D6CD01120DA9EECD01F2
:10279300120DA945CE01120DA94FCE01120DA95953
:1027A300CE01120DA964CE01120DA982CE01120D24
:1027B300A9CACE01120DA92CCF01120DA953CF0125
:1027C300120DA965CF01120DA900D001120DA93573
:1027D300D001120DA91CD101120DA961D101120D55
:1027E300A947D201120DA96ED201120DA9F1D2018E
:1027F300120DA962D301120DA9EBD401120DA91771
:10280300D601120DA9DAD601120DA9A2D701120D14
:10281300A92CD801120DA954D901120DA9F6D90179
:10282300120DA971DA01120DA92DDB01120DA97781
:10283300DB01120DA9D1DB01120DA9A9DC01120DD7
:10284300A9CCDC01120DA97FDD01120DA9A1DD01C7
:10285300120DA90ADE01120DA920E001120DA9181B
:10286300E101120DA9DCE101120DA90EE401120D23
:10287300A958E401120DA9A8E401120DA90CE50160
:10288300120DA96EE501120DA99CE501120DA9C057
:10289300E501120DA9F5E501120DA926E601120DB8
:1028A300A959E601120DA9A9E601120DA9FCE60139
:1028B300120DA921E801120DA9C1E901120DA91CEC
:1028C300EA01120DA945EA01120DA9D2EA01120D7E
:1028D300A940EB01120DA94EEB01120DA972EB01F8
:1028E300120DA9C7EB01120DA9E2EB01120DA99478
:1028F300EC01120DA9CCEC01120DA90FED01120D83
:10290300A972ED01120DA974EF01120DA99EEF0139
:10291300120DA995F001120DA99FF101120DA94FF6
:10292300F201120DA92DF301120DA965F301120D88
:10293300A986F301120DA9C8F301120DA92AF40106
:10294300120DA934F401120DA944F401120DA97F4B
:10295300F401120DA95FF801120DA94CFA01120D31
:10296300A932FC01120DA9C9FC01120DA96BFD01CD
:10297300120DA9E03500120DA98B3600120DA939ED
:102983003700120DA93F3800120DA95F3800120D50
:10299300A9883900120DA9433B00120DA9B63B00CB
:1029A300120DA95A3C00120DA9663D00120DA9D1C2
:1029B3003D00120DA90D3E00120DA9503E00120D4F
:1029C300A98B3E00120DA9CD3E00120DA9623F0056
:1029D300120DA9DE3F00120DA9A84000120DA98512
:1029E3004100120DA91D4200120DA9374200120D1C
:1029F300A9674200120DA9984200120DA95E430077
:102A0300120DA96E4300120DA9BD4300120DA9CAF0
:102A13004300120DA9D34300120DA9514400120D16
:102A2300A9AD4400120DA9F84400120DA9134500E5
:102A3300120DA93E4500120DA95B4500120DA967B1
:102A43004500120DA9FE4600120DA9174700120DED
:102A5300A99C4700120DA9AF4700120DA9CE47004C
:102A6300120DA9724800120DA9F34900120DA9A66F
:102A73004B00120DA93C4C00120DA93F4C00120D46
:102A8300A9AF4C00120DA9CD4C00120DA9644D0045
:102A9300120DA9AC4D00120DA9AF4D00120DA97571
:102AA3004E00120DA9E24E00120DA9084F00120D9F
:102AB300A9934F00120DA9B14F00120DA9F74F00B2
:102AC300120DA9AB5000120DA9F55000120DA92447
:102AD3005100120DA9815100120DA9B65100120D1A
:102AE300A9E25100120DA9F05100120DA93D5200A7
:102AF300120DA9AD5200120DA9F65200120DA942F2
:102B03005300120DA96E5300120DA9795300120D33
:102B1300A9975300120DA9825400120DA98C5400D9
:102B2300120DA9C75400120DA9D75400120DA92BD9
:102B33005500120DA93F5500120DA96E5600120D36
:102B4300A9835600120DA9115700120DA95657005B
:102B5300120DA9E25700120DA9ED5700120DA92F6E
:102B63005900120DA94A5900120DA9965900120DC8
:102B7300A9055A00120DA93E5A00120DA9585A0070
:102B8300120DA9B85A00120DA9575B00120DA9A284
:102B93005B00120DA9725E00120DA9245F00120DD5
:102BA300A9915F00120DA9D16100120DA9E961007D
:102BB300120DA9EC6100120DA9F86100120DA90C08
:102BC3006200120DA9146200120DA9476200120DD2
:102BD300A94A6300120DA9D76300120DA947640027
:102BE300120DA9C96400120DA98A6500120DA9A9C5
:102BF3006500120DA94A6600120DA9A76600120D01
:102C0300A9AA6600120DA91E6700120DA96D68001E
:102C1300120DA9736900120DA9FE6900120DA919FD
:102C23006B00120DA9E16B00120DA9126C00120DBD
:102C3300A9356C00120DA93E6C00120DA96D6C0034
:102C4300120DA9FD6C00120DA9B36D00120DA92878
:102C53006E00120DA9CF6E00120DA9446F00120D64
:102C6300A97B6F00120DA9B96F00120DA933FD02E4
:102C7300120DA9E8FC02120DA97CFC02120DA91980
:102C8300FC02120DA9EFFB02120DA9DBFB02120DD0
:102C9300A9D1FB02120DA964FB02120DA995F90239
:102CA300120DA953F902120DA9D6E005120DA9A21E
:102CB300E005120DA969F802120DA93DF802120DE3
:102CC300A94BE005120DA9EDDE05120DA9F4F702DB
:102CD300120DA931F702120DA900F402120DA9A2D7
:102CE300F102120DA972F102120DA922F102120DC5
:102CF300A9BCF002120DA97BF002120DA95BF00230
:102D0300120DA98DEF02120DA927EF02120DA9C60C
:102D1300EE02120DA966EE02120DA904ED02120DC8
:102D2300A998EC02120DA9ECEB02120DA9E7EB0234
:102D3300120DA9D0EB02120DA93FDE05120DA99BBE
:102D4300EB02120DA9A2DD05120DA998DD05120DE6
:102D5300A92DDD05120DA912DD05120DA962DC05F1
:102D6300120DA968DB05120DA935E802120DA9326F
:102D7300E802120DA919E802120DA90EE802120DBC
:102D8300A98EDA05120DA9DDE702120DA904E602E8
:102D9300120DA98BE502120DA922E502120DA9E479
:102DA300D705120DA995E402120DA990FE05120D87
:102DB300A951E402120DA92AE402120DA933D60582
:102DC300120DA9DED505120DA9B1D505120DA97EE7
:102DD300D505120DA956D505120DA9F7D405120D67
:102DE300A9D7D405120DA9A2D405120DA966D10540
:102DF300120DA93BCF05120DA92BCD05120DA9A8C4
:102E0300CC05120DA9F6D605120DA95CCC05120D41
:102E1300A910CC05120DA96ACB05120DA921EA034D
:102E230000000080FBE47387000100761E35000478
:102E3300003C1E25000200401E26000200421E2701
:102E4300000200441E280001004E1E290001004F0D
:102E53001E840004002B1B86000100A91D2A00010B
:102E630000501E2B000100511E2C000100561E2D88
:102E7300000800391B2E000100571E2F00010058C7
:102E83001E30000100591E310001005A1E3200019C
:102E930000411B33000100421B340001005B1E365E
:102EA300000100431B380001005C1E39000100557E
:102EB3001E83000200741E630001004E1B640001A8
:102EC30000521E65000100531E6D0001004F1B716F
:102ED300000800311B66000100731E4300010064FB
:102EE3001E44000200651E45000100671E460002E5
:102EF30000681E47000800461B480001006A1E4B7D
:102F03000001006B1E04000100771EA10001007A7E
:102F13001E37000100791E88000100781E3C000165
:102F230000441B3D0001005D1E490002006C1E674A
:102F3300000100501B4D0002006E1E4E0001007088
:102F43001E4F000200711E3E000100631E5100016E
:102F5300005F1E52000100601E53000100621E54F8
:102F6300000100451B00000000000000013636018F
:102F7300010001020100010301000104010606052D
:102F8300020000070100340801000F090401010DCC
:102F93000100FF0E08000017020000190100FF1ACC
:102FA3000100011B0100FE1C0100081D0200001F9F
:102FB30001000120010001210200002301000F2470
:102FC3000200002601000127010008280200FF2A51
:102FD3000100072B0102402C0100002D0100012EEE
:102FE3000100012F0100FF30010B1D310800003AE1
:102FF3000100083B01000F3C0100013D0100FF3EC1
:1030030004000042040000460400004A0400004E8D
:1030130004000052040000560400005A040000009B
:103023000003002001BA83000000002001BB8300DD
:103033000001002001BB83000002002001BB8300CC
:1030430000004042019B82000004004201D582003F
:10305300000500420187820000060042019B8200B6
:103063000007003001B983000010004203081E006E
:103073000011003003E719000012001003191E03AA
:103083000000002103E8190000FDFF2101B48303C0
:1030930000FDFF2101B483060000001001D71906CB
:1030A30000FDFF2181B483020400002905D8190221
:1030B3000401002901B083020402002901AE830246
:1030C30004FDFF2101B48301037103010301030123
:1030D300030103010322030203010310030003009E
:1030E300030003000300030003000342030003245F
:1030F300030603000300030403120325032303252C
:103103000323030403040300030003000344030035
:103113000300032303000365032100350381030038
:103123000305030003000300030003250323030334
:1031330002710230016002110270020102020202F6
:10314300028002100261023A0041006302730272BC
:10315300026202430200021302380000020002046A
:1031630002120200020002000200020402040237FB
:103173000037003C024402000239000002000265ED
:10318300020002350281020002050282028302006C
:10319300020101710101010101110101013101016B
:1031A3000101018001100161013B001400630173FF
:1031B300017201620143010001130106013D013562
:1031C30000040112010001000100010001040104D7
:1031D30001330133013C0144013201360000010097
:1031E30001650100013500810100010501820183B0
:1031F3000100010304710402046004110470040259
:1032030004020401040204100461040004140463AE
:1032130004730472046204430400041304060400E8
:103223000400040404120400040004000400045114
:1032330004640000040004000444040004000400C7
:1032430004000465040004350481046400050400DB
:103253000483040004030071003001600011007056
:1032630000310220035004800010006100000014AC
:103273000063007300720062004300000013000645
:103283000000000000040012000000000000000025
:103293000004000400370037003C02440000000033
:1032A30000000000006500000035008100000005FB
:1032B3000000008300000036000100060000000F3C
:1032C3000000000000000000000000000003FFFFFA
:1032D30000000403FFFF0000FFFF0FF4010005C41B
:1032E300040320000100000B0000000000000000A8
:1032F30003010F00000000000000000000000000B8
:1033030000000000000000000000000000000000BA
:10331300000000000053197D19591993185F198390
:10332300195F198F19651993185F1983196B19930D
:10333300180000000071199318000000000000003D
:10334300007719931800000000000000000000003F
:10335300000000000000000000000000000000006A
:10336300000000000000000000000000000000005A
:10337300001300F51C1F00FB1C1F80011D000079BA
:103383001D0100791D0200771C0280711C03007D62
:103393001C0400831C0480891C05008F1C06009BF1
:1033A3001C3000B91C3100B31C3200C51C3300CBE8
:1033B3001C3500D11C3400D71C3600DD1C1100E97C
:1033C3001C1400EF1C1500AD1CFFFF00000A0000D9
:1033D30000020000000400000008000000100000CC
:1033E30000200000004000000080000000000100F9
:1033F30000000200000004000000080000001000AC
:1034030000002000000040000001EF25061F2608F1
:1034130019260B3D2610D72202F525050D2607FB9D
:10342300250CD7250DE32564BB20FF000003000313
:10343300000400080010001F003E007B00F600ECB3
:1034430001D703AF075D0FB91E713D000007ECFD07
:10345300FDFDECDCDCCCBCACAC9C9C8C7C7C6C6C57
:103463005C5C5C4C4C3C3C2C2C1C1C03EAF5E5D509
:10347300D5C5B5A595958585757565655555454539
:103483003535252515150500160F00000B150B0204
:103493000002220F3300000E0F5A6967426565412F
:1034A3006C6C69616E6365303900000000000000D8
:1034B300000000000000000000D0D1D2D3D4D5D644
:1034C300D7D8D9DADBDCDDDEDF00034D4C465118FB
:1034D3001A250502303016181920231A1C1E300035
:1034E3003C40423A3F3F392F473000011916181626
:1034F3001618230300303017181921301B1D1F30F5
:103503000C0E020B040B0A0708000F020402010150
:103513000101090200BE040AE8030000E8030000F9
:10352300010003007F0000000E00000404080405EE
:10353300030A0C101508091E0C28FF0310020903C7
:103543003C0C050815001EE4F0A3F0A3F0A322121F
:10355300354AF022901C9B124B561229DF2212355A
:103563006522E0F508E4F509F50AF50B22E824FBEA
:10357300F582E934FFF58322E82411F582E439F575
:1035830083E022F58312358C22E0F508A3E0F509E8
:1035930022122C5B7404120DF47F08020B297401B0
:1035A300F09006C0E0640F227409120DF47F040248
:1035B3000B29EA2413FAE43FFB122B89E92279054C
:1035C300122B95740622A3A3E024F5C394132212AD
:1035D3002C679006E0126B147A147B0022C082C021
:1035E30083901C7A74D3F0A37429F0A374E5F0A339
:1035F3007429F0901C7E74BBF0A37429F0A374B5F6
:10360300F0A37429F0A374F1F0A37429F0A374F761
:10361300F0A37429F0A374EBF0A37429F0A374A3AB
:10362300F0A37429F0901C8A74C7F0A37429F0A343
:1036330074CDF0A37429F0A374C1F0A37429F0A38B
:1036430074FDF0A37429F0901C9B1255256009901A
:103653001C9B124B52121785901C98124E6C7408C7
:103663001261C1A3F0901D44F0901C9DF07C0BFDF2
:10367300F97A9E7B1C1216B37C0B7D0079007AA924
:103683007B1C1216B3024CC674F71208B774F712F8
:103693000E8CEAFEEBFF12371E7405124F8A740379
:1036A300F0123835124F6C2430FCE43FFD8C82124B
:1036B300371612372A6008123F4374FFF0A3F0EE67
:1036C300242EE43F1C1CFD8C82F583A3E0C0E08A1A
:1036D300828B83124C1ED0E012372A888289831290
:1036E30054592403F0EE123F4D1210FA7403F09074
:1036F30006D5120C2E7402120E84123B17120DF40F
:10370300E9F5087007EEFAEFFB122A6FA9087409AE
:10371300023F5CF583E08882898322EA1237232201
:103723001256683FF58322126441124F78E8F0A3E2
:10373300E9126718E02274F01208B7EAFEEBFF8C77
:103743000C8D0D890B123835F583124F80741012CE
:1037530010FAE0F508A3123718F0E824FFF582E920
:10376300123B29E508F0E824FEF582E9123B29E53E
:103773000BF09006DAE0C0E0E824FDF582E9123BA5
:1037830029D0E0F09006D9E0C0E0E824FCF582E916
:10379300123B29D0E0F074121210FA123588123558
:1037A30070E509F0E824FAF8E934FFF98882F58333
:1037B300E508F0EE2404FCE43FFD88088A828B834D
:1037C300E0F50E8C828D83E0250EC39508126441CB
:1037D300124DA6850C82850D83A3A3A3A3A3A3A344
:1037E300A3E064037009EE124F5AF0A3E4800312BE
:1037F3003B2E123B367409F075089E75091C750A39
:10380300007808120DC2125F0B120DF47508FF75D4
:1038130009FF7808120DC6AC0CAD0D123B17120D43
:10382300F4E9F5087007EEFAEFFB122A6FA9080214
:10383300359CEA2402FAE43FFB8A8222C082C083D9
:10384300901CBAE0C39408400474078001E08A82A4
:103853008B83F033333354F8F9024CC674F01208F7
:10386300B78A088B09890A8C0E8D0F750C00A2AFDD
:10387300E433F50BC2AF901CB48045123961503D5F
:1038830012397B64037036E50824F9F508E5093439
:10389300FFF5098E828F83A3A3E02405FCA3E03404
:1038A30000FDAA08AB0912186FE50824FFF508E527
:1038B3000934FFF5097410250CF50C150A123D5057
:1038C300126EC9E50A6004EE4F70B0E50BA2E092F8
:1038D300AFA2AFE433F50BC2AF901CB4803E1254D9
:1038E300328882F5831246A6850882850983F08A89
:1038F300828983123972A3A3E0C0E0E50824FFF5AF
:1039030082E509123B29D0E0F0E50824FEF508E53D
:103913000934FFF509050C150A123D50123BA4604A
:103923002112397B640270F1123961EE40B01250FA
:10393300A1A2E550E4850E82850F837401F0E50AA8
:1039430070D7E50BA2E092AF850882850983E50C69
:10395300F0E50824FFFAE50934FFFB02359C123930
:1039630067A2E622EE2411F582E43FF583E02212FA
:10397300397622125477A3228E828F83A3A3124C0B
:1039830022125B4E2274F01208B774F3120E8C7479
:10399300031210FAE9F074021210FAEAF08B0B85A5
:1039A3001882851983E4F004120E7C122985E9F844
:1039B3009006BFE0292437F508FA7B001216CB8A5C
:1039C3000C8B0DAE0CAF0DEA4F7003023B0EEA24D5
:1039D30002F50EE43FF50FA808EA28F8E43BF98561
:1039E3000E82850F831244A29006BFE0F9FAC3E466
:1039F3009AFA95E0FB850E82850F83E02AF50CA3E6
:103A0300E03BF50D9006BD123588750A0078081263
:103A13000DC2E9FC7D00AA0CAB0D124EDC120DF4B5
:103A2300AC18AD1974011210FAE0F9E50C24FFFA91
:103A3300E50D34FFFB12298B8A828B83E4F0E50BBF
:103A4300C454F0F9901D45E0C4333354C0F89006D4
:103A5300B9E0A2E0E43313134849440FC0E0EA2479
:103A6300FFF582EB123B29D0E0F0EA24FEF50CEBE4
:103A730034FFF50D74031210FAE0F874021210FA11
:103A8300E0C454F048850C82850D83F0A80C850EA4
:103A930082850F8312618E2AC3988E828F83A3A39C
:103AA300A3A3F0850E82850F83E8F0A3E50DF01242
:103AB3003B2E123B36E4F0740C1210FAE4F0750856
:103AC300A975091C7808120DC2125F0B120DF4853B
:103AD3001882851983E06009EE240E1250A344086E
:103AE300F0122B77E9F9E4F508F5097808120DC609
:103AF3007406120E84123B19120DF4E97006EEFAE5
:103B0300EFFB800BEEFAEFFB1216D17A007B007409
:103B13000D0235997903EEFAEFFB122B8F74022213
:103B2300EE24FFF582EF34FFF58322EE123723E410
:103B3300F0A322F0123B3B22EE125E2E3FF58322CE
:103B430074F21208B78A0C8B0DA2AFE433F50AC2E4
:103B5300AF750800750900901CB4802C123D6050AD
:103B630024850C82850D83A3A3125F1E8E828F830F
:103B7300A3A3124B52122B7DE9600A123D5BC2E6EE
:103B8300F08E088F09123D50123BA470CFE5084513
:103B9300096006123C3DD2E6F0E50AA2E092AF804E
:103BA3000DE0FEA3E0FFEE4F227402120DF47F0638
:103BB300020B2974F01208B78A0E8B0F8C0C8D0D33
:103BC300750A00A2AFE433F50BC2AF7E007F00900D
:103BD3001CB48010AE08AF09123C351250A1D2E7D5
:103BE300F0124B30124B446034123C3DA2E750F1CB
:103BF300850882850983A3A3120C2EAC0CAD0DAAF4
:103C03000EAB0F122B837402120DF4E960D3EE4F47
:103C130060C2123FD77006123C4FD2E4F0E50BA20C
:103C2300E092AFEE4F6006122A69750A01A90A02F3
:103C3300359C123967D2E4F0EE22E508125E48356E
:103C430009F583E022AA82AB8312186F8E828F83D9
:103C5300A3A3124C22E02274F21208B774FE120ED0
:103C63008C750C00750D00851882851983E4F0A30B
:103C7300F0A2AF33F50AC2AF901CB4126EC9802B09
:103C8300EE24FBF582EF34FF123586780C120DC655
:103C9300123D3E120DF4EEFCEFFDAA18AB191216FD
:103CA300EFAE08AF09901CBAE014F0EE4F602B1290
:103CB3003D60501DEE240BF8E43FF98882F583E064
:103CC30024FFF0A3E034FFF0888289831255256036
:103CD300AF8E0C8F0D123D5080A1E50AA2E092AF8A
:103CE300901CBAE0602C9006C0E0640F6006901D43
:103CF30044E0701E7A927B1C122C679083AA120CEC
:103D03002A7A927B1C124D4E120DF4800574F01228
:103D13004C2FAA18AB191216F58A088B09AE08AFF7
:103D230009EA4F6013122997123D5BA2E28E828F3C
:103D330083A350D974E980D7023BACEEFCEFFD7A44
:103D4300B47B1C1217017402228E0A8F0BEE24FB24
:103D5300F582EF34FFF58322EE12396822123967B8
:103D6300A2E72274F71208B7EAFEEBFF12299712B3
:103D73004C1B122E28E964019006DC700AE0240132
:103D8300F8A3E034008003124BA1F91252A3124DA1
:103D9300A6901CBAE0701F9006C0E0640F70177AFB
:103DA300927B1C122C679083AA120C2A7A927B1C9A
:103DB300124D4E120DF4A8A8C2AF901CBAE004F045
:103DC300E8A2E78004E508A2E092AF0251B174F7DC
:103DD3001208B7EAFEEBFFEA123E07F0122997EE4C
:103DE300FCEFFD7AB47B1C1216FBA8A8C2AF901C93
:103DF300BA1246F59006C0E0640F70057908122BDD
:103E03002F0251B1123968C2E42274F71208B77451
:103E1300EA120E8CEAFEEBFF9006B9E0602A8518E1
:103E2300828519837401F01210FAE4123EC2121053
:103E3300FA123C48C0E0740A1210FAD0E01261AEE4
:103E4300740B1210FA12540E7416023F5C74F712BC
:103E530008B7EAFEEBFF122979E9F974DC69601E01
:103E630074DD69601974E469601474F369600F7434
:103E7300DE69600A74DF69600574DB697007EEFA56
:103E8300EFFB122B350251B174F71208B774EB1222
:103E93000E8CEAFEEBFF8518828519837406123EA9
:103EA300C21210FAAA82AB8312186FEE2408FCE444
:103EB3003FFD740A1210FA12540E7415023F5CF09F
:103EC300EA2413FCE43FFD74022274F71208B7746A
:103ED300F7120E8CEAFEEBFFEA24301250A3605D6A
:103EE300EA123F4D1210FA7403F09006D5120C2E0D
:103EF300123F43120C2E9006E8E0F97404120E846C
:103F0300EEFAEFFB12297F7404120DF4E9F974DC65
:103F130069602374DD69601E74E469601974F36970
:103F2300601474DE69600F74DF69600A74E86960A5
:103F33000574DB697007EEFAEFFB122B35023711BC
:103F4300EE242EF582E43FF5832212631FAA18ABF9
:103F53001912186F7408227403120DF40251B1740C
:103F6300F21208B78A0C8B0D750A00750B007508E1
:103F7300E7A2AFE433F509C2AF901CB48003123D4E
:103F83004C123BA46025123D6050F3123FD770EEF4
:103F9300EE243212416EE06870E4780A120DC61204
:103FA3003D3E120DF4901CBAE014F0E509A2E09234
:103FB300AFEE4F6013EEFAEFFB12299779F0EEFAAA
:103FC300EFFB122B35750800A908AA0CAB0D122BB9
:103FD30035023BB1123B3BE064012274F41208B793
:103FE30074F7120E8CEAFEEBFF8A82F583A3E0647A
:103FF300F3700302407C8A828B83A3E064DF6079E1
:104003008A828B83A3E064E8606F8A828B83A3E058
:1040130064DB60651229D9E9F5087055EE240E12A8
:1040230050A3604D124086604874081210FA124083
:1040330095120C2E7508FF7509FF7808120DC68EB0
:10404300828F83A3A3A3A3A3A3A3A3E0F97404125E
:104053000E8412297F7404120DF4E9F50874F369D0
:10406300600F74DF69600A74E869600574DB697066
:104073000F8E828F83A3E508F0EEFAEFFB1229E59A
:104083000235ABEE240FFAE43FFB7909122A1BEA4F
:104093004B22740212591474FFF0A31240A222128D
:1040A3005462A3A32274F11208B7EAFEEBFF75086A
:1040B300008A82F583A3A3A3A3A3A31235C9400354
:1040C3007508E88A828B83A3A3A3A3A3A3A3A3A3B3
:1040D300A3E0C3941040057508E880138A828B839C
:1040E300A3A3A3A3A3A3A3A3A3A3E0640F600B9021
:1040F3001D21E0540870037508E8EA240B12416E91
:10410300A3A3A3A3A3A3A3A3E0C398500DEA240BE3
:104113001250A3640F60037508E89006D9E0F470A9
:1041230003A3E0F470037508EC7A237B0012177F76
:104133008B0BA90B901C9B12417D60278E828F8372
:10414300A3A3A982AA83890C8A0D750E00780C1289
:104153000DC27C237D00901C9BE0FA124EDC120DF5
:10416300F4800375081AA908025F06F582E43FF597
:1041730083E0F88A828B83A3A322EAF0A3EBF0EA1D
:10418300492274F51208B7EAFEEBFF8A82F583A38E
:10419300A3A3A3A3A3A3A3E09006C0124215E09098
:1041A30006DBF0EA240B1250A39006BB124215A3C0
:1041B300E0901D45F0F9121437901D45E0600BEEB9
:1041C3002404125095240612420B901D441235A16B
:1041D3006004740180027400901C9D126859120DD2
:1041E300C27C0B7D007A9E7B1C124EDC120DF4EE1A
:1041F3002418F508E43FF5097808120DC27C0B7DFD
:10420300007AA97B1C024EC9FAE43FFB79E1121440
:104213001F22126843A3A3A3A32274F71208B7EAC9
:10422300FEEBFF8A82F583A3E07003123557126316
:10423300CA0251B174F71208B7EAFEEBFF901C9B58
:104243001255256010901C9B124B52901C9BE4F05E
:10425300A3F01217858E828F837408124C36121FB7
:10426300A10251B174F61208B7901D44E06010909A
:104273001C9DE0700A124285EA4B6003122A6F020A
:1042830064C49006BBE0FB9006DBE0FA9006C0E056
:10429300F91229912274F41208B774E7120E8CEA0A
:1042A300FEEBFF750B018A82F583A3A3A3A3A3A34C
:1042B300A3E0A2E25069EA242BF582E43F125F1CDB
:1042C300EA2413FAE43FFB12299DE970529082E13C
:1042D300E064017005750B008045124357120DC24F
:1042E3007C0B7D007411120E7C124EDC120DF41245
:1042F3002B77E9FA740E120E74880889097808126C
:104303000DC67508307509007808120DC6EE1261E6
:1043130077120C2E12631179011235C3120DF48535
:1043230018828519837410F012631174021210FA43
:10433300AA82AB83121863EE242B126B0A740B123E
:1043430010FA124DA6740D1210FAE50B1265837460
:10435300190235ADEE240812686122C082C0839031
:104363001D45E06003122BE9024CC6C082C0839056
:104373001D3C747AF0A3741CF0A3747EF0A3741C28
:10438300F0A3748AF0A3741CF0901EB174F6F0A32A
:104393007431F0901D267473F0A37429F0901CBF40
:1043A30074A9F0A37429F0901CC174AFF0A374290D
:1043B300F0901D21E044020247CAC082C083EAFC98
:1043C300EBFD79030254D1C082C0837908026644AD
:1043D300C082C08374FE120E8C901CC77457F0A366
:1043E300742AF0901CC97451F0A3742AF080077AE0
:1043F300B47B1C12442F901CB412552570F1901CF1
:10440300B612552560097AB67B1C12442F80EF90B3
:104413001CB4E4F0A3F0901CBAF0A3F0A3F0901C3A
:10442300D57493F0A3742AF07402801C1216F585D8
:104433001882851983EAF0A3EB124443122B6522F9
:10444300F0AA18AB19227411120DF4024CC674F6BB
:104453001208B7E9FF74E229F582E43434F583E402
:1044630093FEFA7B001216CBEA4B6007EA2E124446
:104473009F80267A027B001216CBEA4B601774F8F2
:104483002FF582E43434F583E4938A828B83F0A39B
:10449300741A1248687A007B000264C4124D95E8CE
:1044A30012643EA3A3A3A3E4F022E9FC740629F853
:1044B300EAA2E0501EE875F00A84E5F0F96014748E
:1044C3000A28C399F8E9C394054004740A28F874C8
:1044D3000B28F8ECC394134004791480027906E89E
:1044E3002979002409F85001097A0A7B001206662B
:1044F300E8F9020DA6C082C083901D21E05402603A
:104503000A121FA7E96004790180027900024CC6F0
:10451300C082C083901D21E054026014901CBAE055
:10452300700A12552260091245385004790180023D
:104533007900024CC612357BA2E722C082C0839069
:1045430082DEE0F8901CBCE0C39850051216CB80C5
:10455300047A007B00024CC6C082C083122B6579AB
:1045630000024CC6C082C08374FE120E8C85188272
:10457300851983EAF0A3EB1246D1A3A3A3A3A3E077
:10458300600A14605724FE605A0246419006C0E058
:10459300640F6012122B3BE9700C124B4C901CC33E
:1045A300124C1E122E289006E8E0C0E08518828582
:1045B3001983125445D0E01246D17414125E62FC82
:1045C300A3E0FD7AB67B1C1216EFA8A8C2AF901C1D
:1045D300BC1246F57920122B2F02442B12499F74EB
:1045E3001580D912499FA3A3A3A3E0605112499F49
:1045F300123C53C0E0851882851983E02406F582B6
:10460300E43BF583D0E0125E622402F8A3E03400B9
:10461300F98882F583E02401FAA3E03400FB888261
:104623008983EAF0A3EB125E621249DF8518828563
:10463300198360131246A660051246B84048AA18AB
:10464300AB19122B6580921246A660F21246B8503F
:10465300211246C5FA851882851983A3E0C824066A
:1046630012499BF8740D12565A3435F583E4936A54
:1046730060148518828519831246A6640870BF12D8
:1046830046C5640870B81246C5141246D9240AC038
:10469300E0851882851983124C1ED0E01246D90496
:1046A3000245BF1246AA22124BA1C82406F582E492
:1046B30038F583E0228518828519831246AAC394AC
:1046C3000A22851882851983123976A3E0221246BD
:1046D300E3F5838882221246E3C824061249C922DD
:1046E300F0851882851983124BA122A8A8C2AF9026
:1046F3001CBBE004F0E8A2E792AF22C082C0839023
:104703001CCB12552560081249A6122E2880027967
:1047130000024CC674F71208B7EAFEEBFFEA123B3D
:104723003C7401124D54F8A3E0F912371E124DA642
:10473300EA24351250A3C0E0EA2413F582E43FF5DE
:1047430083D0E0F0EA24361250A3C0E0EA2414F543
:1047530082E43FF583D0E0F0EA24381250A3C0E0AE
:10476300EA2418F582E43FF583D0E0F0EA242FF53C
:1047730082E43FF583120C2E12631EEA2431125099
:10478300A3F9123B1D120DF4E9F5087007EEFAEFD9
:10479300FB122A6FA9080251B1C082C083122B3BBE
:1047A300E96004792080027901024CC6C082C0838B
:1047B300EA24111247C0D2E0800DEA240DF582E409
:1047C3003BF583E022F0A3F0024CC6C082C0831203
:1047D30047BD64017011124862400C8A828B83A327
:1047E300E0F9122B358066124853A2E650128A82F2
:1047F3008B83A3E0F9901CC5124C1E122E28804D0A
:104803001247BD6401700D12486250088A828B837F
:10481300743080368A828B83A3E0641B8A828B8305
:10482300700474228024A3E0700D1247BDF874D77E
:1048330012565A3434800B1247BDF874F812565A84
:104843003434F583E4938A828B83124868024CC61E
:1048530012485722EA2410F582E43BF583E0221242
:104863004857A2E322F0901D1CE0F91216D72274D8
:10487300F71208B7E9FE1255227003024998EE6059
:1048830014741B6E701AE8125E2E39F583E064050A
:104893007003024970901CBE1249A6A3E402497733
:1048A30074E96E7068E82412F582E439F583E070E8
:1048B3000B121FADE960051249E9606179EE12132D
:1048C300A1901CBD1249C0901CBD603A1249EC90E6
:1048D3001CBD700B1249C014F012155702499812EF
:1048E30049DEC2E7124B87240D12499B640370090A
:1048F3001249B9124B3DD2E2F079ED1213A11249DC
:10490300D1122E2880781249AC74E9806774E16E65
:10491300703E121FADE960551249E970509006E2EE
:10492300E0C0E01249B92412F582E438F583D0E0FF
:10493300F09006D1E0C0E0901CBD1249B51249B514
:10494300D0E0F09006D1E004F0790112153F8045E4
:10495300741C6E7018901CBD124B52901CCD124CDF
:104963001E122E28901CBDE4F0A3F08028901CBDDD
:104973001249ACEEF0901CBD124B52122A5D124B41
:1049830068E054806003126633901CBDE4F0A3F02A
:104993007910122B2F0251B11249C9228518828531
:1049A3001983A3E0F5838882221249B022124C2690
:1049B300A32212547322901CBD1254542212545435
:1049C30024121249C922F582E438F583E022901CAF
:1049D300BD124B56901CC1124C2222E0F8A3E0C832
:1049E30024101249C922901CBD124B6FE0540422BB
:1049F30074F41208B7750A00750B00A2AFE433FE16
:104A0300C2AF1255226003024AE6124C1B122E2833
:104A1300E94410F8901CB4800985080A85090B1233
:104A23004B30124B447003024AE6123C3D58687007
:104A3300E8780A120DC6AC08AD09123D42120DF416
:104A4300901CBDE508F0A3E509124B87124B3DA26C
:104A5300E75003024AED901CBBE014F0EEA2E09293
:104A6300AF901CBDE0240EF8A3E03400F9E8FEE9A2
:104A7300FF8882F583124B52901CBD1246CBF9126C
:104A83002A21E9901CB81261C18E828F83E0548081
:104A930060181249B9241312499BF912145B124985
:104AA300B9241412499BF912144F124B68A3E05412
:104AB30001605F901CB81255256045124B7E604023
:104AC300124B7EF87900901CB8124B5212066EE816
:104AD300C0E0124B5CD0E0124B8CC39413401174B2
:104AE30002800FEEA2E092AF8037901CBA024A5CBC
:104AF3007400C0E0901CBEE0C8124B27D0E0800DCC
:104B0300124B5C7401124B87124B277401F079032B
:104B1300800C901CBD1249DEA2E1B3E433F91215F7
:104B23003F0235B0241AF582E438F58322E50824E0
:104B3300FBF582E50934FFF58322125E481249CC66
:104B43002212358CE50845092285188285198312BE
:104B53004B5622E0FAA3E0FB221254512419F582AA
:104B6300E438F58322901CBD124B6F22124BA1C86F
:104B7300124B772212566838F583221254512418A7
:104B83001249C922124B99C822124B99F583888284
:104B9300A3A3A3A3E022F0901CBD124BA122E0F833
:104BA300A3E02274F71208B7EAFEEBFF122B5F12A1
:104BB30050A0A2E3400A123FD770059082DC800325
:104BC3009082DDE0F9EEFCEFFD7AB47B1C1217074F
:104BD300E96038EEFAEFFB901CC7124C1E122E2828
:104BE300EE240E1250A3540470121246EEEE123746
:104BF3001FA3E05401701E122A698019EEFAEFFB1D
:104C0300901CBF124C1E122E28800A8E828F83A303
:104C130074F1124C2F0251B1901CC9124C22221272
:104C23004C2622E0F8A3E0F583888222124C361248
:104C33002A5D22F0EEFAEFFB22024CBF74F7120852
:104C4300B7EAFEEBFF7900901D21E05402700CEAF5
:104C530024331250A35404600279E8901D21E054D8
:104C630060700CEA24331250A35402600279E88A7C
:104C7300828B83A3A3A3A3E0F89082E2E0C39850BE
:104C83000279E8EA24311250A3700CEA242E125060
:104C9300A3700479F5800BE97005122A4BE9F9E951
:104CA3006007EEFAEFFB122B350251B1C082C083CD
:104CB3008A828B83740DF0121FA18007C082C08388
:104CC300122A69D083D082020DA674F41208B7EABF
:104CD300FEEBFF8A82F583E4F0A3124D5454049053
:104CE30082DC7012E0F8901CBBE0C398401279F1AB
:104CF300122B350235B0E0F8901CBAE0C39850EEA1
:104D0300124D5AA3E054016037EA24371250A3C36B
:104D130094054033EA24331250A3540570297ACF03
:104D23007B1C122C67EE2437F582E43FF5831235A2
:104D3300617808120DBE7ACF7B1C124D4E120DF412
:104D4300EEFA12574B80AC79E880A5122C5B740401
:104D530022F0124D5AE022EA2433F582E43FF58330
:104D63002274F61208B7E9FE2451FAE43400FB1268
:104D730016CBEA4B6015EE8A828B83A3A3A3A3F021
:104D8300EA2451124D95124DA680047A007B00024D
:104D930064C4F8E43BF98A828B83A3A322126B14C5
:104DA300901D99E8F0A3E9F022024CBFC082C083B2
:104DB300901CD874BDF0A3742AF0A374EDF0A3740F
:104DC3002AF0A374C3F0A3742AF0A374C9F0A374E4
:104DD3002AF0A374E7F0A3742AF0A374DBF0A3749E
:104DE3002AF0A374D5F0A3742AF0A374F3F0A37488
:104DF3002AF0A374F9F0A3742AF0A374FFF0A37448
:104E03002AF0A3740BF0A3742BF0A374CFF0A37454
:104E13002AF0A374B7F0A3742AF0A374B1F0A374B7
:104E23002AF0901CF474E1F0A3742AF0A37405F043
:104E3300A3742BF0A3741FF0A3742CF0A37411F0CC
:104E4300A3742BF0A37417F0A3742BF0901D18E434
:104E5300F0901D1BF0901D04124E6C7402F0901D17
:104E63000D124E6C74010247CA742FF0A3742BF019
:104E7300A32274F51208B774F1120E8C851882857B
:104E830019837402F074011210FAE9F060047AFFD6
:104E93007BFF74021210FA12590975081075091D67
:104EA300750A007808120DC27C0B7D00740712107E
:104EB300FAAA82AB83124EDC120DF4AA18AB1912B4
:104EC3001FA1740F8003124EDC120DF47F03020B3B
:104ED300297C0B7D007A107B1D1216A774032274A4
:104EE300F71208B774FD120E8C8518828519837426
:104EF3000AF074011210FAE9F074021210FAEA12BD
:104F03006583023F5A74F61208B774F7120E8CEADF
:104F1300FEEBFFEA124F5A124F8A7402F0EA24287A
:104F2300FCE43FFDAA18AB19121863EE2431124FAB
:104F3300602433125F82120DC67402120E847983C9
:104F43001A1A123B1B120DF4E9F5087007EEFAEF7B
:104F5300FB122A6F0264BD123723740122F582E427
:104F63003FF58312358C12542AF583124F78E8F0FB
:104F7300A3E9F0EE22124F808A828B8322E024FF82
:104F8300F8A3E034FFF922F0A3E4F0EA123B3C2259
:104F930074F01208B71269F21210A37808790C1290
:104FA30007567808120DBE7A077B1D02359474F4F8
:104FB3001208B774C6120E8C9006C0E0640F600D21
:104FC300851882851983742E12592880227AFE7BD4
:104FD3001C1235D212066E88088909E4F50AF50B0E
:104FE3007808120DBE7AFE7B1C124D4E120DF4741E
:104FF3003A0235AD74F51208B7EAFEEBFF8A82F583
:1050030083A3E0F87078EA24301250A364026007A7
:10501300E06403600278E8EA2426F582E43FF5833E
:105023001235CB400478E88058E87052EA242612FF
:10503300420BEE243112509524301250A3640270B7
:105043000EEE2428126B0A9006CF124DA6801790FD
:1050530006CF74FEF0A304F0EE2428FCE43FFD7AAF
:10506300C67B0612186FEE241B12435A120DC2128E
:105073004ED4120DF4EEFAEFFB122AABE9F8E86016
:105083000EE88E828F83A312632674171263D002F5
:105093004ECFFAE43FFB795012141FEE22EE241098
:1050A300F582E43FF583E02274F61208B774F71231
:1050B3000E8C901D1BE070377401F0F9121509AACC
:1050C30018AB19122B7175081075091D7808120D8C
:1050D300C67508017509007808120DC69006D51229
:1050E3000C2E7406120E847A031235C1120DF402CB
:1050F30064BF74F71208B71252D17004A374EBF0B3
:10510300901D1BE0A2E25003C2E2F0E0A2E15005D1
:105113001252E280098E828F83742A1263D0025165
:10512300B174F41208B774FE120E8C1251D71254D4
:105133001DEC85188285198312546CE0F50B7015EC
:10514300AA18AB19795312141FEE2413FAE43FFB88
:10515300794A12141F124357120DC2124ED4120D64
:10516300F4124B4CA90B122A9F901D1BE0A2E15095
:10517300031252E9901D1BE4F074020235AD74F77B
:105183001208B7EAFEEBFF8A82F583A374EBF09073
:105193001D1BE0A2E150077A0079EB122AA5EEFA73
:1051A300EFFB122ADB8007EEFAEFFB122BDD7F0108
:1051B300020B2974F71208B71251D7901D18E4F0A7
:1051C300901D1BF07AFF7BFF8E828F83A3E0F91281
:1051D3002A9F80DA1253227A077B1D122C672274CE
:1051E300F71208B7EAFEEBFF122AD580BA74F7125A
:1051F30008B712535FA3A3A3E06004740080027492
:10520300EB1252305003C2E2F0E0A2E15005125318
:10521300338011A2E0500D8E828F83742AF0A37421
:10522300EB1263D0EEFAEFFB122A8180818E828F1C
:1052330083A3F0901D1BE0A2E22274F61208B7EAE2
:10524300FEEBFF901D1BE0D2E1F079011215098EF0
:10525300828F83A3E07038122B77E9FAEE240DF5E1
:1052630008E43FF5097808120DC6750801750900B1
:105273007808120DC61252A3120C2EEE2402FCE47F
:105283003FFD1235C1120DF4E98E828F83A3F08E98
:10529300828F83A3E060067A00F9122AA50264C410
:1052A300EE240BF582E43FF5832274F71208B7125C
:1052B30052D17004A374EBF0901D1BE0A2E25003E3
:1052C300C2E2F0E0A2E150031252E20251B1EAFE5F
:1052D300EBFF790112150F8E828F83E0642022C2C7
:1052E300E1F01252E9227A008E828F83A3E0F91251
:1052F3002AA52274F71208B71253228E828F83A332
:10530300A3A3A3E060047400800274EB1252305034
:1053130003C2E2F0E0A2E15003125333025227EA40
:10532300FEEBFF790112150F7AFE7B1C122C67220C
:10533300C2E1126854E0A2E4E433FA1252EB22749D
:10534300F71208B712535F74EB1252355003C2E2DF
:10535300F0E0A2E150031252E20251B1EAFEEBFF88
:10536300790112150F8E828F83A32274F71208B767
:105373001253840251AA74F71208B71253840251CC
:10538300B1EAFEEBFF7AFE7B1C122C67EEFAEFFB11
:10539300122AFF2274F71208B774EF120E8CEAFE7A
:1053A300EBFFEA1263127AC67B0612185DE96056B8
:1053B3008518828519837409F074011210FA74EF49
:1053C300F012541D74021210FAEC12546CA3A3E0F1
:1053D300C0E074041210FAD0E01254596408701536
:1053E3008E828F83A3A3125445E0C0E0740512108C
:1053F300FAD0E0800674051210FAE41261AE740666
:105403001210FA12540E7411023F5CAA82AB83127B
:105413002BA7AA18AB19121FA12212542AF5831223
:10542300543CFCA3E0F922EE125432FB888222247E
:1054330002F8E43FF9E8FAE922124BA18882F583E6
:10544300E0221254542407F582E438F58322901C99
:10545300BD124BA1C82212545D22125462E022F005
:105463008E828F83A3A3A3A32212643E12547322BA
:1054730012547722E0F8A3E0F5838882A3A322C025
:1054830082C083122BE9024CC6C082C083901D38B0
:1054930074D8F0A3741CF0A374F4F0A3741CF090FC
:1054A3001EAB7494F0A37431F0A37432F0A374317F
:1054B300F0901D247499F0A3742AF0901D21E04408
:1054C300010247CAC082C083EAFCEBFD7902122BBA
:1054D3004D024CC674F61208B774FE120E8C901D62
:1054E3001D12552560077A1D7B1D122B65901D2308
:1054F300E4F0900D8412552560208007AA18AB199B
:10550300122B65901D1CE0F91216E38B09A909857E
:10551300188285198312417D70E274020264C1907E
:105523001CBD126B14E8492274F71208B7E9FA7B21
:1055330000901D1CE0F912170D0251B174F7120807
:10554300B774F0120E8CEAFCEBFDE9FE8A828B83C2
:10555300E0F8740312565A3435F583E493C0E074CB
:10556300011210FAD0E0F0640B700DE98A828B838C
:10557300A3F0122BCB025655E07003025655640C70
:105583006003025646741A6E700B74041210FAE428
:10559300F0A302564574041210FA125909EA243290
:1055A300125E12C0E074031210FAD0E012683F12C8
:1055B30010D774061210FA1210E38C828D83A3A302
:1055C300A3A3A3A3A3A3A3126B10740A1210FAE854
:1055D300F0A3E912565FE05410600985188285191B
:1055E30083E48013EC2412125E12F89006E2E0C307
:1055F30098851882851983F0E0C0E0740C1210FAC4
:10560300D0E0F0EC2415125E12C0E0740D1210FA13
:10561300D0E0F0EC2416125E12C0E0740E1210FA01
:10562300D0E0F0EC2417125E12C0E0740F1210FAEF
:10563300D0E012565FA3E05401600874011210FA1F
:105643007411F074021210FAEEF07401120E7C124F
:105653001FA17410023F5C28F582E422F0EC12567D
:10566300683DF58322240EF582E422C082C0839034
:105673001D23E064037004790180027900024CC6A3
:1056830074F71208B7901D23E01256FE74A928F58B
:1056930082741E39F583125B90C2E7F0125705A39B
:1056A300E493FE25E0FCE433FD74A92CF582741E1B
:1056B3003D125F1CEC4D6005EE901D23F08A828B3A
:1056C30083E025E0FCE433FDE82CF582E93DF58336
:1056D300E493FCC4540F25E0F8743212565A341D77
:1056E300F5831255257005122BB9800CEC540F125B
:1056F3005705124C1E122E280251B125E0F8E4334F
:10570300F92225E0FCE82CF582E439F5832274F2D2
:105713001208B774FE120E8C890B8A088B09125774
:10572300B01257A1601A1261BBF50A7808120DC2B4
:105733001257BD2402125F12120DF412574980034F
:105743001257CF023BACAA0CEFFB901D1CE0F912E1
:1057530016D72274F01208B774FE120E8C890B8AC6
:105763000E8B0F1257B0F5081257A160271261BBB9
:10577300A808EA2812449F850E08850F09F50A78C0
:1057830008120DC21257BD125F10120DF4125749C1
:10579300790080051257CF791A7402023599FA7B82
:1057A300001216CB8A0C8B0DAF0DEA4F2274CC2955
:1057B300F582E43434F583E49322A80B74ED125696
:1057C3005A3434F583E493FC7D00EA2285188285FC
:1057D3001983E50BF0791AAA18AB19122B3522C0DD
:1057E30082C083E9901D1C0247CA74F61208B7747D
:1057F300FE120E8CEAFEEBFFEA542070308039A8CB
:10580300A8C2AF901CBCE0141246F78A828B8312A5
:1058130058F6901D1F125909122B418518828519BC
:1058230083E0641560077A1F7B1D122B657AB67BB4
:105833001C1216F5EA4B70C7EF5480700C8016905B
:105843001D1FEAF0A3EB12591C901D1CE0F9121660
:10585300E3EA4B70EAEE5410600B851882851983D6
:10586300742D125928EEA2E0500B851882851983F6
:105873007424125928EE5402600B8518828519830B
:105883007425125928EE5404600B851882851983F8
:105893007426125928EE5408600B851882851983E3
:1058A3007428125928EE5440600D74011210FA1234
:1058B300590F742C125928EE5480600D7401121084
:1058C300FA12590F742F125928901D1D1255256075
:1058D3001BA8A8C2AF901D1D124B52901D1DE4F0D2
:1058E300A31246F7A3EAF0A3E912591C7A007B003E
:1058F30002551D1258FA22E0851882851983F02279
:10590300A3A3A3A3A3A3EAF0A3EBF022E4125914E5
:1059130022F085188285198322F0122B417A1F7B8E
:105923001D122B6522124443122B4122C082C083D5
:10593300901D1F12657E687002EB697007901D1F32
:10594300E4F0A3F0024CC674F71208B7EAFEEBFFCB
:10595300EA4F7003121221A2AFE433F508C2AF8EEF
:10596300828F831255256028E824FBFAE934FFFB74
:10597300901D1F125F1EE86C7002E96D7007901D89
:105983001FE4F0A3F08E828F83E4F0A3F012178557
:10599300023DC8C082C083901D4674ADF0A3742B32
:1059A300F0A374BFF0A3742BF0A374C5F0A3742BFE
:1059B300F0A3747BF0A3742AF0A374CBF0A3742B2D
:1059C300F0A37475F0A3742AF0A37481F0A3742A6E
:1059D300F0901D5474FBF0A3742BF0A374D1F0A3C7
:1059E300742BF0A374D7F0A3742BF0A374E3F0A388
:1059F300742BF0A374DDF0A3742BF0901D45E40227
:105A030047CAC082C0839006CFE064FE7003A3E060
:105A1300F470097CC67D06121863801C8A828B830E
:105A2300A3A3A3A3A3A3A3A37402F09006CF126B13
:105A3300108A828B83124DA6024CC6C082C083900B
:105A430006D9C3E094FEA3E094FF400479038002E7
:105A53007902024CC6C082C083125B998C828D830B
:105A6300125B4E687039740268701C8A828B8312D1
:105A73005AA7E06870298A828B83A3125AA7A3E0EE
:105A830068701C7901801A7403687013EC2405FC98
:105A930050010DEA2405FA50010B121869800279AE
:105AA30000024CC6A3A3A3A3A3E0F88C828D83A317
:105AB300A3A3A3A32274F61208B77E00740A1210DC
:105AC300FAE0125B42FF8A828B83A3A3A3A3A3A35F
:105AD300A3A3E06F706474026F704E8A828B83C0DD
:105AE30082C08388828983A3A3A3A3A3E0F5088844
:105AF300828983A3A3A3A3A3A3E0FBAA08D083D093
:105B030082E06A7003A3E06B703088828983A3A369
:105B1300A3E0FA88828983A3A3A3A3E0F9EA6C70C4
:105B230002E96D70157E01801174036F700CE82417
:105B330005FCE439FD121869E9FEEEF90264C4F8C4
