:020000040000FA
:06000000020FE3020607F7
:03002B00020DB50E
:03004300020C6943
:0300530002053C67
:1000830002059B0100F0FF0700080000FFFF0000CE
:10009300070400000003000147726F757000FF043E
:1000A30000100020FD0002000061150000000000A8
:1000B30000C1150000000000003D15000000000015
:1000C30000000000004915000000000000000000CF
:1000D30000000006FFFF1E0145190000691900001A
:1000E300000000000000000000000000000000000D
:1000F300102020202020202020202020202020200D
:10010300200101040100010005E981010B830104C1
:100113000000241A000000E8030000FFFF9E1A01FC
:1001230088130000E803000064006400B801A0BB6A
:100133000D00A0BB0D0002020207040101051E020F
:10014300051E020A0A0101010809080103B80B028E
:10015300803E0102FEFFE8030A050001FFFF010ADA
:100163001401E00105030101FF0F10FEFF0300036B
:100173000003000300030003000300030003000562
:10018300000A00140028004F009E000000E8310020
:100193000000005A3000000000FF000000FF0012C2
:1001A3000FF3601D1210027005191919801A120E2F
:1001B30097701F120EABC37003E66733191919400A
:1001C300071818182208080874FFF618F618F61806
:1001D300F622120EAB6017121090702192F01210DB
:1001E300997019501720F014080808090909E7F64F
:1001F3001819E7F61819E7F61819E7F622121099F5
:1002030060E6E869701F0808E62480F608E436F61D
:1002130018547FB47F0CE654806007F6E418F61890
:10022300F622181822E9C6CC08C6CD08C6CE08C6E1
:10023300CFC0E0E8C0E0EAC0E0EBC0E009E9F809BC
:10024300E7FA09E7FBE6F918E6F8C3EC98ED99EE4F
:100253009AEBC2E7F5F0EFC2E795F0500E600CEBB6
:10026300CFFBEACEFAE9CDF9E8CCF8EAA2E7D2E788
:10027300FAEB33FB13F5F0EEA2E7D2E7FEEF33FF21
:10028300C5F013A2E730E601B313C5F0C3C0E0C065
:10029300F07F00C39BFB605E9418600F401D1460E9
:1002A3001AD0E023F9D0E0F80203838AF0E948602A
:1002B30003D2F0E4AFF0FAF9F8803BEB30E40D89B8
:1002C300F0EA6003D2F0E4AFF0F9CAF8EB30E30DE3
:1002D30088F0EF6002D2F0AFF0E4CAC9F8EB54073C
:1002E3006014FBC3EA13FAE913F9E813F8EF1350A8
:1002F30002D2E0FFDBEDD0E0C0E030E739C3E49F9A
:10030300FFF5F0EC98FC42F0ED99FD42F0EE9AFE19
:1003130042F0D0E0F9D0E0F8E5F0607AE923F9EEB5
:1003230020E742D8028067C3EF33FFEC33FCED33A1
:10033300FDEE33FE80EAEC28FCED39FDEE3AFED00B
:10034300E023F9D0E0F84002801BC3EE13FEED1367
:10035300FDEC13FCEF135002D2E0FF08B800067F58
:100363007F74FF802EEF3350178CF020F002601063
:100373000CBC000C0DBD00080EBE000408E860DFD5
:10038300E933E813FFEE2313FE4F4D4C8008E95485
:1003930080FFE4FEFDFCEE33EF33F47004FCFD7EDE
:1003A30080D0E0FBD0E0FAD0E0F8D0E0CFC618CEA2
:1003B300C618CDC618CCC6F92200120FF3604F122F
:1003C30010026012E7548066F6120E977011121035
:1003D30090703B090909F4F618F618F618F622127C
:1003E3000EAB701512109908080860EAE6447FF610
:1003F30018768018E4F618F6221210996016121077
:10040300907012E4F608F608F608E65480F6090937
:100413000918181822EAC0E0EBC0E0ECC0E0EDC018
:10042300E0E687F0A4FBACF008E687F0A42CFCE43C
:1004330035F0FA1809E687F0A42C4B60027401CA60
:1004430035F0FCE433FB09E687F0D2F7A42CCB3577
:10045300F0FC1908E687F0A42BCC35F0FBE433FD60
:100463000819E687F0D2E7A42C4ACB35F0CD340047
:10047300FC09E687F0D2E7A42DCC35F0FDE433FA8E
:100483000918E687F0D2F7A42CCD35F0CA3400FC66
:1004930008E687F0D2E7D2F7A42ACC35F07A7E209B
:1004A300E70B0ACB33CBCD33CDCC33CC33CB33506B
:1004B300147004ED30E00ED2F1E4CD3DCDCC3CCC54
:1004C3003B5005DA05C2F1EB547FC63308E633929D
:1004D300F0FBE73309E733C39A502D2B70190C0D4A
:1004E3004C4D70151806E608C333700D20F10AA2AF
:1004F300F013F6E418800B4024E4F630F002768023
:1005030018F618F618F68024D33B14501074FFA283
:10051300F013F6187680E418F618F6800FA2F0139D
:10052300F618E63303F618ECF618EDF6D0E0FDD036
:10053300E0FCD0E0FBD0E0FA22C0E074F11208AD99
:10054300A2AFE433F509D2AF85A708AFA1EF5508F1
:10055300FE74105E60061212CD75A1EF74085E6022
:10056300081212D375A1F78024EFA2E092F0E508F8
:10057300A2E082F05017906198E0F89006A8E0C3DB
:1005830098A2D265D0335002E8F075A1FEE509A226
:10059300E092AF7F02020969C0E074F21208ADA2D3
:1005A300AFE433FED2AF9061A4E0F8759B00E59110
:1005B30058540860087591F71213218023E5915868
:1005C300541060087591EF1213278014E591A2E08F
:1005D30092F0E8A2E082F05007E0C2E0F01214715A
:1005E3009061A3E0F8E5E9585404600E12144775CE
:1005F300E9FB906193E0A2E640F2EEA2E092AF7FC6
:1006030001020969C0E074F21208ADA2AFE433FE3F
:10061300D2AF9061A5E0F8E5BF585404600675BFFA
:10062300FB12148980D4C3E498F8E499F912066A9A
:100633008026C3E49AFAE49BFBE920E7E912066A01
:10064300E498F8E499F922C3E498F8E499F91206D6
:100653006AE498F8E499F9C3E49AFAE49BFB22EB81
:1006630020E7CFE920E7E0B90010BB0008E88AF0F3
:1006730084F8AAF022E4FBC8FA22EB70227B10C8AC
:1006830033C8C933C9335007C39AC3DBF280069A10
:1006930050012ADBEAC833F4C8C933F4C9FA227516
:1006A300F008E4C833C8C933C933C99AC99B500495
:1006B300C92AC93BD5F0ECFBC833F4C8E4C9FA2214
:1006C30012070320F01430E72B74FFFCFBFA747F4E
:1006D3008022E4FCFBFA7480801AB48008BC00F228
:1006E300BB00EF800F50EBF9E4C39AFAE49BFBE401
:1006F3009CFCE499C6CC18C6CB18C6CA18C6F92206
:10070300E4C9C608CAC608CBC6D3330308CCC6336C
:1007130092F0C3947F402E94184019C9B90704CAB4
:10072300CBCC225025C309CA33CACB33CBCC33CC71
:1007330033D9F422F4600DC9CCC313CB13CBCA1342
:10074300CAD9F6CC22E4FCFBFA2214FCFBFA2208F9
:100753000808EAC0E0EBC0E086F0E7A4FA180986CF
:10076300F0E7A42AFA180986F0E7A42AFA180986FA
:10077300F0E7A42AFA1986F0E7A4FBE5F02AFA19B0
:100783000886F0E7A42BFBE5F03AFA190886F0E7B0
:10079300A42BFBE5F03AFA18180986F0E7A4C5F094
:1007A3002BFBE43AFA1908E7C5F0C6A426F6E5F0F0
:1007B3003BFBE43AFA1886F0E7A4F6E5F00826F6E0
:1007C300E43B08F6E43A08F6D0E0FBD0E0FA22E492
:1007D300CFC0E0E4CEC0E0E4CDC0E0E4CCC0E0753F
:1007E300F020E626F608E633F608E633F608E633A5
:1007F300F6181818EC33FCED33FDEE33FEEF33FF40
:10080300C3EC9709ED9709EE9709EF97191919406A
:100813000FFFEC97FC09ED97FD09EE97FE191906FA
:10082300D5F0BFECF709EDF709EEF709EFF7191962
:1008330019D0E0FCD0E0FDD0E0FED0E0FF22251887
:10084300C582C0E0E51934FFC583C0E0E518C39550
:100853008224F810AF088583198582188008858360
:1008630019858218D2AFCEF0A3E520F0A37808E66D
:1008730008F0A3DEFAEFF0A3E58124FAF8E608F026
:10088300A3E608F0A3E608F0A30808E608F0A3E649
:1008930008F0A315811581D0E0FED0E0F81581158D
:1008A300811581E8C0E0EEC0E022C0D02518C582E2
:1008B300C0E0E51934FFC583C0E0E518C395822481
:1008C300F310AF08858319858218800885831985FD
:1008D3008218D2AFC8F0A3E9F0A3EAF0A3EBF0A328
:1008E3007908E709F0A3D8FAECF0A3EDF0A3EEF052
:1008F300A3EFF0A3D0E0F0A3D0E0F0A3D0E0F0A307
:10090300E520F0A3E5F0F0A322E9799EC608CAC664
:1009130008CBC608CCC6C370207996CACBCC701955
:10092300798ECBCC70137986CC700EF9802ACA33BA
:10093300CACB33CBCC33CC331930E7F2CCCBCA336D
:1009430050147004EA30E00DE4CA3ACACB3BCBCC76
:100953003CCC500209C3E913C6CC182313C6CB18E9
:10096300C6CA18C6F922851983851882E0C0E0A398
:10097300E0F9A3E0FAA3E0FBA37808E0F608A3DF1D
:10098300FAE0FCA3E0FDA3E0FEA3E0FFA3E0C0E0E8
:10099300A3E0C0E0A3E0F5D0A3E0F520A3E0A3F536
:1009A300F010AF088583198582188008858319851F
:1009B3008218D2AFD082D083D0E0F8D0E0321210C8
:1009C3007BB90003020A00E4900401789B791A8042
:1009D30002F0A3D8FCD9FA7A9B7B1D900086781D80
:1009E30079028015E493A3AD82AE838A828B83F070
:1009F300A3AA82AB838D828E83D8E9D9E77582EA75
:100A03007583FD7404120D2C7582B575832D7400E6
:100A1300120D2CE47375F0108E1A8F1B85821F85BF
:100A2300831E851882851983E0CEA3E0CF851F82BC
:100A3300851E83EBC9EAC8EDCBECCAC3E833C8E92A
:100A430033C9EA33CAEB33CBC3EA9EF51DEB9FF5FB
:100A53001CB35004AB1CAA1DEC33CCED33CDD5F045
:100A6300DAAE1AAF1B22D083D082ECC0E0EDC0E037
:100A7300E493A3FCE493A3FDED4C600D120B41EC56
:100A830024FFFCED34FFFD80EFE493A3FCE493A388
:100A9300FDED4C600D120C14EC24FFFCED34FFFD56
:100AA30080EFD0E0FDD0E0FCE493A3C0E0E493C08A
:100AB300E022D083D082E9C0E0E493A3C386F0C5EB
:100AC300F095F0F908E493A386F0C5F095F0700B68
:100AD300E493A3C3994005E9048002A3E475F002FB
:100AE300A42582F582E5F03583F583D0E0F9E4931C
:100AF300A3C0E0E493C0E022851983851882E0A3B4
:100B0300FEE0A3F5207808E0A3F608DFFAE0A3FFF0
:100B1300E0A3C0E0E0A3C0E0E0A3C0E0E0A3C0E046
:100B2300E0A3C0E010AF088582188583198008858B
:100B33008218858319D2AFD083D082020D32C0E0F0
:100B4300C3E49396087401939618400FE493667078
:100B53000808740193661870007019A3A3C3E49383
:100B630096087401939618A3A3400DD0E0D0E0D06B
:100B7300E0020AA5A3A3A3A3A3A3D0E022C082C03B
:100B83008374FE120E18851882851983EAF0A3EB8D
:100B9300F07C017D00AA18AB197900121255851853
:100BA30082851983E0FAA3E0FB7402120D65D083FA
:100BB300D082227404800474028000CCC0E0EDC0B3
:100BC300E0E518C39CCCAD1950011D10AF068C187D
:100BD3008D1980068C188D19D2AF120CAED0E0FDA2
:100BE300D0E0FC2274028000CCC0E0EDC0E0E51848
:100BF300C39CCCAD1950011D10AF068C188D198004
:100C0300068C188D19D2AF120C8CD0E0FDD0E0FC0D
:100C130022C0E0C0F088F0E4936670080874019382
:100C230066187000A8F0A3A3700BD0F0D0E0D0E05A
:100C3300D0E0020AA5A3A3D0F0D0E022D083D082D3
:100C4300CCC0E0E493A36006120D0D1470FAE49394
:100C5300A36006120E2E1470FAD0E0FCE493A3C036
:100C6300E0E493C0E022C0E074F21208ADA2AFE466
:100C730033FED2AFC2C0E5D1A2E4500312123DEE5F
:100C8300A2E092AF7F01020969CAC0E0E493A3C561
:100C930082CCC582C583CDC583F0A3C582CCC58272
:100CA300C583CDC583DAE5D0E0CA22CAC0E0E0A39C
:100CB300C582CCC582C583CDC583F0A3C582CCC50F
:100CC30082C583CDC583DAE6D0E0CA22C008C3E07B
:100CD30096F50808A3E096420808A3E096420808A0
:100CE300A3E09645087001D3D008227009080808CC
:100CF300226016181818C6C333C608C633C608C6FA
:100D030033C608C633C6D5E0EA22C0E0E493A3D3D2
:100D13009C5010E493A3C39C400AD0E0D0E0D0E001
:100D2300020C5CA3A3A3D0E022C09FF59FE473D081
:100D33009F22D083D082C09FE493C0E0740193C00C
:100D4300E0740293F59F222518F58210AF08F51879
:100D5300400C15198008F51840021519D2AF8519F2
:100D6300832200C0D0251810AF08F518500C0519C0
:100D73008008F51850020519D2AFD0D02274048030
:100D83000A74038006740280027401C0E0F4041242
:100D93000D4AD0E012103E22BB0102E722C082C0FE
:100DA3008389828A83BB0003E08002E493D083D0EB
:100DB3008222C0E0C0D0E8C0E0A8A8D2AFC2C7E892
:100DC300A2E792AFD0E0F8D0D0D0E03260160808A6
:100DD30008C6C313C618C613C618C613C618C61347
:100DE300C6D5E0EA222518F8E43519F9222518FAC0
:100DF300E43519FB222518FCE43519FD22C3E0C6AE
:100E030096F608A3E0C696F608A3E0C696F608A3EE
:100E1300E0C696F622251810AF08F518400C1519F0
:100E23008008F51840021519D2AF22C0E0E493A35D
:100E33006C7009D0E0D0E0D0E0020C5CA3A3D0E05A
:100E430022E066701008A3E066700A08A3E06670EB
:100E53000408A3E06622C3E09608A3E09608A3E093
:100E63009608A3E096A2D265D03322E766701008F5
:100E730009E766700A0809E76670040809E766224D
:100E8300C3E096F008A3E096F008A3E096F008A369
:100E9300E096F022181818E60846087009E62608B6
:100EA3007005E633F4220822191919E70947097076
:100EB30009E727097005E733F4220922C3E493966F
:100EC3000874019396087402939608740393962208
:100ED300C3E697F60809E697F60809E697F60809C0
:100EE300E697F622E026F608A3E036F608A3E036F6
:100EF300F608A3E036F622E647F60809E647F608C1
:100F030009E647F60809E647F622700422600D1841
:100F1300C6C333C608C633C6D5E0F41822E657F66F
:100F23000809E657F60809E657F60809E657F622D0
:100F3300E056F608A3E056F608A3E056F608A3E049
:100F430056F622E056F008A3E056F008A3E056F068
:100F530008A3E056F022E627F60809E637F6080963
:100F6300E637F60809E637F622E026F008A3E0366E
:100F7300F008A3E036F008A3E036F022E493F60885
:100F8300740193F608740293F608740393F622E44B
:100F9300C396F608E496F608E496F608E496F62275
:100FA300600D08C6A2E713C618C613C6D5E0F32220
:100FB300C6F4C608C6F4C608C6F4C608C6F4C622F4
:100FC300C3E7960809E7960809E7960809E7962212
:100FD300C3E09608A3E09608A3E09608A3E0962250
:100FE30075D00075813F751801751904000209C198
:100FF300E6084608C3134608336002E633F422E7E3
:10100300094709C3134709336002E733F422600C2D
:1010130008C6C313C618C613C6D5E0F422E6F00803
:10102300A3E6F008A3E6F008A3E6F022E0F608A39F
:10103300E0F608A3E0F608A3E0F622CAC0E0E6F073
:10104300A308DAFAD0E0FA22E0FAA3E0FBA3E0FC7B
:10105300A3E0FD22EAF0A3EBF0A3ECF0A3EDF02272
:10106300E0F8A3E0F9A3E0FAA3E0FB22E8F0A3E9A8
:10107300F0A3EAF0A3EBF022E5C754F84401F5C767
:101083007901222518F582E43519F58322E727191A
:10109300471947194722E62618461846184622C21A
:1010A300AF75D69F02000022120D357F6F00120D1F
:1010B30035FB6F00120D352E7000120D355C70007C
:1010C300120D35807200120D359C7200120D35E140
:1010D3007200120D35667300120D35B27300120DD6
:1010E30035427400120D351B7500120D356C7500F9
:1010F300120D35D17500120D35447600120D358869
:101103007600120D35E07600120D35027700120DD0
:1011130035927700120D35237800120D356F780064
:10112300120D359B7800120D35DC7800120D357DDC
:101133007A00120D355F7B00120D353B7C00120DDA
:1011430035C0B506120D3501B606120D351BB606B0
:10115300120D357AB606120D35E4B606120D354377
:10116300B706120D3580B706120D353EB806120DBF
:101173003537BB06120D3552BB06120D3584BB063F
:10118300120D35B1BB06120D35D6BB06120D350156
:10119300BC06120D352CBC06120D355CBC06120DB7
:1011A30035E6CB06120D35F7CB06120D3595CC0679
:1011B300120D35AFCC06120D35F2FF01120D35D8E5
:1011C300FF04120D355ECD06120D356ECD06120DE0
:1011D3003583CD06120D35CCCD06120D3508C80664
:1011E300120D358CC806120D35F4C806120D35ECF8
:1011F300FF01120D352DB206120D353BB206120D4D
:1012030035B4B206120D3589B306120D355BB5063A
:10121300120D3521D006120D35658D06120D35D20E
:101223008D06120D358A8E06120D35008F06120DAE
:1012330035149006120D35A49106120D350D920644
:10124300120D355C9206120D35659206120D35743A
:101253009206120D358A9206120D359D9206120DD5
:1012630035A69206120D35B99206120D35E5920692
:10127300120D357C9506120D35BC9506120D35F809
:101283009506120D350C9606120D35259606120D90
:1012930035169706120D35C89706120D35DC9706DD
:1012A300120D35D2C106120D35F6C106120D350FDA
:1012B300C206120D354DC206120D357DC206120D42
:1012C30035AAC206120D3510C306120D3513C30617
:1012D300120D351DC306120D352AC306120D3590A6
:1012E300B806120D35B0B806120D35EFB806120D5B
:1012F300350DB906120D3528B906120D358EB9060E
:10130300120D359AB906120D35F7B906120D3506C9
:10131300BA06120D352ABA06120D35EBBA06120DAE
:1013230035F8BA06120D3509BB06120D35D5CD06B3
:10133300120D351DCE06120D3549CE06120D35D5CB
:10134300A106120D3531A306120D353FA306120D6A
:101353003552A306120D3567A306120D357CA3067D
:10136300120D358FA306120D350BA406120D357021
:10137300A406120D3506A506120D35DFA506120DBE
:1013830035EFA506120D35FEA506120D35C5CC06A3
:10139300120D35E9CC06120D3511CD06120D353976
:1013A300CD06120D3597FD01120D35BEFD01120D4F
:1013B30035DCFD01120D354BFE01120D35157D0097
:1013C300120D352E7D00120D353A7D00120D354E6E
:1013D3007D00120D356C7D00120D35767D00120DEA
:1013E30035807D00120D35937D00120D35197E0079
:1013F300120D358E7E00120D35BD7E00120D350B9C
:101403007F00120D355A7F00120D35757F00120DC6
:10141300357F7F00120D35907F00120D35D37F008D
:10142300120D3505CF06120D3582EB05120D35AEC3
:10143300EB05120D35CBEB05120D35DEEB05120D69
:1014430035F9EB05120D3553EC05120D3581EC051D
:10145300120D3591F005120D35EFF105120D352101
:10146300F205120D3584F205120D35F0F305120D58
:101473003518F405120D352DF405120D353DF4051F
:10148300120D357DF405120D35BFF405120D35CF60
:10149300F405120D35BEC506120D35D8C506120D5D
:1014A3003500C606120D3519C606120D353DC606A2
:1014B300120D355BC606120D3572C606120D35A028
:1014C300C606120D35BBC606120D35A0CF06120D8A
:1014D3003575FC03120D3585FC03120D358AFD03AA
:1014E300120D35BCFD03120D35ECFD03120D350F46
:1014F300FE03120D3526FE03120D3560FE03120D99
:1015030035C5FE03120D3507FF03120D354EFF03DC
:10151300120D357BFF03120D35A6FF03120D353473
:10152300C306120D3552C306120D35B4C306120D90
:10153300354EC406120D35FBCA06120D35EEC6062E
:10154300120D3536C706120D35BEBE06120D351FF8
:10155300C006120D3579C406120D359EC506120D4F
:10156300351CE105120D35A6E405120D35A2E6057D
:10157300120D35D4E705120D35ADE805120D353DD5
:10158300EA05120D3509EB05120D355DEB05120D5C
:1015930035FCBC06120D351DBD06120D3557BE06B2
:1015A300120D3581BE06120D35E6CF06120D35F646
:1015B300CF06120D3500D006120D35C5B905120D33
:1015C30035C8B905120D35A4C105120D35F6C2058E
:1015D300120D3557C405120D352EC505120D3507ED
:1015E300C605120D35F0C605120D35E4C705120DFB
:1015F300359CC805120D35CCC805120D357CCA05BE
:10160300120D356EC006120D358EC006120D35A2B1
:10161300C106120D35A5C106120D350DCA06120DF0
:101623003543CA06120D355BCA06120D359DCA062F
:10163300120D35ADCA06120D35F1CA06120D35006D
:101643008006120D353A8006120D35A38006120D61
:1016530035C28006120D35DB8006120D357D8106FD
:10166300120D35868106120D35D78106120D350010
:101673008206120D350D8206120D357E8206120D7D
:10168300350C8306120D355A8306120D35908306E9
:10169300120D35F18306120D351A8406120D35919C
:1016A3008406120D35ED8406120D352A8506120DBA
:1016B30035618506120D35738506120D3585850650
:1016C300120D35A48506120D35AD8506120D35684C
:1016D3008606120D35B48606120D35F28606120DF6
:1016E300354CCE06120D35F09706120D353099069E
:1016F300120D35539906120D35649906120D358373
:101703009B06120D35A39B06120D35C2FD02120D69
:1017130035F8FD02120D3540FE02120D3599FF0218
:10172300120D35ABE904120D35DCEA04120D351840
:10173300EB04120D35D2EC04120D35FCEC04120D42
:101743003575EF04120D35B5EF04120D3549F1046B
:10175300120D35E8F104120D3540F204120D35D3A4
:10176300F204120D350DF304120D354FF304120D6F
:1017730035C2F404120D3542F604120D357FF80418
:10178300120D35ADF804120D35D9F804120D35E2FA
:10179300F804120D353FF904120D35CFF904120D7B
:1017A300350BFD04120D358DFD04120D35DE7F0062
:1017B300120D35F47F00120D3567AA06120D357D23
:1017C300AA06120D3521AB06120D3560AB06120DBC
:1017D300357DAB06120D35AEAB06120D35FBAB06F0
:1017E300120D352FAC06120D356AAC06120D355F9E
:1017F300AE06120D350DC906120D356CC906120D54
:1018030035AAC906120D35EBC906120D3500800441
:10181300120D350C8004120D356E8004120D3578CF
:101823008004120D35058104120D35418104120D1A
:1018330035048204120D35178204120D3585820496
:10184300120D35ED8204120D357C8304120D35FA29
:101853008304120D359F8504120D35588704120D2C
:10186300359E8804120D351B8A04120D35C28A0475
:10187300120D35908F04120D35879004120D351615
:101883009104120D353B9104120D35D89104120DBC
:1018930035F59104120D35159204120D3586920417
:1018A300120D35A39204120D35D19204120D356930
:1018B3009404120D358A9404120D35309504120DDB
:1018C30035789504120D35EA9504120D356D96049D
:1018D300120D35D29604120D352F9704120D35CE05
:1018E3009704120D35429804120D357E9804120D9B
:1018F30035EB9804120D35559A04120D35D69B0419
:10190300120D35859C04120D35E79E04120D3549E1
:101913009F04120D35779F04120D358FA104120D0C
:10192300351FA404120D3522A504120D351E87069A
:10193300120D350F8806120D35198A06120D353929
:101943008A06120D353C8A06120D354F8A06120D92
:1019530035948A06120D35C08A06120D35178B068B
:10196300120D352F8B06120D356A8B06120D35D9E4
:101973008B06120D35358C06120D35D18C06120DE2
:1019830035398D06120D3585D006120D359FCB04E2
:10199300120D353ECC04120D35BACC04120D35A907
:1019A300CD04120D35A7CE04120D3526CF04120D2A
:1019B3003568D004120D3509D104120D35C9D2048E
:1019C300120D35D0D304120D35EDD304120D351895
:1019D300D504120D3555D604120D35FFD604120D5C
:1019E3003569DA04120D3571DC04120D35FADC04A5
:1019F300120D3554DD04120D35A2DD04120D351D13
:101A0300DE04120D359FDE04120D35DBDE04120DEC
:101A1300357FE504120D35DAE704120D35B6E80417
:101A2300120D35349D05120D35669D05120D35EAEF
:101A33009D05120D354D9F05120D353BA005120D69
:101A43003503A205120D3528A205120D357AA2051C
:101A5300120D350CA305120D3558A305120D356B68
:101A6300A305120D35C8A305120D3537A405120DB4
:101A73003504A505120D3572A505120D35A9A50569
:101A8300120D35F2A505120D359AA705120D3579FC
:101A9300A805120D35C7A905120D35AAAA05120D01
:101AA3003536AB05120D356FAB05120D358EAB0513
:101AB300120D35D9AB05120D35F9AB05120D35B63F
:101AC300AC05120D35C3AD05120D35D7AD05120D9D
:101AD300352BAE05120D3586AE05120D35D3AE0589
:101AE300120D35DBAF05120D3560B205120D3586CB
:101AF300B205120D3501B305120D3526B305120DCE
:101B030035ADB305120D3589B405120D35C7B405CE
:101B1300120D354BB505120D3536B605120D353997
:101B2300B605120D3543B605120D354DB605120D2A
:101B33003569B605120D35E5B605120D351EB70527
:101B4300120D353AB705120D3566B705120D358DF1
:101B5300B705120D35B1B705120D35ECB705120DEA
:101B6300355FB805120D3593B805120D359DB805CF
:101B7300120D35D9B805120D35F3B805120D351A06
:101B8300B905120D3549B905120D3568B905120DA0
:101B93003580B905120D3592B905120D3550CF06B2
:101BA300120D3568CF06120D35EFFF01120D35FF0B
:101BB300F405120D354EF505120D350CF705120D12
:101BC30035C6F805120D3504F905120D35F9F90579
:101BD300120D3504FB05120D3526FB05120D35706C
:101BE300FB05120D35F1FB05120D352AA904120D63
:101BF300354DA904120D35ABAA04120D35F4AA0410
:101C0300120D3552AB04120D35B8AB04120D35BBB2
:101C1300AB04120D350CAC04120D3586AC04120D59
:101C23003514AD04120D3517AD04120D359FAD04F7
:101C3300120D35E2AD04120D3552B204120D35F01A
:101C4300B304120D352AB404120D3570B404120D09
:101C530035D0B704120D3555B804120D35EDB9045E
:101C6300120D35FCBA04120D3529BC04120D358949
:101C7300BC04120D3565BD04120D35EFBD04120D04
:101C830035F2BD04120D35D7BE04120D351DC00447
:101C9300120D35D1C104120D35A4C304120D35360E
:101CA300C404120D35CBC404120D35BDC504120D89
:101CB300357DC704120D3593C804120D3502CA04CD
:101CC300120D3547CA04120D35F2CA04120D350040
:101CD3008005120D359B8005120D350E8105120D01
:101CE30035298105120D35CA8105120D351182057D
:101CF300120D35348305120D35778305120D35F337
:101D03008305120D35468405120D35A58405120D84
:101D130035B28505120D35CF8805120D35058A05B7
:101D2300120D358E8A05120D35928C05120D35363E
:101D33008D05120D35D58D05120D35368E05120D17
:101D430035A58E05120D35FE8F05120D35E890056C
:101D5300120D35239105120D35439105120D35F4FE
:101D63009105120D35319205120D35BA9205120DFA
:101D730035359405120D35009605120D355B970523
:101D8300120D35D09805120D35DF9905120D356CFE
:101D93009A05120D35D59A05120D35E19B05120DE5
:101DA30035CBD903120D352EDA03120D3576DA034E
:101DB300120D35B4DA03120D350FDB03120D356C3A
:101DC300DB03120D35A7DB03120D3529DC03120DDE
:101DD3003583DC03120D35F7DD03120D3575DE0394
:101DE300120D358DDF03120D35B5DF03120D3504EA
:101DF300E103120D3515E103120D352DE103120D2B
:101E03003542E203120D351FE303120D351CE403C3
:101E1300120D3540E403120D3557E403120D3578E6
:101E2300E403120D359AE403120D35B9E403120DE0
:101E3300358DE503120D35E7E503120D3588E8030B
:101E4300120D35E1E803120D3500E903120D3533A8
:101E5300FD02120D3521EA03120D355BEB03120D62
:101E630035DAEB03120D3511EC03120D354BEC0390
:101E7300120D35BAEC03120D357BED03120D3554FB
:101E8300EF03120D355BF003120D35CCF103120D88
:101E930035CCF303120D3547F603120D3521F80344
:101EA300120D35E2F803120D355AF903120D35718F
:101EB300F903120D356BFA03120D3563FB03120D93
:101EC30035D2FB03120D3521FC05120D35D6E00585
:101ED300120D3590FE05120D35F8FE05120D356C09
:101EE300FF05120D356CAE06120D358AAE06120DC6
:101EF30035CEAE06120D35F4AE06120D351BAF0608
:101F0300120D3533AF06120D354BAF06120D35EDFD
:101F1300AF06120D352FB006120D3551B106120D55
:101F2300355AB106120D3563B106120D356CB10683
:101F3300120D3576B106120D35E59C06120D3519D5
:101F4300A106120D3527A106120D352CA106120D7F
:101F53003565FE04120D3559D006120D35A6CE0691
:101F6300120D35B6CE06120D352FA606120D35000D
:101F73008003120D35328003120D359E8003120D3E
:101F830035398103120D35D88103120D351D8203B6
:101F9300120D353F8203120D35588203120D357E23
:101FA3008203120D35A08203120D35DE8203120D5A
:101FB30035228303120D35448303120D35A68303A3
:101FC300120D356D8403120D35248503120D3596DC
:101FD3008503120D35688603120D35B28603120D83
:101FE30035058703120D356B8703120D35A587035E
:101FF300120D35F78703120D35138803120D353E85
:102003008803120D35458A03120D35998B03120D82
:1020130035BB8B03120D35EF8B03120D35108C037B
:10202300120D351F8C03120D352A8C03120D35DA70
:102033008C03120D35438D03120D35F08D03120DF4
:1020430035288E03120D35EE8E03120D35FB8F03EB
:10205300120D35459003120D35D49003120D35380A
:102063009103120D35739103120D35DF9303120D96
:1020730035339503120D356C9803120D35399903D9
:10208300120D35C79903120D35F09903120D356200
:102093009A03120D35F69A03120D35549B03120D54
:1020A30035469C03120D35689C03120D35C49D0300
:1020B300120D35DD9D03120D35F09D03120D354DC7
:1020C3009E03120D355C9E03120D35EF9E03120D18
:1020D30035FB9F03120D3508A003120D3511A00324
:1020E300120D35E9A103120D350FA303120D351F90
:1020F300A303120D3521A403120D3598A403120D69
:1021030035C7A403120D35CDA503120D3513A60350
:10211300120D35DFA703120D35B7AB03120D35C111
:10212300AB03120D35D5AB03120D35DFAB03120D27
:1021330035E9AB03120D35F3AB03120D350CAC03CC
:10214300120D3516AC03120D358AAC03120D3595FD
:10215300AC03120D35BAAC03120D35C5AC03120D29
:102163003513AD03120D351DAD03120D3528AD0327
:10217300120D354CAD03120D3570AD03120D35CC78
:10218300AD03120D3512AE03120D352FAE03120D32
:1021930035ACAE03120D35E3AE03120D3522AF039A
:1021A300120D356FAF03120D35F1AF03120D358AE2
:1021B300B003120D355AB203120D35B8B203120D26
:1021C30035D4B303120D35FAB303120D3539B50304
:1021D300120D355FB803120D35A0BA03120D357C0D
:1021E300BC03120D3512BD03120D3539BF03120D99
:1021F30035E5BF03120D351AC003120D357FC00339
:10220300120D3589C003120D35B3C203120D35DA31
:10221300C303120D351AC403120D35C0C403120DC6
:102223003551C603120D35DAC703120D35FAC7034C
:10223300120D3553C803120D3555C903120D359FC1
:10224300C903120D35EFC903120D35D9CA03120D97
:10225300354ECB03120D3568CC03120D35E3CC0399
:10226300120D35E8CD03120D3593D003120D35B29F
:10227300D003120D3513D203120D35D5D303120D2E
:102283003529D403120D35E1D403120D3590D5034E
:10229300120D35E6D503120D359CD603120D3531DB
:1022A300D703120D359DD703120D35D7D703120D62
:1022B3003508D803120D3564D903120D3500800299
:1022C300120D35328002120D35698002120D35521E
:1022D3008202120D35358302120D358D8302120DE4
:1022E30035C88402120D35148502120D353C88025F
:1022F300120D359E8B02120D35EB8C02120D3581BA
:102303008D02120D358D8D02120D35BF8D02120D0A
:1023130035418F02120D354F9002120D357990021F
:10232300120D35D09002120D35299102120D3595FB
:102333009102120D35AC9302120D353B9502120D2D
:1023430035059602120D35439702120D3573990226
:10235300120D35439C02120D35509C02120D35D7D8
:102363009C02120D357F9D02120D35C29D02120D86
:10237300350B9E02120D355F9E02120D35C49E026F
:10238300120D352C9F02120D35499F02120D35791E
:102393009F02120D35AE9F02120D357EA002120D63
:1023A3003527A102120D35ABA302120D35CBA402C2
:1023B300120D35B4A502120D3536A602120D35588D
:1023C300AA02120D3595AA02120D35EDAA02120DBD
:1023D3003520AB02120D35A1AB02120D35EEAB0267
:1023E300120D3579AC02120D35CBAC02120D35A2AC
:1023F300AD02120D355BAE02120D35F6AE02120DB3
:10240300350FB202120D352FB302120D35E0B602AD
:10241300120D35FEB702120D3501B802120D35301B
:10242300B802120D3536BA02120D350FBB02120D6A
:102433003544BB02120D354CBC02120D3502BD02F0
:10244300120D35A3BE02120D35C8BE02120D35079B
:10245300BF02120D3579BF02120D355DC002120D98
:10246300352AC102120D3560C302120D35D1C302E4
:10247300120D3511C402120D354AC402120D35DE98
:10248300C402120D3527C602120D35EAC902120D18
:1024930035D9CA02120D35C0CB02120D3538CC0224
:1024A300120D35FACC02120D35F8CE02120D35108D
:1024B300CF02120D3524CF02120D355CCF02120D5F
:1024C300358ACF02120D3511D102120D351CD202FD
:1024D300120D356ED202120D35D6D202120D358889
:1024E300D302120D35B8D302120D359CD402120D4E
:1024F300354DD502120D353CD702120D3571D70279
:10250300120D35D9D702120D3508D902120D35BA7D
:10251300D902120D35EBD902120D3503DA02120D71
:102523003592DA02120D3546DD02120D351EDF0239
:10253300120D353ADF02120D3556DF02120D352426
:10254300E002120D3508E402120D35118301120D5C
:1025530035498301120D35278801120D356D880128
:10256300120D35BA8901120D35258A01120D35AECA
:102573008B01120D35BE8E01120D35D98F01120D4F
:1025830035EB9901120D357E9A01120D35D09D015F
:10259300120D35CC9E01120D35279F01120D357199
:1025A300A001120D355FA101120D35FBA301120D20
:1025B300356FA501120D35F2A501120D35F5A501F3
:1025C300120D356AA601120D3574A601120D35815F
:1025D300A601120D35ACA601120D355CA701120D33
:1025E3003555A801120D3500A901120D351EA9019B
:1025F300120D3537A901120D3560A901120D35826F
:10260300A901120D35D7AB01120D359CAC01120D8A
:1026130035E1AC01120D3560AD01120D350CAE0183
:10262300120D353EAE01120D3592AE01120D35CDB0
:10263300AE01120D3514AF01120D3564AF01120D49
:102643003569AF01120D35BDAF01120D35E9AF018B
:10265300120D35D2B001120D3523B101120D3583A0
:10266300B101120D35DDB101120D3578B201120D34
:1026730035B7B501120D35C9B601120D3543B80191
:10268300120D3553BB01120D35F1BB01120D35E7A8
:10269300BE01120D35A6BF01120D35EABF01120DA1
:1026A3003595C101120D35A9C101120D35B3C10113
:1026B300120D35BDC101120D35C9C101120D35EE23
:1026C300C101120D35C7C301120D351CC401120D12
:1026D3003526C401120D3530C401120D35A5C401D0
:1026E300120D35F4C401120D3505C601120D355214
:1026F300C601120D355FC701120D35A3C701120DB7
:102703003549C801120D353CC901120D3502CA0104
:10271300120D3525CB01120D3543CC01120D352B8E
:10272300CD01120D3543CD01120D359ACD01120D98
:1027330035A4CD01120D35AECD01120D35B9CD0144
:10274300120D35D7CD01120D351FCE01120D358176
:10275300CE01120D35A8CE01120D35BACE01120DE0
:102763003555CF01120D358ACF01120D3571D001C8
:10277300120D35B6D001120D359CD101120D35C3A2
:10278300D101120D3546D201120D35B7D201120D0A
:102793003540D401120D356CD501120D352FD601FC
:1027A300120D35F7D601120D3581D701120D35A95A
:1027B300D801120D354BD901120D35C6D901120DB1
:1027C3003582DA01120D35CCDA01120D3526DB0123
:1027D300120D35FEDB01120D3521DC01120D35D44E
:1027E300DC01120D35F6DC01120D355FDD01120D32
:1027F3003575DF01120D356DE001120D3531E10143
:10280300120D3563E301120D35ADE301120D35FDF4
:10281300E301120D3561E401120D35C3E401120D1C
:1028230035F1E401120D3515E501120D354AE501C7
:10283300120D357BE501120D35AEE501120D35FEA6
:10284300E501120D3551E601120D3576E701120D42
:102853003516E901120D3571E901120D359AE901B9
:10286300120D3527EA01120D3595EA01120D35A334
:10287300EA01120D35C7EA01120D351CEB01120DE9
:102883003537EB01120D35E9EB01120D3521EC0162
:10289300120D3564EC01120D35C7EC01120D35C96B
:1028A300EE01120D35F3EE01120D35EAEF01120DB3
:1028B30035F4F001120D35A4F101120D3582F20148
:1028C300120D35BAF201120D35DBF201120D351D71
:1028D300F301120D357FF301120D3589F301120D4A
:1028E3003599F301120D35D4F301120D35B4F70107
:1028F300120D35A1F901120D3587FB01120D351E9D
:10290300FC01120D35C0FC01120D35703500120D9E
:10291300351B3600120D35C93600120D35CF370081
:10292300120D35EF3700120D35183900120D35D35E
:102933003A00120D35463B00120D35EA3B00120DED
:1029430035F63C00120D35613D00120D359D3D00FD
:10295300120D35E03D00120D351B3E00120D355DA5
:102963003E00120D35F23E00120D356E3F00120D82
:1029730035384000120D35154100120D35AD4100BB
:10298300120D35C74100120D35F74100120D3528E0
:102993004200120D35EE4200120D35FE4200120DBB
:1029A300354D4300120D355A4300120D3563430074
:1029B300120D35E14300120D353D4400120D3588EB
:1029C3004400120D35A34400120D35CE4400120D00
:1029D30035EB4400120D35F74400120D358E4600D9
:1029E300120D35A74600120D352C4700120D353F49
:1029F3004700120D355E4700120D35024800120DD7
:102A030035834900120D35364B00120D35CC4B0082
:102A1300120D35CF4B00120D353F4C00120D355DB5
:102A23004C00120D35F44C00120D353C4D00120DC7
:102A3300353F4D00120D35054E00120D35724E0017
:102A4300120D35984E00120D35234F00120D3541EE
:102A53004F00120D35874F00120D353B5000120DFC
:102A630035855000120D35B45000120D351151004B
:102A7300120D35465100120D35725100120D35807D
:102A83005100120D35CD5100120D353D5200120D7E
:102A930035865200120D35D25200120D35FE52000A
:102AA300120D35095300120D35275300120D35123F
:102AB3005400120D351C5400120D35575400120DDD
:102AC30035675400120D35BB5400120D35CF540039
:102AD300120D35FE5500120D35135600120D35A19A
:102AE3005600120D35E65600120D35725700120DC1
:102AF300357D5700120D35BF5800120D35DA5800D9
:102B0300120D35265900120D35955900120D35CE8B
:102B13005900120D35E85900120D35485A00120DAF
:102B230035E75A00120D35325B00120D35025E0097
:102B3300120D35B45E00120D35215F00120D3561A3
:102B43006100120D35796100120D357C6100120DA3
:102B530035886100120D359C6100120D35A46100AA
:102B6300120D35D76100120D35DA6200120D35678B
:102B73006300120D35D76300120D35596400120D31
:102B8300351A6500120D35396500120D35DA650009
:102B9300120D35376600120D353A6600120D35AE4B
:102BA3006600120D35FD6700120D35036900120D25
:102BB300358E6900120D35A96A00120D35716B004F
:102BC300120D35A26B00120D35C56B00120D35CEFB
:102BD3006B00120D35FD6B00120D358D6C00120D5F
:102BE30035436D00120D35B86D00120D355F6E0063
:102BF300120D35D46E00120D350B6F00120D3549D1
:102C03006F00120D35E8FC02120D357CFC02120D2B
:102C13003519FC02120D35EFFB02120D35DBFB02F9
:102C2300120D35D1FB02120D3564FB02120D3595E1
:102C3300F902120D3553F902120D3569F802120D1E
:102C430035A2E005120D354BE005120D353DF802B6
:102C5300120D35F4F702120D35EDDE05120D353F79
:102C6300DE05120D3531F702120D3500F402120D97
:102C730035A2F102120D3572F102120D3522F10265
:102C8300120D35BCF002120D357BF002120D355BCF
:102C9300F002120D358DEF02120D3527EF02120DE2
:102CA30035C6EE02120D3566EE02120D3504ED0245
:102CB300120D3598EC02120D35ECEB02120D35E7CF
:102CC300EB02120D35D0EB02120D359BEB02120D08
:102CD30035A2DD05120D3535E802120D3598DD05F7
:102CE300120D352DDD05120D3512DD05120D356280
:102CF300DC05120D3568DB05120D358EDA05120D74
:102D03003532E802120D3519E802120D350EE802CC
:102D1300120D35DDE702120D35E4D705120D35042A
:102D2300E602120D358BE502120D3522E502120D76
:102D33003595E402120D35F6D605120D3551E40230
:102D4300120D35D1FD05120D352AE402120D35336E
:102D5300D605120D35DED505120D35B1D505120D8B
:102D6300357ED505120D3556D505120D35F7D4052B
:102D7300120D35D7D405120D35A2D405120D3566C3
:102D8300D105120D353BCF05120D352BCD05120D97
:102D930035A8CC05120D355CCC05120D3588D6054A
:102DA300120D3510CC05120D356ACB05120D35EB1E
:102DB300E90300000080FB87000100761E35000454
:102DC300003C1E25000200401E26000200421E2772
:102DD300000200441E280001004E1E290001004F7E
:102DE3001E840004002B1B86000100A91D2A00017C
:102DF30000501E2B000100511E2C000100561E2DF9
:102E0300000800391B2E000100571E2F0001005837
:102E13001E30000100591E310001005A1E3200010C
:102E230000411B33000100421B340001005B1E36CE
:102E3300000100431B380001005C1E3900010055EE
:102E43001E83000200741E630001004E1B64000118
:102E530000521E65000100531E6D0001004F1B71DF
:102E6300000800311B66000100731E43000100646B
:102E73001E44000200651E45000100671E46000255
:102E830000681E47000800461B480001006A1E4BED
:102E93000001006B1E04000100771EA10001007AEF
:102EA3001E37000100791E88000100781E3C0001D6
:102EB30000441B3D0001005D1E490002006C1E67BB
:102EC300000100501B4D0002006E1E4E00010070F9
:102ED3001E4F000200711E3E000100631E510001DF
:102EE300005F1E52000100601E53000100621E5469
:102EF300000100451B000000000000000136360100
:102F0300010001020100010301000104010606059D
:102F1300020000070100340801000F090401010D3C
:102F23000100FF0E08000017020000190100FF1A3C
:102F33000100011B0100FE1C0100081D0200001F0F
:102F430001000120010001210200002301000F24E0
:102F53000200002601000127010008280200FF2AC1
:102F63000100072B0102402C0100002D0100012E5E
:102F73000100012F0100FF30010B1D310800003A51
:102F83000100083B01000F3C0100013D0100FF3E31
:102F930004000042040000460400004A0400004EFE
:102FA30004000052040000560400005A040000000C
:102FB30000030020010F83000000002001108300A4
:102FC3000001002001108300000200200110830093
:102FD300000040420106820000040042013E8200DC
:102FE3000005004201F38100000600420106820051
:102FF30000070030010E83000010004203081E008A
:103003000011003003E719000012001003191E031A
:103013000000002103E8190000FDFF2101098303DB
:1030230000FDFF21010983060000001001D71906E6
:1030330000FDFF21810983020400002905D819023C
:10304300040100290105830204020029010383020C
:1030530004FDFF210109830103710301030103013E
:10306300030103010322030203010310030003000E
:1030730003000300030003000300034203000324CF
:10308300030603000300030403120325032303259C
:1030930003230304030403000300030003440300A6
:1030A30003000323030003650321003503810300A9
:1030B30003050300030003000300032503230303A5
:1030C3000271023001600211027002010202020267
:1030D300028002100261023A00410063027302722D
:1030E30002620243020002130238000002000204DB
:1030F300021202000200020002000204020402376C
:103103000037003C0244020002390000020002655D
:1031130002000235028102000205028202830200DC
:1031230002010171010101010111010101310101DB
:103133000101018001100161013B0014006301736F
:10314300017201620143010001130106013D0135D2
:103153000004011201000100010001000104010447
:1031630001330133013C0144013201360000010007
:103173000165010001350081010001050182018320
:1031830001000103047104020460041104700402C9
:10319300040204010402041004610400041404631F
:1031A3000473047204620443040004130406040059
:1031B3000400040404120400040004000400045185
:1031C3000464000004000400044404000400040038
:1031D300040004650400043504810464000504004C
:1031E30004830400040300710030016000110070C7
:1031F300003102200350048000100061000000141D
:1032030000630073007200620043000000130006B5
:103213000000000000040012000000000000000095
:103223000004000400370037003C024400000000A3
:10323300000000000065000000350081000000056B
:103243000000008300000036000100060000000FAC
:103253000000000000000000000000000003FFFF6A
:1032630000000403FFFF0000FFFF0FF4010005C48B
:10327300040320000100000B000000000000000018
:1032830003010F0000000000000000000000000028
:10329300000000000000000000000000000000002B
:1032A3000000000000EB181519F1182B18F7181B74
:1032B30019F7182719FD182B18F7181B1903192BC1
:1032C300180000000009192B18000000000000007E
:1032D300000F192B18000000000000000000000080
:1032E30000000000000000000000000000000000DB
:1032F30000000000000000000000000000000000CB
:103303000013008D1C1F00931C1F80991C000011CB
:103313001D0100111D02000F1C0280091C03001572
:103323001C04001B1C0480211C0500271C06003301
:103333001C3000511C31004B1C32005D1C330063F8
:103343001C3500691C34006F1C3600751C1100818C
:103353001C1400871C1500451CFFFF00000A000019
:10336300000200000004000000080000001000003C
:103373000020000000400000008000000000010069
:10338300000002000000040000000800000010001C
:1033930000002000000040000001872506B7250833
:1033A300B1250BD525106F22028D2505A525079381
:1033B300250C6F250D7B25645320FF0000030003BC
:1033C300000400080010001F003E007B00F600EC24
:1033D30001D703AF075D0FB91E713D000007ECFD78
:1033E300FDFDECDCDCCCBCACAC9C9C8C7C7C6C6CC8
:1033F3005C5C5C4C4C3C3C2C2C1C1C03EAF5E5D57A
:10340300D5C5B5A5959585857575656555554545A9
:103413003535252515150500160F00000B150B0274
:103423000002220F3300000E0F5A6967426565419F
:103433006C6C69616E636530390000000000000048
:10344300000000000000000000D0D1D2D3D4D5D6B4
:10345300D7D8D9DADBDCDDDEDF00034D4C4651186B
:103463001A250502303016181920231A1C1E3000A5
:103473003C40423A3F3F392F473000011916181696
:103483001618230300303017181921301B1D1F3065
:103493000C0E020B040B0A0708000F0204020101C1
:1034A3000101090200BE040AE8030000E80300006A
:1034B300010003007F0000000E000004040804055F
:1034C300030A0C101508091E0C28FF031002090338
:1034D3003C0C050815001EE4F0A3F0A3F0A3221290
:1034E30034DAF022901C9B124AE612297722123416
:1034F300F522E0F508E4F509F50AF50B22E824FBCB
:10350300F582E934FFF58322E82411F582E439F5E5
:1035130083E022F58312351C22E0F508A3E0F509C8
:1035230022122BF37404120D657F08020AFB740147
:10353300F09006C0E0640F227409120D657F040247
:103543000AFBEA2413FAE43FFB122B21E922790553
:10355300122B2D740622A3A3E024F5C39413221285
:103563002BFF9006E0126AA47A147B0022C082C06B
:1035730083901C7A746BF0A37429F0A3747DF0A379
:103583007429F0901C7E7453F0A37429F0A3744D36
:10359300F0A37429F0A37489F0A37429F0A3748FA2
:1035A300F0A37429F0A37483F0A37429F0A3743BEC
:1035B300F0A37429F0901C8A745FF0A37429F0A31C
:1035C3007465F0A37429F0A37459F0A37429F0A3CC
:1035D3007495F0A37429F0901C9B1254B560099064
:1035E3001C9B124AE212171D901C98124DFC740882
:1035F300126151A3F0901D44F0901C9DF07C0BFDD3
:10360300F97A9E7B1C12164B7C0B7D0079007AA9FC
:103613007B1C12164B024C5674F712084174F712B6
:103623000E18EAFEEBFF1236AE7405124F1A74033E
:10363300F01237C5124EFC2430FCE43FFD8C82129D
:1036430036A61236BA6008123ED374FFF0A3F0EE2A
:10365300242EE43F1C1CFD8C82F583A3E0C0E08A8A
:10366300828B83124BAED0E01236BA8882898312E2
:1036730053E92403F0EE123EDD1210867403F0903A
:1036830006D5120BBA7402120DF8123AA7120D6581
:10369300E9F5087007EEFAEFFB122A07A908740987
:1036A300023EECF583E08882898322EA1236B32254
:1036B3001255F83FF583221263D1124F08E8F0A3A5
:1036C300E91266A8E02274F0120841EAFEEBFF8CCF
:1036D3000C8D0D890B1237C5F583124F1074101220
:1036E3001086E0F508A31236A8F0E824FFF582E976
:1036F300123AB9E508F0E824FEF582E9123AB9E591
:103703000BF09006DAE0C0E0E824FDF582E9123A16
:10371300B9D0E0F09006D9E0C0E0E824FCF582E9F6
:10372300123AB9D0E0F0741212108612351812351D
:1037330000E509F0E824FAF8E934FFF98882F58313
:10374300E508F0EE2404FCE43FFD88088A828B83BD
:10375300E0F50E8C828D83E0250EC395081263D1AC
:10376300124D36850C82850D83A3A3A3A3A3A3A324
:10377300A3E064037009EE124EEAF0A3E48003129F
:103783003ABE123AC67409F075089E75091C750A8B
:10379300007808120D84125E9B120D657508FF7583
:1037A30009FF7808120D88AC0CAD0D123AA7120D63
:1037B30065E9F5087007EEFAEFFB122A07A908027C
:1037C300352CEA2402FAE43FFB8A8222C082C083BA
:1037D300901CBAE0C39408400474078001E08A8215
:1037E3008B83F033333354F8F9024C5674F01208D8
:1037F300418A088B09890A8C0E8D0F750C00A2AFC4
:10380300E433F50BC2AF901CB480451238F1503D40
:1038130012390B64037036E50824F9F508E5093419
:10382300FFF5098E828F83A3A3E02405FCA3E03474
:1038330000FDAA08AB09121807E50824FFF508E5FF
:103843000934FFF5097410250CF50C150A123CE038
:10385300126E59E50A6004EE4F70B0E50BA2E092D8
:10386300AFA2AFE433F50BC2AF901CB4803E12534A
:10387300C28882F583124636850882850983F08AD9
:10388300828983123902A3A3E0C0E0E50824FFF58F
:1038930082E509123AB9D0E0F0E50824FEF508E51F
:1038A3000934FFF509050C150A123CE0123B34609C
:1038B3002112390B640270F11238F1EE40B012504C
:1038C30031A2E550E4850E82850F837401F0E50A89
:1038D30070D7E50BA2E092AF850882850983E50CDA
:1038E300F0E50824FFFAE50934FFFB02352C123812
:1038F300F7A2E622EE2411F582E43FF583E02212DB
:10390300390622125407A3228E828F83A3A3124B5C
:10391300B2125ADE2274F012084174F3120E1874B4
:1039230003121086E9F07402121086EAF08B0B85FD
:103933001882851983E4F004120DF012291DE9F8A9
:103943009006BFE0292437F508FA7B001216638A34
:103953000C8B0DAE0CAF0DEA4F7003023A9EEA24B6
:1039630002F50EE43FF50FA808EA28F8E43BF985D1
:103973000E82850F831244329006BFE0F9FAC3E446
:103983009AFA95E0FB850E82850F83E02AF50CA356
:10399300E03BF50D9006BD123518750A0078081244
:1039A3000D84E9FC7D00AA0CAB0D124E6C120D6563
:1039B300AC18AD197401121086E0F9E50C24FFFA76
:1039C300E50D34FFFB1229238A828B83E4F0E50B98
:1039D300C454F0F9901D45E0C4333354C0F8900645
:1039E300B9E0A2E0E43313134849440FC0E0EA24EA
:1039F300FFF582EB123AB9D0E0F0EA24FEF50CEBC6
:103A030034FFF50D7403121086E0F8740212108669
:103A1300E0C454F048850C82850D83F0A80C850E14
:103A230082850F8312611E2AC3988E828F83A3A37C
:103A3300A3A3F0850E82850F83E8F0A3E50DF012B2
:103A43003ABE123AC6E4F0740C121086E4F075081C
:103A5300A975091C7808120D84125E9B120D6585E9
:103A63001882851983E06009EE240E12503344084E
:103A7300F0122B0FE9F9E4F508F5097808120D881F
:103A83007406120DF8123AA9120D65E97006EEFAE2
:103A9300EFFB800BEEFAEFFB1216697A007B0074E2
:103AA3000D0235297903EEFAEFFB122B277402225C
:103AB300EE24FFF582EF34FFF58322EE1236B3E4F2
:103AC300F0A322F0123ACB22EE125DBE3FF5832221
:103AD30074F21208418A0C8B0DA2AFE433F50AC2CB
:103AE300AF750800750900901CB4802C123CF0508F
:103AF30024850C82850D83A3A3125EAE8E828F83F1
:103B0300A3A3124AE2122B15E9600A123CEBC2E6A8
:103B1300F08E088F09123CE0123B3470CFE5084564
:103B2300096006123BCDD2E6F0E50AA2E092AF802F
:103B33000DE0FEA3E0FFEE4F227402120D657F0637
:103B4300020AFB74F01208418A0E8B0F8C0C8D0D48
:103B5300750A00A2AFE433F50BC2AF7E007F00907D
:103B63001CB48010AE08AF09123BC5125031D2E726
:103B7300F0124AC0124AD46034123BCDA2E750F18E
:103B8300850882850983A3A3120BBAAC0CAD0DAAD9
:103B93000EAB0F122B1B7402120D65E960D3EE4FAF
:103BA30060C2123F677006123BDFD2E4F0E50BA25E
:103BB300E092AFEE4F6006122A01750A01A90A02CC
:103BC300352C1238F7D2E4F0EE22E508125DD83531
:103BD30009F583E022AA82AB831218078E828F83B2
:103BE300A3A3124BB2E02274F212084174FE120E28
:103BF30018750C00750D00851882851983E4F0A3F0
:103C0300F0A2AF33F50AC2AF901CB4126E59802BE9
:103C1300EE24FBF582EF34FF123516780C120D8873
:103C2300123CCE120D65EEFCEFFDAA18AB1912166D
:103C330087AE08AF09901CBAE014F0EE4F602B1268
:103C43003CF0501DEE240BF8E43FF98882F583E045
:103C530024FFF0A3E034FFF0888289831254B56017
:103C6300AF8E0C8F0D123CE080A1E50AA2E092AF6B
:103C7300901CBAE0602C9006C0E0640F6006901DB3
:103C830044E0701E7A927B1C122BFF9082FF120B72
:103C9300B67A927B1C124CDE120D65800574F0120D
:103CA3004BBFAA18AB1912168D8A088B09AE08AF41
:103CB30009EA4F601312292F123CEBA2E28E828F86
:103CC30083A350D974E980D7023B3CEEFCEFFD7A25
:103CD300B47B1C1216997402228E0A8F0BEE24FBFE
:103CE300F582EF34FFF58322EE1238F8221238F70B
:103CF300A2E72274F7120841EAFEEBFF12292F1202
:103D03004BAB120A16E964019006DC700AE0240149
:103D1300F8A3E034008003124B31F9125233124DF1
:103D230036901CBAE0701F9006C0E0640F70177ADB
:103D3300927B1C122BFF9082FF120BB67A927B1C94
:103D4300124CDE120D65A8A8C2AF901CBAE004F0B5
:103D5300E8A2E78004E508A2E092AF02514174F7BC
:103D6300120841EAFEEBFFEA123D97F012292FEE0B
:103D7300FCEFFD7AB47B1C121693A8A8C2AF901C6B
:103D8300BA1246859006C0E0640F70057908122ABE
:103D9300C70251411238F8C2E42274F71208417481
:103DA300EA120E18EAFEEBFF9006B9E0602A8518C6
:103DB300828519837401F0121086E4123E521210A8
:103DC30086123BD8C0E0740A121086D0E012613E1E
:103DD300740B12108612539E7416023EEC74F71283
:103DE3000841EAFEEBFF122911E9F974DC69601E50
:103DF30074DD69601974E469601474F369600F74A5
:103E0300DE69600A74DF69600574DB697007EEFAC6
:103E1300EFFB122ACD02514174F712084174EB12E1
:103E23000E18EAFEEBFF8518828519837406123E8D
:103E330052121086AA82AB83121807EE2408FCE400
:103E43003FFD740A12108612539E7415023EECF065
:103E5300EA2413FCE43FFD74022274F71208417450
:103E6300F7120E18EAFEEBFFEA2430125033605DBE
:103E7300EA123EDD1210867403F09006D5120BBAD7
:103E8300123ED3120BBA9006E8E0F97404120DF84F
:103E9300EEFAEFFB1229177404120D65E9F974DCCD
:103EA30069602374DD69601E74E469601974F369E1
:103EB300601474DE69600F74DF69600A74E8696016
:103EC3000574DB697007EEFAEFFB122ACD0236A107
:103ED300EE242EF582E43FF583221262AFAA18ABDB
:103EE300191218077408227403120D6502514174E4
:103EF300F21208418A0C8B0D750A00750B007508C8
:103F0300E7A2AFE433F509C2AF901CB48003123CBF
:103F1300DC123B346025123CF050F3123F6770EE25
:103F2300EE24321240FEE06870E4780A120D881223
:103F33003CCE120D65901CBAE014F0E509A2E092A4
:103F4300AFEE4F6013EEFAEFFB12292F79F0EEFA82
:103F5300EFFB122ACD750800A908AA0CAB0D122A93
:103F6300CD023B41123ACBE064012274F4120841C2
:103F730074F7120E18EAFEEBFF8A82F583A3E0645E
:103F8300F3700302400C8A828B83A3E064DF6079C1
:103F93008A828B83A3E064E8606F8A828B83A3E0C9
:103FA30064DB6065122971E9F5087055EE240E1281
:103FB3005033604D12401660487408121086124048
:103FC30025120BBA7508FF7509FF7808120D888E44
:103FD300828F83A3A3A3A3A3A3A3A3E0F9740412CF
:103FE3000DF81229177404120D65E9F50874F369C5
:103FF300600F74DF69600A74E869600574DB6970D7
:104003000F8E828F83A3E508F0EEFAEFFB12297D72
:1040130002353BEE240FFAE43FFB79091229B3EA98
:104023004B2274021258A474FFF0A31240322212DE
:1040330053F2A3A32274F1120841EAFEEBFF7508C1
:10404300008A82F583A3A3A3A3A3A3123559400334
:104053007508E88A828B83A3A3A3A3A3A3A3A3A323
:10406300A3E0C3941040057508E880138A828B830C
:10407300A3A3A3A3A3A3A3A3A3A3E0640F600B9091
:104083001D21E0540870037508E8EA240B1240FE72
:10409300A3A3A3A3A3A3A3A3E0C398500DEA240B54
:1040A300125033640F60037508E89006D9E0F4708A
:1040B30003A3E0F470037508EC7A237B001217174F
:1040C3008B0BA90B901C9B12410D60278E828F8353
:1040D300A3A3A982AA83890C8A0D750E00780C12FA
:1040E3000D847C237D00901C9BE0FA124E6C120D14
:1040F30065800375081AA908025E96F582E43FF508
:1041030083E0F88A828B83A3A322EAF0A3EBF0EA8D
:10411300492274F5120841EAFEEBFF8A82F583A374
:10412300A3A3A3A3A3A3A3E09006C01241A5E09079
:1041330006DBF0EA240B1250339006BB1241A5A311
:10414300E0901D45F0F91213CF901D45E0600BEE92
:104153002404125025240612419B901D441235312C
:104163006004740180027400901C9D1267E9120DB3
:10417300847C0B7D007A9E7B1C124E6C120D65EEC7
:104183002418F508E43FF5097808120D847C0B7DAB
:10419300007AA97B1C024E59FAE43FFB79E1121322
:1041A300B7221267D3A3A3A3A32274F7120841EA89
:1041B300FEEBFF8A82F583A3E070031234E71263F8
:1041C3005A02514174F7120841EAFEEBFF901C9B1F
:1041D3001254B56010901C9B124AE2901C9BE4F0B1
:1041E300A3F012171D8E828F837408124BC6121F01
:1041F3003902514174F6120841901D44E060109059
:104203001C9DE0700A124215EA4B6003122A070252
:1042130064549006BBE0FB9006DBE0FA9006C0E036
:10422300F91229292274F412084174E7120E18EACC
:10423300FEEBFF750B018A82F583A3A3A3A3A3A3BC
:10424300A3E0A2E25069EA242BF582E43F125EACBC
:10425300EA2413FAE43FFB122935E9705290823CB9
:10426300E064017005750B0080451242E7120D846E
:104273007C0B7D007411120DF0124E6C120D651241
:104283002B0FE9FA740E120DE888088909780812D1
:104293000D887508307509007808120D88EE1261D3
:1042A30007120BBA1262A17901123553120D6585FB
:1042B30018828519837410F01262A1740212108699
:1042C300AA82AB831217FBEE242B126A9A740B1289
:1042D3001086124D36740D121086E50B1265137499
:1042E3001902353DEE24081267F122C082C0839083
:1042F3001D45E06003122B81024C56C082C083909F
:104303001D3C747AF0A3741CF0A3747EF0A3741C98
:10431300F0A3748AF0A3741CF0901EAD7486F0A30E
:104323007431F0901D26740BF0A37429F0901CBF18
:104333007441F0A37429F0901CC17447F0A374294D
:10434300F0901D21E0440202475AC082C083EAFC78
:10435300EBFD7903025461C082C08379080265D4FE
:10436300C082C08374FE120E18901CC774EFF0A3B2
:104373007429F0901CC974E9F0A37429F080077ABA
:10438300B47B1C1243BF901CB41254B570F1901C43
:10439300B61254B560097AB67B1C1243BF80EF9006
:1043A3001CB4E4F0A3F0901CBAF0A3F0A3F0901CAB
:1043B300D5742BF0A3742AF07402801C12168D8519
:1043C3001882851983EAF0A3EB1243D3122AFD2244
:1043D300F0AA18AB19227411120D65024C5674F62B
:1043E300120841E9FF747229F582E43434F583E459
:1043F30093FEFA7B00121663EA4B6007EA2E12441F
:104403002F80267A027B00121663EA4B60177488AA
:104413002FF582E43434F583E4938A828B83F0A30B
:10442300741A1247F87A007B00026454124D25E88F
:104433001263CEA3A3A3A3E4F022E9FC740629F834
:10444300EAA2E0501EE875F00A84E5F0F9601474FE
:104453000A28C399F8E9C394054004740A28F87438
:104463000B28F8ECC394134004791480027906E80E
:104473002979002409F85001097A0A7B001206629F
:10448300E8F9020D32C082C083901D21E05402601E
:104493000A121F3FE96004790180027900024C5639
:1044A300C082C083901D21E054026014901CBAE0C6
:1044B300700A1254B260091244C850047901800290
:1044C3007900024C5612350BA2E722C082C08390BA
:1044D3008239E0F8901CBCE0C39850051216638043
:1044E300047A007B00024C56C082C083122AFD79F5
:1044F30000024C56C082C08374FE120E18851882C7
:10450300851983EAF0A3EB124661A3A3A3A3A3E057
:10451300600A14605724FE605A0245D19006C0E039
:10452300640F6012122AD3E9700C124ADC901CC388
:10453300124BAE120A169006E8E0C0E08518828599
:1045430019831253D5D0E01246617414125DF2FC44
:10455300A3E0FD7AB67B1C121687A8A8C2AF901CF5
:10456300BC1246857920122AC70243BB12492F7415
:104573001580D912492FA3A3A3A3E0605112492F99
:10458300123BE3C0E0851882851983E02406F58297
:10459300E43BF583D0E0125DF22402F8A3E034009B
:1045A300F98882F583E02401FAA3E03400FB8882D2
:1045B3008983EAF0A3EB125DF212496F85188285B5
:1045C3001983601312463660051246484048AA18FC
:1045D300AB19122AFD809212463660F212464850F9
:1045E30021124655FA851882851983A3E0C824064B
:1045F30012492BF8749D1255EA3434F583E4936A17
:104603006014851882851983124636640870BF12B8
:104613004655640870B812465514124669240AC0F8
:10462300E0851882851983124BAED0E012466904E7
:1046330002454F12463A22124B31C82406F582E452
:1046430038F583E02285188285198312463AC3948C
:104653000A22851882851983123906A3E02212469D
:1046630073F583888222124673C82406124959229D
:10467300F0851882851983124B3122A8A8C2AF9006
:104683001CBBE004F0E8A2E792AF22C082C0839093
:104693001CCB1254B56008124936120A16800279EF
:1046A30000024C5674F7120841EAFEEBFFEA123A95
:1046B300CC7401124CE4F8A3E0F91236AE124D3675
:1046C300EA2435125033C0E0EA2413F582E43FF5BF
:1046D30083D0E0F0EA2436125033C0E0EA2414F524
:1046E30082E43FF583D0E0F0EA2438125033C0E08F
:1046F300EA2418F582E43FF583D0E0F0EA242FF5AD
:1047030082E43FF583120BBA1262AEEA24311250EF
:1047130033F9123AAD120D65E9F5087007EEFAEFB9
:10472300FB122A07A908025141C082C083122AD36F
:10473300E96004792080027901024C56C082C0836B
:10474300EA2411124750D2E0800DEA240DF582E4E9
:104753003BF583E022F0A3F0024C56C082C08312E3
:10476300474D640170111247F2400C8A828B83A378
:10477300E0F9122ACD80661247E3A2E650128A823C
:104783008B83A3E0F9901CC5124BAE120A16804D21
:1047930012474D6401700D1247F250088A828B83D1
:1047A300743080368A828B83A3E0641B8A828B8376
:1047B300700474228024A3E0700D12474DF87467CF
:1047C3001255EA3434800B12474DF874881255EAB7
:1047D3003434F583E4938A828B831247F8024C5670
:1047E3001247E722EA2410F582E43BF583E0221224
:1047F30047E7A2E322F0901D1CE0F912166F227422
:10480300F7120841E9FE1254B27003024928EE6020
:1048130014741B6E701AE8125DBE39F583E06405EB
:104823007003024900901CBE124936A3E4024907F3
:1048330074E96E7068E82412F582E439F583E07058
:104843000B121F45E96005124979606179EE121375
:1048530039901CBD124950901CBD603A12497C909E
:104863001CBD700B12495014F01214EF02492812A8
:10487300496EC2E7124B17240D12492B64037009CA
:10488300124949124ACDD2E2F079ED121339124995
:1048930061120A16807812493C74E9806774E16EEC
:1048A300703E121F45E9605512497970509006E237
:1048B300E0C0E01249492412F582E438F583D0E0E0
:1048C300F09006D1E0C0E0901CBD12494512494565
:1048D300D0E0F09006D1E004F079011214D78045BE
:1048E300741C6E7018901CBD124AE2901CCD124BC2
:1048F300AE120A16901CBDE4F0A3F08028901CBDF4
:1049030012493CEEF0901CBD124AE21229F5124AFC
:10491300F8E0548060031265C3901CBDE4F0A3F07B
:104923007910122AC70251411249592285188285EA
:104933001983A3E0F58388822212494022124BB6E1
:10494300A32212540322901CBD1253E4221253E4F7
:10495300241212495922F582E438F583E022901C8F
:10496300BD124AE6901CC1124BB222E0F8A3E0C884
:10497300241012495922901CBD124AFFE05404220C
:1049830074F4120841750A00750B00A2AFE433FEFC
:10499300C2AF1254B26003024A76124BAB120A162C
:1049A300E94410F8901CB4800985080A85090B12A4
:1049B3004AC0124AD47003024A76123BCD5868703B
:1049C300E8780A120D88AC08AD09123CD2120D65C5
:1049D300901CBDE508F0A3E509124B17124ACDA2BE
:1049E300E75003024A7D901CBBE014F0EEA2E09274
:1049F300AF901CBDE0240EF8A3E03400F9E8FEE913
:104A0300FF8882F583124AE2901CBD12465BF912BD
:104A130029B9E9901CB81261518E828F83E05480CA
:104A23006018124949241312492BF91213F312493E
:104A330049241412492BF91213E7124AF8A3E0543C
:104A430001605F901CB81254B56045124B0E604074
:104A5300124B0EF87900901CB8124AE212066AE86B
:104A6300C0E0124AECD0E0124B1CC3941340117403
:104A730002800FEEA2E092AF8037901CBA0249EC9D
:104A83007400C0E0901CBEE0C8124AB7D0E0800DAD
:104A9300124AEC7401124B17124AB77401F07903EE
:104AA300800C901CBD12496EA2E1B3E433F91214D9
:104AB300D7023540241AF582E438F58322E5082429
:104AC300FBF582E50934FFF58322125DD812495CB8
:104AD3002212351CE508450922851882851983129F
:104AE3004AE622E0FAA3E0FB221253E12419F582FD
:104AF300E438F58322901CBD124AFF22124B31C8C1
:104B0300124B07221255F838F583221253E1241869
:104B130012495922124B29C822124B29F583888244
:104B2300A3A3A3A3E022F0901CBD124B3122E0F813
:104B3300A3E02274F7120841EAFEEBFF122AF712F0
:104B43005030A2E3400A123F67700590823780031A
:104B5300908238E0F9EEFCEFFD7AB47B1C12169FCD
:104B6300E96038EEFAEFFB901CC7124BAE120A163F
:104B7300EE240E1250335404701212467EEE123697
:104B8300AFA3E05401701E122A018019EEFAEFFB65
:104B9300901CBF124BAE120A16800A8E828F83A31B
:104BA30074F1124BBF025141901CC9124BB2221235
:104BB3004BB622E0F8A3E0F583888222124BC6129B
:104BC30029F522F0EEFAEFFB22024C4F74F712089C
:104BD30041EAFEEBFF7900901D21E05402700CEADC
:104BE30024331250335404600279E8901D21E054B9
:104BF30060700CEA24331250335402600279E88A5D
:104C0300828B83A3A3A3A3E0F890823DE0C39850D3
:104C13000279E8EA2431125033700CEA242E125040
:104C230033700479F5800BE970051229E3E9F9E99A
:104C33006007EEFAEFFB122ACD025141C082C08316
:104C43008A828B83740DF0121F398007C082C08360
:104C5300122A01D083D082020D3274F4120841EA81
:104C6300FEEBFF8A82F583E4F0A3124CE454049034
:104C730082377012E0F8901CBBE0C398401279F1C0
:104C8300122ACD023540E0F8901CBAE0C39850EEEA
:104C9300124CEAA3E054016037EA2437125033C3BD
:104CA30094054033EA2433125033540570297ACFE4
:104CB3007B1C122BFFEE2437F582E43FF58312347D
:104CC300F17808120D807ACF7B1C124CDE120D6531
:104CD300EEFA1256DB80AC79E880A5122BF374044C
:104CE30022F0124CEAE022EA2433F582E43FF58312
:104CF3002274F6120841E9FE2451FAE43400FB124F
:104D03001663EA4B6015EE8A828B83A3A3A3A3F0F9
:104D1300EA2451124D25124D3680047A007B00029D
:104D23006454F8E43BF98A828B83A3A322126AA416
:104D3300901D99E8F0A3E9F022024C4FC082C08392
:104D4300901CD87455F0A3742AF0A37485F0A3744F
:104D53002AF0A3745BF0A3742AF0A37461F0A37424
:104D63002AF0A3747FF0A3742AF0A37473F0A374DE
:104D73002AF0A3746DF0A3742AF0A3748BF0A374C8
:104D83002AF0A37491F0A3742AF0A37497F0A37488
:104D93002AF0A374A3F0A3742AF0A37467F0A37496
:104DA3002AF0A3744FF0A3742AF0A37449F0A374F8
:104DB3002AF0901CF47479F0A3742AF0A3749DF084
:104DC300A3742AF0A374B7F0A3742BF0A374A9F00F
:104DD300A3742AF0A374AFF0A3742AF0901D18E40F
:104DE300F0901D1BF0901D04124DFC7402F0901DF9
:104DF3000D124DFC740102475A74C7F0A3742AF0D4
:104E0300A32274F512084174F1120E1885188285D5
:104E130019837402F07401121086E9F060047AFFBA
:104E23007BFF740212108612589975081075091DBC
:104E3300750A007808120D847C0B7D00740712102C
:104E430086AA82AB83124E6C120D65AA18AB191297
:104E53001F39740F8003124E6C120D657F03020A13
:104E6300FB7C0B7D007A107B1D12163F74032274AA
:104E7300F712084174FD120E188518828519837480
:104E83000AF07401121086E9F07402121086EA1215
:104E93006513023EEA74F612084174F7120E18EA1B
:104EA300FEEBFFEA124EEA124F1A7402F0EA2428CC
:104EB300FCE43FFDAA18AB191217FBEE2431124E86
:104EC300F02433125F12120D887402120DF87983E5
:104ED3001A1A123AAB120D65E9F5087007EEFAEFEC
:104EE300FB122A0702644D1236B3740122F582E4E1
:104EF3003FF58312351C1253BAF583124F08E8F0BD
:104F0300A3E9F0EE22124F108A828B8322E024FF62
:104F1300F8A3E034FFF922F0A3E4F0EA123ACC223A
:104F230074F012084112698212102F7808790C125A
:104F330007527808120D807A077B1D02352474F41A
:104F430012084174C6120E189006C0E0640F600D7B
:104F5300851882851983742E1258B880227AFE7BB5
:104F63001C12356212066A88088909E4F50AF50BF2
:104F73007808120D807AFE7B1C124CDE120D6574CC
:104F83003A02353D74F5120841EAFEEBFF8A82F5D9
:104F930083A3E0F87078EA24301250336402600788
:104FA300E06403600278E8EA2426F582E43FF583AF
:104FB30012355B400478E88058E87052EA242612E0
:104FC300419BEE2431125025243012503364027079
:104FD3000EEE2428126A9A9006CF124D368017904F
:104FE30006CF74FEF0A304F0EE2428FCE43FFD7A20
:104FF300C67B06121807EE241B1242EA120D841216
:105003004E64120D65EEFAEFFB122A43E9F8E860ED
:105013000EE88E828F83A31262B674171263600246
:105023004E5FFAE43FFB79501213B7EE22EE2410E1
:10503300F582E43FF583E02274F612084174F71217
:105043000E18901D1BE070377401F0F91214A1AA19
:1050530018AB19122B0975081075091D7808120D64
:10506300887508017509007808120D889006D51215
:105073000BBA7406120DF87A03123551120D65023C
:10508300644F74F71208411252617004A374EBF079
:10509300901D1BE0A2E25003C2E2F0E0A2E1500542
:1050A30012527280098E828F83742A1263600251B6
:1050B3004174F412084174FE120E18125167125310
:1050C300ADEC8518828519831253FCE0F50B70153E
:1050D300AA18AB1979531213B7EE2413FAE43FFB62
:1050E300794A1213B71242E7120D84124E64120D5D
:1050F30065124ADCA90B122A37901D1BE0A2E1506E
:1051030003125279901D1BE4F0740202353D74F7CB
:10511300120841EAFEEBFF8A82F583A374EBF09059
:105123001D1BE0A2E150077A0079EB122A3DEEFA4B
:10513300EFFB122A738007EEFAEFFB122B757F0148
:10514300020AFB74F7120841125167901D18E4F02C
:10515300901D1BF07AFF7BFF8E828F83A3E0F912F1
:105163002A3780DA1252B27A077B1D122BFF227480
:10517300F7120841EAFEEBFF122A6D80BA74F712A8
:1051830008411252EFA3A3A3E060047400800274E9
:10519300EB1251C05003C2E2F0E0A2E150051252FB
:1051A300C38011A2E0500D8E828F83742AF0A37402
:1051B300EB126360EEFAEFFB122A1980818E828F65
:1051C30083A3F0901D1BE0A2E22274F6120841EAC9
:1051D300FEEBFF901D1BE0D2E1F079011214A18ECA
:1051E300828F83A3E07038122B0FE9FAEE240DF5BA
:1051F30008E43FF5097808120D8875080175090060
:105203007808120D88125233120BBAEE2402FCE412
:105213003FFD123551120D65E98E828F83A3F08E07
:10522300828F83A3E060067A00F9122A3D02645458
:10523300EE240BF582E43FF5832274F71208411242
:1052430052617004A374EBF0901D1BE0A2E25003C3
:10525300C2E2F0E0A2E15003125272025141EAFEAF
:10526300EBFF79011214A78E828F83E0642022C2A0
:10527300E1F0125279227A008E828F83A3E0F91231
:105283002A3D2274F71208411252B28E828F83A3F1
:10529300A3A3A3E060047400800274EB1251C05016
:1052A30003C2E2F0E0A2E150031252C30251B7EA93
:1052B300FEEBFF79011214A77AFE7B1C122BFF224F
:1052C300C2E11267E4E0A2E4E433FA12527B2274EF
:1052D300F71208411252EF74EB1251C55003C2E2A8
:1052E300F0E0A2E15003125272025141EAFEEBFFD9
:1052F30079011214A78E828F83A32274F7120841B7
:1053030012531402513A74F7120841125314025102
:1053130041EAFEEBFF7AFE7B1C122BFFEEFAEFFB5A
:10532300122A972274F712084174EF120E18EAFE3C
:10533300EBFFEA1262A27AC67B061217F5E9605602
:105343008518828519837409F0740112108674EF2D
:10535300F01253AD7402121086EC1253FCA3A3E0B7
:10536300C0E07404121086D0E01253E9640870158B
:105373008E828F83A3A31253D5E0C0E0740512106D
:1053830086D0E080067405121086E412613E74062E
:1053930012108612539E7411023EECAA82AB831242
:1053A3002B3FAA18AB19121F39221253BAF58312D5
:1053B30053CCFCA3E0F922EE1253C2FB88822224D1
:1053C30002F8E43FF9E8FAE922124B318882F583C7
:1053D300E0221253E42407F582E438F58322901C7B
:1053E300BD124B31C8221253ED221253F2E022F0C8
:1053F3008E828F83A3A3A3A3221263CE125403220C
:1054030012540722E0F8A3E0F5838882A3A322C005
:1054130082C083122B81024C56C082C083901D38F8
:1054230074D8F0A3741CF0A374F4F0A3741CF0906C
:105433001EA77424F0A37431F0A374C2F0A37430D4
:10544300F0901D247431F0A3742AF0901D21E044E0
:105453000102475AC082C083EAFCEBFD7902122A9B
:10546300E5024C5674F612084174FE120E18901D94
:105473001D1254B560077A1D7B1D122AFD901D2352
:10548300E4F0900D841254B560208007AA18AB197C
:10549300122AFD901D1CE0F912167B8B09A90985C0
:1054A300188285198312410D70E2740202645190CF
:1054B3001CBD126AA4E8492274F7120841E9FA7B79
:1054C30000901D1CE0F91216A502514174F7120851
:1054D3004174F0120E18EAFCEBFDE9FE8A828B831D
:1054E300E0F874931255EA3434F583E493C0E0741E
:1054F30001121086D0E0F0640B700DE98A828B8371
:10550300A3F0122B630255E5E070030255E5640C2A
:1055130060030255D6741A6E700B7404121086E47D
:10552300F0A30255D57404121086125899EA243256
:10553300125DA2C0E07403121086D0E01267CF128E
:105543001063740612108612106F8C828D83A3A3CE
:10555300A3A3A3A3A3A3A3126AA0740A121086E8A9
:10556300F0A3E91255EFE0541060098518828519FC
:1055730083E48013EC2412125DA2F89006E2E0C3E8
:1055830098851882851983F0E0C0E0740C121086A8
:10559300D0E0F0EC2415125DA2C0E0740D12108669
:1055A300D0E0F0EC2416125DA2C0E0740E12108657
:1055B300D0E0F0EC2417125DA2C0E0740F12108645
:1055C300D0E01255EFA3E054016008740112108675
:1055D3007411F07402121086EEF07401120DF012C1
:1055E3001F397410023EEC28F582E422F0EC1255C8
:1055F300F83DF58322240EF582E422C082C0839015
:105603001D23E064037004790180027900024C5683
:1056130074F7120841901D23E012568E74A528F5E5
:1056230082741E39F583125B20C2E7F0125695A3EC
:10563300E493FE25E0FCE433FD74A52CF582741E8F
:105643003D125EACEC4D6005EE901D23F08A828B1B
:1056530083E025E0FCE433FDE82CF582E93DF583A6
:10566300E493FCC4540F25E0F874321255EA341D58
:10567300F5831254B57005122B51800CEC540F12A4
:105683005695124BAE120A1602514125E0F8E43347
:10569300F92225E0FCE82CF582E439F5832274F243
:1056A30012084174FE120E18890B8A088B091257CF
:1056B30040125731601A12614BF50A7808120D84B3
:1056C30012574D2402125EA2120D651256D98003A1
:1056D30012575F023B3CAA0CEFFB901D1CE0F91232
:1056E300166F2274F012084174FE120E18890B8A89
:1056F3000E8B0F125740F508125731602712614B7A
:10570300A808EA2812442F850E08850F09F50A78A0
:1057130008120D8412574D125EA0120D651256D950
:105723007900800512575F791A7402023529FA7BD2
:10573300001216638A0C8B0DAF0DEA4F22745C299D
:10574300F582E43434F583E49322A80B747D125577
:10575300EA3434F583E493FC7D00EA2285188285DC
:105763001983E50BF0791AAA18AB19122ACD22C0B6
:1057730082C083E9901D1C02475A74F612084174D3
:10578300FE120E18EAFEEBFFEA542070308039A8AF
:10579300A8C2AF901CBCE0141246878A828B831286
:1057A3005886901D1F125899122AD9851882851977
:1057B30083E0641560077A1F7B1D122AFD7AB67B8E
:1057C3001C12168DEA4B70C7EF5480700C80169034
:1057D3001D1FEAF0A3EB1258AC901D1CE0F9121642
:1057E3007BEA4B70EAEE5410600B851882851983AF
:1057F300742D1258B8EEA2E0500B851882851983D8
:1058030074241258B8EE5402600B851882851983EC
:1058130074251258B8EE5404600B851882851983D9
:1058230074261258B8EE5408600B851882851983C4
:1058330074281258B8EE5440600D74011210861289
:10584300589F742C1258B8EE5480600D74011210D6
:105853008612589F742F1258B8901D1D1254B560AC
:105863001BA8A8C2AF901D1D124AE2901D1DE4F0B3
:10587300A3124687A3EAF0A3E91258AC7A007B008F
:105883000254AD12588A22E0851882851983F022CA
:10589300A3A3A3A3A3A3EAF0A3EBF022E41258A4C7
:1058A30022F085188285198322F0122AD97A1F7B68
:1058B3001D122AFD221243D3122AD922C082C08389
:1058C300901D1F12650E687002EB697007901D1F13
:1058D300E4F0A3F0024C5674F7120841EAFEEBFF22
:1058E300EA4F70031211B9A2AFE433F508C2AF8EC9
:1058F300828F831254B56028E824FBFAE934FFFB56
:10590300901D1F125EAEE86C7002E96D7007901D6A
:105913001FE4F0A3F08E828F83E4F0A3F012171D2F
:10592300023D58C082C083901D467445F0A3742B7A
:10593300F0A37457F0A3742BF0A3745DF0A3742B3E
:10594300F0A37413F0A3742AF0A37463F0A3742B6D
:10595300F0A3740DF0A3742AF0A37419F0A3742AAE
:10596300F0901D547493F0A3742BF0A37469F0A307
:10597300742BF0A3746FF0A3742BF0A3747BF0A3C8
:10598300742BF0A37475F0A3742BF0901D45E402FF
:10599300475AC082C0839006CFE064FE7003A3E041
:1059A300F470097CC67D061217FB801C8A828B83E8
:1059B300A3A3A3A3A3A3A3A37402F09006CF126A85
:1059C300A08A828B83124D36024C56C082C08390CC
:1059D30006D9C3E094FEA3E094FF40047903800258
:1059E3007902024C56C082C083125B298C828D835C
:1059F300125ADE687039740268701C8A828B8312B3
:105A03005A37E06870298A828B83A3125A37A3E03E
:105A130068701C7901801A7403687013EC2405FC08
:105A230050010DEA2405FA50010B12180180027986
:105A330000024C56A3A3A3A3A3E0F88C828D83A3F7
:105A4300A3A3A3A32274F61208417E00740A1210C2
:105A530086E0125AD2FF8A828B83A3A3A3A3A3A3B4
:105A6300A3A3E06F706474026F704E8A828B83C04D
:105A730082C08388828983A3A3A3A3A3E0F50888B4
:105A8300828983A3A3A3A3A3A3E0FBAA08D083D003
:105A930082E06A7003A3E06B703088828983A3A3DA
:105AA300A3E0FA88828983A3A3A3A3E0F9EA6C7035
:105AB30002E96D70157E01801174036F700CE82488
:105AC30005FCE439FD121801E9FEEEF9026454F80D
:105AD300A3E0F98882F583125ADE22A3E01313545C
:105AE3003F540322C082C0838A828B83A3A3A3A3D0
:105AF300A3A3A3A3E0640270169006CF125B2068F1
:105B03007003A3E06970047901800F7900800BEAC8
:105B1300FCEBFD7AC67B061217F5024C56126AA4FB
:105B23008A828B83E0228A828B83125ADEF8227464
:105B3300F012084174FC120E18E985188285198346
