:020000040000FA
:06000000020FE3020609F5
:03002B00020DB50E
:03004300020C6943
:0300530002053E65
:1000830002059D0100F0FF0700080000FFFF0000CC
:10009300070400000003000147726F757000FF043E
:1000A30000100020FD00020000A915000000000060
:1000B3000009160000000000008515000000000084
:1000C3000000000000911500000000000000000087
:1000D30000000006FFFF1E0193190000B71900007E
:1000E300000000000000000000000000000000000D
:1000F300124261736564206F6E205449204343327A
:1001030035333001010401000100058D9501A196ED
:1001130001040000241A000000E8030000FFFF9E12
:100123001A0188130000E803000064006400B801AA
:10013300A0BB0D00A0BB0D000202020704010105D4
:100143001E02051E020A0A0101010809080103B87B
:100153000B02803E0102FEFFE8030A050001FFFFD8
:10016300010A1401E00105030101FF0F10FEFF0363
:100173000003000300030003000300030003000364
:100183000005000A00140028004F009E0000003EF6
:100193003200000000B03000000000FF000000FF4C
:1001A30000120FF3601D1210027005191919801A3D
:1001B300120E97701F120EABC37003E66733191943
:1001C3001940071818182208080874FFF618F618BB
:1001D300F618F622120EAB6017121090702192F0EF
:1001E3001210997019501720F0140808080909090A
:1001F300E7F61819E7F61819E7F61819E7F62212C1
:10020300109960E6E869701F0808E62480F608E4A0
:1002130036F618547FB47F0CE654806007F6E41872
:10022300F618F622181822E9C6CC08C6CD08C6CEA1
:1002330008C6CFC0E0E8C0E0EAC0E0EBC0E009E9EF
:10024300F809E7FA09E7FBE6F918E6F8C3EC98EDD5
:1002530099EE9AEBC2E7F5F0EFC2E795F0500E6026
:100263000CEBCFFBEACEFAE9CDF9E8CCF8EAA2E74A
:10027300D2E7FAEB33FB13F5F0EEA2E7D2E7FEEF9A
:1002830033FFC5F013A2E730E601B313C5F0C3C0D3
:10029300E0C0F07F00C39BFB605E9418600F401DBD
:1002A30014601AD0E023F9D0E0F80203858AF0E95C
:1002B300486003D2F0E4AFF0FAF9F8803BEB30E4A6
:1002C3000D89F0EA6003D2F0E4AFF0F9CAF8EB303D
:1002D300E30D88F0EF6002D2F0AFF0E4CAC9F8EBA7
:1002E30054076014FBC3EA13FAE913F9E813F8EFB0
:1002F300135002D2E0FFDBEDD0E0C0E030E739C3BA
:10030300E49FFFF5F0EC98FC42F0ED99FD42F0EE2E
:100313009AFE42F0D0E0F9D0E0F8E5F0607AE92304
:10032300F9EE20E742D8028067C3EF33FFEC33FCDA
:10033300ED33FDEE33FE80EAEC28FCED39FDEE3AB9
:10034300FED0E023F9D0E0F84002801BC3EE13FE99
:10035300ED13FDEC13FCEF135002D2E0FF08B800DD
:10036300067F7F74FF802EEF3350178CF020F0024E
:1003730060100CBC000C0DBD00080EBE000408E8A4
:1003830060DFE933E813FFEE2313FE4F4D4C800883
:10039300E95480FFE4FEFDFCEE33EF33F47004FC1C
:1003A300FD7E80D0E0FBD0E0FAD0E0F8D0E0CFC60D
:1003B30018CEC618CDC618CCC6F92200120FF360AA
:1003C3004F1210026012E7548066F6120E977011F6
:1003D300121090703B090909F4F618F618F618F68E
:1003E30022120EAB701512109908080860EAE64451
:1003F3007FF618768018E4F618F622121099601624
:100403001210907012E4F608F608F608E65480F627
:1004130009090918181822EAC0E0EBC0E0ECC0E0B3
:10042300EDC0E0E687F0A4FBACF008E687F0A42C6F
:10043300FCE435F0FA1809E687F0A42C4B6002744B
:1004430001CA35F0FCE433FB09E687F0D2F7A42CAC
:10045300CB35F0FC1908E687F0A42BCC35F0FBE490
:1004630033FD0819E687F0D2E7A42C4ACB35F0CD4B
:100473003400FC09E687F0D2E7A42DCC35F0FDE487
:1004830033FA0918E687F0D2F7A42CCD35F0CA3435
:1004930000FC08E687F0D2E7D2F7A42ACC35F07A3D
:1004A3007E20E70B0ACB33CBCD33CDCC33CC33CB50
:1004B3003350147004ED30E00ED2F1E4CD3DCDCCD9
:1004C3003CCC3B5005DA05C2F1EB547FC63308E65A
:1004D3003392F0FBE73309E733C39A502D2B70199E
:1004E3000C0D4C4D70151806E608C333700D20F142
:1004F3000AA2F013F6E418800B4024E4F630F0026D
:10050300768018F618F618F68024D33B145010742E
:10051300FFA2F013F6187680E418F618F6800FA2FF
:10052300F013F618E63303F618ECF618EDF6D0E000
:10053300FDD0E0FCD0E0FBD0E0FA22C0E074F11281
:1005430008AFA2AFE433F509D2AF85A708AFA1EF97
:100553005508FE74105E600612131575A1EF74083A
:100563005E600812131B75A1F78024EFA2E092F0DE
:10057300E508A2E082F05017906198E0F89006A891
:10058300E0C398A2D265D0335002E8F075A1FEE52E
:1005930009A2E092AF7F0202096BC0E074F2120875
:1005A300AFA2AFE433FED2AF9061A4E0F8759B0035
:1005B300E59158540860087591F71213698023E593
:1005C3009158541060087591EF12136F8014E591E0
:1005D300A2E092F0E8A2E082F05007E0C2E0F0125D
:1005E30014B99061A3E0F8E5E9585404600E1214BD
:1005F3008F75E9FB906193E0A2E640F2EEA2E092F0
:10060300AF7F0102096BC0E074F21208AFA2AFE43E
:1006130033FED2AF9061A5E0F8E5BF5854046006FD
:1006230075BFFB1214D180D4C3E498F8E499F9128E
:10063300066C8026C3E49AFAE49BFBE920E7E912FF
:10064300066CE498F8E499F922C3E498F8E499F97C
:1006530012066CE498F8E499F9C3E49AFAE49BFB74
:1006630022EB20E7CFE920E7E0B90010BB0008E860
:100673008AF084F8AAF022E4FBC8FA22EB70227B0A
:1006830010C833C8C933C9335007C39AC3DBF280D8
:10069300069A50012ADBEAC833F4C8C933F4C9FA0D
:1006A3002275F008E4C833C8C933C933C99AC99B52
:1006B3005004C92AC93BD5F0ECFBC833F4C8E4C9DC
:1006C300FA2212070520F01430E72B74FFFCFBFA23
:1006D300747F8022E4FCFBFA7480801AB48008BC27
:1006E30000F2BB00EF800F50EBF9E4C39AFAE49BEE
:1006F300FBE49CFCE499C6CC18C6CB18C6CA18C642
:10070300F922E4C9C608CAC608CBC6D3330308CC4A
:10071300C63392F0C3947F402E94184019C9B90789
:1007230004CACBCC225025C309CA33CACB33CBCCA2
:1007330033CC33D9F422F4600DC9CCC313CB13CB20
:10074300CA13CAD9F6CC22E4FCFBFA2214FCFBFA46
:1007530022080808EAC0E0EBC0E086F0E7A4FA1834
:100763000986F0E7A42AFA180986F0E7A42AFA18FA
:100773000986F0E7A42AFA1986F0E7A4FBE5F02A34
:10078300FA190886F0E7A42BFBE5F03AFA19088674
:10079300F0E7A42BFBE5F03AFA18180986F0E7A472
:1007A300C5F02BFBE43AFA1908E7C5F0C6A426F610
:1007B300E5F03BFBE43AFA1886F0E7A4F6E5F00827
:1007C30026F6E43B08F6E43A08F6D0E0FBD0E0FA7C
:1007D30022E4CFC0E0E4CEC0E0E4CDC0E0E4CCC08E
:1007E300E075F020E626F608E633F608E633F60869
:1007F300E633F6181818EC33FCED33FDEE33FEEF59
:1008030033FFC3EC9709ED9709EE9709EF97191991
:1008130019400FFFEC97FC09ED97FD09EE97FE19C0
:100823001906D5F0BFECF709EDF709EEF709EFF775
:10083300191919D0E0FCD0E0FDD0E0FED0E0FF2292
:100843002518C582C0E0E51934FFC583C0E0E5186B
:10085300C3958224F810AF08858319858218800810
:10086300858319858218D2AFCEF0A3E520F0A37853
:1008730008E608F0A3DEFAEFF0A3E58124FAF8E630
:1008830008F0A3E608F0A3E608F0A30808E608F0DA
:10089300A3E608F0A315811581D0E0FED0E0F8159A
:1008A3008115811581E8C0E0EEC0E022C0D0251893
:1008B300C582C0E0E51934FFC583C0E0E518C395E0
:1008C3008224F310AF0885831985821880088583F5
:1008D30019858218D2AFC8F0A3E9F0A3EAF0A3EB1D
:1008E300F0A37908E709F0A3D8FAECF0A3EDF0A39D
:1008F300EEF0A3EFF0A3D0E0F0A3D0E0F0A3D0E0BC
:10090300F0A3E520F0A3E5F0F0A322E9799EC60861
:10091300CAC608CBC608CCC6C370207996CACBCC4E
:100923007019798ECBCC70137986CC700EF9802A2E
:10093300CA33CACB33CBCC33CC331930E7F2CCCB6D
:10094300CA3350147004EA30E00DE4CA3ACACB3B10
:10095300CBCC3CCC500209C3E913C6CC182313C635
:10096300CB18C6CA18C6F922851983851882E0C038
:10097300E0A3E0F9A3E0FAA3E0FBA37808E0F6081C
:10098300A3DFFAE0FCA3E0FDA3E0FEA3E0FFA3E006
:10099300C0E0A3E0C0E0A3E0F5D0A3E0F520A3E02E
:1009A300A3F5F010AF088583198582188008858325
:1009B30019858218D2AFD082D083D0E0F8D0E0324C
:1009C30012107BB90003020A02E4900401789B79B8
:1009D3001A8002F0A3D8FCD9FA7A9B7B1D9000867B
:1009E300781F79028015E493A3AD82AE838A828B4C
:1009F30083F0A3AA82AB838D828E83D8E9D9E7756E
:100A030082EA7583FD7404120D2C75820975832E99
:100A13007400120D2C75F0108E1A8F1B85821F85A2
:100A2300831E851882851983E0CEA3E0CF851F82BC
:100A3300851E83EBC9EAC8EDCBECCAC3E833C8E92A
:100A430033C9EA33CAEB33CBC3EA9EF51DEB9FF5FB
:100A53001CB35004AB1CAA1DEC33CCED33CDD5F045
:100A6300DAAE1AAF1B22D083D082ECC0E0EDC0E037
:100A7300E493A3FCE493A3FDED4C600D120B41EC56
:100A830024FFFCED34FFFD80EFE493A3FCE493A388
:100A9300FDED4C600D120C14EC24FFFCED34FFFD56
:100AA30080EFD0E0FDD0E0FCE493A3C0E0E493C08A
:100AB300E022D083D082E9C0E0E493A3C386F0C5EB
:100AC300F095F0F908E493A386F0C5F095F0700B68
:100AD300E493A3C3994005E9048002A3E475F002FB
:100AE300A42582F582E5F03583F583D0E0F9E4931C
:100AF300A3C0E0E493C0E022851983851882E0A3B4
:100B0300FEE0A3F5207808E0A3F608DFFAE0A3FFF0
:100B1300E0A3C0E0E0A3C0E0E0A3C0E0E0A3C0E046
:100B2300E0A3C0E010AF088582188583198008858B
:100B33008218858319D2AFD083D082020D32C0E0F0
:100B4300C3E49396087401939618400FE493667078
:100B53000808740193661870007019A3A3C3E49383
:100B630096087401939618A3A3400DD0E0D0E0D06B
:100B7300E0020AA5A3A3A3A3A3A3D0E022C082C03B
:100B83008374FE120E18851882851983EAF0A3EB8D
:100B9300F07C017D00AA18AB19790012129D85180B
:100BA30082851983E0FAA3E0FB7402120D65D083FA
:100BB300D082227404800474028000CCC0E0EDC0B3
:100BC300E0E518C39CCCAD1950011D10AF068C187D
:100BD3008D1980068C188D19D2AF120CAED0E0FDA2
:100BE300D0E0FC2274028000CCC0E0EDC0E0E51848
:100BF300C39CCCAD1950011D10AF068C188D198004
:100C0300068C188D19D2AF120C8CD0E0FDD0E0FC0D
:100C130022C0E0C0F088F0E4936670080874019382
:100C230066187000A8F0A3A3700BD0F0D0E0D0E05A
:100C3300D0E0020AA5A3A3D0F0D0E022D083D082D3
:100C4300CCC0E0E493A36006120D0D1470FAE49394
:100C5300A36006120E2E1470FAD0E0FCE493A3C036
:100C6300E0E493C0E022C0E074F21208AFA2AFE464
:100C730033FED2AFC2C0E5D1A2E45003121285EE17
:100C8300A2E092AF7F0102096BCAC0E0E493A3C55F
:100C930082CCC582C583CDC583F0A3C582CCC58272
:100CA300C583CDC583DAE5D0E0CA22CAC0E0E0A39C
:100CB300C582CCC582C583CDC583F0A3C582CCC50F
:100CC30082C583CDC583DAE6D0E0CA22C008C3E07B
:100CD30096F50808A3E096420808A3E096420808A0
:100CE300A3E09645087001D3D008227009080808CC
:100CF300226016181818C6C333C608C633C608C6FA
:100D030033C608C633C6D5E0EA22C0E0E493A3D3D2
:100D13009C5010E493A3C39C400AD0E0D0E0D0E001
:100D2300020C5CA3A3A3D0E022C09FF59FE473D081
:100D33009F22D083D082C09FE493C0E0740193C00C
:100D4300E0740293F59F222518F58210AF08F51879
:100D5300400C15198008F51840021519D2AF8519F2
:100D6300832200C0D0251810AF08F518500C0519C0
:100D73008008F51850020519D2AFD0D02274048030
:100D83000A74038006740280027401C0E0F4041242
:100D93000D4AD0E012103E22BB0102E722C082C0FE
:100DA3008389828A83BB0003E08002E493D083D0EB
:100DB3008222C0E0C0D0E8C0E0A8A8D2AFC2C7E892
:100DC300A2E792AFD0E0F8D0D0D0E03260160808A6
:100DD30008C6C313C618C613C618C613C618C61347
:100DE300C6D5E0EA222518F8E43519F9222518FAC0
:100DF300E43519FB222518FCE43519FD22C3E0C6AE
:100E030096F608A3E0C696F608A3E0C696F608A3EE
:100E1300E0C696F622251810AF08F518400C1519F0
:100E23008008F51840021519D2AF22C0E0E493A35D
:100E33006C7009D0E0D0E0D0E0020C5CA3A3D0E05A
:100E430022E066701008A3E066700A08A3E06670EB
:100E53000408A3E06622C3E09608A3E09608A3E093
:100E63009608A3E096A2D265D03322E766701008F5
:100E730009E766700A0809E76670040809E766224D
:100E8300C3E096F008A3E096F008A3E096F008A369
:100E9300E096F022181818E60846087009E62608B6
:100EA3007005E633F4220822191919E70947097076
:100EB30009E727097005E733F4220922C3E493966F
:100EC3000874019396087402939608740393962208
:100ED300C3E697F60809E697F60809E697F60809C0
:100EE300E697F622E026F608A3E036F608A3E036F6
:100EF300F608A3E036F622E647F60809E647F608C1
:100F030009E647F60809E647F622700422600D1841
:100F1300C6C333C608C633C6D5E0F41822E657F66F
:100F23000809E657F60809E657F60809E657F622D0
:100F3300E056F608A3E056F608A3E056F608A3E049
:100F430056F622E056F008A3E056F008A3E056F068
:100F530008A3E056F022E627F60809E637F6080963
:100F6300E637F60809E637F622E026F008A3E0366E
:100F7300F008A3E036F008A3E036F022E493F60885
:100F8300740193F608740293F608740393F622E44B
:100F9300C396F608E496F608E496F608E496F62275
:100FA300600D08C6A2E713C618C613C6D5E0F32220
:100FB300C6F4C608C6F4C608C6F4C608C6F4C622F4
:100FC300C3E7960809E7960809E7960809E7962212
:100FD300C3E09608A3E09608A3E09608A3E0962250
:100FE30075D00075813F751801751904000209C396
:100FF300E6084608C3134608336002E633F422E7E3
:10100300094709C3134709336002E733F422600C2D
:1010130008C6C313C618C613C6D5E0F422E6F00803
:10102300A3E6F008A3E6F008A3E6F022E0F608A39F
:10103300E0F608A3E0F608A3E0F622CAC0E0E6F073
:10104300A308DAFAD0E0FA22E0FAA3E0FBA3E0FC7B
:10105300A3E0FD22EAF0A3EBF0A3ECF0A3EDF02272
:10106300E0F8A3E0F9A3E0FAA3E0FB22E8F0A3E9A8
:10107300F0A3EAF0A3EBF022E5C754F84401F5C767
:101083007901222518F582E43519F58322E727191A
:10109300471947194722E62618461846184622C21A
:1010A300AF75D69F02000022120D35D56F00120DC9
:1010B30035517000120D35847000120D35B2700079
:1010C300120D35D67200120D35F27200120D35373E
:1010D3007300120D35BC7300120D35087400120D28
:1010E30035987400120D35717500120D35C27500F7
:1010F300120D35277600120D359A7600120D35DE66
:101103007600120D35367700120D35587700120D23
:1011130035E87700120D35797800120D35C5780062
:10112300120D35F17800120D35327900120D35D3D9
:101133007A00120D35B57B00120D35917C00120D2E
:1011430035FBC906120D353CCA06120D3556CA06C3
:10115300120D357FCA06120D35DECA06120D35484B
:10116300CB06120D35A7CB06120D35E4CB06120DB7
:1011730035A2CC06120D35A2D406120D35BDD40608
:10118300120D35EFD406120D351CD506120D35415F
:10119300D506120D356CD506120D3597D506120DF1
:1011A30035C7D506120D3551E506120D3562E50634
:1011B300120D3500E606120D351AE606120D35FD41
:1011C300FF02120D35E6FF04120D3540E706120D3E
:1011D3003550E706120D3565E706120D35AEE70605
:1011E300120D3573E106120D35F7E106120D355F69
:1011F300E206120D35FB7F00120D35B7E706120D1F
:1012030035DCE706120D35EFE706120D35FAE70672
:10121300120D3568C606120D3576C606120D35EF6A
:10122300C606120D35C4C706120D3596C906120D32
:101233003507B206120D3525B206120D3552B20628
:10124300120D3559B406120D355DB506120D35FB79
:10125300B506120D351FB606120D35C6FF01120D68
:101263003586FA02120D35F3FA02120D35ABFB0285
:10127300120D3521FC02120D3535FD02120D35C557
:10128300FE02120D352EFF02120D357DFF02120DE7
:101293003586FF02120D3595FF02120D35ABFF02A5
:1012A300120D35BEFF02120D35C7FF02120D35B404
:1012B300FA05120D35E0FA05120D3577FD05120D0D
:1012C30035B7FD05120D35F3FD05120D3507FE0586
:1012D300120D3520FE05120D3511FF05120D35C314
:1012E300FF05120D35D7FF05120D353DDB06120D37
:1012F3003561DB06120D357ADB06120D35B8DB06D8
:10130300120D35E8DB06120D3515DC06120D357BA3
:10131300DC06120D357EDC06120D3588DC06120D57
:101323003595DC06120D35BDCF06120D35DDCF0622
:10133300120D351CD006120D353AD006120D355557
:10134300D006120D35BBD006120D35C7D006120DCF
:101353003524D106120D3533D106120D3557D1067A
:10136300120D3518D206120D3525D206120D35365B
:10137300D206120D35C9E606120D3511E706120D18
:10138300353DE706120D35ADAD06120D3509AF0635
:10139300120D3517AF06120D352AAF06120D353F64
:1013A300AF06120D3554AF06120D3567AF06120D99
:1013B30035E3AF06120D3548B006120D35DEB00623
:1013C300120D35B7B106120D35C7B106120D35D65C
:1013D300B106120D3530E606120D3554E606120D30
:1013E300357CE606120D35A4E606120D356B7D003D
:1013F300120D35927D00120D35B07D00120D351F93
:101403007E00120D35EACC06120D3503CD06120D02
:10141300350FCD06120D3523CD06120D3541CD0600
:10142300120D354BCD06120D3555CD06120D35680F
:10143300CD06120D35EECD06120D3563CE06120D17
:101443003592CE06120D35E0CE06120D352FCF069E
:10145300120D354ACF06120D3554CF06120D3565E0
:10146300CF06120D35A8CF06120D35CEE806120DA4
:1014730035668A06120D35928A06120D35AF8A0635
:10148300120D35C28A06120D35DD8A06120D353767
:101493008B06120D35658B06120D35758F06120DF1
:1014A30035D39006120D35059106120D3568910658
:1014B300120D35D49206120D35FC9206120D35111C
:1014C3009306120D35219306120D35619306120D05
:1014D30035A39306120D35B39306120D3529DF0696
:1014E300120D3543DF06120D356BDF06120D358401
:1014F300DF06120D35A8DF06120D35C6DF06120D05
:1015030035DDDF06120D350BE006120D3526E0063C
:10151300120D3569E906120D3575FC03120D35857B
:10152300FC03120D358AFD03120D35BCFD03120DAC
:1015330035ECFD03120D350FFE03120D3526FE03A8
:10154300120D3560FE03120D35C5FE03120D35076E
:10155300FF03120D354EFF03120D357BFF03120DF2
:1015630035A6FF03120D359FDC06120D35BDDC06D3
:10157300120D351FDD06120D35B9DD06120D356668
:10158300E406120D3559E006120D35A1E006120DE1
:101593003529D806120D358AD906120D35E4DD0634
:1015A300120D3509DF06120D35008006120D358A3E
:1015B3008306120D35868506120D35B88606120D83
:1015C30035918706120D35218906120D35ED8906F1
:1015D300120D35418A06120D3567D606120D358870
:1015E300D606120D35C2D706120D35ECD706120DED
:1015F30035C07F00120D35D07F00120D35DA7F0024
:10160300120D355DD305120D3560D305120D353C32
:10161300DB05120D358EDC05120D35EFDD05120DE0
:1016230035C6DE05120D359FDF05120D3588E00541
:10163300120D357CE105120D3534E205120D3564CA
:10164300E205120D3514E405120D35D9D906120D34
:1016530035F9D906120D350DDB06120D3510DB06F3
:10166300120D3578E306120D35AEE306120D35C6BD
:10167300E306120D3508E406120D3518E406120DC3
:10168300355CE406120D35059B06120D353F9B06AE
:10169300120D35A89B06120D35C79B06120D35E0BA
:1016A3009B06120D35829C06120D358B9C06120D7E
:1016B30035DC9C06120D35059D06120D35129D066F
:1016C300120D35839D06120D35119E06120D355FE1
:1016D3009E06120D35959E06120D35F69E06120DC9
:1016E300351F9F06120D35969F06120D35F29F0684
:1016F300120D352FA006120D3566A006120D357892
:10170300A006120D358AA006120D35A9A006120DEA
:1017130035B2A006120D356DA106120D35B9A1061D
:10172300120D35F7A106120D3515E806120D35D148
:10173300FA01120D3511FC01120D3534FC01120DA5
:101743003545FC01120D3564FE01120D3584FE0191
:10175300120D3564D206120D359AD206120D35E2FA
:10176300D206120D353BD406120D35ABE904120D2A
:1017730035DCEA04120D3518EB04120D35D2EC04F6
:10178300120D35FCEC04120D3575EF04120D35B551
:10179300EF04120D3549F104120D35E8F104120D71
:1017A3003540F204120D35D3F204120D350DF30456
:1017B300120D354FF304120D35C2F404120D3542E8
:1017C300F604120D357FF804120D35ADF804120D31
:1017D30035D9F804120D35E2F804120D353FF9043A
:1017E300120D35CFF904120D350BFD04120D358D95
:1017F300FD04120D35DAFF02120D35F0FF02120D52
:1018030035D2BA06120D35E8BA06120D358CBB0671
:10181300120D35CBBB06120D35E8BB06120D35197B
:10182300BC06120D3566BC06120D359ABC06120DA8
:1018330035D5BC06120D35CABE06120D3578E20643
:10184300120D35D7E206120D3515E306120D355686
:10185300E306120D35008004120D350C8004120DC1
:10186300356E8004120D35788004120D3505810420
:10187300120D35418104120D35048204120D351702
:101883008204120D35858204120D35ED8204120D8A
:10189300357C8304120D35FA8304120D359F8504BC
:1018A300120D35588704120D359E8804120D351B11
:1018B3008A04120D35C28A04120D35908F04120D5D
:1018C30035879004120D35169104120D353B9104A2
:1018D300120D35D89104120D35F59104120D3515FD
:1018E3009204120D35869204120D35A39204120D43
:1018F30035D19204120D35699404120D358A94047E
:10190300120D35309504120D35789504120D35EA14
:101913009504120D356D9604120D35D29604120DF1
:10192300352F9704120D35CE9704120D35429804C6
:10193300120D357E9804120D35EB9804120D3555B2
:101943009A04120D35D69B04120D35859C04120D95
:1019530035E79E04120D35499F04120D35779F0418
:10196300120D358FA104120D351FA404120D35225B
:10197300A504120D3523A206120D351FA306120D61
:1019830035A7A406120D3551A506120D3571A5060E
:10199300120D3574A506120D3587A506120D35CC2B
:1019A300A506120D35F8A506120D354FA606120D24
:1019B3003567A606120D35A2A606120D3511A70628
:1019C300120D356DA706120D3509A806120D3571D6
:1019D300A806120D359DA806120D35DBE906120D7A
:1019E300359FCB04120D353ECC04120D35BACC0411
:1019F300120D35A9CD04120D35A7CE04120D3526CF
:101A0300CF04120D3568D004120D3509D104120D1F
:101A130035C9D204120D35D0D304120D35EDD304DC
:101A2300120D3518D504120D3555D604120D35FF98
:101A3300D604120D3569DA04120D3571DC04120D6A
:101A430035FADC04120D3554DD04120D35A2DD0424
:101A5300120D351DDE04120D359FDE04120D35DB2C
:101A6300DE04120D357FE504120D35DAE704120D9D
:101A730035B6E804120D35349D05120D35669D0506
:101A8300120D35EA9D05120D354D9F05120D353B9F
:101A9300A005120D3503A205120D3528A205120D5E
:101AA300357AA205120D350CA305120D3558A30581
:101AB300120D356BA305120D35C8A305120D35376D
:101AC300A405120D3504A505120D3572A505120DD9
:101AD30035A9A505120D35F2A505120D359AA705F1
:101AE300120D3579A805120D35C7A905120D35AAB2
:101AF300AA05120D3536AB05120D356FAB05120D68
:101B0300358EAB05120D35D9AB05120D35F9AB0585
:101B1300120D35B6AC05120D35C3AD05120D35D713
:101B2300AD05120D352BAE05120D3586AE05120D22
:101B330035D3AE05120D35DBAF05120D3560B20599
:101B4300120D3586B205120D3501B305120D35267A
:101B5300B305120D35ADB305120D3589B405120D5C
:101B630035C7B405120D354BB505120D3536B6051F
:101B7300120D3539B605120D3543B605120D354D27
:101B8300B605120D3569B605120D35E5B605120D0C
:101B9300351EB705120D353AB705120D3566B70573
:101BA300120D358DB705120D35B1B705120D35EC94
:101BB300B705120D355FB805120D3593B805120D33
:101BC300359DB805120D35D9B805120D35F3B80595
:101BD300120D351AB905120D3549B905120D3568BF
:101BE300B905120D3580B905120D3592B905120DDF
:101BF3003519E906120D3531E906120D35FAFF02E2
:101C0300120D35E39306120D35329406120D35F09D
:101C13009506120D35AA9706120D35E89706120D93
:101C230035DD9806120D35E89906120D350A9A0628
:101C3300120D35549A06120D35D59A06120D352A12
:101C4300A904120D354DA904120D35ABAA04120DCA
:101C530035F4AA04120D3552AB04120D35B8AB049A
:101C6300120D35BBAB04120D350CAC04120D3586C9
:101C7300AC04120D3514AD04120D3517AD04120D5D
:101C8300359FAD04120D35E2AD04120D3552B20489
:101C9300120D35F0B304120D352AB404120D35704C
:101CA300B404120D35D0B704120D3555B804120D16
:101CB30035EDB904120D35FCBA04120D3529BC04F7
:101CC300120D3589BC04120D3565BD04120D35EFB7
:101CD300BD04120D35F2BD04120D35D7BE04120D2D
:101CE300351DC004120D35D1C104120D35A4C30432
:101CF300120D3536C404120D35CBC404120D35BD97
:101D0300C504120D357DC704120D3593C804120D99
:101D13003502CA04120D3547CA04120D35F2CA043E
:101D2300120D35008005120D359B8005120D350E01
:101D33008105120D35298105120D35CA8105120D54
:101D430035118205120D35348305120D3577830560
:101D5300120D35F38305120D35468405120D35A595
:101D63008405120D35B28505120D35CF8805120D88
:101D730035058A05120D358E8A05120D35928C05AF
:101D8300120D35368D05120D35D58D05120D3536EF
:101D93008E05120D35A58E05120D35FE8F05120D1C
:101DA30035E89005120D35239105120D3543910544
:101DB300120D35F49105120D35319205120D35BA18
:101DC3009205120D35359405120D35009605120D49
:101DD300355B9705120D35D09805120D35DF990542
:101DE300120D356C9A05120D35D59A05120D35E194
:101DF3009B05120D35CBD903120D352EDA03120DC7
:101E03003576DA03120D35B4DA03120D350FDB0321
:101E1300120D356CDB03120D35A7DB03120D3529CB
:101E2300DC03120D3583DC03120D35F7DD03120DD0
:101E33003575DE03120D358DDF03120D35B5DF0366
:101E4300120D3504E103120D3515E103120D352D85
:101E5300E103120D3542E203120D351FE303120DA8
:101E6300351CE403120D3540E403120D3557E4032A
:101E7300120D3578E403120D35CED205120D35B9A6
:101E8300E403120D358DE503120D35E7E503120D5D
:101E93003588E803120D35E1E803120D3500E90337
:101EA300120D35EBE903120D3521EA03120D355BF3
:101EB300EB03120D35DAEB03120D3511EC03120DA2
:101EC300354BEC03120D35BAEC03120D357BED03E4
:101ED300120D3554EF03120D355BF003120D35CCA3
:101EE300F103120D35CCF303120D3547F603120D32
:101EF3003521F803120D356EFA05120D355AF90323
:101F0300120D3571F903120D356BFA03120D35639A
:101F1300FB03120D35D2FB03120D35D7BE06120D8E
:101F23003587C006120D3546C106120D35AEC10602
:101F3300120D3522C206120D35A7C206120D35C584
:101F4300C206120D3509C306120D352FC306120D35
:101F53003556C306120D356EC306120D3586C306FC
:101F6300120D3528C406120D356AC406120D358CC0
:101F7300C506120D3595C506120D359EC506120D03
:101F830035A7C506120D35B1C506120D35BDA80618
:101F9300120D35F1AC06120D35FFAC06120D3504EA
:101FA300AD06120D3573FE04120D35AFE906120DA1
:101FB300356FE806120D357FE806120D359AB60621
:101FC300120D35008003120D35328003120D359E3C
:101FD3008003120D35398103120D35D88103120D9B
:101FE300351D8203120D353F8203120D35588203CE
:101FF300120D357E8203120D35A08203120D35DEDC
:102003008203120D35228303120D35448303120D0F
:1020130035A68303120D356D8403120D3524850314
:10202300120D35968503120D35688603120D35B2F0
:102033008603120D35058703120D356B8703120DC9
:1020430035A58703120D35F78703120D3513880362
:10205300120D353E8803120D35458A03120D35994D
:102063008B03120D35BB8B03120D35EF8B03120D52
:1020730035108C03120D351F8C03120D352A8C037A
:10208300120D35DA8C03120D35438D03120D35F025
:102093008D03120D35288E03120D35EE8E03120DAE
:1020A30035FB8F03120D35459003120D35D4900384
:1020B300120D35389103120D35739103120D35DF6F
:1020C3009303120D35339503120D356C9803120DDE
:1020D30035399903120D35C79903120D35F099035C
:1020E300120D35629A03120D35F69A03120D35540B
:1020F3009B03120D35469C03120D35689C03120D8C
:1021030035C49D03120D35DD9D03120D35F09D037E
:10211300120D354D9E03120D355C9E03120D35EFE6
:102123009E03120D35FB9F03120D3508A003120DFC
:102133003511A003120D35E9A103120D350FA303C9
:10214300120D351FA303120D3521A403120D35986B
:10215300A403120D35C7A403120D35CDA503120D2B
:102163003513A603120D35DFA703120D35B7AB03E5
:10217300120D35C1AB03120D35D5AB03120D35DF8F
:10218300AB03120D35E9AB03120D35F3AB03120D9F
:10219300350CAC03120D3516AC03120D358AAC03A6
:1021A300120D3595AC03120D35BAAC03120D35C5BE
:1021B300AC03120D3513AD03120D351DAD03120D16
:1021C3003528AD03120D354CAD03120D3570AD033B
:1021D300120D35CCAD03120D3512AE03120D352F92
:1021E300AE03120D35ACAE03120D35E3AE03120D83
:1021F3003522AF03120D356FAF03120D35F1AF0367
:10220300120D358AB003120D355AB203120D35B8CB
:10221300B203120D35D4B303120D35FAB303120D05
:102223003539B503120D355FB803120D35A0BA0366
:10223300120D357CBC03120D3512BD03120D353959
:10224300BF03120D35E5BF03120D351AC003120D7E
:10225300357FC003120D3589C003120D35B3C20398
:10226300120D35DAC303120D351AC403120D35C02E
:10227300C403120D3551C603120D35DAC703120D0F
:1022830035FAC703120D3553C803120D3555C9036B
:10229300120D359FC903120D35EFC903120D35D940
:1022A300CA03120D354ECB03120D3568CC03120D44
:1022B30035E3CC03120D35E8CD03120D3593D0036E
:1022C300120D35B2D003120D3513D203120D35D5CD
:1022D300D303120D3529D403120D35E1D403120DA6
:1022E3003590D503120D35E6D503120D359CD60373
:1022F300120D3531D703120D359DD703120D35D786
:10230300D703120D3508D803120D3564D903120D06
:1023130035A79601120D35D99601120D3510970187
:10232300120D35F99801120D35DC9901120D353472
:102333009A01120D356F9B01120D35BB9B01120DD6
:1023430035E39E01120D3545A201120D3592A3010D
:10235300120D3528A401120D3534A401120D356672
:10236300A401120D35E8A501120D35F6A601120DD3
:102373003520A701120D3577A701120D35D0A7011E
:10238300120D353CA801120D3553AA01120D35E289
:10239300AB01120D35ACAC01120D35EAAD01120DD6
:1023A300351AB001120D35EAB201120D35F7B2013B
:1023B300120D357EB301120D3526B401120D3569A8
:1023C300B401120D35B2B401120D3506B501120D6B
:1023D300356BB501120D35D3B501120D35F0B501CD
:1023E300120D3520B601120D3555B601120D3525E6
:1023F300B701120D35CEB701120D3552BA01120DC8
:102403003572BB01120D355BBC01120D35DDBC010C
:10241300120D35FFC001120D353CC101120D35946B
:10242300C101120D35C7C101120D3548C201120D8C
:102433003595C201120D3520C301120D3572C3014A
:10244300120D3549C401120D3502C501120D359D1A
:10245300C501120D35B6C801120D35D6C901120DCD
:102463003587CD01120D35A5CE01120D35A8CE014C
:10247300120D35D7CE01120D35DDD001120D35B653
:10248300D101120D35EBD101120D35F3D201120D2D
:1024930035A9D301120D354AD501120D356FD5017A
:1024A300120D35AED501120D3520D601120D3504AE
:1024B300D701120D35D1D701120D3507DA01120DEF
:1024C3003578DA01120D35B8DA01120D35F1DA017A
:1024D300120D3585DB01120D35CEDC01120D359160
:1024E300E001120D3580E101120D3567E201120D95
:1024F30035DFE201120D35A1E301120D359FE50130
:10250300120D35B7E501120D35CBE501120D35037B
:10251300E601120D3531E601120D35B8E701120D52
:1025230035C3E801120D3515E901120D357DE901B9
:10253300120D352FEA01120D355FEA01120D3543F5
:10254300EB01120D35F4EB01120D35E3ED01120D24
:102553003518EE01120D3580EE01120D35AFEF0186
:10256300120D3561F001120D3592F001120D35AAED
:10257300F001120D3539F101120D35EDF301120D94
:1025830035C5F501120D35E1F501120D35FDF501E6
:10259300120D35CBF601120D35AFFA01120D3500D0
:1025A3008002120D35388002120D35168502120D88
:1025B300355C8502120D35A98602120D351487028A
:1025C300120D359D8802120D35AD8B02120D35C8E3
:1025D3008C02120D35DA9602120D356D9702120D2B
:1025E30035BF9A02120D35BB9B02120D35169C02A4
:1025F300120D35609D02120D354E9E02120D35EA05
:10260300A002120D355EA202120D35E1A202120DD7
:1026130035E4A202120D3559A302120D3563A3024C
:10262300120D3570A302120D359BA302120D354B0B
:10263300A402120D3544A502120D35EFA502120DA9
:10264300350DA602120D3526A602120D354FA60230
:10265300120D3571A602120D35C6A802120D358B67
:10266300A902120D35D0A902120D354FAA02120D7F
:1026730035FBAA02120D352DAB02120D3581AB02CB
:10268300120D35BCAB02120D3503AC02120D3553DE
:10269300AC02120D3558AC02120D35ACAC02120D62
:1026A30035D8AC02120D35C1AD02120D3512AE0292
:1026B300120D3572AE02120D35CCAE02120D356716
:1026C300AF02120D35A6B202120D35B8B302120DC8
:1026D3003532B502120D3542B802120D35E0B8029B
:1026E300120D35D6BB02120D3595BC02120D35D92C
:1026F300BC02120D3584BE02120D3598BE02120DB6
:1027030035A2BE02120D35ACBE02120D35B8BE02A3
:10271300120D35DDBE02120D35B6C002120D350B9A
:10272300C102120D3515C102120D351FC102120D62
:102733003594C102120D35E3C102120D35F4C20204
:10274300120D3541C302120D354EC402120D3592DE
:10275300C402120D3538C502120D352BC602120DF7
:1027630035F1C602120D3514C802120D3532C902F5
:10277300120D351ACA02120D3532CA02120D3589ED
:10278300CA02120D3593CA02120D359DCA02120DEB
:1027930035A8CA02120D35C6CA02120D350ECB0278
:1027A300120D3570CB02120D3597CB02120D35A9E0
:1027B300CB02120D3544CC02120D3579CC02120D29
:1027C3003560CD02120D35A5CD02120D358BCE022B
:1027D300120D35B2CE02120D3535CF02120D35A6CC
:1027E300CF02120D352FD102120D355BD202120D1D
:1027F300351ED302120D35E6D302120D3570D40205
:10280300120D3598D502120D353AD602120D35B593
:10281300D602120D3571D702120D35BBD702120D38
:102823003515D802120D35EDD802120D3510D90227
:10283300120D35C3D902120D35E5D902120D354EED
:10284300DA02120D3564DC02120D355CDD02120D65
:102853003520DE02120D3552E002120D359CE002E6
:10286300120D35ECE002120D3550E102120D35B2B6
:10287300E102120D35E0E102120D3504E202120D00
:102883003539E202120D356AE202120D359DE2027C
:10289300120D35EDE202120D3540E302120D3565DE
:1028A300E402120D3505E602120D3560E602120D43
:1028B3003589E602120D3516E702120D3584E7025B
:1028C300120D3592E702120D35B6E702120D350BE4
:1028D300E802120D3526E802120D35D8E802120D72
:1028E3003510E902120D3553E902120D35B6E9022E
:1028F300120D35B8EB02120D35E2EB02120D35D98C
:10290300EC02120D35E3ED02120D3593EE02120DBA
:102913003571EF02120D35A9EF02120D35CAEF0220
:10292300120D350CF002120D356EF002120D3578D2
:10293300F002120D3588F002120D35C3F002120DAC
:1029430035A3F402120D3590F602120D3576F80216
:10295300120D350DF902120D35AFF902120D35C600
:102963003500120D35713600120D351F3700120D6B
:1029730035253800120D35453800120D356E3900F6
:10298300120D35293B00120D359C3B00120D3540CD
:102993003C00120D354C3D00120D35B73D00120DB4
:1029A30035F33D00120D35363E00120D35713E00F4
:1029B300120D35B33E00120D35483F00120D35C4DC
:1029C3003F00120D358E4000120D356B4100120D84
:1029D30035034200120D351D4200120D354D4200E4
:1029E300120D357E4200120D35444300120D35544D
:1029F3004300120D35A34300120D35B04300120DF1
:102A030035B94300120D35374400120D3593440098
:102A1300120D35DE4400120D35F94400120D352434
:102A23004500120D35414500120D354D4500120D7F
:102A330035E44600120D35FD4600120D3582470080
:102A4300120D35954700120D35B44700120D355858
:102A53004800120D35D94900120D358C4B00120D6B
:102A630035224C00120D35254C00120D35954C00C6
:102A7300120D35B34C00120D354A4D00120D35922F
:102A83004D00120D35954D00120D355B4E00120DA4
:102A930035C84E00120D35EE4E00120D35794F003C
:102AA300120D35974F00120D35DD4F00120D359184
:102AB3005000120D35DB5000120D350A5100120D76
:102AC30035675100120D359C5100120D35C8510068
:102AD300120D35D65100120D35235200120D3593C8
:102AE3005200120D35DC5200120D35285300120D21
:102AF30035545300120D355F5300120D357D5300CD
:102B0300120D35685400120D35725400120D35AD97
:102B13005400120D35BD5400120D35115500120D20
:102B230035255500120D35545600120D35695600E2
:102B3300120D35F75600120D353C5700120D35C8EE
:102B43005700120D35D35700120D35155900120DCC
:102B530035305900120D357C5900120D35EB5900F3
:102B6300120D35245A00120D353E5A00120D359EB2
:102B73005A00120D353D5B00120D35885B00120DB6
:102B830035585E00120D350A5F00120D35775F0070
:102B9300120D35B76100120D35CF6100120D35D21C
:102BA3006100120D35DE6100120D35F26100120D68
:102BB30035FA6100120D352D6200120D35306300B8
:102BC300120D35BD6300120D352D6400120D35AFA6
:102BD3006400120D35706500120D358F6500120DFE
:102BE30035306600120D358D6600120D3590660086
:102BF300120D35046700120D35536800120D355957
:102C03006900120D35E46900120D35FF6A00120DDB
:102C130035C76B00120D35F86B00120D351B6C00B8
:102C2300120D35246C00120D35536C00120D35E373
:102C33006C00120D35996D00120D350E6E00120DDC
:102C430035B56E00120D352A6F00120D35616F0018
:102C5300120D359F6F00120D3583D205120D3517F6
:102C6300D205120D35B4D105120D358AD105120DD9
:102C73003576D105120D356CD105120D35FFD00512
:102C8300120D3530CF05120D35EECE05120D35047C
:102C9300CE05120D353AFA05120D35E3F905120D7D
:102CA30035D8CD05120D358FCD05120D3585F805B7
:102CB300120D35D7F705120D35CCCC05120D359B0A
:102CC300C905120D353DC705120D350DC705120D8A
:102CD30035BDC605120D3557C605120D3516C60589
:102CE300120D35F6C505120D3528C505120D35C271
:102CF300C405120D3561C405120D3501C405120D4D
:102D0300359FC205120D3533C205120D3587C10536
:102D1300120D3582C105120D356BC105120D353605
:102D2300C105120D353AF705120D35D0BD05120D4B
:102D33003530F705120D35C5F605120D35AAF60522
:102D4300120D35FAF505120D3500F505120D352670
:102D5300F405120D35CDBD05120D35B4BD05120DAB
:102D630035A9BD05120D3578BD05120D357CF1056C
:102D7300120D359FBB05120D3526BB05120D35BD52
:102D8300BA05120D3530BA05120D358EF005120D48
:102D930035ECB905120D35E2F803120D35C5B90549
:102DA300120D35CBEF05120D3576EF05120D3549B2
:102DB300EF05120D3516EF05120D35EEEE05120D6A
:102DC300358FEE05120D356FEE05120D353AEE0512
:102DD300120D35FEEA05120D35D3E805120D35C384
:102DE300E605120D3540E605120D35F4E505120D25
:102DF3003520F005120D35A8E505120D3502E50560
:102E0300120D359AE40300000080FBE47387000190
:102E130000781E350004003E1E25000200421E26D7
:102E2300000200441E27000200461E280001005035
:102E33001E29000100511E840004002B1B86000183
:102E430000A91D2A000100521E2B000100531E2C55
:102E5300000100581E2D000800391B2E00010059E7
:102E63001E2F0001005A1E300001005B1E310001BD
:102E7300005C1E32000100411B33000100421B3481
:102E83000001005D1E36000100431B380001005E97
:102E93001E39000100571E83000200761E630001E5
:102EA300004E1B64000100541E65000100551E6D99
:102EB3000001004F1B71000800311B660001007503
:102EC3001E43000100661E44000200671E45000108
:102ED30000691E460002006A1E47000800461B48A0
:102EE3000001006C1E4B0001006D1E0400010079FF
:102EF3001EA10001007C1E370001007B1E8800011B
:102F0300007A1E3C000100441B3D0001005F1E4986
:102F13000002006E1E67000100501B4D000200708E
:102F23001E4E000100721E4F000200731E3E000180
:102F330000651E51000100611E52000100621E5314
:102F4300000100641E54000100451B000000000046
:102F530000000136360101000102010001030100F6
:102F63000104010606050200000701003408010000
:102F73000F090401010D0100FF0E080000170200F4
:102F830000190100FF1A0100011B0100FE1C0100D2
:102F9300081D0200001F01000120010001210200A1
:102FA300002301000F240200002601000127010075
:102FB30008280200FF2A0100072B0102402C010010
:102FC300002D0100012E0100012F0100FF30010B34
:102FD3001D310800003A0100083B01000F3C0100CD
:102FE300013D0100FF3E04000042040000460400CE
:102FF300004A0400004E040000520400005604007E
:10300300005A040000000003002001A59600000000
:10301300002001A396000001002001A396000002F6
:10302300002001A396000000404201979500000490
:10303300004201D1940000050042010595000006FD
:103043000042019795000007003001A4960000108C
:10305300004203081E000011003003E719000012AC
:103063000010031B1E030000002103E8190000FDEC
:10307300FF21019B960300FDFF21019B96060000A3
:10308300001001D7190600FDFF21819B9602040061
:10309300002905D8190204010029019D96020402A2
:1030A3000029019F960204FDFF21019B96010371F4
:1030B30003010301030103010301032203020301CB
:1030C30003100300030003000300030003000300D5
:1030D3000342030003240306030003000304031253
:1030E300032503230325032303040304030003002D
:1030F30003000344030003000323030003650321C8
:1031030000350381030003050300030003000300EC
:1031130003250323030302710230016002110270CD
:10312300020102020202028002100261023A00411D
:103133000063027302720262024302000213023846
:103143000000020002040212020002000200020058
:103153000204020402370037003C02440200023931
:10316300000002000265020002350281020002052E
:1031730002820283020002010171010101010111B6
:103183000101013101010101018001100161013BD4
:103193000014006301730172016201430100011312
:1031A3000106013D01350004011201000100010087
:1031B30001000104010401330133013C01440132E4
:1031C30001360000010001650100013500810100A5
:1031D30001050182018301000103047104020460FB
:1031E30004110470040204020401040204100461C3
:1031F30004000414046304730472046204430400AB
:10320300041304060400040004040412040004006C
:103213000400040004510464000004000400044496
:103223000400040004000400046504000435048160
:1032330004640005040004830400040300710030E7
:10324300016000110070003102200350048000105F
:103253000061000000140063007300720062004309
:10326300000000130006000000000004001200002C
:103273000000000000000004000400370037003C99
:10328300024400000000000000000065000000355B
:1032930000810000000500000083000000360001EB
:1032A30000060000000F0000000000000000000006
:1032B30000000003FFFF00000403FFFF0000FFFF07
:1032C3000FF4010005C4040320000100000B0000FB
:1032D30000000000000003010F00000000000000D8
:1032E30000000000000000000000000000000000DB
:1032F300000000000000000000000033195D1939D0
:103303001973183F1963193F196F19451973183F3A
:103313001963194B19731800000000511973180031
:10332300000000000000005719731800000000009F
:10333300000000000000000000000000000000008A
:10334300000000000000000000000000000000007A
:10335300000000000000001300E11C1F00E71C1F19
:1033630080ED1C0000651D0100651D0200631C0249
:10337300805D1C0300691C04006F1C0480751C0520
:10338300007B1C0600871C3000A51C31009F1C32EB
:1033930000B11C3300B71C3500BD1C3400C31C3600
:1033A30000C91C1100D51C1400DB1C1500991CFF5F
:1033B300FF00000A000000020000000400000008F3
:1033C300000000100000002000000040000000800A
:1033D30000000000010000000200000004000000E3
:1033E3000800000010000000200000004000000161
:1033F300DB25060B260805260B292610C32202E12E
:103403002505F92507E7250CC3250DCF2564A7203E
:10341300FF0000030003000400080010001F003E2B
:10342300007B00F600EC01D703AF075D0FB91E71F7
:103433003D000007ECFDFDFDECDCDCCCBCACAC9C42
:103443009C8C7C7C6C6C5C5C5C4C4C3C3C2C2C1CE9
:103453001C03EAF5E5D5D5C5B5A59595858575759F
:103463006565555545453535252515150500160F53
:1034730000000B150B020002220F3300000E0F5A3F
:103483006967426565416C6C69616E6365303900DB
:10349300000000000000000000000000000000D059
:1034A300D1D2D3D4D5D6D7D8D9DADBDCDDDEDF0071
:1034B300034D4C4651181A250502303016181920B1
:1034C300231A1C1E30003C40423A3F3F392F4730FD
:1034D300000119161816161823030030301718198F
:1034E30021301B1D1F300C0E020B040B0A070800B2
:1034F3000F02040201010101090200BE040AE803EC
:103503000000E8030000010003007F0000000E003C
:10351300000404080405030A0C101508091E0C28EE
:10352300FF03100209033C0C050815001EE4F0A379
:10353300F0A3F0A322123530F022901C9B124B3CD7
:103543001229CB2212354B22E0F508E4F509F50ADE
:10355300F50B22E824FBF582E934FFF58322E82406
:1035630011F582E439F583E022F58312357222E006
:10357300F508A3E0F50922122C477404120D657FA8
:1035830008020AFB7401F09006C0E0640F2274097C
:10359300120D657F04020AFBEA2413FAE43FFB12CF
:1035A3002B75E9227905122B81740622A3A3E0244B
:1035B300F5C3941322122C539006E0126AFA7A147C
:1035C3007B0022C082C083901C7A74BFF0A374294D
:1035D300F0A374D1F0A37429F0901C7E74A7F0A318
:1035E3007429F0A374A1F0A37429F0A374DDF0A3EC
:1035F3007429F0A374E3F0A37429F0A374D7F0A3A0
:103603007429F0A3748FF0A37429F0901C8A74B307
:10361300F0A37429F0A374B9F0A37429F0A374ADD3
:10362300F0A37429F0A374E9F0A37429F0901C9B10
:1036330012550B6009901C9B124B38121765901C96
:1036430098124E5274081261A7A3F0901D44F09093
:103653001C9DF07C0BFDF97A9E7B1C1216937C0B50
:103663007D0079007AA97B1C121693024CAC74F787
:1036730012084374F7120E18EAFEEBFF12370474B4
:1036830005124F707403F012381B124F522430FC92
:10369300E43FFD8C821236FC1237106008123F297A
:1036A30074FFF0A3F0EE242EE43F1C1CFD8C82F586
:1036B30083A3E0C0E08A828B83124C04D0E01237EC
:1036C300108882898312543F2403F0EE123F331291
:1036D30010867403F09006D5120BBA7402120DF81B
:1036E300123AFD120D65E9F5087007EEFAEFFB12C9
:1036F3002A5BA9087409023F42F583E08882898323
:1037030022EA1237092212564E3FF583221264270A
:10371300124F5EE8F0A3E91266FEE02274F012088D
:1037230043EAFEEBFF8C0C8D0D890B12381BF583DE
:10373300124F667410121086E0F508A31236FEF0DD
:10374300E824FFF582E9123B0FE508F0E824FEF5D3
:1037530082E9123B0FE50BF09006DAE0C0E0E824C3
:10376300FDF582E9123B0FD0E0F09006D9E0C0E00E
:10377300E824FCF582E9123B0FD0E0F0741212103A
:103783008612356E123556E509F0E824FAF8E93465
:10379300FFF98882F583E508F0EE2404FCE43FFD9D
:1037A30088088A828B83E0F50E8C828D83E0250E58
:1037B300C39508126427124D8C850C82850D83A353
:1037C300A3A3A3A3A3A3A3E064037009EE124F4032
:1037D300F0A3E48003123B14123B1C7409F0750838
:1037E3009E75091C750A007808120D84125EF11289
:1037F3000D657508FF7509FF7808120D88AC0CADCF
:103803000D123AFD120D65E9F5087007EEFAEFFBAC
:10381300122A5BA908023582EA2402FAE43FFB8AF2
:103823008222C082C083901CBAE0C394084004740F
:10383300078001E08A828B83F033333354F8F90233
:103843004CAC74F01208438A088B09890A8C0E8DDC
:103853000F750C00A2AFE433F50BC2AF901CB4801C
:1038630045123947503D12396164037036E5082427
:10387300F9F508E50934FFF5098E828F83A3A3E0E8
:103883002405FCA3E03400FDAA08AB0912184FE598
:103893000824FFF508E50934FFF5097410250CF534
:1038A3000C150A123D36126EAFE50A6004EE4F7036
:1038B300B0E50BA2E092AFA2AFE433F50BC2AF9039
:1038C3001CB4803E1254188882F58312468C8508F6
:1038D30082850983F08A828983123958A3A3E0C0C1
:1038E300E0E50824FFF582E509123B0FD0E0F0E59F
:1038F3000824FEF508E50934FFF509050C150A123D
:103903003D36123B8A6021123961640270F112392B
:1039130047EE40B0125087A2E550E4850E82850F32
:10392300837401F0E50A70D7E50BA2E092AF850836
:1039330082850983E50CF0E50824FFFAE50934FFE5
:10394300FB02358212394DA2E622EE2411F582E400
:103953003FF583E02212395C2212545DA3228E824A
:103963008F83A3A3124C08125B342274F012084312
:1039730074F3120E187403121086E9F07402121015
:1039830086EAF08B0B851882851983E4F004120D07
:10399300F0122971E9F89006BFE0292437F508FAF7
:1039A3007B001216AB8A0C8B0DAE0CAF0DEA4F7079
:1039B30003023AF4EA2402F50EE43FF50FA808EAFD
:1039C30028F8E43BF9850E82850F8312448890061C
:1039D300BFE0F9FAC3E49AFA95E0FB850E82850FFE
:1039E30083E02AF50CA3E03BF50D9006BD12356E7E
:1039F300750A007808120D84E9FC7D00AA0CAB0D52
:103A0300124EC2120D65AC18AD197401121086E086
:103A1300F9E50C24FFFAE50D34FFFB1229778A82BE
:103A23008B83E4F0E50BC454F0F9901D45E0C433F7
:103A33003354C0F89006B9E0A2E0E43313134849C5
:103A4300440FC0E0EA24FFF582EB123B0FD0E0F015
:103A5300EA24FEF50CEB34FFF50D7403121086E037
:103A6300F87402121086E0C454F048850C82850D68
:103A730083F0A80C850E82850F831261742AC39884
:103A83008E828F83A3A3A3A3F0850E82850F83E881
:103A9300F0A3E50DF0123B14123B1CE4F0740C127E
:103AA3001086E4F07508A975091C7808120D8412B4
:103AB3005EF1120D65851882851983E06009EE2495
:103AC3000E1250894408F0122B63E9F9E4F508F566
:103AD300097808120D887406120DF8123AFF120DB8
:103AE30065E97006EEFAEFFB800BEEFAEFFB1216B8
:103AF300B17A007B00740D02357F7903EEFAEFFB98
:103B0300122B7B740222EE24FFF582EF34FFF58340
:103B130022EE123709E4F0A322F0123B2122EE1227
:103B23005E143FF5832274F21208438A0C8B0DA2B4
:103B3300AFE433F50AC2AF750800750900901CB4F1
:103B4300802C123D465024850C82850D83A3A3123D
:103B53005F048E828F83A3A3124B38122B69E96013
:103B63000A123D41C2E6F08E088F09123D36123B20
:103B73008A70CFE50845096006123C23D2E6F0E5DA
:103B83000AA2E092AF800DE0FEA3E0FFEE4F2274A5
:103B930002120D657F06020AFB74F01208438A0EB7
:103BA3008B0F8C0C8D0D750A00A2AFE433F50BC29D
:103BB300AF7E007F00901CB48010AE08AF09123CAA
:103BC3001B125087D2E7F0124B16124B2A603412A5
:103BD3003C23A2E750F1850882850983A3A3120B36
:103BE300BAAC0CAD0DAA0EAB0F122B6F7402120DF3
:103BF30065E960D3EE4F60C2123FBD7006123C35DB
:103C0300D2E4F0E50BA2E092AFEE4F6006122A5524
:103C1300750A01A90A02358212394DD2E4F0EE2267
:103C2300E508125E2E3509F583E022AA82AB8312E2
:103C3300184F8E828F83A3A3124C08E02274F212D2
:103C4300084374FE120E18750C00750D008518825A
:103C5300851983E4F0A3F0A2AF33F50AC2AF901C39
:103C6300B4126EAF802BEE24FBF582EF34FF1235D6
:103C73006C780C120D88123D24120D65EEFCEFFDDD
:103C8300AA18AB191216CFAE08AF09901CBAE014EC
:103C9300F0EE4F602B123D46501DEE240BF8E43F2F
:103CA300F98882F583E024FFF0A3E034FFF08882F3
:103CB300898312550B60AF8E0C8F0D123D3680A198
:103CC300E50AA2E092AF901CBAE0602C9006C0E037
:103CD300640F6006901D44E0701E7A927B1C122CC8
:103CE3005390968E120BB67A927B1C124D34120DA2
:103CF30065800574F0124C15AA18AB191216D58AF3
:103D0300088B09AE08AF09EA4F6013122983123DED
:103D130041A2E28E828F83A350D974E980D7023BFC
:103D230092EEFCEFFD7AB47B1C1216E17402228E34
:103D33000A8F0BEE24FBF582EF34FFF58322EE129C
:103D4300394E2212394DA2E72274F7120843EAFED4
:103D5300EBFF122983124C01122E0EE96401900627
:103D6300DC700AE02401F8A3E034008003124B87DF
:103D7300F9125289124D8C901CBAE0701F9006C044
:103D8300E0640F70177A927B1C122C5390968E125C
:103D93000BB67A927B1C124D34120D65A8A8C2AFE4
:103DA300901CBAE004F0E8A2E78004E508A2E092E0
:103DB300AF02519774F7120843EAFEEBFFEA123D94
:103DC300EDF0122983EEFCEFFD7AB47B1C1216DBB7
:103DD300A8A8C2AF901CBA1246DB9006C0E0640FDD
:103DE30070057908122B1B02519712394EC2E42237
:103DF30074F712084374EA120E18EAFEEBFF9006FA
:103E0300B9E0602A8518828519837401F01210863F
:103E1300E4123EA8121086123C2EC0E0740A12105F
:103E230086D0E0126194740B1210861253F4741648
:103E3300023F4274F7120843EAFEEBFF122965E9D9
:103E4300F974DC69601E74DD69601974E4696014D7
:103E530074F369600F74DE69600A74DF6960057466
:103E6300DB697007EEFAEFFB122B2102519774F70F
:103E730012084374EB120E18EAFEEBFF85188285D5
:103E830019837406123EA8121086AA82AB831218F5
:103E93004FEE2408FCE43FFD740A1210861253F41B
:103EA3007415023F42F0EA2413FCE43FFD7402223E
:103EB30074F712084374F7120E18EAFEEBFFEA24B4
:103EC30030125089605DEA123F331210867403F09A
:103ED3009006D5120BBA123F29120BBA9006E8E0EE
:103EE300F97404120DF8EEFAEFFB12296B74041245
:103EF3000D65E9F974DC69602374DD69601E74E49F
:103F030069601974F369601474DE69600F74DF69A2
:103F1300600A74E869600574DB697007EEFAEFFB09
:103F2300122B210236F7EE242EF582E43FF583228D
:103F3300126305AA18AB1912184F740822740312DE
:103F43000D6502519774F21208438A0C8B0D750AA2
:103F530000750B007508E7A2AFE433F509C2AF9013
:103F63001CB48003123D32123B8A6025123D465039
:103F7300F3123FBD70EEEE2432124154E06870E458
:103F8300780A120D88123D24120D65901CBAE014B4
:103F9300F0E509A2E092AFEE4F6013EEFAEFFB12E9
:103FA300298379F0EEFAEFFB122B21750800A9089B
:103FB300AA0CAB0D122B21023B97123B21E06401AB
:103FC3002274F412084374F7120E18EAFEEBFF8A08
:103FD30082F583A3E064F370030240628A828B83D9
:103FE300A3E064DF60798A828B83A3E064E8606F77
:103FF3008A828B83A3E064DB60651229C5E9F50837
:104003007055EE240E125089604D12406C60487456
:104013000812108612407B120BBA7508FF7509FF50
:104023007808120D888E828F83A3A3A3A3A3A3A3CF
:10403300A3E0F97404120DF812296B7404120D65D0
:10404300E9F50874F369600F74DF69600A74E8695D
:10405300600574DB69700F8E828F83A3E508F0EE31
:10406300FAEFFB1229D1023591EE240FFAE43FFB5C
:104073007909122A07EA4B2274021258FA74FFF0E4
:10408300A312408822125448A3A32274F1120843B6
:10409300EAFEEBFF7508008A82F583A3A3A3A3A31B
:1040A300A31235AF40037508E88A828B83A3A3A3C9
:1040B300A3A3A3A3A3A3A3E0C3941040057508E897
:1040C30080138A828B83A3A3A3A3A3A3A3A3A3A3E2
:1040D300E0640F600B901D21E0540870037508E83D
:1040E300EA240B124154A3A3A3A3A3A3A3A3E0C352
:1040F30098500DEA240B125089640F60037508E889
:104103009006D9E0F47003A3E0F470037508EC7A29
:10411300237B0012175F8B0BA90B901C9B1241632F
:1041230060278E828F83A3A3A982AA83890C8A0D19
:10413300750E00780C120D847C237D00901C9BE08F
:10414300FA124EC2120D65800375081AA908025EA1
:10415300ECF582E43FF583E0F88A828B83A3A32204
:10416300EAF0A3EBF0EA492274F5120843EAFEEB06
:10417300FF8A82F583A3A3A3A3A3A3A3A3E090062B
:10418300C01241FBE09006DBF0EA240B1250899049
:1041930006BB1241FBA3E0901D45F0F912141790E2
:1041A3001D45E0600BEE240412507B24061241F1FE
:1041B300901D441235876004740180027400901CC2
:1041C3009D12683F120D847C0B7D007A9E7B1C122E
:1041D3004EC2120D65EE2418F508E43FF509780880
:1041E300120D847C0B7D007AA97B1C024EAFFAE48E
:1041F3003FFB79E11213FF22126829A3A3A3A32291
:1042030074F7120843EAFEEBFF8A82F583A3E0709A
:104213000312353D1263B002519774F7120843EA53
:10422300FEEBFF901C9B12550B6010901C9B124BD6
:1042330038901C9BE4F0A3F01217658E828F837471
:1042430008124C1C121F8D02519774F612084390EA
:104253001D44E06010901C9DE0700A12426BEA4B13
:104263006003122A5B0264AA9006BBE0FB9006DBA4
:10427300E0FA9006C0E0F912297D2274F412084393
:1042830074E7120E18EAFEEBFF750B018A82F583C1
:10429300A3A3A3A3A3A3A3E0A2E25069EA242BF55B
:1042A30082E43F125F02EA2413FAE43FFB122989F6
:1042B300E970529095D6E064017005750B00804556
:1042C30012433D120D847C0B7D007411120DF0120C
:1042D3004EC2120D65122B63E9FA740E120DE888B3
:1042E3000889097808120D8875083075090078085F
:1042F300120D88EE12615D120BBA1262F779011288
:1043030035A9120D658518828519837410F0126220
:10431300F77402121086AA82AB83121843EE242B81
:10432300126AF0740B121086124D8C740D121086E3
:10433300E50B1265697419023593EE240812684778
:1043430022C082C083901D45E06003122BD5024C2E
:10435300ACC082C083901D3C747AF0A3741CF0A39C
:10436300747EF0A3741CF0A3748AF0A3741CF09001
:104373001EAF74DCF0A37431F0901D26745FF0A3BC
:104383007429F0901CBF7495F0A37429F0901CC19C
:10439300749BF0A37429F0901D21E044020247B0FE
:1043A300C082C083EAFCEBFD79030254B7C082C02C
:1043B30083790802662AC082C08374FE120E1890A5
:1043C3001CC77443F0A3742AF0901CC9743DF0A376
:1043D300742AF080077AB47B1C124415901CB41223
:1043E300550B70F1901CB612550B60097AB67B1C05
:1043F30012441580EF901CB4E4F0A3F0901CBAF0C3
:10440300A3F0A3F0901CD5747FF0A3742AF0740278
:10441300801C1216D5851882851983EAF0A3EB1246
:104423004429122B5122F0AA18AB19227411120D30
:1044330065024CAC74F6120843E9FF74C829F5828F
:10444300E43434F583E493FEFA7B001216ABEA4BB3
:104453006007EA2E12448580267A027B001216AB8F
:10446300EA4B601774DE2FF582E43434F583E4936A
:104473008A828B83F0A3741A12484E7A007B00025F
:1044830064AA124D7BE8126424A3A3A3A3E4F0223D
:10449300E9FC740629F8EAA2E0501EE875F00A84E4
:1044A300E5F0F96014740A28C399F8E9C394054048
:1044B30004740A28F8740B28F8ECC39413400479A5
:1044C3001480027906E82979002409F85001097A51
:1044D3000A7B00120664E8F9020D32C082C08390A1
:1044E3001D21E05402600A121F93E96004790180E0
:1044F300027900024CACC082C083901D21E05402BB
:104503006014901CBAE0700A125508600912451E27
:104513005004790180027900024CAC123561A2E7A4
:1045230022C082C0839095D3E0F8901CBCE0C3986E
:1045330050051216AB80047A007B00024CACC0829B
:10454300C083122B517900024CACC082C08374FE2D
:10455300120E18851882851983EAF0A3EB1246B769
:10456300A3A3A3A3A3E0600A14605724FE605A0226
:1045730046279006C0E0640F6012122B27E9700CE7
:10458300124B32901CC3124C04122E0E9006E8E01C
:10459300C0E085188285198312542BD0E01246B7E8
:1045A3007414125E48FCA3E0FD7AB67B1C1216CF8E
:1045B300A8A8C2AF901CBC1246DB7920122B1B02A9
:1045C3004411124985741580D9124985A3A3A3A365
:1045D300E06051124985123C39C0E0851882851983
:1045E30083E02406F582E43BF583D0E0125E4824A1
:1045F30002F8A3E03400F98882F583E02401FAA3EA
:10460300E03400FB88828983EAF0A3EB125E481250
:1046130049C5851882851983601312468C6005127B
:10462300469E4048AA18AB19122B51809212468C11
:1046330060F212469E50211246ABFA851882851904
:1046430083A3E0C82406124981F874F31256403458
:1046530034F583E4936A60148518828519831246BE
:104663008C640870BF1246AB640870B81246AB1472
:104673001246BF240AC0E0851882851983124C04B0
:10468300D0E01246BF040245A512469022124B8782
:10469300C82406F582E438F583E02285188285195B
:1046A30083124690C3940A2285188285198312398E
:1046B3005CA3E0221246C9F5838882221246C9C848
:1046C30024061249AF22F0851882851983124B877D
:1046D30022A8A8C2AF901CBBE004F0E8A2E792AF07
:1046E30022C082C083901CCB12550B600812498CE8
:1046F300122E0E80027900024CAC74F7120843EAC2
:10470300FEEBFFEA123B227401124D3AF8A3E0F9E3
:10471300123704124D8CEA2435125089C0E0EA2482
:1047230013F582E43FF583D0E0F0EA243612508992
:10473300C0E0EA2414F582E43FF583D0E0F0EA24F4
:1047430038125089C0E0EA2418F582E43FF583D09B
:10475300E0F0EA242FF582E43FF583120BBA1263EB
:1047630004EA2431125089F9123B03120D65E9F56D
:10477300087007EEFAEFFB122A5BA908025197C0F3
:1047830082C083122B27E960047920800279010219
:104793004CACC082C083EA24111247A6D2E0800D3C
:1047A300EA240DF582E43BF583E022F0A3F0024C0A
:1047B300ACC082C0831247A3640170111248484001
:1047C3000C8A828B83A3E0F9122B2180661248396D
:1047D300A2E650128A828B83A3E0F9901CC5124C87
:1047E30004122E0E804D1247A36401700D12484827
:1047F30050088A828B83743080368A828B83A3E04D
:10480300641B8A828B83700474228024A3E0700D5E
:104813001247A3F874BD1256403434800B1247A3D9
:10482300F874DE1256403434F583E4938A828B8322
:1048330012484E024CAC12483D22EA2410F582E4A1
:104843003BF583E02212483DA2E322F0901D1CE0D9
:10485300F91216B72274F7120843E9FE12550870CD
:104863000302497EEE6014741B6E701AE8125E1424
:1048730039F583E064057003024956901CBE124962
:104883008CA3E402495D74E96E7068E82412F58232
:10489300E439F583E0700B121F99E960051249CFE3
:1048A300606179EE121381901CBD1249A6901CBD64
:1048B300603A1249D2901CBD700B1249A614F01233
:1048C300153702497E1249C4C2E7124B6D240D12FB
:1048D30049816403700912499F124B23D2E2F07994
:1048E300ED1213811249B7122E0E80781249927479
:1048F300E9806774E16E703E121F99E960551249B1
:10490300CF70509006E2E0C0E012499F2412F58276
:10491300E438F583D0E0F09006D1E0C0E0901CBD10
:1049230012499B12499BD0E0F09006D1E004F07944
:104933000112151F8045741C6E7018901CBD124B1C
:1049430038901CCD124C04122E0E901CBDE4F0A323
:10495300F08028901CBD124992EEF0901CBD124BC2
:1049630038122A49124B4EE05480600312661990A4
:104973001CBDE4F0A3F07910122B1B0251971249CE
:10498300AF22851882851983A3E0F58388822212DA
:10499300499622124C0CA32212545922901CBD1288
:1049A300543A2212543A24121249AF22F582E438BF
:1049B300F583E022901CBD124B3C901CC1124C08A5
:1049C30022E0F8A3E0C824101249AF22901CBD12C4
:1049D3004B55E054042274F4120843750A00750B16
:1049E30000A2AFE433FEC2AF1255086003024ACC03
:1049F300124C01122E0EE94410F8901CB480098564
:104A0300080A85090B124B16124B2A7003024ACC73
:104A1300123C23586870E8780A120D88AC08AD0977
:104A2300123D28120D65901CBDE508F0A3E509129F
:104A33004B6D124B23A2E75003024AD3901CBBE0F9
:104A430014F0EEA2E092AF901CBDE0240EF8A3E0B8
:104A53003400F9E8FEE9FF8882F583124B38901C95
:104A6300BD1246B1F9122A0DE9901CB81261A78E46
:104A7300828F83E05480601812499F241312498166
:104A8300F912143B12499F2414124981F912142F6D
:104A9300124B4EA3E05401605F901CB812550B609B
:104AA30045124B646040124B64F87900901CB812B5
:104AB3004B3812066CE8C0E0124B42D0E0124B7246
:104AC300C3941340117402800FEEA2E092AF8037BB
:104AD300901CBA024A427400C0E0901CBEE0C812A7
:104AE3004B0DD0E0800D124B427401124B6D124BF3
:104AF3000D7401F07903800C901CBD1249C4A2E12E
:104B0300B3E433F912151F023596241AF582E438FB
:104B1300F58322E50824FBF582E50934FFF58322BA
:104B2300125E2E1249B222123572E508450922851A
:104B33001882851983124B3C22E0FAA3E0FB221270
:104B430054372419F582E438F58322901CBD124BA7
:104B53005522124B87C8124B5D2212564E38F583ED
:104B63002212543724181249AF22124B7FC8221243
:104B73004B7FF5838882A3A3A3A3E022F0901CBDFF
:104B8300124B8722E0F8A3E02274F7120843EAFEEF
:104B9300EBFF122B4B125086A2E3400A123FBD706B
:104BA300059095D180039095D2E0F9EEFCEFFD7A64
:104BB300B47B1C1216E7E96038EEFAEFFB901CC7D2
:104BC300124C04122E0EEE240E125089540470124D
:104BD3001246D4EE123705A3E05401701E122A5573
:104BE3008019EEFAEFFB901CBF124C04122E0E80BC
:104BF3000A8E828F83A374F1124C15025197901C75
:104C0300C9124C0822124C0C22E0F8A3E0F5838869
:104C13008222124C1C122A4922F0EEFAEFFB2202E6
:104C23004CA574F7120843EAFEEBFF7900901D21AF
:104C3300E05402700CEA2433125089540460027960
:104C4300E8901D21E05460700CEA2433125089541B
:104C530002600279E88A828B83A3A3A3A3E0F8907E
:104C630095D7E0C398500279E8EA2431125089704D
:104C73000CEA242E125089700479F5800BE9700533
:104C8300122A37E9F9E96007EEFAEFFB122B21024A
:104C93005197C082C0838A828B83740DF0121F8D5B
:104CA3008007C082C083122A55D083D082020D327E
:104CB30074F4120843EAFEEBFF8A82F583E4F0A35F
:104CC300124D3A54049095D17012E0F8901CBBE059
:104CD300C398401279F1122B21023596E0F8901C0B
:104CE300BAE0C39850EE124D40A3E054016037EA96
:104CF3002437125089C394054033EA243312508970
:104D0300540570297ACF7B1C122C53EE2437F5827D
:104D1300E43FF5831235477808120D807ACF7B1C68
:104D2300124D34120D65EEFA12573180AC79E880DA
:104D3300A5122C47740422F0124D40E022EA2433DA
:104D4300F582E43FF5832274F6120843E9FE245109
:104D5300FAE43400FB1216ABEA4B6015EE8A828B41
:104D630083A3A3A3A3F0EA2451124D7B124D8C809D
:104D7300047A007B000264AAF8E43BF98A828B83FD
:104D8300A3A322126AFA901D99E8F0A3E9F0220284
:104D93004CA5C082C083901CD874A9F0A3742AF0D8
:104DA300A374D9F0A3742AF0A374AFF0A3742AF008
:104DB300A374B5F0A3742AF0A374D3F0A3742AF0F8
:104DC300A374C7F0A3742AF0A374C1F0A3742AF0E8
:104DD300A374DFF0A3742AF0A374E5F0A3742AF09C
:104DE300A374EBF0A3742AF0A374F7F0A3742AF06E
:104DF300A374BBF0A3742AF0A374A3F0A3742AF0E2
:104E0300A3749DF0A3742AF0901CF474CDF0A374E2
:104E13002AF0A374F1F0A3742AF0A3740BF0A37423
:104E23002CF0A374FDF0A3742AF0A37403F0A3740D
:104E33002BF0901D18E4F0901D1BF0901D04124EF2
:104E4300527402F0901D0D124E5274010247B07459
:104E53001BF0A3742BF0A32274F512084374F11210
:104E63000E188518828519837402F0740112108656
:104E7300E9F060047AFF7BFF74021210861258EF88
:104E830075081075091D750A007808120D847C0BCE
:104E93007D007407121086AA82AB83124EC2120DD4
:104EA30065AA18AB19121F8D740F8003124EC2121C
:104EB3000D657F03020AFB7C0B7D007A107B1D12BC
:104EC300168774032274F712084374FD120E1885B3
:104ED3001882851983740AF07401121086E9F0743C
:104EE30002121086EA126569023F4074F612084303
:104EF30074F7120E18EAFEEBFFEA124F40124F70DE
:104F03007402F0EA2428FCE43FFDAA18AB19121836
:104F130043EE2431124F462433125F68120D887416
:104F230002120DF879831A1A123B01120D65E9F585
:104F3300087007EEFAEFFB122A5B0264A31237092B
:104F4300740122F582E43FF583123572125410F591
:104F530083124F5EE8F0A3E9F0EE22124F668A82D5
:104F63008B8322E024FFF8A3E034FFF922F0A3E4CB
:104F7300F0EA123B222274F01208431269D812108D
:104F83002F7808790C1207547808120D807A077B62
:104F93001D02357A74F412084374C6120E18900673
:104FA300C0E0640F600D851882851983742E125931
:104FB3000E80227AFE7B1C1235B812066C88088993
:104FC30009E4F50AF50B7808120D807AFE7B1C12B2
:104FD3004D34120D65743A02359374F5120843EAA1
:104FE300FEEBFF8A82F583A3E0F87078EA2430129F
:104FF300508964026007E06403600278E8EA2426CB
:10500300F582E43FF5831235B1400478E88058E82F
:105013007052EA24261241F1EE243112507B2430DF
:105023001250896402700EEE2428126AF09006CFA3
:10503300124D8C80179006CF74FEF0A304F0EE247B
:1050430028FCE43FFD7AC67B0612184FEE241B12A0
:105053004340120D84124EBA120D65EEFAEFFB12A5
:105063002A97E9F8E8600EE88E828F83A312630C17
:1050730074171263B6024EB5FAE43FFB795012136C
:10508300FFEE22EE2410F582E43FF583E02274F66E
:1050930012084374F7120E18901D1BE07037740149
:1050A300F0F91214E9AA18AB19122B5D75081075E3
:1050B300091D7808120D8875080175090078081212
:1050C3000D889006D5120BBA7406120DF87A0312E6
:1050D30035A7120D650264A574F71208431252B77F
:1050E3007004A374EBF0901D1BE0A2E25003C2E234
:1050F300F0E0A2E150051252C880098E828F8374BA
:105103002A1263B602519774F412084374FE120E06
:10511300181251BD125403EC851882851983125459
:1051230052E0F50B7015AA18AB1979531213FFEE61
:105133002413FAE43FFB794A1213FF12433D120D85
:1051430084124EBA120D65124B32A90B122A8B90A0
:105153001D1BE0A2E150031252CF901D1BE4F0741B
:105163000202359374F7120843EAFEEBFF8A82F5D5
:1051730083A374EBF0901D1BE0A2E150077A007942
:10518300EB122A91EEFAEFFB122AC78007EEFAEF31
:10519300FB122BC97F01020AFB74F7120843125159
:1051A300BD901D18E4F0901D1BF07AFF7BFF8E82EB
:1051B3008F83A3E0F9122A8B80DA1253087A077BD4
:1051C3001D122C532274F7120843EAFEEBFF122A36
:1051D300C180BA74F7120843125345A3A3A3E06036
:1051E300047400800274EB1252165003C2E2F0E022
:1051F300A2E150051253198011A2E0500D8E828F47
:1052030083742AF0A374EB1263B6EEFAEFFB122A4F
:105213006D80818E828F83A3F0901D1BE0A2E2221A
:1052230074F6120843EAFEEBFF901D1BE0D2E1F097
:1052330079011214E98E828F83A3E07038122B63F5
:10524300E9FAEE240DF508E43FF5097808120D8814
:105253007508017509007808120D88125289120B1E
:10526300BAEE2402FCE43FFD1235A7120D65E98E68
:10527300828F83A3F08E828F83A3E060067A00F986
:10528300122A910264AAEE240BF582E43FF58322ED
:1052930074F71208431252B77004A374EBF0901D15
:1052A3001BE0A2E25003C2E2F0E0A2E1500312527B
:1052B300C8025197EAFEEBFF79011214EF8E828F39
:1052C30083E0642022C2E1F01252CF227A008E8260
:1052D3008F83A3E0F9122A912274F7120843125321
:1052E300088E828F83A3A3A3A3E0600474008002CB
:1052F30074EB1252165003C2E2F0E0A2E150031223
:10530300531902520DEAFEEBFF79011214EF7AFEF4
:105313007B1C122C5322C2E112683AE0A2E4E4336C
:10532300FA1252D12274F712084312534574EB1246
:10533300521B5003C2E2F0E0A2E150031252C80232
:105343005197EAFEEBFF79011214EF8E828F83A34C
:105353002274F712084312536A02519074F7120829
:105363004312536A025197EAFEEBFF7AFE7B1C124B
:105373002C53EEFAEFFB122AEB2274F71208437454
:10538300EF120E18EAFEEBFFEA1262F87AC67B060A
:1053930012183DE960568518828519837409F074E3
:1053A3000112108674EFF01254037402121086EC8B
:1053B300125452A3A3E0C0E07404121086D0E0128A
:1053C300543F640870158E828F83A3A312542BE07D
:1053D300C0E07405121086D0E080067405121086B2
:1053E300E412619474061210861253F47411023F8E
:1053F30042AA82AB83122B93AA18AB19121F8D22D8
:10540300125410F583125422FCA3E0F922EE125435
:1054130018FB8882222402F8E43FF9E8FAE9221211
:105423004B878882F583E02212543A2407F582E4FD
:1054330038F58322901CBD124B87C8221254432295
:10544300125448E022F08E828F83A3A3A3A32212D7
:1054530064241254592212545D22E0F8A3E0F58328
:105463008882A3A322C082C083122BD5024CACC076
:1054730082C083901D3874D8F0A3741CF0A374F415
:10548300F0A3741CF0901EA9747AF0A37431F0A3F6
:105493007418F0A37431F0901D247485F0A3742A5A
:1054A300F0901D21E044010247B0C082C083EAFCB2
:1054B300EBFD7902122B39024CAC74F612084374DB
:1054C300FE120E18901D1D12550B60077A1D7B1DD1
:1054D300122B51901D23E4F0900D8412550B602084
:1054E3008007AA18AB19122B51901D1CE0F9121654
:1054F300C38B09A90985188285198312416370E258
:1055030074020264A7901CBD126AFAE8492274F778
:10551300120843E9FA7B00901D1CE0F91216ED0214
:10552300519774F712084374F0120E18EAFCEBFD5E
:10553300E9FE8A828B83E0F874E91256403434F52D
:1055430083E493C0E07401121086D0E0F0640B7022
:105553000DE98A828B83A3F0122BB702563BE070CE
:105563000302563B640C600302562C741A6E700BD4
:105573007404121086E4F0A302562B7404121086EE
:105583001258EFEA2432125DF8C0E0740312108659
:10559300D0E0126825121063740612108612106F81
:1055A3008C828D83A3A3A3A3A3A3A3A3A3126AF6AD
:1055B300740A121086E8F0A3E9125645E05410600D
:1055C30009851882851983E48013EC2412125DF88F
:1055D300F89006E2E0C398851882851983F0E0C04D
:1055E300E0740C121086D0E0F0EC2415125DF8C0C4
:1055F300E0740D121086D0E0F0EC2416125DF8C0B2
:10560300E0740E121086D0E0F0EC2417125DF8C09F
:10561300E0740F121086D0E0125645A3E0540160E7
:105623000874011210867411F07402121086EEF0E1
:105633007401120DF0121F8D7410023F4228F5827F
:10564300E422F0EC12564E3DF58322240EF582E45B
:1056530022C082C083901D23E0640370047901801B
:10566300027900024CAC74F7120843901D23E01238
:1056730056E474A728F582741E39F583125B76C24B
:10568300E7F01256EBA3E493FE25E0FCE433FD744C
:10569300A72CF582741E3D125F02EC4D6005EE905F
:1056A3001D23F08A828B83E025E0FCE433FDE82CA4
:1056B300F582E93DF583E493FCC4540F25E0F874C7
:1056C30032125640341DF58312550B7005122BA56B
:1056D300800CEC540F1256EB124C04122E0E025196
:1056E3009725E0F8E433F92225E0FCE82CF582E481
:1056F30039F5832274F212084374FE120E18890BD3
:105703008A088B09125796125787601A1261A1F5FE
:105713000A7808120D841257A32402125EF8120DA0
:105723006512572F80031257B5023B92AA0CEFFB69
:10573300901D1CE0F91216B72274F012084374FE90
:10574300120E18890B8A0E8B0F125796F5081257F3
:105753008760271261A1A808EA28124485850E08EC
:10576300850F09F50A7808120D841257A3125EF605
:10577300120D6512572F790080051257B5791A74E7
:105783000202357FFA7B001216AB8A0C8B0DAF0D2C
:10579300EA4F2274B229F582E43434F583E4932288
:1057A300A80B74D31256403434F583E493FC7D0084
:1057B300EA22851882851983E50BF0791AAA18ABBA
:1057C30019122B2122C082C083E9901D1C0247B00D
:1057D30074F612084374FE120E18EAFEEBFFEA5445
:1057E3002070308039A8A8C2AF901CBCE0141246C8
:1057F300DD8A828B831258DC901D1F1258EF122B07
:105803002D851882851983E0641560077A1F7B1D37
:10581300122B517AB67B1C1216D5EA4B70C7EF5484
:1058230080700C8016901D1FEAF0A3EB12590290B2
:105833001D1CE0F91216C3EA4B70EAEE5410600B1C
:10584300851882851983742D12590EEEA2E0500B30
:10585300851882851983742412590EEE5402600B45
:10586300851882851983742512590EEE5404600B32
:10587300851882851983742612590EEE5408600B1D
:10588300851882851983742812590EEE5440600DD1
:1058930074011210861258F5742C12590EEE5480AE
:1058A300600D74011210861258F5742F12590E9060
:1058B3001D1D12550B601BA8A8C2AF901D1D124BD6
:1058C30038901D1DE4F0A31246DDA3EAF0A3E9120C
:1058D30059027A007B000255031258E022E0851832
:1058E30082851983F022A3A3A3A3A3A3EAF0A3EBC6
:1058F300F022E41258FA22F085188285198322F0E7
:10590300122B2D7A1F7B1D122B5122124429122B8D
:105913002D22C082C083901D1F126564687002EB44
:10592300697007901D1FE4F0A3F0024CAC74F712EA
:105933000843EAFEEBFFEA4F70031211BFA2AFE484
:1059430033F508C2AF8E828F8312550B6028E8248B
:10595300FBFAE934FFFB901D1F125F04E86C700231
:10596300E96D7007901D1FE4F0A3F08E828F83E42E
:10597300F0A3F0121765023DAEC082C083901D46AE
:105983007499F0A3742BF0A374ABF0A3742BF0A35E
:1059930074B1F0A3742BF0A37467F0A3742AF0A37B
:1059A30074B7F0A3742BF0A37461F0A3742AF0A36B
:1059B300746DF0A3742AF0901D5474E7F0A3742B54
:1059C300F0A374BDF0A3742BF0A374C3F0A3742BE2
:1059D300F0A374CFF0A3742BF0A374C9F0A3742BBA
:1059E300F0901D45E40247B0C082C0839006CFE02B
:1059F30064FE7003A3E0F470097CC67D06121843AD
:105A0300801C8A828B83A3A3A3A3A3A3A3A374024F
:105A1300F09006CF126AF68A828B83124D8C024C69
:105A2300ACC082C0839006D9C3E094FEA3E094FF88
:105A33004004790380027902024CACC082C0831215
:105A43005B7F8C828D83125B34687039740268705B
:105A53001C8A828B83125A8DE06870298A828B8319
:105A6300A3125A8DA3E068701C7901801A7403682D
:105A73007013EC2405FC50010DEA2405FA50010BC8
:105A830012184980027900024CACA3A3A3A3A3E09C
:105A9300F88C828D83A3A3A3A3A32274F6120843D5
:105AA3007E00740A121086E0125B28FF8A828B83C1
:105AB300A3A3A3A3A3A3A3A3E06F706474026F7053
:105AC3004E8A828B83C082C08388828983A3A3A3E7
:105AD300A3A3E0F50888828983A3A3A3A3A3A3E0D8
:105AE300FBAA08D083D082E06A7003A3E06B703016
:105AF30088828983A3A3A3E0FA88828983A3A3A3CB
:105B0300A3E0F9EA6C7002E96D70157E01801174EF
:105B1300036F700CE82405FCE439FD121849E9FE13
:105B2300EEF90264AAF8A3E0F98882F583125B34E4
:105B330022A3E01313543F540322C082C0838A82FA
