:020000040000FA
:06000000020FE702060BEF
:03002B00020DB90A
:03004300020C6D3F
:0300530002054063
:1000830002059F0100F0FF0700080000FFFF0000CA
:10009300070400000003000147726F757000FF043E
:1000A30000100020FD0002000035150000000000D4
:1000B300009515000000000000111500000000006D
:1000C30000000000001D15000000000000000000FB
:1000D30000000006FFFF1E01191900003D19000072
:1000E300000000000000000000000000000000000D
:1000F300102020202020202020202020202020200D
:10010300200101040100010005EA810108830104C3
:100113000000241A000000E8030000FFFF9E1A01FC
:1001230088130000E803000064006400B801A0BB6A
:100133000D00A0BB0D0002020207040101051E020F
:10014300051E020A0A0101010809080103B80B028E
:10015300803E0102FEFFE8030A050001FFFF010ADA
:100163001401E0020000000105030101FF0F10FE6E
:10017300FF03000300030003000300030003000365
:1001830000030005000A00140028004F009E000031
:1001930000BC31000000002E3000000000FF000012
:1001A30000FF00120FF7601D1210067005191919D0
:1001B300801A120E9B701F120EAFC37003E66733D3
:1001C30019191940071818182208080874FFF61897
:1001D300F618F618F622120EAF601712109470215B
:1001E30092F012109D7019501720F0140808080996
:1001F3000909E7F61819E7F61819E7F61819E7F6E3
:100203002212109D60E6E869701F0808E62480F654
:1002130008E436F618547FB47F0CE654806007F682
:10022300E418F618F622181822E9C6CC08C6CD0839
:10023300C6CE08C6CFC0E0E8C0E0EAC0E0EBC0E04D
:1002430009E9F809E7FA09E7FBE6F918E6F8C3EC68
:1002530098ED99EE9AEBC2E7F5F0EFC2E795F0500F
:100263000E600CEBCFFBEACEFAE9CDF9E8CCF8EA65
:10027300A2E7D2E7FAEB33FB13F5F0EEA2E7D2E7FE
:10028300FEEF33FFC5F013A2E730E601B313C5F069
:10029300C3C0E0C0F07F00C39BFB605E9418600F97
:1002A300401D14601AD0E023F9D0E0F80203878AD6
:1002B300F0E9486003D2F0E4AFF0FAF9F8803BEBE1
:1002C30030E40D89F0EA6003D2F0E4AFF0F9CAF844
:1002D300EB30E30D88F0EF6002D2F0AFF0E4CAC96F
:1002E300F8EB54076014FBC3EA13FAE913F9E813B4
:1002F300F8EF135002D2E0FFDBEDD0E0C0E030E7CF
:1003030039C3E49FFFF5F0EC98FC42F0ED99FD4210
:10031300F0EE9AFE42F0D0E0F9D0E0F8E5F0607A32
:10032300E923F9EE20E742D8028067C3EF33FFECFD
:1003330033FCED33FDEE33FE80EAEC28FCED39FDB2
:10034300EE3AFED0E023F9D0E0F84002801BC3EE82
:1003530013FEED13FDEC13FCEF135002D2E0FF0884
:10036300B800067F7F74FF802EEF3350178CF02088
:10037300F00260100CBC000C0DBD00080EBE0004A2
:1003830008E860DFE933E813FFEE2313FE4F4D4C1B
:100393008008E95480FFE4FEFDFCEE33EF33F47094
:1003A30004FCFD7E80D0E0FBD0E0FAD0E0F8D0E0A2
:1003B300CFC618CEC618CDC618CCC6F92200120F68
:1003C300F7604F1210066012E7548066F6120E9B18
:1003D3007011121094703B090909F4F618F618F617
:1003E30018F622120EAF701512109D08080860EA65
:1003F300E6447FF618768018E4F618F62212109D6C
:1004030060161210947012E4F608F608F608E65423
:1004130080F609090918181822EAC0E0EBC0E0ECDD
:10042300C0E0EDC0E0E687F0A4FBACF008E687F09F
:10043300A42CFCE435F0FA1809E687F0A42C4B60F1
:10044300027401CA35F0FCE433FB09E687F0D2F706
:10045300A42CCB35F0FC1908E687F0A42BCC35F09F
:10046300FBE433FD0819E687F0D2E7A42C4ACB3529
:10047300F0CD3400FC09E687F0D2E7A42DCC35F0AB
:10048300FDE433FA0918E687F0D2F7A42CCD35F052
:10049300CA3400FC08E687F0D2E7D2F7A42ACC35A9
:1004A300F07A7E20E70B0ACB33CBCD33CDCC33CCE4
:1004B30033CB3350147004ED30E00ED2F1E4CD3D74
:1004C300CDCC3CCC3B5005DA05C2F1EB547FC633AF
:1004D30008E63392F0FBE73309E733C39A502D2B39
:1004E30070190C0D4C4D70151806E608C333700DCA
:1004F30020F10AA2F013F6E418800B4024E4F6304E
:10050300F002768018F618F618F68024D33B1450C0
:100513001074FFA2F013F6187680E418F618F6802C
:100523000FA2F013F618E63303F618ECF618EDF6FF
:10053300D0E0FDD0E0FCD0E0FBD0E0FA22C0E074D4
:10054300F11208B1A2AFE433F509D2AF85A708AF22
:10055300A1EF5508FE74105E60061212A175A1EF9B
:1005630074085E60081212A775A1F78024EFA2E059
:1005730092F0E508A2E082F05017906198E0F890BD
:1005830006A8E0C398A2D265D0335002E8F075A163
:10059300FEE509A2E092AF7F0202096DC0E074F2AA
:1005A3001208B1A2AFE433FED2AF9061A4E0F875B4
:1005B3009B00E59158540860087591F71212F58075
:1005C30023E59158541060087591EF1212FB8014C3
:1005D300E591A2E092F0E8A2E082F05007E0C2E0E9
:1005E300F01214459061A3E0F8E5E9585404600E55
:1005F30012141B75E9FB906193E0A2E640F2EEA2B0
:10060300E092AF7F0102096DC0E074F21208B1A25B
:10061300AFE433FED2AF9061A5E0F8E5BF585404D0
:10062300600675BFFB12145D80D4C3E498F8E499A7
:10063300F912066E8026C3E49AFAE49BFBE920E7ED
:10064300E912066EE498F8E499F922C3E498F8E411
:1006530099F912066EE498F8E499F9C3E49AFAE476
:100663009BFB22EB20E7CFE920E7E0B90010BB00BA
:1006730008E88AF084F8AAF022E4FBC8FA22EB70B7
:10068300227B10C833C8C933C9335007C39AC3DBAD
:10069300F280069A50012ADBEAC833F4C8C933F45E
:1006A300C9FA2275F008E4C833C8C933C933C99AF3
:1006B300C99B5004C92AC93BD5F0ECFBC833F4C825
:1006C300E4C9FA2212070720F01430E72B74FFFC69
:1006D300FBFA747F8022E4FCFBFA7480801AB480F6
:1006E30008BC00F2BB00EF800F50EBF9E4C39AFAA9
:1006F300E49BFBE49CFCE499C6CC18C6CB18C6CAA1
:1007030018C6F922E4C9C608CAC608CBC6D3330340
:1007130008CCC63392F0C3947F402E94184019C975
:10072300B90704CACBCC225025C309CA33CACB3379
:10073300CBCC33CC33D9F422F4600DC9CCC313CB67
:1007430013CBCA13CAD9F6CC22E4FCFBFA2214FC5D
:10075300FBFA22080808EAC0E0EBC0E086F0E7A451
:10076300FA180986F0E7A42AFA180986F0E7A42AFA
:10077300FA180986F0E7A42AFA1986F0E7A4FBE53C
:10078300F02AFA190886F0E7A42BFBE5F03AFA19E8
:100793000886F0E7A42BFBE5F03AFA18180986F06F
:1007A300E7A4C5F02BFBE43AFA1908E7C5F0C6A4A1
:1007B30026F6E5F03BFBE43AFA1886F0E7A4F6E503
:1007C300F00826F6E43B08F6E43A08F6D0E0FBD05E
:1007D300E0FA22E4CFC0E0E4CEC0E0E4CDC0E0E440
:1007E300CCC0E075F020E626F608E633F608E633DB
:1007F300F608E633F6181818EC33FCED33FDEE3348
:10080300FEEF33FFC3EC9709ED9709EE9709EF97D6
:10081300191919400FFFEC97FC09ED97FD09EE97A5
:10082300FE191906D5F0BFECF709EDF709EEF70944
:10083300EFF7191919D0E0FCD0E0FDD0E0FED0E0CD
:10084300FF222518C582C0E0E51934FFC583C0E047
:10085300E518C3958224F810AF088583198582189B
:100863008008858319858218D2AFCEF0A3E520F0E6
:10087300A37808E608F0A3DEFAEFF0A3E58124FAF3
:10088300F8E608F0A3E608F0A3E608F0A30808E6F4
:1008930008F0A3E608F0A315811581D0E0FED0E0AF
:1008A300F8158115811581E8C0E0EEC0E022C0D0C3
:1008B3002518C582C0E0E51934FFC583C0E0E518FB
:1008C300C3958224F310AF088583198582188008A5
:1008D300858319858218D2AFC8F0A3E9F0A3EAF0A3
:1008E300A3EBF0A37908E709F0A3D8FAECF0A3EDA2
:1008F300F0A3EEF0A3EFF0A3D0E0F0A3D0E0F0A3D9
:10090300D0E0F0A3E520F0A3E5F0F0A322E9799E7F
:10091300C608CAC608CBC608CCC6C370207996CA17
:10092300CBCC7019798ECBCC70137986CC700EF941
:10093300802ACA33CACB33CBCC33CC331930E7F25A
:10094300CCCBCA3350147004EA30E00DE4CA3ACA7F
:10095300CB3BCBCC3CCC500209C3E913C6CC182308
:1009630013C6CB18C6CA18C6F922851983851882FF
:10097300E0C0E0A3E0F9A3E0FAA3E0FBA37808E07A
:10098300F608A3DFFAE0FCA3E0FDA3E0FEA3E0FF8B
:10099300A3E0C0E0A3E0C0E0A3E0F5D0A3E0F5202E
:1009A300A3E0A3F5F010AF088583198582188008AA
:1009B300858319858218D2AFD082D083D0E0F8D056
:1009C300E03212107FB90003020A04E490040178B4
:1009D3009B791A8002F0A3D8FCD9FA7A9B7B1D90ED
:1009E3000086782179028015E493A3AD82AE838AD1
:1009F300828B83F0A3AA82AB838D828E83D8E9D9BD
:100A0300E77582EA7583FD7404120D30758289756A
:100A1300832D7400120D30E47375F0108E1A8F1B42
:100A230085821F85831E851882851983E0CEA3E006
:100A3300CF851F82851E83EBC9EAC8EDCBECCAC301
:100A4300E833C8E933C9EA33CAEB33CBC3EA9EF5CB
:100A53001DEB9FF51CB35004AB1CAA1DEC33CCED6E
:100A630033CDD5F0DAAE1AAF1B22D083D082ECC0DF
:100A7300E0EDC0E0E493A3FCE493A3FDED4C600D33
:100A8300120B45EC24FFFCED34FFFD80EFE493A350
:100A9300FCE493A3FDED4C600D120C18EC24FFFC59
:100AA300ED34FFFD80EFD0E0FDD0E0FCE493A3C084
:100AB300E0E493C0E022D083D082E9C0E0E493A3D2
:100AC300C386F0C5F095F0F908E493A386F0C5F06A
:100AD30095F0700BE493A3C3994005E9048002A346
:100AE300E475F002A42582F582E5F03583F583D021
:100AF300E0F9E493A3C0E0E493C0E0228519838581
:100B03001882E0A3FEE0A3F5207808E0A3F608DF4F
:100B1300FAE0A3FFE0A3C0E0E0A3C0E0E0A3C0E0ED
:100B2300E0A3C0E0E0A3C0E010AF0885821885838E
:100B3300198008858218858319D2AFD083D08202A9
:100B43000D36C0E0C3E49396087401939618400FE2
:100B5300E49366700808740193661870007019A313
:100B6300A3C3E49396087401939618A3A3400DD0EE
:100B7300E0D0E0D0E0020AA9A3A3A3A3A3A3D0E0FB
:100B830022C082C08374FE120E1C851882851983CD
:100B9300EAF0A3EBF07C017D00AA18AB19790012EF
:100BA3001229851882851983E0FAA3E0FB740212E7
:100BB3000D69D083D082227404800474028000CC37
:100BC300C0E0EDC0E0E518C39CCCAD1950011D1089
:100BD300AF068C188D1980068C188D19D2AF120CA4
:100BE300B2D0E0FDD0E0FC2274028000CCC0E0ED86
:100BF300C0E0E518C39CCCAD1950011D10AF068CA5
:100C0300188D1980068C188D19D2AF120C90D0E074
:100C1300FDD0E0FC22C0E0C0F088F0E493667008E9
:100C23000874019366187000A8F0A3A3700BD0F0AA
:100C3300D0E0D0E0D0E0020AA9A3A3D0F0D0E02214
:100C4300D083D082CCC0E0E493A36006120D1114CC
:100C530070FAE493A36006120E321470FAD0E0FC2B
:100C6300E493A3C0E0E493C0E022C0E074F212086E
:100C7300B1A2AFE433FED2AFC2C0E5D1A2E45003C8
:100C8300121211EEA2E092AF7F0102096DCAC0E019
:100C9300E493A3C582CCC582C583CDC583F0A3C528
:100CA30082CCC582C583CDC583DAE5D0E0CA22CA2A
:100CB300C0E0E0A3C582CCC582C583CDC583F0A3C4
:100CC300C582CCC582C583CDC583DAE6D0E0CA220E
:100CD300C008C3E096F50808A3E096420808A3E01D
:100CE30096420808A3E09645087001D3D008227005
:100CF30009080808226016181818C6C333C608C6A0
:100D030033C608C633C608C633C6D5E0EA22C0E0F8
:100D1300E493A3D39C5010E493A3C39C400AD0E074
:100D2300D0E0D0E0020C60A3A3A3D0E022C09FF5E3
:100D33009FE473D09F22D083D082C09FE493C0E00E
:100D4300740193C0E0740293F59F222518F5821075
:100D5300AF08F518400C15198008F518400215194D
:100D6300D2AF8519832200C0D0251810AF08F5181B
:100D7300500C05198008F51850020519D2AFD0D0D0
:100D8300227404800A74038006740280027401C012
:100D9300E0F404120D4ED0E012104222BB0102E730
:100DA30022C082C08389828A83BB0003E08002E47D
:100DB30093D083D08222C0E0C0D0E8C0E0A8A8D2FC
:100DC300AFC2C7E8A2E792AFD0E0F8D0D0D0E0320C
:100DD3006016080808C6C313C618C613C618C61378
:100DE300C618C613C6D5E0EA222518F8E43519F962
:100DF300222518FAE43519FB222518FCE43519FDE0
:100E030022C3E0C696F608A3E0C696F608A3E0C69A
:100E130096F608A3E0C696F622251810AF08F51833
:100E2300400C15198008F51840021519D2AF22C0DD
:100E3300E0E493A36C7009D0E0D0E0D0E0020C6052
:100E4300A3A3D0E022E066701008A3E066700A084E
:100E5300A3E066700408A3E06622C3E09608A3E05B
:100E63009608A3E09608A3E096A2D265D03322E7C2
:100E73006670100809E766700A0809E766700408D7
:100E830009E76622C3E096F008A3E096F008A3E022
:100E930096F008A3E096F022181818E608460870A2
:100EA30009E626087005E633F4220822191919E722
:100EB3000947097009E727097005E733F422092276
:100EC300C3E4939608740193960874029396087486
:100ED30003939622C3E697F60809E697F60809E610
:100EE30097F60809E697F622E026F608A3E036F619
:100EF30008A3E036F608A3E036F622E647F608092B
:100F0300E647F60809E647F60809E647F6227004BD
:100F130022600D18C6C333C608C633C6D5E0F4181D
:100F230022E657F60809E657F60809E657F60809D0
:100F3300E657F622E056F608A3E056F608A3E05675
:100F4300F608A3E056F622E056F008A3E056F008B0
:100F5300A3E056F008A3E056F022E627F60809E6D8
:100F630037F60809E637F60809E637F622E026F0F1
:100F730008A3E036F008A3E036F008A3E036F02239
:100F8300E493F608740193F608740293F608740365
:100F930093F622E4C396F608E496F608E496F60878
:100FA300E496F622600D08C6A2E713C618C613C658
:100FB300D5E0F322C6F4C608C6F4C608C6F4C608CC
:100FC300C6F4C622C3E7960809E7960809E7960818
:100FD30009E79622C3E09608A3E09608A3E09608E3
:100FE300A3E0962275D00075813F75180175190429
:100FF300000209C5E6084608C3134608336002E643
:1010030033F422E7094709C3134709336002E7337F
:10101300F422600C08C6C313C618C613C6D5E0F481
:1010230022E6F008A3E6F008A3E6F008A3E6F02220
:10103300E0F608A3E0F608A3E0F608A3E0F622CA68
:10104300C0E0E6F0A308DAFAD0E0FA22E0FAA3E07F
:10105300FBA3E0FCA3E0FD22EAF0A3EBF0A3ECF09A
:10106300A3EDF022E0F8A3E0F9A3E0FAA3E0FB226A
:10107300E8F0A3E9F0A3EAF0A3EBF022E5C754F804
:101083004401F5C77901222518F582E43519F58362
:1010930022E72719471947194722E6261846184613
:1010A300184622C2AF75D69F02000022120D395393
:1010B3006F00120D39CF6F00120D39027000120D3F
:1010C30039307000120D39547200120D39707200EC
:1010D300120D39B57200120D393A7300120D3986AB
:1010E3007300120D39167400120D39EF7400120DCE
:1010F30039407500120D39A57500120D39187600A7
:10110300120D395C7600120D39B47600120D39D602
:101113007600120D39667700120D39F77700120D3C
:1011230039437800120D396F7800120D39B0780009
:10113300120D39517A00120D39337B00120D390F1C
:101143007C00120D391BB806120D3936B806120D84
:101153003968B806120D3995B806120D39BAB806B2
:10116300120D39E5B806120D3910B906120D3940C2
:10117300B906120D39CAC806120D39DBC806120D9D
:101183003979C906120D3993C906120D39F87F0052
:10119300120D39E9FF01120D3942CA06120D3952F7
:1011A300CA06120D3967CA06120D39B0CA06120DE6
:1011B30039ECC406120D3970C506120D39D8C506AF
:1011C300120D39E3FF04120D39D7B106120D39E5BB
:1011D300B106120D395EB206120D3933B306120D84
:1011E3003905B506120D39BFCC06120D390F8D0620
:1011F300120D397C8D06120D39348E06120D39AA63
:101203008E06120D39BE8F06120D394E9106120D40
:1012130039B79106120D39069206120D390F92064F
:10122300120D391E9206120D39349206120D3947EA
:101233009206120D39509206120D39639206120D61
:10124300398F9206120D39269506120D39669506C9
:10125300120D39A29506120D39B69506120D39CF26
:101263009506120D39C09606120D39729706120DA6
:1012730039869706120D39B6BE06120D39DABE0647
:10128300120D39F3BE06120D3931BF06120D396145
:10129300BF06120D398EBF06120D39F4BF06120DAB
:1012A30039F7BF06120D3901C006120D390EC006FB
:1012B300120D3974B506120D3994B506120D39D3D2
:1012C300B506120D39F1B506120D390CB606120D1D
:1012D3003972B606120D397EB606120D39DBB60623
:1012E300120D39EAB606120D390EB706120D39CFB3
:1012F300B706120D39DCB706120D39EDB706120D1C
:1013030039B9CA06120D3901CB06120D392DCB0698
:10131300120D397FA106120D39DBA206120D39E930
:10132300A206120D39FCA206120D3911A306120DE5
:101333003926A306120D3939A306120D39B5A306B2
:10134300120D391AA406120D39B0A406120D3989EB
:10135300A506120D3999A506120D39A8A506120D79
:1013630039A9C906120D39CDC906120D39F5C906B9
:10137300120D391DCA06120D3994FD01120D39BB28
:10138300FD01120D39D9FD01120D3948FE01120D6F
:1013930039E97C00120D39027D00120D390E7D00F2
:1013A300120D39227D00120D39407D00120D394A8C
:1013B3007D00120D39547D00120D39677D00120D29
:1013C30039ED7D00120D39627E00120D39917E00D8
:1013D300120D39DF7E00120D392E7F00120D3949AF
:1013E3007F00120D39537F00120D39647F00120DF7
:1013F30039A77F00120D39E9CB06120D3982EB05AF
:10140300120D39AEEB05120D39CBEB05120D39DE9A
:10141300EB05120D39F9EB05120D3953EC05120DDD
:101423003981EC05120D3991F005120D39EFF105F3
:10143300120D3921F205120D3984F205120D39F01E
:10144300F305120D3918F405120D392DF405120D9B
:10145300393DF405120D397DF405120D39BFF4053C
:10146300120D39CFF405120D39A2C206120D39BC83
:10147300C206120D39E4C206120D39FDC206120D61
:101483003921C306120D393FC306120D3956C3065F
:10149300120D3984C306120D399FC306120D39B2DA
:1014A3007F00120D3975FC03120D3985FC03120DF3
:1014B300398AFD03120D39BCFD03120D39ECFD030E
:1014C300120D390FFE03120D3926FE03120D39607A
:1014D300FE03120D39C5FE03120D3907FF03120D6A
:1014E300394EFF03120D397BFF03120D39A6FF039B
:1014F300120D395DC106120D397BC106120D39DD9E
:10150300C106120D3977C206120D39DFC706120D57
:1015130039D2C306120D391AC406120D39A2BB06FD
:10152300120D3903BD06120D3918C006120D393DCF
:10153300C106120D391CE105120D39A6E405120D81
:1015430039A2E605120D39D4E705120D39ADE805C8
:10155300120D393DEA05120D3909EB05120D395DFE
:10156300EB05120D39E0B906120D3901BA06120D59
:10157300393BBB06120D3965BB06120D3984CC0607
:10158300120D3994CC06120D399ECC06120D39C5B5
:10159300B905120D39C8B905120D39A4C105120DCB
:1015A30039F6C205120D3957C405120D392EC5057A
:1015B300120D3907C605120D39F0C605120D39E4AF
:1015C300C705120D399CC805120D39CCC805120D7B
:1015D300397CCA05120D3952BD06120D3972BD068A
:1015E300120D3986BE06120D3989BE06120D39F168
:1015F300C606120D3927C706120D393FC706120D4D
:101603003981C706120D3991C706120D39D5C706A0
:10161300120D39008006120D393A8006120D39A3D6
:101623008006120D39C28006120D39DB8006120DB9
:10163300397D8106120D39868106120D39D781064F
:10164300120D39008206120D390D8206120D397EF4
:101653008206120D390C8306120D395A8306120DB8
:1016630039908306120D39F18306120D391A840657
:10167300120D39918406120D39ED8406120D392AA3
:101683008506120D39618506120D39738506120D13
:1016930039858506120D39A48506120D39AD8506E7
:1016A300120D39688606120D39B48606120D39F209
:1016B3008606120D3930CB06120D399A9706120D94
:1016C30039DA9806120D39FD9806120D390E99066E
:1016D300120D392D9B06120D394D9B06120D39C281
:1016E300FD02120D39F8FD02120D3940FE02120DF2
:1016F3003999FF02120D39ABE904120D39DCEA0402
:10170300120D3918EB04120D39D2EC04120D39FC09
:10171300EC04120D3975EF04120D39B5EF04120DF7
:101723003949F104120D39E8F104120D3940F2047C
:10173300120D39D3F204120D390DF304120D394F82
:10174300F304120D39C2F404120D3942F604120DDA
:10175300397FF804120D39ADF804120D39D9F804A4
:10176300120D39E2F804120D393FF904120D39CF85
:10177300F904120D390BFD04120D398DFD04120D00
:10178300394ECD06120D3964CD06120D3911AA0654
:10179300120D3927AA06120D39CBAA06120D390AE2
:1017A300AB06120D3927AB06120D3958AB06120DD5
:1017B30039A5AB06120D39D9AB06120D3914AC0697
:1017C300120D3909AE06120D39F1C506120D395045
:1017D300C606120D398EC606120D39CFC606120D76
:1017E30039008004120D390C8004120D396E800407
:1017F300120D39788004120D39058104120D394117
:101803008104120D39048204120D39178204120D5A
:1018130039858204120D39ED8204120D397C83045B
:10182300120D39FA8304120D399F8504120D3958AC
:101833008704120D399E8804120D391B8A04120D78
:1018430039C28A04120D39908F04120D398790041E
:10185300120D39169104120D393B9104120D39D82A
:101863009104120D39F59104120D39159204120DDC
:1018730039869204120D39A39204120D39D19204C0
:10188300120D39699404120D398A9404120D3930FA
:101893009504120D39789504120D39EA9504120D49
:1018A300396D9604120D39D29604120D392F97040F
:1018B300120D39CE9704120D39429804120D397E58
:1018C3009804120D39EB9804120D39559A04120D30
:1018D30039D69B04120D39859C04120D39E79E04F9
:1018E300120D39499F04120D39779F04120D398F58
:1018F300A104120D391FA404120D3922A504120DDF
:10190300391E8706120D391A8806120D39E9890620
:10191300120D39098A06120D390C8A06120D391F68
:101923008A06120D39418A06120D39658A06120D8F
:1019330039BC8A06120D39D48A06120D390F8B066B
:10194300120D39808B06120D39DC8B06120D397896
:101953008C06120D39E08C06120D3923CD06120DBB
:10196300399FCB04120D393ECC04120D39BACC0485
:10197300120D39A9CD04120D39A7CE04120D392643
:10198300CF04120D3968D004120D3909D104120D98
:1019930039C9D204120D39D0D304120D39EDD30451
:1019A300120D3918D504120D3955D604120D39FF0D
:1019B300D604120D3969DA04120D3971DC04120DE3
:1019C30039FADC04120D3954DD04120D39A2DD0499
:1019D300120D391DDE04120D399FDE04120D39DBA1
:1019E300DE04120D397FE504120D39DAE704120D16
:1019F30039B6E804120D39349D05120D39669D057B
:101A0300120D39EA9D05120D394D9F05120D393B13
:101A1300A005120D3903A205120D3928A205120DD6
:101A2300397AA205120D390CA305120D3958A305F5
:101A3300120D396BA305120D39C8A305120D3937E1
:101A4300A405120D3904A505120D3972A505120D51
:101A530039A9A505120D39F2A505120D399AA70565
:101A6300120D3979A805120D39C7A905120D39AA26
:101A7300AA05120D3936AB05120D396FAB05120DE0
:101A8300398EAB05120D39D9AB05120D39F9AB05FA
:101A9300120D39B6AC05120D39C3AD05120D39D788
:101AA300AD05120D392BAE05120D3986AE05120D9B
:101AB30039D3AE05120D39DBAF05120D3960B2050E
:101AC300120D3986B205120D3901B305120D3926EF
:101AD300B305120D39ADB305120D3989B405120DD5
:101AE30039C7B405120D394BB505120D3936B60594
:101AF300120D3939B605120D3943B605120D394D9C
:101B0300B605120D3969B605120D39E5B605120D84
:101B1300391EB705120D393AB705120D3966B705E7
:101B2300120D398DB705120D39B1B705120D39EC08
:101B3300B705120D395FB805120D3993B805120DAB
:101B4300399DB805120D39D9B805120D39F3B80509
:101B5300120D391AB905120D3949B905120D396833
:101B6300B905120D3980B905120D3992B905120D57
:101B73003934CC06120D394CCC06120D39FB7F00DB
:101B8300120D39FFF405120D394EF505120D390CFE
:101B9300F705120D39C6F805120D3904F905120DB2
:101BA30039F9F905120D3904FB05120D3926FB0528
:101BB300120D3970FB05120D39F1FB05120D392A8F
:101BC300A904120D394DA904120D39ABAA04120D43
:101BD30039F4AA04120D3952AB04120D39B8AB040F
:101BE300120D39BBAB04120D390CAC04120D39863E
:101BF300AC04120D3914AD04120D3917AD04120DD6
:101C0300399FAD04120D39E2AD04120D3952B204FD
:101C1300120D39F0B304120D392AB404120D3970C0
:101C2300B404120D39D0B704120D3955B804120D8E
:101C330039EDB904120D39FCBA04120D3929BC046B
:101C4300120D3989BC04120D3965BD04120D39EF2B
:101C5300BD04120D39F2BD04120D39D7BE04120DA5
:101C6300391DC004120D39D1C104120D39A4C304A6
:101C7300120D3936C404120D39CBC404120D39BD0B
:101C8300C504120D397DC704120D3993C804120D12
:101C93003902CA04120D3947CA04120D39F2CA04B3
:101CA300120D39008005120D399B8005120D390E76
:101CB3008105120D39298105120D39CA8105120DCD
:101CC30039118205120D39348305120D39778305D5
:101CD300120D39F38305120D39468405120D39A50A
:101CE3008405120D39B28505120D39CF8805120D01
:101CF30039058A05120D398E8A05120D39928C0524
:101D0300120D39368D05120D39D58D05120D393663
:101D13008E05120D39A58E05120D39FE8F05120D94
:101D230039E89005120D39239105120D39439105B8
:101D3300120D39F49105120D39319205120D39BA8C
:101D43009205120D39359405120D39009605120DC1
:101D5300395B9705120D39D09805120D39DF9905B6
:101D6300120D396C9A05120D39D59A05120D39E108
:101D73009B05120D39CBD903120D392EDA03120D3F
:101D83003976DA03120D39B4DA03120D390FDB0396
:101D9300120D396CDB03120D39A7DB03120D392940
:101DA300DC03120D3983DC03120D39F7DD03120D49
:101DB3003975DE03120D398DDF03120D39B5DF03DB
:101DC300120D3904E103120D3915E103120D392DFA
:101DD300E103120D3942E203120D391FE303120D21
:101DE300391CE403120D3940E403120D3957E4039F
:101DF300120D3978E403120D399AE403120D39B93F
:101E0300E403120D398DE503120D39E7E503120DD5
:101E13003988E803120D39E1E803120D3900E903AB
:101E2300120D39EBE903120D3921EA03120D395B67
:101E3300EB03120D39DAEB03120D3933FD02120DE8
:101E4300394BEC03120D39BAEC03120D397BED0358
:101E5300120D3954EF03120D395BF003120D39CC17
:101E6300F103120D39CCF303120D3947F603120DAA
:101E73003921F803120D39E2F803120D395AF90327
:101E8300120D3971F903120D396BFA03120D39630F
:101E9300FB03120D39D2FB03120D3921FC05120D80
:101EA30039D1FD05120D3990FE05120D39F8FE05E5
:101EB300120D396CFF05120D39D6E005120D3934B8
:101EC300AE06120D3978AE06120D399EAE06120D0E
:101ED30039C5AE06120D39DDAE06120D39F5AE0663
:101EE300120D3997AF06120D39D9AF06120D39FB12
:101EF300B006120D3904B106120D390DB106120DDB
:101F03003916B106120D3920B106120D398F9C0610
:101F1300120D39C3A006120D39D1A006120D39D600
:101F2300A006120D3970FE04120D39F7CC06120DFE
:101F3300398ACB06120D399ACB06120D39D9A5066B
:101F4300120D39008003120D39328003120D399EB0
:101F53008003120D39398103120D39D88103120D13
:101F6300391D8203120D393F8203120D3958820342
:101F7300120D397E8203120D39A08203120D39DE50
:101F83008203120D39228303120D39448303120D88
:101F930039A68303120D396D8403120D3924850389
:101FA300120D39968503120D39688603120D39B265
:101FB3008603120D39058703120D396B8703120D42
:101FC30039A58703120D39F78703120D39138803D7
:101FD300120D393E8803120D39458A03120D3999C2
:101FE3008B03120D39BB8B03120D39EF8B03120DCB
:101FF30039108C03120D391F8C03120D392A8C03EF
:10200300120D39DA8C03120D39438D03120D39F099
:102013008D03120D39288E03120D39EE8E03120D26
:1020230039FB8F03120D39459003120D39D49003F8
:10203300120D39389103120D39739103120D39DFE3
:102043009303120D39339503120D396C9803120D56
:1020530039399903120D39C79903120D39F09903D0
:10206300120D39629A03120D39F69A03120D39547F
:102073009B03120D39469C03120D39689C03120D04
:1020830039C49D03120D39DD9D03120D39F09D03F3
:10209300120D394D9E03120D395C9E03120D39EF5B
:1020A3009E03120D39FB9F03120D3908A003120D75
:1020B3003911A003120D39E9A103120D390FA3033E
:1020C300120D391FA303120D3921A403120D3998E0
:1020D300A403120D39C7A403120D39CDA503120DA4
:1020E3003913A603120D39DFA703120D39B7AB035A
:1020F300120D39C1AB03120D39D5AB03120D39DF04
:10210300AB03120D39E9AB03120D39F3AB03120D17
:10211300390CAC03120D3916AC03120D398AAC031A
:10212300120D3995AC03120D39BAAC03120D39C532
:10213300AC03120D3913AD03120D391DAD03120D8E
:102143003928AD03120D394CAD03120D3970AD03AF
:10215300120D39CCAD03120D3912AE03120D392F06
:10216300AE03120D39ACAE03120D39E3AE03120DFB
:102173003922AF03120D396FAF03120D39F1AF03DB
:10218300120D398AB003120D395AB203120D39B840
:10219300B203120D39D4B303120D39FAB303120D7E
:1021A3003939B503120D395FB803120D39A0BA03DB
:1021B300120D397CBC03120D3912BD03120D3939CE
:1021C300BF03120D39E5BF03120D391AC003120DF7
:1021D300397FC003120D3989C003120D39B3C2030D
:1021E300120D39DAC303120D391AC403120D39C0A3
:1021F300C403120D3951C603120D39DAC703120D88
:1022030039FAC703120D3953C803120D3955C903DF
:10221300120D399FC903120D39EFC903120D39D9B4
:10222300CA03120D394ECB03120D3968CC03120DBC
:1022330039E3CC03120D39E8CD03120D3993D003E2
:10224300120D39B2D003120D3913D203120D39D541
:10225300D303120D3929D403120D39E1D403120D1E
:102263003990D503120D39E6D503120D399CD603E7
:10227300120D3931D703120D399DD703120D39D7FA
:10228300D703120D3908D803120D3964D903120D7F
:1022930039008002120D39328002120D3969800231
:1022A300120D39528202120D39358302120D398D06
:1022B3008302120D39C88402120D39148502120DDE
:1022C300393C8802120D399E8B02120D39EB8C02B8
:1022D300120D39818D02120D398D8D02120D39BF08
:1022E3008D02120D39418F02120D394F9002120DDA
:1022F30039799002120D39D09002120D39299102C9
:10230300120D39959102120D39AC9302120D393B1E
:102313009502120D39059602120D39439702120DDB
:1023230039739902120D39439C02120D39509C02E4
:10233300120D39D79C02120D397F9D02120D39C23D
:102343009D02120D390B9E02120D395F9E02120D72
:1023530039C49E02120D392C9F02120D39499F0276
:10236300120D39799F02120D39AE9F02120D397E7B
:10237300A002120D3927A102120D39ABA302120DCF
:1023830039CBA402120D39B4A502120D3936A602B7
:10239300120D3958AA02120D3995AA02120D39ED00
:1023A300AA02120D3920AB02120D39A1AB02120D94
:1023B30039EEAB02120D3979AC02120D39CBAC02F6
:1023C300120D39A2AD02120D395BAE02120D39F6B0
:1023D300AE02120D390FB202120D392FB302120DD4
:1023E30039E0B602120D39FEB702120D3901B802F7
:1023F300120D3930B802120D3936BA02120D390FE7
:10240300BB02120D3944BB02120D394CBC02120D32
:102413003902BD02120D39A3BE02120D39C8BE0224
:10242300120D3907BF02120D3979BF02120D395D42
:10243300C002120D392AC102120D3960C302120DF6
:1024430039D1C302120D3911C402120D394AC40223
:10245300120D39DEC402120D3927C602120D39EAF4
:10246300C902120D39D9CA02120D39C0CB02120D9D
:102473003938CC02120D39FACC02120D39F8CE02DA
:10248300120D3910CF02120D3924CF02120D395C0F
:10249300CF02120D398ACF02120D3911D102120D5A
:1024A300391CD202120D396ED202120D39D6D20264
:1024B300120D3988D302120D39B8D302120D399C8B
:1024C300D402120D394DD502120D393CD702120D2B
:1024D3003971D702120D39D9D702120D3908D90231
:1024E300120D39BAD902120D39EBD902120D390383
:1024F300DA02120D3992DA02120D3946DD02120D9B
:10250300391EDF02120D393ADF02120D3956DF028E
:10251300120D3924E002120D3908E402120D390EAE
:102523008301120D39468301120D39248801120DDE
:10253300396A8801120D39B78901120D39228A01CE
:10254300120D39AB8B01120D39BB8E01120D39D629
:102553008F01120D39E89901120D397B9A01120D81
:1025630039CD9D01120D39C99E01120D39249F01E8
:10257300120D396EA001120D395CA101120D39F84B
:10258300A301120D396CA501120D39EFA501120D2E
:1025930039F2A501120D3967A601120D3971A60191
:1025A300120D397EA601120D39A9A601120D395952
:1025B300A701120D3952A801120D39FDA801120D00
:1025C300391BA901120D3934A901120D395DA90175
:1025D300120D397FA901120D39D4AB01120D3999AE
:1025E300AC01120D39DEAC01120D395DAD01120DD6
:1025F3003909AE01120D393BAE01120D398FAE010F
:10260300120D39CAAE01120D3911AF01120D396124
:10261300AF01120D3966AF01120D39BAAF01120DB8
:1026230039E6AF01120D39CFB001120D3920B101D6
:10263300120D3980B101120D39DAB101120D39755C
:10264300B201120D39B4B501120D39C6B601120D1E
:102653003940B801120D3950BB01120D39EEBB01DF
:10266300120D39E4BE01120D39A3BF01120D39E772
:10267300BF01120D3992C101120D39A6C101120D0C
:1026830039B0C101120D39BAC101120D39C6C101E8
:10269300120D39EBC101120D39C4C301120D3919E1
:1026A300C401120D3923C401120D392DC401120DB9
:1026B30039A2C401120D39F1C401120D3902C60148
:1026C300120D394FC601120D395CC701120D39A025
:1026D300C701120D3946C801120D3939C901120D4E
:1026E30039FFC901120D3922CB01120D3940CC013A
:1026F300120D3928CD01120D3940CD01120D399734
:10270300CD01120D39A1CD01120D39ABCD01120D41
:1027130039B6CD01120D39D4CD01120D391CCE01BC
:10272300120D397ECE01120D39A5CE01120D39B726
:10273300CE01120D3952CF01120D3987CF01120D7F
:10274300396ED001120D39B3D001120D3999D1016F
:10275300120D39C0D101120D3943D201120D39B412
:10276300D201120D393DD401120D3969D501120D73
:10277300392CD601120D39F4D601120D397ED70149
:10278300120D39A6D801120D3948D901120D39C3DA
:10279300D901120D397FDA01120D39C9DA01120D8F
:1027A3003923DB01120D39FBDB01120D391EDC016C
:1027B300120D39D1DC01120D39F3DC01120D395C34
:1027C300DD01120D3972DF01120D396AE001120DBC
:1027D300392EE101120D3960E301120D39AAE3012B
:1027E300120D39FAE301120D395EE401120D39C0FD
:1027F300E401120D39EEE401120D3912E501120D57
:102803003947E501120D3978E501120D39ABE501C0
:10281300120D39FBE501120D394EE601120D397324
:10282300E701120D3913E901120D396EE901120D99
:102833003997E901120D3924EA01120D3992EA019F
:10284300120D39A0EA01120D39C4EA01120D39192A
:10285300EB01120D3934EB01120D39E6EB01120DC8
:10286300391EEC01120D3961EC01120D39C4EC0172
:10287300120D39C6EE01120D39F0EE01120D39E7D2
:10288300EF01120D39F1F001120D39A1F101120D11
:10289300397FF201120D39B7F201120D39D8F20165
:1028A300120D391AF301120D397CF301120D398619
:1028B300F301120D3996F301120D39D1F301120D03
:1028C30039B1F701120D399EF901120D3984FB015B
:1028D300120D391BFC01120D39BDFC01120D3944D7
:1028E3003500120D39EF3500120D399D3600120DEA
:1028F30039A33700120D39C33700120D39EC3800F4
:10290300120D39A73A00120D391A3B00120D39BEC8
:102913003B00120D39CA3C00120D39353D00120D32
:1029230039713D00120D39B43D00120D39EF3D00F0
:10293300120D39313E00120D39C63E00120D3942D7
:102943003F00120D390C4000120D39E94000120D01
:1029530039814100120D399B4100120D39CB4100E1
:10296300120D39FC4100120D39C24200120D39D249
:102973004200120D39214300120D392E4300120D6E
:1029830039374300120D39B54300120D3911440094
:10299300120D395C4400120D39774400120D39A22F
:1029A3004400120D39BF4400120D39CB4400120DFF
:1029B30039624600120D397B4600120D390047007B
:1029C300120D39134700120D39324700120D39D653
:1029D3004700120D39574900120D390A4B00120DE9
:1029E30039A04B00120D39A34B00120D39134C00C3
:1029F300120D39314C00120D39C84C00120D39102B
:102A03004D00120D39134D00120D39D94D00120D21
:102A130039464E00120D396C4E00120D39F74E0037
:102A2300120D39154F00120D395B4F00120D390F7E
:102A33005000120D39595000120D39885000120DF3
:102A430039E55000120D391A5100120D3946510063
:102A5300120D39545100120D39A15100120D3911C3
:102A63005200120D395A5200120D39A65200120D9E
:102A730039D25200120D39DD5200120D39FB5200CA
:102A8300120D39E65300120D39F05300120D392B94
:102A93005400120D393B5400120D398F5400120D9E
:102AA30039A35400120D39D25500120D39E75500E0
:102AB300120D39755600120D39BA5600120D3946EA
:102AC3005700120D39515700120D39935800120D4A
:102AD30039AE5800120D39FA5800120D39695900F0
:102AE300120D39A25900120D39BC5900120D391CAF
:102AF3005A00120D39BB5A00120D39065B00120D34
:102B030039D65D00120D39885E00120D39F55E006D
:102B1300120D39356100120D394D6100120D395016
:102B23006100120D395C6100120D39706100120DE4
:102B330039786100120D39AB6100120D39AE6200B4
:102B4300120D393B6300120D39AB6300120D392DA1
:102B53006400120D39EE6400120D390D6500120D7B
:102B630039AE6500120D390B6600120D390E660081
:102B7300120D39826600120D39D16700120D39D753
:102B83006800120D39626900120D397D6A00120D59
:102B930039456B00120D39766B00120D39996B00B4
:102BA300120D39A26B00120D39D16B00120D396170
:102BB3006C00120D39176D00120D398C6D00120D5A
:102BC30039336E00120D39A86E00120D39DF6E0015
:102BD300120D391D6F00120D39E8FC02120D397CFC
:102BE300FC02120D3919FC02120D39EFFB02120D12
:102BF30039DBFB02120D39D1FB02120D3964FB02E2
:102C0300120D3995F902120D3953F902120D396972
:102C1300F802120D39A2E005120D394BE005120D31
:102C2300393DF802120D39F4F702120D39EDDE05C4
:102C3300120D393FDE05120D3931F702120D39003D
:102C4300F402120D39A2F102120D3972F102120DC2
:102C53003922F102120D39BCF002120D397BF00258
:102C6300120D395BF002120D398DEF02120D392767
:102C7300EF02120D39C6EE02120D3966EE02120D85
:102C83003904ED02120D3998EC02120D39ECEB0206
:102C9300120D39E7EB02120D39D0EB02120D399BFD
:102CA300EB02120D39A2DD05120D3935E802120DC2
:102CB3003998DD05120D392DDD05120D3912DD05AB
:102CC300120D3962DC05120D3968DB05120D398EE0
:102CD300DA05120D3932E802120D3919E802120D24
:102CE300390EE802120D39DDE702120D39E4D7057A
:102CF300120D3904E602120D398BE502120D392249
:102D0300E502120D3995E402120D39F6D605120DBE
:102D13003951E402120D3916AE06120D392AE402B6
:102D2300120D3933D605120D39DED505120D39B121
:102D3300D505120D397ED505120D3956D505120D5F
:102D430039F7D405120D39D7D405120D39A2D4059C
:102D5300120D3966D105120D393BCF05120D392BF2
:102D6300CD05120D39A8CC05120D395CCC05120D19
:102D73003988D605120D3910CC05120D396ACB05E9
:102D8300120D3911EC0300000080FB87000100766F
:102D93001E350004003C1E25000200401E260002D2
:102DA30000421E27000200441E280001004E1E2977
:102DB3000001004F1E840004002B1B86000100A9A4
:102DC3001D2A000100501E2B000100511E2C000182
:102DD30000561E2D000800391B2E000100571E2F20
:102DE300000100581E30000100591E310001005A35
:102DF3001E32000100411B33000100421B3400015D
:102E0300005B1E36000100431B380001005C1E39C5
:102E1300000100551E83000200741E630001004E72
:102E23001B64000100521E65000100531E6D00016A
:102E3300004F1B71000800311B66000100731E4325
:102E4300000100641E44000200651E450001006786
:102E53001E46000200681E47000800461B4800018A
:102E6300006A1E4B0001006B1E04000100771EA1C7
:102E73000001007A1E37000100791E8800010078E6
:102E83001E3C000100441B3D0001005D1E49000281
:102E9300006C1E67000100501B4D0002006E1E4EA9
:102EA300000100701E4F000200711E3E000100630E
:102EB3001E510001005F1E52000100601E530001FD
:102EC30000621E54000100451B00000000000000CA
:102ED3000136360101000102010001030100010472
:102EE30001060605020000070100340801000F096E
:102EF3000401010D0100FF0E080000170200001974
:102F03000100FF1A0100011B0100FE1C0100081D46
:102F13000200001F01000120010001210200002323
:102F230001000F24020000260100012701000828E8
:102F33000200FF2A0100072B0102402C0100002D93
:102F43000100012E0100012F0100FF30010B1D3193
:102F53000800003A0100083B01000F3C0100013D5D
:102F63000100FF3E04000042040000460400004A42
:102F73000400004E04000052040000560400005AEE
:102F83000400000000030020010C83000000002067
:102F9300010D830000010020010D830000020020C9
:102FA300010D83000000404201FE81000004004245
:102FB300013F82000005004201F481000006004247
:102FC30001FE810000070030010B83000010004266
:102FD30003081E000011003003E71900001200105F
:102FE30003191E030000002103E8190000FDFF215F
:102FF3000106830300FDFF21010683060000001084
:1030030001D7190600FDFF21810683020400002970
:1030130005D81902040100290102830204020029D0
:103023000100830204FDFF210106830103710301F3
:10303300030103010301030103220302030103103C
:103043000300030003000300030003000300034223
:1030530003000324030603000300030403120325F0
:1030630003230325032303040304030003000300D2
:103073000344030003000323030003650321003516
:10308300038103000305030003000300030003257A
:103093000323030302710230016002110270020173
:1030A30002020202028002100261023A004100633E
:1030B300027302720262024302000213023800002A
:1030C30002000204021202000200020002000204D3
:1030D300020402370037003C0244020002390000B8
:1030E300020002650200023502810200020502822B
:1030F30002830200020101710101010101110101B9
:10310300013101010101018001100161013B001442
:10311300006301730172016201430100011301069F
:10312300013D01350004011201000100010001000D
:103133000104010401330133013C0144013201362E
:103143000000010001650100013500810100010556
:10315300018201830100010304710402046004116C
:103163000470040204020401040204100461040054
:103173000414046304730472046204430400041318
:103183000406040004000404041204000400040000
:103193000400045104640000040004000444040017
:1031A300040004000400046504000435048104647D
:1031B300000504000483040004030071003001606F
:1031C30000110070003102200350048000100061E0
:1031D30000000014006300730072006200430000EB
:1031E30000130006000000000004001200000000AD
:1031F300000000000004000400370037003C0244D4
:1032030000000000000000000065000000350081A0
:1032130000000005000000830000003600010006E6
:103223000000000F0000000000000000000000008C
:103233000003FFFF00000403FFFF0000FFFF0FF484
:10324300010005C4040320000100000B000000007E
:103253000000000003010F00000000000000000058
:10326300000000000000000000000000000000005B
:10327300000000000000000000BF18E918C518FF97
:1032830017CB18EF18CB18FB18D118FF17CB18EF73
:1032930018D718FF1700000000DD18FF1700000003
:1032A3000000000000E318FF17000000000000000A
:1032B300000000000000000000000000000000000B
:1032C30000000000000000000000000000000000FB
:1032D30000000000001300611C1F00671C1F806DAD
:1032E3001C0000E51C0100E51C0200E31B0280DD5D
:1032F3001B0300E91B0400EF1B0480F51B0500FB07
:103303001B0600071C3000251C31001F1C32003136
:103313001C3300371C35003D1C3400431C36004968
:103323001C1100551C14005B1C1500191CFFFF0029
:10333300000A000000020000000400000008000072
:10334300001000000020000000400000008000008A
:10335300000001000000020000000400000008005B
:1033630000001000000020000000400000015B2569
:10337300068B250885250BA9251043220261250507
:1033830079250767250C43250D4F25642720FF006A
:1033930000030003000400080010001F003E007B30
:1033A30000F600EC01D703AF075D0FB91E713D00B6
:1033B3000007ECFDFDFDECDCDCCCBCACAC9C9C8CD8
:1033C3007C7C6C6C5C5C5C4C4C3C3C2C2C1C1C0373
:1033D300EAF5E5D5D5C5B5A5959585857575656575
:1033E300555545453535252515150500160F00009E
:1033F3000B150B020002220F3300000E0F5A6967F0
:10340300426565416C6C69616E636530390000002B
:1034130000000000000000000000000000D0D1D236
:10342300D3D4D5D6D7D8D9DADBDCDDDEDF00034D44
:103433004C4651181A250502303016181920231A44
:103443001C1E30003C40423A3F3F392F47300001B9
:1034530019161816161823030030301718192130BF
:103463001B1D1F300C0E020B040B0A0708000F0272
:10347300040201010101090200BE040AE80300007D
:10348300E8030000010003007F0000000E000004B9
:1034930004080405030A0C101508091E0C28FF0371
:1034A300100209033C0C050815001EE4F0A3F0A369
:1034B300F0A3221234AEF022901C9B124ABA1229B6
:1034C3004B221234C922E0F508E4F509F50AF50B9D
:1034D30022E824FBF582E934FFF58322E82411F581
:1034E30082E439F583E022F5831234F022E0F50813
:1034F300A3E0F50922122BC77404120D697F080299
:103503000AFF7401F09006C0E0640F227409120DE3
:10351300697F04020AFFEA2413FAE43FFB122AF547
:10352300E9227905122B01740622A3A3E024F5C333
:10353300941322122BD39006E0126A787A147B003C
:1035430022C082C083901C7A743FF0A37429F0A335
:103553007451F0A37429F0901C7E7427F0A374298E
:10356300F0A37421F0A37429F0A3745DF0A374296C
:10357300F0A37463F0A37429F0A37457F0A3742920
:10358300F0A3740FF0A37429F0901C8A7433F0A392
:103593007429F0A37439F0A37429F0A3742DF0A354
:1035A3007429F0A37469F0A37429F0901C9B12543E
:1035B300896009901C9B124AB61216F1901C98124E
:1035C3004DD07408126125A3F0901D44F0901C9D0A
:1035D300F07C0BFDF97A9E7B1C12161F7C0B7D0081
:1035E30079007AA97B1C12161F024C2A74F7120861
:1035F3004574F7120E1CEAFEEBFF123682740512B5
:103603004EEE7403F0123799124ED02430FCE43F8F
:10361300FD8C8212367A12368E6008123EA774FF32
:10362300F0A3F0EE242EE43F1C1CFD8C82F583A353
:10363300E0C0E08A828B83124B82D0E012368E8800
:103643008289831253BD2403F0EE123EB112108A15
:103653007403F09006D5120BBE7402120DFC123ADD
:103663007B120D69E9F5087007EEFAEFFB1229DB0F
:10367300A9087409023EC0F583E08882898322EA9F
:10368300123687221255CC3FF583221263A5124EC0
:10369300DCE8F0A3E912667CE02274F0120845EA44
:1036A300FEEBFF8C0C8D0D890B123799F583124EAF
:1036B300E4741012108AE0F508A312367CF0E824B3
:1036C300FFF582E9123A8DE508F0E824FEF582E978
:1036D300123A8DE50BF09006DAE0C0E0E824FDF540
:1036E30082E9123A8DD0E0F09006D9E0C0E0E824F8
:1036F300FCF582E9123A8DD0E0F0741212108A12AE
:1037030034EC1234D4E509F0E824FAF8E934FFF98B
:103713008882F583E508F0EE2404FCE43FFD880885
:103723008A828B83E0F50E8C828D83E0250EC39510
:10373300081263A5124D0A850C82850D83A3A3A3EA
:10374300A3A3A3A3A3E064037009EE124EBEF0A3E8
:10375300E48003123A92123A9A7409F075089E753E
:10376300091C750A007808120D88125E6F120D6924
:103773007508FF7509FF7808120D8CAC0CAD0D129E
:103783003A7B120D69E9F5087007EEFAEFFB12298F
:10379300DBA908023500EA2402FAE43FFB8A82220D
:1037A300C082C083901CBAE0C394084004740780AD
:1037B30001E08A828B83F033333354F8F9024C2AC5
:1037C30074F01208458A088B09890A8C0E8D0F75CF
:1037D3000C00A2AFE433F50BC2AF901CB4804512CA
:1037E30038C5503D1238DF64037036E50824F9F517
:1037F30008E50934FFF5098E828F83A3A3E024052E
:10380300FCA3E03400FDAA08AB091217DBE508248A
:10381300FFF508E50934FFF5097410250CF50C15BF
:103823000A123CB4126E2DE50A6004EE4F70B0E547
:103833000BA2E092AFA2AFE433F50BC2AF901CB47E
:10384300803E1253968882F58312460A8508828544
:103853000983F08A8289831238D6A3A3E0C0E0E506
:103863000824FFF582E509123A8DD0E0F0E508243B
:10387300FEF508E50934FFF509050C150A123CB4F9
:10388300123B0860211238DF640270F11238C5EE72
:1038930040B0125005A2E550E4850E82850F837473
:1038A30001F0E50A70D7E50BA2E092AF85088285A7
:1038B3000983E50CF0E50824FFFAE50934FFFB0270
:1038C30035001238CBA2E622EE2411F582E43FF54F
:1038D30083E0221238DA221253DBA3228E828F83F3
:1038E300A3A3124B86125AB22274F012084574F342
:1038F300120E1C740312108AE9F0740212108AEA81
:10390300F08B0B851882851983E4F004120DF412F1
:1039130028F1E9F89006BFE0292437F508FA7B007F
:103923001216378A0C8B0DAE0CAF0DEA4F700302E3
:103933003A72EA2402F50EE43FF50FA808EA28F8E4
:10394300E43BF9850E82850F831244069006BFE09F
:10395300F9FAC3E49AFA95E0FB850E82850F83E0BA
:103963002AF50CA3E03BF50D9006BD1234EC750A65
:10397300007808120D88E9FC7D00AA0CAB0D124EED
:1039830040120D69AC18AD19740112108AE0F9E503
:103993000C24FFFAE50D34FFFB1228F78A828B8390
:1039A300E4F0E50BC454F0F9901D45E0C4333354FF
:1039B300C0F89006B9E0A2E0E43313134849440F7A
:1039C300C0E0EA24FFF582EB123A8DD0E0F0EA245E
:1039D300FEF50CEB34FFF50D740312108AE0F87456
:1039E3000212108AE0C454F048850C82850D83F0DE
:1039F300A80C850E82850F831260F22AC3988E82EB
:103A03008F83A3A3A3A3F0850E82850F83E8F0A37E
:103A1300E50DF0123A92123A9AE4F0740C12108AFD
:103A2300E4F07508A975091C7808120D88125E6FF9
:103A3300120D69851882851983E06009EE240E1240
:103A430050074408F0122AE3E9F9E4F508F5097888
:103A530008120D8C7406120DFC123A7D120D69E9E1
:103A63007006EEFAEFFB800BEEFAEFFB12163D7ACF
:103A7300007B00740D0234FD7903EEFAEFFB122A8A
:103A8300FB740222EE24FFF582EF34FFF58322EE6E
:103A9300123687E4F0A322F0123A9F22EE125D92CF
:103AA3003FF5832274F21208458A0C8B0DA2AFE412
:103AB30033F50AC2AF750800750900901CB4802C59
:103AC300123CC45024850C82850D83A3A3125E820D
:103AD3008E828F83A3A3124AB6122AE9E9600A12DF
:103AE3003CBFC2E6F08E088F09123CB4123B08704B
:103AF300CFE50845096006123BA1D2E6F0E50AA22C
:103B0300E092AF800DE0FEA3E0FFEE4F22740212BD
:103B13000D697F06020AFF74F01208458A0E8B0FA7
:103B23008C0C8D0D750A00A2AFE433F50BC2AF7E8A
:103B3300007F00901CB48010AE08AF09123B9912AD
:103B43005005D2E7F0124A94124AA86034123BA1FE
:103B5300A2E750F1850882850983A3A3120BBEACAB
:103B63000CAD0DAA0EAB0F122AEF7402120D69E908
:103B730060D3EE4F60C2123F3B7006123BB3D2E4F8
:103B8300F0E50BA2E092AFEE4F60061229D5750A5D
:103B930001A90A0235001238CBD2E4F0EE22E5087F
:103BA300125DAC3509F583E022AA82AB831217DBE1
:103BB3008E828F83A3A3124B86E02274F2120845F0
:103BC30074FE120E1C750C00750D00851882851984
:103BD30083E4F0A3F0A2AF33F50AC2AF901CB41292
:103BE3006E2D802BEE24FBF582EF34FF1234EA783E
:103BF3000C120D8C123CA2120D69EEFCEFFDAA18FB
:103C0300AB1912165BAE08AF09901CBAE014F0EEC4
:103C13004F602B123CC4501DEE240BF8E43FF9888F
:103C230082F583E024FFF0A3E034FFF088828983E8
:103C330012548960AF8E0C8F0D123CB480A1E50A3B
:103C4300A2E092AF901CBAE0602C9006C0E0640F33
:103C53006006901D44E0701E7A927B1C122BD39059
:103C630082FC120BBA7A927B1C124CB2120D698041
:103C73000574F0124B93AA18AB191216618A088BBC
:103C830009AE08AF09EA4F6013122903123CBFA221
:103C9300E28E828F83A350D974E980D7023B10EE62
:103CA300FCEFFD7AB47B1C12166D7402228E0A8F10
:103CB3000BEE24FBF582EF34FFF58322EE1238CCB2
:103CC300221238CBA2E72274F7120845EAFEEBFF73
:103CD300122903124B7F120A1AE964019006DC7061
:103CE3000AE02401F8A3E034008003124B05F91223
:103CF3005207124D0A901CBAE0701F9006C0E06490
:103D03000F70177A927B1C122BD39082FC120BBA82
:103D13007A927B1C124CB2120D69A8A8C2AF901CF8
:103D2300BAE004F0E8A2E78004E508A2E092AF025B
:103D3300511574F7120845EAFEEBFFEA123D6BF0EA
:103D4300122903EEFCEFFD7AB47B1C121667A8A8B8
:103D5300C2AF901CBA1246599006C0E0640F7005BA
:103D63007908122A9B0251151238CCC2E42274F747
:103D730012084574EA120E1CEAFEEBFF9006B9E046
:103D8300602A8518828519837401F012108AE4125F
:103D93003E2612108A123BACC0E0740A12108AD07D
:103DA300E0126112740B12108A1253727416023EDF
:103DB300C074F7120845EAFEEBFF1228E5E9F9742F
:103DC300DC69601E74DD69601974E469601474F35E
:103DD30069600F74DE69600A74DF69600574DB690A
:103DE3007007EEFAEFFB122AA102511574F71208BD
:103DF3004574EB120E1CEAFEEBFF851882851983CE
:103E03007406123E2612108AAA82AB831217DBEEC7
:103E13002408FCE43FFD740A12108A1253727415CD
:103E2300023EC0F0EA2413FCE43FFD74022274F75F
:103E330012084574F7120E1CEAFEEBFFEA24301257
:103E43005007605DEA123EB112108A7403F09006C7
:103E5300D5120BBE123EA7120BBE9006E8E0F97412
:103E630004120DFCEEFAEFFB1228EB7404120D6939
:103E7300E9F974DC69602374DD69601E74E46960C8
:103E83001974F369601474DE69600F74DF69600A82
:103E930074E869600574DB697007EEFAEFFB122AB8
:103EA300A1023675EE242EF582E43FF583221262D9
:103EB30083AA18AB191217DB7408227403120D6955
:103EC30002511574F21208458A0C8B0D750A0075A0
:103ED3000B007508E7A2AFE433F509C2AF901CB439
:103EE3008003123CB0123B086025123CC450F3120D
:103EF3003F3B70EEEE24321240D2E06870E4780A61
:103F0300120D8C123CA2120D69901CBAE014F0E55C
:103F130009A2E092AFEE4F6013EEFAEFFB12290312
:103F230079F0EEFAEFFB122AA1750800A908AA0C92
:103F3300AB0D122AA1023B15123A9FE064012274D1
:103F4300F412084574F7120E1CEAFEEBFF8A82F5A1
:103F530083A3E064F37003023FE08A828B83A3E0D0
:103F630064DF60798A828B83A3E064E8606F8A826E
:103F73008B83A3E064DB6065122945E9F50870557E
:103F8300EE240E125007604D123FEA604874081287
:103F9300108A123FF9120BBE7508FF7509FF7808E6
:103FA300120D8C8E828F83A3A3A3A3A3A3A3A3E049
:103FB300F97404120DFC1228EB7404120D69E9F56F
:103FC3000874F369600F74DF69600A74E869600557
:103FD30074DB69700F8E828F83A3E508F0EEFAEF2E
:103FE300FB12295102350FEE240FFAE43FFB790946
:103FF300122987EA4B22740212587874FFF0A31235
:104003004006221253C6A3A32274F1120845EAFE06
:10401300EBFF7508008A82F583A3A3A3A3A3A312CE
:10402300352D40037508E88A828B83A3A3A3A3A33A
:10403300A3A3A3A3A3E0C3941040057508E88013CA
:104043008A828B83A3A3A3A3A3A3A3A3A3A3E064B1
:104053000F600B901D21E0540870037508E8EA24F3
:104063000B1240D2A3A3A3A3A3A3A3A3E0C398507B
:104073000DEA240B125007640F60037508E89006DD
:10408300D9E0F47003A3E0F470037508EC7A237BA2
:10409300001216EB8B0BA90B901C9B1240E16027BF
:1040A3008E828F83A3A3A982AA83890C8A0D750E9E
:1040B30000780C120D887C237D00901C9BE0FA1283
:1040C3004E40120D69800375081AA908025E6AF54D
:1040D30082E43FF583E0F88A828B83A3A322EAF08C
:1040E300A3EBF0EA492274F5120845EAFEEBFF8AD6
:1040F30082F583A3A3A3A3A3A3A3A3E09006C01263
:104103004179E09006DBF0EA240B1250079006BBDE
:10411300124179A3E0901D45F0F91213A3901D45B8
:10412300E0600BEE2404124FF9240612416F901D38
:10413300441235056004740180027400901C9D12C2
:1041430067BD120D887C0B7D007A9E7B1C124E404E
:10415300120D69EE2418F508E43FF5097808120DED
:10416300887C0B7D007AA97B1C024E2DFAE43FFB71
:1041730079E112138B221267A7A3A3A3A32274F7D7
:10418300120845EAFEEBFF8A82F583A3E07003126F
:1041930034BB12632E02511574F7120845EAFEEB85
:1041A300FF901C9B1254896010901C9B124AB6907E
:1041B3001C9BE4F0A3F01216F18E828F8374081215
:1041C3004B9A121F0D02511574F6120845901D44A7
:1041D300E06010901C9DE0700A1241E9EA4B600315
:1041E3001229DB0264289006BBE0FB9006DBE0FAB1
:1041F3009006C0E0F91228FD2274F412084574E712
:10420300120E1CEAFEEBFF750B018A82F583A3A352
:10421300A3A3A3A3A3E0A2E25069EA242BF582E4BB
:104223003F125E80EA2413FAE43FFB122909E97086
:104233005290823DE064017005750B008045124287
:10424300BB120D887C0B7D007411120DF4124E40CD
:10425300120D69122AE3E9FA740E120DEC8808892B
:10426300097808120D8C7508307509007808120D4D
:104273008CEE1260DB120BBE1262757901123527C8
:10428300120D698518828519837410F01262757492
:104293000212108AAA82AB831217CFEE242B126A62
:1042A3006E740B12108A124D0A740D12108AE50BEC
:1042B3001264E77419023511EE24081267C522C08F
:1042C30082C083901D45E06003122B55024C2AC027
:1042D30082C083901D3C747AF0A3741CF0A3747E97
:1042E300F0A3741CF0A3748AF0A3741CF0901EB1A5
:1042F300745AF0A37431F0901D2674DFF0A3742870
:10430300F0901CBF7415F0A37429F0901CC1741BAA
:10431300F0A37429F0901D21E0440202472EC082CD
:10432300C083EAFCEBFD7903025435C082C0837974
:10433300080265A8C082C08374FE120E1C901CC7BD
:1043430074C3F0A37429F0901CC974BDF0A374293D
:10435300F080077AB47B1C124393901CB4125489E7
:1043630070F1901CB612548960097AB67B1C124313
:104373009380EF901CB4E4F0A3F0901CBAF0A3F088
:10438300A3F0901CD574FFF0A37429F07402801C71
:10439300121661851882851983EAF0A3EB1243A7ED
:1043A300122AD122F0AA18AB19227411120D690234
:1043B3004C2A74F6120845E9FF744629F582E43461
:1043C30034F583E493FEFA7B00121637EA4B600759
:1043D300EA2E12440380267A027B00121637EA4B38
:1043E3006017745C2FF582E43434F583E4938A8296
:1043F3008B83F0A3741A1247CC7A007B00026428E3
:10440300124CF9E81263A2A3A3A3A3E4F022E9FCEC
:10441300740629F8EAA2E0501EE875F00A84E5F074
:10442300F96014740A28C399F8E9C3940540047425
:104433000A28F8740B28F8ECC39413400479148009
:10444300027906E82979002409F85001097A0A7BE0
:1044530000120666E8F9020D36C082C083901D2162
:10446300E05402600A121F13E960047901800279A3
:1044730000024C2AC082C083901D21E054026014C4
:10448300901CBAE0700A125486600912449C5004CE
:10449300790180027900024C2A1234DFA2E722C09C
:1044A30082C08390823AE0F8901CBCE0C398500528
:1044B30012163780047A007B00024C2AC082C08324
:1044C300122AD17900024C2AC082C08374FE120ED4
:1044D3001C851882851983EAF0A3EB124635A3A342
:1044E300A3A3A3E0600A14605724FE605A0245A503
:1044F3009006C0E0640F6012122AA7E9700C124AFA
:10450300B0901CC3124B82120A1A9006E8E0C0E076
:104513008518828519831253A9D0E0124635741485
:10452300125DC6FCA3E0FD7AB67B1C12165BA8A83D
:10453300C2AF901CBC1246597920122A9B02438FAA
:10454300124903741580D9124903A3A3A3A3E060FE
:1045530051124903123BB7C0E0851882851983E0E5
:104563002406F582E43BF583D0E0125DC62402F80D
:10457300A3E03400F98882F583E02401FAA3E03450
:1045830000FB88828983EAF0A3EB125DC6124943DC
:10459300851882851983601312460A600512461C2A
:1045A3004048AA18AB19122AD1809212460A60F227
:1045B30012461C5021124629FA851882851983A3B5
:1045C300E0C824061248FFF874711255BE3434F55E
:1045D30083E4936A601485188285198312460A64FA
:1045E3000870BF124629640870B81246291412468F
:1045F3003D240AC0E0851882851983124B82D0E0DE
:1046030012463D0402452312460E22124B05C824CE
:1046130006F582E438F583E0228518828519831232
:10462300460EC3940A228518828519831238DAA3A9
:10463300E022124647F583888222124647C82406A1
:1046430012492D22F0851882851983124B0522A861
:10465300A8C2AF901CBBE004F0E8A2E792AF22C06F
:1046630082C083901CCB125489600812490A120A33
:104673001A80027900024C2A74F7120845EAFEEB0D
:10468300FFEA123AA07401124CB8F8A3E0F912360B
:1046930082124D0AEA2435125007C0E0EA2413F5CA
:1046A30082E43FF583D0E0F0EA2436125007C0E0FD
:1046B300EA2414F582E43FF583D0E0F0EA243812CB
:1046C3005007C0E0EA2418F582E43FF583D0E0F018
:1046D300EA242FF582E43FF583120BBE126282EACD
:1046E3002431125007F9123A81120D69E9F5087065
:1046F30007EEFAEFFB1229DBA908025115C082C0AD
:1047030083122AA7E96004792080027901024C2AE6
:10471300C082C083EA2411124724D2E0800DEA2428
:104723000DF582E43BF583E022F0A3F0024C2AC0AE
:1047330082C083124721640170111247C6400C8A5C
:10474300828B83A3E0F9122AA180661247B7A2E6FF
:1047530050128A828B83A3E0F9901CC5124B8212FC
:104763000A1A804D1247216401700D1247C6500882
:104773008A828B83743080368A828B83A3E0641BA6
:104783008A828B83700474228024A3E0700D124705
:1047930021F8743B1255BE3434800B124721F87450
:1047A3005C1255BE3434F583E4938A828B831247BB
:1047B300CC024C2A1247BB22EA2410F582E43BF5D3
:1047C30083E0221247BBA2E322F0901D1CE0F91202
:1047D30016432274F7120845E9FE12548670030249
:1047E30048FCEE6014741B6E701AE8125D9239F582
:1047F30083E0640570030248D4901CBE12490AA3E7
:10480300E40248DB74E96E7068E82412F582E43947
:10481300F583E0700B121F19E9600512494D6061C1
:1048230079EE12130D901CBD124924901CBD603A01
:10483300124950901CBD700B12492414F01214C37A
:104843000248FC124942C2E7124AEB240D1248FF08
:104853006403700912491D124AA1D2E2F079ED12E4
:10486300130D124935120A1A807812491074E9801F
:104873006774E16E703E121F19E9605512494D705D
:10488300509006E2E0C0E012491D2412F582E4389C
:10489300F583D0E0F09006D1E0C0E0901CBD124952
:1048A30019124919D0E0F09006D1E004F079011211
:1048B30014AB8045741C6E7018901CBD124AB690E0
:1048C3001CCD124B82120A1A901CBDE4F0A3F08097
:1048D30028901CBD124910EEF0901CBD124AB6126E
:1048E30029C9124ACCE054806003126597901CBD1D
:1048F300E4F0A3F07910122A9B02511512492D22DC
:10490300851882851983A3E0F583888222124914CE
:1049130022124B8AA3221253D722901CBD1253B8E2
:10492300221253B8241212492D22F582E438F5835A
:10493300E022901CBD124ABA901CC1124B8622E0A1
:10494300F8A3E0C8241012492D22901CBD124AD3AB
:10495300E054042274F4120845750A00750B00A292
:10496300AFE433FEC2AF1254866003024A4A124BCD
:104973007F120A1AE94410F8901CB4800985080ACA
:1049830085090B124A94124AA87003024A4A123B41
:10499300A1586870E8780A120D8CAC08AD09123C76
:1049A300A6120D69901CBDE508F0A3E509124AEBB8
:1049B300124AA1A2E75003024A51901CBBE014F033
:1049C300EEA2E092AF901CBDE0240EF8A3E0340009
:1049D300F9E8FEE9FF8882F583124AB6901CBD12FE
:1049E300462FF912298DE9901CB81261258E828F0A
:1049F30083E05480601812491D24131248FFF912F2
:104A030013C712491D24141248FFF91213BB124A8B
:104A1300CCA3E05401605F901CB812548960451226
:104A23004AE26040124AE2F87900901CB8124AB692
:104A330012066EE8C0E0124AC0D0E0124AF0C394F6
:104A43001340117402800FEEA2E092AF8037901CE6
:104A5300BA0249C07400C0E0901CBEE0C8124A8B81
:104A6300D0E0800D124AC07401124AEB124A8B74D3
:104A730001F07903800C901CBD124942A2E1B3E41A
:104A830033F91214AB023514241AF582E438F58392
:104A930022E50824FBF582E50934FFF58322125D44
:104AA300AC124930221234F0E508450922851882F8
:104AB300851983124ABA22E0FAA3E0FB221253B506
:104AC3002419F582E438F58322901CBD124AD322BF
:104AD300124B05C8124ADB221255CC38F583221239
:104AE30053B5241812492D22124AFDC822124AFD39
:104AF300F5838882A3A3A3A3E022F0901CBD124BED
:104B03000522E0F8A3E02274F7120845EAFEEBFF62
:104B1300122ACB125004A2E3400A123F3B700590C5
:104B230082388003908239E0F9EEFCEFFD7AB47BA2
:104B33001C121673E96038EEFAEFFB901CC7124B98
:104B430082120A1AEE240E125007540470121246EF
:104B530052EE123683A3E05401701E1229D5801938
:104B6300EEFAEFFB901CBF124B82120A1A800A8ED8
:104B7300828F83A374F1124B93025115901CC912B7
:104B83004B8622124B8A22E0F8A3E0F58388822227
:104B9300124B9A1229C922F0EEFAEFFB22024C23A0
:104BA30074F7120845EAFEEBFF7900901D21E054EB
:104BB30002700CEA24331250075404600279E8901F
:104BC3001D21E05460700CEA243312500754026034
:104BD3000279E88A828B83A3A3A3A3E0F890823EA1
:104BE300E0C398500279E8EA2431125007700CEAC6
:104BF300242E125007700479F5800BE970051229F1
:104C0300B7E9F9E96007EEFAEFFB122AA1025115A1
:104C1300C082C0838A828B83740DF0121F0D8007BC
:104C2300C082C0831229D5D083D082020D3674F49A
:104C3300120845EAFEEBFF8A82F583E4F0A3124CE7
:104C4300B854049082387012E0F8901CBBE0C3980B
:104C5300401279F1122AA1023514E0F8901CBAE04F
:104C6300C39850EE124CBEA3E054016037EA2437D8
:104C7300125007C394054033EA24331250075405F6
:104C830070297ACF7B1C122BD3EE2437F582E43FB5
:104C9300F5831234C57808120D847ACF7B1C124C2D
:104CA300B2120D69EEFA1256AF80AC79E880A51204
:104CB3002BC7740422F0124CBEE022EA2433F5829F
:104CC300E43FF5832274F6120845E9FE2451FAE421
:104CD3003400FB121637EA4B6015EE8A828B83A3EE
:104CE300A3A3A3F0EA2451124CF9124D0A80047ACB
:104CF300007B00026428F8E43BF98A828B83A3A338
:104D030022126A78901D99E8F0A3E9F022024C235D
:104D1300C082C083901CD87429F0A3742AF0A374B2
:104D230059F0A3742AF0A3742FF0A3742AF0A37488
:104D330035F0A3742AF0A37453F0A3742AF0A37478
:104D430047F0A3742AF0A37441F0A3742AF0A37468
:104D53005FF0A3742AF0A37465F0A3742AF0A3741C
:104D63006BF0A3742AF0A37477F0A3742AF0A374EE
:104D73003BF0A3742AF0A37423F0A3742AF0A37462
:104D83001DF0A3742AF0901CF4744DF0A3742AF060
:104D9300A37471F0A3742AF0A3748BF0A3742BF0A3
:104DA300A3747DF0A3742AF0A37483F0A3742AF090
:104DB300901D18E4F0901D1BF0901D04124DD0744B
:104DC30002F0901D0D124DD0740102472E749BF01A
:104DD300A3742AF0A32274F512084574F1120E1C71
:104DE3008518828519837402F0740112108AE9F020
:104DF30060047AFF7BFF740212108A12586D7508E3
:104E03001075091D750A007808120D887C0B7D004A
:104E1300740712108AAA82AB83124E40120D69AA3C
:104E230018AB19121F0D740F8003124E40120D6937
:104E33007F03020AFF7C0B7D007A107B1D12161381
:104E430074032274F712084574FD120E1C85188230
:104E5300851983740AF0740112108AE9F07402123E
:104E6300108AEA1264E7023EBE74F612084574F72C
:104E7300120E1CEAFEEBFFEA124EBE124EEE740255
:104E8300F0EA2428FCE43FFDAA18AB191217CFEE71
:104E93002431124EC42433125EE6120D8C740212B6
:104EA3000DFC79831A1A123A7F120D69E9F508701D
:104EB30007EEFAEFFB1229DB026421123687740135
:104EC30022F582E43FF5831234F012538EF58312F8
:104ED3004EDCE8F0A3E9F0EE22124EE48A828B83E3
:104EE30022E024FFF8A3E034FFF922F0A3E4F0EA80
:104EF300123AA02274F01208451269561210337840
:104F030008790C1207567808120D847A077B1D0264
:104F130034F874F412084574C6120E1C9006C0E0EF
:104F2300640F600D851882851983742E12588C8046
:104F3300227AFE7B1C12353612066E88088909E434
:104F4300F50AF50B7808120D847AFE7B1C124CB21D
:104F5300120D69743A02351174F5120845EAFEEB35
:104F6300FF8A82F583A3E0F87078EA2430125007B1
:104F730064026007E06403600278E8EA2426F582AD
:104F8300E43FF58312352F400478E88058E87052E7
:104F9300EA242612416FEE2431124FF924301250C5
:104FA300076402700EEE2428126A6E9006CF124D2B
:104FB3000A80179006CF74FEF0A304F0EE2428FCB9
:104FC300E43FFD7AC67B061217DBEE241B1242BEBA
:104FD300120D88124E38120D69EEFAEFFB122A17E2
:104FE300E9F8E8600EE88E828F83A312628A741751
:104FF300126334024E33FAE43FFB795012138BEE03
:1050030022EE2410F582E43FF583E02274F61208C1
:105013004574F7120E1C901D1BE070377401F0F9F4
:10502300121475AA18AB19122ADD75081075091D1B
:105033007808120D8C7508017509007808120D8C1B
:105043009006D5120BBE7406120DFC7A0312352599
:10505300120D6902642374F7120845125235700465
:10506300A374EBF0901D1BE0A2E25003C2E2F0E058
:10507300A2E1500512524680098E828F83742A1250
:10508300633402511574F412084574FE120E1C1297
:10509300513B125381EC8518828519831253D0E05A
:1050A300F50B7015AA18AB19795312138BEE241351
:1050B300FAE43FFB794A12138B1242BB120D88129A
:1050C3004E38120D69124AB0A90B122A0B901D1B00
:1050D300E0A2E1500312524D901D1BE4F074020252
:1050E300351174F7120845EAFEEBFF8A82F583A3B4
:1050F30074EBF0901D1BE0A2E150077A0079EB12EC
:105103002A11EEFAEFFB122A478007EEFAEFFB12A1
:105113002B497F01020AFF74F712084512513B9095
:105123001D18E4F0901D1BF07AFF7BFF8E828F83A6
:10513300A3E0F9122A0B80DA1252867A077B1D123A
:105143002BD32274F7120845EAFEEBFF122A4180A3
:10515300BA74F71208451252C3A3A3A3E060047400
:1051630000800274EB1251945003C2E2F0E0A2E11A
:1051730050051252978011A2E0500D8E828F8374D6
:105183002AF0A374EB126334EEFAEFFB1229ED80DD
:10519300818E828F83A3F0901D1BE0A2E22274F61E
:1051A300120845EAFEEBFF901D1BE0D2E1F0790106
:1051B3001214758E828F83A3E07038122AE3E9FA02
:1051C300EE240DF508E43FF5097808120D8C7508F7
:1051D300017509007808120D8C125207120BBEEEEE
:1051E3002402FCE43FFD123525120D69E98E828FFE
:1051F30083A3F08E828F83A3E060067A00F9122ADC
:1052030011026428EE240BF582E43FF5832274F740
:105213001208451252357004A374EBF0901D1BE085
:10522300A2E25003C2E2F0E0A2E1500312524602AE
:105233005115EAFEEBFF790112147B8E828F83E016
:10524300642022C2E1F012524D227A008E828F83B3
:10525300A3E0F9122A112274F71208451252868E1E
:10526300828F83A3A3A3A3E060047400800274EB82
:105273001251945003C2E2F0E0A2E150031252979C
:1052830002518BEAFEEBFF790112147B7AFE7B1C41
:10529300122BD322C2E11267B8E0A2E4E433FA127C
:1052A300524F2274F71208451252C374EB125199EC
:1052B3005003C2E2F0E0A2E150031252460251153C
:1052C300EAFEEBFF790112147B8E828F83A3227493
:1052D300F71208451252E802510E74F712084512EC
:1052E30052E8025115EAFEEBFF7AFE7B1C122BD328
:1052F300EEFAEFFB122A6B2274F712084574EF12D1
:105303000E1CEAFEEBFFEA1262767AC67B061217E0
:10531300C9E960568518828519837409F0740112EE
:10532300108A74EFF0125381740212108AEC125334
:10533300D0A3A3E0C0E0740412108AD0E01253BDDE
:10534300640870158E828F83A3A31253A9E0C0E073
:10535300740512108AD0E08006740512108AE412D4
:105363006112740612108A1253727411023EC0AA9B
:1053730082AB83122B13AA18AB19121F0D221253DF
:105383008EF5831253A0FCA3E0F922EE125396FB91
:105393008882222402F8E43FF9E8FAE922124B0555
:1053A3008882F583E0221253B82407F582E438F5A6
:1053B3008322901CBD124B05C8221253C1221253E3
:1053C300C6E022F08E828F83A3A3A3A3221263A23B
:1053D3001253D7221253DB22E0F8A3E0F58388822D
:1053E300A3A322C082C083122B55024C2AC082C0C1
:1053F30083901D3874D8F0A3741CF0A374F4F0A345
:10540300741CF0901EAB74F8F0A37430F0A3749680
:10541300F0A37430F0901D247405F0A3742AF09067
:105423001D21E0440102472EC082C083EAFCEBFD4C
:105433007902122AB9024C2A74F612084574FE1234
:105443000E1C901D1D12548960077A1D7B1D122AA4
:10545300D1901D23E4F0900D8412548960208007BD
:10546300AA18AB19122AD1901D1CE0F912164F8B02
:1054730009A9098518828519831240E170E2740233
:10548300026425901CBD126A78E8492274F7120859
:1054930045E9FA7B00901D1CE0F9121679025115BB
:1054A30074F712084574F0120E1CEAFCEBFDE9FEDA
:1054B3008A828B83E0F874671255BE3434F583E433
:1054C30093C0E0740112108AD0E0F0640B700DE910
:1054D3008A828B83A3F0122B370255B9E070030243
:1054E30055B9640C60030255AA741A6E700B7404E8
:1054F30012108AE4F0A30255A9740412108A1258F8
:105503006DEA2432125D76C0E0740312108AD0E093
:105513001267A3121067740612108A1210738C821A
:105523008D83A3A3A3A3A3A3A3A3A3126A74740A3F
:1055330012108AE8F0A3E91255C3E05410600985FC
:105543001882851983E48013EC2412125D76F89097
:1055530006E2E0C398851882851983F0E0C0E07401
:105563000C12108AD0E0F0EC2415125D76C0E074C2
:105573000D12108AD0E0F0EC2416125D76C0E074B0
:105583000E12108AD0E0F0EC2417125D76C0E0749E
:105593000F12108AD0E01255C3A3E05401600874BF
:1055A3000112108A7411F0740212108AEEF0740161
:1055B300120DF4121F0D7410023EC028F582E4226E
:1055C300F0EC1255CC3DF58322240EF582E422C083
:1055D30082C083901D23E064037004790180027903
:1055E30000024C2A74F7120845901D23E0125662FC
:1055F30074A928F582741E39F583125AF4C2E7F0B0
:10560300125669A3E493FE25E0FCE433FD74A92C50
:10561300F582741E3D125E80EC4D6005EE901D23F5
:10562300F08A828B83E025E0FCE433FDE82CF582ED
:10563300E93DF583E493FCC4540F25E0F87432127A
:1056430055BE341DF5831254897005122B25800C29
:10565300EC540F125669124B82120A1A0251152585
:10566300E0F8E433F92225E0FCE82CF582E439F58F
:10567300832274F212084574FE120E1C890B8A08E9
:105683008B09125714125705601A12611FF50A7815
:1056930008120D881257212402125E76120D691228
:1056A30056AD8003125733023B10AA0CEFFB901D3B
:1056B3001CE0F91216432274F012084574FE120E10
:1056C3001C890B8A0E8B0F125714F50812570560AD
:1056D3002712611FA808EA28124403850E08850FC4
:1056E30009F50A7808120D88125721125E74120DFB
:1056F300691256AD79008005125733791A74020284
:1057030034FDFA7B001216378A0C8B0DAF0DEA4F6E
:1057130022743029F582E43434F583E49322A80B10
:1057230074511255BE3434F583E493FC7D00EA22B0
:10573300851882851983E50BF0791AAA18AB19121B
:105743002AA122C082C083E9901D1C02472E74F651
:1057530012084574FE120E1CEAFEEBFFEA54207099
:10576300308039A8A8C2AF901CBCE01412465B8AF3
:10577300828B8312585A901D1F12586D122AAD85C1
:105783001882851983E0641560077A1F7B1D122A2E
:10579300D17AB67B1C121661EA4B70C7EF54807046
:1057A3000C8016901D1FEAF0A3EB125880901D1C6D
:1057B300E0F912164FEA4B70EAEE5410600B8518AD
:1057C30082851983742D12588CEEA2E0500B851834
:1057D30082851983742412588CEE5402600B851849
:1057E30082851983742512588CEE5404600B851836
:1057F30082851983742612588CEE5408600B851821
:1058030082851983742812588CEE5440600D7401FC
:1058130012108A125873742C12588CEE5480600D37
:10582300740112108A125873742F12588C901D1D14
:10583300125489601BA8A8C2AF901D1D124AB690CE
:105843001D1DE4F0A312465BA3EAF0A3E9125880FE
:105853007A007B0002548112585E22E0851882850B
:105863001983F022A3A3A3A3A3A3EAF0A3EBF0223B
:10587300E412587822F085188285198322F0122ABF
:10588300AD7A1F7B1D122AD1221243A7122AAD2201
:10589300C082C083901D1F1264E2687002EB6970BE
:1058A30007901D1FE4F0A3F0024C2A74F712084579
:1058B300EAFEEBFFEA4F700312118DA2AFE433F55A
:1058C30008C2AF8E828F831254896028E824FBFAC2
:1058D300E934FFFB901D1F125E82E86C7002E96DD4
:1058E3007007901D1FE4F0A3F08E828F83E4F0A372
:1058F300F01216F1023D2CC082C083901D4674192C
:10590300F0A3742BF0A3742BF0A3742BF0A37431C6
:10591300F0A3742BF0A374E7F0A37429F0A37437F6
:10592300F0A3742BF0A374E1F0A37429F0A374ED36
:10593300F0A37429F0901D547467F0A3742BF0A3A3
:10594300743DF0A3742BF0A37443F0A3742BF0A362
:10595300744FF0A3742BF0A37449F0A3742BF0904D
:105963001D45E402472EC082C0839006CFE064FE4B
:105973007003A3E0F470097CC67D061217CF801C68
:105983008A828B83A3A3A3A3A3A3A3A37402F090EC
:1059930006CF126A748A828B83124D0A024C2AC084
:1059A30082C0839006D9C3E094FEA3E094FF400431
:1059B300790380027902024C2AC082C083125AFD05
:1059C3008C828D83125AB2687039740268701C8A93
:1059D300828B83125A0BE06870298A828B83A3120D
:1059E3005A0BA3E068701C7901801A740368701362
:1059F300EC2405FC50010DEA2405FA50010B1217A3
:105A0300D580027900024C2AA3A3A3A3A3E0F88CB8
:105A1300828D83A3A3A3A3A32274F61208457E0059
:105A2300740A12108AE0125AA6FF8A828B83A3A3F8
:105A3300A3A3A3A3A3A3E06F706474026F704E8A41
:105A4300828B83C082C08388828983A3A3A3A3A3F9
:105A5300E0F50888828983A3A3A3A3A3A3E0FBAAF9
:105A630008D083D082E06A7003A3E06B7030888231
:105A73008983A3A3A3E0FA88828983A3A3A3A3E0D2
:105A8300F9EA6C7002E96D70157E01801174036F81
:105A9300700CE82405FCE439FD1217D5E9FEEEF994
:105AA300026428F8A3E0F98882F583125AB222A38C
:105AB300E01313543F540322C082C0838A828B8332
:105AC300A3A3A3A3A3A3A3A3E0640270169006CF8A
:105AD300125AF4687003A3E06970047901800F79A6
:105AE30000800BEAFCEBFD7AC67B061217C9024C59
:105AF3002A126A788A828B83E0228A828B83125AE3
:105B0300B2F82274F012084574FC120E1CE98518D1
:105B130082851983F0740212108AECF0A3EDF08AE7
:105B23000A8B0B750800740212108AE02408125DB8
:105B330076C0E0740112108AD0E0125DC6A2E7506D
