:020000040000FA
:0600000002103B02060B9A
:03002B00020DF3D0
:03004300020CC1EB
:0300530002054063
:03006B00020A1A6C
:1000830002059F0100F0FF0700080000FFFF0000CA
:10009300070400000003000147726F757000FF043E
:1000A30000100020FD00020000AD1500000000005C
:1000B300000D16000000000000891500000000007C
:1000C3000000000000951500000000000000000083
:1000D30000000006FFFF1E0191190000B519000082
:1000E300000000000000000000000000000000000D
:1000F300102020202020202020202020202020200D
:100103002001010401000100056082017F830104D5
:100113000000241A000000E8030000FFFF9E1A01FC
:1001230088130000E803000064006400B801A0BB6A
:100133000D00A0BB0D0002020207040101051E020F
:10014300051E020A0A0101010809080103B80B028E
:10015300803E0102FEFFE8030A050001FFFF010ADA
:100163001401E0020000000105030101FF0F10FE6E
:10017300FF03000300030003000300030003000365
:1001830000030005000A00140028004F009E000031
:10019300003A3200000000AC3000000000FF000015
:1001A30000FF0012104B601D12105A700519191927
:1001B300801A120EEF701F120F03C37003E667332A
:1001C30019191940071818182208080874FFF61897
:1001D300F618F618F622120F0360171210E87021B2
:1001E30092F01210F17019501720F0140808080942
:1001F3000909E7F61819E7F61819E7F61819E7F6E3
:10020300221210F160E6E869701F0808E62480F600
:1002130008E436F618547FB47F0CE654806007F682
:10022300E418F618F622181822E9C6CC08C6CD0839
:10023300C6CE08C6CFC0E0E8C0E0EAC0E0EBC0E04D
:1002430009E9F809E7FA09E7FBE6F918E6F8C3EC68
:1002530098ED99EE9AEBC2E7F5F0EFC2E795F0500F
:100263000E600CEBCFFBEACEFAE9CDF9E8CCF8EA65
:10027300A2E7D2E7FAEB33FB13F5F0EEA2E7D2E7FE
:10028300FEEF33FFC5F013A2E730E601B313C5F069
:10029300C3C0E0C0F07F00C39BFB605E9418600F97
:1002A300401D14601AD0E023F9D0E0F80203878AD6
:1002B300F0E9486003D2F0E4AFF0FAF9F8803BEBE1
:1002C30030E40D89F0EA6003D2F0E4AFF0F9CAF844
:1002D300EB30E30D88F0EF6002D2F0AFF0E4CAC96F
:1002E300F8EB54076014FBC3EA13FAE913F9E813B4
:1002F300F8EF135002D2E0FFDBEDD0E0C0E030E7CF
:1003030039C3E49FFFF5F0EC98FC42F0ED99FD4210
:10031300F0EE9AFE42F0D0E0F9D0E0F8E5F0607A32
:10032300E923F9EE20E742D8028067C3EF33FFECFD
:1003330033FCED33FDEE33FE80EAEC28FCED39FDB2
:10034300EE3AFED0E023F9D0E0F84002801BC3EE82
:1003530013FEED13FDEC13FCEF135002D2E0FF0884
:10036300B800067F7F74FF802EEF3350178CF02088
:10037300F00260100CBC000C0DBD00080EBE0004A2
:1003830008E860DFE933E813FFEE2313FE4F4D4C1B
:100393008008E95480FFE4FEFDFCEE33EF33F47094
:1003A30004FCFD7E80D0E0FBD0E0FAD0E0F8D0E0A2
:1003B300CFC618CEC618CDC618CCC6F92200121067
:1003C3004B604F12105A6012E7548066F6120EEF1C
:1003D30070111210E8703B090909F4F618F618F6C3
:1003E30018F622120F0370151210F108080860EABC
:1003F300E6447FF618768018E4F618F6221210F118
:1004030060161210E87012E4F608F608F608E654CF
:1004130080F609090918181822EAC0E0EBC0E0ECDD
:10042300C0E0EDC0E0E687F0A4FBACF008E687F09F
:10043300A42CFCE435F0FA1809E687F0A42C4B60F1
:10044300027401CA35F0FCE433FB09E687F0D2F706
:10045300A42CCB35F0FC1908E687F0A42BCC35F09F
:10046300FBE433FD0819E687F0D2E7A42C4ACB3529
:10047300F0CD3400FC09E687F0D2E7A42DCC35F0AB
:10048300FDE433FA0918E687F0D2F7A42CCD35F052
:10049300CA3400FC08E687F0D2E7D2F7A42ACC35A9
:1004A300F07A7E20E70B0ACB33CBCD33CDCC33CCE4
:1004B30033CB3350147004ED30E00ED2F1E4CD3D74
:1004C300CDCC3CCC3B5005DA05C2F1EB547FC633AF
:1004D30008E63392F0FBE73309E733C39A502D2B39
:1004E30070190C0D4C4D70151806E608C333700DCA
:1004F30020F10AA2F013F6E418800B4024E4F6304E
:10050300F002768018F618F618F68024D33B1450C0
:100513001074FFA2F013F6187680E418F618F6802C
:100523000FA2F013F618E63303F618ECF618EDF6FF
:10053300D0E0FDD0E0FCD0E0FBD0E0FA22C0E074D4
:10054300F11208B1A2AFE433F509D2AF85A708AF22
:10055300A1EF5508FE74105E600612131975A1EF22
:1005630074085E600812131F75A1F78024EFA2E0E0
:1005730092F0E508A2E082F05017906198E0F890BD
:1005830006A8E0C398A2D265D0335002E8F075A163
:10059300FEE509A2E092AF7F0202096DC0E074F2AA
:1005A3001208B1A2AFE433FED2AF9061A4E0F875B4
:1005B3009B00E59158540860087591F712136D80FC
:1005C30023E59158541060087591EF12137380144A
:1005D300E591A2E092F0E8A2E082F05007E0C2E0E9
:1005E300F01214BD9061A3E0F8E5E9585404600EDD
:1005F30012149375E9FB906193E0A2E640F2EEA238
:10060300E092AF7F0102096DC0E074F21208B1A25B
:10061300AFE433FED2AF9061A5E0F8E5BF585404D0
:10062300600675BFFB1214D580D4C3E498F8E4992F
:10063300F912066E8026C3E49AFAE49BFBE920E7ED
:10064300E912066EE498F8E499F922C3E498F8E411
:1006530099F912066EE498F8E499F9C3E49AFAE476
:100663009BFB22EB20E7CFE920E7E0B90010BB00BA
:1006730008E88AF084F8AAF022E4FBC8FA22EB70B7
:10068300227B10C833C8C933C9335007C39AC3DBAD
:10069300F280069A50012ADBEAC833F4C8C933F45E
:1006A300C9FA2275F008E4C833C8C933C933C99AF3
:1006B300C99B5004C92AC93BD5F0ECFBC833F4C825
:1006C300E4C9FA2212070720F01430E72B74FFFC69
:1006D300FBFA747F8022E4FCFBFA7480801AB480F6
:1006E30008BC00F2BB00EF800F50EBF9E4C39AFAA9
:1006F300E49BFBE49CFCE499C6CC18C6CB18C6CAA1
:1007030018C6F922E4C9C608CAC608CBC6D3330340
:1007130008CCC63392F0C3947F402E94184019C975
:10072300B90704CACBCC225025C309CA33CACB3379
:10073300CBCC33CC33D9F422F4600DC9CCC313CB67
:1007430013CBCA13CAD9F6CC22E4FCFBFA2214FC5D
:10075300FBFA22080808EAC0E0EBC0E086F0E7A451
:10076300FA180986F0E7A42AFA180986F0E7A42AFA
:10077300FA180986F0E7A42AFA1986F0E7A4FBE53C
:10078300F02AFA190886F0E7A42BFBE5F03AFA19E8
:100793000886F0E7A42BFBE5F03AFA18180986F06F
:1007A300E7A4C5F02BFBE43AFA1908E7C5F0C6A4A1
:1007B30026F6E5F03BFBE43AFA1886F0E7A4F6E503
:1007C300F00826F6E43B08F6E43A08F6D0E0FBD05E
:1007D300E0FA22E4CFC0E0E4CEC0E0E4CDC0E0E440
:1007E300CCC0E075F020E626F608E633F608E633DB
:1007F300F608E633F6181818EC33FCED33FDEE3348
:10080300FEEF33FFC3EC9709ED9709EE9709EF97D6
:10081300191919400FFFEC97FC09ED97FD09EE97A5
:10082300FE191906D5F0BFECF709EDF709EEF70944
:10083300EFF7191919D0E0FCD0E0FDD0E0FED0E0CD
:10084300FF222518C582C0E0E51934FFC583C0E047
:10085300E518C3958224F810AF088583198582189B
:100863008008858319858218D2AFCEF0A3E520F0E6
:10087300A37808E608F0A3DEFAEFF0A3E58124FAF3
:10088300F8E608F0A3E608F0A3E608F0A30808E6F4
:1008930008F0A3E608F0A315811581D0E0FED0E0AF
:1008A300F8158115811581E8C0E0EEC0E022C0D0C3
:1008B3002518C582C0E0E51934FFC583C0E0E518FB
:1008C300C3958224F310AF088583198582188008A5
:1008D300858319858218D2AFC8F0A3E9F0A3EAF0A3
:1008E300A3EBF0A37908E709F0A3D8FAECF0A3EDA2
:1008F300F0A3EEF0A3EFF0A3D0E0F0A3D0E0F0A3D9
:10090300D0E0F0A3E520F0A3E5F0F0A322E9799E7F
:10091300C608CAC608CBC608CCC6C370207996CA17
:10092300CBCC7019798ECBCC70137986CC700EF941
:10093300802ACA33CACB33CBCC33CC331930E7F25A
:10094300CCCBCA3350147004EA30E00DE4CA3ACA7F
:10095300CB3BCBCC3CCC500209C3E913C6CC182308
:1009630013C6CB18C6CA18C6F922851983851882FF
:10097300E0C0E0A3E0F9A3E0FAA3E0FBA37808E07A
:10098300F608A3DFFAE0FCA3E0FDA3E0FEA3E0FF8B
:10099300A3E0C0E0A3E0C0E0A3E0F5D0A3E0F5202E
:1009A300A3E0A3F5F010AF088583198582188008AA
:1009B300858319858218D2AFD082D083D0E0F8D056
:1009C300E0321210D3B90003020A04E49004017860
:1009D3009B791A8002F0A3D8FCD9FA7A9B7B1D90ED
:1009E3000086782179028015E493A3AD82AE838AD1
:1009F300828B83F0A3AA82AB838D828E83D8E9D9BD
:100A0300E77582EA7583FD7404120D847582077598
:100A1300832E7400120D84C0E074F11208B17A0AB7
:100A23007B001211A5A287400EA2844004D2F0805D
:100A330002C2F0A2F09284A880E8A2E4E433F508AD
:100A43007509007808120DAAA287E433F50878081F
:100A5300120DAA7A417B81121FAF7404120DD87A4A
:100A63000779001211997F0202096DE47375F01082
:100A73008E1A8F1B85821F85831E85188285198395
:100A8300E0CEA3E0CF851F82851E83EBC9EAC8EDC4
:100A9300CBECCAC3E833C8E933C9EA33CAEB33CB77
:100AA300C3EA9EF51DEB9FF51CB35004AB1CAA1DB6
:100AB300EC33CCED33CDD5F0DAAE1AAF1B22D083B5
:100AC300D082ECC0E0EDC0E0E493A3FCE493A3FD8B
:100AD300ED4C600D120B99EC24FFFCED34FFFD800F
:100AE300EFE493A3FCE493A3FDED4C600D120C6CB7
:100AF300EC24FFFCED34FFFD80EFD0E0FDD0E0FC03
:100B0300E493A3C0E0E493C0E022851983851882AF
:100B1300E0A3FEE0A3F5207808E0A3F608DFFAE0FF
:100B2300A3FFE0A3C0E0E0A3C0E0E0A3C0E0E0A334
:100B3300C0E0E0A3C0E010AF088582188583198068
:100B430008858218858319D2AFD083D082020D8A9B
:100B5300D083D082E9C0E0E493A3C386F0C5F095C7
:100B6300F0F908E493A386F0C5F095F0700BE493D5
:100B7300A3C3994005E9048002A3E475F002A42508
:100B830082F582E5F03583F583D0E0F9E493A3C0E1
:100B9300E0E493C0E022C0E0C3E4939608740193B9
:100BA3009618400FE49366700808740193661870F2
:100BB300007019A3A3C3E49396087401939618A332
:100BC300A3400DD0E0D0E0D0E0020AFDA3A3A3A38D
:100BD300A3A3D0E022C082C08374FE120E708518D6
:100BE30082851983EAF0A3EBF07C017D00AA18ABA0
:100BF3001979001212A1851882851983E0FAA3E0FE
:100C0300FB7402120DD8D083D08222740480047442
:100C1300028000CCC0E0EDC0E0E518C39CCCAD1968
:100C230050011D10AF068C188D1980068C188D1974
:100C3300D2AF120D06D0E0FDD0E0FC22740280009A
:100C4300CCC0E0EDC0E0E518C39CCCAD1950011D4C
:100C530010AF068C188D1980068C188D19D2AF121F
:100C63000CE4D0E0FDD0E0FC22C0E0C0F088F0E46A
:100C7300936670080874019366187000A8F0A3A324
:100C8300700BD0F0D0E0D0E0D0E0020AFDA3A3D0F7
:100C9300F0D0E022D083D082CCC0E0E493A36006FE
:100CA300120D461470FAE493A36006120E861470B4
:100CB300FAD0E0FCE493A3C0E0E493C0E022C0E0F8
:100CC30074F21208B1A2AFE433FED2AFC2C0E5D1D1
:100CD300A2E45003121289EEA2E092AF7F0102094F
:100CE3006DCAC0E0E493A3C582CCC582C583CDC5DC
:100CF30083F0A3C582CCC582C583CDC583DAE5D095
:100D0300E0CA22CAC0E0E0A3C582CCC582C583CDB8
:100D1300C583F0A3C582CCC582C583CDC583DAE67E
:100D2300D0E0CA227009080808226016181818C6ED
:100D3300C333C608C633C608C633C608C633C6D5CA
:100D4300E0EA22C0E0E493A3D39C5010E493A3C34E
:100D53009C400AD0E0D0E0D0E0020CB4A3A3A3D01F
:100D6300E022C008C3E096F50808A3E0964208080D
:100D7300A3E096420808A3E09645087001D3D00883
:100D830022C09FF59FE473D09F22D083D082C09F5F
:100D9300E493C0E0740193C0E0740293F59F22745E
:100DA30004800A74038006740280027401C0E0F4B4
:100DB30004120DBDD0E0121096222518F58210AF53
:100DC30008F518400C15198008F51840021519D2BA
:100DD300AF8519832200C0D0251810AF08F518502D
:100DE3000C05198008F51850020519D2AFD0D0228E
:100DF300C0E0C0D0E8C0E0A8A8D2AFC2C7E8A2E76D
:100E030092AFD0E0F8D0D0D0E032BB0102E722C0ED
:100E130082C08389828A83BB0003E08002E493D08B
:100E230083D082226016080808C6C313C618C613E7
:100E3300C618C613C618C613C6D5E0EA22C3E0C651
:100E430096F608A3E0C696F608A3E0C696F608A3AE
:100E5300E0C696F6222518F8E43519F9222518FA82
:100E6300E43519FB222518FCE43519FD2225181059
:100E7300AF08F518400C15198008F518400215192C
:100E8300D2AF22C0E0E493A36C7009D0E0D0E0D0ED
:100E9300E0020CB4A3A3D0E022C3E09608A3E0963B
:100EA30008A3E09608A3E096A2D265D03322E766B2
:100EB30070100809E766700A0809E76670040809F4
:100EC300E76622E066701008A3E066700A08A3E0F4
:100ED30066700408A3E06622C3E096F008A3E096D8
:100EE300F008A3E096F008A3E096F022181818E69D
:100EF3000846087009E626087005E633F42208223E
:100F0300191919E70947097009E727097005E73334
:100F1300F4220922C3E49396087401939608740299
:100F23009396087403939622C3E697F60809E69707
:100F3300F60809E697F60809E697F622E026F6088A
:100F4300A3E036F608A3E036F608A3E036F622E679
:100F530047F60809E647F60809E647F60809E647AB
:100F6300F622700422600D18C6C333C608C633C602
:100F7300D5E0F41822E657F60809E657F60809E61D
:100F830057F60809E657F622E056F608A3E056F6A8
:100F930008A3E056F608A3E056F622E056F008A3AD
:100FA300E056F008A3E056F008A3E056F022E62747
:100FB300F60809E637F60809E637F60809E637F6CC
:100FC30022E026F008A3E036F008A3E036F008A3F9
:100FD300E036F022E493F608740193F60874029362
:100FE300F608740393F622E4C396F608E496F6082B
:100FF300E496F608E496F622600D08C6A2E713C647
:1010030018C613C6D5E0F322C6F4C608C6F4C6084C
:10101300C6F4C608C6F4C622C3E7960809E79608CD
:1010230009E7960809E79622C3E09608A3E0960825
:10103300A3E09608A3E0962275D00075813F75184A
:1010430001751904000209C5E6084608C3134608DA
:10105300336002E633F422E7094709C31347093330
:101063006002E733F422600C08C6C313C618C61324
:10107300C6D5E0F422E6F008A3E6F008A3E6F008FC
:10108300A3E6F022E0F608A3E0F608A3E0F608A33F
:10109300E0F622CAC0E0E6F0A308DAFAD0E0FA22CA
:1010A300E0FAA3E0FBA3E0FCA3E0FD22EAF0A3EB5C
:1010B300F0A3ECF0A3EDF022E0F8A3E0F9A3E0FA4B
:1010C300A3E0FB22E8F0A3E9F0A3EAF0A3EBF0220C
:1010D300E5C754F84401F5C77901222518F582E4E0
:1010E3003519F58322E72719471947194722E626B9
:1010F30018461846184622C2AF75D69F0200002232
:10110300120D8D4D7000120D8D807000120D8DAE7D
:101113007000120D8DD27200120D8DEE7200120D41
:101123008D337300120D8DB87300120D8D0474008E
:10113300120D8D947400120D8D6D7500120D8DBE00
:101143007500120D8D237600120D8D967600120D0B
:101153008DDA7600120D8D327700120D8D547700E3
:10116300120D8DE47700120D8D757800120D8DC16F
:101173007800120D8DED7800120D8D2E7900120D71
:101183008DCF7A00120D8DB17B00120D8D8D7C00F9
:10119300120D8D677D00120D8D717F00120D8DBCB8
:1011A3007F00120D8DE67F00120D8DEBCF06120D21
:1011B3008DFCCF06120D8D0DD006120D8D0BFE0189
:1011C300120D8D26FE01120D8D58FE01120D8D8517
:1011D300FE01120D8DAAFE01120D8DD5FE01120D19
:1011E3008D00FF01120D8D30FF01120D8D31CC06E4
:1011F300120D8D42CC06120D8DE0CC06120D8DFA28
:10120300CC06120D8DFB7F00120D8DE3FF04120D32
:101213008D20CE06120D8D30CE06120D8D45CE06D5
:10122300120D8D8ECE06120D8D53C806120D8DD75D
:10123300C806120D8D3FC906120D8DFCFF01120D5C
:101243008DE5B106120D8DF3B106120D8D6CB2064C
:10125300120D8D41B306120D8D13B506120D8DB708
:10126300D006120D8D1D8D06120D8D8A8D06120D61
:101273008D428E06120D8DB88E06120D8DCC8F0603
:10128300120D8D5C9106120D8DC59106120D8D14F4
:101293009206120D8D1D9206120D8D2C9206120DC3
:1012A3008D429206120D8D559206120D8D5E920699
:1012B300120D8D719206120D8D9D9206120D8D34B5
:1012C3009506120D8D749506120D8DB09506120DAF
:1012D3008DC49506120D8DDD9506120D8DCE9606E5
:1012E300120D8D809706120D8D949706120D8D1D8C
:1012F300C206120D8D41C206120D8D5AC206120D81
:101303008D98C206120D8DC8C206120D8DF5C20648
:10131300120D8D5BC306120D8D5EC306120D8D6813
:10132300C306120D8D75C306120D8D4BB806120D33
:101333008D6BB806120D8DAAB806120D8DC8B806AE
:10134300120D8DE3B806120D8D49B906120D8D5598
:10135300B906120D8DB2B906120D8DC1B906120D63
:101363008DE5B906120D8DA6BA06120D8DB3BA0618
:10137300120D8DC4BA06120D8DA9CD06120D8DF175
:10138300CD06120D8D1DCE06120D8D8DA106120DEB
:101393008DE9A206120D8DF7A206120D8D0AA30682
:1013A300120D8D1FA306120D8D34A306120D8D474A
:1013B300A306120D8DC3A306120D8D28A406120DCC
:1013C3008DBEA406120D8D97A506120D8DA7A50639
:1013D300120D8DB6A506120D8D10CD06120D8D348E
:1013E300CD06120D8D5CCD06120D8D84CD06120D2A
:1013F3008DF2BA06120D8D19BB06120D8D37BB0681
:10140300120D8DA6BB06120D8D78B506120D8D91AA
:10141300B506120D8D9DB506120D8DB1B506120DD3
:101423008DCFB506120D8DD9B506120D8DE3B50618
:10143300120D8DF6B506120D8D7CB606120D8DF1CB
:10144300B606120D8D20B706120D8D6EB706120D5E
:101453008DBDB706120D8DD8B706120D8DE2B706F6
:10146300120D8DF3B706120D8D36B806120D8D5081
:10147300CF06120D8D82EB05120D8DAEEB05120D0D
:101483008DCBEB05120D8DDEEB05120D8DF9EB0502
:10149300120D8D53EC05120D8D81EC05120D8D91FE
:1014A300F005120D8DEFF105120D8D21F205120DD0
:1014B3008D84F205120D8DF0F305120D8D18F405D0
:1014C300120D8D2DF405120D8D3DF405120D8D7D3C
:1014D300F405120D8DBFF405120D8DCFF405120D19
:1014E3008D09C606120D8D23C606120D8D4BC60639
:1014F300120D8D64C606120D8D88C606120D8DA6BB
:10150300C606120D8DBDC606120D8DEBC606120D55
:101513008D06C706120D8D36D006120D8D75FC0390
:10152300120D8D85FC03120D8D8AFD03120D8DBCEA
:10153300FD03120D8DECFD03120D8D0FFE03120D35
:101543008D26FE03120D8D60FE03120D8DC5FE0365
:10155300120D8D07FF03120D8D4EFF03120D8D7BB0
:10156300FF03120D8DA6FF03120D8DC4C406120DC9
:101573008DE2C406120D8D44C506120D8DDEC5061F
:10158300120D8D46CB06120D8D39C706120D8D81B6
:10159300C706120D8D09BF06120D8D6AC006120D06
:1015A3008D7FC306120D8DA4C406120D8D1CE1059B
:1015B300120D8DA6E405120D8DA2E605120D8DD434
:1015C300E705120D8DADE805120D8D3DEA05120DEF
:1015D3008D09EB05120D8D5DEB05120D8D47BD06D3
:1015E300120D8D68BD06120D8DA2BE06120D8DCC97
:1015F300BE06120D8D7CD006120D8D8CD006120DF9
:101603008D96D006120D8DC5B905120D8DC8B9057D
:10161300120D8DA4C105120D8DF6C205120D8D5745
:10162300C405120D8D2EC505120D8D07C605120DAD
:101633008DF0C605120D8DE4C705120D8D9CC805EE
:10164300120D8DCCC805120D8D7CCA05120D8DB9F6
:10165300C006120D8DD9C006120D8DEDC106120DF7
:101663008DF0C106120D8D58CA06120D8D8ECA0655
:10167300120D8DA6CA06120D8DE8CA06120D8DF83D
:10168300CA06120D8D3CCB06120D8D008006120D7D
:101693008D3A8006120D8DA38006120D8DC2800631
:1016A300120D8DDB8006120D8D7D8106120D8D8648
:1016B3008106120D8DD78106120D8D008206120D43
:1016C3008D0D8206120D8D7E8206120D8D0C830602
:1016D300120D8D5A8306120D8D908306120D8DF116
:1016E3008306120D8D1A8406120D8D918406120D38
:1016F3008DED8406120D8D2A8506120D8D618506EA
:10170300120D8D738506120D8D858506120D8DA420
:101713008506120D8DAD8506120D8D688606120D98
:101723008DB48606120D8DF28606120D8D97CE06A8
:10173300120D8DA89706120D8DE89806120D8D0BCC
:101743009906120D8D1C9906120D8D3B9B06120DE9
:101753008D5B9B06120D8DC2FD02120D8DF8FD02ED
:10176300120D8D40FE02120D8D99FF02120D8DABED
:10177300E904120D8DDCEA04120D8D18EB04120D31
:101783008DD2EC04120D8DFCEC04120D8D75EF045B
:10179300120D8DB5EF04120D8D49F104120D8DE874
:1017A300F104120D8D40F204120D8DD3F204120DCB
:1017B3008D0DF304120D8D4FF304120D8DC2F4043D
:1017C300120D8D42F604120D8D7FF804120D8DADAE
:1017D300F804120D8DD9F804120D8DE2F804120DE0
:1017E3008D3FF904120D8DCFF904120D8D0BFD04FD
:1017F300120D8D8DFD04120D8D1AD106120D8D3033
:10180300D106120D8D1FAA06120D8D35AA06120DD3
:101813008DD9AA06120D8D18AB06120D8D35AB06A8
:10182300120D8D66AB06120D8DB3AB06120D8DE74F
:10183300AB06120D8D22AC06120D8D17AE06120DDE
:101843008D58C906120D8DB7C906120D8DF5C9063F
:10185300120D8D36CA06120D8D008004120D8D0CEB
:101863008004120D8D6E8004120D8D788004120D8C
:101873008D058104120D8D418104120D8D048204A6
:10188300120D8D178204120D8D858204120D8DEDBC
:101893008204120D8D7C8304120D8DFA8304120DC4
:1018A3008D9F8504120D8D588704120D8D9E88041B
:1018B300120D8D1B8A04120D8DC28A04120D8D9098
:1018C3008F04120D8D879004120D8D169104120D45
:1018D3008D3B9104120D8DD89104120D8DF5910459
:1018E300120D8D159204120D8D869204120D8DA387
:1018F3009204120D8DD19204120D8D699404120D70
:101903008D8A9404120D8D309504120D8D789504F3
:10191300120D8DEA9504120D8D6D9604120D8DD264
:101923009604120D8D2F9704120D8DCE9704120D70
:101933008D429804120D8D7E9804120D8DEB980440
:10194300120D8D559A04120D8DD69B04120D8D85A3
:101953009C04120D8DE79E04120D8D499F04120DF8
:101963008D779F04120D8D8FA104120D8D1FA4047A
:10197300120D8D22A504120D8D1E8706120D8D1DCD
:101983008806120D8DF78906120D8D178A06120D22
:101993008D1A8A06120D8D2D8A06120D8D4F8A0619
:1019A300120D8D738A06120D8DCA8A06120D8DE2F1
:1019B3008A06120D8D1D8B06120D8D8E8B06120D50
:1019C3008DEA8B06120D8D868C06120D8DEE8C061C
:1019D300120D8DEFD006120D8D9FCB04120D8D3E8F
:1019E300CC04120D8DBACC04120D8DA9CD04120DA9
:1019F3008DA7CE04120D8D26CF04120D8D68D00451
:101A0300120D8D09D104120D8DC9D204120D8DD082
:101A1300D304120D8DEDD304120D8D18D504120DC0
:101A23008D55D604120D8DFFD604120D8D69DA047F
:101A3300120D8D71DC04120D8DFADC04120D8D5420
:101A4300DD04120D8DA2DD04120D8D1DDE04120DB9
:101A53008D9FDE04120D8DDBDE04120D8D7FE504F8
:101A6300120D8DDAE704120D8DB6E804120D8D34D4
:101A73009D05120D8D669D05120D8DEA9D05120DB6
:101A83008D4D9F05120D8D3BA005120D8D03A205F3
:101A9300120D8D28A205120D8D7AA205120D8D0C43
:101AA300A305120D8D58A305120D8D6BA305120D01
:101AB3008DC8A305120D8D37A405120D8D04A50540
:101AC300120D8D72A505120D8DA9A505120D8DF2AE
:101AD300A505120D8D9AA705120D8D79A805120D76
:101AE3008DC7A905120D8DAAAA05120D8D36AB055A
:101AF300120D8D6FAB05120D8D8EAB05120D8DD9A9
:101B0300AB05120D8DF9AB05120D8DB6AC05120D9B
:101B13008DC3AD05120D8DD7AD05120D8D2BAE0501
:101B2300120D8D86AE05120D8DD3AE05120D8DDB14
:101B3300AF05120D8D60B205120D8D86B205120D23
:101B43008D01B305120D8D26B305120D8DADB305B1
:101B5300120D8D89B405120D8DC7B405120D8D4B71
:101B6300B505120D8D36B605120D8D39B605120D5C
:101B73008D43B605120D8D4DB605120D8D69B60553
:101B8300120D8DE5B605120D8D1EB705120D8D3A9A
:101B9300B705120D8D66B705120D8D8DB705120DA4
:101BA3008DB1B705120D8DECB705120D8D5FB8051C
:101BB300120D8D93B805120D8D9DB805120D8DD99B
:101BC300B805120D8DF3B805120D8D1AB905120D56
:101BD3008D49B905120D8D68B905120D8D80B905B2
:101BE300120D8D92B905120D8D9BCF06120D8DB37B
:101BF300CF06120D8DF8FF04120D8DFFF405120DA3
:101C03008D4EF505120D8D0CF705120D8DC6F805D9
:101C1300120D8D04F905120D8DF9F905120D8D04C0
:101C2300FB05120D8D26FB05120D8D70FB05120DA4
:101C33008DF1FB05120D8D2AA904120D8D4DA904FA
:101C4300120D8DABAA04120D8DF4AA04120D8D5240
:101C5300AB04120D8DB8AB04120D8DBBAB04120D8A
:101C63008D0CAC04120D8D86AC04120D8D14AD04D5
:101C7300120D8D17AD04120D8D9FAD04120D8DE263
:101C8300AD04120D8D52B204120D8DF0B304120D7A
:101C93008D2AB404120D8D70B404120D8DD0B704C7
:101CA300120D8D55B804120D8DEDB904120D8DFC76
:101CB300BA04120D8D29BC04120D8D89BC04120DBA
:101CC3008D65BD04120D8DEFBD04120D8DF2BD04A3
:101CD300120D8DD7BE04120D8D1DC004120D8DD1B2
:101CE300C104120D8DA4C304120D8D36C404120D4C
:101CF3008DCBC404120D8DBDC504120D8D7DC7049B
:101D0300120D8D93C804120D8D02CA04120D8D4756
:101D1300CA04120D8DF2CA04120D8D008005120D36
:101D23008D9B8005120D8D0E8105120D8D29810568
:101D3300120D8DCA8105120D8D118205120D8D3480
:101D43008305120D8D778305120D8DF38305120D17
:101D53008D468405120D8DA58405120D8DB2850562
:101D6300120D8DCF8805120D8D058A05120D8D8EEE
:101D73008A05120D8D928C05120D8D368D05120D6F
:101D83008DD58D05120D8D368E05120D8DA58E0503
:101D9300120D8DFE8F05120D8DE89005120D8D230A
:101DA3009105120D8D439105120D8DF49105120DC0
:101DB3008D319205120D8DBA9205120D8D35940554
:101DC300120D8D009605120D8D5B9705120D8DD0AA
:101DD3009805120D8DDF9905120D8D6C9A05120D64
:101DE3008DD59A05120D8DE19B05120D8DCBD9036F
:101DF300120D8D2EDA03120D8D76DA03120D8DB4CA
:101E0300DA03120D8D0FDB03120D8D6CDB03120D44
:101E13008DA7DB03120D8D29DC03120D8D83DC03EB
:101E2300120D8DF7DD03120D8D75DE03120D8D8DF1
:101E3300DF03120D8DB5DF03120D8D04E103120DC7
:101E43008D15E103120D8D2DE103120D8D42E20379
:101E5300120D8D1FE303120D8D1CE403120D8D4033
:101E6300E403120D8D57E403120D8D78E403120D74
:101E73008D9AE403120D8DB9E403120D8D8DE503E4
:101E8300120D8DE7E503120D8D88E803120D8DE128
:101E9300E803120D8D00E903120D8DEBE903120D1A
:101EA3008D88D605120D8D5BEB03120D8DDAEB03D6
:101EB300120D8D11EC03120D8D4BEC03120D8DBA27
:101EC300EC03120D8D7BED03120D8D54EF03120DF8
:101ED3008D5BF003120D8DCCF103120D8DCCF3034A
:101EE300120D8D47F603120D8D21F803120D8DE2AD
:101EF300F803120D8D5AF903120D8D71F903120DAA
:101F03008D6BFA03120D8D63FB03120D8DD2FB0350
:101F1300120D8D21FC05120D8DD1FD05120D8DD1F4
:101F23006F00120D8DF8FE05120D8D6CFF05120D5D
:101F33008D24AE06120D8D42AE06120D8D86AE06B1
:101F4300120D8DACAE06120D8DD3AE06120D8DEBB8
:101F5300AE06120D8D03AF06120D8DA5AF06120D41
:101F63008DE7AF06120D8D09B106120D8D12B10664
:101F7300120D8D1BB106120D8D24B106120D8D2E7F
:101F8300B106120D8D9D9C06120D8DD1A006120D6A
:101F93008DDFA006120D8DE4A006120D8D70FE04D8
:101FA300120D8DD0FF01120D8DF1CE06120D8D0194
:101FB300CF06120D8DE7A506120D8D008003120DBD
:101FC3008D328003120D8D9E8003120D8D39810396
:101FD300120D8DD88103120D8D1D8203120D8D3FBD
:101FE3008203120D8D588203120D8D7E8203120D12
:101FF3008DA08203120D8DDE8203120D8D228303C9
:10200300120D8D448303120D8DA68303120D8D6D66
:102013008403120D8D248503120D8D968503120DF5
:102023008D688603120D8DB28603120D8D0587030D
:10203300120D8D6B8703120D8DA58703120D8DF77E
:102043008703120D8D138803120D8D3E8803120D25
:102053008D458A03120D8D998B03120D8DBB8B0356
:10206300120D8DEF8B03120D8D108C03120D8D1F2E
:102073008C03120D8D2A8C03120D8DDA8C03120D35
:102083008D438D03120D8DF08D03120D8D288E035C
:10209300120D8DEE8E03120D8DFB8F03120D8D45E8
:1020A3009003120D8DD49003120D8D389103120DF0
:1020B3008D739103120D8DDF9303120D8D339503F1
:1020C300120D8D6C9803120D8D399903120D8DC766
:1020D3009903120D8DF09903120D8D629A03120D5F
:1020E3008DF69A03120D8D549B03120D8D469C039E
:1020F300120D8D689C03120D8DC49D03120D8DDD91
:102103009D03120D8DF09D03120D8D4D9E03120D37
:102113008D5C9E03120D8DEF9E03120D8DFB9F03AD
:10212300120D8D08A003120D8D11A003120D8DE960
:10213300A103120D8D0FA303120D8D1FA303120D07
:102143008D21A403120D8D98A403120D8DC7A40332
:10215300120D8DCDA503120D8D13A603120D8DDF68
:10216300A703120D8DB7AB03120D8DC1AB03120D77
:102173008DD5AB03120D8DDFAB03120D8DE9AB03D0
:10218300120D8DF3AB03120D8D0CAC03120D8D16D6
:10219300AC03120D8D8AAC03120D8D95AC03120D99
:1021A3008DBAAC03120D8DC5AC03120D8D13AD03A7
:1021B300120D8D1DAD03120D8D28AD03120D8D4C27
:1021C300AD03120D8D70AD03120D8DCCAD03120D49
:1021D3008D12AE03120D8D2FAE03120D8DACAE0317
:1021E300120D8DE3AE03120D8D22AF03120D8D6F11
:1021F300AF03120D8DF1AF03120D8D8AB003120DD3
:102203008D5AB203120D8DB8B203120D8DD4B303E0
:10221300120D8DFAB303120D8D39B503120D8D5FB7
:10222300B803120D8DA0BA03120D8D7CBC03120DE1
:102233008D12BD03120D8D39BF03120D8DE5BF0342
:10224300120D8D1AC003120D8D7FC003120D8D89DF
:10225300C003120D8DB3C203120D8DDAC303120D29
:102263008D1AC403120D8DC0C403120D8D51C60304
:10227300120D8DDAC703120D8DFAC703120D8D539C
:10228300C803120D8D55C903120D8D9FC903120D7D
:102293008DEFC903120D8DD9CA03120D8D4ECB03D9
:1022A300120D8D68CC03120D8DE3CC03120D8DE856
:1022B300CD03120D8D93D003120D8DB2D003120DE9
:1022C3008D13D203120D8DD5D303120D8D29D40393
:1022D300120D8DE1D403120D8D90D503120D8DE6F1
:1022E300D503120D8D9CD603120D8D31D703120D1C
:1022F3008D9DD703120D8DD7D703120D8D08D803EB
:10230300120D8D64D903120D8D008002120D8D32D2
:102313008002120D8D698002120D8D528202120D00
:102323008D358302120D8D8D8302120D8DC88402AB
:10233300120D8D148502120D8D3C8802120D8D9E97
:102343008B02120D8DEB8C02120D8D818D02120DFD
:102353008D8D8D02120D8DBF8D02120D8D418F0259
:10236300120D8D4F9002120D8D799002120D8DD0AA
:102373009002120D8D299102120D8D959102120D6D
:102383008DAC9302120D8D3B9502120D8D059602B5
:10239300120D8D439702120D8D739902120D8D4309
:1023A3009C02120D8D509C02120D8DD79C02120DB2
:1023B3008D7F9D02120D8DC29D02120D8D0B9E020B
:1023C300120D8D5F9E02120D8DC49E02120D8D2C77
:1023D3009F02120D8D499F02120D8D799F02120DDE
:1023E3008DAE9F02120D8D7EA002120D8D27A102CC
:1023F300120D8DABA302120D8DCBA402120D8DB461
:10240300A502120D8D36A602120D8D58AA02120DC9
:102413008D95AA02120D8DEDAA02120D8D20AB022D
:10242300120D8DA1AB02120D8DEEAB02120D8D7943
:10243300AC02120D8DCBAC02120D8DA2AD02120DAA
:102443008D5BAE02120D8DF6AE02120D8D0FB20230
:10245300120D8D2FB302120D8DE0B602120D8DFEFB
:10246300B702120D8D01B802120D8D30B802120D94
:102473008D36BA02120D8D0FBB02120D8D44BB02B5
:10248300120D8D4CBC02120D8D02BD02120D8DA3D7
:10249300BE02120D8DC8BE02120D8D07BF02120DB2
:1024A3008D79BF02120D8D5DC002120D8D2AC102FE
:1024B300120D8D60C302120D8DD1C302120D8D1149
:1024C300C402120D8D4AC402120D8DDEC402120D18
:1024D3008D27C602120D8DEAC902120D8DD9CA02CB
:1024E300120D8DC0CB02120D8D38CC02120D8DFA58
:1024F300CC02120D8DF8CE02120D8D10CF02120DEB
:102503008D24CF02120D8D5CCF02120D8D8ACF0266
:10251300120D8D11D102120D8D1CD202120D8D6E72
:10252300D202120D8DD6D202120D8D88D302120D56
:102533008DB8D302120D8D9CD402120D8D4DD50290
:10254300120D8D3CD702120D8D71D702120D8DD94C
:10255300D702120D8D08D902120D8DBAD902120DB0
:102563008DEBD902120D8D03DA02120D8D92DA0270
:10257300120D8D46DD02120D8D1EDF02120D8D3AF6
:10258300DF02120D8D56DF02120D8D24E002120DB3
:102593008D08E402120D8D858301120D8DBD83011B
:1025A300120D8D9B8801120D8DE18801120D8D2E68
:1025B3008A01120D8D998A01120D8D228C01120D43
:1025C3008D328F01120D8D4D9001120D8D5F9A0189
:1025D300120D8DF29A01120D8D449E01120D8D4044
:1025E3009F01120D8D9B9F01120D8DE5A001120D10
:1025F3008DD3A101120D8D6FA401120D8DE3A501E1
:10260300120D8D66A601120D8D69A601120D8DDEC8
:10261300A601120D8DE8A601120D8DF5A601120D6E
:102623008D20A701120D8DD0A701120D8DC9A80110
:10263300120D8D74A901120D8D92A901120D8DAB8E
:10264300A901120D8DD4A901120D8DF6A901120D48
:102653008D4BAC01120D8D10AD01120D8D55AD01D9
:10266300120D8DD4AD01120D8D80AE01120D8DB200
:10267300AE01120D8D06AF01120D8D41AF01120D8A
:102683008D88AF01120D8DD8AF01120D8DDDAF0115
:10269300120D8D31B001120D8D5DB001120D8D46FD
:1026A300B101120D8D97B101120D8DF7B101120D0C
:1026B3008D51B201120D8DECB201120D8D2BB601AD
:1026C300120D8D3DB701120D8DB7B801120D8DC7D7
:1026D300BB01120D8D65BC01120D8D5BBF01120D87
:1026E3008D1AC001120D8D5EC001120D8D09C2013C
:1026F300120D8D1DC201120D8D27C201120D8D31D8
:10270300C201120D8D3DC201120D8D62C201120D67
:102713008D3BC401120D8D90C401120D8D9AC4011D
:10272300120D8DA4C401120D8D19C501120D8D68F2
:10273300C501120D8D79C601120D8DC6C601120D8C
:102743008DD3C701120D8D17C801120D8DBDC801A0
:10275300120D8DB0C901120D8D76CA01120D8D991E
:10276300CB01120D8DB7CC01120D8D9FCD01120D32
:102773008DB7CD01120D8D0ECE01120D8D18CE0128
:10278300120D8D22CE01120D8D2DCE01120D8D4B0A
:10279300CE01120D8D93CE01120D8DF5CE01120DCA
:1027A3008D1CCF01120D8D2ECF01120D8DC9CF01BE
:1027B300120D8DFECF01120D8DE5D001120D8D2A64
:1027C300D101120D8D10D201120D8D37D201120DD0
:1027D3008DBAD201120D8D2BD301120D8DB4D401FC
:1027E300120D8DE0D501120D8DA3D601120D8D6B47
:1027F300D701120D8DF5D701120D8D1DD901120DC3
:102803008DBFD901120D8D3ADA01120D8DF6DA0161
:10281300120D8D40DB01120D8D9ADB01120D8D72AD
:10282300DC01120D8D95DC01120D8D48DD01120DB9
:102833008D6ADD01120D8DD3DD01120D8DE9DF01EE
:10284300120D8DE1E001120D8DA5E101120D8DD761
:10285300E301120D8D21E401120D8D71E401120DBE
:102863008DD5E401120D8D37E501120D8D65E5015E
:10287300120D8D89E501120D8DBEE501120D8DEF4F
:10288300E501120D8D22E601120D8D72E601120D86
:102893008DC5E601120D8DEAE701120D8D8AE9015E
:1028A300120D8DE5E901120D8D0EEA01120D8D9BBE
:1028B300EA01120D8D09EB01120D8D17EB01120DBB
:1028C3008D3BEB01120D8D90EB01120D8DABEB01E6
:1028D300120D8D5DEC01120D8D95EC01120D8DD84D
:1028E300EC01120D8D3BED01120D8D3DEF01120D2B
:1028F3008D67EF01120D8D5EF001120D8D68F101F0
:10290300120D8D18F201120D8DF6F201120D8D2E9E
:10291300F301120D8D4FF301120D8D91F301120D81
:102923008DF3F301120D8DFDF301120D8D0DF401E5
:10293300120D8D48F401120D8D28F801120D8D151D
:10294300FA01120D8DFBFB01120D8D92FC01120D8C
:102953008D34FD01120D8DC23500120D8D6D3600C3
:10296300120D8D1B3700120D8D213800120D8D4174
:102973003800120D8D6A3900120D8D253B00120DA2
:102983008D983B00120D8D3C3C00120D8D483D008F
:10299300120D8DB33D00120D8DEF3D00120D8D32E2
:1029A3003E00120D8D6D3E00120D8DAF3E00120DD7
:1029B3008D443F00120D8DC03F00120D8D8A4000E3
:1029C300120D8D674100120D8DFF4100120D8D19FF
:1029D3004200120D8D494200120D8D7A4200120DF4
:1029E3008D404300120D8D504300120D8D9F430007
:1029F300120D8DAC4300120D8DB54300120D8D33B6
:102A03004400120D8D8F4400120D8DDA4400120D17
:102A13008DF54400120D8D204500120D8D3D4500AE
:102A2300120D8D494500120D8DE04600120D8DF9F2
:102A33004600120D8D7E4700120D8D914700120D39
:102A43008DB04700120D8D544800120D8DD54900ED
:102A5300120D8D884B00120D8D1E4C00120D8D2111
:102A63004C00120D8D914C00120D8DAF4C00120DC8
:102A73008D464D00120D8D8E4D00120D8D914D0022
:102A8300120D8D574E00120D8DC44E00120D8DEA9E
:102A93004E00120D8D754F00120D8D934F00120DC8
:102AA3008DD94F00120D8D8D5000120D8DD7500012
:102AB300120D8D065100120D8D635100120D8D986C
:102AC3005100120D8DC45100120D8DD25100120D03
:102AD3008D1F5200120D8D8F5200120D8DD8520092
:102AE300120D8D245300120D8D505300120D8D5B6A
:102AF3005300120D8D795300120D8D645400120D85
:102B03008D6E5400120D8DA95400120D8DB9540011
:102B1300120D8D0D5500120D8D215500120D8D5086
:102B23005600120D8D655600120D8DF35600120DD1
:102B33008D385700120D8DC45700120D8DCF5700DD
:102B4300120D8D115900120D8D2C5900120D8D7817
:102B53005900120D8DE75900120D8D205A00120DE8
:102B63008D3A5A00120D8D9A5A00120D8D395B0061
:102B7300120D8D845B00120D8D545E00120D8D06B7
:102B83005F00120D8D735F00120D8DB36100120D86
:102B93008DCB6100120D8DCE6100120D8DDA6100B7
:102BA300120D8DEE6100120D8DF66100120D8D294F
:102BB3006200120D8D2C6300120D8DB96300120D8E
:102BC3008D296400120D8DAB6400120D8D6C6500B0
:102BD300120D8D8B6500120D8D2C6600120D8D89E3
:102BE3006600120D8D8C6600120D8D006700120DAC
:102BF3008D4F6800120D8D556900120D8DE069002F
:102C0300120D8DFB6A00120D8DC36B00120D8DF436
:102C13006B00120D8D176C00120D8D206C00120DC0
:102C23008D4F6C00120D8DDF6C00120D8D956D00B4
:102C3300120D8D0A6E00120D8DB16E00120D8D26D0
:102C43006F00120D8D5D6F00120D8D9B6F00120DC5
:102C53008D33FD02120D8DE8FC02120D8D7CFC02FA
:102C6300120D8D19FC02120D8DEFFB02120D8DDB7F
:102C7300FB02120D8DD1FB02120D8D64FB02120DAE
:102C83008D95F902120D8D53F902120D8DD6E005C3
:102C9300120D8DA2E005120D8D69F802120D8D3D06
:102CA300F802120D8D4BE005120D8DEDDE05120DB0
:102CB3008DF4F702120D8D31F702120D8D00F4021F
:102CC300120D8DA2F102120D8D72F102120D8D22E1
:102CD300F102120D8DBCF002120D8D7BF002120D6C
:102CE3008D5BF002120D8D8DEF02120D8D27EF0219
:102CF300120D8DC6EE02120D8D66EE02120D8D04BD
:102D0300ED02120D8D98EC02120D8DECEB02120DFB
:102D13008DE7EB02120D8DD0EB02120D8D3FDE0518
:102D2300120D8D9BEB02120D8DA2DD05120D8D98F8
:102D3300DD05120D8D2DDD05120D8D12DD05120D34
:102D43008D62DC05120D8D68DB05120D8D35E802F1
:102D5300120D8D32E802120D8D19E802120D8D0E3F
:102D6300E802120D8D8EDA05120D8DDDE702120DCC
:102D73008D04E602120D8D8BE502120D8D22E50204
:102D8300120D8DE4D705120D8D95E402120D8D9071
:102D9300FE05120D8D51E402120D8D2AE402120D6F
:102DA3008D33D605120D8DDED505120D8DB1D505EA
:102DB300120D8D7ED505120D8D56D505120D8DF78D
:102DC300D405120D8DD7D405120D8DA2D405120D85
:102DD3008D66D105120D8D3BCF05120D8D2BCD05C3
:102DE300120D8DA8CC05120D8DF6D605120D8D5C36
:102DF300CC05120D8D10CC05120D8D6ACB05120D6D
:102E03008D21EA0300000080FB87000100761E3558
:102E13000004003C1E25000200401E260002004262
:102E23001E27000200441E280001004E1E29000137
:102E3300004F1E840004002B1B86000100A91D2ADD
:102E4300000100501E2B000100511E2C00010056F2
:102E53001E2D000800391B2E000100571E2F0001F4
:102E630000581E30000100591E310001005A1E3265
:102E7300000100411B33000100421B340001005BD1
:102E83001E36000100431B380001005C1E3900019F
:102E930000551E83000200741E630001004E1B6474
:102EA300000100521E65000100531E6D0001004F1A
:102EB3001B71000800311B66000100731E430001F3
:102EC30000641E44000200651E45000100671E46A3
:102ED300000200681E47000800461B480001006A04
:102EE3001E4B0001006B1E04000100771EA10001B0
:102EF300007A1E37000100791E88000100781E3C0D
:102F0300000100441B3D0001005D1E490002006CEE
:102F13001E67000100501B4D0002006E1E4E000193
:102F230000701E4F000200711E3E000100631E511F
:102F33000001005F1E52000100601E530001006289
:102F43001E54000100451B00000000000000013674
:102F53003601010001020100010301000104010621
:102F63000605020000070100340801000F090401EF
:102F7300010D0100FF0E08000017020000190100F7
:102F8300FF1A0100011B0100FE1C0100081D0200C5
:102F9300001F0100012001000121020000230100A4
:102FA3000F24020000260100012701000828020067
:102FB300FF2A0100072B0102402C0100002D010014
:102FC300012E0100012F0100FF30010B1D3108000C
:102FD300003A0100083B01000F3C0100013D0100E4
:102FE300FF3E04000042040000460400004A0400BF
:102FF300004E04000052040000560400005A04006E
:1030030000000003002001838300000000200184EE
:10301300830000010020018483000002002001845A
:10302300830000004042016A82000004004201A4C0
:103033008200000500420156820000060042016A38
:103043008200000700300182830000100042030861
:103053001E000011003003E71900001200100319CD
:103063001E030000002103E8190000FDFF21017D7C
:10307300830300FDFF21017D83060000001001D7BB
:10308300190600FDFF21817D83020400002905D874
:10309300190204010029017983020402002901773E
:1030A300830204FDFF21017D8301037103010301F9
:1030B30003010301030103220302030103100300BD
:1030C30003000300030003000300030003420300A3
:1030D300032403060300030003040312032503234D
:1030E3000325032303040304030003000300034431
:1030F3000300030003230300036503210035038159
:103103000300030503000300030003000325032357
:103113000303027102300160021102700201020214
:103123000202028002100261023A0041006302734C
:10313300027202620243020002130238000002001C
:10314300020402120200020002000200020402044E
:1031530002370037003C024402000239000002003B
:103163000265020002350281020002050282028327
:10317300020002010171010101010111010101318B
:1031830001010101018001100161013B0014006391
:103193000173017201620143010001130106013D44
:1031A30001350004011201000100010001000104C6
:1031B300010401330133013C0144013201360000B3
:1031C3000100016501000135008101000105018253
:1031D30001830100010304710402046004110470FB
:1031E3000402040204010402041004610400041430
:1031F30004630473047204620443040004130406A6
:103203000400040004040412040004000400040085
:103213000451046400000400040004440400040096
:1032230004000400046504000435048104640005FB
:1032330004000483040004030071003001600011E2
:103243000070003102200350048000100061000070
:103253000014006300730072006200430000001357
:10326300000600000000000400120000000000003F
:1032730000000004000400370037003C0244000053
:103283000000000000000065000000350081000020
:103293000005000000830000003600010006000066
:1032A300000F000000000000000000000000000309
:1032B300FFFF00000403FFFF0000FFFF0FF4010006
:1032C30005C4040320000100000B000000000000FF
:1032D300000003010F0000000000000000000000D8
:1032E30000000000000000000000000000000000DB
:1032F30000000000000000371961193D19771843D9
:103303001967194319731949197718431967194F1D
:103313001977180000000055197718000000000005
:103323000000005B19771800000000000000000097
:10333300000000000000000000000000000000008A
:10334300000000000000000000000000000000007A
:103353000000001300D91C1F00DF1C1F80E51C00A8
:10336300005D1D01005D1D02005B1C0280551C03F6
:1033730000611C0400671C04806D1C0500731C069F
:10338300007F1C30009D1C3100971C3200A91C33A8
:1033930000AF1C3500B51C3400BB1C3600C11C112A
:1033A30000CD1C1400D31C1500911CFFFF00000A64
:1033B30000000002000000040000000800000010EC
:1033C300000000200000004000000080000000001A
:1033D30001000000020000000400000008000000DB
:1033E300100000002000000040000001D325060368
:1033F3002608FD250B212610BB2202D92505F12520
:1034030007DF250CBB250DC725649F20FF000003A4
:103413000003000400080010001F003E007B00F6BC
:1034230000EC01D703AF075D0FB91E713D00000724
:10343300ECFDFDFDECDCDCCCBCACAC9C9C8C7C7C66
:103443006C6C5C5C5C4C4C3C3C2C2C1C1C03EAF50B
:10345300E5D5D5C5B5A59595858575756565555529
:1034630045453535252515150500160F00000B15A7
:103473000B020002220F3300000E0F5A69674265E8
:1034830065416C6C69616E63653039000000000052
:103493000000000000000000000000D0D1D2D3D40F
:1034A300D5D6D7D8D9DADBDCDDDEDF00034D4C46D9
:1034B30051181A250502303016181920231A1C1E1C
:1034C30030003C40423A3F3F392F47300001191644
:1034D30018161618230300303017181921301B1D36
:1034E3001F300C0E020B040B0A0708000F02040224
:1034F30001010101090200BE040AE8030000E80318
:103503000000010003007F0000000E000004040817
:103513000405030A0C101508091E0C28FF031002EA
:1035230009033C0C050815001EE4F0A3F0A3F0A367
:103533002212352CF022901C9B124B381229C322E5
:1035430012354722E0F508E4F509F50AF50B22E800
:1035530024FBF582E934FFF58322E82411F582E4A4
:1035630039F583E022F58312356E22E0F508A3E0F6
:10357300F50922122C3F7404120DD87F08020B0D9B
:103583007401F09006C0E0640F227409120DD87F15
:1035930004020B0DEA2413FAE43FFB122B6DE9221C
:1035A3007905122B79740622A3A3E024F5C394139F
:1035B30022122C4B9006E0126AF67A147B0022C08A
:1035C30082C083901C7A74B7F0A37429F0A374C9E2
:1035D300F0A37429F0901C7E749FF0A37429F0A3C8
:1035E3007499F0A37429F0A374D5F0A37429F0A3FC
:1035F30074DBF0A37429F0A374CFF0A37429F0A3B0
:103603007487F0A37429F0901C8A74ABF0A3742917
:10361300F0A374B1F0A37429F0A374A5F0A37429E3
:10362300F0A374E1F0A37429F0901C9B125507607A
:1036330009901C9B124B34121769901C98124E4E22
:1036430074081261A3A3F0901D44F0901C9DF07CBC
:103653000BFDF97A9E7B1C1216977C0B7D0079007B
:103663007AA97B1C121697024CA874F712084574AA
:10367300F7120E70EAFEEBFF1237007405124F6C5F
:103683007403F0123817124F4E2430FCE43FFD8CC4
:10369300821236F812370C6008123F2574FFF0A32C
:1036A300F0EE242EE43F1C1CFD8C82F583A3E0C0C6
:1036B300E08A828B83124C00D0E012370C88828917
:1036C3008312543B2403F0EE123F2F1210DE7403D7
:1036D300F09006D5120C127402120E68123AF91207
:1036E3000DD8E9F5087007EEFAEFFB122A53A90883
:1036F3007409023F3EF583E08882898322EA123708
:10370300052212564A3FF58322126423124F5AE8C8
:10371300F0A3E91266FAE02274F0120845EAFEEB20
:10372300FF8C0C8D0D890B123817F583124F6274C1
:10373300101210DEE0F508A31236FAF0E824FFF5C4
:1037430082E9123B0BE508F0E824FEF582E9123B1F
:103753000BE50BF09006DAE0C0E0E824FDF582E922
:10376300123B0BD0E0F09006D9E0C0E0E824FCF572
:1037730082E9123B0BD0E0F074121210DE12356AAC
:10378300123552E509F0E824FAF8E934FFF98882A2
:10379300F583E508F0EE2404FCE43FFD88088A8203
:1037A3008B83E0F50E8C828D83E0250EC395081282
:1037B3006423124D88850C82850D83A3A3A3A3A341
:1037C300A3A3A3E064037009EE124F3CF0A3E480CB
:1037D30003123B10123B187409F075089E75091CFF
:1037E300750A007808120DA6125EED120DD8750841
:1037F300FF7509FF7808120DAAAC0CAD0D123AF94A
:10380300120DD8E9F5087007EEFAEFFB122A53A957
:103813000802357EEA2402FAE43FFB8A8222C08250
:10382300C083901CBAE0C39408400474078001E08D
:103833008A828B83F033333354F8F9024CA874F043
:103843001208458A088B09890A8C0E8D0F750C00A6
:10385300A2AFE433F50BC2AF901CB48045123943D9
:10386300503D12395D64037036E50824F9F508E527
:103873000934FFF5098E828F83A3A3E02405FCA3FB
:10388300E03400FDAA08AB09121853E50824FFF53C
:1038930008E50934FFF5097410250CF50C150A1217
:1038A3003D32126EABE50A6004EE4F70B0E50BA239
:1038B300E092AFA2AFE433F50BC2AF901CB4803EED
:1038C3001254148882F583124688850882850983F9
:1038D300F08A828983123954A3A3E0C0E0E5082467
:1038E300FFF582E509123B0BD0E0F0E50824FEF575
:1038F30008E50934FFF509050C150A123D32123BA0
:1039030086602112395D640270F1123943EE40B0D2
:10391300125083A2E550E4850E82850F837401F073
:10392300E50A70D7E50BA2E092AF8508828509838B
:10393300E50CF0E50824FFFAE50934FFFB02357EC8
:10394300123949A2E622EE2411F582E43FF583E021
:103953002212395822125459A3228E828F83A3A391
:10396300124C04125B302274F012084574F3120EE9
:103973007074031210DEE9F074021210DEEAF08BA9
:103983000B851882851983E4F004120E60122969ED
:10399300E9F89006BFE0292437F508FA7B001216F0
:1039A300AF8A0C8B0DAE0CAF0DEA4F7003023AF0E9
:1039B300EA2402F50EE43FF50FA808EA28F8E43BF1
:1039C300F9850E82850F831244849006BFE0F9FACD
:1039D300C3E49AFA95E0FB850E82850F83E02AF50E
:1039E3000CA3E03BF50D9006BD12356A750A00780D
:1039F30008120DA6E9FC7D00AA0CAB0D124EBE12F7
:103A03000DD8AC18AD1974011210DEE0F9E50C24E1
:103A1300FFFAE50D34FFFB12296F8A828B83E4F0F2
:103A2300E50BC454F0F9901D45E0C4333354C0F89A
:103A33009006B9E0A2E0E43313134849440FC0E011
:103A4300EA24FFF582EB123B0BD0E0F0EA24FEF50B
:103A53000CEB34FFF50D74031210DEE0F874021260
:103A630010DEE0C454F048850C82850D83F0A80C69
:103A7300850E82850F831261702AC3988E828F838D
:103A8300A3A3A3A3F0850E82850F83E8F0A3E50D1E
:103A9300F0123B10123B18E4F0740C1210DEE4F049
:103AA3007508A975091C7808120DA6125EED120D92
:103AB300D8851882851983E06009EE240E1250859B
:103AC3004408F0122B5BE9F9E4F508F509780812CC
:103AD3000DAA7406120E68123AFB120DD8E970068D
:103AE300EEFAEFFB800BEEFAEFFB1216B57A007BD2
:103AF30000740D02357B7903EEFAEFFB122B73741E
:103B03000222EE24FFF582EF34FFF58322EE123713
:103B130005E4F0A322F0123B1D22EE125E103FF5E6
:103B2300832274F21208458A0C8B0DA2AFE433F59D
:103B33000AC2AF750800750900901CB4802C123DB1
:103B4300425024850C82850D83A3A3125F008E82CD
:103B53008F83A3A3124B34122B61E9600A123D3DFC
:103B6300C2E6F08E088F09123D32123B8670CFE514
:103B73000845096006123C1FD2E6F0E50AA2E0926E
:103B8300AF800DE0FEA3E0FFEE4F227402120DD8CA
:103B93007F06020B0D74F01208458A0E8B0F8C0CF6
:103BA3008D0D750A00A2AFE433F50BC2AF7E007F23
:103BB30000901CB48010AE08AF09123C171250835A
:103BC300D2E7F0124B12124B266034123C1FA2E7CD
:103BD30050F1850882850983A3A3120C12AC0CADA6
:103BE3000DAA0EAB0F122B677402120DD8E960D326
:103BF300EE4F60C2123FB97006123C31D2E4F0E5D9
:103C03000BA2E092AFEE4F6006122A4D750A01A98E
:103C13000A02357E123949D2E4F0EE22E508125E3B
:103C23002A3509F583E022AA82AB831218538E82C8
:103C33008F83A3A3124C04E02274F212084574FE8E
:103C4300120E70750C00750D00851882851983E4BA
:103C5300F0A3F0A2AF33F50AC2AF901CB4126EAB5F
:103C6300802BEE24FBF582EF34FF123568780C12BB
:103C73000DAA123D20120DD8EEFCEFFDAA18AB19C8
:103C83001216D3AE08AF09901CBAE014F0EE4F60E1
:103C93002B123D42501DEE240BF8E43FF98882F5C8
:103CA30083E024FFF0A3E034FFF088828983125578
:103CB3000760AF8E0C8F0D123D3280A1E50AA2E0A2
:103CC30092AF901CBAE0602C9006C0E0640F6006CF
:103CD300901D44E0701E7A927B1C122C4B908373D0
:103CE300120C0E7A927B1C124D30120DD880057483
:103CF300F0124C11AA18AB191216D98A088B09AE07
:103D030008AF09EA4F601312297B123D3DA2E28EF0
:103D1300828F83A350D974E980D7023B8EEEFCEFE8
:103D2300FD7AB47B1C1216E57402228E0A8F0BEE09
:103D330024FBF582EF34FFF58322EE12394A221277
:103D43003949A2E72274F7120845EAFEEBFF12296C
:103D53007B124BFD120A6EE964019006DC700AE0E7
:103D63002401F8A3E034008003124B83F912528537
:103D7300124D88901CBAE0701F9006C0E0640F706B
:103D8300177A927B1C122C4B908373120C0E7A922F
:103D93007B1C124D30120DD8A8A8C2AF901CBAE0FC
:103DA30004F0E8A2E78004E508A2E092AF02519391
:103DB30074F7120845EAFEEBFFEA123DE9F0122917
:103DC3007BEEFCEFFD7AB47B1C1216DFA8A8C2AF12
:103DD300901CBA1246D79006C0E0640F70057908AC
:103DE300122B1302519312394AC2E42274F71208B8
:103DF3004574EA120E70EAFEEBFF9006B9E0602A02
:103E03008518828519837401F01210DEE4123EA432
:103E13001210DE123C2AC0E0740A1210DED0E01247
:103E23006190740B1210DE1253F07416023F3E744D
:103E3300F7120845EAFEEBFF12295DE9F974DC6924
:103E4300601E74DD69601974E469601474F3696059
:103E53000F74DE69600A74DF69600574DB697007DB
:103E6300EEFAEFFB122B1902519374F71208457403
:103E7300EB120E70EAFEEBFF851882851983740638
:103E8300123EA41210DEAA82AB83121853EE24084A
:103E9300FCE43FFD740A1210DE1253F07415023F66
:103EA3003EF0EA2413FCE43FFD74022274F7120887
:103EB3004574F7120E70EAFEEBFFEA2430125085C8
:103EC300605DEA123F2F1210DE7403F09006D512E4
:103ED3000C12123F25120C129006E8E0F97404123A
:103EE3000E68EEFAEFFB1229637404120DD8E9F998
:103EF30074DC69602374DD69601E74E4696019749D
:103F0300F369601474DE69600F74DF69600A74E832
:103F130069600574DB697007EEFAEFFB122B190277
:103F230036F3EE242EF582E43FF58322126301AAD1
:103F330018AB191218537408227403120DD80251C6
:103F43009374F21208458A0C8B0D750A00750B00E9
:103F53007508E7A2AFE433F509C2AF901CB4800340
:103F6300123D2E123B866025123D4250F3123FB99B
:103F730070EEEE2432124150E06870E4780A120DBC
:103F8300AA123D20120DD8901CBAE014F0E509A244
:103F9300E092AFEE4F6013EEFAEFFB12297B79F05C
:103FA300EEFAEFFB122B19750800A908AA0CAB0D4A
:103FB300122B19023B93123B1DE064012274F4128D
:103FC300084574F7120E70EAFEEBFF8A82F583A3AD
:103FD300E064F3700302405E8A828B83A3E064DFB4
:103FE30060798A828B83A3E064E8606F8A828B8323
:103FF300A3E064DB60651229BDE9F5087055EE2482
:104003000E125085604D124068604874081210DE2D
:10401300124077120C127508FF7509FF7808120D0C
:10402300AA8E828F83A3A3A3A3A3A3A3A3E0F9745C
:1040330004120E681229637404120DD8E9F508748A
:10404300F369600F74DF69600A74E869600574DB03
:1040530069700F8E828F83A3E508F0EEFAEFFB12EF
:1040630029C902358DEE240FFAE43FFB79091229A1
:10407300FFEA4B2274021258F674FFF0A312408435
:1040830022125444A3A32274F1120845EAFEEBFF63
:104093007508008A82F583A3A3A3A3A3A31235AB58
:1040A30040037508E88A828B83A3A3A3A3A3A3A3D6
:1040B300A3A3A3E0C3941040057508E880138A8284
:1040C3008B83A3A3A3A3A3A3A3A3A3A3E0640F60CE
:1040D3000B901D21E0540870037508E8EA240B12C5
:1040E3004150A3A3A3A3A3A3A3A3E0C398500DEAA2
:1040F300240B125085640F60037508E89006D9E01D
:10410300F47003A3E0F470037508EC7A237B0012C8
:1041130017638B0BA90B901C9B12415F60278E8248
:104123008F83A3A3A982AA83890C8A0D750E0078B5
:104133000C120DA67C237D00901C9BE0FA124EBE50
:10414300120DD8800375081AA908025EE8F582E407
:104153003FF583E0F88A828B83A3A322EAF0A3EBE3
:10416300F0EA492274F5120845EAFEEBFF8A82F56C
:1041730083A3A3A3A3A3A3A3A3E09006C01241F721
:10418300E09006DBF0EA240B1250859006BB124147
:10419300F7A3E0901D45F0F912141B901D45E06054
:1041A3000BEE240412507724061241ED901D4412A5
:1041B30035836004740180027400901C9D12683B77
:1041C300120DA67C0B7D007A9E7B1C124EBE120D37
:1041D300D8EE2418F508E43FF5097808120DA67CFB
:1041E3000B7D007AA97B1C024EABFAE43FFB79E11D
:1041F30012140322126825A3A3A3A32274F712089F
:1042030045EAFEEBFF8A82F583A3E070031235399A
:104213001263AC02519374F7120845EAFEEBFF9068
:104223001C9B1255076010901C9B124B34901C9BD7
:10423300E4F0A3F01217698E828F837408124C186E
:10424300121F8502519374F6120845901D44E060D5
:1042530010901C9DE0700A124267EA4B6003122A19
:10426300530264A69006BBE0FB9006DBE0FA9006DF
:10427300C0E0F91229752274F412084574E7120E8E
:1042830070EAFEEBFF750B018A82F583A3A3A3A358
:10429300A3A3A3E0A2E25069EA242BF582E43F1230
:1042A3005EFEEA2413FAE43FFB122981E97052907F
:1042B30082B0E064017005750B008045124339122A
:1042C3000DA67C0B7D007411120E60124EBE120DF2
:1042D300D8122B5BE9FA740E120E588808890978F4
:1042E30008120DAA7508307509007808120DAAEE98
:1042F300126159120C121262F379011235A5120DD3
:10430300D88518828519837410F01262F37402122F
:1043130010DEAA82AB83121847EE242B126AEC74C8
:104323000B1210DE124D88740D1210DEE50B1265B0
:1043330065741902358FEE240812684322C082C0C7
:1043430083901D45E06003122BCD024CA8C082C0B0
:1043530083901D3C747AF0A3741CF0A3747EF0A3C5
:10436300741CF0A3748AF0A3741CF0901EB174D86B
:10437300F0A37431F0901D267457F0A37429F090C4
:104383001CBF748DF0A37429F0901CC17493F0A327
:104393007429F0901D21E044020247ACC082C0831F
:1043A300EAFCEBFD79030254B3C082C083790802AF
:1043B3006626C082C08374FE120E70901CC7743BC5
:1043C300F0A3742AF0901CC97435F0A3742AF0800A
:1043D300077AB47B1C124411901CB412550770F178
:1043E300901CB612550760097AB67B1C12441180E3
:1043F300EF901CB4E4F0A3F0901CBAF0A3F0A3F088
:10440300901CD57477F0A3742AF07402801C1216E2
:10441300D9851882851983EAF0A3EB124425122B60
:104423004922F0AA18AB19227411120DD8024CA814
:1044330074F6120845E9FF74C429F582E43434F5AF
:1044430083E493FEFA7B001216AFEA4B6007EA2E71
:1044530012448180267A027B001216AFEA4B601762
:1044630074DA2FF582E43434F583E4938A828B8300
:10447300F0A3741A12484A7A007B000264A6124D14
:1044830077E8126420A3A3A3A3E4F022E9FC740653
:1044930029F8EAA2E0501EE875F00A84E5F0F96015
:1044A30014740A28C399F8E9C394054004740A28CC
:1044B300F8740B28F8ECC394134004791480027940
:1044C30006E82979002409F85001097A0A7B0012C9
:1044D3000666E8F9020D8AC082C083901D21E0546C
:1044E30002600A121F8BE9600479018002790002DD
:1044F3004CA8C082C083901D21E054026014901C1C
:10450300BAE0700A125504600912451A5004790181
:1045130080027900024CA812355DA2E722C082C056
:10452300839082ADE0F8901CBCE0C398500512164E
:10453300AF80047A007B00024CA8C082C083122B98
:10454300497900024CA8C082C08374FE120E7085A4
:104553001882851983EAF0A3EB1246B3A3A3A3A39E
:10456300A3E0600A14605724FE605A0246239006B3
:10457300C0E0640F6012122B1FE9700C124B2E90D7
:104583001CC3124C00120A6E9006E8E0C0E08518C6
:1045930082851983125427D0E01246B37414125E35
:1045A30044FCA3E0FD7AB67B1C1216D3A8A8C2AFC5
:1045B300901CBC1246D77920122B1302440D1249CA
:1045C30081741580D9124981A3A3A3A3E06051127A
:1045D3004981123C35C0E0851882851983E02406A1
:1045E300F582E43BF583D0E0125E442402F8A3E0B5
:1045F3003400F98882F583E02401FAA3E03400FB58
:1046030088828983EAF0A3EB125E441249C18518BC
:10461300828519836013124688600512469A4048C2
:10462300AA18AB19122B49809212468860F21246DF
:104633009A50211246A7FA851882851983A3E0C8E8
:10464300240612497DF874EF12563C3434F583E4A2
:10465300936A6014851882851983124688640870EA
:10466300BF1246A7640870B81246A7141246BB24AB
:104673000AC0E0851882851983124C00D0E01246E7
:10468300BB040245A112468C22124B83C82406F5B3
:1046930082E438F583E02285188285198312468CDB
:1046A300C3940A22851882851983123958A3E022FC
:1046B3001246C5F5838882221246C5C824061249CC
:1046C300AB22F0851882851983124B8322A8A8C2D6
:1046D300AF901CBBE004F0E8A2E792AF22C082C017
:1046E30083901CCB1255076008124988120A6E800A
:1046F300027900024CA874F7120845EAFEEBFFEAC0
:10470300123B1E7401124D36F8A3E0F91237001262
:104713004D88EA2435125085C0E0EA2413F582E47B
:104723003FF583D0E0F0EA2436125085C0E0EA2456
:1047330014F582E43FF583D0E0F0EA243812508583
:10474300C0E0EA2418F582E43FF583D0E0F0EA24E0
:104753002FF582E43FF583120C12126300EA243131
:10476300125085F9123AFF120DD8E9F5087007EED9
:10477300FAEFFB122A53A908025193C082C0831295
:104783002B1FE96004792080027901024CA8C082C2
:10479300C083EA24111247A2D2E0800DEA240DF56A
:1047A30082E43BF583E022F0A3F0024CA8C082C070
:1047B3008312479F64017011124844400C8A828B14
:1047C30083A3E0F9122B198066124835A2E6501232
:1047D3008A828B83A3E0F9901CC5124C00120A6EE7
:1047E300804D12479F6401700D12484450088A821D
:1047F3008B83743080368A828B83A3E0641B8A8226
:104803008B83700474228024A3E0700D12479FF8F9
:1048130074B912563C3434800B12479FF874DA1281
:10482300563C3434F583E4938A828B8312484A02DC
:104833004CA812483922EA2410F582E43BF583E0C0
:1048430022124839A2E322F0901D1CE0F91216BB94
:104853002274F7120845E9FE125504700302497ADF
:10486300EE6014741B6E701AE8125E1039F583E063
:1048730064057003024952901CBE124988A3E402E6
:10488300495974E96E7068E82412F582E439F583B6
:10489300E0700B121F91E960051249CB606179EE5C
:1048A300121385901CBD1249A2901CBD603A124997
:1048B300CE901CBD700B1249A214F012153B024995
:1048C3007A1249C0C2E7124B69240D12497D640371
:1048D300700912499B124B1FD2E2F079ED12138536
:1048E3001249B3120A6E807812498E74E980677494
:1048F300E16E703E121F91E960551249CB705090E2
:1049030006E2E0C0E012499B2412F582E438F58305
:10491300D0E0F09006D1E0C0E0901CBD12499712A0
:104923004997D0E0F09006D1E004F0790112152305
:104933008045741C6E7018901CBD124B34901CCDB6
:10494300124C00120A6E901CBDE4F0A3F080289074
:104953001CBD12498EEEF0901CBD124B34122A413D
:10496300124B4AE054806003126615901CBDE4F0BC
:10497300A3F07910122B130251931249AB2285181D
:1049830082851983A3E0F583888222124992221239
:104993004C08A32212545522901CBD1254362212E5
:1049A300543624121249AB22F582E438F583E0220F
:1049B300901CBD124B38901CC1124C0422E0F8A38A
:1049C300E0C824101249AB22901CBD124B51E05495
:1049D300042274F4120845750A00750B00A2AFE4B3
:1049E30033FEC2AF1255046003024AC8124BFD12D4
:1049F3000A6EE94410F8901CB4800985080A8509F9
:104A03000B124B12124B267003024AC8123C1F585A
:104A13006870E8780A120DAAAC08AD09123D241299
:104A23000DD8901CBDE508F0A3E509124B69124BA4
:104A33001FA2E75003024ACF901CBBE014F0EEA282
:104A4300E092AF901CBDE0240EF8A3E03400F9E837
:104A5300FEE9FF8882F583124B34901CBD1246ADEC
:104A6300F9122A05E9901CB81261A38E828F83E0A4
:104A73005480601812499B241312497DF912143F84
:104A830012499B241412497DF9121433124B4AA381
:104A9300E05401605F901CB81255076045124B60EB
:104AA3006040124B60F87900901CB8124B34120628
:104AB3006EE8C0E0124B3ED0E0124B6EC39413403D
:104AC300117402800FEEA2E092AF8037901CBA02FD
:104AD3004A3E7400C0E0901CBEE0C8124B09D0E00F
:104AE300800D124B3E7401124B69124B097401F095
:104AF3007903800C901CBD1249C0A2E1B3E433F9E1
:104B0300121523023592241AF582E438F58322E53F
:104B13000824FBF582E50934FFF58322125E2A128D
:104B230049AE2212356EE50845092285188285199A
:104B330083124B3822E0FAA3E0FB221254332419E8
:104B4300F582E438F58322901CBD124B5122124B9F
:104B530083C8124B592212564A38F5832212543312
:104B630024181249AB22124B7BC822124B7BF583CC
:104B73008882A3A3A3A3E022F0901CBD124B83223F
:104B8300E0F8A3E02274F7120845EAFEEBFF122BCC
:104B930043125082A2E3400A123FB970059082ABE0
:104BA30080039082ACE0F9EEFCEFFD7AB47B1C123B
:104BB30016EBE96038EEFAEFFB901CC7124C0012BB
:104BC3000A6EEE240E125085540470121246D0EE73
:104BD300123701A3E05401701E122A4D8019EEFA18
:104BE300EFFB901CBF124C00120A6E800A8E828F5C
:104BF30083A374F1124C11025193901CC9124C04FB
:104C030022124C0822E0F8A3E0F583888222124C9A
:104C130018122A4122F0EEFAEFFB22024CA174F79C
:104C2300120845EAFEEBFF7900901D21E054027063
:104C33000CEA24331250855404600279E8901D2154
:104C4300E05460700CEA24331250855402600279F8
:104C5300E88A828B83A3A3A3A3E0F89082B1E0C385
:104C630098500279E8EA2431125085700CEA242E18
:104C7300125085700479F5800BE97005122A2FE92B
:104C8300F9E96007EEFAEFFB122B19025193C08288
:104C9300C0838A828B83740DF0121F858007C082C4
:104CA300C083122A4DD083D082020D8A74F4120875
:104CB30045EAFEEBFF8A82F583E4F0A3124D3654F6
:104CC300049082AB7012E0F8901CBBE0C3984012D2
:104CD30079F1122B19023592E0F8901CBAE0C398CF
:104CE30050EE124D3CA3E054016037EA24371250D2
:104CF30085C394054033EA24331250855405702943
:104D03007ACF7B1C122C4BEE2437F582E43FF583DC
:104D13001235437808120DA27ACF7B1C124D301244
:104D23000DD8EEFA12572D80AC79E880A5122C3FEE
:104D3300740422F0124D3CE022EA2433F582E43F6E
:104D4300F5832274F6120845E9FE2451FAE434008F
:104D5300FB1216AFEA4B6015EE8A828B83A3A3A3E3
:104D6300A3F0EA2451124D77124D8880047A007B18
:104D7300000264A6F8E43BF98A828B83A3A3221280
:104D83006AF6901D99E8F0A3E9F022024CA1C082D3
:104D9300C083901CD874A1F0A3742AF0A374D1F03B
:104DA300A3742AF0A374A7F0A3742AF0A374ADF03C
:104DB300A3742AF0A374CBF0A3742AF0A374BFF0F6
:104DC300A3742AF0A374B9F0A3742AF0A374D7F0E0
:104DD300A3742AF0A374DDF0A3742AF0A374E3F0A0
:104DE300A3742AF0A374EFF0A3742AF0A374B3F0AE
:104DF300A3742AF0A3749BF0A3742AF0A37495F010
:104E0300A3742AF0901CF474C5F0A3742AF0A3745D
:104E1300E9F0A3742AF0A37403F0A3742CF0A37431
:104E2300F5F0A3742AF0A374FBF0A3742AF0901D89
:104E330018E4F0901D1BF0901D04124E4E7402F006
:104E4300901D0D124E4E74010247AC7413F0A374FF
:104E53002BF0A32274F512084574F1120E70851815
:104E6300828519837402F074011210DEE9F0600484
:104E73007AFF7BFF74021210DE1258EB750810756F
:104E8300091D750A007808120DA67C0B7D007407B6
:104E93001210DEAA82AB83124EBE120DD8AA18AB33
:104EA30019121F85740F8003124EBE120DD87F0393
:104EB300020B0D7C0B7D007A107B1D12168B740385
:104EC3002274F712084574FD120E70851882851935
:104ED30083740AF074011210DEE9F074021210DE1A
:104EE300EA126565023F3C74F612084574F7120E28
:104EF30070EAFEEBFFEA124F3C124F6C7402F0EAC9
:104F03002428FCE43FFDAA18AB19121847EE2431FC
:104F1300124F422433125F64120DAA7402120E68F8
:104F230079831A1A123AFD120DD8E9F5087007EEC3
:104F3300FAEFFB122A5302649F123705740122F51C
:104F430082E43FF58312356E12540CF583124F5AE7
:104F5300E8F0A3E9F0EE22124F628A828B8322E00B
:104F630024FFF8A3E034FFF922F0A3E4F0EA123BB4
:104F73001E2274F01208451269D41210877808793A
:104F83000C1207567808120DA27A077B1D0235769C
:104F930074F412084574C6120E709006C0E0640FD4
:104FA300600D851882851983742E12590A80227A1E
:104FB300FE7B1C1235B412066E88088909E4F50AD3
:104FC300F50B7808120DA27AFE7B1C124D30120DE0
:104FD300D8743A02358F74F5120845EAFEEBFF8A5E
:104FE30082F583A3E0F87078EA24301250856402D6
:104FF3006007E06403600278E8EA2426F582E43F70
:10500300F5831235AD400478E88058E87052EA24FD
:10501300261241EDEE24311250772430125085646C
:1050230002700EEE2428126AEC9006CF124D88808F
:10503300179006CF74FEF0A304F0EE2428FCE43F9F
:10504300FD7AC67B06121853EE241B12433C120D45
:10505300A6124EB6120DD8EEFAEFFB122A8FE9F81C
:10506300E8600EE88E828F83A312630874171263BD
:10507300B2024EB1FAE43FFB7950121403EE22EE72
:105083002410F582E43FF583E02274F61208457498
:10509300F7120E70901D1BE070377401F0F91214B3
:1050A300EDAA18AB19122B5575081075091D780850
:1050B300120DAA7508017509007808120DAA900649
:1050C300D5120C127406120E687A031235A3120D50
:1050D300D80264A174F71208451252B37004A37482
:1050E300EBF0901D1BE0A2E25003C2E2F0E0A2E16C
:1050F30050051252C480098E828F83742A1263B2C0
:1051030002519374F412084574FE120E701251B9D1
:105113001253FFEC85188285198312544EE0F50B68
:105123007015AA18AB197953121403EE2413FAE479
:105133003FFB794A121403124339120DA6124EB6DD
:10514300120DD8124B2EA90B122A83901D1BE0A21D
:10515300E150031252CB901D1BE4F0740202358F11
:1051630074F7120845EAFEEBFF8A82F583A374EB1A
:10517300F0901D1BE0A2E150077A0079EB122A8917
:10518300EEFAEFFB122ABF8007EEFAEFFB122BC1F8
:105193007F01020B0D74F71208451251B9901D18C7
:1051A300E4F0901D1BF07AFF7BFF8E828F83A3E0D8
:1051B300F9122A8380DA1253047A077B1D122C4BCF
:1051C3002274F7120845EAFEEBFF122AB980BA747B
:1051D300F7120845125341A3A3A3E06004740080AF
:1051E3000274EB1252125003C2E2F0E0A2E1500546
:1051F3001253158011A2E0500D8E828F83742AF012
:10520300A374EB1263B2EEFAEFFB122A6580818E70
:10521300828F83A3F0901D1BE0A2E22274F6120892
:1052230045EAFEEBFF901D1BE0D2E1F07901121479
:10523300ED8E828F83A3E07038122B5BE9FAEE24A4
:105243000DF508E43FF5097808120DAA75080175F4
:1052530009007808120DAA125285120C12EE2402CC
:10526300FCE43FFD1235A3120DD8E98E828F83A390
:10527300F08E828F83A3E060067A00F9122A8902F6
:1052830064A6EE240BF582E43FF5832274F712083B
:10529300451252B37004A374EBF0901D1BE0A2E21D
:1052A3005003C2E2F0E0A2E150031252C402519350
:1052B300EAFEEBFF79011214F38E828F83E0642000
:1052C30022C2E1F01252CB227A008E828F83A3E0B6
:1052D300F9122A892274F71208451253048E828F19
:1052E30083A3A3A3A3E060047400800274EB1252AF
:1052F300125003C2E2F0E0A2E1500312531502522E
:1053030009EAFEEBFF79011214F37AFE7B1C122CDF
:105313004B22C2E1126836E0A2E4E433FA1252CD22
:105323002274F712084512534174EB1252175003BB
:10533300C2E2F0E0A2E150031252C4025193EAFE2A
:10534300EBFF79011214F38E828F83A32274F71279
:10535300084512536602518C74F7120845125366BE
:10536300025193EAFEEBFF7AFE7B1C122C4BEEFA02
:10537300EFFB122AE32274F712084574EF120E7042
:10538300EAFEEBFFEA1262F47AC67B06121841E9E1
:1053930060568518828519837409F074011210DE32
:1053A30074EFF01253FF74021210DEEC12544EA38A
:1053B300A3E0C0E074041210DED0E012543B640892
:1053C30070158E828F83A3A3125427E0C0E0740567
:1053D3001210DED0E0800674051210DEE412619034
:1053E30074061210DE1253F07411023F3EAA82AB10
:1053F30083122B8BAA18AB19121F852212540CF59A
:105403008312541EFCA3E0F922EE125414FB88828B
:10541300222402F8E43FF9E8FAE922124B83888256
:10542300F583E0221254362407F582E438F583220B
:10543300901CBD124B83C82212543F22125444E0E5
:1054430022F08E828F83A3A3A3A32212642012547B
:10545300552212545922E0F8A3E0F5838882A3A3CE
:1054630022C082C083122BCD024CA8C082C083907D
:105473001D3874D8F0A3741CF0A374F4F0A3741C47
:10548300F0901EAB7476F0A37431F0A37414F0A300
:105493007431F0901D24747DF0A3742AF0901D21C3
:1054A300E044010247ACC082C083EAFCEBFD790211
:1054B300122B31024CA874F612084574FE120E70BA
:1054C300901D1D12550760077A1D7B1D122B4990F5
:1054D3001D23E4F0900D8412550760208007AA185D
:1054E300AB19122B49901D1CE0F91216C78B09A9A1
:1054F3000985188285198312415F70E27402026480
:10550300A3901CBD126AF6E8492274F7120845E914
:10551300FA7B00901D1CE0F91216F102519374F707
:1055230012084574F0120E70EAFCEBFDE9FE8A8264
:105533008B83E0F874E512563C3434F583E493C06E
:10554300E074011210DED0E0F0640B700DE98A8282
:105553008B83A3F0122BAF025637E070030256374A
:10556300640C6003025628741A6E700B74041210D4
:10557300DEE4F0A302562774041210DE1258EBEA9D
:105583002432125DF4C0E074031210DED0E012681E
:10559300211210BB74061210DE1210C78C828D8389
:1055A300A3A3A3A3A3A3A3A3A3126AF2740A12102F
:1055B300DEE8F0A3E9125641E05410600985188231
:1055C300851983E48013EC2412125DF4F89006E24B
:1055D300E0C398851882851983F0E0C0E0740C124B
:1055E30010DED0E0F0EC2415125DF4C0E0740D126F
:1055F30010DED0E0F0EC2416125DF4C0E0740E125D
:1056030010DED0E0F0EC2417125DF4C0E0740F124A
:1056130010DED0E0125641A3E05401600874011279
:1056230010DE7411F074021210DEEEF07401120E2B
:1056330060121F857410023F3E28F582E422F0ECCD
:1056430012564A3DF58322240EF582E422C082C01D
:1056530083901D23E06403700479018002790002C2
:105663004CA874F7120845901D23E01256E074A964
:1056730028F582741E39F583125B72C2E7F0125665
:10568300E7A3E493FE25E0FCE433FD74A92CF58243
:10569300741E3D125EFEEC4D6005EE901D23F08AF4
:1056A300828B83E025E0FCE433FDE82CF582E93DC1
:1056B300F583E493FCC4540F25E0F8743212563C8E
:1056C300341DF5831255077005122B9D800CEC5485
:1056D3000F1256E7124C00120A6E02519325E0F89E
:1056E300E433F92225E0FCE82CF582E439F5832242
:1056F30074F212084574FE120E70890B8A088B0926
:10570300125792125783601A12619DF50A78081294
:105713000DA612579F2402125EF4120DD812572BB6
:1057230080031257B1023B8EAA0CEFFB901D1CE0C5
:10573300F91216BB2274F012084574FE120E70891A
:105743000B8A0E8B0F125792F5081257836027129C
:10575300619DA808EA28124481850E08850F09F582
:105763000A7808120DA612579F125EF2120DD81274
:10577300572B790080051257B1791A740202357BD1
:10578300FA7B001216AF8A0C8B0DAF0DEA4F227411
:10579300AE29F582E43434F583E49322A80B74CF65
:1057A30012563C3434F583E493FC7D00EA228518D9
:1057B30082851983E50BF0791AAA18AB19122B19F4
:1057C30022C082C083E9901D1C0247AC74F6120804
:1057D3004574FE120E70EAFEEBFFEA54207030802F
:1057E30039A8A8C2AF901CBCE0141246D98A828B98
:1057F300831258D8901D1F1258EB122B258518823F
:10580300851983E0641560077A1F7B1D122B497A83
:10581300B67B1C1216D9EA4B70C7EF5480700C800C
:1058230016901D1FEAF0A3EB1258FE901D1CE0F921
:105833001216C7EA4B70EAEE5410600B8518828586
:105843001983742D12590AEEA2E0500B8518828534
:105853001983742412590AEE5402600B8518828549
:105863001983742512590AEE5404600B8518828536
:105873001983742612590AEE5408600B8518828521
:105883001983742812590AEE5440600D74011210E2
:10589300DE1258F1742C12590AEE5480600D740113
:1058A3001210DE1258F1742F12590A901D1D125551
:1058B30007601BA8A8C2AF901D1D124B34901D1D7D
:1058C300E4F0A31246D9A3EAF0A3E91258FE7A0042
:1058D3007B000254FF1258DC22E08518828519836D
:1058E300F022A3A3A3A3A3A3EAF0A3EBF022E41261
:1058F30058F622F085188285198322F0122B257A17
:105903001F7B1D122B4922124425122B2522C082F4
:10591300C083901D1F126560687002EB6970079069
:105923001D1FE4F0A3F0024CA874F7120845EAFE29
:10593300EBFFEA4F7003121205A2AFE433F508C27E
:10594300AF8E828F831255076028E824FBFAE9346F
:10595300FFFB901D1F125F00E86C7002E96D70077A
:10596300901D1FE4F0A3F08E828F83E4F0A3F01266
:105973001769023DAAC082C083901D467491F0A3AB
:10598300742BF0A374A3F0A3742BF0A374A9F0A356
:10599300742BF0A3745FF0A3742AF0A374AFF0A385
:1059A300742BF0A37459F0A3742AF0A37465F0A3C5
:1059B300742AF0901D5474DFF0A3742BF0A374B514
:1059C300F0A3742BF0A374BBF0A3742BF0A374C7E0
:1059D300F0A3742BF0A374C1F0A3742BF0901D45B6
:1059E300E40247ACC082C0839006CFE064FE70033C
:1059F300A3E0F470097CC67D06121847801C8A82D6
:105A03008B83A3A3A3A3A3A3A3A37402F09006CFA2
:105A1300126AF28A828B83124D88024CA8C082C01C
:105A2300839006D9C3E094FEA3E094FF4004790376
:105A330080027902024CA8C082C083125B7B8C82F5
:105A43008D83125B30687039740268701C8A828B94
:105A530083125A89E06870298A828B83A3125A8938
:105A6300A3E068701C7901801A7403687013EC2436
:105A730005FC50010DEA2405FA50010B12184D8064
:105A8300027900024CA8A3A3A3A3A3E0F88C828D00
:105A930083A3A3A3A3A32274F61208457E00740A6A
:105AA3001210DEE0125B24FF8A828B83A3A3A3A3DD
:105AB300A3A3A3A3E06F706474026F704E8A828BFA
:105AC30083C082C08388828983A3A3A3A3A3E0F5B1
:105AD3000888828983A3A3A3A3A3A3E0FBAA08D076
:105AE30083D082E06A7003A3E06B7030888289837D
:105AF300A3A3A3E0FA88828983A3A3A3A3E0F9EA7B
:105B03006C7002E96D70157E01801174036F700C67
:105B1300E82405FCE439FD12184DE9FEEEF90264B0
:105B2300A6F8A3E0F98882F583125B3022A3E01381
:105B330013543F540322C082C0838A828B83A3A35E
