:020000040000FA
:0600000002124702086035
:03002B0002102997
:03004300020EDDCD
:030053000207950C
:100083000207F40100F0FF0700080000FFFF000073
:10009300050400000003000147726F757000FF0440
:1000A30000100020FD0002000020180000000000E6
:1000B300008018000000000000FC17000000000092
:1000C300000000000008180000000000000000000D
:1000D30000000006FFFF1E124261736564206F6E0D
:1000E30020544920434332353330010104010001D8
:1000F30000060591020D92041C0000521C00000032
:1001030000000000000000000000000000000002EA
:100113000401000100018192018592041C00005832
:100123001C000000000000000000000000000000B0
:100133000000000304010001000181920185920483
:100143001C00005E1C000000000000000000000016
:10015300000000000000000404010001000181927E
:10016300018592041C0000641C00000000000000D4
:10017300000000000000000000000001FF01020178
:10018300040000B418000000E8030000FFFF051995
:100193000188130000E803000064006400B801A0B4
:1001A300BB0D00A0BB0D0002020207040101051EE6
:1001B30002051E020A0A010108080103B80B0280A6
:1001C3003E0102FEFFE8030A050001FFFF020A14D5
:1001D30001E0000020410200000005030101FF0FC0
:1001E30003000300030003000300030003000300F4
:1001F300030005000A00140028004F009E000000C1
:100203007830000000004C2F00000000FF000000C9
:10021300FF00121257601D1212757005191919800B
:100223001A12111F701F121133C37003E6673319BB
:10023300191940071818182208080874FFF618F649
:1002430018F618F622121133601712130170219257
:10025300F012130A7019501720F01408080809093E
:1002630009E7F61819E7F61819E7F61819E7F62259
:1002730012130A60E6E869701F0808E62480F6088E
:10028300E436F618547FB47F0CE654806007F6E436
:1002930018F618F622181822E9C6CC08C6CD08C6E7
:1002A300CE08C6CFC0E0E8C0E0EAC0E0EBC0E0099A
:1002B300E9F809E7FA09E7FBE6F918E6F8C3EC9869
:1002C300ED99EE9AEBC2E7F5F0EFC2E795F0500E29
:1002D300600CEBCFFBEACEFAE9CDF9E8CCF8EAA261
:1002E300E7D2E7FAEB33FB13F5F0EEA2E7D2E7FE32
:1002F300EF33FFC5F013A2E730E601B313C5F0C334
:10030300C0E0C0F07F00C39BFB605E9418600F40A9
:100313001D14601AD0E023F9D0E0F80203F68AF046
:10032300E9486003D2F0E4AFF0FAF9F8803BEB3030
:10033300E40D89F0EA6003D2F0E4AFF0F9CAF8EB18
:1003430030E30D88F0EF6002D2F0AFF0E4CAC9F8F1
:10035300EB54076014FBC3EA13FAE913F9E813F843
:10036300EF135002D2E0FFDBEDD0E0C0E030E7391D
:10037300C3E49FFFF5F0EC98FC42F0ED99FD42F0E9
:10038300EE9AFE42F0D0E0F9D0E0F8E5F0607AE9C9
:1003930023F9EE20E742D8028067C3EF33FFEC3343
:1003A300FCED33FDEE33FE80EAEC28FCED39FDEE87
:1003B3003AFED0E023F9D0E0F84002801BC3EE13ED
:1003C300FEED13FDEC13FCEF135002D2E0FF08B86F
:1003D30000067F7F74FF802EEF3350178CF020F0E0
:1003E3000260100CBC000C0DBD00080EBE0004081A
:1003F300E860DFE933E813FFEE2313FE4F4D4C8033
:1004030008E95480FFE4FEFDFCEE33EF33F470049F
:10041300FCFD7E80D0E0FBD0E0FAD0E0F8D0E0CF66
:10042300C618CEC618CDC618CCC6F92212125770FC
:100433000418181822121275700D74FFF61819F6A5
:100443001819F61819F622E7548066F612130A7083
:100453000F12130170F014F608F608F608F680D1AF
:10046300121301700CF608F608768008E6447F80C4
:10047300EC121136700C12112260BFE65480F6E4C0
:1004830080BB121122700519191980A5E869700C37
:10049300763F18768018F618F6E8F922E6CDC0E024
:1004A30018ECC0E0E633CD33CDD313F6E719FCE700
:1004B300191933CC33C3947F400ECD9D502408E6E5
:1004C3005480F6E418F6800FF4043D14501408E643
:1004D300447FF6187680E418F618F6D0E0FCD0E0F6
:1004E300FD22CCD313CCFD18E4C6CBC0E018E4C680
:1004F300CAC0E00808ED08C633E613F618E433C6AD
:1005030075F003C3CA97CA09CB97CB199C40047DE6
:1005130008802EBD00030205D816B6FF050606089F
:100523001618C3CA33CACB33CB33CA27CA09CB374E
:10053300CB193CC37D08803E187D0820E75CC63399
:10054300C6CA33CACB33CB33DDF1D5F0EB30E77B0F
:10055300CA97CA09CB974ACB199C406F4B7025E6C3
:1005630020E0218066187D08C3CA97CA09CB97CBC0
:10057300199CD3C633C6CA33CACB33CB3350C9DD78
:10058300E7D5F0E1D3E4C636C608C636C608C63694
:10059300C608C636C61818188031C3CA97CA09CB0D
:1005A30097CB199CB34097C633C6CA33CACB33CB58
:1005B30033DD34D5F02EC6A2E0C640C8CA27CA0927
:1005C300CB37194A70BECB3CB480B90808E6330870
:1005D300E633601F181818D0E0FAD0E0FBD0E0FC37
:1005E300D0E0FD22187D08CA27CA09CB37CB193CB6
:1005F300D3808013F618E4B67F11F618B6FF0EF613
:1006030018C60470D20808768080CAF618F618F661
:1006130080C500121257604F1212756012E75480A2
:1006230066F612111F7011121301703B090909F4C8
:10063300F618F618F618F622121133701512130A6B
:1006430008080860EAE6447FF618768018E4F6188E
:10065300F62212130A60161213017012E4F608F65A
:1006630008F608E65480F609090918181822EAC0A2
:10067300E0EBC0E0ECC0E0EDC0E0E687F0A4FBAC4B
:10068300F008E687F0A42CFCE435F0FA1809E687B5
:10069300F0A42C4B60027401CA35F0FCE433FB096F
:1006A300E687F0D2F7A42CCB35F0FC1908E687F0E7
:1006B300A42BCC35F0FBE433FD0819E687F0D2E731
:1006C300A42C4ACB35F0CD3400FC09E687F0D2E701
:1006D300A42DCC35F0FDE433FA0918E687F0D2F700
:1006E300A42CCD35F0CA3400FC08E687F0D2E7D25B
:1006F300F7A42ACC35F07A7E20E70B0ACB33CBCD97
:1007030033CDCC33CC33CB3350147004ED30E00E07
:10071300D2F1E4CD3DCDCC3CCC3B5005DA05C2F162
:10072300EB547FC63308E63392F0FBE73309E73334
:10073300C39A502D2B70190C0D4C4D70151806E6ED
:1007430008C333700D20F10AA2F013F6E418800BEE
:100753004024E4F630F002768018F618F618F68096
:1007630024D33B14501074FFA2F013F6187680E4E0
:1007730018F618F6800FA2F013F618E63303F618EE
:10078300ECF618EDF6D0E0FDD0E0FCD0E0FBD0E0D5
:10079300FA22C0E074F1120B7EA2AFE433F509D262
:1007A300AF85A708AFA1EF5508FE74105E6006126F
:1007B300158C75A1EF74085E600812159275A1F788
:1007C3008024EFA2E092F0E508A2E082F0501790B7
:1007D3006198E0F89006BBE0C398A2D265D033508D
:1007E30002E8F075A1FEE509A2E092AF7F02020BD9
:1007F300DDC0E074F2120B7EA2AFE433FED2AF9001
:1008030061A4E0F8759B00E5915854086008759160
:10081300F71215E08023E59158541060087591EFA5
:100823001215E68014E591A2E092F0E8A2E082F0CE
:100833005007E0C2E0F01217309061A3E0F8E5E959
:10084300585404600E12170675E9FB906193E0A2F9
:10085300E640F2EEA2E092AF7F01020BDDC0E0744E
:10086300F2120B7EA2AFE433FED2AF9061A5E0F8A3
:10087300E5BF585404600675BFFB12174880D4C304
:10088300E498F8E499F91208C38026C3E49AFAE4D9
:100893009BFBE920E7E91208C3E498F8E499F922FD
:1008A300C3E498F8E499F91208C3E498F8E499F9D1
:1008B300C3E49AFAE49BFB22EB20E7CFE920E7E0CD
:1008C300B90010BB0008E88AF084F8AAF022E4FB20
:1008D300C8FA22EB70227B10C833C8C933C933501E
:1008E30007C39AC3DBF280069A50012ADBEAC833B6
:1008F300F4C8C933F4C9FA2275F008E4C833C8C987
:1009030033C933C99AC99B5004C92AC93BD5F0ECF2
:10091300FBC833F4C8E4C9FA2212095C20F014308E
:10092300E72B74FFFCFBFA747F8022E4FCFBFA7470
:1009330080801AB48008BC00F2BB00EF800F50EB3C
:10094300F9E4C39AFAE49BFBE49CFCE499C6CC1853
:10095300C6CB18C6CA18C6F922E4C9C608CAC6084F
:10096300CBC6D3330308CCC63392F0C3947F402E57
:1009730094184019C9B90704CACBCC225025C3091E
:10098300CA33CACB33CBCC33CC33D9F422F4600D86
:10099300C9CCC313CB13CBCA13CAD9F6CC22E4FCFC
:1009A300FBFA2214FCFBFA22080808EAC0E0EBC0B9
:1009B300E086F0E7A4FA180986F0E7A42AFA1809F2
:1009C30086F0E7A42AFA180986F0E7A42AFA19861A
:1009D300F0E7A4FBE5F02AFA190886F0E7A42BFB5D
:1009E300E5F03AFA190886F0E7A42BFBE5F03AFAAA
:1009F30018180986F0E7A4C5F02BFBE43AFA1908A6
:100A0300E7C5F0C6A426F6E5F03BFBE43AFA188600
:100A1300F0E7A4F6E5F00826F6E43B08F6E43A0826
:100A2300F6D0E0FBD0E0FA22080808E630E711121E
:100A330010F7120A43080808C64480C6181818227B
:100A4300181818E9799EC608CAC608CBC608CCC6CA
:100A5300C370207996CACBCC7019798ECBCC701326
:100A63007986CC700EF9802ACA33CACB33CBCC3308
:100A7300CC331930E7F2CCCBCA3350147004EA30CC
:100A8300E00DE4CA3ACACB3BCBCC3CCC500209C301
:100A9300E913C6CC182313C6CB18C6CA18C6F92245
:100AA300E4CFC0E0E4CEC0E0E4CDC0E0E4CCC0E0FD
:100AB30075F020E626F608E633F608E633F608E690
:100AC30033F6181818EC33FCED33FDEE33FEEF3339
:100AD300FFC3EC9709ED9709EE9709EF97191919D9
:100AE300400FFFEC97FC09ED97FD09EE97FE1919EE
:100AF30006D5F0BFECF709EDF709EEF709EFF719A3
:100B03001919D0E0FCD0E0FDD0E0FED0E0FF2225B3
:100B130018C582C0E0E51934FFC583C0E0E518C3FA
:100B2300958224F810AF088583198582188008857B
:100B33008319858218D2AFCEF0A3E520F0A37808FD
:100B4300E608F0A3DEFAEFF0A3E58124FAF8E6085D
:100B5300F0A3E608F0A3E608F0A30808E608F0A36C
:100B6300E608F0A315811581D0E0FED0E0F81581E9
:100B730015811581E8C0E0EEC0E022C0D02518C57C
:100B830082C0E0E51934FFC583C0E0E518C3958250
:100B930024F310AF0885831985821880088583198B
:100BA300858218D2AFC8F0A3E9F0A3EAF0A3EBF073
:100BB300A37908E709F0A3D8FAECF0A3EDF0A3EECC
:100BC300F0A3EFF0A3D0E0F0A3D0E0F0A3D0E0F0E7
:100BD300A3E520F0A3E5F0F0A3228519838518820D
:100BE300E0C0E0A3E0F9A3E0FAA3E0FBA37808E008
:100BF300F608A3DFFAE0FCA3E0FDA3E0FEA3E0FF19
:100C0300A3E0C0E0A3E0C0E0A3E0F5D0A3E0F520BB
:100C1300A3E0A3F5F010AF08858319858218800837
:100C2300858319858218D2AFD082D083D0E0F8D0E3
:100C3300E0321212ECB90003020C74E49004017860
:100C4300A479188002F0A3D8FCD9FA7AA47B1B906C
:100C53000086789079028015E493A3AD82AE838AEF
:100C6300828B83F0A3AA82AB838D828E83D8E9D94A
:100C7300E775823F7583BF7405120FA075821E75D9
:100C8300832C7400120FA0E47375F0108E1A8F1B5F
:100C930085821F85831E851882851983E0CEA3E094
:100CA300CF851F82851E83EBC9EAC8EDCBECCAC38F
:100CB300E833C8E933C9EA33CAEB33CBC3EA9EF559
:100CC3001DEB9FF51CB35004AB1CAA1DEC33CCEDFC
:100CD30033CDD5F0DAAE1AAF1B22D083D082ECC06D
:100CE300E0EDC0E0E493A3FCE493A3FDED4C600DC1
:100CF300120DB5EC24FFFCED34FFFD80EFE493A36C
:100D0300FCE493A3FDED4C600D120E88EC24FFFC74
:100D1300ED34FFFD80EFD0E0FDD0E0FCE493A3C011
:100D2300E0E493C0E022851983851882E0A3FEE006
:100D3300A3F5207808E0A3F608DFFAE0A3FFE0A319
:100D4300C0E0E0A3C0E0E0A3C0E0E0A3C0E0E0A314
:100D5300C0E010AF08858218858319800885821842
:100D6300858319D2AFD083D082020FA6D083D082DD
:100D7300E9C0E0E493A3C386F0C5F095F0F908E475
:100D830093A386F0C5F095F0700BE493A3C3994049
:100D930005E9048002A3E475F002A42582F582E547
:100DA300F03583F583D0E0F9E493A3C0E0E493C086
:100DB300E022C0E0C3E49396087401939618400FB1
:100DC300E49366700808740193661870007019A3A1
:100DD300A3C3E49396087401939618A3A3400DD07C
:100DE300E0D0E0D0E0020D19A3A3A3A3A3A3D0E016
:100DF30022C082C08374FE12108C851882851983E9
:100E0300EAF0A3EBF07C017D00AA18AB197900127C
:100E13001514851882851983E0FAA3E0FB74021286
:100E23000FF4D083D082227404800474028000CC37
:100E3300C0E0EDC0E0E518C39CCCAD1950011D1016
:100E4300AF068C188D1980068C188D19D2AF120F2E
:100E530022D0E0FDD0E0FC2274028000CCC0E0EDA3
:100E6300C0E0E518C39CCCAD1950011D10AF068C32
:100E7300188D1980068C188D19D2AF120F00D0E08F
:100E8300FDD0E0FC22C0E0C0F088F0E49366700877
:100E93000874019366187000A8F0A3A3700BD0F038
:100EA300D0E0D0E0D0E0020D19A3A3D0F0D0E0222F
:100EB300D083D082CCC0E0E493A36006120F8114E8
:100EC30070FAE493A360061210A21470FAD0E0FC47
:100ED300E493A3C0E0E493C0E022C0E074F2120BF9
:100EE3007EA2AFE433FED2AFC2C0E5D1A2E4500389
:100EF3001214FCEEA2E092AF7F01020BDDCAC0E048
:100F0300E493A3C582CCC582C583CDC583F0A3C5B5
:100F130082CCC582C583CDC583DAE5D0E0CA22CAB7
:100F2300C0E0E0A3C582CCC582C583CDC583F0A351
:100F3300C582CCC582C583CDC583DAE6D0E0CA229B
:100F4300C008C3E096F50808A3E096420808A3E0AA
:100F530096420808A3E09645087001D3D008227092
:100F630009080808226016181818C6C333C608C62D
:100F730033C608C633C608C633C6D5E0EA22C0E086
:100F8300E493A3D39C5010E493A3C39C400AD0E002
:100F9300D0E0D0E0020ED0A3A3A3D0E022C09FF5FF
:100FA3009FE473D09F22D083D082C09FE493C0E09C
:100FB300740193C0E0740293F59F227404800A7451
:100FC300038006740280027401C0E0F404120FD996
:100FD300D0E01212AF222518F58210AF08F51840A1
:100FE3000C15198008F51840021519D2AF8519831D
:100FF3002200C0D0251810AF08F518500C05198031
:1010030008F51850020519D2AFD0D022BB0102E770
:1010130022C082C08389828A83BB0003E08002E40A
:1010230093D083D08222C0E0C0D0E8C0E0A8A8D289
:10103300AFC2C7E8A2E792AFD0E0F8D0D0D0E03299
:101043006016080808C6C313C618C613C618C61305
:10105300C618C613C6D5E0EA222518F8E43519F9EF
:10106300222518FAE43519FB222518FCE43519FD6D
:1010730022C3E0C696F608A3E0C696F608A3E0C628
:1010830096F608A3E0C696F622251810AF08F518C1
:10109300400C15198008F51840021519D2AF22C06B
:1010A300E0E493A36C7009D0E0D0E0D0E0020ED06E
:1010B300A3A3D0E022E066701008A3E066700A08DC
:1010C300A3E066700408A3E06622C3E09608A3E0E9
:1010D3009608A3E09608A3E096A2D265D03322E750
:1010E3006670100809E766700A0809E76670040865
:1010F30009E76622181818E4C396F608E496F6087A
:10110300E496F608E496F622C3E096F008A3E09688
:10111300F008A3E096F008A3E096F022181818E66A
:101123000846087009E626087005E633F42208220B
:10113300191919E70947097009E727097005E73302
:10114300F4220922C3E697F60809E697F60809E6AA
:1011530097F60809E697F622C3E493960874019379
:10116300960874029396087403939622E627F6086A
:1011730009E637F60809E637F60809E637F6227076
:101183000422600D18C6C333C608C633C6D5E0F4BF
:101193001822E657F60809E657F60809E657F6084F
:1011A30009E657F622E056F608A3E056F608A3E050
:1011B30056F608A3E056F622E026F608A3E036F634
:1011C30008A3E036F608A3E036F622E026F008A3EB
:1011D300E036F008A3E036F008A3E036F022E0564C
:1011E300F008A3E056F008A3E056F008A3E056F099
:1011F30022E647F60809E647F60809E647F608092E
:10120300E647F622600D08C6A2E713C618C613C642
:10121300D5E0F322C6F4C608C6F4C608C6F4C60869
:10122300C6F4C622C3E7960809E7960809E79608B5
:1012330009E79622C3E09608A3E09608A3E0960880
:10124300A3E0962275D00075813F751801751904C6
:1012530000020C35E6084608C3134608336002E66D
:1012630033F422E6F008A3E6F008A3E6F008A3E6C9
:10127300F022E7094709C3134709336002E733F450
:1012830022600C08C6C313C618C613C6D5E0F422E1
:10129300E0F608A3E0F608A3E0F608A3E0F622C50B
:1012A300822518C582C5833519C58322CAC0E0E6E5
:1012B300F0A308DAFAD0E0FA22E0FAA3E0FBA3E015
:1012C300FCA3E0FD22EAF0A3EBF0A3ECF0A3EDF026
:1012D30022E8F0A3E9F0A3EAF0A3EBF022E0F8A3FD
:1012E300E0F9A3E0FAA3E0FB22E5C754F84401F5D3
:1012F300C77901222518F582E43519F58322E727FA
:1013030019471947194722E6261846184618462250
:10131300C2AF75D69F02000022120FA957ED031228
:101323000FA9D3ED03120FA906EE03120FA934EE92
:1013330003120FA958F003120FA974F003120FA997
:10134300B9F003120FA93EF103120FA98AF1031298
:101353000FA91AF203120FA9F3F203120FA944F310
:1013630003120FA9A9F303120FA91CF403120FA967
:1013730060F403120FA9B8F403120FA9DAF40312ED
:101383000FA96AF503120FA9FBF503120FA947F67C
:1013930003120FA973F603120FA9B4F603120FA9D0
:1013A30055F803120FA937F903120FA913FA031201
:1013B3000FA987A705120FA9C8A705120FA9E2A7AE
:1013C30005120FA9FEA705120FA927A805120FA939
:1013D30068A805120FA9C7A805120FA931A90512FC
:1013E3000FA990A905120FA9CDA905120FA98BAAC0
:1013F30005120FA93ACE05120FA94BCE05120FA95C
:10140300E9CE05120FA903CF05120FA9EEFF0212B1
:101413000FA909B605120FA960B605120FA918B8CE
:1014230005120FA93EB805120FA9EBFF01120FA970
:1014330057D105120FA967D105120FA97CD1051247
:101443000FA9C5D105120FA9E8FE04120FA96CFF5D
:1014530004120FA9D4FF04120FA9F87F00120FA9D9
:1014630082D405120FA990D405120FA9EDD205124B
:101473000FA90AD305120FA919D305120FA922D355
:1014830005120FA904FC02120FA912FC02120FA9E4
:101493008BFC02120FA960FD02120FA932FF021288
:1014A3000FA98B8A05120FA9A98A05120FA9D68A3B
:1014B30005120FA9D98C05120FA9548D05120FA976
:1014C300F28D05120FA9168E05120FA98F8E051224
:1014D3000FA9BED305120FA9008005120FA96D80B5
:1014E30005120FA9258105120FA99B8105120FA9CA
:1014F300AF8205120FA93F8405120FA9A884051214
:101503000FA9F78405120FA9008505120FA90F85EE
:1015130005120FA9258505120FA9388505120FA9F4
:10152300418505120FA9548505120FA9808505125F
:101533000FA9178805120FA9578805120FA99388B9
:1015430005120FA9A78805120FA9C08805120FA9B4
:10155300B18905120FA9638A05120FA9778A0512AB
:101563000FA9C3C405120FA9E7C405120FA900C52B
:1015730005120FA93EC505120FA96EC505120FA9C5
:101583009BC505120FA901C605120FA904C60512B2
:101593000FA90EC605120FA91BC605120FA962B328
:1015A30005120FA982B305120FA9C1B305120FA922
:1015B300DFB305120FA9FAB305120FA960B4051220
:1015C3000FA96CB405120FA9C9B405120FA9D8B499
:1015D30005120FA9FCB405120FA9BDB505120FA979
:1015E300CAB505120FA9DBB505120FA9CED1051295
:1015F3000FA916D205120FA942D205120FA9808F87
:1016030005120FA9DC9005120FA9EA9005120FA984
:10161300FD9005120FA9129105120FA9279105122A
:101623000FA93A9105120FA9B69105120FA91B92A2
:1016330005120FA9B19205120FA98A9305120FA9DA
:101643009A9305120FA9A99305120FA919CF051291
:101653000FA93DCF05120FA965CF05120FA98DCF95
:1016630005120FA985B805120FA9ACB805120FA969
:10167300CAB805120FA939B905120FA9D4AD0512BD
:101683000FA9EDAD05120FA9F9AD05120FA90DAE06
:1016930005120FA92BAE05120FA935AE05120FA91E
:1016A3003FAE05120FA952AE05120FA9D8AE05120F
:1016B3000FA94DAF05120FA97CAF05120FA9CAAF31
:1016C30005120FA919B005120FA934B005120FA9FD
:1016D3003EB005120FA94FB005120FA992B0051223
:1016E3000FA9A2D205120FA94DEE04120FA979EE8C
:1016F30004120FA996EE04120FA9A9EE04120FA962
:10170300C4EE04120FA91EEF04120FA94CEF04122A
:101713000FA95CF304120FA9BAF404120FA9ECF495
:1017230004120FA94FF504120FA9BBF604120FA957
:10173300E3F604120FA9F8F604120FA908F704122E
:101743000FA948F704120FA98AF704120FA99AF7F1
:1017530004120FA905CA05120FA91FCA05120FA962
:1017630047CA05120FA960CA05120FA984CA051238
:101773000FA9A2CA05120FA9B9CA05120FA9E7CA70
:1017830005120FA902CB05120FA93DD305120FA90C
:1017930087A005120FA997A005120FA99CA10512F6
:1017A3000FA9CEA105120FA9FEA105120FA921A20F
:1017B30005120FA938A205120FA972A205120FA9CB
:1017C300D7A205120FA919A305120FA960A3051229
:1017D3000FA98DA305120FA9B8A305120FA9C0C89D
:1017E30005120FA9DEC805120FA940C905120FA9DA
:1017F300DAC905120FA94FCD05120FA935CB051272
:101803000FA97DCB05120FA93BC105120FA9B2C2C7
:1018130005120FA97BC705120FA9A0C805120FA9AE
:10182300E7E304120FA971E704120FA96DE904128B
:101833000FA99FEA04120FA978EB04120FA908ED70
:1018430004120FA9D4ED04120FA928EE04120FA954
:1018530001C305120FA922C305120FA95CC4051207
:101863000FA986C405120FA983D305120FA993D319
:1018730005120FA99DD305120FA946EE01120FA958
:1018830049EE01120FA925F601120FA977F70112EC
:101893000FA9D8F801120FA9AFF901120FA988FAFD
:1018A30001120FA971FB01120FA965FC01120FA907
:1018B3001DFD01120FA94DFD01120FA9FDFE01121D
:1018C3000FA925C605120FA937C605120FA94BC7C5
:1018D30005120FA94EC705120FA90A7F00120FA9FF
:1018E300407F00120FA9587F00120FA99A7F0012A0
:1018F3000FA9AA7F00120FA9EE7F00120FA9CAF742
:1019030004120FA904F804120FA96DF804120FA909
:101913008CF804120FA9A5F804120FA947F90412B1
:101923000FA950F904120FA9A1F904120FA9CAF9BA
:1019330004120FA9D7F904120FA948FA04120FA928
:10194300D6FA04120FA924FB04120FA95AFB04129E
:101953000FA9BBFB04120FA9E4FB04120FA95BFC44
:1019630004120FA9B7FC04120FA9F4FC04120FA967
:101973002BFD04120FA93DFD04120FA94FFD041204
:101983000FA96EFD04120FA977FD04120FA932FEF1
:1019930004120FA97EFE04120FA9BCFE04120FA9A4
:1019A30045D205120FA9EDFA03120FA92DFC03125C
:1019B3000FA950FC03120FA961FC03120FA980FEAB
:1019C30003120FA9A0FE03120FA9DABA05120FA979
:1019D30010BB05120FA958BB05120FA9B1BC051204
:1019E3000FA9C8AE04120FA9F9AF04120FA935B09D
:1019F30004120FA9EFB104120FA919B204120FA90F
:101A030092B404120FA9D2B404120FA966B6041239
:101A13000FA905B704120FA95DB704120FA9F0B7F8
:101A230004120FA92AB804120FA96CB804120FA943
:101A3300DFB904120FA95FBB04120FA99CBD0412E6
:101A43000FA9CABD04120FA9F6BD04120FA9FFBD49
:101A530004120FA95CBE04120FA9ECBE04120FA955
:101A630028C204120FA9AAC204120FA999D40512FD
:101A73000FA9829C05120FA9989C05120FA93C9DE2
:101A830005120FA97B9D05120FA9989D05120FA999
:101A9300C99D05120FA9169E05120FA94A9E05128C
:101AA3000FA9859E05120FA97AA005120FA94FCC85
:101AB30005120FA9AECC05120FA9ECCC05120FA984
:101AC3002DCD05120FA9A2B005120FA9F5B005126D
:101AD3000FA984B205120FA935AC02120FA941ACAC
:101AE30002120FA9A3AC02120FA9ADAC02120FA9E7
:101AF3003AAD02120FA976AD02120FA939AE021246
:101B03000FA94CAE02120FA9BAAE02120FA922AF4F
:101B130002120FA9B1AF02120FA92FB002120FA91F
:101B2300D4B102120FA98DB302120FA9D3B40212BA
:101B33000FA950B602120FA9F7B602120FA9C5BB1F
:101B430002120FA9BCBC02120FA94BBD02120FA9AE
:101B530070BD02120FA90DBE02120FA92ABE0212F6
:101B63000FA94ABE02120FA9BBBE02120FA9D8BE0B
:101B730002120FA906BF02120FA99EC002120FA9DB
:101B8300BFC002120FA965C102120FA9ADC1021293
:101B93000FA91FC202120FA9A2C202120FA907C3E3
:101BA30002120FA964C302120FA903C402120FA9E0
:101BB30077C402120FA9B3C402120FA920C50212DF
:101BC3000FA98AC602120FA90BC802120FA9BAC81D
:101BD30002120FA91CCB02120FA97ECB02120FA96E
:101BE300ACCB02120FA9C4CD02120FA954D002121A
:101BF3000FA957D102120FA90F7000120FA9367047
:101C030000120FA9707000120FA9797000120FA9AA
:101C13007C7000120FA9DC7000120FA9F57200127C
:101C23000FA9D67500120FA9C67600120FA90E7759
:101C330000120FA93B7700120FA9A37700120FA977
:101C4300D77700120FA9337800120FA91679001263
:101C53000FA9387900120FA99E7900120FA9047AEF
:101C630000120FA9857A00120FA9EB7A00120FA9AF
:101C7300C37B00120FA9417C00120FA9267E00121C
:101C83000FA93E7E00120FA9EF7E00120FA900805C
:101C930003120FA99F8003120FA91B8103120FA91F
:101CA3000A8203120FA9088303120FA98783031261
:101CB3000FA9C98403120FA96A8503120FA92A87E2
:101CC30003120FA9318803120FA94E8803120FA91B
:101CD300798903120FA9B68A03120FA9608B031225
:101CE3000FA9CA8E03120FA9D29003120FA95B91F9
:101CF30003120FA9B59103120FA9039203120FA99F
:101D03007E9203120FA9009303120FA93C930312AF
:101D13000FA9E09903120FA93B9C03120FA9179D6A
:101D230003120FA96A9804120FA99C9804120FA911
:101D3300149904120FA9239A04120FA97F9A04126B
:101D43000FA9F69B04120FA9129C04120FA9649CFD
:101D530004120FA9A29C04120FA9B59C04120FA987
:101D63000D9D04120FA97C9D04120FA93E9E04121F
:101D73000FA9AC9E04120FA9E39E04120FA91B9F87
:101D830004120FA9A3A004120FA982A104120FA980
:101D9300D0A204120FA9B3A304120FA93FA40412E3
:101DA3000FA981A404120FA9A0A404120FA9EBA4E4
:101DB30004120FA90BA504120FA9A4A504120FA9BD
:101DC30027A604120FA932A604120FA987A604128C
:101DD3000FA9E2A604120FA92FA704120FA9ACA9F9
:101DE30004120FA9D0AA04120FA916AB04120FA94B
:101DF3000BAC04120FA933AC04120FA936AC0412B6
:101E03000FA940AC04120FA95CAC04120FA9E4ACF7
:101E130004120FA91DAD04120FA949AD04120FA995
:101E230070AD04120FA994AD04120FA905AE0412EC
:101E33000FA918AE04120FA92EAE04120FA950AEAB
:101E430004120FA97FAE04120FA99EAE04120FA9AC
:101E5300B6AE04120FA9D8D005120FA9E4D005120B
:101E63000FA922D105120FA9FB7F00120FA98BD353
:101E730003120FA9AED303120FA9FBD403120FA9A8
:101E830044D503120FA9A2D503120FA9FCD503123F
:101E93000FA9FFD503120FA950D603120FA9CAD653
:101EA30003120FA94DD703120FA950D703120FA97D
:101EB300D8D703120FA91BD803120FA9B1D203124B
:101EC3000FA9EFDD03120FA929DE03120FA976DE96
:101ED30003120FA9DAE103120FA95FE203120FA99C
:101EE3001BE303120FA949E403120FA976E50312BA
:101EF3000FA960E603120FA9CEE703120FA952E858
:101F030003120FA944E903120FA9CAEB03120FA985
:101F1300008004120FA9A08004120FA90C810412DF
:101F23000FA9278104120FA9C88104120FA90F82D8
:101F330004120FA9A1E304120FA9758304120FA9B8
:101F4300F18304120FA9448404120FA9AB84041271
:101F53000FA92C8604120FA9448704120FA9C7875F
:101F630004120FA9CF8904120FA9738A04120FA9AF
:101F7300128B04120FA9738B04120FA9E28B0412A4
:101F83000FA9468D04120FA9308E04120FA96B8E70
:101F930004120FA98B8E04120FA93C8F04120FA9F0
:101FA300798F04120FA9029004120FA98A910412C7
:101FB3000FA9689304120FA90E9504120FA9A195F6
:101FC30004120FA90B9604120FA9179704120FA955
:101FD3000C9E03120FA96F9E03120FA9B79E031243
:101FE3000FA9F59E03120FA9509F03120FA9AD9FCE
:101FF30003120FA9E89F03120FA96AA003120FA9E6
:10200300C4A003120FA938A203120FA9C2A203127C
:102013000FA915A303120FA92FA303120FA949A3F5
:1020230003120FA9A3A303120FA929A603120FA931
:1020330048A603120FA933A703120FA96DA8031211
:102043000FA9ECA803120FA923A903120FA992A9A0
:1020530003120FA953AA03120FA92CAC03120FA941
:102063002DAD03120FA99EAE03120FA99EB003124A
:102073000FA919B303120FA9F3B403120FA9B4B52F
:1020830003120FA92CB603120FA943B603120FA90B
:102093003DB703120FA935B803120FA9A4B8031251
:1020A3000FA910A405120FA967A505120FA926A64B
:1020B30005120FA98EA605120FA902A705120FA9D3
:1020C300D3AA05120FA9EEAA05120FA932AB051266
:1020D3000FA958AB05120FA97FAB05120FA997AB38
:1020E30005120FA939AC05120FA94EAC05120FA9A1
:1020F30070AD05120FA979AD05120FA982AD0512B6
:102103000FA98BAD05120FA9DA9305120FA9DC975E
:1021130005120FA9E19705120FA9E39705120FA95D
:10212300C8BF05120FA918BD05120FA948D0051283
:102133000FA92DD405120FA997FF02120FA9A7FF0C
:1021430002120FA94A9805120FA9B2CF05120FA9BF
:10215300DCCF05120FA9F6D305120FA959D4051226
:102163000FA9E2FF03120FA95FD502120FA992D59F
:1021730002120FA9FED502120FA999D602120FA9B6
:1021830036D702120FA97BD702120FA99DD70212CD
:102193000FA9B6D702120FA9DCD702120FA9FED7D7
:1021A30002120FA93CD802120FA980D802120FA95C
:1021B300A2D802120FA904D902120FA9CBD9021275
:1021C3000FA982DA02120FA9F4DA02120FA9BFDBF8
:1021D30002120FA912DC02120FA978DC02120FA956
:1021E300B2DC02120FA904DD02120FA972DD021282
:1021F3000FA9DDDD02120FA9E0DD02120FA961DED6
:1022030002120FA9F8DE02120FA959DF02120FA959
:1022130049E002120FA968E002120FA9CCE10212F1
:102223000FA9D9E102120FA9E5E202120FA9F2E206
:1022330002120FA9FBE202120FA9D3E402120FA9A3
:10224300EDE502120FA966E602120FA9D8E6021203
:102253000FA9FAE602120FA98EE702120FA962E98B
:1022630002120FA939ED02120FA94DED02120FA9A7
:102273005DED02120FA967ED02120FA970ED0212B4
:102283000FA979ED02120FA983ED02120FA9B0ED88
:1022930002120FA9D9ED02120FA9E4ED02120FA940
:1022A30008EE02120FA92CEE02120FA996EE0212EB
:1022B3000FA9DCEE02120FA9F9EE02120FA976EFB5
:1022C30002120FA9ADEF02120FA9ECEF02120FA930
:1022D30039F002120FA9BFF002120FA98DF20212F8
:1022E3000FA922F302120FA906F402120FA96DF629
:1022F30002120FA9C6F602120FA910F702120FA9B4
:102303006BF802120FA9A9F802120FA9FBF8021227
:102313000FA9B0F902120FA95FFA02120FA99CFAD2
:1023230002120FA931FB02120FA99DFB02120FA982
:102333008C9201120FA9BE9201120FA9EC92011205
:102343000FA9C29401120FA9A29501120FA9FA9520
:1023530001120FA9359701120FA9819701120FA935
:10236300AA9A01120FA99D9D01120FA9ED9E0112B8
:102373000FA9839F01120FA98F9F01120FA9C19F5C
:1023830001120FA944A101120FA952A201120FA910
:102393007CA201120FA9E3A201120FA93CA301120F
:1023A3000FA9A2A301120FA9B9A501120FA948A74A
:1023B30001120FA912A801120FA958A901120FA9FE
:1023C300A8AB01120FA978AE01120FA985AE0112B5
:1023D3000FA90CAF01120FA9A0AF01120FA9E3AF10
:1023E30001120FA92CB001120FA980B001120FA97D
:1023F300F9B001120FA968B101120FA985B1011239
:102403000FA9B5B101120FA9EAB101120FA9BAB20E
:1024130001120FA963B301120FA9E9B501120FA9A4
:1024230009B701120FA9F4B701120FA976B8011267
:102433000FA9ADBC01120FA9EABC01120FA942BD3D
:1024430001120FA975BD01120FA9DFBD01120FA95A
:1024530015BE01120FA9A0BE01120FA9F8BE0112E9
:102463000FA9CFBF01120FA988C001120FA923C161
:1024730001120FA92BC401120FA947C501120FA9FD
:10248300EAC801120FA9DEC901120FA9E1C901129D
:102493000FA910CA01120FA916CC01120FA9EFCC74
:1024A30001120FA932CD01120FA988CE01120FA973
:1024B300C7CE01120FA959CF01120FA98DCF011257
:1024C3000FA952D001120FA96AD201120FA9DBD2B0
:1024D30001120FA91BD301120FA954D301120FA983
:1024E300E8D301120FA966D501120FA98ED60112E6
:1024F3000FA950D701120FA957D901120FA96FD9EC
:1025030001120FA983D901120FA9BBD901120FA977
:10251300E9D901120FA968DB01120FA98DDC0112A1
:102523000FA9F1DC01120FA9A3DD01120FA9D3DD5D
:1025330001120FA99ADE01120FA932DF01120FA9AE
:1025430058E101120FA98DE101120FA9F0E1011267
:102553000FA91FE301120FA9C7E301120FA9F8E3A3
:1025630001120FA910E401120FA99FE401120FA990
:1025730053E701120FA92BE901120FA947E9011231
:102583000FA963E901120FA931EA01120FA924EE81
:1025930001120FA9183300120FA94A3300120FA911
:1025A300393700120FA9853700120FA9CB37001254
:1025B3000FA96D3800120FA9C93800120FA90E39DF
:1025C30000120FA9553A00120FA9693B00120FA977
:1025D300583F00120FA9DC3F00120FA9E940001277
:1025E3000FA9454100120FA9354300120FA9AA43B1
:1025F30000120FA9B44300120FA9C14300120FA97F
:10260300EC4300120FA9D34400120FA97D45001219
:102613000FA9FB4500120FA91B4600120FA9444640
:1026230000120FA9664600120FA9C64800120FA98F
:102633008C4900120FA9D14900120FA94E4A00126A
:102643000FA9FF4A00120FA9314B00120FA9774BB4
:1026530000120FA9B34B00120FA9034C00120FA9CC
:10266300574C00120FA9AD4C00120FA9F94C0012E0
:102673000FA9664D00120FA9E14D00120FA9AC4F2F
:1026830000120FA9AC5000120FA9D15100120FA9CB
:10269300105500120FA9235800120FA9E058001279
:1026A3000FA9245900120FA9D45A00120FA9E85AEE
:1026B30000120FA9F25A00120FA9FC5A00120FA917
:1026C300085B00120FA9245B00120FA9CF5B001255
:1026D3000FA90E5C00120FA9185C00120FA9225C4F
:1026E30000120FA9925C00120FA9DD5C00120FA962
:1026F300F25D00120FA94E5E00120FA9CF5E001209
:102703000FA98E5F00120FA9976000120FA9CB616A
:1027130000120FA9B96200120FA9D16200120FA90A
:102723002C6300120FA94A6300120FA992630012CF
:102733000FA9B96300120FA9546400120FA91A65F7
:1027430000120FA9AC6500120FA9266600120FA98B
:10275300406700120FA9ED6700120FA91569001257
:102763000FA9656900120FA9C96900120FA92B6A85
:1027730000120FA9596A00120FA97D6A00120FA94E
:10278300B26A00120FA9E36A00120FA9166B0012B6
:102793000FA9366B00120FA99E6B00120FA9926C42
:1027A30000120FA9ED6C00120FA9166D00120FA9EC
:1027B3009E6D00120FA9216E00120FA94C6E00121C
:1027C3000FA9316F00120FA907C304120FA93FC34A
:1027D30004120FA960C304120FA9A2C304120FA904
:1027E30004C404120FA90EC404120FA91EC40412B8
:1027F3000FA959C404120FA939C804120FA926CA74
:1028030004120FA90CCC04120FA9A3CC04120FA914
:1028130045CD04120FA9248102120FA9A28102122D
:102823000FA9FE8102120FA9498202120FA9648225
:1028330002120FA98F8202120FA9AC8202120FA9F2
:10284300B88202120FA94F8402120FA968840212E0
:102853000FA9ED8402120FA9008502120FA91F858B
:1028630002120FA9C38502120FA9448702120FA9EE
:10287300F78802120FA98D8902120FA990890212FB
:102883000FA9008A02120FA91E8A02120FA9B58A84
:1028930002120FA9FD8A02120FA9008B02120FA9BF
:1028A300C68B02120FA9338C02120FA9598C021284
:1028B3000FA9E48C02120FA9028D02120FA9488DF1
:1028C30002120FA9FC8D02120FA9468E02120FA944
:1028D300758E02120FA9D28E02120FA9078F021250
:1028E3000FA9338F02120FA9418F02120FA98E8FE6
:1028F30002120FA9FE8F02120FA9479002120FA90D
:10290300939002120FA9BF9002120FA9CA9002124C
:102913000FA9E89002120FA9D39102120FA9DD911A
:1029230002120FA9189202120FA9289202120FA9DC
:10293300319202120FA9859202120FA999920212E3
:102943000FA9C89302120FA9DD9302120FA96B946A
:1029530002120FA9B09402120FA93C9502120FA9FB
:10296300479502120FA9899602120FA9A496021283
:102973000FA9F09602120FA95F9702120FA9989759
:1029830002120FA9B29702120FA9F49702120FA90C
:10299300C49A02120FA9719B02120FA9DE9B0212A5
:1029A3000FA91E9E02120FA9369E02120FA9399E6D
:1029B30002120FA9459E02120FA9599E02120FA9D6
:1029C300619E02120FA9949E02120FA9969F0212F2
:1029D3000FA91DA002120FA98DA002120FA90FA10A
:1029E30002120FA9D0A102120FA9EFA102120FA97F
:1029F30090A202120FA9EDA202120FA9F0A20212D5
:102A03000FA964A302120FA9B3A402120FA9B9A5B7
:102A130002120FA944A602120FA95FA702120FA95F
:102A230027A802120FA958A802120FA97BA8021205
:102A33000FA984A802120FA9B3A802120FA943A9D0
:102A430002120FA9F9A902120FA96EAA02120FA965
:102A530015AB02120FA98AAB02120FA9C1AB021266
:102A63000FA9FFAB02120FA945D203120FA9E4D19C
:102A730003120FA9BAD103120FA9A6D103120FA9EA
:102A83009CD103120FA92FD103120FA960CF0312F8
:102A93000FA91ECF03120FA92CCE03120FA900CE2C
:102AA30003120FA96DE304120FA916E304120FA971
:102AB300B7CD03120FA9F4CC03120FA99DE10412A1
:102AC3000FA9EFE004120FA9D3C903120FA996C7E8
:102AD30003120FA963C703120FA90AC703120FA991
:102AE3009DC603120FA95CC603120FA93CC60312AD
:102AF3000FA975C503120FA90FC503120FA9AEC401
:102B030003120FA94EC403120FA925C303120FA961
:102B1300B9C203120FA911C203120FA90CC20312E7
:102B23000FA900C203120FA93BBE03120FA915BEC2
:102B330003120FA9B3BD03120FA952E004120FA988
:102B430048E004120FA9DDDF04120FA9C9DF041244
:102B53000FA919DF04120FA91FDE04120FA940DD0C
:102B630004120FA954BD03120FA941BD03120FA9EB
:102B730036BD03120FA905BD03120FA996DA04127D
:102B83000FA921BB03120FA9A8BA03120FA93FBAB9
:102B930003120FA9B2B903120FA9A8D904120FA9DE
:102BA3006EB903120FA93AD904120FA93283041282
:102BB3000FA947B903120FA9E5D804120FA990D89A
:102BC30004120FA963D804120FA930D804120FA955
:102BD30008D804120FA9A9D704120FA989D7041280
:102BE3000FA954D704120FA918D404120FA9EDD1B9
:102BF30004120FA9DDCF04120FA95ACF04120FA993
:102C03000ECF04120FA9FCD203120FA9C2CE0412D5
:102C13000FA91CCE04120FA93EDC0300000080FBA9
:102C230087000100EE1C35000400B61C25000200DD
:102C3300BA1C26000200BC1C27000200BE1C280090
:102C43000100C81C29000100C91C8400040090195C
:102C530086000100B21B2A000100CA1C2B000100E0
:102C6300CB1C2C000100D01C2D0008009C192E0049
:102C73000100D11C2F000100D21C30000100D31C25
:102C830031000100D41C32000100A41933000100FB
:102C9300A51934000100D51C36000100A61938001F
:102CA3000100D61C39000100CF1C83000200EC1C7C
:102CB30063000100B21964000100CC1C650001002F
:102CC300CD1C6D000100B319710008009419660052
:102CD3000100EB1C43000100DC1C44000200DD1C6E
:102CE30045000100DF1C46000200E01C470008000D
:102CF300AA1948000100E21C4B000100E31C040078
:102D03000100EF1CA1000100F21C37000100F11CBF
:102D130088000100F01C3C000100A7193D000100E0
:102D2300D71C49000200E41C67000100B4194D00E0
:102D33000200E61C4E000100E81C4F000200E91CE3
:102D43003E000100DB1C51000100A81952000100E4
:102D5300D91C53000100DA1C54000100A91900001A
:102D630000000000000136360101000102010001EC
:102D730003010001040106060502000007010034F7
:102D83000801000F090401010D0100FF0E080000F6
:102D930017020000190100FF1A0100011B0100FEC8
:102DA3001C0100081D0200001F0100012001000199
:102DB300210200002301000F24020000260100016C
:102DC30027010008280200FF2A0100072B01024007
:102DD3002C0100002D0100012E0100012F0100FF35
:102DE30030010B1D310800003A0100083B01000FC0
:102DF3003C0100013D0100FF3E04000042040000CD
:102E0300460400004A0400004E040000520400007F
:102E1300560400005A0400000400030020018B92B2
:102E2300000000002001879200000100200187922A
:102E330000000200200187920000004042013B9104
:102E4300000004004201F78F00000500420180905A
:102E53000000060042013B91000007003001899207
:102E6300000010004203F81B0000110030035A1841
:102E73000000120010030B1C0300000021035B1869
:102E83000000FDFF210183920300FDFF21018392D6
:102E93000600000010015D180600FDFF21818392EA
:102EA30002040000290567180204010029017D922C
:102EB3000204020029017F920204FDFF2101839293
:102EC3000A000000E20376180020202020202020A2
:102ED30020202828282828202020202020202020C7
:102EE30020202020202020202088101010101010D7
:102EF3001010101010101010100404040404040423
:102F030004040410101010101010414141414141BC
:102F1300010101010101010101010101010101019E
:102F230001010101101010101010424242424242AE
:102F3300020202020202020202020202020202026E
:102F43000202020210101010200103710301030199
:102F5300030103010301032203020301031003001E
:102F63000300030003000300030003000342030004
:102F730003240306030003000304031203250323AE
:102F83000325032303040304030003000300034492
:102F930003000300032303000365032100350381BA
:102FA30003000305030003000300030003250323B9
:102FB300030101710101010101110101013101014C
:102FC3000101018001100161013B001400630173E1
:102FD300017201620143010001130106013D013544
:102FE30000040112010001000100010001040104B9
:102FF30001330133013C0144013201360000010079
:103003000165010001350081010001050182018391
:10301300010001030271023001600211027002011A
:1030230002020202028002100261023A00410063BE
:1030330002730272026202430200021302380000AA
:103043000200020402120200020002000200020453
:10305300020402370037003C024402000239000038
:1030630002000265020002350281020002050282AB
:10307300028302000203007100300160001100703E
:10308300003102200350048000100061000000148E
:103093000063007300720062004300000013000627
:1030A3000000000000040012000000000000000007
:1030B3000004000400370037003C02440000000015
:1030C30000000000006500000035008100000005DD
:1030D3000000008300000036000100060000000F1E
:1030E3000000000000000000000000000003FFFFDC
:1030F30000000403FFFF0000FFFF0FF4010005C4FD
:10310300040320000100000B000000000000000089
:1031130003010F0000000000000000000000000099
:10312300000000000000000000000000000000009C
:103133000000000000B61BE01BBC1BF61AC21BE616
:103143001BC21BF21BC81BF61AC21BE61BCE1BF6C7
:103153001A00000000D41BF61A0000000000000053
:1031630000DA1BF61A000000000000000000000057
:10317300000000000000000000000000000000004C
:10318300000000000000000000000000000000003C
:103193000000004C1F01004C1F0200921E02808C95
:1031A3001E0300981E04009E1E0480A41E0500AA90
:1031B3001E0600B61E3000D41E3100CE1E3300E0C2
:1031C3001E3400E61E1100EC1E1400F21E1500C88A
:1031D3001EFFFF0000030003000400080010001F8F
:1031E300003E007B00F600EC01D703AF075D0FB98B
:1031F3001E713D000007ECFDFDFDECDCDCCCBCAC3E
:10320300AC9C9C8C7C7C6C6C5C5C5C4C4C3C3C2C2B
:103213002C1C1C03EAF5E5D5D5C5B5A59595858583
:103223007575656555554545353525251515050AC6
:103233000C2602D62505E22507DC250CBE250DCA82
:1032430025FF000000160F00000B150B02000222E1
:103253000F3300000E0FD0D1D2D3D4D5D6D7D8D9BF
:10326300DADBDCDDDEDF0600000010015E1806009D
:10327300FDFF218183925A6967426565416C6C69E0
:10328300616E6365303906000000100160180600A6
:10329300FDFF218183920600000010015F180600E4
:1032A300FDFF21818392303017181921301B1D1F18
:1032B3003000034D4C4651181A250502000119161A
:1032C30018161618230300003C40423A3F3F392F9B
:1032D3004730303016181920231A1C1E300C0E02EA
:1032E3000B040B0A0708000F020402010101010984
:1032F30002E803000000BE040A0E0001000300E818
:1033030003FF04091E1E03040A0C04100828020C00
:10331300050815030474F7120B12E9901A89F0904B
:103323001A3EE4F01218C2901AA1E4F0A3F0901A26
:103333008AF0A3F012275C1218C89019C2E4F0A314
:10334300F01220F0024C7E74F0120B1274D31210A0
:103353008C1266DA54806066901A89E0F912193A81
:103363008A088B09AF09EA4F604C7C0080010CECA2
:1033730075F003A4F8A9F0743228F582743239F594
:1033830083E493F46029E493F88A828B83E0687082
:10339300DDEC75F003A4F8743328F582743239F543
:1033A30083E493C0E0740193F583D082120C8AAA5C
:1033B30008EFFB121928126E0C6480023719851866
:1033C30082851983A3E05420601F1226728A088B1A
:1033D30009AF09EA4F600A1225CAAA08EFFB1219BE
:1033E30028126E0C6420023719851882851983E030
:1033F300A2E05042901A43E0640F702E9009A2128B
:103403006E179009A2C3E094E9A3E09403400A7AFB
:10341300007B809018B4124D6079001225A0E960FA
:1034230009901CB61212BC1225B88518828519831F
:10343300E064010236FE542070030237037A207BD6
:1034430000901A89E0F9121A9CEA4B4C4D701A90BD
:103453001A9D1212E0E8494A4B700E75080175096E
:1034630000750A00750B00806D750C00750D0075F5
:103473000E00750F00121AA88A088B098C0A8D0B8F
:10348300901A9D1212E0E8494A4B6031901A9D78D8
:1034930008120F43400E750CFF750DFF750EFF7577
:1034A3000F7F801985080C85090D8C0E8D0F901ADE
:1034B3009D780C1210747401780C121043850C085B
:1034C300850D09850E0A850F0BE5084509450A4553
:1034D3000B700302365D7C0079047A007B001226B0
:1034E300488A0C8B0DAE0CAF0D0235A1740212127B
:1034F300F774FFF074031212F774FFF074041212DE
:10350300F774FF124DD3126594740712106C12688E
:103513004AE96401706A1237254480F8A3E0F9741C
:10352300281212F7E8F0A3E9126ADEE0C0E0742A79
:103533001212F7D0E0124DC054086016742812120C
:10354300F7A3E04401123732C0E0742C1212F7D013
:10355300E0F012671D6011E8240B123F18F874168F
:103563001212F7E8F0A3E4F090925D120E2A7406AB
:1035730012106C740B12106412225E7404120FF496
:103583008E828F83A3A3A3A3A3A3A3A3A3740612CF
:103593003732F912262A74051212F71268A1EE4F78
:1035A300700302365D7C007904EEFAEFFB122648C5
:1035B30074051212F7EAF0A3EB124AEAE0F50CA342
:1035C300E0F50DE4F50EF50F7808790C121227409B
:1035D30023EE2404F8E43FF985080C85090D88825D
:1035E300F583C3E0950CF0A3E0950D126F01E84954
:1035F30070A4800C8E828F83A3A3A3A3E4F0A3F013
:103603008E828F83A3A3A3A3A3A3A3A3A3A3E064F3
:10361300018E828F83A3A3A3A3A3A37020E05404EA
:1036230060030234EF8E828F83A3A3A3A3A3A3A378
:10363300A3A37406F07AB7123858023599A3A3A34B
:10364300A3E060030234EF8E828F83A3A3A3A3A31B
:10365300A3A3A3A37401F00235991226187C007961
:10366300017A007B00122648EA4B6003124D597C15
:103673000079047A007B00122648EA4B70138044D9
:103683008A828B83A3A3A3A31268B9EE98EF994010
:103693000B8A828B83A3A3A3A31268A17C00790462
:1036A3001226488B0BA90BEA4970D5C3E5089EE5A2
:1036B300099F500DC3EE9508FEEF9509FFEE4F707D
:1036C3000D124D59901A9D12372BA3F08024EE2E24
:1036D300FEEF338E08F509E4F50AF50B7808120FAF
:1036E300BE7A20123901120FF4121AA8901A9D12F1
:1036F30012C8851882851983E06420FAA3E0801636
:10370300A3E054046013125F71122B647901124019
:10371300DF126E0C6404FB80047A007B00742D02BC
:1037230066F9EE126707E022E4F0A3F0A3F0221299
:103733004DC5A3A3E022C082C08374EA12108C7C1F
:10374300167D007900AA18AB1912190A740812120F
:10375300F77402F0901A321261AD123779740912BC
:1037630012F71261C574131212F7E4125E441220A9
:10377300E4741602508FE8F0A3E9F0901A3C126843
:10378300892274F7120B1274DA12108CEAFEEBFF23
:10379300EA4F602DAC18AD1912269074061212F779
:1037A300E0601E74171212F7E0FD74011212F7E0C5
:1037B300FCEEFAEFFB7900122576E9600479A48028
:1037C3000279007426024C7B74F7120B12EAFEEBAB
:1037D300FF8A82F583A3A3A3A3A3A3E054406017A6
:1037E3008A828B831266BA124F9E60067AFF7BFF32
:1037F30080151266B68003901A3212659474FE6ABD
:10380300700374FF6B60411266B61266E0122726DE
:10381300E98E828F83600B1262A3126ECCE4F0A355
:103823008003126EBBF07CA67D258E828F831246A9
:1038330014E9F5087015EE4F60097901EEFAEFFB14
:10384300122624A908024C7E7508CDAA08123858FE
:10385300E960E380EE8E828F831262A7240CF582E7
:10386300E438F583E0F91225B22274F6120B12E95B
:10387300FEEAFF7A0F7B00121922EA4B601A8A8252
:103883008B83740CF0EEA3A3F0EF8A828B83124A2E
:1038930039125EA27900802BEEF912264E8B09A90C
:1038A30009EA49601C8A828B83A3A3A3A3A3A3A3CE
:1038B300A3A37406124A42E0F9122300EEF912267A
:1038C3002A7910025C8D74F4120B128A088B098C0E
:1038D3000A8D0B901A43E0640F701EEA4B4C4D6047
:1038E30018901A3EE064086005E06404700B7808E1
:1038F300120FBE1238FF120FF4023B647A017B00F1
:10390300901A89E0F9121A8A74042274F4120B12C1
:1039130074FC12108CEAFEEBFF8A82F583A3A3E00A
:10392300F912264E8A088B09EA4B7003023A478E36
:10393300828F83A3A882A983E0C0E0EA125E98D0B5
:10394300E01248A864F160288E828F83A3E064CDDF
:10395300601E8E828F83A3E0641A60148E828F832D
:10396300A3E064E9600A8E828F83A3E064E170338D
:103973007900122624E9602BE5082404F50AE435CE
:1039830009F50B850882850983A3A3A3A3A3A31227
:10399300497E1248861218D4850A82850B831266E3
:1039A300E080708E828F83A3E0C0E074021212F76E
:1039B300D0E012509D1251C012432EC0E074031286
:1039C30012F7D0E0F0E508126B89123FD7E0AA188E
:1039D300AB197005122258800312270E74021212BB
:1039E300F7E064E9702D85088285098312413D75EE
:1039F3000A01780A120FCA750AE9780A120FCA1265
:103A0300485A1242FBFCA3E0FD8A828B83124325B2
:103A1300120FF4850882850983A3A3A3A3A3A3A3F9
:103A2300A3A3E064027012850882850983A3A3A37C
:103A3300A3A3A3A3A3A37406F08E828F83A3A3E0FF
:103A4300F912262A122618901CBC123F497404024C
:103A53003B6174F4120B12EAFEEBFF7508008A82D5
:103A6300F583A3A3A3A3A3E06038750808126587B1
:103A730079FF1223D8EA4B601075082C8E828F834E
:103A8300A3A3A3A3A3E0D2E0F08E828F83A3A3A377
:103A9300A3A3E0540364016003023B5043081102F3
:103AA3003B50EA24181254866036EA241A125486CC
:103AB3006003F470131268697003A3E06960030282
:103AC3003B50750822023B50EA241B123B54241A34
:103AD300125486FAEE2419125486F91222EE806DDE
:103AE3008A828B83A3A3A3A3A3A3A3A3A3123F3479
:103AF30070037508018E828F8312686D7003A3E0D3
:103B0300697006E508D2E1F508E50860158E828F35
:103B130083A3A3E07006E508D2E58004E508D2E6B6
:103B2300F508124F9164017006E508D2E0F5088E9E
:103B3300828F83A3A3E06015EE241D1257A5F9120B
:103B43002714E964016006E508C2E0F508A90880C6
:103B530010F582E43FF583126F24EA227409120FF1
:103B6300F47F04020D2974F0120B1274D712108C17
:103B7300EAFEEBFF8A82F583A3A3A3A3E0600E9082
:103B83001CBA1267246006901CBA123F49740312D0
:103B9300106C8E828F83A3A3A3126070126592129E
:103BA3002690E97003023CFA780174051212F7E0DB
:103BB300C394024002780074071212F7E0C3940220
:103BC30040027800740C1212F7E064F87003A3E06B
:103BD300F47003023CFA740C1212F7E064F97003F8
:103BE300A3E0F47003023CFA740C1212F7E064FAD7
:103BF3007003A3E0F47003023CFA740C1212F7E0B2
:103C030064FB7003A3E0F47003023CFA740612121F
:103C1300F7E0F9901A2CE0696003023CFAE8A2E0AD
:103C23004003023CFA74271212F7E06003023CFAE5
:103C3300EE241312687F74221212F712607A241C86
:103C430012687F74101212F71261C574091212F709
:103C5300E0601D741A1212F7E0FD74041212F7E00B
:103C6300FC8E828F831265927901122576E9703B6F
:103C730074031210641225C4E9F50C74091212F7C7
:103C8300E0702C901A26E060267422596422601F8B
:103C93007442596442701474201212F7123F2E605A
:103CA3000E74201212F7123F2760047ACF804AE97C
:103CB300A2E6504D74201212F71257AB24FD600F89
:103CC30014600C24FD600824FD600424FE70287435
:103CD300201212F7123F20700E74201212F7125D99
:103CE300D1A3E0640D601A740312106412273EE935
:103CF3006401700D023F107AD37B00121E68023FED
:103D030010EE242DF582E43FF5831241347003A3B2
:103D1300E069701D7508007808120FCA7808120F41
:103D2300CAEE242F125486F9123F3A124325120F7A
:103D3300F474091212F7E07003023DD8123F3A12ED
:103D4300659412278C8A0E8B0FEA4B7003023E692F
:103D530074041212F7E0F88E828F83A3A3E028F88D
:103D6300A3E03400F9E8240D123F18F88A828B830C
:103D7300A3A3A3E068600EE88A828B83A3A3A312A4
:103D83004A3212372C7904E91212F71254A5A3E030
:103D93002AF8A3E034008882F583A3AA82AB8312B6
:103DA30019168A088B098C0A8D0B850E82850F8361
:103DB300A3A3A3A37808120F434003023F109092DA
:103DC3003D78081211BB850E82850F83A3A3126F62
:103DD3002AA31251C9901A3EE064046008E0640902
:103DE3006003023F10E50CA2E54003023EA3EE246C
:103DF3002F12548EF0EE2430125486C0E074011258
:103E030012F7D0E0F0EE2431125486C0E0740212AF
:103E130012F7D0E0F074141212F7E0640170267404
:103E23000E1212F71248812413125486687003A3EA
:103E3300E0697011740C1212F7123F347007741496
:103E43001212F7E4F0EE2425F582E43FF583120E17
:103E53002A740412106C740712106412225E740424
:103E6300120FF4023F10901A83E064016003023DD5
:103E7300D874201212F7123F2E7009E50CA2E650F7
:103E830003023DD874101212F7E0F47003A3E0F4B8
:103E9300607BEEFCEFFD74031210641225D0806D7D
:103EA300A2E6506974201212F71262B37016741AE4
:103EB3001212F7E064027055740312106479001251
:103EC3002708804974201212F7123F277014741ABE
:103ED3001212F7E06404703574031210641226FCA6
:103EE300802B74201212F7123F20700C7900740398
:103EF30012106412274A801574201212F7125DD132
:103F0300E0640C70087403121064122756742902BB
:103F130066F9E82406F582E439F583E0221266C0E7
:103F2300E06403221266C0E06407221257AF6406FE
:103F330022124FA2640222EE242BF582E43F126F79
:103F430022EE124F7722E0F508A3E0AA08FBE4FC77
:103F5300FD1225B82274F4120B12EAFEEBFF8C0853
:103F63008D099019A4E0600F1268697003A3E069DA
:103F730070051222DC8053790012658712230C8AA4
:103F8300828B83E5824583602CA3A3A3A3A3A3E031
:103F930054186021E508241C123FD4120E2E123F40
:103FA300D0120E2EEE241812430C125A6C126841D2
:103FB300120FF4801579008E828F83A3A3A312625C
:103FC30099125A6C1265941222E2023B64E50824AA
:103FD30013F582E43509F5832274F7120B1274F793
:103FE30012108CEAFEEBFF901A3EE06403600DE0D2
:103FF30064016008E0640960030240DA8A828B830B
:10400300A3E060030240A87C007D007A027B0012DB
:1040130018CE1268E68A82126883901A2F1261C53D
:1040230079531220D2901A3EE064096009901A3C39
:104033001265941227868518828519837401125D8F
:10404300E9901A3E7404F07401121064794A122044
:10405300CC740112106C7A347B1A121AC09018B700
:10406300E0640B70057406F0800579001240DF9060
:104073001A2F12629F7A037B001218CE901A321203
:10408300629F7A047B001218CE901A29E0A2E350B3
:1040930004D2F08002C2F0125DD6901CB61212BC9C
:1040A3001225B8802FFC7D007A037B101218CE9066
:1040B30018B7E0640B7003740AF09019A8E4F0FADF
:1040C3007B40125BC68E828F83A3E0F91240DF90A0
:1040D3001A3EE4F01225FA7409024C7B901A3C1242
:1040E300659812227022C082C0839019C21267247D
:1040F3007017901A3EE024FB6005146007800A9055
:1041030019C8801F9019CA801AE8496007123F1521
:104113006401700C8A828B83A3E0F9122264800EFF
:10412300901AB81267246006125DD2120C8A0259E3
:104133001D126889901A3CE06822126889E8FAE93E
:10414300FB2274F5120B1274D812108C8A088B0997
:104153008A828B83A3A3A3A3A3A3A3A3E0C3940FE4
:1041630050030242F68A828B83A3A3A31268A1742D
:104173001512106C8A828B83A3A3A3A3A3A3A3A367
:104183001242FBFAA3E0FB12260674151212F7E0A3
:10419300702E850882850983A3A3A3A3A3A3A3A346
:1041A300E0C3940B401A8E828F83A3A3A3A3A3A37C
:1041B300A3A3E064027009EE240B125486F4600397
:1041C3000242F674171212F7E060076402600302FA
:1041D30042F6901A3EE06402601CE06406601790A9
:1041E30019C212672470030242F6123F156401607C
:1041F300030242F680259019C2126724701D7508C8
:10420300007808120FCA7808120FCAEE241012435E
:104213000C8E828F83124325120FF48E828F8312AA
:104223006EF91248B112688574021212F712607A9D
:10423300123726C0E074041212F7D0E012432EF5B1
:1042430008A3E0F509740F7808121284740512129A
:10425300F7E508F074191212F7E0C0E074061212C1
:10426300F7D0E0F0741B1212F7E0C0E074071212EB
:10427300F7D0E0F074161212F7E0C0E074091212DE
:10428300F7D0E0F074171212F7E0C0E074081212CE
:10429300F7D0E0F0EE2410125486C0E0740A121234
:1042A300F7D0E0F0741A1212F7E0C0E0740B1212A8
:1042B300F7D0E0F074271212F7E0C0E0740C12128A
:1042C300F7D0E0F0741C1212F7A982AA8389088A36
:1042D30009750A007808120FC27C087D0074101259
:1042E30012F7AA82AB8312547D120FF4AA18AB19EA
:1042F30012226A7428024DD9E0F98A828B83A3A320
:10430300A3A3A3A3A3A3A3E022F582E43FF583E041
:10431300F98E828F83A3A3A3A3A3A3A3A3A3126F43
:1043230024221265981226C6740222F0EE125A71E4
:10433300E02274F2120B1274F812108C8A0A8B0B9F
:104343008C0C8D0D8908909198AC18AD19740812D6
:104353000F22C200AC0AAD0BAA18AB191265157077
:1043630002D200901A8A8013AC0AAD0BEE240BFA2A
:10437300E43FFB126515701B124F68124BFB601E66
:10438300A20040E48E828F83E0650C7004A3E06595
:104393000D70E58E828F83A3A3E0650870DAEEFAD1
:1043A300EFFB74080248BEC082C083901A8A025988
:1043B3001AC082C083901A8AE4F0A302461074F7ED
:1043C300120B12901A8A126E12800FEA2414F582CD
:1043D300E412689E1219DCEEFAEFFBEA4B70EC90E4
:1043E3001A8AE4F0A3F0024C7E74F2120B128A0CC8
:1043F3008B0DEDFF890B8A828B83E08C828D83F09A
:10440300A3A882A9838A828B831244B5124A2CE023
:10441300C454F0FA88828983E04AF0EC2402F8E479
:104423003FF9850C828B83A3A31244B51244C8E0E1
:10443300333354FC1244BCE033333354F81244BCDA
:10444300A3E0A2E0E4331313FA88828983E04AF0FD
:10445300EC2403FE50010FE50C2407F508E4350DA9
:10446300F509750A007808120FC27C087D00EEFA80
:10447300EF12547C120FF4EE2408FE50010FE50CEA
:10448300240FF508E4350DF5097808120FC27C03F3
:104493007D00EEFAEF12547C120FF4E50BC3940F78
:1044A300400DE50C2412F582E4350D125A80F0021A
:1044B30048C1A3E08882898322FA88828983E04AFB
:1044C3001244C8A322F0850C828B83A3A3A3A32247
:1044D30074F2120B12EBFF8C0C8D0D8A82F583E0C4
:1044E3008C828D83126EE3A3A882A983E01258C540
:1044F3001248A7C41258BFF0EA126EED1258CC123C
:1045030048A5A2E2E4338C828D831248A4131313CB
:10451300541F1258C5A31248A4A2E7E4338C828D1A
:1045230083A3A3A3A3A3A3F0EA2403FE50010FF5DF
:10453300088F09750A007808120FC27C087D00E510
:104543000C2407125478120FF4EE2408FE50010FC6
:10455300F5088F097808120FC27C037D00E50C244F
:104563000F125478120FF48E828F83A3A3A3E0C09B
:10457300E0126F09D0E0F00248C174F6120B12EAA0
:10458300FEEBFF8A82F583A3858208858309E0F920
:10459300122288850882850983E064EB601E8E827F
:1045A3008F83A3E064E160148E828F83A3E064F1C0
:1045B300600A8E828F83A3E0641A70078E828F83D2
:1045C300A3E4F0901CB61212BC1225B8750801784A
:1045D30008120FCA8E828F83A3E0F5087808120FA2
:1045E300CA7900901A3C12629F901A321243251224
:1045F3000FF4122618025C8DC082C083E9901A9CC6
:104603007003E4800274018004EAF0A3EBF0025922
:104613001D1265981220EA2274F6120B12901A9C4E
:10462300E0701B7C0079017A007B00122648EA4B7C
:10463300600C8A828B8312672460031225AC025CB0
:104643008DC082C083124ADB401079FF122642E9F3
:10465300F8903312E493C3985004790180027900EF
:1046630002591D74F2120B128A0A8B0B8909C200BC
:104673008A828B83A3A3A3A3A3A3A3A3E0F91226F4
:104683004E8A0C8B0DAE0CAF0D750801EA4F60031B
:10469300024747850A82850B83126299850A8285C0
:1046A3000B83A3A3A3A3A3A3A31248861226368A2C
:1046B3000C8B0DAE0CAF0DEA4F70030248538A8288
:1046C3008B83A3A3A3A3E4F0A3F0E50A240CFAE4E9
:1046D300350BFB8A82F583E0C0E012485AD0E0F044
:1046E300E50A240D12487A240D1261BF12272C12F9
:1046F3004F801266E0E50A241112487A24111261F0
:10470300BFE50A24131268B0C0E0124F72D0E0F084
:10471300D200EE2406F8E43FF912486D1248A8547B
:104723000460030247B9901CC8E0F50A750B0074D6
:1047330007780A1211828E828F83A3A3A3A3A3A354
:10474300124864F08E828F83A3A3A3A3A3A3E0F5EF
:104753000AA3E0F50B7407780A121284E50A5407DA
:10476300FCE50960618E828F83A3A3A3A3A3A3A304
:10477300A3A37402124DD3124B70600B901A2A122A
:104783005506A3A31261C5EC700302482AEE240662
:10479300F8E43FF9E8FAE912486DF0EC24FFF50A72
:1047A300E434FFF50B7407780A1211828A82898335
:1047B300124864F080718E828F83A3A3A3A3A3A363
:1047C300E04480024746EC700575080080598E82EC
:1047D3008F83A3A3A3A3A3A3E05420600C12191CEB
:1047E300EA547F7900245F80198E828F83A3A3A369
:1047F300A3A3A3E05410601A12191CEA540F790002
:10480300240A5001098E828F83A3A3A3A3F0A3E9F3
:10481300800D8E828F83A3A3A3A37401F0A3E4125C
:1048230048B17404124AF1A20050288E828F83A3E8
:10483300A3A3A312659EF9EEFAEFFB12263CE960EF
:104843001212671D6003124893EEFAEFFB1219DC94
:10485300750800A9088067EE240CF582E43FF58310
:1048630022E0450AF0A3E0450B228882F583E05459
:104873007FF0A3E054FC22F582E4350BF583126844
:1048830089EE22A3E0F9850A82850B8312659822BB
:1048930012489A124CF022EE240FF582E43FF5837E
:1048A30022A3A3A3A31248AC221268CCE02212488D
:1048B300B522124DC9A3A3A3227403120FF47F06DA
:1048C300020D2974F4120B1274F712108C7E00126D
:1048D300264EEA4B70030249798A828B83A3A3A3F2
:1048E300A3A3A3A3A3A3E0640660030249798A8276
:1048F3008B83A3A3A3A3A3A3A3E0FF8A828B831227
:104903006EABE0C0E074081212F7D0E0124CA112B3
:1049130061B21261C5122660EF5408605785188290
:1049230085198312629F7A007B00122630EA4B704E
:1049330043126F147C007D007A007B0080228E82FC
:104943008F831257ABF47003A3E0F46027901A3CF3
:1049530012497E124C83601C7C007D00EEFAEFFB53
:104963001226308A0A8B0BAE0AAF0BEE4F70CF794B
:10497300001221027E01EEF9023B5F12498222E01E
:10498300FCA3E0FD8E828F8322C082C0838A828B48
:1049930083E58245837009901AA180068A828B83FE
:1049A300A3A3124BA460208A828B83A3A3A3A3A3F4
:1049B300A3A3E0540860E5EC4D6010124BAA70030A
:1049C300A3E06D70D780047A007B0002591D74F256
:1049D300120B128A088B09890AECFEEDFF7A147B0D
:1049E300001219D6EA4B60378A828B83A3A3A3A351
:1049F300A3A3A3A3A3E4124A42E50A124C8DEEF04B
:104A0300A3EF124A32124CA8124A398A828B8312BC
:104A13006F2C124A2512661BA3124A2CF0A3F00234
:104A230048C1EA240FF582E422126EE7A3A32212FF
:104A33004C93E4F0A322A3F0126EA412661B22127D
:104A43004A4622124C97A3A3A3A32274F5120B1276
:104A5300EAFEEBFF890A8C088D09EA4F6075740141
:104A63006970127901122642E9F8903314E493C372
:104A7300985015800A7404697009124ADB50097949
:104A8300118052740269704B8E828F83A3A3A3A3F8
:104A9300A3A3A3A3A3E50A124AEA1251C01267A56E
:104AA300A3E4F0A3F0901AA1126724601880031204
:104AB300688588828983A3A3124BA488828983A3F0
:104AC300A370EC8003901AA1EEF0A3EF124AF179E0
:104AD30000800279C1024DDC7904122642E9F89084
:104AE3003313E493C398221267A9A3A3A322F07AF2
:104AF300207B00901A89E0F912196422C082C083D6
:104B0300E9F87900901AA1801D8A828B83A3A3A35D
:104B1300A3A3A3A3A3A3E068600574FF68700109BE
:104B23008A828B83A3A3124BA470DE02591D74F7F0
:104B3300120B12EA4B7005901AA180068A828B83AE
:104B4300A3A3124BA4601F8A828B83A3A3A3A3A353
:104B5300A3A3A3A3E06970E4EC600F8A828B8312A2
:104B63004B7070D880047A007B00024C7E126EC4B6
:104B7300E0540422C082C083901AA180068A828BEB
:104B830083A3A3124BA460128A828B83A3A3A3A340
:104B9300A3A3A3A3E06970E580047A007B00025914
:104BA3001D126598EA4B228A828B831257AF6C22BF
:104BB30074F2120B128A0A8B0B8C0C8D0D75080084
:104BC300750900EA4B602A901AA180068E828F83B2
:104BD300A3A3124BFB601AAC0CAD0DEEFAEFFB85F1
:104BE3000A82850B83120C8AE9640170DF8E088FB9
:104BF30009AA08AB090248C1E0FEA3E0FFEE4F2279
:104C030074F7120B12901AA11268857C007D008044
:104C13000DE8FCE9FD88828983A3A3126885E8492E
:104C23006030EA687002EB6970E7901AA11265942C
:104C3300E86A7002E96B88828983A3A3700812680B
:104C430085901AA180091268858C828D83A3A31293
:104C530061C5802774F7120B12EAFEEBFFEA4F607F
:104C63001512265A124CDC12671D6003124893EE8C
:104C7300FAEFFB1219DC8003120FF47F01020D29F6
:104C83001265981220F6E9641A22124C93A3A32208
:104C9300124C9722F08A828B83A3A3A3A322126EC2
:104CA300E71257AF22124A46A32274F6120B129050
:104CB3001AA11268A180141268BE124CDC12489328
:104CC300EEFAEFFB1219DCAE08AF09EE4F70E89075
:104CD3001AA1E4F0A3F0025C8D8E828F83126E988A
:104CE300F583124CF08E828F83124CF022E0FAA3EC
:104CF300E0FB1219DC22C082C083EAFCEBFDEA4D23
:104D03006017EA24FBF582EB34FF12672270071267
:104D13004D4EE0F460071219287905802B901A890B
:104D2300E0C0E0124D4ED0E0F090330BE493F97AFB
:104D3300A37B1A12195EE96401700B7A007B2012BF
:104D43004D5D79008002790402591DEA24FFF58242
:104D5300EB34FFF583227A207B00901A89E0F91265
:104D630019642274F4120B12A2AFE433F508C2AF34
:104D7300901AA3124BFB6038EE24FBF582EF34FF4D
:104D83001267227A007B20901A896005124D608099
:104D930005E0F912196AE4F50AF50B780A120FC651
:104DA300EEFCEFFD7AA37B1A1219587402120FF46A
:104DB300E508A2E092AFEEFAEFFB023B64124DC5A9
:104DC300E022124DC922124DD3A3A3A3A3A3A3226E
:104DD300F08E828F8322120FF47F03020D2974F267
:104DE300120B1274FA12108CEAFEEBFF7508FE75B3
:104DF30009FF12261EE960057911024F63125483DD
:104E0300603C901CE3E0C43354E0F8E0333354FCDB
:104E130048C0E0EE125E923FF583D0E01268E0FAFC
:104E2300A3E0FB79FF1223D8EA4B60127508FFEE6B
:104E3300240F1254864404F0125483D2E0F08E827D
:104E43008F83124F9C6006EE24121268F8EE24132F
:104E5300125486700D903308E493C0E0124F72D061
:104E6300E0F08E828F83E0A2E7500454038019EEB2
:104E730024141254867012901A1BE0C0E0124F687B
:104E8300D0E0F0901A1BE004F0EE24111254866473
:104E9300017016901CCCE0600D901A26E0700A8E0B
:104EA300828F83E070031268F58E828F83E0640142
:104EB3007013EE240B1257A564027009EE240F122F
:104EC30054864440F0AC18AD19EEFAEFFB12268A73
:104ED3008A0A8B0B74FE6508700374FFF470031267
:104EE30068BEEA4B60768E828F83E0C0E074011265
:104EF30012F7D0E0F074041212F7EEF0A3EFF0EE25
:104F0300241E12687F74021212F71261C574011213
:104F1300105C880C890D780C120FC6EE2420124FFA
:104F230085120FCA124F80120E2EEE240E124F85D9
:104F3300120FCA901A2F120E2E74081212F7E0F9EC
:104F4300AC08AD091226847408120FF4E9FE74103C
:104F53006E700BAA0AAB0B1219DC80027E10EEF9FD
:104F630074060248BEEE2414F582E43FF58322EE74
:104F7300124F77222413F582E43FF58322EE124881
:104F83009B22F582E43FF583E0F50C780C228E82B8
:104F93008F83A3A3A3A3A3A3A3A3A3124FA222E03C
:104FA300FAA3E0FB122726E922C082C08374D7123A
:104FB300108C908EB1740312106C7426120F228A17
:104FC300828B83A3A3A3A3126885740E1212F71214
:104FD300672A126885740C1212F71250A5240D1259
:104FE3005095C0E0741A1212F7D0E0F01266211245
:104FF300688374201212F71250A52415125095C01D
:10500300E074081212F7D0E0F0EA241CF582E43BC6
:1050130012688374121212F71250A52411125095BC
:10502300C0E074091212F7D0E0F0EA24121250958E
:10503300C0E074071212F7D0E0F0EA241EF582E410
:105043003B12688374241212F71250A524201250C5
:1050530095C0E074261212F7D0E012509D74FFF051
:1050630074011212F774FFF074021212F774FFF056
:1050730090925D120E2A740412106C74071210645D
:1050830012225E7404120FF479007429120FF402D1
:10509300591DF582E43BF583E022F08518828519DA
:1050A3008322E8F0A3E9F0EA2274F4120B1274EC01
:1050B30012108C8A0A8B0B8C088D09E9FF7E107AFB
:1050C300217B001219D6851882851983EAF0A3EB98
:1050D300126734E84970030251B97C217D007900DD
:1050E300851882851983E0FA12190A901A3C126511
:1050F300948518828519831262A32409F582E43802
:10510300F5831266E074201212F712688574111287
:1051130012F7E81258141266E638F583740212582F
:1051230017126EB274021258011251C0125817129C
:105133006E8FEFF074221212F71257C2F9A3E0C96F
:10514300126B8939F583E81254D7A3E0C9241FF5FC
:1051530082E4391251C774231212F712659474064C
:105163001212F71266E074081212F7E8F0742612AE
:1051730012F71266BAC082C083740C1212F7AC82A3
:10518300AD83D083D0827405120F2274251212F7D7
:10519300E0C0E074131212F7D0E0F07900AA18AB64
:1051A30019122624E9640170047E0080098518829F
:1051B300851983124896EEF97414023B61E508F0F1
:1051C300A3E50922F583E50AF0A3E50BF02274F0C9
:1051D300120B1274FF12108CEAFEEBFF8C088D0980
:1051E3008A82F583A37408F0EA24161254866008B1
:1051F3008A828B83A37410F0EA2417125486600901
:105203008A828B83A3E02408F0EA12548460088A1C
:10521300828B83A3E004F08A828B83A3A3A3A3A33B
:10522300A3E060198A828B83A3A3A3A3A3A3A3E010
:10523300C3332402F88A828B83A3E028F0EA241183
:1052430012548E6004740E8001E4F0901CDBE06461
:105253000170168A828B83E06401600D9019A8E0C7
:10526300600712546E7401800412546EE41254D712
:105273008A828B83A3E0F8EA12372628298C828D51
:1052830083F0EA24111254866005125AAF29F0857F
:105293000882850983E0C394754009750C00750D78
:1052A30000025465E0FA7B001219D68A0C8B0DEAD2
:1052B3004B70030254658E828F83E0FA901A2C128E
:1052C30054D074027808121182EA4508FAAB09EE49
:1052D30024121254CA74067808121182A808EA48E4
:1052E300FCEBFD1254836004780180027800EE2405
:1052F30016FAE43FFBE4C8F9ED49FDEE241112541C
:1053030086F508880974097808121182ED4509FDAC
:105313008A828B831254D0740B7808121182ED4564
:1053230009FDEE24171254CA740C7808121182ED89
:105333004509FD8E828F83A3A3A3A3A3A31254D0F5
:10534300740A7808121182ED4509FDEE24231254E4
:10535300CA740D7808121182ED4509F9EC850C82A7
:10536300850D83F0E9A3F0EE24021254AD1254EC40
:10537300F0EE24041254ADA3A31254ECA3A3F0EE55
:1053830024131254BDF0EE24141254BDA3F0750B74
:10539300088A828B83E0601512679612629FE50C80
:1053A3002408FAE4350DFB121AC0750B10EE24170E
:1053B300125486601912632212629FA80BE50C280F
:1053C300FAE4350DFB121AC07408250BF50B8E8217
:1053D3008F83A3A3A3A3A3A3E0604EEE2407F50E3C
:1053E300E43FF50F850E82F583E0C0E012549CD0B4
:1053F300E01254DCE0C0E00812549ED0E01254DC0A
:10540300A3126710120FC2850E82850F83E0125715
:1054130076A80BE50C28125478120FF4850E8285BA
:105423000F83E0C333250BF50B1254836008C0E0F0
:1054330012549CD0E0F0125A6C126710120FC21271
:105443003725FC7D0074031212F71254A5E0F8E52A
:105453000C28F8E4350DF9E82AFAE43912547C12E1
:105463000FF4AA0CAB0D74010266F9EA2423F5824A
:10547300E43FF58322FAE4350DFB1218FE74032290
:10548300EE2415F582E43FF583E022F582E43FF54F
:1054930083E085188285198322A80BE50C2812570F
:1054A3008922E0FA8E828F83A322F8E43FF988826F
:1054B300F583E0850C82850D8322F582E43FF58335
:1054C3001254F6A3A3A322F582E43FF583E0F50883
:1054D30075090022126ED5F922F0050B8E828F8397
:1054E300A3A3A3A3A3A3A3A322A3A31268CCA3123E
:1054F30054F622E0850C82850D83A3A3A3227403B3
:10550300023B611268898E828F83A3A32274F012F7
:105513000B1274FD12108C1266DA74021212F7E980
:10552300F08C0C8D0D750B017C267D007900AA0C87
:10553300AB0D12190A74021212F7E0C39408500358
:105543000256FF1254B5F0AC0CAD0D8518828519C7
:10555300831257ABFA851882851983125DD1125ACB
:10556300A8E96003750B008518828519831266BA52
:105573001257CCE0F9EA850C82850D83A3A3A3A37C
:10558300A3A3A3A3A3F0A3E9125801A3A31257CC87
:10559300A3A3E0F9E50C126739EA12581412628FDB
:1055A300C0E0E50C2411126F0DD0E0125817240748
:1055B300F582E438F583E0C0E0126F09D0E01266AB
:1055C300CD74081257F8A3E06026851882851983E5
:1055D300E02408F8A3E03400F9E50C2413F582E491
:1055E300350D1261C3850C82850D83A3E02408F079
:1055F300850C82850D83A3A3A3A3A3A3A3A3E06028
:105603002A850C82850D83A385820E85830F12570D
:10561300B9F8A3E03400F9E50C125E92350D12617E
:10562300C3850E82850F83E02408F012577DE4F0D2
:10563300125791E4F0A31266CDA3A3A3A3E06011D4
:105643001257DD850C82850D83A3A3A3A3A3125850
:1056530009E50C12579EE070030256EB1257DDFA70
:1056630012577DEA125809F8851882851983E028B4
:10567300FBA3E034008B82F583E0F8E50C241A12D7
:105683006F0DE8125809E8C39AE50C505612579962
:10569300F890330CE493C39850047E0C8006E50C19
:1056A300125799FE850C82850D831257B8F508A30E
:1056B300E03400F509750A007808120FC2EE12579C
:1056C300767A187B0B12547D120FF41257917418CB
:1056D300F0A3740BF0EEC333F8850E82850F83E0DD
:1056E30028800412579EE4F0850C82850D83A3E085
:1056F300F8850C82850D83E0C3985004790080708F
:105703001257B8FAA3E03400FBE50C1268EF126FEE
:10571300101266E0850C82850D83E0C398C0E0E536
:105723000C2417126F0DD0E01257F8E06040E50C1F
:105733002417FEE4350DFF8E82F583E024F2F0E5B5
:105743000C241DF8E4350DF98882F583E0240EFA64
:10575300A3E03400FB888289831266E0901A27E075
:10576300F912257CE9F88E828F83E0C398F0A90BA8
:105773000266F725E0FCE433FD22E50C1257832291
:10578300241912578922F582E4350DF58322E50C9D
:10579300241B12578922125783E0221266C712571D
:1057A3008C22F582E43FF5831257AF2212688EF5FF
:1057B300838882E022A31257BD221257C22822E017
:1057C300F8851882851983E022A3A3E0FA8518825D
:1057D3008519831266C0A3A3A322850C82850D833A
:1057E300A385820E85830F1257BDFAA3E034008A86
:1057F30082F583E0221266D1A3A3A3A3A3221258A6
:105803001CF583888222F0850E82850F83E004F0E5
:1058130022F0A3E912581CC822126ED9F8A3E02281
:1058230074F4120B128A088B09EA1258CCA3A3F062
:10583300EA1313543F1258BFA3F0EAC413131258C8
:10584300CC1258D67409780A1212841258B6A3A33C
:10585300A3A3A3A3F0EB1258B81258D5740A780A7D
:10586300121284E50A5401C0E0EC1266C73DF583C9
:10587300D0E01258DA740B780A1212841258B61256
:1058830058D3740C780A1212841258B6A31258D340
:10589300740D780A121284E50A5401C0E0EC242442
:1058A300F582E43DF583D0E0F0740E78081212849B
:1058B300023B50E50A54018C828D83221258C5A302
:1058C300A322540F8C828D832254038C828D8322D6
:1058D300A3A3A3A3A3A3A3F08A0A8B0B22C082C012
:1058E3008379008A828B83A3A3A3A3A3A3E0901A43
:1058F30026600EE0701F8A828B83A3A3E07016805C
:1059030012E06011126587901A2FE06A7003A3E01A
:105913006B600279018003126594D083D082020FF9
:10592300A674F2120B128A0A8B0B890CECFEEDFFA4
:105933008A828B83E0FA125AA8850A82850B83A395
:10594300A3125A9CE0F9EA8E828F83A3A3A3A3A395
:10595300A3A3A3A3125AC1125A9CA3A3E0F9125AF8
:105963006CEA125AC1A3A3E0C0E0EE2411F582E46D
:105973003FF583D0E0125AC8A3A3A3E0C0E0EE240E
:1059830012F582E43FF583D0E01267A57408124A4A
:10599300EAA3A3A3E06017E50A2408F8E4350BF9AA
:1059A300124F72E8F0A3E91267A5E02408F08E8293
:1059B3008F83A3A3A3A3A3A3A3A3E060188E828FC3
:1059C30083A3125A8BEE24151261BF8508828509C1
:1059D30083E02408F08E828F83A3A3A3A3A3E060B4
:1059E300248E828F83A3858208858309E0F8E50AE4
:1059F30028F582E4350B125A80A3A3F0850882852B
:105A03000983E004F0EEFAEFFB12269CE9F50D7032
:105A1300498E828F83A3A3A3A3A3A3125A7AA3704D
:105A230014E0F8E50A28FAE4350BFB125A62126611
:105A3300E0E50C801A125A8BE8240EF8500109EEA7
:105A4300241D1261BF125AAFF9E50CC39924F2C3A6
:105A530098C0E0EE126319D0E0F0A90D0248C1EE40
:105A6300241DF582E43FF58322EE125A7122240BA2
:105A7300F582E43FF58322E08E828F8322F583E073
:105A83008E828F83A3A3A322858208858309E0F8EE
:105A9300E50A28F8E4350BF922E0FA850A82850B3A
:105AA30083A3A3A32212690112269622901A27E048
:105AB300F912257CE9F8850882850983E022F0A3A1
:105AC300E9125AC822F0850A82850B83A3A3A3A3F4
:105AD30022C082C0837AAF7B1A79E21220CC7AAFDC
:105AE3007B1A02591DC082C083901A2F02591AC013
:105AF30082C083901A3202591AC082C083794A1233
:105B030020CC02591D74F6120B12901AB7E0FE0452
:105B1300F0EEF912264EEA4B70F0EE60EDF9025CFE
:105B23008D74F2120B12EAFEEBFF8C088D09890AC1
:105B330012278C740E1212F7E0F9740F1212F7E0A9
