:020000040000FA
:06000000020BAA0202DB64
:03002B0002098344
:030043000208515F
:0300530002021096
:1000830002026F0100F0FF0700080000FFFF0000FD
:10009300050400000003000147726F757000FF0440
:1000A30000100020FD0002000052110000000000BB
:1000B30000B2110000000000002E1100000000003B
:1000C30000000000003A11000000000000000000E2
:1000D30000000006FFFF011E124261736564206F7A
:1000E3006E2054492043433235333001010401006B
:1000F300010005AC86028D874E1500009C1500009B
:1001030000000000000000000000000000000000EC
:10011300020401000100011B880117884E1500002D
:10012300A215000000000000000000000000000015
:1001330000000000030401000100011B880117886F
:100143004E150000A815000000000000000000008C
:100153000000000000000000040401000100011B76
:10016300880117884E150000AE150000000000003E
:100173000000000000000000000000000101010475
:100183000000D914000000E8030000FFFF2A150156
:1001930088130000E803000064006400B801A0BBFA
:1001A3000D00A0BB0D0002020207040101051E029F
:1001B300051E020A0A010108080103B80B02803E6A
:1001C3000102FEFFE8030A050001FFFF020A140112
:1001D300E00200000005030101FF0F030003000319
:1001E3000003000300030003000300030005000AEB
:1001F30000140028004F009E0000004E290000005C
:1002030000222800000000FF000000FF00C0E0748F
:10021300F11204F2A2AFE433F509D2AF85A708AF18
:10022300A1EF5508FE74105E6006120EBE75A1EFB5
:1002330074085E6008120EC475A1F78024EFA2E073
:1002430092F0E508A2E082F05017906198E0F890F0
:1002530006A8E0C398A2D265D0335002E8F075A196
:10026300FEE509A2E092AF7F02020551C0E074F2FD
:100273001204F2A2AFE433FED2AF9061A4E0F875AA
:100283009B00E59158540860087591F7120F12808E
:1002930023E59158541060087591EF120F188014DC
:1002A300E591A2E092F0E8A2E082F05007E0C2E01C
:1002B300F01210629061A3E0F8E5E9585404600E6F
:1002C30012103875E9FB906193E0A2E640F2EEA2CA
:1002D300E092AF7F01020551C0E074F21204F2A272
:1002E300AFE433FED2AF9061A5E0F8E5BF58540404
:1002F300600675BFFB12107A80D4C3E498F8E499C2
:10030300F912033E8026C3E49AFAE49BFBE920E753
:10031300E912033EE498F8E499F922C3E498F8E477
:1003230099F912033EE498F8E499F9C3E49AFAE4DC
:100333009BFB22EB20E7CFE920E7E0B90010BB00ED
:1003430008E88AF084F8AAF022E4FBC8FA22EB70EA
:10035300227B10C833C8C933C9335007C39AC3DBE0
:10036300F280069A50012ADBEAC833F4C8C933F491
:10037300C9FA2275F008E4C833C8C933C933C99A26
:10038300C99B5004C92AC93BD5F0ECFBC833F4C858
:10039300E4C9FA22080808EAC0E0EBC0E086F0E707
:1003A300A4FA180986F0E7A42AFA180986F0E7A444
:1003B3002AFA180986F0E7A42AFA1986F0E7A4FBBB
:1003C300E5F02AFA190886F0E7A42BFBE5F03AFAE0
:1003D300190886F0E7A42BFBE5F03AFA181809860A
:1003E300F0E7A4C5F02BFBE43AFA1908E7C5F0C619
:1003F300A426F6E5F03BFBE43AFA1886F0E7A4F608
:10040300E5F00826F6E43B08F6E43A08F6D0E0FB0C
:10041300D0E0FA22E4CFC0E0E4CEC0E0E4CDC0E017
:10042300E4CCC0E075F020E626F608E633F608E6ED
:1004330033F608E633F6181818EC33FCED33FDEE0B
:1004430033FEEF33FFC3EC9709ED9709EE9709EFFE
:1004530097191919400FFFEC97FC09ED97FD09EE69
:1004630097FE191906D5F0BFECF709EDF709EEF77A
:1004730009EFF7191919D0E0FCD0E0FDD0E0FED068
:10048300E0FF222518C582C0E0E51934FFC583C00B
:10049300E0E518C3958224F810AF08858319858297
:1004A300188008858319858218D2AFCEF0A3E52082
:1004B300F0A37808E608F0A3DEFAEFF0A3E58124C1
:1004C300FAF8E608F0A3E608F0A3E608F0A30808A4
:1004D300E608F0A3E608F0A315811581D0E0FED06D
:1004E300E0F8158115811581E8C0E0EEC0E022C077
:1004F300D02518C582C0E0E51934FFC583C0E0E507
:1005030018C3958224F310AF088583198582188058
:1005130008858319858218D2AFC8F0A3E9F0A3EA4E
:10052300F0A3EBF0A37908E709F0A3D8FAECF0A362
:10053300EDF0A3EEF0A3EFF0A3D0E0F0A3D0E0F052
:10054300A3D0E0F0A3E520F0A3E5F0F0A322851902
:1005530083851882E0C0E0A3E0F9A3E0FAA3E0FBFF
:10056300A37808E0F608A3DFFAE0FCA3E0FDA3E02C
:10057300FEA3E0FFA3E0C0E0A3E0C0E0A3E0F5D06A
:10058300A3E0F520A3E0A3F5F010AF088583198558
:1005930082188008858319858218D2AFD082D083D0
:1005A300D0E0F8D0E032120C24B900030205E8E4ED
:1005B30090040178C979148002F0A3D8FCD9FA7A9F
:1005C300C97B17900086788B79028015E493A3ADDD
:1005D30082AE838A828B83F0A3AA82AB838D828EC1
:1005E30083D8E9D9E77582A87583AC740512091419
:1005F3007582147583257400120914E47375F01061
:100603008E1A8F1B85821F85831E85188285198309
:10061300E0CEA3E0CF851F82851E83EBC9EAC8ED38
:10062300CBECCAC3E833C8E933C9EA33CAEB33CBEB
:10063300C3EA9EF51DEB9FF51CB35004AB1CAA1D2A
:10064300EC33CCED33CDD5F0DAAE1AAF1B22D08329
:10065300D082ECC0E0EDC0E0E493A3FCE493A3FDFF
:10066300ED4C600D120729EC24FFFCED34FFFD80F7
:10067300EFE493A3FCE493A3FDED4C600D1207FCA0
:10068300EC24FFFCED34FFFD80EFD0E0FDD0E0FC77
:10069300E493A3C0E0E493C0E022D083D082E9C016
:1006A300E0E493A3C386F0C5F095F0F908E493A3BF
:1006B30086F0C5F095F0700BE493A3C3994005E968
:1006C300048002A3E475F002A42582F582E5F035E7
:1006D30083F583D0E0F9E493A3C0E0E493C0E02280
:1006E300851983851882E0A3FEE0A3F5207808E04E
:1006F300A3F608DFFAE0A3FFE0A3C0E0E0A3C0E0B5
:10070300E0A3C0E0E0A3C0E0E0A3C0E010AF088531
:1007130082188583198008858218858319D2AFD002
:1007230083D08202091AC0E0C3E49396087401934C
:100733009618400FE4936670080874019366187066
:10074300007019A3A3C3E49396087401939618A3A6
:10075300A3400DD0E0D0E0D0E002068DA3A3A3A375
:10076300A3A3D0E022C082C08374FE120A3085188E
:1007730082851983EAF0A3EBF07C017D00AA18AB14
:10078300197900120E46851882851983E0FAA3E0D1
:10079300FB7402120932D083D08222740480047461
:1007A300028000CCC0E0EDC0E0E518C39CCCAD19DD
:1007B30050011D10AF068C188D1980068C188D19E9
:1007C300D2AF120896D0E0FDD0E0FC227402800084
:1007D300CCC0E0EDC0E0E518C39CCCAD1950011DC1
:1007E30010AF068C188D1980068C188D19D2AF1294
:1007F3000874D0E0FDD0E0FC22C0E0C0F088F0E453
:10080300936670080874019366187000A8F0A3A398
:10081300700BD0F0D0E0D0E0D0E002068DA3A3D0DF
:10082300F0D0E022D083D082CCC0E0E493A3600672
:100833001208B71470FAE493A36006120A1A14702C
:10084300FAD0E0FCE493A3C0E0E493C0E022C0E06C
:1008530074F21204F2A2AFE433FED2AFC2C0E5D108
:10086300A2E45003120E2EEEA2E092AF7F01020526
:1008730051CAC0E0E493A3C582CCC582C583CDC56C
:1008830083F0A3C582CCC582C583CDC583DAE5D009
:10089300E0CA22CAC0E0E0A3C582CCC582C583CD2D
:1008A300C583F0A3C582CCC582C583CDC583DAE6F3
:1008B300D0E0CA22C0E0E493A3D39C5010E493A3F6
:1008C300C39C400AD0E0D0E0D0E0020844A3A3A335
:1008D300D0E022C008C3E096F50808A3E0964208DA
:1008E30008A3E096420808A3E09645087001D3D018
:1008F30008227009080808226016181818C6C3339E
:10090300C608C633C608C633C608C633C6D5E0EA2A
:1009130022C09FF59FE473D09F22D083D082C09FD3
:10092300E493C0E0740193C0E0740293F59F220046
:10093300C0D0251810AF08F518500C05198008F51C
:100943001850020519D2AFD0D0222518F58210AF66
:1009530008F518400C15198008F51840021519D22E
:10096300AF851983227404800A740380067402809D
:10097300027401C0E0F40412094DD0E0120BE72227
:10098300C0E0C0D0E8C0E0A8A8D2AFC2C7E8A2E7E1
:1009930092AFD0E0F8D0D0D0E0326017080808C694
:1009A300A2E713C618C613C618C613C618C613C6BD
:1009B300D5E0E922BB0102E722C082C08389828A93
:1009C30083BB0003E08002E493D083D082226016CD
:1009D300080808C6C313C618C613C618C613C61814
:1009E300C613C6D5E0EA222518F8E43519F92225FD
:1009F30018FAE43519FB222518FCE43519FD22C346
:100A0300E0C696F608A3E0C696F608A3E0C696F6F7
:100A130008A3E0C696F622C0E0E493A36C7009D065
:100A2300E0D0E0D0E0020844A3A3D0E022251810D0
:100A3300AF08F518400C15198008F5184002151970
:100A4300D2AF22E066701008A3E066700A08A3E044
:100A530066700408A3E06622C3E09608A3E0960844
:100A6300A3E09608A3E096A2D265D03322E766708E
:100A7300100809E766700A0809E76670040809E7C1
:100A83006622C3E096F008A3E096F008A3E096F090
:100A930008A3E096F022C3E49396087401939608A2
:100AA30074029396087403939622C3E697F6080993
:100AB300E697F60809E697F60809E697F622700422
:100AC30022600D18C6C333C608C633C6D5E0F41872
:100AD30022E026F608A3E036F608A3E036F608A3DC
:100AE300E036F622E657F60809E657F60809E65710
:100AF300F60809E657F622E056F608A3E056F6088C
:100B0300A3E056F608A3E056F622E056F008A3E069
:100B130056F008A3E056F008A3E056F022E647F6A5
:100B23000809E647F60809E647F60809E647F62204
:100B3300E026F008A3E036F008A3E036F008A3E0CF
:100B430036F022E627F60809E637F60809E637F60F
:100B53000809E637F622E4C396F608E496F608E4B5
:100B630096F608E496F622600D08C6A2E713C618A7
:100B7300C613C6D5E0F322C6F4C608C6F4C608C633
:100B8300F4C608C6F4C622C3E7960809E79608091F
:100B9300E7960809E79622C3E09608A3E09608A320
:100BA300E09608A3E0962275D00075813F75180181
:100BB300751904000205A9E6F008A3E6F008A3E608
:100BC300F008A3E6F022600C08C6C313C618C613C8
:100BD300C6D5E0F422E0F608A3E0F608A3E0F608A1
:100BE300A3E0F622CAC0E0E6F0A308DAFAD0E0FAFE
:100BF30022E8F0A3E9F0A3EAF0A3EBF022E0F8A3E4
:100C0300E0F9A3E0FAA3E0FB22EAF0A3EBF0A3EC04
:100C1300F0A3EDF022E0FAA3E0FBA3E0FCA3E0FDE8
:100C230022E5C754F84401F5C77901222518F58256
:100C3300E43519F58322C2AF75D69F020000221254
:100C4300091DC9C90412091DC3CA0412091D73CBA6
:100C53000412091D87CB0412091DF2CB0412091DCE
:100C6300FCCB0412091D99CC0412091D47CD0412B3
:100C7300091DC0CE0412091D17CF0412091D4BCF45
:100C83000412091D1BA10412091D97A10412091DB9
:100C9300CAA10412091DF8A10412091D1CA40412FF
:100CA300091D38A40412091D7DA40412091D02A5FF
:100CB3000412091D4EA50412091DDEA50412091D07
:100CC300B7A60412091D08A70412091D6DA7041273
:100CD300091DE0A70412091D24A80412091D7CA8FC
:100CE3000412091D9EA80412091D2EA90412091D30
:100CF300BFA90412091D0BAA0412091D37AA041265
:100D0300091D78AA0412091D19AC0412091DFBACB4
:100D13000412091DD7AD0412091D3FA00512091DB8
:100D230080A00512091DA9A00512091D08A105121D
:100D3300091D72A10512091DD1A10512091D0EA2DB
:100D43000512091DCCA20512091D1BFF0112091D65
:100D53002CFF0112091DCAFF0112091DE4FF011234
:100D6300091DFD7F0012091DDDC00512091DF5BD1A
:100D73000512091D05BE0512091D1ABE0512091D1E
:100D830063BE0512091D8BB80512091D0FB90512A3
:100D9300091D77B90512091DFA7F0012091DE37FAA
:100DA3000012091DF17F0012091D14BF0512091D50
:100DB30031BF0512091D40BF0512091D49BF0512A8
:100DC300091D04FC0212091D12FC0212091D8BFCF1
:100DD3000212091D60FD0212091D32FF0212091DD4
:100DE30070AA0512091D8EAA0512091DBBAA0512B8
:100DF300091D31AB0512091DCFAB0512091DF9AB56
:100E03000512091DE5BF0512091DC2F20412091DD1
:100E13002FF30412091DE7F30412091D5DF40412F4
:100E2300091D71F50412091D01F70412091D6AF762
:100E33000412091DB9F70412091DC2F70412091D92
:100E4300D1F70412091DE7F70412091DFAF704127A
:100E5300091D03F80412091D16F80412091D42F8AE
:100E63000412091DD9FA0412091D19FB0412091DE4
:100E730055FB0412091D69FB0412091D82FB0412B0
:100E8300091D73FC0412091D25FD0412091D39FDFA
:100E93000412091D2FB20512091D53B20512091DB3
:100EA3006CB20512091DAAB20512091DDAB20512A8
:100EB300091D07B30512091D6DB30512091D70B392
:100EC3000512091D7AB30512091D87B30512091D01
:100ED30057FD0412091D77FD0412091DB6FD041206
:100EE300091DD4FD0412091DEFFD0412091D55FE51
:100EF3000412091D61FE0412091DBEFE0412091D20
:100F0300CDFE0412091DF1FE0412091DB2FF0412E5
:100F1300091DBFFF0412091DD0FF0412091D7EBD68
:100F23000512091DC6BD0512091DF2BD0512091DD5
:100F330037850512091D93860512091DA186051221
:100F4300091DB4860512091DC9860512091DDE8611
:100F53000512091DF1860512091D6D870512091D6C
:100F6300D2870512091D68880512091D41890512DA
:100F7300091D51890512091D60890512091D4A7F42
:100F83000012091D6E7F0012091D967F0012091DB4
:100F9300BE7F0012091DDDA50512091D04A6051259
:100FA300091D22A60512091D91A60512091D14A3E8
:100FB3000512091D2DA30512091D39A30512091DCB
:100FC3004DA30512091D6BA30512091D75A3051277
:100FD300091D7FA30512091D92A30512091D18A45B
:100FE3000512091D8DA40512091DBCA40512091DB6
:100FF3000AA50512091D59A50512091D74A5051297
:10100300091D7EA50512091D8FA50512091DD2A56F
:101013000512091DC9BE0512091DF7D90412091DC0
:1010230023DA0412091D40DA0412091D53DA0412EB
:10103300091D6EDA0412091DC8DA0412091DF6DA55
:101043000412091D06DF0412091D64E00412091DC0
:1010530096E00412091DF9E00412091D65E2041269
:10106300091D8DE20412091DA2E20412091DB2E258
:101073000412091DF2E20412091D34E30412091DCE
:1010830044E30412091DC5FE0312091DDFFE03120A
:10109300091D07FF0312091D20FF0312091D44FF49
:1010A3000312091D62FF0312091D79FF0312091DB3
:1010B300A7FF0312091DC2FF0312091D64BF051216
:1010C300091D3E960512091D4E960512091D5397DB
:1010D3000512091D85970512091DB5970512091DEE
:1010E300D8970512091DEF970512091D29980512B6
:1010F300091D8E980512091DD0980512091D17990F
:101103000512091D44990512091D6F990512091D40
:10111300E7B40512091D05B50512091D67B50512CA
:10112300091D01B60512091D7EBB0512091D71B704
:101133000512091DB9B70512091DA7AE0512091D30
:101143001EB00512091D2CB60512091D51B7051253
:10115300091D91CF0412091D1BD30412091D17D5B4
:101163000412091D49D60412091D22D70412091DB0
:10117300B2D80412091D7ED90412091DD2D9041252
:10118300091D6DB00512091D8EB00512091DC8B1E8
:101193000512091DF2B10512091DAABF0512091D89
:1011A300BABF0512091DC4BF0512091D0080041230
:1011B300091D03800412091DDF870412091D3189EB
:1011C3000412091D928A0412091D698B0412091D58
:1011D300428C0412091D2B8D0412091D1F8E04124B
:1011E300091DD78E0412091D078F0412091DB7901C
:1011F3000412091D91B30512091DA3B30512091D9C
:10120300B7B40512091DBAB40512091D90BA051227
:10121300091DC6BA0512091DDEBA0512091D20BB38
:101223000512091D30BB0512091D74BB0512091DEA
:10123300A4EB0412091DDEEB0412091D47EC041292
:10124300091D66EC0412091D7FEC0412091D21ED32
:101253000412091D2AED0412091D7BED0412091D58
:10126300A4ED0412091DB1ED0412091D22EE0412AE
:10127300091DB0EE0412091DFEEE0412091D34EF20
:101283000412091D95EF0412091DBEEF0412091D76
:1012930035F00412091D91F00412091DCEF0041259
:1012A300091D05F10412091D17F10412091D29F185
:1012B3000412091D48F10412091D51F10412091DFC
:1012C3000CF20412091D58F20412091D96F20412BD
:1012D300091D6CBE0512091D00800512091D408100
:1012E3000512091D63810512091D74810512091D6B
:1012F30093830512091DB3830512091D32A8051234
:10130300091D68A80512091DB0A80512091D09AA1F
:101313000512091D86EA0312091DB7EB0312091D05
:10132300F3EB0312091DADED0312091DD7ED0312F3
:10133300091D50F00312091D90F00312091D24F238
:101343000312091DC3F20312091D1BF30312091D26
:10135300AEF30312091DE8F30312091D2AF4031265
:10136300091D9DF50312091D1DF70312091D5AF9E5
:101373000312091D88F90312091DB4F90312091D8B
:10138300BDF90312091D1AFA0312091DAAFA031261
:10139300091DE6FD0312091D68FE0312091DC7C0DE
:1013A3000512091D39920512091D4F920512091DD7
:1013B300F3920512091D32930512091D4F9305126D
:1013C300091D80930512091DCD930512091D019472
:1013D3000512091D3C940512091D31960512091DBC
:1013E30090B90512091DEFB90512091D2DBA051291
:1013F300091D6EBA0512091D85E30412091D97E341
:101403000412091DA4E30412091D73E40412091D47
:10141300B0E40412091D37E80412091D32EA04126C
:10142300091D35AC0212091D41AC0212091DA3AC02
:101433000212091DADAC0212091D3AAD0212091DBB
:1014430076AD0212091D39AE0212091D4CAE02120D
:10145300091DBAAE0212091D22AF0212091DB1AF56
:101463000212091D2FB00212091DD4B10212091D67
:101473008DB30212091DD3B40212091D50B6021214
:10148300091DF7B60212091DC5BB0212091DBCBC1A
:101493000212091D4BBD0212091D70BD0212091D66
:1014A3000DBE0212091D2ABE0212091D4ABE0212F6
:1014B300091DBBBE0212091DD8BE0212091D06BFBB
:1014C3000212091D9EC00212091DBFC00212091D8E
:1014D30065C10212091DADC10212091D1FC202120C
:1014E300091DA2C20212091D07C30212091D64C30A
:1014F3000212091D03C40212091D77C40212091D39
:10150300B3C40212091D20C50212091D8AC60212A4
:10151300091D0BC80212091DBAC80212091D1CCBF2
:101523000212091D7ECB0212091DACCB0212091D4A
:10153300C4CD0212091D54D00212091D57D1021243
:10154300091DA5910412091DCB910412091D0592D1
:101553000412091D18920412091D1B920412091D7D
:1015630071920412091DD7940412091D13970412D2
:10157300091D09990412091D2C990412091D659965
:101583000412091D8A990412091DF2990412091DF6
:101593001E9A0412091D7E9A0412091D739B0412DC
:1015A300091DD99B0412091D3F9C0412091DC09CEF
:1015B3000412091D269D0412091DDB9D0412091D39
:1015C300F69E0412091D49A00412091DC7A00412A6
:1015D300091D00800312091D9F800312091D1B8131
:1015E3000312091D0A820312091D08830312091D30
:1015F30087830312091DC9840312091D6A85031217
:10160300091D2A870312091D31880312091D4E88FB
:101613000312091D79890312091DB68A0312091DD4
:10162300608B0312091DCA8E0312091DD290031287
:10163300091D5B910312091DB5910312091D039244
:101643000312091D7E920312091D00930312091D43
:101653003C930312091DE0990312091D3B9C0312DD
:10166300091D179D0312091DE5680012091D17695D
:101673000012091D8F690012091D9E6A0012091DBF
:10168300FA6A0012091D716C0012091D8D6C00129B
:10169300091DDF6C0012091D1D6D0012091D306D3F
:1016A3000012091D886D0012091DF76D0012091D36
:1016B300B96E0012091D276F0012091D5E6F00121B
:1016C300091D966F0012091D1E710012091DFD717F
:1016D3000012091D4B730012091D2E740012091DFF
:1016E300BA740012091DFC740012091D1B75001247
:1016F300091D66750012091D86750012091D1F76E6
:101703000012091DA2760012091DAD760012091DF3
:1017130002770012091D5D770012091DAA770012D6
:10172300091D277A0012091D4B7B0012091D917BAD
:101733000012091D867C0012091DAE7C0012091DD2
:10174300B17C0012091DBB7C0012091DD77C00125D
:10175300091D5F7D0012091D987D0012091DC47DBE
:101763000012091DEB7D0012091D0F7E0012091DD9
:10177300807E0012091D937E0012091DA97E0012AE
:10178300091DCB7E0012091DFA7E0012091D197F67
:101793000012091D317F0012091DFFBC0512091D2E
:1017A3000BBD0512091D49BD0512091DF3FF0112E9
:1017B300091D50B80312091D73B80312091DC0B9DE
:1017C3000312091D09BA0312091D67BA0312091D81
:1017D300C1BA0312091DC4BA0312091D15BB0312B2
:1017E300091D8FBB0312091DF4B50312091D15BC96
:1017F3000312091D9DBC0312091DE0BC0312091D40
:1018030003C10312091DB4C20312091DEEC2031260
:10181300091D3BC30312091D9FC60312091D24C7DB
:101823000312091DE0C70312091D0EC90312091D86
:101833003BCA0312091D25CB0312091D93CC0312C6
:10184300091D17CD0312091D09CE0312091D8FD0DF
:101853000312091DEAC80412091DBCD20312091D93
:1018630028D30312091D43D30312091DE4D3031222
:10187300091D2BD40312091D4ED50312091D91D541
:101883000312091D0DD60312091D60D60312091D8B
:10189300C7D60312091D48D80312091D60D90312C4
:1018A300091DE3D90312091DEBDB0312091D8FDCAC
:1018B3000312091D2EDD0312091D8FDD0312091DFD
:1018C300FEDD0312091D62DF0312091D4CE0031242
:1018D300091D87E00312091DA7E00312091D58E142
:1018E3000312091D95E10312091D1EE20312091DCE
:1018F300A6E30312091D84E50312091D2AE7031257
:10190300091DBDE70312091D27E80312091D33E969
:101913000312091DE0E30112091D43E40112091D2D
:101923008BE40112091DC9E40112091D24E501120A
:10193300091D81E50112091DBCE50112091D3EE6E1
:101943000112091D98E60112091D0CE80112091D77
:1019530096E80112091DE9E80112091D03E90112C4
:10196300091D1DE90112091D77E90112091DFDEB8E
:101973000112091D1CEC0112091D07ED0112091DBD
:1019830041EE0112091DC0EE0112091DF7EE01120D
:10199300091D66EF0112091D27F00112091D00F24E
:1019A3000112091D01F30112091D72F40112091D2F
:1019B30072F60112091DEDF80112091DC7FA011291
:1019C300091D88FB0112091D00FC0112091D17FCEA
:1019D3000112091D11FD0112091D09FE0112091D44
:1019E30078FE0112091DC7990512091D1E9B0512D8
:1019F300091DDD9B0512091D459C0512091DB99C96
:101A03000512091D3E9D0512091D599D0512091D4B
:101A13009D9D0512091DC39D0512091DEA9D051211
:101A2300091D029E0512091DA49E0512091DB99EDA
:101A33000512091DDB9F0512091DE49F0512091DEF
:101A4300ED9F0512091DF69F0512091D91890512C7
:101A5300091D938D0512091D988D0512091D9A8D77
:101A63000512091D34AD0512091D54C00512091DC7
:101A730097FF0212091DA7FF0212091D018E05120D
:101A8300091D69BC0512091D93BC0512091D1DC062
:101A93000512091D80C00512091DA9C00512091DE3
:101AA3005FD50212091D92D50212091DFED502123D
:101AB300091D99D60212091D36D70212091D7BD7BB
:101AC3000212091D9DD70212091DB6D70212091D64
:101AD300DCD70212091DFED70212091D3CD80212DF
:101AE300091D80D80212091DA2D80212091D04D9AA
:101AF3000212091DCBD90212091D82DA0212091D35
:101B0300F4DA0212091DBFDB0212091D12DC0212F4
:101B1300091D78DC0212091DB2DC0212091D04DD65
:101B23000212091D72DD0212091DDDDD0212091DFB
:101B3300E0DD0212091D61DE0212091DF8DE021248
:101B4300091D59DF0212091D49E00212091D68E04F
:101B53000212091DCCE10212091DD9E10212091D6D
:101B6300E5E20212091DF2E20212091DFBE2021272
:101B7300091DD3E40212091DEDE50212091D66E6F3
:101B83000212091DD8E60212091DFAE60212091D06
:101B93008EE70212091D62E90212091D39ED0212D4
:101BA300091D4DED0212091D5DED0212091D67EDC0
:101BB3000212091D70ED0212091D79ED0212091DB1
:101BC30083ED0212091DB0ED0212091DD9ED0212B7
:101BD300091DE4ED0212091D08EE0212091D2CEE87
:101BE3000212091D96EE0212091DDCEE0212091DF6
:101BF300F9EE0212091D76EF0212091DADEF021272
:101C0300091DECEF0212091D39F00212091DBFF084
:101C13000212091D8DF20212091D22F30212091D7F
:101C230006F40212091D6DF60212091DC6F6021210
:101C3300091D10F70212091D6BF80212091DA9F8FC
:101C43000212091DFBF80212091DB0F90212091D47
:101C53005FFA0212091D9CFA0212091D31FB0212DE
:101C6300091D9DFB0212091D26880112091D5888B2
:101C73000112091D86880112091D5C8A0112091DC2
:101C83003C8B0112091D948B0112091DCF8C01128B
:101C9300091D1B8D0112091D44900112091D379363
:101CA3000112091D87940112091D1D950112091DB9
:101CB30029950112091D5B950112091DDE9601127A
:101CC300091DEC970112091D16980112091D7D9833
:101CD3000112091DD6980112091D3C990112091D13
:101CE300539B0112091DE29C0112091DAC9D0112B7
:101CF300091DF29E0112091D42A10112091D12A420
:101D03000112091D1FA40112091DA6A40112091D18
:101D13003AA50112091D7DA50112091DC6A50112CF
:101D2300091D1AA60112091D93A60112091D02A776
:101D33000112091D1FA70112091D4FA70112091D39
:101D430084A70112091D54A80112091DFDA801123F
:101D5300091D83AB0112091DA3AC0112091D8EAD30
:101D63000112091D10AE0112091D47B20112091D0E
:101D730084B20112091DDCB20112091D0FB3011255
:101D8300091D79B30112091DAFB30112091D3AB43C
:101D93000112091D92B40112091D69B50112091D31
:101DA30022B60112091DBDB60112091DC5B90112E2
:101DB300091DE1BA0112091D84BE0112091D78BF74
:101DC3000112091D7BBF0112091DAABF0112091DC2
:101DD300B0C10112091D89C20112091DCCC2011231
:101DE300091D22C40112091D61C40112091DF3C496
:101DF3000112091D27C50112091DECC50112091D98
:101E030004C80112091D75C80112091DB5C80112C4
:101E1300091DEEC80112091D82C90112091D00CB5B
:101E23000112091D28CC0112091DEACC0112091D5A
:101E3300F1CE0112091D09CF0112091D1DCF011297
:101E4300091D55CF0112091D83CF0112091D02D1AE
:101E53000112091D27D20112091D8BD20112091D7E
:101E63003DD30112091D6DD30112091D34D4011292
:101E7300091DCCD40112091DF2D60112091D27D761
:101E83000112091D8AD70112091DB9D80112091DB2
:101E930061D90112091D92D90112091DAAD9011292
:101EA300091D39DA0112091DEDDC0112091DC5DE18
:101EB3000112091DE1DE0112091DFDDE0112091DDA
:101EC300CBDF0112091DBEE30112091DEE2B001227
:101ED300091D202C0012091D0F300012091D5B3053
:101EE3000012091DA1300012091D43310012091D02
:101EF3009F310012091DE4310012091D2B3300121A
:101F0300091D3F340012091D2E380012091DB23875
:101F13000012091DBF390012091D1B3A0012091DC9
:101F23000B3C0012091D803C0012091D8A3C001263
:101F3300091D973C0012091DC23C0012091DA93D51
:101F43000012091D533E0012091DD13E0012091D46
:101F5300F13E0012091D1A3F0012091D3C3F0012F9
:101F6300091D9C410012091D62420012091DA7426E
:101F73000012091D24430012091DD5430012091D37
:101F830007440012091D4D440012091D8944001223
:101F9300091DD9440012091D2D450012091D834551
:101FA3000012091DCF450012091D3C460012091DF0
:101FB300B7460012091D82480012091D824900120A
:101FC300091DA74A0012091DE64D0012091DF9500B
:101FD3000012091DB6510012091DFA510012091D04
:101FE300AA530012091DBE530012091DC853001243
:101FF300091DD2530012091DDE530012091DFA53A5
:102003000012091DA5540012091DE4540012091DF4
:10201300EE540012091DF8540012091D68550012F0
:10202300091DB3550012091DC8560012091D245776
:102033000012091DA5570012091D64580012091D3D
:102043006D590012091DA15A0012091D8F5B001260
:10205300091DA75B0012091D025C0012091D205C0B
:102063000012091D685C0012091D8F5C0012091D16
:102073002A5D0012091DF05D0012091D825E001227
:10208300091DFC5E0012091D16600012091DC360C4
:102093000012091DEB610012091D3B620012091DAC
:1020A3009F620012091D01630012091D2F630012B4
:1020B300091D53630012091D88630012091DB963CA
:1020C3000012091DEC630012091D0C640012091DA6
:1020D30074640012091D68650012091DC3650012AE
:1020E300091DEC650012091D74660012091DF766CF
:1020F3000012091D22670012091D07680012091D3D
:10210300B1AE0412091DE9AE0412091D0AAF04128F
:10211300091D4CAF0412091DAEAF0412091DB8AF5F
:102123000412091DC8AF0412091D03B00412091DCE
:10213300E3B30412091DD0B50412091DB6B7041286
:10214300091D4DB80412091DEFB80412091D24819D
:102153000212091DA2810212091DFE810212091D2C
:1021630049820212091D64820212091D8F82021222
:10217300091DAC820212091DB8820212091D4F8487
:102183000212091D68840212091DED840212091D41
:1021930000850212091D1F850212091DC385021243
:1021A300091D44870212091DF7880212091D8D8932
:1021B3000212091D90890212091D008A0212091DCB
:1021C3001E8A0212091DB58A0212091DFD8A021216
:1021D300091D008B0212091DC68B0212091D338CC7
:1021E3000212091D598C0212091DE48C0212091DE9
:1021F300028D0212091D488D0212091DFC8D021267
:10220300091D468E0212091D758E0212091DD28EFA
:102213000212091D078F0212091D338F0212091DB5
:10222300418F0212091D8E8F0212091DFE8F0212A9
:10223300091D47900212091D93900212091DBF90B8
:102243000212091DCA900212091DE8900212091D0B
:10225300D3910212091DDD910212091D1892021277
:10226300091D28920212091D31920212091D85923D
:102273000212091D99920212091DC8930212091D27
:10228300DD930212091D6B940212091DB094021210
:10229300091D3C950212091D47950212091D8996D5
:1022A3000212091DA4960212091DF0960212091DBD
:1022B3005F970212091D98970212091DB297021225
:1022C300091DF4970212091DC49A0212091D719B7C
:1022D3000212091DDE9B0212091D1E9E0212091D18
:1022E300369E0212091D399E0212091D459E0212D5
:1022F300091D599E0212091D619E0212091D949E19
:102303000212091D969F0212091D1DA00212091D2A
:102313008DA00212091D0FA10212091DD0A10212E4
:10232300091DEFA10212091D90A20212091DEDA2BF
:102333000212091DF0A20212091D64A30212091D53
:10234300B3A40212091DB9A50212091D44A6021263
:10235300091D5FA70212091D27A80212091D58A80B
:102363000212091D7BA80212091D84A80212091D6D
:10237300B3A80212091D43A90212091DF9A90212E9
:10238300091D6EAA0212091D15AB0212091D8AABA3
:102393000212091DC1AB0212091DFFAB0212091D76
:1023A30025B40312091DE3B30312091DF1B203128D
:1023B300091DC5B20312091D7CB20312091DB9B16F
:1023C3000312091D98AE0312091D5BAC0312091D0C
:1023D30028AC0312091DCFAB0312091D62AB031214
:1023E300091D21AB0312091D01AB0312091D3AAAF2
:1023F3000312091DD4A90312091D73A90312091D90
:1024030013A90312091DEAA70312091D7EA70312CC
:10241300091DD6A60312091DD1A60312091DC5A6BF
:102423000312091D00A30312091DDAA20312091DD9
:1024330078A20312091D40C60412091D52C50412D5
:10244300091DE4C40412091DC1B70312091D76B79F
:102453000312091D0AB70312091DA9B60312091DA8
:1024630019A20312091D06A20312091DFBA10312DF
:10247300091DCAA10312091D7FB60312091DE69F98
:102483000312091D6D9F0312091D049F0312091DE9
:10249300779E0312091D6BB60312091D339E0312A7
:1024A300091D1CD20312091D0C9E0312091D8FC4A2
:1024B3000412091D3AC40412091D0DC40412091D96
:1024C300DAC30412091DB2C30412091D53C3041253
:1024D300091D33C30412091DFEC20412091DC2BF24
:1024E3000412091D97BD0412091D87BB0412091D9F
:1024F30004BB0412091DB8BA0412091D61B6031204
:10250300091D6CBA0412091DC6B90412091D12BCB7
:102513000300000080FB870001001219350004004E
:10252300DA1825000200DE1826000200E018270052
:102533000200E21828000100EC1829000100ED1840
:1025430084000400B51586000100D7172A00010096
:10255300EE182B000100EF182C000100F4182D00D9
:102563000800C1152E000100F5182F000100F61810
:1025730030000100F71831000100F81832000100A3
:10258300C91533000100CA1534000100F9183600DB
:102593000100CB1538000100FA1839000100F318C7
:1025A30083000200101963000100D71564000100C5
:1025B300F01865000100F1186D000100D8157100D5
:1025C3000800B915660001000F1943000100001946
:1025D30044000200011945000100031946000200EE
:1025E300041947000800CF154800010006194B00E5
:1025F30001000719040001001319A10001001619B5
:102603003700010015198800010014193C0001006E
:10261300CC153D000100FB184900020008196700B2
:102623000100D9154D0002000A194E0001000C19D2
:102633004F0002000D193E000100FF185100010078
:10264300CD1552000100FD1853000100FE1854007F
:102653000100CE1500000000000000013636010124
:102663000001020100010301000104010606050245
:102673000000070100340801000F090401010D01E6
:1026830000FF0E08000017020000190100FF1A01E5
:1026930000011B0100FE1C0100081D0200001F01B8
:1026A300000120010001210200002301000F240288
:1026B30000002601000127010008280200FF2A016B
:1026C30000072B0102402C0100002D0100012E0107
:1026D30000012F0100FF30010B1D310800003A01FA
:1026E30000083B01000F3C0100013D0100FF3E04D7
:1026F300000042040000460400004A0400004E04A7
:10270300000052040000560400005A0400000400B4
:10271300030020012588000000002001218800001B
:10272300010020012188000002002001218800000F
:1027330000404201C0860000040042017985000088
:10274300050042013586000006004201C0860000F4
:102753000700300123880000100042031E18000008
:10276300110030038314000012001003311803001A
:102773000000210384140000FDFF21011D880300D4
:10278300FDFF21011D8806000000100186140600CC
:10279300FDFF21811D880A000000E2039B14002035
:1027A30020202020202020202828282828202020FE
:1027B30020202020202020202020202020202088AE
:1027C3001010101010101010101010101010100412
:1027D3000404040404040404041010101010101062
:1027E3004141414141410101010101010101010156
:1027F300010101010101010101011010101010106C
:102803004242424242420202020202020202020225
:102813000202020202020202020210101010200140
:1028230003710301030103010301030103220302F3
:10283300030103100300030003000300030003006C
:1028430003000342030003240306030003000304FD
:1028530003120325032303250323030403040300B3
:102863000300030003440300030003230300036581
:102873000321003503810300030503000300030064
:102883000300032503230301017101010101011168
:102893000101013101010101018001100161013BCD
:1028A300001400630173017201620143010001130B
:1028B3000106013D01350004011201000100010080
:1028C30001000104010401330133013C01440132DD
:1028D300013600000100016501000135008101009E
:1028E30001050182018301000103027102300160CD
:1028F300021102700201020202020280021002614E
:10290300023A004100630273027202620243020050
:102913000213023800000200020402120200020045
:10292300020002000204020402370037003C0244A2
:102933000200023900000200026502000235028132
:1029430002000205028202830200020300710030CA
:102953000160001100700031022003500480001058
:102963000061000000140063007300720062004302
:102973000000001300060000000000040012000025
:102983000000000000000004000400370037003C92
:102993000244000000000000000000650000003554
:1029A30000810000000500000083000000360001E4
:1029B30000060000000F00000000000000000000FF
:1029C30000000003FFFF00000403FFFF0000FFFF00
:1029D3000FF4010005C4040320000100000B0000F4
:1029E30000000000000003010F00000000000000D1
:1029F30000000000000000000000000000000000D4
:102A0300000000000000000000000000152A150669
:102A13001540140C1530150C153C15121540140CEB
:102A230015301518154014000000001E1540140041
:102A33000000000000000024154014000000000006
:102A43000000000000000000000000000000000083
:102A53000000000000000000000000000000000073
:102A63000000000000000000009018010090180210
:102A730000D6170280D0170300DC170400E2170406
:102A8300800E250500EE170600FA173000181831DE
:102A93000012183300241834002A181100301814B7
:102AA30000361815000C18FFFF0000030003000494
:102AB30000080010001F003E007B00F600EC01D769
:102AC30003AF075D0FB91E713D000007ECFDFDFD6F
:102AD300ECDCDCCCBCACAC9C9C8C7C7C6C6C5C5C23
:102AE3005C4C4C3C3C2C2C1C1C03EAF5E5D5D5C5B1
:102AF300B5A59595858575756565555545453535F3
:102B030025251515050A441F020E1F051A1F071454
:102B13001F0CF61E0D021FFF000000160F00000B16
:102B2300150B020002220F3300000E0FD0D1D2D3B7
:102B3300D4D5D6D7D8D9DADBDCDDDEDF060000005A
:102B4300100187140600FDFF21811D885A69674221
:102B53006565416C6C69616E636530390600000020
:102B6300100189140600FDFF21811D880600000065
:102B7300100188140600FDFF21811D8830301718CD
:102B83001921301B1D1F3000034D4C4651181A25C7
:102B930005020001191618161618230300003C40FD
:102BA300423A3F3F392F4730303016181920231A45
:102BB3001C1E300C0E020B040B0A0708000F020444
:102BC30002010101010902E803000000BE040A0E2C
:102BD3000001000300E803FF04091E1E03040A0C9E
:102BE30004100828020C050815030474F712048660
:102BF300E99016AEF0901663E4F01211F49016C645
:102C0300E4F0A3F09016AFF0A3F01220941211FA9F
:102C13009015E7E4F0A3F0121A3402455474F0124D
:102C2300048674D3120A30125FB054806066901623
:102C3300AEE0F912126C8A088B09AF09EA4F604CB7
:102C43007C0080010CEC75F003A4F8A9F07408284B
:102C5300F582742B39F583E493F46029E493F88ABD
:102C6300828B83E06870DDEC75F003A4F8740928A7
:102C7300F582742B39F583E493C0E0740193F583F3
:102C8300D0821205FEAA08EFFB12125A1266E26402
:102C930080022FEF851882851983A3E05420601FDB
:102CA300121FAA8A088B09AF09EA4F600A121F0292
:102CB300AA08EFFB12125A1266E26420022FEF8574
:102CC3001882851983E0A2E05042901668E0640FF1
:102CD300702E90098F1266ED90098FC3E094E9A3DB
:102CE300E09403400A7A007B809014D91246367927
:102CF30000121ED8E960099018DA120C18121EF09F
:102D0300851882851983E06401022FD4542070034F
:102D1300022FD97A207B009016AEE0F91213CEEA87
:102D23004B4C4D701A9016C2120C00E8494A4B7076
:102D33000E750801750900750A00750B00806D7525
:102D43000C00750D00750E00750F001213DA8A085A
:102D53008B098C0A8D0B9016C2120C00E8494A4B62
:102D630060319016C278081208D6400E750CFF75B4
:102D73000DFF750EFF750F7F801985080C85090DF2
:102D83008C0E8D0F9016C2780C120A027401780C07
:102D93001209D1850C08850D09850E0A850F0BE5EF
:102DA300084509450A450B7003022F337C0079045B
:102DB3007A007B00121F808A0C8B0DAE0CAF0D02C4
:102DC3002E777402120C2F74FFF07403120C2F74FD
:102DD300FFF07404120C2F74FF1246A9125E6A747A
:102DE300071209FA126120E96401706A122FFB4489
:102DF30080F8A3E0F97428120C2FE8F0A3E912631A
:102E0300B4E0C0E0742A120C2FD0E01246965408A6
:102E130060167428120C2FA3E04401123008C0E09E
:102E2300742C120C2FD0E0F0125FF36011E8240B26
:102E33001237EEF87416120C2FE8F0A3E4F0908723
:102E4300E512079E74061209FA740B1209F2121B9B
:102E53009674041209328E828F83A3A3A3A3A3A320
:102E6300A3A3A37406123008F9121F627405120C8F
:102E73002F126177EE4F7003022F337C007904EE3B
:102E8300FAEFFB121F807405120C2FEAF0A3EB126A
:102E930043C0E0F50CA3E0F50DE4F50EF50F78085B
:102EA300790C120B8A4023EE2404F8E43FF98508D9
:102EB3000C85090D8882F583C3E0950CF0A3E0959A
:102EC3000D1267D7E84970A4800C8E828F83A3A369
:102ED300A3A3E4F0A3F08E828F83A3A3A3A3A3A34E
:102EE300A3A3A3A3E064018E828F83A3A3A3A3A3BD
:102EF300A37020E054046003022DC58E828F83A348
:102F0300A3A3A3A3A3A3A3A37406F07AB712312E9A
:102F1300022E6FA3A3A3A3E06003022DC58E828FAD
:102F230083A3A3A3A3A3A3A3A3A37401F0022E6F5C
:102F3300121F507C0079017A007B00121F80EA4B3C
:102F4300600312462F7C0079047A007B00121F80F5
:102F5300EA4B701380448A828B83A3A3A3A31261D9
:102F63008FEE98EF99400B8A828B83A3A3A3A312BE
:102F730061777C007904121F808B0BA90BEA4970DF
:102F8300D5C3E5089EE5099F500DC3EE9508FEEFF6
:102F93009509FFEE4F700D12462F9016C2123001A5
:102FA300A3F08024EE2EFEEF338E08F509E4F50A34
:102FB300F50B78081209687A201231D712093212F8
:102FC30013DA9016C2120C0C851882851983E064FB
:102FD30020FAA3E08016A3E05404601312584712AA
:102FE300246079011239B51266E26404FB80047A25
:102FF300007B00742D025FCFEE125FDDE022E4F070
:10300300A3F0A3F02212469BA3A3E022C082C083B5
:1030130074EA120A307C167D007900AA18AB1912E3
:10302300123C7408120C2F7402F0901657125A8334
:1030330012304F7409120C2F125A9B7413120C2F57
:10304300E412571A121A287416024965E8F0A3E924
:10305300F090166112615F2274F712048674DA121B
:103063000A30EAFEEBFFEA4F602DAC18AD19121FD0
:10307300C87406120C2FE0601E7417120C2FE0FDAB
:103083007401120C2FE0FCEEFAEFFB7900121EAE76
:10309300E9600479A480027900742602455174F72B
:1030A300120486EAFEEBFF8A82F583A3A3A3A3A3FC
:1030B300A3E0544060178A828B83125F9012487496
:1030C30060067AFF7BFF8015125F8C800390165792
:1030D300125E6A74FE6A700374FF6B6041125F8C48
:1030E300125FB612205EE98E828F83600B125B79CA
:1030F3001267A2E4F0A38003126791F07CDE7D1EC9
:103103008E828F83123EEAE9F5087015EE4F60094F
:103113007901EEFAEFFB121F5CA90802455475080A
:10312300CDAA0812312EE960E380EE8E828F8312DE
:103133005B7D240CF582E438F583E0F9121EEA2264
:1031430074F6120486E9FEEAFF7A0F7B001212542A
:10315300EA4B601A8A828B83740CF0EEA3A3F0EF20
:103163008A828B8312430F1257787900802BEEF9F2
:10317300121F868B09A909EA49601C8A828B83A3E3
:10318300A3A3A3A3A3A3A3A37406124318E0F91252
:103193001C38EEF9121F62791002556374F412049D
:1031A300868A088B098C0A8D0B901668E0640F7071
:1031B3001EEA4B4C4D6018901663E064086005E00E
:1031C3006404700B78081209681231D512093202AF
:1031D300343A7A017B009016AEE0F91213BC740402
:1031E3002274F412048674FC120A30EAFEEBFF8A9E
:1031F30082F583A3A3E0F9121F868A088B09EA4BA1
:10320300700302331D8E828F83A3A882A983E0C03B
:10321300E0EA12576ED0E012417E64F160288E829C
:103223008F83A3E064CD601E8E828F83A3E0641A34
:1032330060148E828F83A3E064E9600A8E828F8399
:10324300A3E064E170337900121F5CE9602BE508A9
:103253002404F50AE43509F50B850882850983A35F
:10326300A3A3A3A3A312425412415C121206850A1C
:1032730082850B83125FB680708E828F83A3E0C03A
:10328300E07402120C2FD0E0124973124A96123CDA
:1032930004C0E07403120C2FD0E0F0E50812645F61
:1032A3001238ADE0AA18AB197005121B90800312F7
:1032B30020467402120C2FE064E9702D8508828584
:1032C3000983123A13750A01780A120974750AE917
:1032D300780A120974124130123BD1FCA3E0FD8A33
:1032E300828B83123BFB120932850882850983A3F3
:1032F300A3A3A3A3A3A3A3A3E064027012850882DC
:10330300850983A3A3A3A3A3A3A3A3A37406F08EF6
:10331300828F83A3A3E0F9121F62121F509018E05B
:1033230012381F740402343774F4120486EAFEEB75
:10333300FF7508008A82F583A3A3A3A3A3E06038E3
:10334300750808125E5D79FF121D10EA4B60107557
:10335300082C8E828F83A3A3A3A3A3E0D2E0F08ED5
:10336300828F83A3A3A3A3A3E05403640160030296
:103373003426430811023426EA2418124D5C6036C1
:10338300EA241A124D5C6003F4701312613F700358
:10339300A3E0696003023426750822023426EA2476
:1033A3001B12342A241A124D5CFAEE2419124D5CB6
:1033B300F9121C26806D8A828B83A3A3A3A3A3A3E4
:1033C300A3A3A312380A70037508018E828F831298
:1033D30061437003A3E0697006E508D2E1F508E5EF
:1033E3000860158E828F83A3A3E07006E508D2E5FB
:1033F3008004E508D2E6F50812486764017006E523
:1034030008D2E0F5088E828F83A3A3E06015EE2433
:103413001D12507BF912204CE964016006E508C2D5
:10342300E0F508A9088010F582E43FF5831267FAF6
:10343300EA2274091209327F040206E374F01204CB
:103443008674D7120A30EAFEEBFF8A82F583A3A3C0
:10345300A3A3E0600E9018DE125FFA60069018DEF8
:1034630012381F74031209FA8E828F83A3A3A31247
:103473005946125E68121FC8E970030235D07801FD
:103483007405120C2FE0C3940240027800740712F3
:103493000C2FE0C3940240027800740C120C2FE04E
:1034A30064F87003A3E0F470030235D0740C120CBB
:1034B3002FE064F97003A3E0F470030235D0740CB9
:1034C300120C2FE064FA7003A3E0F470030235D00A
:1034D300740C120C2FE064FB7003A3E0F47003027E
:1034E30035D07406120C2FE0F9901651E069600391
:1034F3000235D0E8A2E040030235D07427120C2F26
:10350300E060030235D0EE24131261557422120CCD
:103513002F125950241C1261557410120C2F125A79
:103523009B7409120C2FE0601D741A120C2FE0FD1E
:103533007404120C2FE0FC8E828F83125E68790173
:10354300121EAEE9703B74031209F2121EFCE9F578
:103553000C7409120C2FE0702C90164BE06026744B
:1035630022596422601F74425964427014742012F9
:103573000C2F123804600E7420120C2F1237FD60CA
:10358300047ACF804AE9A2E6504D7420120C2F1220
:10359300508124FD600F14600C24FD600824FD603D
:1035A3000424FE70287420120C2F1237F6700E7448
:1035B30020120C2F1256A7A3E0640D601A74031295
:1035C30009F2122076E96401700D0237E67AD37BA3
:1035D300001217AC0237E6EE242DF582E43FF583A3
:1035E300123A0A7003A3E069701D75080078081287
:1035F30009747808120974EE242F124D5CF91238FD
:1036030010123BFB1209327409120C2FE0700302F3
:1036130036AE123810125E6A1220C48A0E8B0FEA7D
:103623004B700302373F7404120C2FE0F88E828F25
:1036330083A3A3E028F8A3E03400F9E8240D1237AC
:10364300EEF88A828B83A3A3A3E068600EE88A82E4
:103653008B83A3A3A31243081230027904E9120C4B
:103663002F124D7BA3E02AF8A3E034008882F58370
:10367300A3AA82AB831212488A088B098C0A8D0B8A
:10368300850E82850F83A3A3A3A378081208D640CF
:10369300030237E69087C97808120AD4850E82851B
:1036A3000F83A3A3126800A3124A9F901663E064DA
:1036B300046008E0640960030237E6E50CA2E54014
:1036C30003023779EE242F124D64F0EE2430124DAD
:1036D3005CC0E07401120C2FD0E0F0EE2431124DE7
:1036E3005CC0E07402120C2FD0E0F07414120C2FA3
:1036F300E064017026740E120C2F1241572413122A
:103703004D5C687003A3E0697011740C120C2F12E6
:10371300380A70077414120C2FE4F0EE2425F58296
:10372300E43FF58312079E74041209FA7407120921
:10373300F2121B9674041209320237E69016A8E0BF
:10374300640160030236AE7420120C2F1238047029
:1037530009E50CA2E650030236AE7410120C2FE0FA
:10376300F47003A3E0F4607BEEFCEFFD7403120935
:10377300F2121F08806DA2E650697420120C2F12FA
:103783005B897016741A120C2FE06402705574036F
:103793001209F2790012204080497420120C2F1272
:1037A30037FD7014741A120C2FE06404703574031F
:1037B3001209F2122034802B7420120C2F1237F6C8
:1037C300700C790074031209F212208280157420A0
:1037D300120C2F1256A7E0640C700874031209F23E
:1037E30012208E7429025FCFE82406F582E439F5AE
:1037F30083E022125F96E0640322125F96E064077F
:1038030022125085640622124878640222EE242B89
:10381300F582E43F1267F8EE12484D22E0F508A363
:10382300E0AA08FBE4FCFD121EF02274F4120486E5
:10383300EAFEEBFF8C088D099015C9E0600F126159
:103843003F7003A3E0697005121C148053790012C2
:103853005E5D121C448A828B83E5824583602CA3C0
:10386300A3A3A3A3A3E054186021E508241C1238E2
:10387300AA1207A21238A61207A2EE2418123BE2DC
:10388300125342126117120932801579008E828F0A
:1038930083A3A3A3125B6F125342125E6A121C1A14
:1038A30002343AE5082413F582E43509F5832274DA
:1038B300F712048674F7120A30EAFEEBFF901663E0
:1038C300E06403600DE064016008E06409600302E2
:1038D30039B08A828B83A3E0600302397E7C007D4A
:1038E300007A027B001212001261BC8A82126159B3
:1038F300901654125A9B7953121A16901663E06469
:10390300096009901661125E6A1220BE85188285CD
:10391300198374011256BF9016637404F074011274
:1039230009F2794A121A1074011209FA7A597B16AC
:103933001213F29014DCE0640B70057406F080053A
:1039430079001239B5901654125B757A037B001215
:103953001200901657125B757A047B0012120090C6
:10396300164EE0A2E35004D2F08002C2F01256AC2D
:103973009018DA120C18121EF0802FFC7D007A03C7
:103983007B101212009014DCE0640B7003740AF0D5
:103993009015CDE4F0FA7B4012549C8E828F83A362
:1039A300E0F91239B5901663E4F0121F327409027C
:1039B3004551901661125E6E121BA822C082C0830D
:1039C3009015E7125FFA7017901663E024FB600509
:1039D300146007800A9015ED801F9015EF801AE898
:1039E3004960071237EB6401700C8A828B83A3E072
:1039F300F9121B9C800E9016DD125FFA60061256B8
:103A0300A81205FE0251F312615F901661E068226D
:103A130012615FE8FAE9FB2274F512048674D81286
:103A23000A308A088B098A828B83A3A3A3A3A3A347
:103A3300A3A3E0C3940F5003023BCC8A828B83A3DE
:103A4300A3A312617774151209FA8A828B83A3A345
:103A5300A3A3A3A3A3A3123BD1FAA3E0FB121F3E8C
:103A63007415120C2FE0702E850882850983A3A399
:103A7300A3A3A3A3A3A3E0C3940B401A8E828F83B3
:103A8300A3A3A3A3A3A3A3A3E064027009EE240B3F
:103A9300124D5CF46003023BCC7417120C2FE060F0
:103AA3000764026003023BCC901663E06402601C6F
:103AB300E0640660179015E7125FFA7003023BCCCF
:103AC3001237EB64016003023BCC80259015E712AB
:103AD3005FFA701D750800780812097478081209D6
:103AE30074EE2410123BE28E828F83123BFB120989
:103AF300328E828F831267CF12418712615B740209
:103B0300120C2F125950122FFCC0E07404120C2F08
:103B1300D0E0123C04F508A3E0F509740F7808120D
:103B23000BC97405120C2FE508F07419120C2FE061
:103B3300C0E07406120C2FD0E0F0741B120C2FE0BF
:103B4300C0E07407120C2FD0E0F07416120C2FE0B3
:103B5300C0E07409120C2FD0E0F07417120C2FE0A0
:103B6300C0E07408120C2FD0E0F0EE2410124D5C6C
:103B7300C0E0740A120C2FD0E0F0741A120C2FE07C
:103B8300C0E0740B120C2FD0E0F07427120C2FE05E
:103B9300C0E0740C120C2FD0E0F0741C120C2FA98F
:103BA30082AA8389088A09750A00780812096C7C3D
:103BB300087D007410120C2FAA82AB83124D53128E
:103BC3000932AA18AB19121BA274280246AFE0F9F6
:103BD3008A828B83A3A3A3A3A3A3A3A3A3E022F516
:103BE30082E43FF583E0F98E828F83A3A3A3A3A38B
:103BF300A3A3A3A31267FA22125E6E121FFE74021E
:103C030022F0EE125347E02274F212048674F81283
:103C13000A308A0A8B0B8C0C8D0D89089086F2ACC6
:103C230018AD197408120896C200AC0AAD0BAA1895
:103C3300AB19125DEB7002D2009016AF8013AC0A81
:103C4300AD0BEE240BFAE43FFB125DEB701B124845
:103C53003E1244D1601EA20040E48E828F83E06551
:103C63000C7004A3E0650D70E58E828F83A3A3E03F
:103C7300650870DAEEFAEFFB7408024194C082C063
:103C8300839016AF0251F0C082C0839016AFE4F068
:103C9300A3023EE674F71204869016AF1266E8801C
:103CA3000FEA2414F582E412617412130EEEFAEF94
:103CB300FBEA4B70EC9016AFE4F0A3F002455474AA
:103CC300F21204868A0C8B0DEDFF890B8A828B839B
:103CD300E08C828D83F0A3A882A9838A828B8312CE
:103CE3003D8B124302E0C454F0FA88828983E04A90
:103CF300F0EC2402F8E43FF9850C828B83A3A31232
:103D03003D8B123D9EE0333354FC123D92E033333E
:103D13003354F8123D92A3E0A2E0E4331313FA887C
:103D2300828983E04AF0EC2403FE50010FE50C2462
:103D330007F508E4350DF509750A00780812096CD2
:103D43007C087D00EEFAEF124D52120932EE240880
:103D5300FE50010FE50C240FF508E4350DF5097845
:103D63000812096C7C037D00EEFAEF124D52120922
:103D730032E50BC3940F400DE50C2412F582E435B4
:103D83000D125356F0024197A3E08882898322FAE9
:103D930088828983E04A123D9EA322F0850C828BA0
:103DA30083A3A3A3A32274F2120486EBFF8C0C8DCE
:103DB3000D8A82F583E08C828D831267B9A3A88272
:103DC300A983E012519B12417DC4125195F0EA126E
:103DD30067C31251A212417BA2E2E4338C828D832A
:103DE30012417A131313541F12519BA312417AA247
:103DF300E7E4338C828D83A3A3A3A3A3A3F0EA24D4
:103E030003FE50010FF5088F09750A00780812099F
:103E13006C7C087D00E50C2407124D4E120932EE2E
:103E23002408FE50010FF5088F09780812096C7CED
:103E3300037D00E50C240F124D4E1209328E828F42
:103E430083A3A3A3E0C0E01267DFD0E0F0024197B1
:103E530074F6120486EAFEEBFF8A82F583A3858259
:103E630008858309E0F9121BC0850882850983E070
:103E730064EB601E8E828F83A3E064E160148E8204
:103E83008F83A3E064F1600A8E828F83A3E0641AB8
:103E930070078E828F83A3E4F09018DA120C181245
:103EA3001EF075080178081209748E828F83A3E0CF
:103EB300F50878081209747900901661125B759001
:103EC3001657123BFB120932121F50025563C08270
:103ED300C083E99016C17003E4800274018004EA90
:103EE300F0A3EBF00251F3125E6E121A2E2274F657
:103EF3001204869016C1E0701B7C0079017A007B66
:103F030000121F80EA4B600C8A828B83125FFA6077
:103F130003121EE4025563C082C0831243B14010F2
:103F230079FF121F7AE9F8902BE8E493C3985004C1
:103F33007901800279000251F374F21204868A0A2D
:103F43008B0B8909C2008A828B83A3A3A3A3A3A398
:103F5300A3A3E0F9121F868A0C8B0DAE0CAF0D756F
:103F63000801EA4F600302401D850A82850B831214
:103F73005B6F850A82850B83A3A3A3A3A3A3A312C9
:103F8300415C121F6E8A0C8B0DAE0CAF0DEA4F70A5
:103F9300030241298A828B83A3A3A3A3E4F0A3F0A2
:103FA300E50A240CFAE4350BFB8A82F583E0C0E0D2
:103FB300124130D0E0F0E50A240D124150240D12D5
:103FC3005A95122064124856125FB6E50A2411125C
:103FD30041502411125A95E50A2413126186C0E058
:103FE300124848D0E0F0D200EE2406F8E43FF9127C
:103FF300414312417E5404600302408F9018ECE069
:10400300F50A750B007407780A120AC18E828F8332
:10401300A3A3A3A3A3A312413AF08E828F83A3A3E6
:10402300A3A3A3A3E0F50AA3E0F50B7407780A1290
:104033000BC9E50A5407FCE50960618E828F83A3EF
:10404300A3A3A3A3A3A3A3A374021246A912444642
:10405300600B90164F124DDCA3A3125A9BEC700316
:10406300024100EE2406F8E43FF9E8FAE91241437D
:10407300F0EC24FFF50AE434FFF50B7407780A1219
:104083000AC18A82898312413AF080718E828F83BA
:10409300A3A3A3A3A3A3E0448002401CEC70057573
:1040A300080080598E828F83A3A3A3A3A3A3E05404
:1040B30020600C12124EEA547F7900245F80198E1F
:1040C300828F83A3A3A3A3A3A3E05410601A1212A5
:1040D3004EEA540F7900240A5001098E828F83A37C
:1040E300A3A3A3F0A3E9800D8E828F83A3A3A3A32D
:1040F3007401F0A3E412418774041243C7A2005071
:10410300288E828F83A3A3A3A3125E74F9EEFAEF22
:10411300FB121F74E96012125FF36003124169EE30
:10412300FAEFFB12130E750800A9088067EE240C42
:10413300F582E43FF58322E0450AF0A3E0450B2234
:104143008882F583E0547FF0A3E054FC22F582E4F7
:10415300350BF58312615FEE22A3E0F9850A8285B0
:104163000B83125E6E221241701245C622EE240F9B
:10417300F582E43FF58322A3A3A3A3124182221273
:1041830061A2E02212418B2212469FA3A3A32274B1
:10419300031209327F060206E374F412048674F7ED
:1041A300120A307E00121F86EA4B700302424F8AC6
:1041B300828B83A3A3A3A3A3A3A3A3A3E064066007
:1041C3000302424F8A828B83A3A3A3A3A3A3A3E0E7
:1041D300FF8A828B83126781E0C0E07408120C2F80
:1041E300D0E0124577125A88125A9B121F98EF5447
:1041F300086057851882851983125B757A007B00E6
:10420300121F68EA4B70431267EA7C007D007A0054
:104213007B0080228E828F83125081F47003A3E08F
:10422300F46027901661124254124559601C7C00B9
:104233007D00EEFAEFFB121F688A0A8B0BAE0AAF02
:104243000BEE4F70CF7900121A467E01EEF902345D
:104253003512425822E0FCA3E0FD8E828F8322C0F8
:1042630082C0838A828B83E582458370099016C658
:1042730080068A828B83A3A312447A60208A828B6E
:1042830083A3A3A3A3A3A3A3E0540860E5EC4D6019
:10429300101244807003A3E06D70D780047A007B12
:1042A300000251F374F21204868A088B09890AEC1E
:1042B300FEEDFF7A147B00121308EA4B60378A8203
:1042C3008B83A3A3A3A3A3A3A3A3A3E4124318E5EC
:1042D3000A124563EEF0A3EF12430812457E124320
:1042E3000F8A828B831268021242FB125EF1A312C1
:1042F3004302F0A3F0024197EA240FF582E422126D
:1043030067BDA3A322124569E4F0A322A3F01267B9
:104313007A125EF12212431C2212456DA3A3A3A3BA
:104323002274F5120486EAFEEBFF890A8C088D09D4
:10433300EA4F607574016970127901121F7AE9F806
:10434300902BEAE493C3985015800A7404697009AA
:104353001243B1500979118052740269704B8E82F5
:104363008F83A3A3A3A3A3A3A3A3A3E50A1243C079
:10437300124A9612607BA3E4F0A3F09016C6125F74
:10438300FA6018800312615B88828983A3A31244B5
:104393007A88828983A3A370EC80039016C6EEF01B
:1043A300A3EF1243C77900800279C10246B27904B0
:1043B300121F7AE9F8902BE9E493C3982212607FE5
:1043C300A3A3A322F07A207B009016AEE0F9121289
:1043D3009622C082C083E9F879009016C6801D8AB0
:1043E300828B83A3A3A3A3A3A3A3A3A3E0686005D2
:1043F30074FF687001098A828B83A3A312447A70C5
:10440300DE0251F374F7120486EA4B70059016C668
:1044130080068A828B83A3A312447A601F8A828BCD
:1044230083A3A3A3A3A3A3A3A3A3E06970E4EC6062
:104433000F8A828B8312444670D880047A007B00F3
:1044430002455412679AE0540422C082C083901636
:10445300C680068A828B83A3A312447A60128A825F
:104463008B83A3A3A3A3A3A3A3A3E06970E5800401
:104473007A007B000251F3125E6EEA4B228A828B32
:10448300831250856C2274F21204868A0A8B0B8C79
:104493000C8D0D750800750900EA4B602A9016C64D
:1044A30080068E828F83A3A31244D1601AAC0CAD15
:1044B3000DEEFAEFFB850A82850B831205FEE96494
:1044C3000170DF8E088F09AA08AB09024197E0FE4D
:1044D300A3E0FFEE4F2274F71204869016C6126112
:1044E3005B7C007D00800DE8FCE9FD88828983A365
:1044F300A312615BE8496030EA687002EB6970E718
:104503009016C6125E6AE86A7002E96B8882898334
:10451300A3A3700812615B9016C6800912615B8CBD
:10452300828D83A3A3125A9B802774F7120486EA11
:10453300FEEBFFEA4F6015121F921245B2125FF3B2
:104543006003124169EEFAEFFB12130E80031209A6
:10455300327F010206E3125E6E121A3AE9641A22EE
:10456300124569A3A32212456D22F08A828B83A38D
:10457300A3A3A3221267BD1250852212431CA322B8
:1045830074F61204869016C6126177801412619431
:104593001245B2124169EEFAEFFB12130EAE08AFE9
:1045A30009EE4F70E89016C6E4F0A3F00255638E4F
:1045B300828F8312676EF5831245C68E828F8312B4
:1045C30045C622E0FAA3E0FB12130E22C082C08389
:1045D300EAFCEBFDEA4D6017EA24FBF582EB34FFBE
:1045E300125FF87007124624E0F4600712125A793A
:1045F30005802B9016AEE0C0E0124624D0E0F09088
:104603002BE1E493F97AC87B16121290E9640170E6
:104613000B7A007B20124633790080027904025121
:10462300F3EA24FFF582EB34FFF583227A207B0043
:104633009016AEE0F91212962274F4120486A2AF19
:10464300E433F508C2AF9016C81244D16038EE24A3
:10465300FBF582EF34FF125FF87A007B209016AEF1
:1046630060051246368005E0F912129CE4F50AF55E
:104673000B780A120970EEFCEFFD7AC87B16121252
:104683008A7402120932E508A2E092AFEEFAEFFB58
:1046930002343A12469BE02212469F221246A9A3F5
:1046A300A3A3A3A3A322F08E828F83221209327FB6
:1046B300030206E374F212048674FA120A30EAFE65
:1046C300EBFF7508FE7509FF121F56E960057911A6
:1046D300024839124D59603C901907E0C43354E045
:1046E300F8E0333354FC48C0E0EE1257683FF583DB
:1046F300D0E01261B6FAA3E0FB79FF121D10EA4B7A
:1047030060127508FFEE240F124D5C4404F0124D45
:1047130059D2E0F08E828F831248726006EE241223
:104723001261CEEE2413124D5C700D902BDEE493D8
:10473300C0E0124848D0E0F08E828F83E0A2E750B9
:104743000454038019EE2414124D5C701290164029
:10475300E0C0E012483ED0E0F0901640E004F0EEF6
:104763002411124D5C640170169018F0E0600D90F6
:10477300164BE0700A8E828F83E070031261CB8E3A
:10478300828F83E064017013EE240B12507B64026A
:104793007009EE240F124D5C4440F0AC18AD19EED5
:1047A300FAEFFB121FC28A0A8B0B74FE65087003B3
:1047B30074FFF47003126194EA4B60768E828F83E8
:1047C300E0C0E07401120C2FD0E0F07404120C2F3F
:1047D300EEF0A3EFF0EE241E1261557402120C2FBB
:1047E300125A9B74011209EA880C890D780C12097C
:1047F30070EE242012485B1209741248561207A265
:10480300EE240E12485B1209749016541207A27418
:1048130008120C2FE0F9AC08AD09121FBC74081282
:104823000932E9FE74106E700BAA0AAB0B12130E59
:1048330080027E10EEF97406024194EE2414F58290
:10484300E43FF58322EE12484D222413F582E43F20
:10485300F58322EE12417122F582E43FF583E0F500
:104863000C780C228E828F83A3A3A3A3A3A3A3A359
:10487300A312487822E0FAA3E0FB12205EE922C0EB
:1048830082C08374D7120A3090846474031209FAC5
:1048930074261208968A828B83A3A3A3A312615B57
:1048A300740E120C2F12600012615B740C120C2F29
:1048B30012497B240D12496BC0E0741A120C2FD0DD
:1048C300E0F0125EF71261597420120C2F12497B2B
:1048D300241512496BC0E07408120C2FD0E0F0EAE3
:1048E300241CF582E43B1261597412120C2F1249F5
:1048F3007B241112496BC0E07409120C2FD0E0F035
:10490300EA241212496BC0E07407120C2FD0E0F0B6
:10491300EA241EF582E43B1261597424120C2F120F
:10492300497B242012496BC0E07426120C2FD0E07F
:1049330012497374FFF07401120C2F74FFF07402A8
:10494300120C2F74FFF09087E512079E740412096E
:10495300FA74071209F2121B9674041209327900D1
:1049630074291209320251F3F582E43BF583E02204
:10497300F085188285198322E8F0A3E9F0EA22740E
:10498300F412048674EC120A308A0A8B0B8C088D9D
:1049930009E9FF7E107A217B0012130885188285AE
:1049A3001983EAF0A3EB12600AE8497003024A8F05
:1049B3007C217D007900851882851983E0FA121223
:1049C3003C901661125E6A851882851983125B79A1
:1049D3002409F582E438F583125FB67420120C2F94
:1049E30012615B7411120C2FE81250EA125FBC388B
:1049F300F58374021250ED12678874021250D712B5
:104A03004A961250ED126765EFF07422120C2F12C2
:104A13005098F9A3E0C912645F39F583E8124DADEC
:104A2300A3E0C9241FF582E439124A9D7423120CB2
:104A33002F125E6A7406120C2F125FB67408120CE2
:104A43002FE8F07426120C2F125F90C082C083747B
:104A53000C120C2FAC82AD83D083D0827405120864
:104A6300967425120C2FE0C0E07413120C2FD0E0C3
:104A7300F07900AA18AB19121F5CE9640170047E77
:104A830000800985188285198312416CEEF974142C
:104A9300023437E508F0A3E50922F583E50AF0A31C
:104AA300E50BF02274F012048674FF120A30EAFE5A
:104AB300EBFF8C088D098A82F583A37408F0EA243E
:104AC30016124D5C60088A828B83A37410F0EA246B
:104AD30017124D5C60098A828B83A3E02408F0EAF5
:104AE300124D5A60088A828B83A3E004F08A828B7A
:104AF30083A3A3A3A3A3A3E060198A828B83A3A3A5
:104B0300A3A3A3A3A3E0C3332402F88A828B83A3C2
:104B1300E028F0EA2411124D646004740E8001E46D
:104B2300F09018FFE0640170168A828B83E06401C1
:104B3300600D9015CDE06007124D4474018004129E
:104B43004D44E4124DAD8A828B83A3E0F8EA122F21
:104B5300FC28298C828D83F0EA2411124D5C6005B8
:104B630012538529F0850882850983E0C394754033
:104B730009750C00750D00024D3BE0FA7B00121322
:104B8300088A0C8B0DEA4B7003024D3B8E828F8398
:104B9300E0FA901651124DA674027808120AC1EA7F
:104BA3004508FAAB09EE2412124DA07406780812D8
:104BB3000AC1A808EA48FCEBFD124D5960047801CC
:104BC30080027800EE2416FAE43FFBE4C8F9ED49CD
:104BD300FDEE2411124D5CF508880974097808125A
:104BE3000AC1ED4509FD8A828B83124DA6740B78A9
:104BF30008120AC1ED4509FDEE2417124DA0740CED
:104C03007808120AC1ED4509FD8E828F83A3A3A301
:104C1300A3A3A3124DA6740A7808120AC1ED45098D
:104C2300FDEE2423124DA0740D7808120AC1ED4540
:104C330009F9EC850C82850D83F0E9A3F0EE2402DB
:104C4300124D83124DC2F0EE2404124D83A3A3121E
:104C53004DC2A3A3F0EE2413124D93F0EE241412CD
:104C63004D93A3F0750B088A828B83E06015126065
:104C73006C125B75E50C2408FAE4350DFB1213F294
:104C8300750B10EE2417124D5C6019125BF8125B62
:104C930075A80BE50C28FAE4350DFB1213F2740822
:104CA300250BF50B8E828F83A3A3A3A3A3A3E0609D
:104CB3004EEE2407F50EE43FF50F850E82F583E0F3
:104CC300C0E0124D72D0E0124DB2E0C0E008124DC8
:104CD30074D0E0124DB2A3125FE612096C850E8206
:104CE300850F83E012504CA80BE50C28124D4E1291
:104CF3000932850E82850F83E0C333250BF50B1232
:104D03004D596008C0E0124D72D0E0F012534212C8
:104D13005FE612096C122FFBFC7D007403120C2F4B
:104D2300124D7BE0F8E50C28F8E4350DF9E82AFA92
:104D3300E439124D52120932AA0CAB0D7401025F11
:104D4300CFEA2423F582E43FF58322FAE4350DFB11
:104D5300121230740322EE2415F582E43FF583E04A
:104D630022F582E43FF583E085188285198322A822
:104D73000BE50C2812505F22E0FA8E828F83A32268
:104D8300F8E43FF98882F583E0850C82850D832260
:104D9300F582E43FF583124DCCA3A3A322F582E46D
:104DA3003FF583E0F508750900221267ABF922F09D
:104DB300050B8E828F83A3A3A3A3A3A3A3A322A3E1
:104DC300A31261A2A3124DCC22E0850C82850D8330
:104DD300A3A3A322740302343712615F8E828F83ED
:104DE300A3A32274F012048674FD120A30125FB07A
:104DF3007402120C2FE9F08C0C8D0D750B017C26BF
:104E03007D007900AA0CAB0D12123C7402120C2F18
:104E1300E0C394085003024FD5124D8BF0AC0CAD98
:104E23000D851882851983125081FA851882851998
:104E3300831256A712537EE96003750B008518820F
:104E4300851983125F901250A2E0F9EA850C8285DE
:104E53000D83A3A3A3A3A3A3A3A3A3F0A3E9125026
:104E6300D7A3A31250A2A3A3E0F9E50C12600FEAA3
:104E73001250EA125B65C0E0E50C24111267E3D01F
:104E8300E01250ED2407F582E438F583E0C0E01228
:104E930067DFD0E0125FA374081250CEA3E0602650
:104EA300851882851983E02408F8A3E03400F9E526
:104EB3000C2413F582E4350D125A99850C82850D65
:104EC30083A3E02408F0850C82850D83A3A3A3A309
:104ED300A3A3A3A3E0602A850C82850D83A3858207
:104EE3000E85830F12508FF8A3E03400F9E50C12FE
:104EF3005768350D125A99850E82850F83E0240871
:104F0300F0125053E4F0125067E4F0A3125FA3A32E
:104F1300A3A3A3E060111250B3850C82850D83A374
:104F2300A3A3A3A31250DFE50C125074E070030295
:104F33004FC11250B3FA125053EA1250DFF88518DA
:104F430082851983E028FBA3E034008B82F583E09C
:104F5300F8E50C241A1267E3E81250DFE8C39AE578
:104F63000C505612506FF8902BE2E493C398500400
:104F73007E0C8006E50C12506FFE850C82850D8336
:104F830012508EF508A3E03400F509750A0078087D
:104F930012096CEE12504C7A057B0B124D53120919
:104FA300321250677405F0A3740BF0EEC333F88527
:104FB3000E82850F83E0288004125074E4F0850C80
:104FC30082850D83A3E0F8850C82850D83E0C39869
:104FD30050047900807012508EFAA3E03400FBE590
:104FE3000C1261C51267E6125FB6850C82850D83CC
:104FF300E0C398C0E0E50C24171267E3D0E0125039
:10500300CEE06040E50C2417FEE4350DFF8E82F5FB
:1050130083E024F2F0E50C241DF8E4350DF98882D1
:10502300F583E0240EFAA3E03400FB88828983121F
:105033005FB690164CE0F9121EB4E9F88E828F83A6
:10504300E0C398F0A90B025FCD25E0FCE433FD2219
:10505300E50C12505922241912505F22F582E435CF
:105063000DF58322E50C241B12505F22125059E0E8
:1050730022125F9D12506222F582E43FF5831250A3
:105083008522126164F5838882E022A31250932261
:105093001250982822E0F8851882851983E022A30C
:1050A300A3E0FA851882851983125F96A3A3A3222E
:1050B300850C82850D83A385820E85830F12509301
:1050C300FAA3E034008A82F583E022125FA7A3A348
:1050D300A3A3A3221250F2F583888222F0850E82C5
:1050E300850F83E004F022F0A3E91250F2C82212E4
:1050F30067AFF8A3E02274F41204868A088B09EAE6
:105103001251A2A3A3F0EA1313543F125195A3F033
:10511300EAC413131251A21251AC7409780A120B88
:10512300C912518CA3A3A3A3A3A3F0EB12518E1214
:1051330051AB740A780A120BC9E50A5401C0E0ECBA
:10514300125F9D3DF583D0E01251B0740B780A12C3
:105153000BC912518C1251A9740C780A120BC91283
:10516300518CA31251A9740D780A120BC9E50A5484
:1051730001C0E0EC2424F582E43DF583D0E0F07433
:105183000E7808120BC9023426E50A54018C828D6D
:10519300832212519BA3A322540F8C828D8322540A
:1051A300038C828D8322A3A3A3A3A3A3A3F08A0AC0
:1051B3008B0B22C082C08379008A828B83A3A3A333
:1051C300A3A3A3E090164B600EE0701F8A828B832B
:1051D300A3A3E070168012E06011125E5D90165476
:1051E300E06A7003A3E06B600279018003125E6AD8
:1051F300D083D08202091A74F21204868A0A8B0BB6
:10520300890CECFEEDFF8A828B83E0FA12537E85D4
:105213000A82850B83A3A3125372E0F9EA8E828F6D
:1052230083A3A3A3A3A3A3A3A3A31253971253726A
:10523300A3A3E0F9125342EA125397A3A3E0C0E0F9
:10524300EE2411F582E43FF583D0E012539EA3A32D
:10525300A3E0C0E0EE2412F582E43FF583D0E01230
:10526300607B74081243C0A3A3A3E06017E50A247C
:1052730008F8E4350BF9124848E8F0A3E912607B1B
:10528300E02408F08E828F83A3A3A3A3A3A3A3A3E5
:10529300E060188E828F83A3125361EE2415125A95
:1052A30095850882850983E02408F08E828F83A385
:1052B300A3A3A3A3E060248E828F83A385820885A2
:1052C3008309E0F8E50A28F582E4350B125356A367
:1052D300A3F0850882850983E004F0EEFAEFFB1260
:1052E3001FD4E9F50D70498E828F83A3A3A3A3A3D3
:1052F300A3125350A37014E0F8E50A28FAE4350B1F
:10530300FB125338125FB6E50C801A125361E8247E
:105313000EF8500109EE241D125A95125385F9E532
:105323000CC39924F2C398C0E0EE125BEFD0E0F017
:10533300A90D024197EE241DF582E43FF58322EE89
:1053430012534722240BF582E43FF58322E08E8239
:105353008F8322F583E08E828F83A3A3A32285828A
:1053630008858309E0F8E50A28F8E4350BF922E01B
:10537300FA850A82850B83A3A3A3221261D7121F86
:10538300CE2290164CE0F9121EB4E9F88508828506
:105393000983E022F0A3E912539E22F0850A828555
:1053A3000B83A3A3A3A322C082C0837AD47B1679E1
:1053B300E2121A107AD47B160251F3C082C0839092
:1053C30016540251F0C082C0839016570251F0C0A8
:1053D30082C083794A121A100251F374F6120486BA
:1053E3009016DCE0FE04F0EEF9121F86EA4B70F033
:1053F300EE60EDF902556374F2120486EAFEEBFFE8
:105403008C088D09890A1220C4740E120C2FE0F93E
:10541300740F120C2FE0F8EA4B7012E8701BA90A04
:10542300AC08AD09EEFAEFFB1220E28065E86017E5
:10543300E970068A828B83E4F07401687054E99002
:1054430016DF7024E4801EE97048EA240212496BD7
:10545300A80A28F8E4340013E813F070358A828B25
:1054630083A3A37401F0802AE004F09018EDE0F820
:105473009016DFE0C398401AE4F0901657E06E7080
:1054830003A3E06F700CEEFAEFFB7901121BBA1263
:1054930054980241977A017B009016AEE0F91213FB
:1054A300C82274F41204868A088B098C0A8D0B9027
:1054B30087C97808120A4670077A01124631801E9E
:1054C3009018DA7808120BBAEA4B4C4D600D780845
:1054D3001209681231D5120932800312549802342A
:1054E3003AC082C0839018DE023EE2C082C083903D
:1054F30018E0023EE274F61204867E0075084075D9
:10550300091678081209707C6E7D007A217B0012DF
:1055130013807402120932E9640A70027E01121BBD
:1055230012E9640A7004EED2E1FE900436125FFAC7
:10553300600F1256A81205FEE9640A7004EED2E366
:10554300FE121D34E9640A7004EED2E4FE12198CD3
:10555300E9640A7004EED2E5FEEEF9800312093223
:105563007F020206E374F61204861211FA750840EC
:10557300750916780812097075086E7509007808A0
:105583001209701255A5120932121B189004381211
:105593005FFA60061256A81205FE121D3A12199EF2
:1055A30080BE7C007D007A217B0012138C74042260
:1055B30074F612048674FF120A307E007508407573
:1055C300091678081209707C6E7D007A217B00121F
:1055D30013807402120932E9600302567F780812BD
:1055E300097075086E8E0978081209707C007D00B9
:1055F3007A217B001213927404120932E9707D90B0
:105603001654E064FE7003A3E0F460707E0190160C
:1056130063E064086005E06404705C8518828519A2
:1056230083EE1256BF7A6B7B167943121A167A6889
:105633007B167947121A167A597B16794A12569AAB
:105643007A617B167950121A167A547B16795312A3
:105653001A167A697B167954121A167A567B1679BA
:10566300E1121A1690164EE0A2E35004D2F0800223
:10567300C2F01256AC80051211FA7E00121B06907E
:10568300043A125FFA60061256A81205FE121D466E
:10569300EEF97401025560121A167A577B16794B8C
:1056A300121A1622A3125F9722A2F0E433851882FE
:1056B30085198312571E7952121A162212571E7910
:1056C30042121A162274F6120486E9FEA2E0501C56
:1056D300750840750916780812097075086E750902
:1056E3000078081209701255A5120932EEA2E35090
:1056F30003121B0CEEA2E2500E90043C125FFA6000
:10570300061256A81205FE025563121F387AB17BA2
:10571300167945121A162212571E22F0AA18AB192F
:105723002274F712048674ED120A30E9FE9016AD66
:10573300F0AC18AD191257507412120C2FEE125709
:105743005DAA18AB1912570D741302455190192015
:10575300E0F97AB17B16121F3E22F0901920E0F98E
:105763007CB17D16222415F582E42212677B35096C
:10577300F58322EFFB9016AEE0F912126022EE24BD
:105783001612578822F582E43FF5837401F0221242
:10579300677A3FF58312579C22126164F98882F578
:1057A300832274F41204868A088B097A007B04121C
:1057B300549C1258479016637409F0125DDF123837
:1057C300A6125E6A125DEB640170677A0F7B0012AA
:1057D30012548A0A8B0BAF0BEA4F60568A828B8373
:1057E3007402F0E5081261C535091261E3FC888291
:1057F3008983A3A3E0FBEC8A828F83A3A3125FB701
:1058030088828983A3A3A3E08A828F83125838FAFC
:10581300A3E0FB794A121A16850882850983A3A39C
:10582300A3A3A3A3E070069014DC7405F0AA0A12E4
:10583300577602343AA3F0E5082415F582E43509D6
:10584300F583E0229015E912615F9018E0E8F0A378
:10585300E9F09015EB12615F9018DEE8F0A3E9F030
:105863002274F412048674FD120A308A088B0974B8
:1058730001120C2F740212609C700302593F1257DD
:10588300927404F0A3E412595CE064017008888206
:105893008983A37420F0850882850983A3A3A3A326
:1058A300A3E06401700988828983A3E0D2E6F085CE
:1058B3000882850983A3A3A3A3A3A3E06401700AB9
:1058C30088828983A3E0D2E78006EA1248497401FB
:1058D300125957E064017020850882850983A3A3C8
:1058E300125FFA6004EA125782850882850983A34E
:1058F300A312615BEA125A93850882850983A3A3E5
:10590300A3A3A3A3A3E064017009EA240F1257849D
:10591300A3E4F08508828509831248746009EE24A4
:105923000F124D5C4404F01259688508828509837F
:1059330012594412594E1261A8F980027910024D8E
:10594300D7E0F8A3E0F98E828F8322A3A3E8F0A324
:10595300E9F0EE2212595CA322F0850882850983BF
:10596300A3A3A3A322EE125BDD2274F512048674B3
:10597300F3120A30890AEAFEEBFF75080075090085
:105983007C0D7D007900AA18AB1912123C12533812
:10599300125B82741F58600C7AD37B001217AC79A8
:1059A30000025A7EE8A2E55008740C120C2F740111
:1059B300F0E8A2E75008740B120C2F7401F0E8A270
:1059C300E6740A5008120C2F7401F08008120C2F91
:1059D300E0640170138E828F83A3A3A3A3A3A3A365
:1059E300E06036EE241380128E828F83A3A3A3A3D9
:1059F300A3A3A3A3E06022EE2415F582E43FF5837D
:105A030012619AE50845096010AC08AD09740212E9
:105A13000C2FAA82AB831213F2125342125A83122F
:105A23005A9B740A120C2FE064017046901912E01D
:105A33006047640170069018FBE0603DEE240B1292
:105A43006155901657E0687003A3E069702B124804
:105A5300677026E50845096019121FE08A088B095B
:105A6300AC08AD097402120C2FAA82AB83125DEB52
:105A73006007AA18AB19121BB4A90A740D0246AF2A
:105A8300125A8722E0F8A3E0F98518828519832248
:105A93002418F582E43FF583E8F0A3E9F02274F7D4
:105AA30012048674CD120A30EAFEEBFF8A82F58374
:105AB300125B79125B65A2E04003025B608A828B12
:105AC30083125798A3A3A3A3A3A3E054FE12646C69
:105AD300740D1209FAEA241E12496B126134125E24
:105AE3006A121FDAE97076742A120C2F125B89701E
:105AF3006C7C0D7D007900AA18AB1912123C741648
:105B0300120C2F125A83125A9B742A120C2F125BF7
:105B130082A2E55008740B120C2F7401F0E8A2E77F
:105B23005008740A120C2F7401F0E8A2E6500474B2
:105B33002080027422120C2F125B757402120C2F38
