:020000040000FA
:0600000002124702086134
:03002B0002102997
:03004300020EDDCD
:030053000207960B
:100083000207F50100F0FF0700080000FFFF000072
:10009300050400000003000147726F757000FF0440
:1000A30000100020FD000200001F180000000000E7
:1000B300007F18000000000000FB17000000000094
:1000C300000000000007180000000000000000000E
:1000D30000000006FFFF011E124261736564206F7A
:1000E3006E2054492043433235333001010401006B
:1000F300010006819102AA92FD1B00004B1C000027
:1001030000000000000000000000000000000000EC
:10011300020401000100011493011693FD1B00006A
:10012300511C00000000000000000000000000005F
:100133000000000003040100010001149301169361
:10014300FD1B0000571C0000000000000000000021
:10015300000000000000000004040100010001147D
:1001630093011693FD1B00005D1C000000000000BE
:1001730000000000000000000000000001FF010279
:10018300010400006814000000E8030000FFFFB949
:10019300140188130000E803000064006400B80140
:1001A300A0BB0D00A0BB0D00020202070401010564
:1001B3001E02051E020A0A010108080103B80B0208
:1001C300803E0102FEFFE8030A050001FFFF020A69
:1001D3001401E0000020410200000005030101FFBB
:1001E3000F030003000300030003000300030003E5
:1001F30000030005000A00140028004F009E0000C1
:10020300006D3000000000412F00000000FF0000DF
:1002130000FF00121257601D12126670051919199A
:10022300801A12111F701F121133C37003E6673354
:1002330019191940071818182208080874FFF61826
:10024300F618F618F62212113360171212F4702101
:1002530092F01212FD7019501720F01408080809C3
:100263000909E7F61819E7F61819E7F61819E7F672
:10027300221212FD60E6E869701F0808E62480F682
:1002830008E436F618547FB47F0CE654806007F612
:10029300E418F618F622181822E9C6CC08C6CD08C9
:1002A300C6CE08C6CFC0E0E8C0E0EAC0E0EBC0E0DD
:1002B30009E9F809E7FA09E7FBE6F918E6F8C3ECF8
:1002C30098ED99EE9AEBC2E7F5F0EFC2E795F0509F
:1002D3000E600CEBCFFBEACEFAE9CDF9E8CCF8EAF5
:1002E300A2E7D2E7FAEB33FB13F5F0EEA2E7D2E78E
:1002F300FEEF33FFC5F013A2E730E601B313C5F0F9
:10030300C3C0E0C0F07F00C39BFB605E9418600F26
:10031300401D14601AD0E023F9D0E0F80203F78AF5
:10032300F0E9486003D2F0E4AFF0FAF9F8803BEB70
:1003330030E40D89F0EA6003D2F0E4AFF0F9CAF8D3
:10034300EB30E30D88F0EF6002D2F0AFF0E4CAC9FE
:10035300F8EB54076014FBC3EA13FAE913F9E81343
:10036300F8EF135002D2E0FFDBEDD0E0C0E030E75E
:1003730039C3E49FFFF5F0EC98FC42F0ED99FD42A0
:10038300F0EE9AFE42F0D0E0F9D0E0F8E5F0607AC2
:10039300E923F9EE20E742D8028067C3EF33FFEC8D
:1003A30033FCED33FDEE33FE80EAEC28FCED39FD42
:1003B300EE3AFED0E023F9D0E0F84002801BC3EE12
:1003C30013FEED13FDEC13FCEF135002D2E0FF0814
:1003D300B800067F7F74FF802EEF3350178CF02018
:1003E300F00260100CBC000C0DBD00080EBE000432
:1003F30008E860DFE933E813FFEE2313FE4F4D4CAB
:100403008008E95480FFE4FEFDFCEE33EF33F47023
:1004130004FCFD7E80D0E0FBD0E0FAD0E0F8D0E031
:10042300CFC618CEC618CDC618CCC6F9221212579D
:10043300700418181822121266700D74FFF618193A
:10044300F61819F61819F622E7548066F61212FD0B
:10045300700F1212F470F014F608F608F608F6801E
:10046300D11212F4700CF608F608768008E6447F81
:1004730080EC121136700C12112260BFE65480F624
:10048300E480BB121122700519191980A5E869705F
:100493000C763F18768018F618F6E8F922E6CDC0F8
:1004A300E018ECC0E0E633CD33CDD313F6E719FC07
:1004B300E7191933CC33C3947F400ECD9D502408E4
:1004C300E65480F6E418F6800FF4043D1450140843
:1004D300E6447FF6187680E418F618F6D0E0FCD0F0
:1004E300E0FD22CCD313CCFD18E4C6CBC0E018E466
:1004F300C6CAC0E00808ED08C633E613F618E433AD
:10050300C675F003C3CA97CA09CB97CB199C40049D
:100513007D08802EBD00030205D916B6FF05060629
:10052300081618C3CA33CACB33CB33CA27CA09CB7D
:1005330037CB193CC37D08803E187D0820E75CC695
:1005430033C6CA33CACB33CB33DDF1D5F0EB30E757
:100553007BCA97CA09CB974ACB199C406F4B70252E
:10056300E620E0218066187D08C3CA97CA09CB97A5
:10057300CB199CD3C633C6CA33CACB33CB3350C98A
:10058300DDE7D5F0E1D3E4C636C608C636C608C6ED
:1005930036C608C636C61818188031C3CA97CA09A2
:1005A300CB97CB199CB34097C633C6CA33CACB3358
:1005B300CB33DD34D5F02EC6A2E0C640C8CA27CA65
:1005C30009CB37194A70BECB3CB480B90808E6336F
:1005D30008E633601F181818D0E0FAD0E0FBD0E02B
:1005E300FCD0E0FD22187D08CA27CA09CB37CB19F6
:1005F3003CD3808013F618E4B67F11F618B6FF0ECD
:10060300F618C60470D20808768080CAF618F61861
:10061300F680C500121257604F1212666012E7543B
:100623008066F612111F70111212F4703B0909094A
:10063300F4F618F618F618F6221211337015121282
:10064300FD08080860EAE6447FF618768018E4F6A9
:1006530018F6221212FD60161212F47012E4F60854
:10066300F608F608E65480F609090918181822EA6C
:10067300C0E0EBC0E0ECC0E0EDC0E0E687F0A4FB37
:10068300ACF008E687F0A42CFCE435F0FA1809E690
:1006930087F0A42C4B60027401CA35F0FCE433FBF1
:1006A30009E687F0D2F7A42CCB35F0FC1908E687CE
:1006B300F0A42BCC35F0FBE433FD0819E687F0D228
:1006C300E7A42C4ACB35F0CD3400FC09E687F0D201
:1006D300E7A42DCC35F0FDE433FA0918E687F0D210
:1006E300F7A42CCD35F0CA3400FC08E687F0D2E736
:1006F300D2F7A42ACC35F07A7E20E70B0ACB33CB92
:10070300CD33CDCC33CC33CB3350147004ED30E048
:100713000ED2F1E4CD3DCDCC3CCC3B5005DA05C245
:10072300F1EB547FC63308E63392F0FBE73309E776
:1007330033C39A502D2B70190C0D4C4D70151806A0
:10074300E608C333700D20F10AA2F013F6E4188013
:100753000B4024E4F630F002768018F618F618F60B
:100763008024D33B14501074FFA2F013F618768044
:10077300E418F618F6800FA2F013F618E63303F622
:1007830018ECF618EDF6D0E0FDD0E0FCD0E0FBD09D
:10079300E0FA22C0E074F1120B7FA2AFE433F50953
:1007A300D2AF85A708AFA1EF5508FE74105E6006AF
:1007B30012158B75A1EF74085E600812159175A16F
:1007C300F78024EFA2E092F0E508A2E082F0501750
:1007D300906198E0F89006BBE0C398A2D265D0334D
:1007E3005002E8F075A1FEE509A2E092AF7F020294
:1007F3000BDEC0E074F2120B7FA2AFE433FED2AF84
:100803009061A4E0F8759B00E59158540860087561
:1008130091F71215DF8023E5915854106008759104
:10082300EF1215E58014E591A2E092F0E8A2E082D0
:10083300F05007E0C2E0F012172F9061A3E0F8E553
:10084300E9585404600E12170575E9FB906193E0B3
:10085300A2E640F2EEA2E092AF7F01020BDEC0E01F
:1008630074F2120B7FA2AFE433FED2AF9061A5E026
:10087300F8E5BF585404600675BFFB12174780D4D0
:10088300C3E498F8E499F91208C48026C3E49AFAF9
:10089300E49BFBE920E7E91208C4E498F8E499F93A
:1008A30022C3E498F8E499F91208C4E498F8E499A7
:1008B300F9C3E49AFAE49BFB22EB20E7CFE920E7B4
:1008C300E0B90010BB0008E88AF084F8AAF022E43B
:1008D300FBC8FA22EB70227B10C833C8C933C93373
:1008E3005007C39AC3DBF280069A50012ADBEAC899
:1008F30033F4C8C933F4C9FA2275F008E4C833C81D
:10090300C933C933C99AC99B5004C92AC93BD5F015
:10091300ECFBC833F4C8E4C9FA2212095D20F014D1
:1009230030E72B74FFFCFBFA747F8022E4FCFBFAB4
:100933007480801AB48008BC00F2BB00EF800F50B3
:10094300EBF9E4C39AFAE49BFBE49CFCE499C6CC80
:1009530018C6CB18C6CA18C6F922E4C9C608CAC63F
:1009630008CBC6D3330308CCC63392F0C3947F407D
:100973002E94184019C9B90704CACBCC225025C3F9
:1009830009CA33CACB33CBCC33CC33D9F422F4608A
:100993000DC9CCC313CB13CBCA13CAD9F6CC22E4EB
:1009A300FCFBFA2214FCFBFA22080808EAC0E0EB7D
:1009B300C0E086F0E7A4FA180986F0E7A42AFA183B
:1009C3000986F0E7A42AFA180986F0E7A42AFA1997
:1009D30086F0E7A4FBE5F02AFA190886F0E7A42BD2
:1009E300FBE5F03AFA190886F0E7A42BFBE5F03AA9
:1009F300FA18180986F0E7A4C5F02BFBE43AFA19B4
:100A030008E7C5F0C6A426F6E5F03BFBE43AFA187E
:100A130086F0E7A4F6E5F00826F6E43B08F6E43AA8
:100A230008F6D0E0FBD0E0FA22080808E630E71128
:100A33001210F7120A44080808C64480C61818188A
:100A430022181818E9799EC608CAC608CBC608CC6E
:100A5300C6C370207996CACBCC7019798ECBCC7073
:100A6300137986CC700EF9802ACA33CACB33CBCC28
:100A730033CC331930E7F2CCCBCA3350147004EAC9
:100A830030E00DE4CA3ACACB3BCBCC3CCC50020994
:100A9300C3E913C6CC182313C6CB18C6CA18C6F9A4
:100AA30022E4CFC0E0E4CEC0E0E4CDC0E0E4CCC0BB
:100AB300E075F020E626F608E633F608E633F60896
:100AC300E633F6181818EC33FCED33FDEE33FEEF86
:100AD30033FFC3EC9709ED9709EE9709EF971919BF
:100AE30019400FFFEC97FC09ED97FD09EE97FE19EE
:100AF3001906D5F0BFECF709EDF709EEF709EFF7A3
:100B0300191919D0E0FCD0E0FDD0E0FED0E0FF22BF
:100B13002518C582C0E0E51934FFC583C0E0E51898
:100B2300C3958224F810AF0885831985821880083D
:100B3300858319858218D2AFCEF0A3E520F0A37880
:100B430008E608F0A3DEFAEFF0A3E58124FAF8E65D
:100B530008F0A3E608F0A3E608F0A30808E608F007
:100B6300A3E608F0A315811581D0E0FED0E0F815C7
:100B73008115811581E8C0E0EEC0E022C0D02518C0
:100B8300C582C0E0E51934FFC583C0E0E518C3950D
:100B93008224F310AF088583198582188008858322
:100BA30019858218D2AFC8F0A3E9F0A3EAF0A3EB4A
:100BB300F0A37908E709F0A3D8FAECF0A3EDF0A3CA
:100BC300EEF0A3EFF0A3D0E0F0A3D0E0F0A3D0E0E9
:100BD300F0A3E520F0A3E5F0F0A32285198385189F
:100BE30082E0C0E0A3E0F9A3E0FAA3E0FBA3780866
:100BF300E0F608A3DFFAE0FCA3E0FDA3E0FEA3E038
:100C0300FFA3E0C0E0A3E0C0E0A3E0F5D0A3E0F5DC
:100C130020A3E0A3F5F010AF08858319858218801F
:100C230008858319858218D2AFD082D083D0E0F8AB
:100C3300D0E0321212DFB90003020C75E490040114
:100C4300785879148002F0A3D8FCD9FA7A587B1724
:100C5300900086789179028015E493A3AD82AE83E8
:100C63008A828B83F0A3AA82AB838D828E83D8E999
:100C7300D9E77582857583C07405120FA07582113B
:100C830075832C7400120FA0FF75F0108E1A8F1B42
:100C930085821F85831E851882851983E0CEA3E094
:100CA300CF851F82851E83EBC9EAC8EDCBECCAC38F
:100CB300E833C8E933C9EA33CAEB33CBC3EA9EF559
:100CC3001DEB9FF51CB35004AB1CAA1DEC33CCEDFC
:100CD30033CDD5F0DAAE1AAF1B22D083D082ECC06D
:100CE300E0EDC0E0E493A3FCE493A3FDED4C600DC1
:100CF300120DB5EC24FFFCED34FFFD80EFE493A36C
:100D0300FCE493A3FDED4C600D120E88EC24FFFC74
:100D1300ED34FFFD80EFD0E0FDD0E0FCE493A3C011
:100D2300E0E493C0E022851983851882E0A3FEE006
:100D3300A3F5207808E0A3F608DFFAE0A3FFE0A319
:100D4300C0E0E0A3C0E0E0A3C0E0E0A3C0E0E0A314
:100D5300C0E010AF08858218858319800885821842
:100D6300858319D2AFD083D082020FA6D083D082DD
:100D7300E9C0E0E493A3C386F0C5F095F0F908E475
:100D830093A386F0C5F095F0700BE493A3C3994049
:100D930005E9048002A3E475F002A42582F582E547
:100DA300F03583F583D0E0F9E493A3C0E0E493C086
:100DB300E022C0E0C3E49396087401939618400FB1
:100DC300E49366700808740193661870007019A3A1
:100DD300A3C3E49396087401939618A3A3400DD07C
:100DE300E0D0E0D0E0020D19A3A3A3A3A3A3D0E016
:100DF30022C082C08374FE12108C851882851983E9
:100E0300EAF0A3EBF07C017D00AA18AB197900127C
:100E13001513851882851983E0FAA3E0FB74021287
:100E23000FF4D083D082227404800474028000CC37
:100E3300C0E0EDC0E0E518C39CCCAD1950011D1016
:100E4300AF068C188D1980068C188D19D2AF120F2E
:100E530022D0E0FDD0E0FC2274028000CCC0E0EDA3
:100E6300C0E0E518C39CCCAD1950011D10AF068C32
:100E7300188D1980068C188D19D2AF120F00D0E08F
:100E8300FDD0E0FC22C0E0C0F088F0E49366700877
:100E93000874019366187000A8F0A3A3700BD0F038
:100EA300D0E0D0E0D0E0020D19A3A3D0F0D0E0222F
:100EB300D083D082CCC0E0E493A36006120F8114E8
:100EC30070FAE493A360061210A21470FAD0E0FC47
:100ED300E493A3C0E0E493C0E022C0E074F2120BF9
:100EE3007FA2AFE433FED2AFC2C0E5D1A2E4500388
:100EF3001214FBEEA2E092AF7F01020BDECAC0E048
:100F0300E493A3C582CCC582C583CDC583F0A3C5B5
:100F130082CCC582C583CDC583DAE5D0E0CA22CAB7
:100F2300C0E0E0A3C582CCC582C583CDC583F0A351
:100F3300C582CCC582C583CDC583DAE6D0E0CA229B
:100F4300C008C3E096F50808A3E096420808A3E0AA
:100F530096420808A3E09645087001D3D008227092
:100F630009080808226016181818C6C333C608C62D
:100F730033C608C633C608C633C6D5E0EA22C0E086
:100F8300E493A3D39C5010E493A3C39C400AD0E002
:100F9300D0E0D0E0020ED0A3A3A3D0E022C09FF5FF
:100FA3009FE473D09F22D083D082C09FE493C0E09C
:100FB300740193C0E0740293F59F227404800A7451
:100FC300038006740280027401C0E0F404120FD996
:100FD300D0E01212A2222518F58210AF08F51840AE
:100FE3000C15198008F51840021519D2AF8519831D
:100FF3002200C0D0251810AF08F518500C05198031
:1010030008F51850020519D2AFD0D022BB0102E770
:1010130022C082C08389828A83BB0003E08002E40A
:1010230093D083D08222C0E0C0D0E8C0E0A8A8D289
:10103300AFC2C7E8A2E792AFD0E0F8D0D0D0E03299
:101043006016080808C6C313C618C613C618C61305
:10105300C618C613C6D5E0EA222518F8E43519F9EF
:10106300222518FAE43519FB222518FCE43519FD6D
:1010730022C3E0C696F608A3E0C696F608A3E0C628
:1010830096F608A3E0C696F622251810AF08F518C1
:10109300400C15198008F51840021519D2AF22C06B
:1010A300E0E493A36C7009D0E0D0E0D0E0020ED06E
:1010B300A3A3D0E022E066701008A3E066700A08DC
:1010C300A3E066700408A3E06622C3E09608A3E0E9
:1010D3009608A3E09608A3E096A2D265D03322E750
:1010E3006670100809E766700A0809E76670040865
:1010F30009E76622181818E4C396F608E496F6087A
:10110300E496F608E496F622C3E096F008A3E09688
:10111300F008A3E096F008A3E096F022181818E66A
:101123000846087009E626087005E633F42208220B
:10113300191919E70947097009E727097005E73302
:10114300F4220922C3E697F60809E697F60809E6AA
:1011530097F60809E697F622C3E493960874019379
:10116300960874029396087403939622E627F6086A
:1011730009E637F60809E637F60809E637F6227076
:101183000422600D18C6C333C608C633C6D5E0F4BF
:101193001822E657F60809E657F60809E657F6084F
:1011A30009E657F622E056F608A3E056F608A3E050
:1011B30056F608A3E056F622E026F608A3E036F634
:1011C30008A3E036F608A3E036F622E026F008A3EB
:1011D300E036F008A3E036F008A3E036F022E0564C
:1011E300F008A3E056F008A3E056F008A3E056F099
:1011F30022E647F60809E647F60809E647F608092E
:10120300E647F622600D08C6A2E713C618C613C642
:10121300D5E0F322C6F4C608C6F4C608C6F4C60869
:10122300C6F4C622C3E7960809E7960809E79608B5
:1012330009E79622C3E09608A3E09608A3E0960880
:10124300A3E0962275D00075813F751801751904C6
:1012530000020C36E6084608C3134608336002E66C
:1012630033F422E7094709C3134709336002E7331D
:10127300F422600C08C6C313C618C613C6D5E0F41F
:1012830022E6F008A3E6F008A3E6F008A3E6F022BE
:10129300E0F608A3E0F608A3E0F608A3E0F622CA06
:1012A300C0E0E6F0A308DAFAD0E0FA22E0FAA3E01D
:1012B300FBA3E0FCA3E0FD22EAF0A3EBF0A3ECF038
:1012C300A3EDF022E0F8A3E0F9A3E0FAA3E0FB2208
:1012D300E8F0A3E9F0A3EAF0A3EBF022E5C754F8A2
:1012E3004401F5C77901222518F582E43519F58300
:1012F30022E72719471947194722E62618461846B1
:10130300184622C2AF75D69F02000022120FA9A170
:10131300E304120FA9DBEE01120FA957EF01120F1D
:10132300A98AEF01120FA9B8EF01120FA9DCF1018D
:10133300120FA9F8F101120FA93DF201120FA9C270
:10134300F201120FA90EF301120FA99EF301120F5E
:10135300A977F401120FA9C8F401120FA92DF50101
:10136300120FA9A0F501120FA9E4F501120FA93C70
:10137300F601120FA95EF601120FA9EEF601120F84
:10138300A97FF701120FA9CBF701120FA9F7F701F4
:10139300120FA938F801120FA9D9F901120FA9BB2D
:1013A300FA01120FA997FB01120FA9F3A805120F57
:1013B300A934A905120FA94EA905120FA96AA905F7
:1013C300120FA993A905120FA9BCA905120FA9FD14
:1013D300A905120FA95CAA05120FA9C6AA05120F27
:1013E300A925AB05120FA962AB05120FA920AC0505
:1013F300120FA96ECF05120FA97FCF05120FA91DDA
:10140300D005120FA937D005120FA9FDFF01120F46
:10141300A9E3B405120FA93AB505120FA9F2B6054F
:10142300120FA918B705120FA982D505120FA90C1F
:10143300D205120FA91CD205120FA931D205120F22
:10144300A97AD205120FA9F2FE04120FA976FF049E
:10145300120FA9DEFF04120FA9FD7F00120FA95579
:10146300D505120FA963D505120FA9A2D305120F33
:10147300A9BFD305120FA9CED305120FA9D7D30540
:10148300120FA904FC02120FA912FC02120FA98B5E
:10149300FC02120FA960FD02120FA932FF02120F04
:1014A300A9808F05120FA99E8F05120FA9CB8F0557
:1014B300120FA9CE9105120FA9499205120FA9E7A0
:1014C3009205120FA90B9305120FA9849305120F0E
:1014D300A973D405120FA9008005120FA96D800509
:1014E300120FA9258105120FA99B8105120FA9AF20
:1014F3008205120FA93F8405120FA9A88405120FB4
:10150300A9F78405120FA9008505120FA90F8505F8
:10151300120FA9258505120FA9388505120FA941B8
:101523008505120FA9548505120FA9808505120F91
:10153300A9178805120FA9578805120FA9938805C3
:10154300120FA9A78805120FA9C08805120FA9B108
:101553008905120FA9638A05120FA9778A05120F4D
:10156300A909C605120FA92DC605120FA946C6055E
:10157300120FA984C605120FA9B4C605120FA9E15B
:10158300C605120FA947C705120FA94AC705120FAF
:10159300A954C705120FA961C705120FA93CB205CB
:1015A300120FA95CB205120FA99BB205120FA9B9BC
:1015B300B205120FA9D4B205120FA93AB305120F3F
:1015C300A946B305120FA9A3B305120FA9B2B30518
:1015D300120FA9D6B305120FA997B405120FA9A428
:1015E300B405120FA9B5B405120FA983D205120FC2
:1015F300A9CBD205120FA9F7D205120FA97594052D
:10160300120FA9D19505120FA9DF9505120FA9F2A3
:101613009505120FA9079605120FA91C9605120F1F
:10162300A92F9605120FA9AB9605120FA9109705BE
:10163300120FA9A69705120FA97F9805120FA98F5C
:101643009805120FA99E9805120FA94DD005120FE8
:10165300A971D005120FA999D005120FA9C1D00500
:10166300120FA9CBB905120FA9F2B905120FA910D0
:10167300BA05120FA97FBA05120FA969AF05120F98
:10168300A982AF05120FA98EAF05120FA9A2AF054C
:10169300120FA9C0AF05120FA9CAAF05120FA9D423
:1016A300AF05120FA9E7AF05120FA96DB005120F11
:1016B300A9E2B005120FA911B105120FA95FB10577
:1016C300120FA9AEB105120FA9C9B105120FA9D303
:1016D300B105120FA9E4B105120FA927B205120F24
:1016E300A957D305120FA94DEE04120FA979EE04E1
:1016F300120FA996EE04120FA9A9EE04120FA9C4A2
:10170300EE04120FA91EEF04120FA94CEF04120FDF
:10171300A95CF304120FA9BAF404120FA9ECF404A0
:10172300120FA94FF504120FA9BBF604120FA9E378
:10173300F604120FA9F8F604120FA908F704120F02
:10174300A948F704120FA98AF704120FA99AF704FC
:10175300120FA94BCB05120FA965CB05120FA98D4B
:10176300CB05120FA9A6CB05120FA9CACB05120FE1
:10177300A9E8CB05120FA9FFCB05120FA92DCC05A4
:10178300120FA948CC05120FA9F2D305120FA971A4
:10179300FC01120FA981FC01120FA986FD01120F92
:1017A300A9B8FD01120FA9E8FD01120FA90BFE0153
:1017B300120FA922FE01120FA95CFE01120FA9C18B
:1017C300FE01120FA903FF01120FA94AFF01120F15
:1017D300A977FF01120FA9A2FF01120FA906CA05DB
:1017E300120FA924CA05120FA986CA05120FA92030
:1017F300CB05120FA983CE05120FA97BCC05120FBF
:10180300A9C3CC05120FA981C205120FA9F8C305FC
:10181300120FA9C1C805120FA9E6C905120FA9E73E
:10182300E304120FA971E704120FA96DE904120F63
:10183300A99FEA04120FA978EB04120FA908ED047B
:10184300120FA9D4ED04120FA928EE04120FA94711
:10185300C405120FA968C405120FA9A2C505120F6A
:10186300A9CCC505120FA938D405120FA948D40570
:10187300120FA952D405120FA957ED03120FA95A3B
:10188300ED03120FA936F503120FA988F603120F01
:10189300A9E9F703120FA9C0F803120FA999F903D5
:1018A300120FA982FA03120FA976FB03120FA92EB6
:1018B300FC03120FA95EFC03120FA90EFE03120F05
:1018C300A96BC705120FA97DC705120FA991C805FA
:1018D300120FA994C805120FA995CD05120FA9CB14
:1018E300CD05120FA9E3CD05120FA925CE05120FC1
:1018F300A935CE05120FA979CE05120FA9CAF7048F
:10190300120FA9D4F704120FA90EF804120FA97726
:10191300F804120FA996F804120FA9AFF804120FD6
:10192300A951F904120FA95AF904120FA9ABF9042A
:10193300120FA9D4F904120FA9E1F904120FA95245
:10194300FA04120FA9E0FA04120FA92EFB04120FD6
:10195300A964FB04120FA9C5FB04120FA9EEFB0433
:10196300120FA965FC04120FA9C1FC04120FA9FEF2
:10197300FC04120FA935FD04120FA947FD04120F31
:10198300A959FD04120FA978FD04120FA981FD04C2
:10199300120FA93CFE04120FA988FE04120FA9C658
:1019A300FE04120FA9FAD205120FA98B8A05120F92
:1019B300A9CB8B05120FA9EE8B05120FA9FF8B057F
:1019C300120FA91E8E05120FA93E8E05120FA92014
:1019D300BC05120FA956BC05120FA99EBC05120F18
:1019E300A9F7BD05120FA9C8AE04120FA9F9AF04D8
:1019F300120FA935B004120FA9EFB104120FA919E0
:101A0300B204120FA992B404120FA9D2B404120F94
:101A1300A966B604120FA905B704120FA95DB7048E
:101A2300120FA9F0B704120FA92AB804120FA96C58
:101A3300B804120FA9DFB904120FA95FBB04120F78
:101A4300A99CBD04120FA9CABD04120FA9F6BD04B7
:101A5300120FA9FFBD04120FA95CBE04120FA9EC5B
:101A6300BE04120FA928C204120FA9AAC204120F9E
:101A7300A96CD505120FA977A105120FA98DA10590
:101A8300120FA931A205120FA970A205120FA98D79
:101A9300A205120FA9BEA205120FA90BA305120FCF
:101AA300A93FA305120FA97AA305120FA96FA505D4
:101AB300120FA9FCFE03120FA95BFF03120FA999D2
:101AC300FF03120FA9DAFF03120FA967B705120F5D
:101AD300A935AC02120FA941AC02120FA9A3AC02A3
:101AE300120FA9ADAC02120FA93AAD02120FA976DB
:101AF300AD02120FA939AE02120FA94CAE02120F9A
:101B0300A9BAAE02120FA922AF02120FA9B1AF02F6
:101B1300120FA92FB002120FA9D4B102120FA98D6F
:101B2300B302120FA9D3B402120FA950B602120FB7
:101B3300A9F7B602120FA9C5BB02120FA9BCBC02BA
:101B4300120FA94BBD02120FA970BD02120FA90DEE
:101B5300BE02120FA92ABE02120FA94ABE02120F19
:101B6300A9BBBE02120FA9D8BE02120FA906BF025B
:101B7300120FA99EC002120FA9BFC002120FA965BE
:101B8300C102120FA9ADC102120FA91FC202120F87
:101B9300A9A2C202120FA907C302120FA964C302AA
:101BA300120FA903C402120FA977C402120FA9B31B
:101BB300C402120FA920C502120FA98AC602120F6E
:101BC300A90BC802120FA9BAC802120FA91CCB0293
:101BD300120FA97ECB02120FA9ACCB02120FA9C41C
:101BE300CD02120FA954D002120FA957D102120F1E
:101BF300A9037000120FA92A7000120FA9647000C4
:101C0300120FA96D7000120FA9707000120FA9D0E6
:101C13007000120FA9E97200120FA9457600120F86
:101C2300A9357700120FA97D7700120FA9AA7700B3
:101C3300120FA9127800120FA9467800120FA9A259
:101C43007800120FA9857900120FA9A77900120F46
:101C5300A90D7A00120FA9737A00120FA9F47A0062
:101C6300120FA95A7B00120FA9327C00120FA9B0E0
:101C73007C00120FA99A7E00120FA9B27E00120FE8
:101C8300A9637F00120FA9008003120FA99F80038D
:101C9300120FA91B8103120FA90A8203120FA908AD
:101CA3008303120FA9878303120FA9C98403120F99
:101CB300A96A8503120FA92A8703120FA931880382
:101CC300120FA94E8803120FA9798903120FA9B61F
:101CD3008A03120FA9608B03120FA9CA8E03120F76
:101CE300A9D29003120FA95B9103120FA9B5910317
:101CF300120FA9039203120FA97E9203120FA900D8
:101D03009303120FA93C9303120FA9E09903120F37
:101D1300A93B9C03120FA9179D03120FA96A9804EC
:101D2300120FA99C9804120FA9149904120FA92346
:101D33009A04120FA97F9A04120FA9F69B04120F9B
:101D4300A9129C04120FA9649C04120FA9A29C045B
:101D5300120FA9B59C04120FA90D9D04120FA97CA3
:101D63009D04120FA93E9E04120FA9AC9E04120FEC
:101D7300A9E39E04120FA91B9F04120FA9A3A00499
:101D8300120FA982A104120FA9D0A204120FA9B3A2
:101D9300A304120FA93FA404120FA981A404120FD4
:101DA300A9A0A404120FA9EBA404120FA90BA50464
:101DB300120FA9A4A504120FA927A604120FA93272
:101DC300A604120FA987A604120FA9E2A604120FF4
:101DD300A92FA704120FA9ACA904120FA9D0AA0412
:101DE300120FA916AB04120FA90BAC04120FA933DF
:101DF300AC04120FA936AC04120FA940AC04120FA5
:101E0300A95CAC04120FA9E4AC04120FA91DAD0424
:101E1300120FA949AD04120FA970AD04120FA994B2
:101E2300AD04120FA905AE04120FA918AE04120FC8
:101E3300A92EAE04120FA950AE04120FA97FAE044F
:101E4300120FA99EAE04120FA9B6AE04120FA97EFB
:101E53007F00120FA98A7F00120FA9C87F00120FFB
:101E6300A9FAFF01120FA98BD303120FA9AED30353
:101E7300120FA9FBD403120FA944D503120FA9A271
:101E8300D503120FA9FCD503120FA9FFD503120F17
:101E9300A950D603120FA9CAD603120FA94DD7030F
:101EA300120FA950D703120FA9D8D703120FA9B144
:101EB300D203120FA93EDC03120FA9EFDD03120FA9
:101EC300A929DE03120FA976DE03120FA9DAE103B3
:101ED300120FA95FE203120FA91BE303120FA94913
:101EE300E403120FA976E503120FA960E603120FAC
:101EF300A9CEE703120FA952E803120FA944E9037D
:101F0300120FA9CAEB03120FA9008004120FA9A094
:101F13008004120FA90C8104120FA9278104120F48
:101F2300A9C88104120FA90F8204120FA96DE3043B
:101F3300120FA9758304120FA9F18304120FA94488
:101F43008404120FA9AB8404120FA92C8604120F68
:101F5300A9448704120FA9C78704120FA9CF8904C4
:101F6300120FA9738A04120FA9128B04120FA973FB
:101F73008B04120FA9E28B04120FA9468D04120FD2
:101F8300A9308E04120FA96B8E04120FA98B8E0435
:101F9300120FA93C8F04120FA9798F04120FA90203
:101FA3009004120FA98A9104120FA9689304120FC7
:101FB300A90E9504120FA9A19504120FA90B96045B
:101FC300120FA9179704120FA90C9E03120FA96FE2
:101FD3009E03120FA9B79E03120FA9F59E03120FBA
:101FE300A9509F03120FA9AD9F03120FA9E89F03E6
:101FF300120FA96AA003120FA9C4A003120FA938D4
:10200300A203120FA9C2A203120FA915A303120F51
:10201300A92FA303120FA949A303120FA9A3A30373
:10202300120FA929A603120FA948A603120FA93359
:10203300A703120FA96DA803120FA9ECA803120F8F
:10204300A923A903120FA992A903120FA953AA0343
:10205300120FA92CAC03120FA92DAD03120FA99EC9
:10206300AE03120FA99EB003120FA919B303120FE7
:10207300A9F3B403120FA9B4B503120FA92CB60325
:10208300120FA943B603120FA93DB703120FA935C7
:10209300B803120FA9A4B803120FA97CA505120F48
:1020A300A9D3A605120FA992A705120FA9FAA7058E
:1020B300120FA96EA805120FA968AC05120FA98308
:1020C300AC05120FA9C7AC05120FA9EDAC05120F91
:1020D300A914AD05120FA92CAD05120FA9CEAD059C
:1020E300120FA9E3AD05120FA905AF05120FA90E33
:1020F300AF05120FA917AF05120FA920AF05120FD5
:10210300A9CF9805120FA9D19C05120FA9D69C053A
:10211300120FA9D89C05120FA90EC105120FA95EB3
:10212300BE05120FA97CD105120FA9E2D405120F27
:10213300A997FF02120FA9A7FF02120FA93F9D053E
:10214300120FA9E6D005120FA910D105120FA9ABE2
:10215300D405120FA90ED505120FA937D505120FF5
:10216300A95FD502120FA992D502120FA9FED502BB
:10217300120FA999D602120FA936D702120FA97B03
:10218300D702120FA99DD702120FA9B6D702120FB9
:10219300A9DCD702120FA9FED702120FA93CD8025D
:1021A300120FA980D802120FA9A2D802120FA904F4
:1021B300D902120FA9CBD902120FA982DA02120F88
:1021C300A9F4DA02120FA9BFDB02120FA912DC0273
:1021D300120FA978DC02120FA9B2DC02120FA904B4
:1021E300DD02120FA972DD02120FA9DDDD02120F4B
:1021F300A9E0DD02120FA961DE02120FA9F8DE02C7
:10220300120FA959DF02120FA949E002120FA968A0
:10221300E002120FA9CCE102120FA9D9E102120FB9
:10222300A9E5E202120FA9F2E202120FA9FBE202F0
:10223300120FA9D3E402120FA9EDE502120FA9664A
:10224300E602120FA9D8E602120FA9FAE602120F4C
:10225300A98EE702120FA962E902120FA939ED0252
:10226300120FA94DED02120FA95DED02120FA9671E
:10227300ED02120FA970ED02120FA979ED02120FF0
:10228300A983ED02120FA9B0ED02120FA9D9ED0235
:10229300120FA9E4ED02120FA908EE02120FA92CE6
:1022A300EE02120FA996EE02120FA9DCEE02120F34
:1022B300A9F9EE02120FA976EF02120FA9ADEF02F0
:1022C300120FA9ECEF02120FA939F002120FA9BFE6
:1022D300F002120FA98DF202120FA922F302120FBC
:1022E300A906F402120FA96DF602120FA9C6F6028F
:1022F300120FA910F702120FA96BF802120FA9A966
:10230300F802120FA9FBF802120FA9B0F902120F7B
:10231300A95FFA02120FA99CFA02120FA931FB025C
:10232300120FA99DFB02120FA9219301120FA953AA
:102333009301120FA9819301120FA9579501120F4F
:10234300A9379601120FA98F9601120FA9CA9701F7
:10235300120FA9169801120FA93F9B01120FA93260
:102363009E01120FA9829F01120FA918A001120F3B
:10237300A924A001120FA956A001120FA9D9A101E6
:10238300120FA9E7A201120FA911A301120FA97835
:10239300A301120FA9D1A301120FA937A401120F90
:1023A300A94EA601120FA9DDA701120FA9A7A80123
:1023B300120FA9EDA901120FA93DAC01120FA90D2E
:1023C300AF01120FA91AAF01120FA9A1AF01120F8A
:1023D300A935B001120FA978B001120FA9C1B0013C
:1023E300120FA915B101120FA98EB101120FA9FD88
:1023F300B101120FA91AB201120FA94AB201120FA9
:10240300A97FB201120FA94FB301120FA9F8B301AB
:10241300120FA97EB601120FA99EB701120FA98947
:10242300B801120FA90BB901120FA942BD01120F76
:10243300A97FBD01120FA9D7BD01120FA90ABE01C1
:10244300120FA974BE01120FA9AABE01120FA9355A
:10245300BF01120FA98DBF01120FA964C001120F92
:10246300A91DC101120FA9B8C101120FA9C0C4014E
:10247300120FA9DCC501120FA97FC901120FA9739D
:10248300CA01120FA976CA01120FA9A5CA01120F18
:10249300A9ABCC01120FA984CD01120FA9C7CD019D
:1024A300120FA91DCF01120FA95CCF01120FA9EEC4
:1024B300CF01120FA922D001120FA9E7D001120FE9
:1024C300A9FFD201120FA970D301120FA9B0D30132
:1024D300120FA9E9D301120FA97DD401120FA9FB91
:1024E300D501120FA923D701120FA9E5D701120FA6
:1024F300A9ECD901120FA904DA01120FA918DA0104
:10250300120FA950DA01120FA97EDA01120FA9FDE9
:10251300DB01120FA922DD01120FA986DD01120FC3
:10252300A938DE01120FA968DE01120FA92FDF01FE
:10253300120FA9C7DF01120FA9EDE101120FA922A2
:10254300E201120FA985E201120FA9B4E301120FF0
:10255300A95CE401120FA98DE401120FA9A5E401FE
:10256300120FA934E501120FA9E8E701120FA9C060
:10257300E901120FA9DCE901120FA9F8E901120F11
:10258300A9C6EA01120FA9B9EE01120FA90C330073
:10259300120FA93E3300120FA92D3700120FA9798C
:1025A3003700120FA9BF3700120FA9613800120FAD
:1025B300A9BD3800120FA9023900120FA9493A0028
:1025C300120FA95D3B00120FA94C3F00120FA9D0B7
:1025D3003F00120FA9DD4000120FA9394100120F6D
:1025E300A9294300120FA99E4300120FA9A8430073
:1025F300120FA9B54300120FA9E04300120FA9C798
:102603004400120FA9714500120FA9EF4500120FE4
:10261300A90F4600120FA9384600120FA95A460007
:10262300120FA9BA4800120FA9804900120FA9C5B9
:102633004900120FA9424A00120FA9F34A00120FD0
:10264300A9254B00120FA96B4B00120FA9A74B0032
:10265300120FA9F74B00120FA94B4C00120FA9A19F
:102663004C00120FA9ED4C00120FA95A4D00120F86
:10267300A9D54D00120FA9A04F00120FA9A0500019
:10268300120FA9C55100120FA9045500120FA91763
:102693005800120FA9D45800120FA9185900120F8D
:1026A300A9C85A00120FA9DC5A00120FA9E65A0052
:1026B300120FA9F05A00120FA9FC5A00120FA91801
:1026C3005B00120FA9C35B00120FA9025C00120F7B
:1026D300A90C5C00120FA9165C00120FA9865C00FE
:1026E300120FA9D15C00120FA9E65D00120FA942D7
:1026F3005E00120FA9C35E00120FA9825F00120FC2
:10270300A98B6000120FA9BF6100120FA9AD62006F
:10271300120FA9C56200120FA9206300120FA93E70
:102723006300120FA9866300120FA9AD6300120F95
:10273300A9486400120FA90E6500120FA9A0650035
:10274300120FA91A6600120FA9346700120FA9E12C
:102753006700120FA9096900120FA9596900120F26
:10276300A9BD6900120FA91F6A00120FA94D6A00C3
:10277300120FA9716A00120FA9A66A00120FA9D736
:102783006A00120FA90A6B00120FA92A6B00120F1D
:10279300A9926B00120FA9866C00120FA9E16C00BD
:1027A300120FA90A6D00120FA9926D00120FA9153D
:1027B3006E00120FA9406E00120FA9256F00120FB1
:1027C300A907C304120FA93FC304120FA960C304CE
:1027D300120FA9A2C304120FA904C404120FA90E55
:1027E300C404120FA91EC404120FA959C404120F62
:1027F300A939C804120FA926CA04120FA90CCC04C4
:10280300120FA9A3CC04120FA945CD04120FA924BA
:102813008102120FA9A28102120FA9FE8102120FD7
:10282300A9498202120FA9648202120FA98F8202A0
:10283300120FA9AC8202120FA9B88202120FA94F7C
:102843008402120FA9688402120FA9ED8402120FE9
:10285300A9008502120FA91F8502120FA9C38502C1
:10286300120FA9448702120FA9F78802120FA98D2C
:102873008902120FA9908902120FA9008A02120F6E
:10288300A91E8A02120FA9B58A02120FA9FD8A0294
:10289300120FA9008B02120FA9C68B02120FA933C4
:1028A3008C02120FA9598C02120FA9E48C02120F89
:1028B300A9028D02120FA9488D02120FA9FC8D02E5
:1028C300120FA9468E02120FA9758E02120FA9D2FA
:1028D3008E02120FA9078F02120FA9338F02120F54
:1028E300A9418F02120FA98E8F02120FA9FE8F0228
:1028F300120FA9479002120FA9939002120FA9BFBA
:102903009002120FA9CA9002120FA9E89002120FA7
:10291300A9D39102120FA9DD9102120FA9189202F5
:10292300120FA9289202120FA9319202120FA98540
:102933009202120FA9999202120FA9C89302120FC1
:10294300A9DD9302120FA96B9402120FA9B094028E
:10295300120FA93C9502120FA9479502120FA989DC
:102963009602120FA9A49602120FA9F09602120F53
:10297300A95F9702120FA9989702120FA9B29702A3
:10298300120FA9F49702120FA9C49A02120FA97188
:102993009B02120FA9DE9B02120FA91E9E02120FA9
:1029A300A9369E02120FA9399E02120FA9459E0253
:1029B300120FA9599E02120FA9619E02120FA99428
:1029C3009E02120FA9969F02120FA91DA002120FB9
:1029D300A98DA002120FA90FA102120FA9D0A10263
:1029E300120FA9EFA102120FA990A202120FA9EDD3
:1029F300A202120FA9F0A202120FA964A302120FDE
:102A0300A9B3A402120FA9B9A502120FA944A602E1
:102A1300120FA95FA702120FA927A802120FA95824
:102A2300A802120FA97BA802120FA984A802120FF1
:102A3300A9B3A802120FA943A902120FA9F9A90267
:102A4300120FA96EAA02120FA915AB02120FA98ABF
:102A5300AB02120FA9C1AB02120FA9FFAB02120FF7
:102A6300A945D203120FA9E4D103120FA9BAD103C6
:102A7300120FA9A6D103120FA99CD103120FA92FDC
:102A8300D103120FA960CF03120FA91ECF03120F98
:102A9300A92CCE03120FA900CE03120FA916E3042B
:102AA300120FA99DE104120FA9B7CD03120FA9F4C8
:102AB300CC03120FA9EFE004120FA952E004120F86
:102AC300A9D3C903120FA996C703120FA963C7039A
:102AD300120FA90AC703120FA99DC603120FA95CFF
:102AE300C603120FA93CC603120FA975C503120F23
:102AF300A90FC503120FA9AEC403120FA94EC40335
:102B0300120FA925C303120FA9B9C203120FA911EA
:102B1300C203120FA90CC203120FA900C203120FA2
:102B2300A93BBE03120FA915BE03120FA9B3BD0320
:102B3300120FA948E004120FA9DDDF04120FA9C97F
:102B4300DF04120FA919DF04120FA91FDE04120FED
:102B5300A940DD04120FA996DA04120FA954BD038C
:102B6300120FA941BD03120FA936BD03120FA90508
:102B7300BD03120FA9A8D904120FA921BB03120F79
:102B8300A9A8BA03120FA93FBA03120FA9B2B90336
:102B9300120FA93AD904120FA96EB903120FA93261
:102BA3008304120FA947B903120FA9E5D804120F22
:102BB300A990D804120FA963D804120FA930D8041E
:102BC300120FA908D804120FA9A9D704120FA989B3
:102BD300D704120FA954D704120FA918D404120F43
:102BE300A9EDD104120FA9DDCF04120FA95ACF0406
:102BF300120FA90ECF04120FA9FCD203120FA9C200
:102C0300CE04120FA91CCE04120FA91BD803000077
:102C13000080FBE47387000100A318350004006BF8
:102C230018250002006F1826000200711827000201
:102C3300007318280001007D18290001007E188404
:102C430000040044158600010066172A0001007F76
:102C5300182B00010080182C00010085182D000896
:102C63000050152E00010086182F00010087183030
:102C73000001008818310001008918320001005852
:102C830015330001005915340001008A183600017C
:102C9300005A15380001008B18390001008418838D
:102CA300000200A1186300010066156400010081A1
:102CB300186500010082186D000100671571000896
:102CC30000481566000100A0184300010091184454
:102CD3000002009218450001009418460002009576
:102CE30018470008005E154800010097184B0001C3
:102CF30000981804000100A418A1000100A71837C8
:102D0300000100A61888000100A5183C0001005B23
:102D1300153D0001008C1849000200991867000155
:102D23000068154D0002009B184E0001009D184FCE
:102D33000002009E183E0001009018510001005C43
:102D430015520001008E18530001008F1854000122
:102D5300005D15000000000000000136360101008F
:102D6300010201000103010001040106060502003E
:102D730000070100340801000F090401010D0100DF
:102D8300FF0E08000017020000190100FF1A0100DE
:102D9300011B0100FE1C0100081D0200001F0100B1
:102DA3000120010001210200002301000F24020081
:102DB300002601000127010008280200FF2A010064
:102DC300072B0102402C0100002D0100012E010000
:102DD300012F0100FF30010B1D310800003A0100F3
:102DE300083B01000F3C0100013D0100FF3E0400D0
:102DF3000042040000460400004A0400004E0400A0
:102E03000052040000560400005A040000040003AA
:102E130000200120930000000020011C930000010A
:102E23000020011C930000020020011C93000000FD
:102E3300404201D091000004004201579000000578
:102E4300004201E090000006004201D0910000071B
:102E53000030011E93000010004203AD1700001163
:102E63000030030E14000012001003C0170300000B
:102E73000021030F140000FDFF210118930300FD3F
:102E8300FF2101189306000000100111140600FD34
:102E9300FF218118930204000029051B1402040179
:102EA3000029011A9302040200290112930204FD6E
:102EB300FF210118930A000000E2032A14002020D6
:102EC30020202020202020282828282820202020D7
:102ED3002020202020202020202020202020881097
:102EE30010101010101010101010101010100404F7
:102EF30004040404040404041010101010101041FE
:102F0300414141414101010101010101010101016E
:102F13000101010101010101011010101010104203
:102F2300424242424202020202020202020202023E
:102F33000202020202020202021010101020010318
:102F430071030103010301030103010322030203CC
:102F53000103100300030003000300030003000345
:102F630000034203000324030603000300030403D6
:102F7300120325032303250323030403040300038C
:102F8300000300034403000300032303000365035A
:102F9300210035038103000305030003000300033D
:102FA3000003250323030101710101010101110143
:102FB30001013101010101018001100161013B00A7
:102FC30014006301730172016201430100011301E3
:102FD30006013D0135000401120100010001000159
:102FE300000104010401330133013C0144013201B6
:102FF3003600000100016501000135008101000177
:1030030005018201830100010302710230016002A4
:103013001102700201020202020280021002610226
:103023003A00410063027302720262024302000229
:10303300130238000002000204021202000200021E
:103043000002000204020402370037003C0244027B
:10305300000239000002000265020002350281020B
:1030630000020502820283020002030071003001A4
:103073006000110070003102200350048000100032
:1030830061000000140063007300720062004300DB
:1030930000001300060000000000040012000000FE
:1030A30000000000000004000400370037003C0269
:1030B300440000000000000000006500000035002F
:1030C30081000000050000008300000036000100BD
:1030D300060000000F0000000000000000000000D8
:1030E300000003FFFF00000403FFFF0000FFFF0FCA
:1030F300F4010005C4040320000100000B000000DC
:10310300000000000003010F0000000000000000A9
:1031130000000000000000000000000000000000AC
:1031230000000000000000000000AF1BD91BB51B0E
:10313300EF1ABB1BDF1BBB1BEB1BC11BEF1ABB1B1C
:10314300DF1BC71BEF1A00000000CD1BEF1A0000A6
:10315300000000000000D31BEF1A00000000000075
:10316300000000000000000000000000000000005C
:10317300000000000000000000000000000000004C
:103183000000000000000000451F0100451F020071
:103193008B1E0280851E0300911E0400971E04806F
:1031A3009D1E0500A31E06000B2C3000CD1E310012
:1031B300C71E3300D91E3400DF1E1100E51E1400A4
:1031C300EB1E1500C11EFFFF0000030003000400F7
:1031D300080010001F003E007B00F600EC01D7033F
:1031E300AF075D0FB91E713D000007ECFDFDFDEC5F
:1031F300DCDCCCBCACAC9C9C8C7C7C6C6C5C5C5C8C
:103203004C4C3C3C2C2C1C1C03EAF5E5D5D5C5B530
:10321300A59595858575756565555545453535255B
:10322300251515050A052602CF2505DB2507D52516
:103233000CB7250DC325FF000000160F00000B156A
:103243000B020002220F3300000E0FD0D1D2D3D4D1
:10325300D5D6D7D8D9DADBDCDDDEDF0600000010F7
:103263000112140600FDFF218118935A6967426514
:1032730065416C6C69616E6365303906000000104E
:103283000114140600FDFF218118930600000010AD
:103293000113140600FDFF2181189330301718190C
:1032A30021301B1D1F3000034D4C4651181A2505B4
:1032B300020001191618161618230300003C404299
:1032C3003A3F3F392F4730303016181920231A1C44
:1032D3001E300C0E020B040B0A0708000F02040237
:1032E300010101010902E803000000BE040A0E0007
:1032F30001000300E80304091E1E03040A0C041062
:103303000828020C050815030474F7120B13E9903F
:10331300163DF09015F2E4F01218C1901655E4F042
:10332300A3F090163EF0A3F01227551218C790157C
:1033330076E4F0A3F01220E9024C7274F0120B133E
:1033430074D312108C1266CE5480606690163DE0E2
:10335300F912193F8A088B09AF09EA4F604C7C00C8
:1033630080010CEC75F003A4F8A9F0742728F5820A
:10337300743239F583E493F46029E493F88A828BF9
:1033830083E06870DDEC75F003A4F8742828F582F7
:10339300743239F583E493C0E0740193F583D082EA
:1033A300122C16AA08EFFB12192D126E006480026C
:1033B300370D851882851983A3E05420601F1226D8
:1033C3006B8A088B09AF09EA4F600A1225C3AA0862
:1033D300EFFB12192D126E00642002370D8518823F
:1033E300851983E0A2E050429015F7E0640F702E38
:1033F3009009A2126E0B9009A2C3E094E9A3E09492
:1034030003400A7A007B80901468124D54790012AD
:103413002599E9600990186B1212AF1225B185182E
:1034230082851983E064010236F254207003023668
:10343300F77A207B0090163DE0F9121AA1EA4B4C73
:103443004D701A9016511212C7E8494A4B700E7507
:103453000801750900750A00750B00806D750C0075
:10346300750D00750E00750F00121AAD8A088B09D1
:103473008C0A8D0B9016511212C7E8494A4B6031E2
:103483009016517808120F43400E750CFF750DFF0F
:10349300750EFF750F7F801985080C85090D8C0E3D
:1034A3008D0F901651780C1210747401780C121051
:1034B30043850C08850D09850E0A850F0BE5084524
:1034C30009450A450B70030236517C0079047A00E2
:1034D3007B001226418A0C8B0DAE0CAF0D02359585
:1034E30074021212EA74FFF074031212EA74FFF00A
:1034F30074041212EA74FF124DC71265887407121E
:10350300106C12683EE96401706A1237194480F83E
:10351300A3E0F974281212EAE8F0A3E9126AD2E0F0
:10352300C0E0742A1212EAD0E0124DB454086016B7
:1035330074281212EAA3E04401123726C0E0742C67
:103543001212EAD0E0F01267116011E8240B123F67
:103553000CF874161212EAE8F0A3E4F09092F21257
:103563000E2A740612106C740B1210641222577414
:1035730004120FF48E828F83A3A3A3A3A3A3A3A3F5
:10358300A37406123726F912262374051212EA12BF
:103593006895EE4F70030236517C007904EEFAEF22
:1035A300FB12264174051212EAEAF0A3EB124ADE7B
:1035B300E0F50CA3E0F50DE4F50EF50F7808790CB2
:1035C3001212274023EE2404F8E43FF985080C8502
:1035D300090D8882F583C3E0950CF0A3E0950D12E5
:1035E3006EF5E84970A4800C8E828F83A3A3A3A3F6
:1035F300E4F0A3F08E828F83A3A3A3A3A3A3A3A327
:10360300A3A3E064018E828F83A3A3A3A3A3A370C8
:1036130020E0540460030234E38E828F83A3A3A3C8
:10362300A3A3A3A3A3A37406F07AB712384C02355D
:103633008DA3A3A3A3E060030234E38E828F83A34D
:10364300A3A3A3A3A3A3A3A37401F002358D1226FE
:10365300117C0079017A007B00122641EA4B60035A
:10366300124D4D7C0079047A007B00122641EA4B0F
:10367300701380448A828B83A3A3A3A31268ADEE45
:1036830098EF99400B8A828B83A3A3A3A312689517
:103693007C0079041226418B0BA90BEA4970D5C330
:1036A300E5089EE5099F500DC3EE9508FEEF9509C9
:1036B300FFEE4F700D124D4D90165112371FA3F0B0
:1036C3008024EE2EFEEF338E08F509E4F50AF50BA0
:1036D3007808120FBE7A201238F5120FF4121AADC1
:1036E3009016511212BB851882851983E06420FA63
:1036F300A3E08016A3E054046013125F65122B5DF0
:1037030079011240D3126E006404FB80047A007BBB
:1037130000742D0266EDEE1266FBE022E4F0A3F0E6
:10372300A3F022124DB9A3A3E022C082C08374EA9E
:1037330012108C7C167D007900AA18AB1912190F90
:1037430074081212EA7402F09015E61261A112379E
:103753006D74091212EA1261B974131212EAE412B7
:103763005E381220DD7416025083E8F0A3E9F0906E
:1037730015F012687D2274F7120B1374DA12108C91
:10378300EAFEEBFFEA4F602DAC18AD1912268974DF
:10379300061212EAE0601E74171212EAE0FD7401C9
:1037A3001212EAE0FCEEFAEFFB790012256FE960F2
:1037B3000479A4800279007426024C6F74F7120B0B
:1037C30013EAFEEBFF8A82F583A3A3A3A3A3A3E0DB
:1037D300544060178A828B831266AE124F92600642
:1037E3007AFF7BFF80151266AA80039015E61265A7
:1037F3008874FE6A700374FF6B60411266AA1266D6
:10380300D412271FE98E828F83600B126297126E88
:10381300C0E4F0A38003126EAFF07C9F7D258E82FF
:103823008F83124608E9F5087015EE4F6009790198
:10383300EEFAEFFB12261DA908024C727508CDAAF9
:103843000812384CE960E380EE8E828F8312629B0C
:10385300240CF582E438F583E0F91225AB2274F6E3
:10386300120B13E9FEEAFF7A0F7B00121927EA4BCA
:10387300601A8A828B83740CF0EEA3A3F0EF8A8222
:103883008B83124A2D125E967900802BEEF9122655
:10389300478B09A909EA49601C8A828B83A3A3A3E6
:1038A300A3A3A3A3A3A37406124A36E0F91222F931
:1038B300EEF91226237910025C8174F4120B138A39
:1038C300088B098C0A8D0B9015F7E0640F701EEAC4
:1038D3004B4C4D60189015F2E064086005E06404F9
:1038E300700B7808120FBE1238F3120FF4023B5814
:1038F3007A017B0090163DE0F9121A8F740422744A
:10390300F4120B1374FC12108CEAFEEBFF8A82F59F
:1039130083A3A3E0F91226478A088B09EA4B7003B5
:10392300023A3B8E828F83A3A882A983E0C0E0EA98
:10393300125E8CD0E012489C64F160288E828F83E3
:10394300A3E064CD601E8E828F83A3E0641A6014AB
:103953008E828F83A3E064E9600A8E828F83A3E063
:1039630064E17033790012261DE9602BE508240415
:10397300F50AE43509F50B850882850983A3A3A31A
:10398300A3A3A312497212487A1218D3850A828517
:103993000B831266D480708E828F83A3E0C0E074A1
:1039A300021212EAD0E01250911251B4124322C013
:1039B300E074031212EAD0E0F0E508126B7D123FC7
:1039C300CBE0AA18AB197005122251800312270706
:1039D30074021212EAE064E9702D85088285098376
:1039E300124131750A01780A120FCA750AE9780A79
:1039F300120FCA12484E1242EFFCA3E0FD8A828BDB
:103A030083124319120FF4850882850983A3A3A3A4
:103A1300A3A3A3A3A3A3E06402701285088285096C
:103A230083A3A3A3A3A3A3A3A3A37406F08E828F4C
:103A330083A3A3E0F9122623122611901871123FD3
:103A43003D7404023B5574F4120B13EAFEEBFF754D
:103A530008008A82F583A3A3A3A3A3E060387508B3
:103A63000812657B79FF1223D1EA4B601075082C8D
:103A73008E828F83A3A3A3A3A3E0D2E0F08E828FD1
:103A830083A3A3A3A3A3E0540364016003023B4401
:103A9300430811023B44EA241812547A6036EA249C
:103AA3001A12547A6003F4701312685D7003A3E072
:103AB300696003023B44750822023B44EA241B125B
:103AC3003B48241A12547AFAEE241912547AF91242
:103AD30022E7806D8A828B83A3A3A3A3A3A3A3A3BB
:103AE300A3123F2870037508018E828F83126861C9
:103AF3007003A3E0697006E508D2E1F508E5086004
:103B0300158E828F83A3A3E07006E508D2E58004B7
:103B1300E508D2E6F508124F8564017006E508D280
:103B2300E0F5088E828F83A3A3E06015EE241D12B7
:103B33005799F912270DE964016006E508C2E0F51B
:103B430008A9088010F582E43FF583126F18EA2272
:103B53007409120FF47F04020D2974F0120B13740D
:103B6300D712108CEAFEEBFF8A82F583A3A3A3A3EB
:103B7300E0600E90186F126718600690186F123F7E
:103B83003D740312106C8E828F83A3A3A31260640F
:103B9300126586122689E97003023CEE78017405EA
:103BA3001212EAE0C394024002780074071212EA88
:103BB300E0C3940240027800740C1212EAE064F845
:103BC3007003A3E0F47003023CEE740C1212EAE0FB
:103BD30064F97003A3E0F47003023CEE740C121258
:103BE300EAE064FA7003A3E0F47003023CEE740CA1
:103BF3001212EAE064FB7003A3E0F47003023CEEEC
:103C030074061212EAE0F99015E0E0696003023CE1
:103C1300EEE8A2E04003023CEE74271212EAE060F1
:103C230003023CEEEE241312687374221212EA129A
:103C3300606E241C12687374101212EA1261B97454
:103C4300091212EAE0601D741A1212EAE0FD74040C
:103C53001212EAE0FC8E828F8312658679011225A7
:103C63006FE9703B74031210641225BDE9F50C74FF
:103C7300091212EAE0702C9015DAE06026742259DA
:103C83006422601F7442596442701474201212EA51
:103C9300123F22600E74201212EA123F1B60047A54
:103CA300CF804AE9A2E6504D74201212EA12579FC0
:103CB30024FD600F14600C24FD600824FD600424BF
:103CC300FE702874201212EA123F14700E74201230
:103CD30012EA125DC5A3E0640D601A740312106446
:103CE300122737E96401700D023F047AD37B001277
:103CF3001E61023F04EE242DF582E43FF583124159
:103D0300287003A3E069701D7508007808120FCAB4
:103D13007808120FCAEE242F12547AF9123F2E128A
:103D23004319120FF474091212EAE07003023DCC36
:103D3300123F2E1265881227858A0E8B0FEA4B706D
:103D430003023E5D74041212EAE0F88E828F83A3AD
:103D5300A3E028F8A3E03400F9E8240D123F0CF89F
:103D63008A828B83A3A3A3E068600EE88A828B8395
:103D7300A3A3A3124A261237207904E91212EA12E6
:103D83005499A3E02AF8A3E034008882F583A3AA18
:103D930082AB8312191B8A088B098C0A8D0B850E43
:103DA30082850F83A3A3A3A37808120F43400302C2
:103DB3003F049092DA78081211BB850E82850F8337
:103DC300A3A3126F1EA31251BD9015F2E064046009
:103DD30008E064096003023F04E50CA2E540030226
:103DE3003E97EE242F125482F0EE243012547AC000
:103DF300E074011212EAD0E0F0EE243112547AC0DA
:103E0300E074021212EAD0E0F074141212EAE064D1
:103E1300017026740E1212EA124875241312547A92
:103E2300687003A3E0697011740C1212EA123F2840
:103E3300700774141212EAE4F0EE2425F582E43FCD
:103E4300F583120E2A740412106C74071210641294
:103E530022577404120FF4023F04901637E06401F2
:103E63006003023DCC74201212EA123F227009E56E
:103E73000CA2E65003023DCC74101212EAE0F47077
:103E830003A3E0F4607BEEFCEFFD740312106412F5
:103E930025C9806DA2E6506974201212EA1262A746
:103EA3007016741A1212EAE0640270557403121049
:103EB300647900122701804974201212EA123F1B11
:103EC3007014741A1212EAE0640470357403121049
:103ED300641226F5802B74201212EA123F14700C20
:103EE3007900740312106412274380157420121290
:103EF300EA125DC5E0640C700874031210641227A3
:103F03004F74290266EDE82406F582E439F583E06F
:103F1300221266B4E06403221266B4E0640722123C
:103F230057A3640622124F96640222EE242BF582D5
:103F3300E43F126F16EE124F6B22E0F508A3E0AADE
:103F430008FBE4FCFD1225B12274F4120B13EAFE04
:103F5300EBFF8C088D09901558E0600F12685D70B7
:103F630003A3E06970051222D58053790012657BA3
:103F73001223058A828B83E5824583602CA3A3A346
:103F8300A3A3A3E054186021E508241C123FC81220
:103F93000E2E123FC4120E2EEE2418124300125A94
:103FA30060126835120FF4801579008E828F83A317
:103FB300A3A312628D125A601265881222DB023BA0
:103FC30058E5082413F582E43509F5832274F712C2
:103FD3000B1374F712108CEAFEEBFF9015F2E064FA
:103FE30003600DE064016008E0640960030240CEF1
:103FF3008A828B83A3E0600302409C7C007D007A6D
:10400300027B001218CD1268DA8A82126877901543
:10401300E31261B979531220CB9015F2E064096081
:10402300099015F012658812277F851882851983F8
:104033007401125DDD9015F27404F07401121064C2
:10404300794A1220C5740112106C7AE87B15121A92
:10405300C590146BE0640B70057406F0800579005D
:104063001240D39015E31262937A037B001218CDAA
:104073009015E61262937A047B001218CD9015DD39
:10408300E0A2E35004D2F08002C2F0125DCA90189D
:104093006B1212AF1225B1802FFC7D007A037B10C7
:1040A3001218CD90146BE0640B7003740AF0901532
:1040B3005CE4F0FA7B40125BBA8E828F83A3E0F953
:1040C3001240D39015F2E4F01225F37409024C6FF9
:1040D3009015F012658C12226922C082C08390155C
:1040E3007612671870179015F2E024FB60051460D0
:1040F30007800A90157C801F90157E801AE849601E
:1041030007123F096401700C8A828B83A3E0F912C2
:10411300225D800E90166C1267186006125DC6123F
:104123002C1602591112687D9015F0E0682212686E
:104133007DE8FAE9FB2274F5120B1374D812108C84
:104143008A088B098A828B83A3A3A3A3A3A3A3A314
:10415300E0C3940F50030242EA8A828B83A3A3A392
:10416300126895741512106C8A828B83A3A3A3A380
:10417300A3A3A3A31242EFFAA3E0FB1225FF741536
:104183001212EAE0702E850882850983A3A3A3A3F4
:10419300A3A3A3A3E0C3940B401A8E828F83A3A38C
:1041A300A3A3A3A3A3A3E064027009EE240B1254F8
:1041B3007AF460030242EA74171212EAE0600764B9
:1041C3000260030242EA9015F2E06402601CE064BC
:1041D30006601790157612671870030242EA123FC1
:1041E30009640160030242EA80259015761267187C
:1041F300701D7508007808120FCA7808120FCAEEEE
:1042030024101243008E828F83124319120FF48EEF
:10421300828F83126EED1248A5126879740212120E
:10422300EA12606E12371AC0E074041212EAD0E088
:10423300124322F508A3E0F509740F7808121275EA
:1042430074051212EAE508F074191212EAE0C0E0EC
:1042530074061212EAD0E0F0741B1212EAE0C0E016
:1042630074071212EAD0E0F074161212EAE0C0E00A
:1042730074091212EAD0E0F074171212EAE0C0E0F7
:1042830074081212EAD0E0F0EE241012547AC0E05F
:10429300740A1212EAD0E0F0741A1212EAE0C0E0D3
:1042A300740B1212EAD0E0F074271212EAE0C0E0B5
:1042B300740C1212EAD0E0F0741C1212EAA982AA5A
:1042C3008389088A09750A007808120FC27C087D61
:1042D3000074101212EAAA82AB83125471120FF403
:1042E300AA18AB191222637428024DCDE0F98A8211
:1042F3008B83A3A3A3A3A3A3A3A3A3E022F582E495
:104303003FF583E0F98E828F83A3A3A3A3A3A3A383
:10431300A3A3126F182212658C1226BF740222F017
:10432300EE125A65E02274F2120B1374F812108C19
:104333008A0A8B0B8C0C8D0D8908909225AC18ADD5
:10434300197408120F22C200AC0AAD0BAA18AB19DC
:104353001265097002D20090163E8013AC0AAD0BB1
:10436300EE240BFAE43FFB126509701B124F5C123B
:104373004BEF601EA20040E48E828F83E0650C70D9
:1043830004A3E0650D70E58E828F83A3A3E0650827
:1043930070DAEEFAEFFB74080248B2C082C0839071
:1043A300163E02590EC082C08390163EE4F0A3026B
:1043B300460474F7120B1390163E126E06800FEA32
:1043C3002414F582E41268921219E1EEFAEFFBEA83
:1043D3004B70EC90163EE4F0A3F0024C7274F212B0
:1043E3000B138A0C8B0DEDFF890B8A828B83E08C78
:1043F300828D83F0A3A882A9838A828B831244A926
:10440300124A20E0C454F0FA88828983E04AF0EC2F
:104413002402F8E43FF9850C828B83A3A31244A9F9
:104423001244BCE0333354FC1244B0E0333333540E
:10443300F81244B0A3E0A2E0E4331313FA888289AC
:1044430083E04AF0EC2403FE50010FE50C2407F54A
:1044530008E4350DF509750A007808120FC27C08C7
:104463007D00EEFAEF125470120FF4EE2408FE50A2
:10447300010FE50C240FF508E4350DF50978081252
:104483000FC27C037D00EEFAEF125470120FF4E5B5
:104493000BC3940F400DE50C2412F582E4350D1285
:1044A3005A74F00248B5A3E08882898322FA88828D
:1044B3008983E04A1244BCA322F0850C828B83A338
:1044C300A3A3A32274F2120B13EBFF8C0C8D0D8AA2
:1044D30082F583E08C828D83126ED7A3A882A98391
:1044E300E01258B912489BC41258B3F0EA126EE1B5
:1044F3001258C0124899A2E2E4338C828D83124889
:1045030098131313541F1258B9A3124898A2E7E43F
:10451300338C828D83A3A3A3A3A3A3F0EA2403FE76
:1045230050010FF5088F09750A007808120FC27C35
:10453300087D00E50C240712546C120FF4EE2408D6
:10454300FE50010FF5088F097808120FC27C037D16
:1045530000E50C240F12546C120FF48E828F83A388
:10456300A3A3E0C0E0126EFDD0E0F00248B574F6FC
:10457300120B13EAFEEBFF8A82F583A3858208857B
:104583008309E0F9122281850882850983E064EBBF
:10459300601E8E828F83A3E064E160148E828F831A
:1045A300A3E064F1600A8E828F83A3E0641A70072C
:1045B3008E828F83A3E4F090186B1212AF1225B191
:1045C3007508017808120FCA8E828F83A3E0F5085D
:1045D3007808120FCA79009015F01262939015E6CD
:1045E300124319120FF4122611025C81C082C08398
:1045F300E99016507003E4800274018004EAF0A38A
:10460300EBF002591112658C1220E32274F6120B9F
:1046130013901650E0701B7C0079017A007B001226
:104623002641EA4B600C8A828B831267186003125F
:1046330025A5025C81C082C083124ACF401079FF56
:1046430012263BE9F8903306E493C39850047901AA
:104653008002790002591174F2120B138A0A8B0B30
:104663008909C2008A828B83A3A3A3A3A3A3A3A3C1
:10467300E0F91226478A0C8B0DAE0CAF0D750801BD
:10468300EA4F600302473B850A82850B8312628DE2
:10469300850A82850B83A3A3A3A3A3A3A312487AAA
:1046A30012262F8A0C8B0DAE0CAF0DEA4F7003024E
:1046B30048478A828B83A3A3A3A3E4F0A3F0E50A6C
:1046C300240CFAE4350BFB8A82F583E0C0E0124840
:1046D3004ED0E0F0E50A240D12486E240D1261B3AA
:1046E300122725124F741266D4E50A241112486E5C
:1046F30024111261B3E50A24131268A4C0E0124F17
:1047030066D0E0F0D200EE2406F8E43FF9124861E7
:1047130012489C540460030247AD90187DE0F50AEB
:10472300750B007407780A1211828E828F83A3A3FC
:10473300A3A3A3A3124858F08E828F83A3A3A3A39A
:10474300A3A3E0F50AA3E0F50B7407780A12127528
:10475300E50A5407FCE50960618E828F83A3A3A356
:10476300A3A3A3A3A3A37402124DC7124B64600BAC
:104773009015DE1254FAA3A31261B9EC7003024838
:104783001EEE2406F8E43FF9E8FAE9124861F0EC7A
:1047930024FFF50AE434FFF50B7407780A1211823B
:1047A3008A828983124858F080718E828F83A3A3F3
:1047B300A3A3A3A3E0448002473AEC700575080065
:1047C30080598E828F83A3A3A3A3A3A3E054206065
:1047D3000C121921EA547F7900245F80198E828F8D
:1047E30083A3A3A3A3A3A3E05410601A121921EA7D
:1047F300540F7900240A5001098E828F83A3A3A347
:10480300A3F0A3E9800D8E828F83A3A3A3A37401D6
:10481300F0A3E41248A57404124AE5A20050288EBE
:10482300828F83A3A3A3A3126592F9EEFAEFFB127F
:104833002635E960121267116003124887EEFAEF1A
:10484300FB1219E1750800A9088067EE240CF582B4
:10485300E43FF58322E0450AF0A3E0450B2288827A
:10486300F583E0547FF0A3E054FC22F582E4350B9A
:10487300F58312687DEE22A3E0F9850A82850B8316
:1048830012658C2212488E124CE422EE240FF5821C
:10489300E43FF58322A3A3A3A31248A0221268C076
:1048A300E0221248A922124DBDA3A3A3227403122E
:1048B3000FF47F06020D2974F4120B1374F7121010
:1048C3008C7E00122647EA4B700302496D8A828B65
:1048D30083A3A3A3A3A3A3A3A3A3E06406600302E8
:1048E300496D8A828B83A3A3A3A3A3A3A3E0FF8A17
:1048F300828B83126E9FE0C0E074081212EAD0E04C
:10490300124C951261A61261B9122659EF54086030
:10491300578518828519831262937A007B001226C9
:1049230029EA4B7043126F087C007D007A007B00FC
:1049330080228E828F8312579FF47003A3E0F4606A
:10494300279015F0124972124C77601C7C007D0091
:10495300EEFAEFFB1226298A0A8B0BAE0AAF0BEE97
:104963004F70CF79001220FB7E01EEF9023B531208
:10497300497622E0FCA3E0FD8E828F8322C082C0B1
:10498300838A828B83E5824583700990165580065E
:104993008A828B83A3A3124B9860208A828B83A382
:1049A300A3A3A3A3A3A3E0540860E5EC4D601012F6
:1049B3004B9E7003A3E06D70D780047A007B0002E6
:1049C300591174F2120B138A088B09890AECFEED54
:1049D300FF7A147B001219DBEA4B60378A828B83E0
:1049E300A3A3A3A3A3A3A3A3A3E4124A36E50A1292
:1049F3004C81EEF0A3EF124A26124C9C124A2D8AE8
:104A0300828B83126F20124A1912660FA3124A2057
:104A1300F0A3F00248B5EA240FF582E422126EDB1C
:104A2300A3A322124C87E4F0A322A3F0126E9812E0
:104A3300660F22124A3A22124C8BA3A3A3A3227419
:104A4300F5120B13EAFEEBFF890A8C088D09EA4F76
:104A530060757401697012790112263BE9F890338D
:104A630008E493C3985015800A7404697009124AC4
:104A7300CF500979118052740269704B8E828F83F3
:104A8300A3A3A3A3A3A3A3A3A3E50A124ADE1251DC
:104A9300B4126799A3E4F0A3F09016551267186057
:104AA30018800312687988828983A3A3124B98889C
:104AB300828983A3A370EC8003901655EEF0A3EFD5
:104AC300124AE57900800279C1024DD07904122699
:104AD3003BE9F8903307E493C3982212679DA3A39D
:104AE300A322F07A207B0090163DE0F91219692287
:104AF300C082C083E9F87900901655801D8A828BA5
:104B030083A3A3A3A3A3A3A3A3A3E068600574FF44
:104B1300687001098A828B83A3A3124B9870DE020B
:104B2300591174F7120B13EA4B7005901655800652
:104B33008A828B83A3A3124B98601F8A828B83A3E1
:104B4300A3A3A3A3A3A3A3A3E06970E4EC600F8AC8
:104B5300828B83124B6470D880047A007B00024CF2
:104B630072126EB8E0540422C082C083901655803E
:104B7300068A828B83A3A3124B9860128A828B834B
:104B8300A3A3A3A3A3A3A3A3E06970E580047A006E
:104B93007B0002591112658CEA4B228A828B8312A5
:104BA30057A36C2274F2120B138A0A8B0B8C0C8D95
:104BB3000D750800750900EA4B602A9016558006AA
:104BC3008E828F83A3A3124BEF601AAC0CAD0DEE54
:104BD300FAEFFB850A82850B83122C16E9640170B8
:104BE300DF8E088F09AA08AB090248B5E0FEA3E0EF
:104BF300FFEE4F2274F7120B139016551268797C4F
:104C0300007D00800DE8FCE9FD88828983A3A3125F
:104C13006879E8496030EA687002EB6970E79016DA
:104C230055126588E86A7002E96B88828983A3A3B9
:104C3300700812687990165580091268798C828DF4
:104C430083A3A31261B9802774F7120B13EAFEEB57
:104C5300FFEA4F6015122653124CD01267116003FE
:104C6300124887EEFAEFFB1219E18003120FF47F6B
:104C730001020D2912658C1220EFE9641A22124CED
:104C830087A3A322124C8B22F08A828B83A3A3A334
:104C9300A322126EDB1257A322124A3AA32274F6FE
:104CA300120B1390165512689580141268B2124CA9
:104CB300D0124887EEFAEFFB1219E1AE08AF09EE06
:104CC3004F70E8901655E4F0A3F0025C818E828F5A
:104CD30083126E8CF583124CE48E828F83124CE424
:104CE30022E0FAA3E0FB1219E122C082C083EAFCAE
:104CF300EBFDEA4D6017EA24FBF582EB34FF126704
:104D0300167007124D42E0F4600712192D790580E1
:104D13002B90163DE0C0E0124D42D0E0F09032FF00
:104D2300E493F97A577B16121963E96401700B7ADD
:104D3300007B20124D51790080027904025911EA57
:104D430024FFF582EB34FFF583227A207B00901653
:104D53003DE0F91219692274F4120B13A2AFE43384
:104D6300F508C2AF901657124BEF6038EE24FBF5EF
:104D730082EF34FF1267167A007B2090163D6005A0
:104D8300124D548005E0F912196FE4F50AF50B781A
:104D93000A120FC6EEFCEFFD7A577B1612195D74EB
:104DA30002120FF4E508A2E092AFEEFAEFFB023B2A
:104DB30058124DB9E022124DBD22124DC7A3A3A331
:104DC300A3A3A322F08E828F8322120FF47F030208
:104DD3000D2974F2120B1374FA12108CEAFEEBFF16
:104DE3007508FE7509FF122617E960057911024F50
:104DF30057125477603C901898E0C43354E0F8E0BD
:104E0300333354FC48C0E0EE125E863FF583D0E0B6
:104E13001268D4FAA3E0FB79FF1223D1EA4B6012A4
:104E23007508FFEE240F12547A4404F0125477D21B
:104E3300E0F08E828F83124F906006EE2412126888
:104E4300ECEE241312547A700D9032FCE493C0E01C
:104E5300124F66D0E0F08E828F83E0A2E7500454B5
:104E6300038019EE241412547A70129015CFE0C007
:104E7300E0124F5CD0E0F09015CFE004F0EE241187
:104E830012547A64017016901881E0600D9015DA5F
:104E9300E0700A8E828F83E070031268E98E828F3E
:104EA30083E064017013EE240B12579964027009B6
:104EB300EE240F12547A4440F0AC18AD19EEFAEF19
:104EC300FB1226838A0A8B0B74FE6508700374FF3A
:104ED300F470031268B2EA4B60768E828F83E0C06F
:104EE300E074011212EAD0E0F074041212EAEEF058
:104EF300A3EFF0EE241E12687374021212EA126119
:104F0300B9740112105C880C890D780C120FC6EE6F
:104F13002420124F79120FCA124F74120E2EEE2450
:104F23000E124F79120FCA9015E3120E2E74081247
:104F330012EAE0F9AC08AD0912267D7408120FF4E9
:104F4300E9FE74106E700BAA0AAB0B1219E1800212
:104F53007E10EEF974060248B2EE2414F582E43FA3
:104F6300F58322EE124F6B222413F582E43FF5837F
:104F730022EE12488F22F582E43FF583E0F50C78A8
:104F83000C228E828F83A3A3A3A3A3A3A3A3A31201
:104F93004F9622E0FAA3E0FB12271FE922C082C04A
:104FA3008374D712108C908EF5740312106C7426D0
:104FB300120F228A828B83A3A3A3A3126879740E90
:104FC3001212EA12671E126879740C1212EA125056
:104FD30099240D125089C0E0741A1212EAD0E0F03D
:104FE30012661512687774201212EA12509924156A
:104FF300125089C0E074081212EAD0E0F0EA241CCF
:10500300F582E43B12687774121212EA1250992463
:1050130011125089C0E074091212EAD0E0F0EA24B8
:1050230012125089C0E074071212EAD0E0F0EA24A9
:105033001EF582E43B12687774241212EA12509927
:105043002420125089C0E074261212EAD0E01250D4
:105053009174FFF074011212EA74FFF074021212D9
:10506300EA74FFF09092F2120E2A740412106C7418
:10507300071210641222577404120FF47900742972
:10508300120FF4025911F582E43BF583E022F08517
:10509300188285198322E8F0A3E9F0EA2274F41256
:1050A3000B1374EC12108C8A0A8B0B8C088D09E994
:1050B300FF7E107A217B001219DB85188285198304
:1050C300EAF0A3EB126728E84970030251AD7C2193
:1050D3007D007900851882851983E0FA12190F90F3
:1050E30015F0126588851882851983126297240941
:1050F300F582E438F5831266D474201212EA12683A
:105103007974111212EAE81258081266DA38F58334
:10511300740212580B126EA674021257F51251B490
:1051230012580B126E83EFF074221212EA1257B662
:10513300F9A3E0C9126B7D39F583E81254CBA3E0E0
:10514300C9241FF582E4391251BB74231212EA12E7
:10515300658874061212EA1266D474081212EAE819
:10516300F074261212EA1266AEC082C083740C1267
:1051730012EAAC82AD83D083D0827405120F2274FD
:10518300251212EAE0C0E074131212EAD0E0F079BB
:1051930000AA18AB1912261DE9640170047E008071
:1051A3000985188285198312488AEEF97414023B23
:1051B30055E508F0A3E50922F583E50AF0A3E50B1D
:1051C300F02274F0120B1374FF12108CEAFEEBFF43
:1051D3008C088D098A82F583A37408F0EA241612D9
:1051E300547A60088A828B83A37410F0EA2417121E
:1051F300547A60098A828B83A3E02408F0EA12546C
:105203007860088A828B83A3E004F08A828B83A36D
:10521300A3A3A3A3A3E060198A828B83A3A3A3A35D
:10522300A3A3A3E0C3332402F88A828B83A3E028D9
:10523300F0EA24111254826004740E8001E4F090A9
:105243001890E0640170168A828B83E06401600D1C
:1052530090155CE06007125462740180041254627A
:10526300E41254CB8A828B83A3E0F8EA12371A281C
:10527300298C828D83F0EA241112547A6005125A24
:10528300A329F0850882850983E0C39475400975D5
:105293000C00750D00025459E0FA7B001219DB8AE9
:1052A3000C8B0DEA4B70030254598E828F83E0FA04
:1052B3009015E01254C474027808121182EA45086A
:1052C300FAAB09EE24121254BE7406780812118246
:1052D300A808EA48FCEBFD125477600478018002C9
:1052E3007800EE2416FAE43FFBE4C8F9ED49FDEE3D
:1052F300241112547AF50888097409780812118266
:10530300ED4509FD8A828B831254C4740B7808120D
:105313001182ED4509FDEE24171254BE740C780872
:10532300121182ED4509FD8E828F83A3A3A3A3A34C
:10533300A31254C4740A7808121182ED4509FDEED4
:1053430024231254BE740D7808121182ED4509F915
:10535300EC850C82850D83F0E9A3F0EE2402125450
:10536300A11254E0F0EE24041254A1A3A31254E0BA
:10537300A3A3F0EE24131254B1F0EE24141254B18B
:10538300A3F0750B088A828B83E0601512678A127B
:105393006293E50C2408FAE4350DFB121AC5750B6C
:1053A30010EE241712547A6019126316126293A82E
:1053B3000BE50C28FAE4350DFB121AC57408250B0E
:1053C300F50B8E828F83A3A3A3A3A3A3E0604EEE6A
:1053D3002407F50EE43FF50F850E82F583E0C0E068
:1053E300125490D0E01254D0E0C0E008125492D08E
:1053F300E01254D0A3126704120FC2850E82850FE8
:1054030083E012576AA80BE50C2812546C120FF4B0
:10541300850E82850F83E0C333250BF50B1254777A
:105423006008C0E0125490D0E0F0125A6012670492
:10543300120FC2123719FC7D0074031212EA1254C0
:1054430099E0F8E50C28F8E4350DF9E82AFAE4398F
:10545300125470120FF4AA0CAB0D74010266EDEA3C
:105463002423F582E43FF58322FAE4350DFB121978
:1054730003740322EE2415F582E43FF583E022F55D
:1054830082E43FF583E085188285198322A80BE522
:105493000C2812577D22E0FA8E828F83A322F8E430
:1054A3003FF98882F583E0850C82850D8322F5829E
:1054B300E43FF5831254EAA3A3A322F582E43FF564
:1054C30083E0F50875090022126EC9F922F0050B75
:1054D3008E828F83A3A3A3A3A3A3A3A322A3A31215
:1054E30068C0A31254EA22E0850C82850D83A3A32E
:1054F300A3227403023B5512687D8E828F83A3A37C
:105503002274F0120B1374FD12108C1266CE740207
:105513001212EAE9F08C0C8D0D750B017C267D00CF
:105523007900AA0CAB0D12190F74021212EAE0C330
:10553300940850030256F31254A9F0AC0CAD0D8538
:10554300188285198312579FFA8518828519831249
:105553005DC5125A9CE96003750B00851882851995
:10556300831266AE1257C0E0F9EA850C82850D837B
:10557300A3A3A3A3A3A3A3A3A3F0A3E91257F5A3F0
:10558300A31257C0A3A3E0F9E50C12672DEA125842
:1055930008126283C0E0E50C2411126F01D0E012FF
:1055A300580B2407F582E438F583E0C0E0126EFD62
:1055B300D0E01266C174081257ECA3E06026851888
:1055C30082851983E02408F8A3E03400F9E50C246C
:1055D30013F582E4350D1261B7850C82850D83A323
:1055E300E02408F0850C82850D83A3A3A3A3A3A3C2
:1055F300A3A3E0602A850C82850D83A385820E8593
:10560300830F1257ADF8A3E03400F9E50C125E8660
:10561300350D1261B7850E82850F83E02408F012E1
:105623005771E4F0125785E4F0A31266C1A3A3A354
:10563300A3E060111257D1850C82850D83A3A3A328
:10564300A3A31257FDE50C125792E070030256DF35
:105653001257D1FA125771EA1257FDF8851882854D
:105663001983E028FBA3E034008B82F583E0F8E59F
:105673000C241A126F01E81257FDE8C39AE50C5087
:105683005612578DF8903300E493C39850047E0C60
:105693008006E50C12578DFE850C82850D8312570B
:1056A300ACF508A3E03400F509750A007808120F79
:1056B300C2EE12576A7A187B0B125471120FF4124E
:1056C30057857418F0A3740BF0EEC333F8850E827C
:1056D300850F83E0288004125792E4F0850C8285BD
:1056E3000D83A3E0F8850C82850D83E0C3985004F5
:1056F300790080701257ACFAA3E03400FBE50C127A
:1057030068E3126F041266D4850C82850D83E0C3AF
:1057130098C0E0E50C2417126F01D0E01257ECE0BB
:105723006040E50C2417FEE4350DFF8E82F583E01F
:1057330024F2F0E50C241DF8E4350DF98882F58395
:10574300E0240EFAA3E03400FB888289831266D436
:105753009015DBE0F9122575E9F88E828F83E0C39B
:1057630098F0A90B0266EB25E0FCE433FD22E50C7F
:1057730012577722241912577D22F582E4350DF54D
:105783008322E50C241B12577D22125777E0221245
:1057930066BB12578022F582E43FF5831257A3229A
:1057A300126882F5838882E022A31257B12212572E
:1057B300B62822E0F8851882851983E022A3A3E0A6
:1057C300FA8518828519831266B4A3A3A322850CD4
:1057D30082850D83A385820E85830F1257B1FAA3A9
:1057E300E034008A82F583E0221266C5A3A3A3A353
:1057F300A322125810F583888222F0850E82850F2A
:1058030083E004F022F0A3E9125810C822126ECDEF
:10581300F8A3E02274F4120B138A088B09EA1258D6
:10582300C0A3A3F0EA1313543F1258B3A3F0EAC47E
:1058330013131258C01258CA7409780A1212751237
:1058430058AAA3A3A3A3A3A3F0EB1258AC1258C95D
:10585300740A780A121275E50A5401C0E0EC126664
:10586300BB3DF583D0E01258CE740B780A12127543
:105873001258AA1258C7740C780A1212751258AA31
:10588300A31258C7740D780A121275E50A5401C0A1
:10589300E0EC2424F582E43DF583D0E0F0740E7847
:1058A30008121275023B44E50A54018C828D83224F
:1058B3001258B9A3A322540F8C828D832254038CD4
:1058C300828D8322A3A3A3A3A3A3A3F08A0A8B0B92
:1058D30022C082C08379008A828B83A3A3A3A3A35C
:1058E300A3E09015DA600EE0701F8A828B83A3A376
:1058F300E070168012E0601112657B9015E3E06A98
:105903007003A3E06B600279018003126588D08382
:10591300D082020FA674F2120B138A0A8B0B890C26
:10592300ECFEEDFF8A828B83E0FA125A9C850A8291
:10593300850B83A3A3125A90E0F9EA8E828F83A387
:10594300A3A3A3A3A3A3A3A3125AB5125A90A3A3D9
:10595300E0F9125A60EA125AB5A3A3E0C0E0EE24BC
:1059630011F582E43FF583D0E0125ABCA3A3A3E070
:10597300C0E0EE2412F582E43FF583D0E01267998C
:105983007408124ADEA3A3A3E06017E50A2408F80B
:10599300E4350BF9124F66E8F0A3E9126799E024A6
:1059A30008F08E828F83A3A3A3A3A3A3A3A3E06082
:1059B300188E828F83A3125A7FEE24151261B3854A
:1059C3000882850983E02408F08E828F83A3A3A332
:1059D300A3A3E060248E828F83A385820885830935
:1059E300E0F8E50A28F582E4350B125A74A3A3F014
:1059F300850882850983E004F0EEFAEFFB12269511
:105A0300E9F50D70498E828F83A3A3A3A3A3A312E9
:105A13005A6EA37014E0F8E50A28FAE4350BFB127A
:105A23005A561266D4E50C801A125A7FE8240EF8EF
:105A3300500109EE241D1261B3125AA3F9E50CC3F8
:105A43009924F2C398C0E0EE12630DD0E0F0A90DE3
:105A53000248B5EE241DF582E43FF58322EE125A87
:105A63006522240BF582E43FF58322E08E828F8347
:105A730022F583E08E828F83A3A3A32285820885E8
:105A83008309E0F8E50A28F8E4350BF922E0FA8502
:105A93000A82850B83A3A3A3221268F512268F2201
:105AA3009015DBE0F9122575E9F8850882850983ED
:105AB300E022F0A3E9125ABC22F0850A82850B8307
:105AC300A3A3A3A322C082C0837A637B1679E212C5
:105AD30020C57A637B16025911C082C0839015E3F7
:105AE30002590EC082C0839015E602590EC082C0CF
:105AF30083794A1220C502591174F6120B139016BA
:105B03006BE0FE04F0EEF9122647EA4B70F0EE600C
:105B1300EDF9025C8174F2120B13EAFEEBFF8C08C1
:105B23008D09890A122785740E1212EAE0F9740F9F
:105B33001212EAE0F8EA4B7012E8701BA90AAC08EB
