:020000040000FA
:0600000002124702086035
:03002B0002102997
:03004300020EDDCD
:030053000207950C
:100083000207F40100F0FF0700080000FFFF000073
:10009300050400000003000147726F757000FF0440
:1000A30000100020FD0002000019180000000000ED
:1000B300007918000000000000F5170000000000A0
:1000C3000000000000011800000000000000000014
:1000D30000000006FFFF1E124261736564206F6E0D
:1000E30020544920434332353330010104010001D8
:1000F30000061691026792F11B00003F1C000000EE
:1001030000000000000000000000000000000002EA
:10011300040100010001D49201D692F11B000045B5
:100123001C000000000000000000000000000000B0
:1001330000000003040100010001D49201D692F1F2
:100143001B00004B1C00000000000000000000002A
:100153000000000000000004040100010001D4922B
:1001630001D692F11B0000511C00000000000000AA
:10017300000000000000000000000001FF01020178
:10018300040000CA14000000E8030000FFFF1B1571
:100193000188130000E803000064006400B801A0B4
:1001A300BB0D00A0BB0D0002020207040101051EE6
:1001B30002051E020A0A010108080103B80B0280A6
:1001C3003E0102FEFFE8030A050001FFFF020A14D5
:1001D30001E0000020410200000005030101FF0FC0
:1001E30003000300030003000300030003000300F4
:1001F300030005000A00140028004F009E000000C1
:100203005930000000002D2F00000000FF00000007
:10021300FF00121257601D1212667005191919801A
:100223001A12111F701F121133C37003E6673319BB
:10023300191940071818182208080874FFF618F649
:1002430018F618F62212113360171212F470219265
:10025300F01212FD7019501720F01408080809094C
:1002630009E7F61819E7F61819E7F61819E7F62259
:100273001212FD60E6E869701F0808E62480F6089C
:10028300E436F618547FB47F0CE654806007F6E436
:1002930018F618F622181822E9C6CC08C6CD08C6E7
:1002A300CE08C6CFC0E0E8C0E0EAC0E0EBC0E0099A
:1002B300E9F809E7FA09E7FBE6F918E6F8C3EC9869
:1002C300ED99EE9AEBC2E7F5F0EFC2E795F0500E29
:1002D300600CEBCFFBEACEFAE9CDF9E8CCF8EAA261
:1002E300E7D2E7FAEB33FB13F5F0EEA2E7D2E7FE32
:1002F300EF33FFC5F013A2E730E601B313C5F0C334
:10030300C0E0C0F07F00C39BFB605E9418600F40A9
:100313001D14601AD0E023F9D0E0F80203F68AF046
:10032300E9486003D2F0E4AFF0FAF9F8803BEB3030
:10033300E40D89F0EA6003D2F0E4AFF0F9CAF8EB18
:1003430030E30D88F0EF6002D2F0AFF0E4CAC9F8F1
:10035300EB54076014FBC3EA13FAE913F9E813F843
:10036300EF135002D2E0FFDBEDD0E0C0E030E7391D
:10037300C3E49FFFF5F0EC98FC42F0ED99FD42F0E9
:10038300EE9AFE42F0D0E0F9D0E0F8E5F0607AE9C9
:1003930023F9EE20E742D8028067C3EF33FFEC3343
:1003A300FCED33FDEE33FE80EAEC28FCED39FDEE87
:1003B3003AFED0E023F9D0E0F84002801BC3EE13ED
:1003C300FEED13FDEC13FCEF135002D2E0FF08B86F
:1003D30000067F7F74FF802EEF3350178CF020F0E0
:1003E3000260100CBC000C0DBD00080EBE0004081A
:1003F300E860DFE933E813FFEE2313FE4F4D4C8033
:1004030008E95480FFE4FEFDFCEE33EF33F470049F
:10041300FCFD7E80D0E0FBD0E0FAD0E0F8D0E0CF66
:10042300C618CEC618CDC618CCC6F92212125770FC
:100433000418181822121266700D74FFF61819F6B4
:100443001819F61819F622E7548066F61212FD7091
:100453000F1212F470F014F608F608F608F680D1BD
:100463001212F4700CF608F608768008E6447F80D2
:10047300EC121136700C12112260BFE65480F6E4C0
:1004830080BB121122700519191980A5E869700C37
:10049300763F18768018F618F6E8F922E6CDC0E024
:1004A30018ECC0E0E633CD33CDD313F6E719FCE700
:1004B300191933CC33C3947F400ECD9D502408E6E5
:1004C3005480F6E418F6800FF4043D14501408E643
:1004D300447FF6187680E418F618F6D0E0FCD0E0F6
:1004E300FD22CCD313CCFD18E4C6CBC0E018E4C680
:1004F300CAC0E00808ED08C633E613F618E433C6AD
:1005030075F003C3CA97CA09CB97CB199C40047DE6
:1005130008802EBD00030205D816B6FF050606089F
:100523001618C3CA33CACB33CB33CA27CA09CB374E
:10053300CB193CC37D08803E187D0820E75CC63399
:10054300C6CA33CACB33CB33DDF1D5F0EB30E77B0F
:10055300CA97CA09CB974ACB199C406F4B7025E6C3
:1005630020E0218066187D08C3CA97CA09CB97CBC0
:10057300199CD3C633C6CA33CACB33CB3350C9DD78
:10058300E7D5F0E1D3E4C636C608C636C608C63694
:10059300C608C636C61818188031C3CA97CA09CB0D
:1005A30097CB199CB34097C633C6CA33CACB33CB58
:1005B30033DD34D5F02EC6A2E0C640C8CA27CA0927
:1005C300CB37194A70BECB3CB480B90808E6330870
:1005D300E633601F181818D0E0FAD0E0FBD0E0FC37
:1005E300D0E0FD22187D08CA27CA09CB37CB193CB6
:1005F300D3808013F618E4B67F11F618B6FF0EF613
:1006030018C60470D20808768080CAF618F618F661
:1006130080C500121257604F1212666012E75480B1
:1006230066F612111F70111212F4703B090909F4D6
:10063300F618F618F618F62212113370151212FD79
:1006430008080860EAE6447FF618768018E4F6188E
:10065300F6221212FD60161212F47012E4F608F676
:1006630008F608E65480F609090918181822EAC0A2
:10067300E0EBC0E0ECC0E0EDC0E0E687F0A4FBAC4B
:10068300F008E687F0A42CFCE435F0FA1809E687B5
:10069300F0A42C4B60027401CA35F0FCE433FB096F
:1006A300E687F0D2F7A42CCB35F0FC1908E687F0E7
:1006B300A42BCC35F0FBE433FD0819E687F0D2E731
:1006C300A42C4ACB35F0CD3400FC09E687F0D2E701
:1006D300A42DCC35F0FDE433FA0918E687F0D2F700
:1006E300A42CCD35F0CA3400FC08E687F0D2E7D25B
:1006F300F7A42ACC35F07A7E20E70B0ACB33CBCD97
:1007030033CDCC33CC33CB3350147004ED30E00E07
:10071300D2F1E4CD3DCDCC3CCC3B5005DA05C2F162
:10072300EB547FC63308E63392F0FBE73309E73334
:10073300C39A502D2B70190C0D4C4D70151806E6ED
:1007430008C333700D20F10AA2F013F6E418800BEE
:100753004024E4F630F002768018F618F618F68096
:1007630024D33B14501074FFA2F013F6187680E4E0
:1007730018F618F6800FA2F013F618E63303F618EE
:10078300ECF618EDF6D0E0FDD0E0FCD0E0FBD0E0D5
:10079300FA22C0E074F1120B7EA2AFE433F509D262
:1007A300AF85A708AFA1EF5508FE74105E6006126F
:1007B300158575A1EF74085E600812158B75A1F796
:1007C3008024EFA2E092F0E508A2E082F0501790B7
:1007D3006198E0F89006BBE0C398A2D265D033508D
:1007E30002E8F075A1FEE509A2E092AF7F02020BD9
:1007F300DDC0E074F2120B7EA2AFE433FED2AF9001
:1008030061A4E0F8759B00E5915854086008759160
:10081300F71215D98023E59158541060087591EFAC
:100823001215DF8014E591A2E092F0E8A2E082F0D5
:100833005007E0C2E0F01217299061A3E0F8E5E960
:10084300585404600E1216FF75E9FB906193E0A201
:10085300E640F2EEA2E092AF7F01020BDDC0E0744E
:10086300F2120B7EA2AFE433FED2AF9061A5E0F8A3
:10087300E5BF585404600675BFFB12174180D4C30B
:10088300E498F8E499F91208C38026C3E49AFAE4D9
:100893009BFBE920E7E91208C3E498F8E499F922FD
:1008A300C3E498F8E499F91208C3E498F8E499F9D1
:1008B300C3E49AFAE49BFB22EB20E7CFE920E7E0CD
:1008C300B90010BB0008E88AF084F8AAF022E4FB20
:1008D300C8FA22EB70227B10C833C8C933C933501E
:1008E30007C39AC3DBF280069A50012ADBEAC833B6
:1008F300F4C8C933F4C9FA2275F008E4C833C8C987
:1009030033C933C99AC99B5004C92AC93BD5F0ECF2
:10091300FBC833F4C8E4C9FA2212095C20F014308E
:10092300E72B74FFFCFBFA747F8022E4FCFBFA7470
:1009330080801AB48008BC00F2BB00EF800F50EB3C
:10094300F9E4C39AFAE49BFBE49CFCE499C6CC1853
:10095300C6CB18C6CA18C6F922E4C9C608CAC6084F
:10096300CBC6D3330308CCC63392F0C3947F402E57
:1009730094184019C9B90704CACBCC225025C3091E
:10098300CA33CACB33CBCC33CC33D9F422F4600D86
:10099300C9CCC313CB13CBCA13CAD9F6CC22E4FCFC
:1009A300FBFA2214FCFBFA22080808EAC0E0EBC0B9
:1009B300E086F0E7A4FA180986F0E7A42AFA1809F2
:1009C30086F0E7A42AFA180986F0E7A42AFA19861A
:1009D300F0E7A4FBE5F02AFA190886F0E7A42BFB5D
:1009E300E5F03AFA190886F0E7A42BFBE5F03AFAAA
:1009F30018180986F0E7A4C5F02BFBE43AFA1908A6
:100A0300E7C5F0C6A426F6E5F03BFBE43AFA188600
:100A1300F0E7A4F6E5F00826F6E43B08F6E43A0826
:100A2300F6D0E0FBD0E0FA22080808E630E711121E
:100A330010F7120A43080808C64480C6181818227B
:100A4300181818E9799EC608CAC608CBC608CCC6CA
:100A5300C370207996CACBCC7019798ECBCC701326
:100A63007986CC700EF9802ACA33CACB33CBCC3308
:100A7300CC331930E7F2CCCBCA3350147004EA30CC
:100A8300E00DE4CA3ACACB3BCBCC3CCC500209C301
:100A9300E913C6CC182313C6CB18C6CA18C6F92245
:100AA300E4CFC0E0E4CEC0E0E4CDC0E0E4CCC0E0FD
:100AB30075F020E626F608E633F608E633F608E690
:100AC30033F6181818EC33FCED33FDEE33FEEF3339
:100AD300FFC3EC9709ED9709EE9709EF97191919D9
:100AE300400FFFEC97FC09ED97FD09EE97FE1919EE
:100AF30006D5F0BFECF709EDF709EEF709EFF719A3
:100B03001919D0E0FCD0E0FDD0E0FED0E0FF2225B3
:100B130018C582C0E0E51934FFC583C0E0E518C3FA
:100B2300958224F810AF088583198582188008857B
:100B33008319858218D2AFCEF0A3E520F0A37808FD
:100B4300E608F0A3DEFAEFF0A3E58124FAF8E6085D
:100B5300F0A3E608F0A3E608F0A30808E608F0A36C
:100B6300E608F0A315811581D0E0FED0E0F81581E9
:100B730015811581E8C0E0EEC0E022C0D02518C57C
:100B830082C0E0E51934FFC583C0E0E518C3958250
:100B930024F310AF0885831985821880088583198B
:100BA300858218D2AFC8F0A3E9F0A3EAF0A3EBF073
:100BB300A37908E709F0A3D8FAECF0A3EDF0A3EECC
:100BC300F0A3EFF0A3D0E0F0A3D0E0F0A3D0E0F0E7
:100BD300A3E520F0A3E5F0F0A3228519838518820D
:100BE300E0C0E0A3E0F9A3E0FAA3E0FBA37808E008
:100BF300F608A3DFFAE0FCA3E0FDA3E0FEA3E0FF19
:100C0300A3E0C0E0A3E0C0E0A3E0F5D0A3E0F520BB
:100C1300A3E0A3F5F010AF08858319858218800837
:100C2300858319858218D2AFD082D083D0E0F8D0E3
:100C3300E0321212DFB90003020C74E4900401786D
:100C4300BA79148002F0A3D8FCD9FA7ABA7B179048
:100C53000086789079028015E493A3AD82AE838AEF
:100C6300828B83F0A3AA82AB838D828E83D8E9D94A
:100C7300E77582777583C17405120FA07582FF75BE
:100C8300832B7400120FA0E47375F0108E1A8F1B60
:100C930085821F85831E851882851983E0CEA3E094
:100CA300CF851F82851E83EBC9EAC8EDCBECCAC38F
:100CB300E833C8E933C9EA33CAEB33CBC3EA9EF559
:100CC3001DEB9FF51CB35004AB1CAA1DEC33CCEDFC
:100CD30033CDD5F0DAAE1AAF1B22D083D082ECC06D
:100CE300E0EDC0E0E493A3FCE493A3FDED4C600DC1
:100CF300120DB5EC24FFFCED34FFFD80EFE493A36C
:100D0300FCE493A3FDED4C600D120E88EC24FFFC74
:100D1300ED34FFFD80EFD0E0FDD0E0FCE493A3C011
:100D2300E0E493C0E022851983851882E0A3FEE006
:100D3300A3F5207808E0A3F608DFFAE0A3FFE0A319
:100D4300C0E0E0A3C0E0E0A3C0E0E0A3C0E0E0A314
:100D5300C0E010AF08858218858319800885821842
:100D6300858319D2AFD083D082020FA6D083D082DD
:100D7300E9C0E0E493A3C386F0C5F095F0F908E475
:100D830093A386F0C5F095F0700BE493A3C3994049
:100D930005E9048002A3E475F002A42582F582E547
:100DA300F03583F583D0E0F9E493A3C0E0E493C086
:100DB300E022C0E0C3E49396087401939618400FB1
:100DC300E49366700808740193661870007019A3A1
:100DD300A3C3E49396087401939618A3A3400DD07C
:100DE300E0D0E0D0E0020D19A3A3A3A3A3A3D0E016
:100DF30022C082C08374FE12108C851882851983E9
:100E0300EAF0A3EBF07C017D00AA18AB197900127C
:100E1300150D851882851983E0FAA3E0FB7402128D
:100E23000FF4D083D082227404800474028000CC37
:100E3300C0E0EDC0E0E518C39CCCAD1950011D1016
:100E4300AF068C188D1980068C188D19D2AF120F2E
:100E530022D0E0FDD0E0FC2274028000CCC0E0EDA3
:100E6300C0E0E518C39CCCAD1950011D10AF068C32
:100E7300188D1980068C188D19D2AF120F00D0E08F
:100E8300FDD0E0FC22C0E0C0F088F0E49366700877
:100E93000874019366187000A8F0A3A3700BD0F038
:100EA300D0E0D0E0D0E0020D19A3A3D0F0D0E0222F
:100EB300D083D082CCC0E0E493A36006120F8114E8
:100EC30070FAE493A360061210A21470FAD0E0FC47
:100ED300E493A3C0E0E493C0E022C0E074F2120BF9
:100EE3007EA2AFE433FED2AFC2C0E5D1A2E4500389
:100EF3001214F5EEA2E092AF7F01020BDDCAC0E04F
:100F0300E493A3C582CCC582C583CDC583F0A3C5B5
:100F130082CCC582C583CDC583DAE5D0E0CA22CAB7
:100F2300C0E0E0A3C582CCC582C583CDC583F0A351
:100F3300C582CCC582C583CDC583DAE6D0E0CA229B
:100F4300C008C3E096F50808A3E096420808A3E0AA
:100F530096420808A3E09645087001D3D008227092
:100F630009080808226016181818C6C333C608C62D
:100F730033C608C633C608C633C6D5E0EA22C0E086
:100F8300E493A3D39C5010E493A3C39C400AD0E002
:100F9300D0E0D0E0020ED0A3A3A3D0E022C09FF5FF
:100FA3009FE473D09F22D083D082C09FE493C0E09C
:100FB300740193C0E0740293F59F227404800A7451
:100FC300038006740280027401C0E0F404120FD996
:100FD300D0E01212A2222518F58210AF08F51840AE
:100FE3000C15198008F51840021519D2AF8519831D
:100FF3002200C0D0251810AF08F518500C05198031
:1010030008F51850020519D2AFD0D022BB0102E770
:1010130022C082C08389828A83BB0003E08002E40A
:1010230093D083D08222C0E0C0D0E8C0E0A8A8D289
:10103300AFC2C7E8A2E792AFD0E0F8D0D0D0E03299
:101043006016080808C6C313C618C613C618C61305
:10105300C618C613C6D5E0EA222518F8E43519F9EF
:10106300222518FAE43519FB222518FCE43519FD6D
:1010730022C3E0C696F608A3E0C696F608A3E0C628
:1010830096F608A3E0C696F622251810AF08F518C1
:10109300400C15198008F51840021519D2AF22C06B
:1010A300E0E493A36C7009D0E0D0E0D0E0020ED06E
:1010B300A3A3D0E022E066701008A3E066700A08DC
:1010C300A3E066700408A3E06622C3E09608A3E0E9
:1010D3009608A3E09608A3E096A2D265D03322E750
:1010E3006670100809E766700A0809E76670040865
:1010F30009E76622181818E4C396F608E496F6087A
:10110300E496F608E496F622C3E096F008A3E09688
:10111300F008A3E096F008A3E096F022181818E66A
:101123000846087009E626087005E633F42208220B
:10113300191919E70947097009E727097005E73302
:10114300F4220922C3E697F60809E697F60809E6AA
:1011530097F60809E697F622C3E493960874019379
:10116300960874029396087403939622E627F6086A
:1011730009E637F60809E637F60809E637F6227076
:101183000422600D18C6C333C608C633C6D5E0F4BF
:101193001822E657F60809E657F60809E657F6084F
:1011A30009E657F622E056F608A3E056F608A3E050
:1011B30056F608A3E056F622E026F608A3E036F634
:1011C30008A3E036F608A3E036F622E026F008A3EB
:1011D300E036F008A3E036F008A3E036F022E0564C
:1011E300F008A3E056F008A3E056F008A3E056F099
:1011F30022E647F60809E647F60809E647F608092E
:10120300E647F622600D08C6A2E713C618C613C642
:10121300D5E0F322C6F4C608C6F4C608C6F4C60869
:10122300C6F4C622C3E7960809E7960809E79608B5
:1012330009E79622C3E09608A3E09608A3E0960880
:10124300A3E0962275D00075813F751801751904C6
:1012530000020C35E6084608C3134608336002E66D
:1012630033F422E7094709C3134709336002E7331D
:10127300F422600C08C6C313C618C613C6D5E0F41F
:1012830022E6F008A3E6F008A3E6F008A3E6F022BE
:10129300E0F608A3E0F608A3E0F608A3E0F622CA06
:1012A300C0E0E6F0A308DAFAD0E0FA22E0FAA3E01D
:1012B300FBA3E0FCA3E0FD22EAF0A3EBF0A3ECF038
:1012C300A3EDF022E0F8A3E0F9A3E0FAA3E0FB2208
:1012D300E8F0A3E9F0A3EAF0A3EBF022E5C754F8A2
:1012E3004401F5C77901222518F582E43519F58300
:1012F30022E72719471947194722E62618461846B1
:10130300184622C2AF75D69F02000022120FA9A170
:10131300E304120FA99BEE01120FA917EF01120F9D
:10132300A94AEF01120FA978EF01120FA99CF1014D
:10133300120FA9B8F101120FA9FDF101120FA98231
:10134300F201120FA9CEF201120FA95EF301120FDF
:10135300A937F401120FA988F401120FA9EDF401C2
:10136300120FA960F501120FA9A4F501120FA9FC30
:10137300F501120FA91EF601120FA9AEF601120F05
:10138300A93FF701120FA98BF701120FA9B7F701B4
:10139300120FA9F8F701120FA999F901120FA97BEE
:1013A300FA01120FA957FB01120FA97AAC05120F0C
:1013B300A9BBAC05120FA9D5AC05120FA9F1AC0559
:1013C300120FA91AAD05120FA95BAD05120FA9BA29
:1013D300AD05120FA924AE05120FA983AE05120F96
:1013E300A9C0AE05120FA97EAF05120FA930CF0514
:1013F300120FA941CF05120FA9DFCF05120FA9F9CB
:10140300CF05120FA9FBFF02120FA941B805120F56
:10141300A998B805120FA950BA05120FA976BA05F3
:10142300120FA953D505120FA9C4D205120FA9D4BF
:10143300D205120FA9E9D205120FA932D305120F53
:10144300A9E8FE04120FA96CFF04120FA9D4FF042C
:10145300120FA9FCFF03120FA9E4FF02120FA9F256
:10146300FF02120FA9E3D305120FA900D405120F2F
:10147300A90FD405120FA918D405120FA931FC0125
:10148300120FA93FFC01120FA9B8FC01120FA98D7D
:10149300FD01120FA95FFF01120FA9808F05120F23
:1014A300A99E8F05120FA9CB8F05120FA9CE910507
:1014B300120FA9499205120FA9E79205120FA90B62
:1014C3009305120FA9849305120FA979D405120F5E
:1014D300A9008005120FA96D8005120FA9258105AA
:1014E300120FA99B8105120FA9AF8205120FA93F05
:1014F3008405120FA9A88405120FA9F78405120FFA
:10150300A9008505120FA90F8505120FA9258505C9
:10151300120FA9388505120FA9418505120FA95489
:101523008505120FA9808505120FA9178805120FCB
:10153300A9578805120FA9938805120FA9A7880533
:10154300120FA9C08805120FA9B18905120FA9634B
:101553008A05120FA9778A05120FA9FBC605120F78
:10156300A91FC705120FA938C705120FA976C7050A
:10157300120FA9A6C705120FA9D3C705120FA939C0
:10158300C805120FA93CC805120FA946C805120FBA
:10159300A953C805120FA99AB505120FA9BAB50523
:1015A300120FA9F9B505120FA917B605120FA93223
:1015B300B605120FA998B605120FA9A4B605120F06
:1015C300A901B705120FA910B705120FA934B70562
:1015D300120FA9F5B705120FA902B805120FA91327
:1015E300B805120FA94DD205120FA995D205120FF6
:1015F300A9C1D205120FA9759405120FA9D195059A
:10160300120FA9DF9505120FA9F29505120FA9076D
:101613009605120FA91C9605120FA92F9605120FF6
:10162300A9AB9605120FA9109705120FA9A6970546
:10163300120FA97F9805120FA98F9805120FA99E63
:101643009805120FA90FD005120FA933D005120F59
:10165300A95BD005120FA983D005120FA9BDBA0546
:10166300120FA9E4BA05120FA902BB05120FA97143
:10167300BB05120FA9C7B205120FA9E0B205120FDD
:10168300A9ECB205120FA900B305120FA91EB305E9
:10169300120FA928B305120FA932B305120FA945DA
:1016A300B305120FA9CBB305120FA940B405120F4E
:1016B300A96FB405120FA9BDB405120FA90CB50586
:1016C300120FA927B505120FA931B505120FA942AB
:1016D300B505120FA985B505120FA998D305120FE9
:1016E300A94DEE04120FA979EE04120FA996EE0488
:1016F300120FA9A9EE04120FA9C4EE04120FA91E1A
:10170300EF04120FA94CEF04120FA95CF304120F9C
:10171300A9BAF404120FA9ECF404120FA94FF504AB
:10172300120FA9BBF604120FA9E3F604120FA9F8CE
:10173300F604120FA908F704120FA948F704120FB1
:10174300A98AF704120FA99AF704120FA9CB7E00F6
:10175300120FA9E57E00120FA90D7F00120FA92613
:101763007F00120FA94A7F00120FA9687F00120F92
:10177300A97F7F00120FA9AD7F00120FA9C87F00B8
:10178300120FA933D405120FA904FC02120FA914D6
:10179300FC02120FA919FD02120FA94BFD02120F31
:1017A300A97BFD02120FA99EFD02120FA9B5FD022E
:1017B300120FA9EFFD02120FA954FE02120FA996F0
:1017C300FE02120FA9DDFE02120FA90AFF02120F79
:1017D300A935FF02120FA9F8CA05120FA916CB05E6
:1017E300120FA978CB05120FA912CC05120FA94528
:1017F300CE05120FA93DCC05120FA985CC05120FFA
:10180300A973C305120FA9EAC405120FA9B3C90529
:10181300120FA9D8CA05120FA9E7E304120FA97181
:10182300E704120FA96DE904120FA99FEA04120F2E
:10183300A978EB04120FA908ED04120FA9D4ED0443
:10184300120FA928EE04120FA939C505120FA95AC0
:10185300C505120FA994C605120FA9BEC605120F1E
:10186300A9C4FF01120FA9D4FF01120FA9DEFF01C2
:10187300120FA957ED03120FA95AED03120FA93640
:10188300F503120FA988F603120FA9E9F703120F44
:10189300A9C0F803120FA999F903120FA982FA0339
:1018A300120FA976FB03120FA92EFC03120FA95ED8
:1018B300FC03120FA90EFE03120FA95DC805120F38
:1018C300A96FC805120FA983C905120FA986C905F7
:1018D300120FA957CD05120FA98DCD05120FA9A57A
:1018E300CD05120FA9E7CD05120FA9F7CD05120FEC
:1018F300A93BCE05120FA9CAF704120FA904F804D5
:10190300120FA96DF804120FA98CF804120FA9A5E0
:10191300F804120FA947F904120FA950F904120F82
:10192300A9A1F904120FA9CAF904120FA9D7F9043E
:10193300120FA948FA04120FA9D6FA04120FA92408
:10194300FB04120FA95AFB04120FA9BBFB04120FCD
:10195300A9E4FB04120FA95BFC04120FA9B7FC0452
:10196300120FA9F4FC04120FA92BFD04120FA93DB9
:10197300FD04120FA94FFD04120FA96EFD04120FEF
:10198300A977FD04120FA932FE04120FA97EFE04EB
:10199300120FA9BCFE04120FA93BD305120FA98B8A
:1019A3008A05120FA9CB8B05120FA9EE8B05120F17
:1019B300A9FF8B05120FA91E8E05120FA93E8E05D6
:1019C300120FA912BD05120FA948BD05120FA99048
:1019D300BD05120FA9E9BE05120FA9C8AE04120F67
:1019E300A9F9AF04120FA935B004120FA9EFB1047E
:1019F300120FA919B204120FA992B404120FA9D29B
:101A0300B404120FA966B604120FA905B704120F86
:101A1300A95DB704120FA9F0B704120FA92AB804DD
:101A2300120FA96CB804120FA9DFB904120FA95F32
:101A3300BB04120FA99CBD04120FA9CABD04120F47
:101A4300A9F6BD04120FA9FFBD04120FA95CBE04C1
:101A5300120FA9ECBE04120FA928C204120FA9AADF
:101A6300C204120FA93DD505120FA977A105120FC4
:101A7300A98DA105120FA931A205120FA970A20504
:101A8300120FA98DA205120FA9BEA205120FA90B51
:101A9300A305120FA93FA305120FA97AA305120FDD
:101AA300A96FA505120FA9FCFE03120FA95BFF0383
:101AB300120FA999FF03120FA9DAFF03120FA97CD2
:101AC300A505120FA935AC02120FA941AC02120FE2
:101AD300A9A3AC02120FA9ADAC02120FA93AAD0231
:101AE300120FA976AD02120FA939AE02120FA94C3B
:101AF300AE02120FA9BAAE02120FA922AF02120F41
:101B0300A9B1AF02120FA92FB002120FA9D4B102CB
:101B1300120FA98DB302120FA9D3B402120FA95049
:101B2300B602120FA9F7B602120FA9C5BB02120F14
:101B3300A9BCBC02120FA94BBD02120FA970BD02B2
:101B4300120FA90DBE02120FA92ABE02120FA94A33
:101B5300BE02120FA9BBBE02120FA9D8BE02120FFA
:101B6300A906BF02120FA99EC002120FA9BFC0028D
:101B7300120FA965C102120FA9ADC102120FA91F4D
:101B8300C202120FA9A2C202120FA907C302120FA7
:101B9300A964C302120FA903C402120FA977C402D6
:101BA300120FA9B3C402120FA920C502120FA98AEA
:101BB300C602120FA90BC802120FA9BAC802120F4C
:101BC300A91CCB02120FA97ECB02120FA9ACCB0228
:101BD300120FA9C4CD02120FA954D002120FA95794
:101BE300D102120FA9F06F00120FA9177000120F84
:101BF300A9517000120FA95A7000120FA95D70004D
:101C0300120FA9BD7000120FA9D67200120FA952AC
:101C13007500120FA9427600120FA98A7600120FDF
:101C2300A9B77600120FA91F7700120FA9537700E7
:101C3300120FA9B67700120FA9997800120FA9BB4A
:101C43007800120FA9217900120FA9877900120FCA
:101C5300A9087A00120FA96E7A00120FA9447B001B
:101C6300120FA9C27B00120FA9E77D00120FA9FF73
:101C73007D00120FA9B07E00120FA9008003120F7E
:101C8300A99F8003120FA91B8103120FA90A8203C4
:101C9300120FA9088303120FA9878303120FA9C97F
:101CA3008403120FA96A8503120FA92A8703120F4F
:101CB300A9318803120FA94E8803120FA97989034A
:101CC300120FA9B68A03120FA9608B03120FA9CAB8
:101CD3008E03120FA9D29003120FA95B9103120F67
:101CE300A9B59103120FA9039203120FA97E9203C0
:101CF300120FA9009303120FA93C9303120FA9E03B
:101D03009903120FA93B9C03120FA9179D03120FEE
:101D1300A96A9804120FA99C9804120FA914990494
:101D2300120FA9239A04120FA97F9A04120FA9F67E
:101D33009B04120FA9129C04120FA9649C04120F96
:101D4300A9A29C04120FA9B59C04120FA90D9D040E
:101D5300120FA97C9D04120FA93E9E04120FA9AC79
:101D63009E04120FA9E39E04120FA91B9F04120FD6
:101D7300A9A3A004120FA982A104120FA9D0A2043F
:101D8300120FA9B3A304120FA93FA404120FA98130
:101D9300A404120FA9A0A404120FA9EBA404120F08
:101DA300A90BA504120FA9A4A504120FA927A60421
:101DB300120FA932A604120FA987A604120FA9E2D3
:101DC300A604120FA92FA704120FA9ACA904120F7E
:101DD300A9D0AA04120FA916AB04120FA90BAC04C5
:101DE300120FA933AC04120FA936AC04120FA94089
:101DF300AC04120FA95CAC04120FA9E4AC04120FDB
:101E0300A91DAD04120FA949AD04120FA970AD04A9
:101E1300120FA994AD04120FA905AE04120FA9184D
:101E2300AE04120FA92EAE04120FA950AE04120F66
:101E3300A97FAE04120FA99EAE04120FA9B6AE0479
:101E4300120FA9CED105120FA9DAD105120FA918C5
:101E5300D205120FA9FB7F00120FA98BD303120F18
:101E6300A9AED303120FA9FBD403120FA944D503C0
:101E7300120FA9A2D503120FA9FCD503120FA9FFB4
:101E8300D503120FA950D603120FA9CAD603120FF6
:101E9300A94DD703120FA950D703120FA9D8D703FF
:101EA300120FA91BD803120FA9B1D203120FA9EF66
:101EB300DD03120FA929DE03120FA976DE03120F29
:101EC300A9DAE103120FA95FE203120FA91BE303CF
:101ED300120FA949E403120FA976E503120FA960B3
:101EE300E603120FA9CEE703120FA952E803120F5C
:101EF300A944E903120FA9CAEB03120FA900800436
:101F0300120FA9A08004120FA90C8104120FA92794
:101F13008104120FA9C88104120FA90F8204120FA2
:101F2300A96DE304120FA9758304120FA9F18304A9
:101F3300120FA9448404120FA9AB8404120FA92C15
:101F43008604120FA9448704120FA9C78704120F2E
:101F5300A9CF8904120FA9738A04120FA9128B0443
:101F6300120FA9738B04120FA9E28B04120FA94657
:101F73008D04120FA9308E04120FA96B8E04120F59
:101F8300A98B8E04120FA93C8F04120FA9798F0419
:101F9300120FA9029004120FA98A9104120FA968C3
:101FA3009304120FA90E9504120FA9A19504120F01
:101FB300A90B9604120FA9179704120FA90C9E03DD
:101FC300120FA96F9E03120FA9B79E03120FA9F553
:101FD3009E03120FA9509F03120FA9AD9F03120F67
:101FE300A9E89F03120FA96AA003120FA9C4A003B3
:101FF300120FA938A203120FA9C2A203120FA91527
:10200300A303120FA92FA303120FA949A303120FAE
:10201300A9A3A303120FA929A603120FA948A60374
:10202300120FA933A703120FA96DA803120FA9EC6E
:10203300A803120FA923A903120FA992A903120F30
:10204300A953AA03120FA92CAC03120FA92DAD0398
:10205300120FA99EAE03120FA99EB003120FA91966
:10206300B303120FA9F3B403120FA9B4B503120FEC
:10207300A92CB603120FA943B603120FA93DB70348
:10208300120FA935B803120FA9A4B803120FA9039D
:10209300A905120FA95AAA05120FA919AB05120F08
:1020A300A981AB05120FA9F5AB05120FA9C6AF05A0
:1020B300120FA9E1AF05120FA925B005120FA94B05
:1020C300B005120FA972B005120FA98AB005120F3D
:1020D300A92CB105120FA941B105120FA963B205CD
:1020E300120FA96CB205120FA975B205120FA97EC2
:1020F300B205120FA9CF9805120FA9D19C05120F93
:10210300A9D69C05120FA9D89C05120FA900C205D8
:10211300120FA950BF05120FA93ED105120FA9E84E
:10212300D405120FA98DFF02120FA99DFF02120FF2
:10213300A93F9D05120FA9A8D005120FA9D2D0055A
:10214300120FA9B1D405120FA914D505120FA95F57
:10215300D502120FA992D502120FA9FED502120FB2
:10216300A999D602120FA936D702120FA97BD7025B
:10217300120FA99DD702120FA9B6D702120FA9DC1D
:10218300D702120FA9FED702120FA93CD802120FD1
:10219300A980D802120FA9A2D802120FA904D9024A
:1021A300120FA9CBD902120FA982DA02120FA9F4D6
:1021B300DA02120FA9BFDB02120FA912DC02120FFF
:1021C300A978DC02120FA9B2DC02120FA904DD0206
:1021D300120FA972DD02120FA9DDDD02120FA9E0B1
:1021E300DD02120FA961DE02120FA9F8DE02120F3F
:1021F300A959DF02120FA949E002120FA968E002F0
:10220300120FA9CCE102120FA9D9E102120FA9E51D
:10221300E202120FA9F2E202120FA9FBE202120F6D
:10222300A9D3E402120FA9EDE502120FA966E60293
:10223300120FA9D8E602120FA9FAE602120FA98E0D
:10224300E702120FA962E902120FA939ED02120F78
:10225300A94DED02120FA95DED02120FA967ED0260
:10226300120FA970ED02120FA979ED02120FA983C3
:10227300ED02120FA9B0ED02120FA9D9ED02120F50
:10228300A9E4ED02120FA908EE02120FA92CEE0227
:10229300120FA996EE02120FA9DCEE02120FA9F992
:1022A300EE02120FA976EF02120FA9ADEF02120F81
:1022B300A9ECEF02120FA939F002120FA9BFF00225
:1022C300120FA98DF202120FA922F302120FA9060F
:1022D300F402120FA96DF602120FA9C6F602120F2D
:1022E300A910F702120FA96BF802120FA9A9F8029D
:1022F300120FA9FBF802120FA9B0F902120FA95F7E
:10230300FA02120FA99CFA02120FA931FB02120F53
:10231300A99DFB02120FA9E19201120FA9139301C8
:10232300120FA9419301120FA9179501120FA9F7D3
:102333009501120FA94F9601120FA98A9701120F47
:10234300A9D69701120FA9FF9A01120FA9F29D01B5
:10235300120FA9429F01120FA9D89F01120FA9E4DE
:102363009F01120FA916A001120FA999A101120F23
:10237300A9A7A201120FA9D1A201120FA938A30183
:10238300120FA991A301120FA9F7A301120FA90E0E
:10239300A601120FA99DA701120FA967A801120F89
:1023A300A9ADA901120FA9FDAB01120FA9CDAE0171
:1023B300120FA9DAAE01120FA961AF01120FA9F52D
:1023C300AF01120FA938B001120FA981B001120F8A
:1023D300A9D5B001120FA94EB101120FA9BDB101C8
:1023E300120FA9DAB101120FA90AB201120FA93F04
:1023F300B201120FA90FB301120FA9B8B301120F43
:10240300A93EB601120FA95EB701120FA949B8017F
:10241300120FA9CBB801120FA902BD01120FA93FD8
:10242300BD01120FA997BD01120FA9CABD01120F59
:10243300A934BE01120FA96ABE01120FA9F5BE018C
:10244300120FA94DBF01120FA924C001120FA9DD5C
:10245300C001120FA978C101120FA980C401120F84
:10246300A99CC501120FA93FC901120FA933CA01C3
:10247300120FA936CA01120FA965CA01120FA96B5F
:10248300CC01120FA944CD01120FA987CD01120F60
:10249300A9DDCE01120FA91CCF01120FA9AECF01E6
:1024A300120FA9E2CF01120FA9A7D001120FA9BFE2
:1024B300D201120FA930D301120FA970D301120F49
:1024C300A9A9D301120FA93DD401120FA9BBD501AC
:1024D300120FA9E3D601120FA9A5D701120FA9ACB8
:1024E300D901120FA9C4D901120FA9D8D901120F0A
:1024F300A910DA01120FA93EDA01120FA9BDDB01FF
:10250300120FA9E2DC01120FA946DD01120FA9F88F
:10251300DD01120FA928DE01120FA9EFDE01120F50
:10252300A987DF01120FA9ADE101120FA9E2E101B1
:10253300120FA945E201120FA974E301120FA91C9E
:10254300E401120FA94DE401120FA965E401120F72
:10255300A9F4E401120FA9A8E701120FA980E90168
:10256300120FA99CE901120FA9B8E901120FA9865C
:10257300EA01120FA979EE01120FA9F93200120F25
:10258300A92B3300120FA91A3700120FA9663700BF
:10259300120FA9AC3700120FA94E3800120FA9AAC7
:1025A3003800120FA9EF3800120FA9363A00120FA4
:1025B300A94A3B00120FA9393F00120FA9BD3F00E2
:1025C300120FA9CA4000120FA9264100120FA91623
:1025D3004300120FA98B4300120FA9954300120F5A
:1025E300A9A24300120FA9CD4300120FA9B44400BE
:1025F300120FA95E4500120FA9DC4500120FA9FCBA
:102603004500120FA9254600120FA9474600120FD5
:10261300A9A74800120FA96D4900120FA9B24900DA
:10262300120FA92F4A00120FA9E04A00120FA91294
:102633004B00120FA9584B00120FA9944B00120F15
:10264300A9E44B00120FA9384C00120FA98E4C00BD
:10265300120FA9DA4C00120FA9474D00120FA9C29D
:102663004D00120FA98D4F00120FA98D5000120FAC
:10267300A9B25100120FA9F15400120FA904580076
:10268300120FA9C15800120FA9055900120FA9B5BD
:102693005A00120FA9C95A00120FA9D35A00120FD8
:1026A300A9DD5A00120FA9E95A00120FA9055B0010
:1026B300120FA9B05B00120FA9EF5B00120FA9F96B
:1026C3005B00120FA9035C00120FA9735C00120FC9
:1026D300A9BE5C00120FA9D35D00120FA92F5E00E3
:1026E300120FA9B05E00120FA96F5F00120FA97835
:1026F3006000120FA9AC6100120FA99A6200120FB9
:10270300A9B26200120FA90D6300120FA92B630077
:10271300120FA9736300120FA99A6300120FA93550
:102723006400120FA9FB6400120FA98D6500120F3C
:10273300A9076600120FA9216700120FA9CE67002F
:10274300120FA9F66800120FA9466900120FA9AA71
:102753006900120FA90C6A00120FA93A6A00120F3E
:10276300A95E6A00120FA9936A00120FA9C46A0036
:10277300120FA9F76A00120FA9176B00120FA97F96
:102783006B00120FA9736C00120FA9CE6C00120F0D
:10279300A9F76C00120FA97F6D00120FA9026E003A
:1027A300120FA92D6E00120FA9126F00120FA907A5
:1027B300C304120FA93FC304120FA960C304120F6D
:1027C300A9A2C304120FA904C404120FA90EC404BE
:1027D300120FA91EC404120FA959C404120FA93958
:1027E300C804120FA926CA04120FA90CCC04120F95
:1027F300A9A3CC04120FA945CD04120FA924810269
:10280300120FA9A28102120FA9FE8102120FA94978
:102813008202120FA9648202120FA98F8202120F81
:10282300A9AC8202120FA9B88202120FA94F840227
:10283300120FA9688402120FA9ED8402120FA900D6
:102843008502120FA91F8502120FA9C38502120F59
:10285300A9448702120FA9F78802120FA98D8902D2
:10286300120FA9908902120FA9008A02120FA91E42
:102873008A02120FA9B58A02120FA9FD8A02120F4A
:10288300A9008B02120FA9C68B02120FA9338C0267
:10289300120FA9598C02120FA9E48C02120FA9027C
:1028A3008D02120FA9488D02120FA9FC8D02120F7F
:1028B300A9468E02120FA9758E02120FA9D28E029B
:1028C300120FA9078F02120FA9338F02120FA9410A
:1028D3008F02120FA98E8F02120FA9FE8F02120F01
:1028E300A9479002120FA9939002120FA9BF900259
:1028F300120FA9CA9002120FA9E89002120FA9D3CE
:102903009102120FA9DD9102120FA9189202120F60
:10291300A9289202120FA9319202120FA9859202DD
:10292300120FA9999202120FA9C89302120FA9DDDF
:102933009302120FA96B9402120FA9B09402120F03
:10294300A93C9502120FA9479502120FA989960275
:10295300120FA9A49602120FA9F09602120FA95FF3
:102963009702120FA9989702120FA9B29702120F9A
:10297300A9F49702120FA9C49A02120FA9719B021C
:10298300120FA9DE9B02120FA91E9E02120FA93677
:102993009E02120FA9399E02120FA9459E02120F21
:1029A300A9599E02120FA9619E02120FA9949E02B9
:1029B300120FA9969F02120FA91DA002120FA98D33
:1029C300A002120FA90FA102120FA9D0A102120F88
:1029D300A9EFA102120FA990A202120FA9EDA20260
:1029E300120FA9F0A202120FA964A302120FA9B336
:1029F300A402120FA9B9A502120FA944A602120F2D
:102A0300A95FA702120FA927A802120FA958A802AB
:102A1300120FA97BA802120FA984A802120FA9B34F
:102A2300A802120FA943A902120FA9F9A902120FB2
:102A3300A96EAA02120FA915AB02120FA98AAB0243
:102A4300120FA9C1AB02120FA9FFAB02120FA945C6
:102A5300D203120FA9E4D103120FA9BAD103120FA3
:102A6300A9A6D103120FA99CD103120FA92FD10339
:102A7300120FA960CF03120FA91ECF03120FA92CA7
:102A8300CE03120FA900CE03120FA916E304120FEF
:102A9300A99DE104120FA9B7CD03120FA9F4CC032A
:102AA300120FA9EFE004120FA952E004120FA9D3E9
:102AB300C903120FA996C703120FA963C703120F05
:102AC300A90AC703120FA99DC603120FA95CC60367
:102AD300120FA93CC603120FA975C503120FA90F44
:102AE300C503120FA9AEC403120FA94EC403120FDC
:102AF300A925C303120FA9B9C203120FA911C20357
:102B0300120FA90CC203120FA900C203120FA93B93
:102B1300BE03120FA915BE03120FA9B3BD03120FF3
:102B2300A948E004120FA9DDDF04120FA9C9DF04CD
:102B3300120FA919DF04120FA91FDE04120FA940F7
:102B4300DD04120FA996DA04120FA954BD03120F64
:102B5300A941BD03120FA936BD03120FA905BD0379
:102B6300120FA9A8D904120FA921BB03120FA9A8F8
:102B7300BA03120FA93FBA03120FA9B2B903120F76
:102B8300A93AD904120FA96EB903120FA93283040B
:102B9300120FA947B903120FA9E5D804120FA99080
:102BA300D804120FA963D804120FA930D804120F46
:102BB300A908D804120FA9A9D704120FA989D70409
:102BC300120FA954D704120FA918D404120FA9ED98
:102BD300D104120FA9DDCF04120FA95ACF04120F8B
:102BE300A90ECF04120FA9FCD203120FA9C2CE045F
:102BF300120FA91CCE04120FA93EDC0300000080B3
:102C0300FB87000100041935000400CC18250002DD
:102C130000D01826000200D21827000200D418287A
:102C2300000100DE1829000100DF1884000400A65B
:102C33001586000100C8172A000100E0182B0001C7
:102C430000E1182C000100E6182D000800B2152E33
:102C5300000100E7182F000100E81830000100E927
:102C63001831000100EA1832000100BA15330001DF
:102C730000BB1534000100EB1836000100BC153809
:102C8300000100EC1839000100E51883000200027E
:102C93001963000100C81564000100E21865000112
:102CA30000E3186D000100C91571000800AA15663C
:102CB300000100011943000100F21844000200F36F
:102CC3001845000100F51846000200F618470008F1
:102CD30000C01548000100F8184B000100F9180462
:102CE3000001000519A100010008193700010007C0
:102CF300198800010006193C000100BD153D0001C3
:102D030000ED1849000200FA1867000100CA154DCA
:102D1300000200FC184E000100FE184F000200FFE5
:102D2300183E000100F11851000100BE15520001C8
:102D330000EF1853000100F01854000100BF150004
:102D4300000000000000013636010100010201000D
:102D5300010301000104010606050200000701004A
:102D6300340801000F090401010D0100FF0E0800E2
:102D73000017020000190100FF1A0100011B0100E6
:102D8300FE1C0100081D0200001F010001200100BC
:102D930001210200002301000F240200002601008C
:102DA3000127010008280200FF2A0100072B010266
:102DB300402C0100002D0100012E0100012F010014
:102DC300FF30010B1D310800003A0100083B0100F0
:102DD3000F3C0100013D0100FF3E040000420400DE
:102DE30000460400004A0400004E040000520400A0
:102DF30000560400005A040000040003002001DC14
:102E030092000000002001DE92000001002001DE9C
:102E130092000002002001DE9200000040420163A4
:102E2300910000040042010F90000005004201A937
:102E3300900000060042016391000007003001DFAB
:102E4300920000100042030E1800001100300372BC
:102E53001400001200100321180300000021037363
:102E6300140000FDFF2101D8920300FDFF2101D8CA
:102E73009206000000100175140600FDFF2181D8A1
:102E8300920204000029057F14020401002901D0E5
:102E930092020402002901CE920204FDFF2101D80F
:102EA300920A000000E2038E14002020202020203C
:102EB30020202028282828282020202020202020E7
:102EC30020202020202020202020881010101010E7
:102ED3001010101010101010101004040404040437
:102EE300040404041010101010101041414141411A
:102EF300410101010101010101010101010101017F
:102F0300010101010110101010101042424242420F
:102F1300420202020202020202020202020202024E
:102F230002020202021010101020010371030103B8
:102F3300010301030103010322030203010310033D
:102F43000003000300030003000300030003420324
:102F530000032403060300030003040312032503F1
:102F630023032503230304030403000300030003D3
:102F73004403000300032303000365032100350317
:102F8300810300030503000300030003000325037B
:102F9300230301017101010101011101010131014A
:102FA300010101018001100161013B001400630173
:102FB30073017201620143010001130106013D0126
:102FC30035000401120100010001000100010401A8
:102FD3000401330133013C01440132013600000195
:102FE3000001650100013500810100010501820135
:102FF30083010001030271023001600211027002B9
:103003000102020202028002100261023A00410040
:103013006302730272026202430200021302380067
:103023000002000204021202000200020002000277
:1030330004020402370037003C0244020002390054
:10304300000200026502000235028102000205024D
:10305300820283020002030071003001600011004C
:103063007000310220035004800010006100000052
:103073001400630073007200620043000000130039
:103083000600000000000400120000000000000021
:10309300000004000400370037003C024400000035
:1030A3000000000000006500000035008100000002
:1030B3000500000083000000360001000600000048
:1030C3000F0000000000000000000000000003FFEC
:1030D300FF00000403FFFF0000FFFF0FF4010005E2
:1030E300C4040320000100000B00000000000000E6
:1030F3000003010F000000000000000000000000BA
:1031030000000000000000000000000000000000BC
:10311300000000000000A31BCD1BA91BE31AAF1B7B
:10312300D31BAF1BDF1BB51BE31AAF1BD31BBB1B8F
:10313300E31A00000000C11BE31A000000000000B6
:103143000000C71BE31A000000000000000000009D
:10315300000000000000000000000000000000006C
:10316300000000000000000000000000000000005C
:1031730000000000391F0100391F02007F1E02807A
:10318300791E0300851E04008B1E0480911E05001A
:10319300971E0600A31E3000C11E3100BB1E330064
:1031A300CD1E3400D31E1100D91E1400DF1E1500DE
:1031B300B51EFFFF00000300030004000800100019
:1031C3001F003E007B00F600EC01D703AF075D0F45
:1031D300B91E713D000007ECFDFDFDECDCDCCCBC51
:1031E300ACAC9C9C8C7C7C6C6C5C5C5C4C4C3C3CCC
:1031F3002C2C1C1C03EAF5E5D5D5C5B5A5959585FD
:10320300857575656555554545353525251515056B
:103213000AF32502BD2505C92507C3250CA5250DE0
:10322300B125FF000000160F00000B150B02000272
:10323300220F3300000E0FD0D1D2D3D4D5D6D7D896
:10324300D9DADBDCDDDEDF060000001001761406D0
:1032530000FDFF2181D8925A6967426565416C6C14
:1032630069616E6365303906000000100178140649
:1032730000FDFF2181D8920600000010017714069B
:1032830000FDFF2181D892303017181921301B1D02
:103293001F3000034D4C4651181A25050200011931
:1032A3001618161618230300003C40423A3F3F39D4
:1032B3002F4730303016181920231A1C1E300C0EDD
:1032C300020B040B0A0708000F02040201010101AB
:1032D3000902E803000000BE040A0E000100030017
:1032E300E803FF04091E1E03040A0C041008280245
:1032F3000C050815030474F7120B12E990169FF0DE
:10330300901654E4F01218BB9016B7E4F0A3F090B3
:1033130016A0F0A3F01227431218C19015D8E4F0B9
:10332300A3F01220DD024C5F74F0120B1274D3125F
:10333300108C1266BB5480606690169FE0F91219D8
:10334300338A088B09AF09EA4F604C7C0080010C7B
:10335300EC75F003A4F8A9F0741328F582743239DC
:10336300F583E493F46029E493F88A828B83E0681D
:1033730070DDEC75F003A4F8741428F58274323907
:10338300F583E493C0E0740193F583D082120C8A31
:10339300AA08EFFB121921126DED64800236FA853B
:1033A3001882851983A3E05420601F1226598A08C6
:1033B3008B09AF09EA4F600A1225B1AA08EFFB1285
:1033C3001921126DED64200236FA8518828519835E
:1033D300E0A2E05042901659E0640F702E9009A2CB
:1033E300126DF89009A2C3E094E9A3E09403400AA4
:1033F3007A007B809014CA124D417900122587E927
:1034030060099018CC1212AF12259F851882851976
:1034130083E064010236DF542070030236E47A202D
:103423007B0090169FE0F9121A95EA4B4C4D701AE7
:103433009016B31212C7E8494A4B700E750801750E
:103443000900750A00750B00806D750C00750D0081
:10345300750E00750F00121AA18A088B098C0A8D4C
:103463000B9016B31212C7E8494A4B60319016B35A
:103473007808120F43400E750CFF750DFF750EFF94
:10348300750F7F801985080C85090D8C0E8D0F90A3
:1034930016B3780C1210747401780C121043850C57
:1034A30008850D09850E0A850F0BE5084509450AB0
:1034B300450B700302363E7C0079047A007B0012D0
:1034C300262F8A0C8B0DAE0CAF0D023582740212BF
:1034D30012EA74FFF074031212EA74FFF074041218
:1034E30012EA74FF124DB4126575740712106C1250
:1034F300682BE96401706A1237064480F8A3E0F987
:1035030074281212EAE8F0A3E9126ABFE0C0E0747B
:103513002A1212EAD0E0124DA15408601674281240
:1035230012EAA3E04401123713C0E0742C1212EA2A
:10353300D0E0F01266FE6011E8240B123EF9F87435
:10354300161212EAE8F0A3E4F09092AF120E2A7476
:103553000612106C740B1210641222457404120FBD
:10356300F48E828F83A3A3A3A3A3A3A3A3A374060D
:10357300123713F912261174051212EA126882EE39
:103583004F700302363E7C007904EEFAEFFB1226FD
:103593002F74051212EAEAF0A3EB124ACBE0F50C02
:1035A300A3E0F50DE4F50EF50F7808790C12122758
:1035B3004023EE2404F8E43FF985080C85090D88BF
:1035C30082F583C3E0950CF0A3E0950D126EE2E85B
:1035D3004970A4800C8E828F83A3A3A3A3E4F0A3DA
:1035E300F08E828F83A3A3A3A3A3A3A3A3A3A3E088
:1035F30064018E828F83A3A3A3A3A3A37020E054AB
:103603000460030234D08E828F83A3A3A3A3A3A356
:10361300A3A3A37406F07AB712383902357AA3A3A9
:10362300A3A3E060030234D08E828F83A3A3A3A35A
:10363300A3A3A3A3A37401F002357A1225FF7C0090
:1036430079017A007B0012262FEA4B6003124D3A70
:103653007C0079047A007B0012262FEA4B701380DA
:10366300448A828B83A3A3A3A312689AEE98EF994B
:10367300400B8A828B83A3A3A3A31268827C007965
:103683000412262F8B0BA90BEA4970D5C3E5089EBC
:10369300E5099F500DC3EE9508FEEF9509FFEE4F28
:1036A300700D124D3A9016B312370CA3F08024EE2E
:1036B3002EFEEF338E08F509E4F50AF50B780812B0
:1036C3000FBE7A201238E2120FF4121AA19016B329
:1036D3001212BB851882851983E06420FAA3E08067
:1036E30016A3E054046013125F52122B4B7901129C
:1036F30040C0126DED6404FB80047A007B00742DDE
:103703000266DAEE1266E8E022E4F0A3F0A3F02208
:10371300124DA6A3A3E022C082C08374EA12108CC8
:103723007C167D007900AA18AB19121903740812CC
:1037330012EA7402F090164812618E12375A740915
:103743001212EA1261A674131212EAE4125E25122F
:1037530020D17416025070E8F0A3E9F090165212CB
:10376300686A2274F7120B1274DA12108CEAFEEBF9
:10377300FFEA4F602DAC18AD1912267774061212AA
:10378300EAE0601E74171212EAE0FD74011212EAF5
:10379300E0FCEEFAEFFB790012255DE9600479A401
:1037A300800279007426024C5C74F7120B12EAFE55
:1037B300EBFF8A82F583A3A3A3A3A3A3E0544060F2
:1037C300178A828B8312669B124F7F60067AFF7B78
:1037D300FF8015126697800390164812657574FE74
:1037E3006A700374FF6B60411266971266C11227F9
:1037F3000DE98E828F83600B126284126EADE4F04A
:10380300A38003126E9CF07C8D7D258E828F8312A4
:1038130045F5E9F5087015EE4F60097901EEFAEF09
:10382300FB12260BA908024C5F7508CDAA081238B3
:1038330039E960E380EE8E828F83126288240CF56F
:1038430082E438F583E0F91225992274F6120B12FB
:10385300E9FEEAFF7A0F7B0012191BEA4B601A8A12
:10386300828B83740CF0EEA3A3F0EF8A828B831216
:103873004A1A125E837900802BEEF91226358B09E2
:10388300A909EA49601C8A828B83A3A3A3A3A3A3E8
:10389300A3A3A37406124A23E0F91222E7EEF91256
:1038A30026117910025C6E74F4120B128A088B09CC
:1038B3008C0A8D0B901659E0640F701EEA4B4C4D29
:1038C3006018901654E064086005E06404700B7897
:1038D30008120FBE1238E0120FF4023B457A017B47
:1038E3000090169FE0F9121A8374042274F4120BE9
:1038F3001274FC12108CEAFEEBFF8A82F583A3A3F9
:10390300E0F91226358A088B09EA4B7003023A283C
:103913008E828F83A3A882A983E0C0E0EA125E7936
:10392300D0E012488964F160288E828F83A3E0641B
:10393300CD601E8E828F83A3E0641A60148E828F03
:1039430083A3E064E9600A8E828F83A3E064E1705D
:1039530033790012260BE9602BE5082404F50AE409
:103963003509F50B850882850983A3A3A3A3A3A324
:1039730012495F1248671218CD850A82850B83129C
:1039830066C180708E828F83A3E0C0E0740212123E
:10399300EAD0E012507E1251A112430FC0E074032B
:1039A3001212EAD0E0F0E508126B6A123FB8E0AAFF
:1039B30018AB19700512223F80031226F574021208
:1039C30012EAE064E9702D85088285098312411E9D
:1039D300750A01780A120FCA750AE9780A120FCA22
:1039E30012483B1242DCFCA3E0FD8A828B83124324
:1039F30006120FF4850882850983A3A3A3A3A3A3B7
:103A0300A3A3A3E064027012850882850983A3A39C
:103A1300A3A3A3A3A3A3A37406F08E828F83A3A35C
:103A2300E0F91226111225FF9018D2123F2A7404CE
:103A3300023B4274F4120B12EAFEEBFF7508008A94
:103A430082F583A3A3A3A3A3E060387508081265D6
:103A53006879FF1223BFEA4B601075082C8E828FA2
:103A630083A3A3A3A3A3E0D2E0F08E828F83A3A3B7
:103A7300A3A3A3E0540364016003023B3143081191
:103A8300023B31EA24181254676036EA241A1254AE
:103A9300676003F4701312684A7003A3E06960035C
:103AA300023B31750822023B31EA241B123B3524C9
:103AB3001A125467FAEE2419125467F91222D580A8
:103AC3006D8A828B83A3A3A3A3A3A3A3A3A3123F60
:103AD3001570037508018E828F8312684E7003A3DD
:103AE300E0697006E508D2E1F508E50860158E8205
:103AF3008F83A3A3E07006E508D2E58004E508D22E
:103B0300E6F508124F7264017006E508D2E0F50885
:103B13008E828F83A3A3E06015EE241D125786F9CE
:103B23001226FBE964016006E508C2E0F508A9086E
:103B33008010F582E43FF583126F05EA22740912BF
:103B43000FF47F04020D2974F0120B1274D71210B4
:103B53008CEAFEEBFF8A82F583A3A3A3A3E0600EA6
:103B63009018D012670560069018D0123F2A74038C
:103B730012106C8E828F83A3A3A3126051126573FC
:103B8300122677E97003023CDB780174051212EA0E
:103B9300E0C394024002780074071212EAE0C3946F
:103BA3000240027800740C1212EAE064F87003A376
:103BB300E0F47003023CDB740C1212EAE064F97067
:103BC30003A3E0F47003023CDB740C1212EAE0641A
:103BD300FA7003A3E0F47003023CDB740C1212EAE4
:103BE300E064FB7003A3E0F47003023CDB74061291
:103BF30012EAE0F9901642E0696003023CDBE8A2B6
:103C0300E04003023CDB74271212EAE06003023C4B
:103C1300DBEE241312686074221212EA12605B2432
:103C23001C12686074101212EA1261A6740912124F
:103C3300EAE0601D741A1212EAE0FD74041212EA3B
:103C4300E0FC8E828F83126573790112255DE97022
:103C53003B74031210641225ABE9F50C74091212BC
:103C6300EAE0702C90163CE06026742259642260CE
:103C73001F7442596442701474201212EA123F0FE7
:103C8300600E74201212EA123F0860047ACF804A51
:103C9300E9A2E6504D74201212EA12578C24FD60FB
:103CA3000F14600C24FD600824FD600424FE7028BA
:103CB30074201212EA123F01700E74201212EA12DB
:103CC3005DB2A3E0640D601A740312106412272519
:103CD300E96401700D023EF17AD37B00121E550296
:103CE3003EF1EE242DF582E43FF583124115700376
:103CF300A3E069701D7508007808120FCA780812CE
:103D03000FCAEE242F125467F9123F1B12430612F7
:103D13000FF474091212EAE07003023DB9123F1B5B
:103D23001265751227738A0E8B0FEA4B7003023EDE
:103D33004A74041212EAE0F88E828F83A3A3E02868
:103D4300F8A3E03400F9E8240D123EF9F88A828BD7
:103D530083A3A3A3E068600EE88A828B83A3A3A353
:103D6300124A1312370D7904E91212EA125486A388
:103D7300E02AF8A3E034008882F583A3AA82AB8308
:103D830012190F8A088B098C0A8D0B850E82850FF9
:103D930083A3A3A3A37808120F434003023EF19029
:103DA300928F78081211BB850E82850F83A3A3120D
:103DB3006F0BA31251AA901654E064046008E064E8
:103DC300096003023EF1E50CA2E54003023E84EEE6
:103DD300242F12546FF0EE2430125467C0E07401A4
:103DE3001212EAD0E0F0EE2431125467C0E07402FC
:103DF3001212EAD0E0F074141212EAE064017026A1
:103E0300740E1212EA124862241312546768700384
:103E1300A3E0697011740C1212EA123F1570077453
:103E2300141212EAE4F0EE2425F582E43FF583123E
:103E33000E2A740412106C74071210641222457453
:103E430004120FF4023EF1901699E064016003023C
:103E53003DB974201212EA123F0F7009E50CA2E675
:103E63005003023DB974101212EAE0F47003A3E0A8
:103E7300F4607BEEFCEFFD74031210641225B7802F
:103E83006DA2E6506974201212EA126294701674DD
:103E93001A1212EAE0640270557403121064790076
:103EA3001226EF804974201212EA123F087014742C
:103EB3001A1212EAE06404703574031210641226B5
:103EC300E3802B74201212EA123F01700C79007404
:103ED30003121064122731801574201212EA125D46
:103EE300B2E0640C7008740312106412273D742945
:103EF3000266DAE82406F582E439F583E0221266E5
:103F0300A1E06403221266A1E064072212579064C1
:103F13000622124F83640222EE242BF582E43F1221
:103F23006F03EE124F5822E0F508A3E0AA08FBE462
:103F3300FCFD12259F2274F4120B12EAFEEBFF8C98
:103F4300088D099015BAE0600F12684A7003A3E068
:103F53006970051222C3805379001265681222F337
:103F63008A828B83E5824583602CA3A3A3A3A3A3A7
:103F7300E054186021E508241C123FB5120E2E12DE
:103F83003FB1120E2EEE24181242ED125A4D126852
:103F930022120FF4801579008E828F83A3A3A312BC
:103FA300627A125A4D1265751222C9023B45E50821
:103FB3002413F582E43509F5832274F7120B127486
:103FC300F712108CEAFEEBFF901654E06403600DC9
:103FD300E064016008E0640960030240BB8A828BED
:103FE30083A3E060030240897C007D007A027B00AA
:103FF3001218C71268C78A82126864901645126144
:10400300A679531220BF901654E0640960099016F4
:104013005212657512276D851882851983740112F2
:104023005DCA9016547404F07401121064794A1234
:1040330020B9740112106C7A4A7B16121AB99014C3
:10404300CDE0640B70057406F0800579001240C062
:104053009016451262807A037B001218C7901648A7
:104063001262807A047B001218C790163FE0A2E325
:104073005004D2F08002C2F0125DB79018CC121235
:10408300AF12259F802FFC7D007A037B101218C787
:104093009014CDE0640B7003740AF09015BEE4F045
:1040A300FA7B40125BA78E828F83A3E0F91240C094
:1040B300901654E4F01225E17409024C5C901652F8
:1040C30012657912225722C082C0839015D81267D5
:1040D300057017901654E024FB6005146007800AEE
:1040E3009015DE801F9015E0801AE8496007123EA4
:1040F300F66401700C8A828B83A3E0F912224B8051
:104103000E9016CE1267056006125DB3120C8A027A
:1041130058FE12686A901652E0682212686AE8FA3A
:10412300E9FB2274F5120B1274D812108C8A088BD7
:10413300098A828B83A3A3A3A3A3A3A3A3E0C3940A
:104143000F50030242D78A828B83A3A3A3126882F0
:10415300741512106C8A828B83A3A3A3A3A3A3A3B6
:10416300A31242DCFAA3E0FB1225ED74151212EA46
:10417300E0702E850882850983A3A3A3A3A3A3A329
:10418300A3E0C3940B401A8E828F83A3A3A3A3A39C
:10419300A3A3A3E064027009EE240B125467F46036
:1041A300030242D774171212EAE060076402600345
:1041B3000242D7901654E06402601CE06406601764
:1041C3009015D812670570030242D7123EF66401B8
:1041D30060030242D780259015D8126705701D75BC
:1041E30008007808120FCA7808120FCAEE241012BA
:1041F30042ED8E828F83124306120FF48E828F83D9
:10420300126EDA12489212686674021212EA12608F
:104213005B123707C0E074041212EAD0E012430FB6
:10422300F508A3E0F509740F7808121275740512E6
:1042330012EAE508F074191212EAE0C0E0740612FB
:1042430012EAD0E0F0741B1212EAE0C0E074071225
:1042530012EAD0E0F074161212EAE0C0E074091218
:1042630012EAD0E0F074171212EAE0C0E074081208
:1042730012EAD0E0F0EE2410125467C0E0740A1280
:1042830012EAD0E0F0741A1212EAE0C0E0740B12E2
:1042930012EAD0E0F074271212EAE0C0E0740C12C4
:1042A30012EAD0E0F0741C1212EAA982AA838908E8
:1042B3008A09750A007808120FC27C087D00741001
:1042C3001212EAAA82AB8312545E120FF4AA18AB3D
:1042D300191222517428024DBAE0F98A828B83A302
:1042E300A3A3A3A3A3A3A3A3E022F582E43FF5839F
:1042F300E0F98E828F83A3A3A3A3A3A3A3A3A312F3
:104303006F05221265791226AD740222F0EE125A5D
:1043130052E02274F2120B1274F812108C8A0A8B78
:104323000B8C0C8D0D8908909190AC18AD19740805
:10433300120F22C200AC0AAD0BAA18AB191264F615
:104343007002D2009016A08013AC0AAD0BEE240BC2
:10435300FAE43FFB1264F6701B124F49124BDC6008
:104363001EA20040E48E828F83E0650C7004A3E0FC
:10437300650D70E58E828F83A3A3E0650870DAEE86
:10438300FAEFFB740802489FC082C0839016A00214
:1043930058FBC082C0839016A0E4F0A30245F174D9
:1043A300F7120B129016A0126DF3800FEA2414F586
:1043B30082E412687F1219D5EEFAEFFBEA4B70EC38
:1043C3009016A0E4F0A3F0024C5F74F2120B128A71
:1043D3000C8B0DEDFF890B8A828B83E08C828D839E
:1043E300F0A3A882A9838A828B83124496124A0D72
:1043F300E0C454F0FA88828983E04AF0EC2402F89E
:10440300E43FF9850C828B83A3A31244961244A93B
:10441300E0333354FC12449DE033333354F81244F5
:104423009DA3E0A2E0E4331313FA88828983E04A70
:10443300F0EC2403FE50010FE50C2407F508E435E6
:104443000DF509750A007808120FC27C087D00EE8D
:10445300FAEF12545D120FF4EE2408FE50010FE53B
:104463000C240FF508E4350DF5097808120FC27C0A
:10447300037D00EEFAEF12545D120FF4E50BC394C3
:104483000F400DE50C2412F582E4350D125A61F04C
:104493000248A2A3E08882898322FA88828983E082
:1044A3004A1244A9A322F0850C828B83A3A3A3A35E
:1044B3002274F2120B12EBFF8C0C8D0D8A82F583A2
:1044C300E08C828D83126EC4A3A882A983E0125864
:1044D300A6124888C41258A0F0EA126ECE1258AD44
:1044E300124886A2E2E4338C828D8312488513132B
:1044F30013541F1258A6A3124885A2E7E4338C82F3
:104503008D83A3A3A3A3A3A3F0EA2403FE50010F67
:10451300F5088F09750A007808120FC27C087D0020
:10452300E50C2407125459120FF4EE2408FE50012F
:104533000FF5088F097808120FC27C037D00E50C84
:10454300240F125459120FF48E828F83A3A3A3E076
:10455300C0E0126EEAD0E0F00248A274F6120B1229
:10456300EAFEEBFF8A82F583A3858208858309E04F
:10457300F912226F850882850983E064EB601E8E41
:10458300828F83A3E064E160148E828F83A3E0644F
:10459300F1600A8E828F83A3E0641A70078E828F84
:1045A30083A3E4F09018CC1212AF12259F75080173
:1045B3007808120FCA8E828F83A3E0F50878081259
:1045C3000FCA790090165212628090164812430661
:1045D300120FF41225FF025C6EC082C083E99016AD
:1045E300B27003E4800274018004EAF0A3EBF002EA
:1045F30058FE1265791220D72274F6120B12901608
:10460300B2E0701B7C0079017A007B0012262FEA4E
:104613004B600C8A828B8312670560031225930219
:104623005C6EC082C083124ABC401079FF122629F7
:10463300E9F89032F3E493C3985004790180027946
:10464300000258FE74F2120B128A0A8B0B8909C2FC
:10465300008A828B83A3A3A3A3A3A3A3A3E0F9123A
:1046630026358A0C8B0DAE0CAF0D750801EA4F6031
:1046730003024728850A82850B8312627A850A82A0
:10468300850B83A3A3A3A3A3A3A312486712261D89
:104693008A0C8B0DAE0CAF0DEA4F70030248348ABF
:1046A300828B83A3A3A3A3E4F0A3F0E50A240CFA6B
:1046B300E4350BFB8A82F583E0C0E012483BD0E08F
:1046C300F0E50A240D12485B240D1261A012271392
:1046D300124F611266C1E50A241112485B241112BC
:1046E30061A0E50A2413126891C0E0124F53D0E091
:1046F300F0D200EE2406F8E43FF912484E1248893E
:104703005404600302479A9018DEE0F50A750B0023
:104713007407780A1211828E828F83A3A3A3A3A3A3
:10472300A3124845F08E828F83A3A3A3A3A3A3E080
:10473300F50AA3E0F50B7407780A121275E50A541B
:1047430007FCE50960618E828F83A3A3A3A3A3A3C0
:10475300A3A3A37402124DB4124B51600B901640E5
:104763001254E7A3A31261A6EC700302480BEE24D4
:1047730006F8E43FF9E8FAE912484EF0EC24FFF5B5
:104783000AE434FFF50B7407780A1211828A8289CE
:1047930083124845F080718E828F83A3A3A3A3A3C2
:1047A300A3E04480024727EC700575080080598E0A
:1047B300828F83A3A3A3A3A3A3E05420600C1219A5
:1047C30015EA547F7900245F80198E828F83A3A317
:1047D300A3A3A3A3E05410601A121915EA540F7986
:1047E30000240A5001098E828F83A3A3A3A3F0A3FD
:1047F300E9800D8E828F83A3A3A3A37401F0A3E4A6
:104803001248927404124AD2A20050288E828F83D7
:10481300A3A3A3A312657FF9EEFAEFFB122623E904
:1048230060121266FE6003124874EEFAEFFB12196F
:10483300D5750800A9088067EE240CF582E43FF5DE
:104843008322E0450AF0A3E0450B228882F583E04A
:10485300547FF0A3E054FC22F582E4350BF5831278
:10486300686AEE22A3E0F9850A82850B83126579D3
:104873002212487B124CD122EE240FF582E43FF53D
:104883008322A3A3A3A312488D221268ADE02212B0
:10489300489622124DAAA3A3A3227403120FF47FF6
:1048A30006020D2974F4120B1274F712108C7E0099
:1048B300122635EA4B700302495A8A828B83A3A3DB
:1048C300A3A3A3A3A3A3A3E06406600302495A8A94
:1048D300828B83A3A3A3A3A3A3A3E0FF8A828B83D7
:1048E300126E8CE0C0E074081212EAD0E0124C821F
:1048F3001261931261A6122647EF54086057851878
:10490300828519831262807A007B00122617EA4B94
:104913007043126EF57C007D007A007B0080228E4E
:10492300828F8312578CF47003A3E0F460279016F0
:104933005212495F124C64601C7C007D00EEFAEF5A
:10494300FB1226178A0A8B0BAE0AAF0BEE4F70CF02
:1049530079001220EF7E01EEF9023B4012496322F7
:10496300E0FCA3E0FD8E828F8322C082C0838A8213
:104973008B83E582458370099016B780068A828B04
:1049830083A3A3124B8560208A828B83A3A3A3A353
:10499300A3A3A3E0540860E5EC4D6010124B8B70A9
:1049A30003A3E06D70D780047A007B000258FE7485
:1049B300F2120B128A088B09890AECFEEDFF7A14B6
:1049C3007B001219CFEA4B60378A828B83A3A3A3A0
:1049D300A3A3A3A3A3A3E4124A23E50A124C6EEEF6
:1049E300F0A3EF124A13124C89124A1A8A828B835C
:1049F300126F0D124A061265FCA3124A0DF0A3F0C2
:104A03000248A2EA240FF582E422126EC8A3A3226D
:104A1300124C74E4F0A322A3F0126E851265FC22FB
:104A2300124A2722124C78A3A3A3A32274F5120BD4
:104A330012EAFEEBFF890A8C088D09EA4F60757450
:104A4300016970127901122629E9F89032F5E4938D
:104A5300C3985015800A7404697009124ABC50093E
:104A630079118052740269704B8E828F83A3A3A342
:104A7300A3A3A3A3A3A3E50A124ACB1251A11267CE
:104A830086A3E4F0A3F09016B712670560188003BD
:104A930012686688828983A3A3124B8588828983DF
:104AA300A3A370EC80039016B7EEF0A3EF124AD2E3
:104AB3007900800279C1024DBD7904122629E9F8F3
:104AC3009032F4E493C3982212678AA3A3A322F03B
:104AD3007A207B0090169FE0F912195D22C082C0F4
:104AE30083E9F879009016B7801D8A828B83A3A38C
:104AF300A3A3A3A3A3A3A3E068600574FF68700145
:104B0300098A828B83A3A3124B8570DE0258FE743D
:104B1300F7120B12EA4B70059016B780068A828B48
:104B230083A3A3124B85601F8A828B83A3A3A3A3B2
:104B3300A3A3A3A3A3E06970E4EC600F8A828B8331
:104B4300124B5170D880047A007B00024C5F126EC6
:104B5300A5E0540422C082C0839016B780068A82DF
:104B63008B83A3A3124B8560128A828B83A3A3A397
:104B7300A3A3A3A3A3E06970E580047A007B0002EA
:104B830058FE126579EA4B228A828B831257906C06
:104B93002274F2120B128A0A8B0B8C0C8D0D750882
:104BA30000750900EA4B602A9016B780068E828F43
:104BB30083A3A3124BDC601AAC0CAD0DEEFAEFFB32
:104BC300850A82850B83120C8AE9640170DF8E08E3
:104BD3008F09AA08AB090248A2E0FEA3E0FFEE4F4B
:104BE3002274F7120B129016B71268667C007D00D0
:104BF300800DE8FCE9FD88828983A3A3126866E837
:104C0300496030EA687002EB6970E79016B7126585
:104C130075E86A7002E96B88828983A3A37008121E
:104C230068669016B780091268668C828D83A3A389
:104C33001261A6802774F7120B12EAFEEBFFEA4F0C
:104C43006015122641124CBD1266FE6003124874B1
:104C5300EEFAEFFB1219D58003120FF47F01020D58
:104C6300291265791220E3E9641A22124C74A3A372
:104C730022124C7822F08A828B83A3A3A3A322124D
:104C83006EC812579022124A27A32274F6120B12EF
:104C93009016B7126882801412689F124CBD124896
:104CA30074EEFAEFFB1219D5AE08AF09EE4F70E8B8
:104CB3009016B7E4F0A3F0025C6E8E828F83126EBF
:104CC30079F583124CD18E828F83124CD122E0FA74
:104CD300A3E0FB1219D522C082C083EAFCEBFDEAF4
:104CE3004D6017EA24FBF582EB34FF12670370076C
:104CF300124D2FE0F460071219217905802B9016CD
:104D03009FE0C0E0124D2FD0E0F09032ECE493F935
:104D13007AB97B16121957E96401700B7A007B206C
:104D2300124D3E7900800279040258FEEA24FFF511
:104D330082EB34FFF583227A207B0090169FE0F903
:104D430012195D2274F4120B12A2AFE433F508C2F8
:104D5300AF9016B9124BDC6038EE24FBF582EF34CA
:104D6300FF1267037A007B2090169F6005124D4166
:104D73008005E0F9121963E4F50AF50B780A120FBE
:104D8300C6EEFCEFFD7AB97B161219517402120FAD
:104D9300F4E508A2E092AFEEFAEFFB023B45124DB9
:104DA300A6E022124DAA22124DB4A3A3A3A3A3A348
:104DB30022F08E828F8322120FF47F03020D297457
:104DC300F2120B1274FA12108CEAFEEBFF7508FE56
:104DD3007509FF122605E960057911024F44125443
:104DE30064603C9018F9E0C43354E0F8E033335482
:104DF300FC48C0E0EE125E733FF583D0E01268C159
:104E0300FAA3E0FB79FF1223BFEA4B60127508FF98
:104E1300EE240F1254674404F0125464D2E0F08E6F
:104E2300828F83124F7D6006EE24121268D9EE241E
:104E330013125467700D9032E9E493C0E0124F539C
:104E4300D0E0F08E828F83E0A2E7500454038019F0
:104E5300EE24141254677012901631E0C0E0124F22
:104E630049D0E0F0901631E004F0EE2411125467BB
:104E7300640170169018E2E0600D90163CE0700A31
:104E83008E828F83E070031268D68E828F83E064F4
:104E9300017013EE240B12578664027009EE240F7F
:104EA3001254674440F0AC18AD19EEFAEFFB12262A
:104EB300718A0A8B0B74FE6508700374FFF4700328
:104EC30012689FEA4B60768E828F83E0C0E07401A4
:104ED3001212EAD0E0F074041212EAEEF0A3EFF03B
:104EE300EE241E12686074021212EA1261A67401A3
:104EF30012105C880C890D780C120FC6EE24201258
:104F03004F66120FCA124F61120E2EEE240E124F6D
:104F130066120FCA901645120E2E74081212EAE09A
:104F2300F9AC08AD0912266B7408120FF4E9FE748C
:104F3300106E700BAA0AAB0B1219D580027E10EE0D
:104F4300F9740602489FEE2414F582E43FF58322A8
:104F5300EE124F58222413F582E43FF58322EE121A
:104F6300487C22F582E43FF583E0F50C780C228E31
:104F7300828F83A3A3A3A3A3A3A3A3A3124F8322D9
:104F8300E0FAA3E0FB12270DE922C082C08374D7A5
:104F930012108C908EB1740312106C7426120F22AF
:104FA3008A828B83A3A3A3A3126866740E1212EAE8
:104FB30012670B126866740C1212EA125086240DE3
:104FC300125076C0E0741A1212EAD0E0F0126602B0
:104FD30012686474201212EA125086241512507655
:104FE300C0E074081212EAD0E0F0EA241CF582E46F
:104FF3003B12686474121212EA1250862411125082
:1050030076C0E074091212EAD0E0F0EA24121250DA
:1050130076C0E074071212EAD0E0F0EA241EF582AB
:10502300E43B12686474241212EA1250862420129C
:105033005076C0E074261212EAD0E012507E74FF5C
:10504300F074011212EA74FFF074021212EA74FF90
:10505300F09092AF120E2A740412106C740712109F
:10506300641222457404120FF479007429120FF4A8
:105073000258FEF582E43BF583E022F08518828531
:10508300198322E8F0A3E9F0EA2274F4120B1274F4
:10509300EC12108C8A0A8B0B8C088D09E9FF7E10A9
:1050A3007A217B001219CF851882851983EAF0A330
:1050B300EB126715E849700302519A7C217D007950
:1050C30000851882851983E0FA121903901652128B
:1050D30065758518828519831262842409F582E433
:1050E30038F5831266C174201212EA1268667411CD
:1050F3001212EAE81257F51266C738F583740212E2
:1051030057F8126E9374021257E21251A11257F814
:10511300126E70EFF074221212EA1257A3F9A3E091
:10512300C9126B6A39F583E81254B8A3E0C9241F86
:10513300F582E4391251A874231212EA12657574C8
:10514300061212EA1266C174081212EAE8F0742613
:105153001212EA12669BC082C083740C1212EAAC6C
:1051630082AD83D083D0827405120F22742512126C
:10517300EAE0C0E074131212EAD0E0F07900AA1852
:10518300AB1912260BE9640170047E0080098518AF
:1051930082851983124877EEF97414023B42E508BD
:1051A300F0A3E50922F583E50AF0A3E50BF02274E9
:1051B300F0120B1274FF12108CEAFEEBFF8C088DB9
:1051C300098A82F583A37408F0EA241612546760EF
:1051D300088A828B83A37410F0EA24171254676041
:1051E300098A828B83A3E02408F0EA1254656008DD
:1051F3008A828B83A3E004F08A828B83A3A3A3A375
:10520300A3A3E060198A828B83A3A3A3A3A3A3A36D
:10521300E0C3332402F88A828B83A3E028F0EA24D4
:105223001112546F6004740E8001E4F09018F1E0E1
:10523300640170168A828B83E06401600D9015BE51
:10524300E0600712544F7401800412544FE4125467
:10525300B88A828B83A3E0F8EA12370728298C8265
:105263008D83F0EA24111254676005125A9029F0D5
:10527300850882850983E0C394754009750C007520
:105283000D00025446E0FA7B001219CF8A0C8B0DF5
:10529300EA4B70030254468E828F83E0FA901642E3
:1052A3001254B174027808121182EA4508FAAB0964
:1052B300EE24121254AB74067808121182A808EA7D
:1052C30048FCEBFD1254646004780180027800EE20
:1052D3002416FAE43FFBE4C8F9ED49FDEE2411126C
:1052E3005467F508880974097808121182ED450995
:1052F300FD8A828B831254B1740B7808121182EDEC
:105303004509FDEE24171254AB740C780812118270
:10531300ED4509FD8E828F83A3A3A3A3A3A31254F8
:10532300B1740A7808121182ED4509FDEE242312A7
:1053330054AB740D7808121182ED4509F9EC850C14
:1053430082850D83F0E9A3F0EE240212548E1254E9
:10535300CDF0EE240412548EA3A31254CDA3A3F0D4
:10536300EE241312549EF0EE241412549EA3F075EF
:105373000B088A828B83E06015126777126280E5DF
:105383000C2408FAE4350DFB121AB9750B10EE2440
:10539300171254676019126303126280A80BE50C9D
:1053A30028FAE4350DFB121AB97408250BF50B8E98
:1053B300828F83A3A3A3A3A3A3E0604EEE2407F5E8
:1053C3000EE43FF50F850E82F583E0C0E012547DB5
:1053D300D0E01254BDE0C0E00812547FD0E0125474
:1053E300BDA31266F1120FC2850E82850F83E012F0
:1053F3005757A80BE50C28125459120FF4850E8247
:10540300850F83E0C333250BF50B1254646008C08A
:10541300E012547DD0E0F0125A4D1266F1120FC221
:10542300123706FC7D0074031212EA125486E0F868
:10543300E50C28F8E4350DF9E82AFAE43912545D4D
:10544300120FF4AA0CAB0D74010266DAEA2423F5F9
:1054530082E43FF58322FAE4350DFB1218F7740357
:1054630022EE2415F582E43FF583E022F582E43F42
:10547300F583E085188285198322A80BE50C281291
:10548300576A22E0FA8E828F83A322F8E43FF988D9
:1054930082F583E0850C82850D8322F582E43FF556
:1054A300831254D7A3A3A322F582E43FF583E0F547
:1054B3000875090022126EB6F922F0050B8E828F51
:1054C30083A3A3A3A3A3A3A3A322A3A31268ADA30C
:1054D3001254D722E0850C82850D83A3A3A32274E3
:1054E30003023B4212686A8E828F83A3A32274F065
:1054F300120B1274FD12108C1266BB74021212EAA4
:10550300E9F08C0C8D0D750B017C267D007900AACA
:105513000CAB0D12190374021212EAE0C394085083
:10552300030256E0125496F0AC0CAD0D851882853B
:10553300198312578CFA851882851983125DB2126A
:105543005A89E96003750B008518828519831266F1
:105553009B1257ADE0F9EA850C82850D83A3A3A3C3
:10556300A3A3A3A3A3A3F0A3E91257E2A3A31257F0
:10557300ADA3A3E0F9E50C12671AEA1257F512621C
:1055830070C0E0E50C2411126EEED0E01257F8243F
:1055930007F582E438F583E0C0E0126EEAD0E0124A
:1055A30066AE74081257D9A3E06026851882851960
:1055B30083E02408F8A3E03400F9E50C2413F58212
:1055C300E4350D1261A4850C82850D83A3E02408C4
:1055D300F0850C82850D83A3A3A3A3A3A3A3A3E0B8
:1055E300602A850C82850D83A385820E85830F1225
:1055F300579AF8A3E03400F9E50C125E73350D12E7
:1056030061A4850E82850F83E02408F012575EE4BF
:10561300F0125772E4F0A31266AEA3A3A3A3E06053
:10562300111257BE850C82850D83A3A3A3A3A312D6
:1056330057EAE50C12577FE070030256CC1257BEAF
:10564300FA12575EEA1257EAF8851882851983E041
:1056530028FBA3E034008B82F583E0F8E50C241AE1
:10566300126EEEE81257EAE8C39AE50C5056125749
:105673007AF89032EDE493C39850047E0C8006E5EB
:105683000C12577AFE850C82850D83125799F50803
:10569300A3E03400F509750A007808120FC2EE1270
:1056A30057577A187B0B12545E120FF41257727409
:1056B30018F0A3740BF0EEC333F8850E82850F83C5
:1056C300E028800412577FE4F0850C82850D83A3C4
:1056D300E0F8850C82850D83E0C39850047900803F
:1056E30070125799FAA3E03400FBE50C1268D0124C
:1056F3006EF11266C1850C82850D83E0C398C0E00C
:10570300E50C2417126EEED0E01257D9E06040E5A5
:105713000C2417FEE4350DFF8E82F583E024F2F0AE
:10572300E50C241DF8E4350DF98882F583E0240E99
:10573300FAA3E03400FB888289831266C190163D88
:10574300E0F9122563E9F88E828F83E0C398F0A90C
:105753000B0266D825E0FCE433FD22E50C12576406
:1057630022241912576A22F582E4350DF58322E5C6
:105773000C241B12576A22125764E0221266A812E5
:10578300576D22F582E43FF5831257902212686F1A
:10579300F5838882E022A312579E221257A3282260
:1057A300E0F8851882851983E022A3A3E0FA85181F
:1057B300828519831266A1A3A3A322850C82850D7A
:1057C30083A385820E85830F12579EFAA3E03400CC
:1057D3008A82F583E0221266B2A3A3A3A3A32212B3
:1057E30057FDF583888222F0850E82850F83E004BE
:1057F300F022F0A3E91257FDC822126EBAF8A3E013
:105803002274F4120B128A088B09EA1258ADA3A36F
:10581300F0EA1313543F1258A0A3F0EAC41313126F
:1058230058AD1258B77409780A121275125897A313
:10583300A3A3A3A3A3F0EB1258991258B6740A7842
:105843000A121275E50A5401C0E0EC1266A83DF590
:1058530083D0E01258BB740B780A12127512589752
:105863001258B4740C780A121275125897A312586E
:10587300B4740D780A121275E50A5401C0E0EC24E1
:1058830024F582E43DF583D0E0F0740E780812121B
:1058930075023B31E50A54018C828D83221258A68E
:1058A300A3A322540F8C828D832254038C828D8375
:1058B30022A3A3A3A3A3A3A3F08A0A8B0B22C082D0
:1058C300C08379008A828B83A3A3A3A3A3A3E090BD
:1058D300163C600EE0701F8A828B83A3A3E07016D0
:1058E3008012E06011126568901645E06A7003A3A8
:1058F300E06B600279018003126575D083D0820268
:105903000FA674F2120B128A0A8B0B890CECFEEDB4
:10591300FF8A828B83E0FA125A89850A82850B8378
:10592300A3A3125A7DE0F9EA8E828F83A3A3A3A3D4
:10593300A3A3A3A3A3125AA2125A7DA3A3E0F9120D
:105943005A4DEA125AA2A3A3E0C0E0EE2411F58255
:10595300E43FF583D0E0125AA9A3A3A3E0C0E0EE8D
:105963002412F582E43FF583D0E0126786740812AF
:105973004ACBA3A3A3E06017E50A2408F8E4350B98
:10598300F9124F53E8F0A3E9126786E02408F08E7A
:10599300828F83A3A3A3A3A3A3A3A3E060188E82F0
:1059A3008F83A3125A6CEE24151261A08508828599
:1059B3000983E02408F08E828F83A3A3A3A3A3E02B
:1059C30060248E828F83A3858208858309E0F8E5AE
:1059D3000A28F582E4350B125A61A3A3F0850882E5
:1059E300850983E004F0EEFAEFFB122683E9F50D57
:1059F30070498E828F83A3A3A3A3A3A3125A5BA38D
:105A03007014E0F8E50A28FAE4350BFB125A431246
:105A130066C1E50C801A125A6CE8240EF85001098D
:105A2300EE241D1261A0125A90F9E50CC39924F2D9
:105A3300C398C0E0EE1262FAD0E0F0A90D0248A2CA
:105A4300EE241DF582E43FF58322EE125A522224FE
:105A53000BF582E43FF58322E08E828F8322F58368
:105A6300E08E828F83A3A3A322858208858309E026
:105A7300F8E50A28F8E4350BF922E0FA850A82856D
:105A83000B83A3A3A3221268E212267D2290163D64
:105A9300E0F9122563E9F8850882850983E022F09D
:105AA300A3E9125AA922F0850A82850B83A3A3A333
:105AB300A322C082C0837AC57B1679E21220B97A09
:105AC300C57B160258FEC082C0839016450258FB60
:105AD300C082C0839016480258FBC082C083794AB3
:105AE3001220B90258FE74F6120B129016CDE0FE86
:105AF30004F0EEF9122635EA4B70F0EE60EDF90290
:105B03005C6E74F2120B12EAFEEBFF8C088D0989AE
:105B13000A122773740E1212EAE0F9740F1212EAD2
:105B2300E0F8EA4B7012E8701BA90AAC08AD09EE65
:105B3300FAEFFB1227918065E86017E970068A8205
