:020000040000FA
:060000000212610208601B
:03002B000210437D
:03004300020EDDCD
:030053000207950C
:100083000207F40100F0FF0700080000FFFF000073
:10009300050400000003000147726F757000FF0440
:1000A30000100020FD00020000F117000000000016
:1000B300005118000000000000CD170000000000F0
:1000C3000000000000D9170000000000000000003D
:1000D30000000006FFFF011E124261736564206F7A
:1000E3006E2054492043433235333001010401006B
:1000F300010006F086026B88ED1B00003B1C00002C
:1001030000000000000000000000000000000000EC
:1001130002040100010001DF8801E588ED1B0000F6
:10012300411C00000000000000000000000000006F
:100133000000000003040100010001DF8801E588DD
:10014300ED1B0000471C0000000000000000000041
:10015300000000000000000004040100010001DFB2
:100163008801E588ED1B00004D1C00000000000025
:100173000000000000000000000000000101030176
:10018300040000F314000000E8030000FFFF44151F
:100193000188130000E803000064006400B801A0B4
:1001A300BB0D00A0BB0D0002020207040101051EE6
:1001B30002051E020A0A010108080103B80B0280A6
:1001C3003E0102FEFFE8030A050001FFFF020A14D5
:1001D30001E0000020410200000005030101FF0FC0
:1001E30003000300030003000300030003000300F4
:1001F300030005000A00140028004F009E000000C1
:100203006D3000000000412F00000000FF000000DF
:10021300FF00121271601D121280700519191980E6
:100223001A121139701F12114DC37003E667331987
:10023300191940071818182208080874FFF618F649
:1002430018F618F62212114D601712130E70219230
:10025300F01213177019501720F014080808090931
:1002630009E7F61819E7F61819E7F61819E7F62259
:1002730012131760E6E869701F0808E62480F60881
:10028300E436F618547FB47F0CE654806007F6E436
:1002930018F618F622181822E9C6CC08C6CD08C6E7
:1002A300CE08C6CFC0E0E8C0E0EAC0E0EBC0E0099A
:1002B300E9F809E7FA09E7FBE6F918E6F8C3EC9869
:1002C300ED99EE9AEBC2E7F5F0EFC2E795F0500E29
:1002D300600CEBCFFBEACEFAE9CDF9E8CCF8EAA261
:1002E300E7D2E7FAEB33FB13F5F0EEA2E7D2E7FE32
:1002F300EF33FFC5F013A2E730E601B313C5F0C334
:10030300C0E0C0F07F00C39BFB605E9418600F40A9
:100313001D14601AD0E023F9D0E0F80203F68AF046
:10032300E9486003D2F0E4AFF0FAF9F8803BEB3030
:10033300E40D89F0EA6003D2F0E4AFF0F9CAF8EB18
:1003430030E30D88F0EF6002D2F0AFF0E4CAC9F8F1
:10035300EB54076014FBC3EA13FAE913F9E813F843
:10036300EF135002D2E0FFDBEDD0E0C0E030E7391D
:10037300C3E49FFFF5F0EC98FC42F0ED99FD42F0E9
:10038300EE9AFE42F0D0E0F9D0E0F8E5F0607AE9C9
:1003930023F9EE20E742D8028067C3EF33FFEC3343
:1003A300FCED33FDEE33FE80EAEC28FCED39FDEE87
:1003B3003AFED0E023F9D0E0F84002801BC3EE13ED
:1003C300FEED13FDEC13FCEF135002D2E0FF08B86F
:1003D30000067F7F74FF802EEF3350178CF020F0E0
:1003E3000260100CBC000C0DBD00080EBE0004081A
:1003F300E860DFE933E813FFEE2313FE4F4D4C8033
:1004030008E95480FFE4FEFDFCEE33EF33F470049F
:10041300FCFD7E80D0E0FBD0E0FAD0E0F8D0E0CF66
:10042300C618CEC618CDC618CCC6F92212127170E2
:100433000418181822121280700D74FFF61819F69A
:100443001819F61819F622E7548066F61213177076
:100453000F12130E70F014F608F608F608F680D1A2
:1004630012130E700CF608F608768008E6447F80B7
:10047300EC121150700C12113C60BFE65480F6E48C
:1004830080BB12113C700519191980A5E869700C1D
:10049300763F18768018F618F6E8F922E6CDC0E024
:1004A30018ECC0E0E633CD33CDD313F6E719FCE700
:1004B300191933CC33C3947F400ECD9D502408E6E5
:1004C3005480F6E418F6800FF4043D14501408E643
:1004D300447FF6187680E418F618F6D0E0FCD0E0F6
:1004E300FD22CCD313CCFD18E4C6CBC0E018E4C680
:1004F300CAC0E00808ED08C633E613F618E433C6AD
:1005030075F003C3CA97CA09CB97CB199C40047DE6
:1005130008802EBD00030205D816B6FF050606089F
:100523001618C3CA33CACB33CB33CA27CA09CB374E
:10053300CB193CC37D08803E187D0820E75CC63399
:10054300C6CA33CACB33CB33DDF1D5F0EB30E77B0F
:10055300CA97CA09CB974ACB199C406F4B7025E6C3
:1005630020E0218066187D08C3CA97CA09CB97CBC0
:10057300199CD3C633C6CA33CACB33CB3350C9DD78
:10058300E7D5F0E1D3E4C636C608C636C608C63694
:10059300C608C636C61818188031C3CA97CA09CB0D
:1005A30097CB199CB34097C633C6CA33CACB33CB58
:1005B30033DD34D5F02EC6A2E0C640C8CA27CA0927
:1005C300CB37194A70BECB3CB480B90808E6330870
:1005D300E633601F181818D0E0FAD0E0FBD0E0FC37
:1005E300D0E0FD22187D08CA27CA09CB37CB193CB6
:1005F300D3808013F618E4B67F11F618B6FF0EF613
:1006030018C60470D20808768080CAF618F618F661
:1006130080C500121271604F1212806012E754807D
:1006230066F6121139701112130E703B090909F4A1
:10063300F618F618F618F62212114D701512131744
:1006430008080860EAE6447FF618768018E4F6188E
:10065300F622121317601612130E7012E4F608F640
:1006630008F608E65480F609090918181822EAC0A2
:10067300E0EBC0E0ECC0E0EDC0E0E687F0A4FBAC4B
:10068300F008E687F0A42CFCE435F0FA1809E687B5
:10069300F0A42C4B60027401CA35F0FCE433FB096F
:1006A300E687F0D2F7A42CCB35F0FC1908E687F0E7
:1006B300A42BCC35F0FBE433FD0819E687F0D2E731
:1006C300A42C4ACB35F0CD3400FC09E687F0D2E701
:1006D300A42DCC35F0FDE433FA0918E687F0D2F700
:1006E300A42CCD35F0CA3400FC08E687F0D2E7D25B
:1006F300F7A42ACC35F07A7E20E70B0ACB33CBCD97
:1007030033CDCC33CC33CB3350147004ED30E00E07
:10071300D2F1E4CD3DCDCC3CCC3B5005DA05C2F162
:10072300EB547FC63308E63392F0FBE73309E73334
:10073300C39A502D2B70190C0D4C4D70151806E6ED
:1007430008C333700D20F10AA2F013F6E418800BEE
:100753004024E4F630F002768018F618F618F68096
:1007630024D33B14501074FFA2F013F6187680E4E0
:1007730018F618F6800FA2F013F618E63303F618EE
:10078300ECF618EDF6D0E0FDD0E0FCD0E0FBD0E0D5
:10079300FA22C0E074F1120B7EA2AFE433F509D262
:1007A300AF85A708AFA1EF5508FE74105E6006126F
:1007B300155D75A1EF74085E600812156375A1F7E6
:1007C3008024EFA2E092F0E508A2E082F0501790B7
:1007D3006198E0F89006BBE0C398A2D265D033508D
:1007E30002E8F075A1FEE509A2E092AF7F02020BD9
:1007F300DDC0E074F2120B7EA2AFE433FED2AF9001
:1008030061A4E0F8759B00E5915854086008759160
:10081300F71215B18023E59158541060087591EFD4
:100823001215B78014E591A2E092F0E8A2E082F0FD
:100833005007E0C2E0F01217019061A3E0F8E5E988
:10084300585404600E1216D775E9FB906193E0A229
:10085300E640F2EEA2E092AF7F01020BDDC0E0744E
:10086300F2120B7EA2AFE433FED2AF9061A5E0F8A3
:10087300E5BF585404600675BFFB12171980D4C333
:10088300E498F8E499F91208C38026C3E49AFAE4D9
:100893009BFBE920E7E91208C3E498F8E499F922FD
:1008A300C3E498F8E499F91208C3E498F8E499F9D1
:1008B300C3E49AFAE49BFB22EB20E7CFE920E7E0CD
:1008C300B90010BB0008E88AF084F8AAF022E4FB20
:1008D300C8FA22EB70227B10C833C8C933C933501E
:1008E30007C39AC3DBF280069A50012ADBEAC833B6
:1008F300F4C8C933F4C9FA2275F008E4C833C8C987
:1009030033C933C99AC99B5004C92AC93BD5F0ECF2
:10091300FBC833F4C8E4C9FA2212095C20F014308E
:10092300E72B74FFFCFBFA747F8022E4FCFBFA7470
:1009330080801AB48008BC00F2BB00EF800F50EB3C
:10094300F9E4C39AFAE49BFBE49CFCE499C6CC1853
:10095300C6CB18C6CA18C6F922E4C9C608CAC6084F
:10096300CBC6D3330308CCC63392F0C3947F402E57
:1009730094184019C9B90704CACBCC225025C3091E
:10098300CA33CACB33CBCC33CC33D9F422F4600D86
:10099300C9CCC313CB13CBCA13CAD9F6CC22E4FCFC
:1009A300FBFA2214FCFBFA22080808EAC0E0EBC0B9
:1009B300E086F0E7A4FA180986F0E7A42AFA1809F2
:1009C30086F0E7A42AFA180986F0E7A42AFA19861A
:1009D300F0E7A4FBE5F02AFA190886F0E7A42BFB5D
:1009E300E5F03AFA190886F0E7A42BFBE5F03AFAAA
:1009F30018180986F0E7A4C5F02BFBE43AFA1908A6
:100A0300E7C5F0C6A426F6E5F03BFBE43AFA188600
:100A1300F0E7A4F6E5F00826F6E43B08F6E43A0826
:100A2300F6D0E0FBD0E0FA22080808E630E711121E
:100A33001111120A43080808C64480C61818182260
:100A4300181818E9799EC608CAC608CBC608CCC6CA
:100A5300C370207996CACBCC7019798ECBCC701326
:100A63007986CC700EF9802ACA33CACB33CBCC3308
:100A7300CC331930E7F2CCCBCA3350147004EA30CC
:100A8300E00DE4CA3ACACB3BCBCC3CCC500209C301
:100A9300E913C6CC182313C6CB18C6CA18C6F92245
:100AA300E4CFC0E0E4CEC0E0E4CDC0E0E4CCC0E0FD
:100AB30075F020E626F608E633F608E633F608E690
:100AC30033F6181818EC33FCED33FDEE33FEEF3339
:100AD300FFC3EC9709ED9709EE9709EF97191919D9
:100AE300400FFFEC97FC09ED97FD09EE97FE1919EE
:100AF30006D5F0BFECF709EDF709EEF709EFF719A3
:100B03001919D0E0FCD0E0FDD0E0FED0E0FF2225B3
:100B130018C582C0E0E51934FFC583C0E0E518C3FA
:100B2300958224F810AF088583198582188008857B
:100B33008319858218D2AFCEF0A3E520F0A37808FD
:100B4300E608F0A3DEFAEFF0A3E58124FAF8E6085D
:100B5300F0A3E608F0A3E608F0A30808E608F0A36C
:100B6300E608F0A315811581D0E0FED0E0F81581E9
:100B730015811581E8C0E0EEC0E022C0D02518C57C
:100B830082C0E0E51934FFC583C0E0E518C3958250
:100B930024F310AF0885831985821880088583198B
:100BA300858218D2AFC8F0A3E9F0A3EAF0A3EBF073
:100BB300A37908E709F0A3D8FAECF0A3EDF0A3EECC
:100BC300F0A3EFF0A3D0E0F0A3D0E0F0A3D0E0F0E7
:100BD300A3E520F0A3E5F0F0A3228519838518820D
:100BE300E0C0E0A3E0F9A3E0FAA3E0FBA37808E008
:100BF300F608A3DFFAE0FCA3E0FDA3E0FEA3E0FF19
:100C0300A3E0C0E0A3E0C0E0A3E0F5D0A3E0F520BB
:100C1300A3E0A3F5F010AF08858319858218800837
:100C2300858319858218D2AFD082D083D0E0F8D0E3
:100C3300E0321212F9B90003020C74E49004017853
:100C4300E379148002F0A3D8FCD9FA7AE37B1790F6
:100C53000086789079028015E493A3AD82AE838AEF
:100C6300828B83F0A3AA82AB838D828E83D8E9D94A
:100C7300E77582977583BC7405120FA0758213758F
:100C8300832C7400120FA0E47375F0108E1A8F1B5F
:100C930085821F85831E851882851983E0CEA3E094
:100CA300CF851F82851E83EBC9EAC8EDCBECCAC38F
:100CB300E833C8E933C9EA33CAEB33CBC3EA9EF559
:100CC3001DEB9FF51CB35004AB1CAA1DEC33CCEDFC
:100CD30033CDD5F0DAAE1AAF1B22D083D082ECC06D
:100CE300E0EDC0E0E493A3FCE493A3FDED4C600DC1
:100CF300120DB5EC24FFFCED34FFFD80EFE493A36C
:100D0300FCE493A3FDED4C600D120E88EC24FFFC74
:100D1300ED34FFFD80EFD0E0FDD0E0FCE493A3C011
:100D2300E0E493C0E022851983851882E0A3FEE006
:100D3300A3F5207808E0A3F608DFFAE0A3FFE0A319
:100D4300C0E0E0A3C0E0E0A3C0E0E0A3C0E0E0A314
:100D5300C0E010AF08858218858319800885821842
:100D6300858319D2AFD083D082020FA6D083D082DD
:100D7300E9C0E0E493A3C386F0C5F095F0F908E475
:100D830093A386F0C5F095F0700BE493A3C3994049
:100D930005E9048002A3E475F002A42582F582E547
:100DA300F03583F583D0E0F9E493A3C0E0E493C086
:100DB300E022C0E0C3E49396087401939618400FB1
:100DC300E49366700808740193661870007019A3A1
:100DD300A3C3E49396087401939618A3A3400DD07C
:100DE300E0D0E0D0E0020D19A3A3A3A3A3A3D0E016
:100DF30022C082C08374FE1210A6851882851983CF
:100E0300EAF0A3EBF07C017D00AA18AB197900127C
:100E130014E5851882851983E0FAA3E0FB740212B6
:100E23000FF4D083D082227404800474028000CC37
:100E3300C0E0EDC0E0E518C39CCCAD1950011D1016
:100E4300AF068C188D1980068C188D19D2AF120F2E
:100E530022D0E0FDD0E0FC2274028000CCC0E0EDA3
:100E6300C0E0E518C39CCCAD1950011D10AF068C32
:100E7300188D1980068C188D19D2AF120F00D0E08F
:100E8300FDD0E0FC22C0E0C0F088F0E49366700877
:100E93000874019366187000A8F0A3A3700BD0F038
:100EA300D0E0D0E0D0E0020D19A3A3D0F0D0E0222F
:100EB300D083D082CCC0E0E493A36006120F621407
:100EC30070FAE493A360061210BC1470FAD0E0FC2D
:100ED300E493A3C0E0E493C0E022C0E074F2120BF9
:100EE3007EA2AFE433FED2AFC2C0E5D1A2E4500389
:100EF3001214CDEEA2E092AF7F01020BDDCAC0E077
:100F0300E493A3C582CCC582C583CDC583F0A3C5B5
:100F130082CCC582C583CDC583DAE5D0E0CA22CAB7
:100F2300C0E0E0A3C582CCC582C583CDC583F0A351
:100F3300C582CCC582C583CDC583DAE6D0E0CA229B
:100F43007009080808226016181818C6C333C608A3
:100F5300C633C608C633C608C633C6D5E0EA22C0C0
:100F6300E0E493A3D39C5010E493A3C39C400AD022
:100F7300E0D0E0D0E0020ED0A3A3A3D0E022C008CB
:100F8300C3E096F50808A3E096420808A3E096425A
:100F93000808A3E09645087001D3D00822C09FF546
:100FA3009FE473D09F22D083D082C09FE493C0E09C
:100FB300740193C0E0740293F59F222518F5821003
:100FC300AF08F518400C15198008F51840021519DB
:100FD300D2AF851983227404800A740380067402D5
:100FE30080027401C0E0F404120FBED0E01212BC00
:100FF3002200C0D0251810AF08F518500C05198031
:1010030008F51850020519D2AFD0D022BB0102E770
:1010130022C082C08389828A83BB0003E08002E40A
:1010230093D083D082226017080808C6A2E713C6AC
:1010330018C613C618C613C618C613C6D5E0E922C8
:10104300C0E0C0D0E8C0E0A8A8D2AFC2C7E8A2E71A
:1010530092AFD0E0F8D0D0D0E0326016080808C6CE
:10106300C313C618C613C618C613C618C613C6D5E7
:10107300E0EA22C3E0C696F608A3E0C696F608A304
:10108300E0C696F608A3E0C696F6222518F8E435DE
:1010930019F9222518FAE43519FB222518FCE43541
:1010A30019FD22251810AF08F518400C15198008F2
:1010B300F51840021519D2AF22C0E0E493A36C7077
:1010C30009D0E0D0E0D0E0020ED0A3A3D0E022E02C
:1010D30066701008A3E066700A08A3E0667004084F
:1010E300A3E06622E76670100809E766700A08093C
:1010F300E76670040809E76622C3E09608A3E09652
:1011030008A3E09608A3E096A2D265D0332218186C
:1011130018E4C396F608E496F608E496F608E4960F
:10112300F622C3E096F008A3E096F008A3E096F059
:1011330008A3E096F022181818E60846087009E696
:1011430026087005E633F4220822191919E709471E
:10115300097009E727097005E733F4220922C3E67A
:1011630097F60809E697F60809E697F60809E69759
:10117300F622C3E493960874019396087402939637
:10118300087403939622E627F60809E637F608095A
:10119300E637F60809E637F622700422600D18C612
:1011A300C333C608C633C6D5E0F41822E657F6089B
:1011B30009E657F60809E657F60809E657F622E066
:1011C30056F608A3E056F608A3E056F608A3E05641
:1011D300F622E026F608A3E036F608A3E036F60882
:1011E300A3E036F622E026F008A3E036F008A3E0F9
:1011F30036F008A3E036F022E647F60809E647F69C
:101203000809E647F60809E647F622E056F008A380
:10121300E056F008A3E056F008A3E056F022600D74
:1012230008C6A2E713C618C613C6D5E0F322C6F450
:10123300C608C6F4C608C6F4C608C6F4C622C3E781
:10124300960809E7960809E7960809E79622C3E096
:101253009608A3E09608A3E09608A3E0962275D02B
:101263000075813F75180175190400020C35E608F5
:101273004608C3134608336002E633F422E70947FE
:1012830009C3134709336002E733F422600C08C62D
:10129300C313C618C613C6D5E0F422E6F008A3E6C6
:1012A300F008A3E6F008A3E6F022E0F608A3E0F6D0
:1012B30008A3E0F608A3E0F622CAC0E0E6F0A3081C
:1012C300DAFAD0E0FA22E0FAA3E0FBA3E0FCA3E021
:1012D300FD22EAF0A3EBF0A3ECF0A3EDF022E0F89B
:1012E300A3E0F9A3E0FAA3E0FB22E8F0A3E9F0A36B
:1012F300EAF0A3EBF022E5C754F84401F5C77901FE
:10130300222518F582E43519F58322E727194719B1
:1013130047194722E62618461846184622C2AF75D3
:10132300D69F02000022120FA9047000120FA98099
:101333007000120FA9B37000120FA9E17000120F11
:10134300A9057300120FA9217300120FA966730078
:10135300120FA9EB7300120FA9377400120FA9C75C
:101363007400120FA9A07500120FA9F17500120FD6
:10137300A9567600120FA9C97600120FA90D77009E
:10138300120FA9657700120FA9877700120FA9170B
:101393007800120FA9A87800120FA9F47800120F91
:1013A300A9207900120FA9617900120FA9027B000D
:1013B300120FA9E47B00120FA9C07C00120FA9979A
:1013C300FF02120FA9B3FF02120FA928FF04120F85
:1013D300A939FF04120FA9D7FF04120FA9F1FF04C3
:1013E300120FA9F57F00120FA9B2B505120FA909B3
:1013F300B605120FA9C4B705120FA9EBB705120F53
:10140300A950D205120FA99ACE05120FA9AACE058B
:10141300120FA9BFCE05120FA908CF05120FA97786
:10142300C805120FA9FBC805120FA963C905120F3E
:10143300A9EF7F00120FA9E1FF01120FA9F3FF012A
:10144300120FA987D005120FA9A4D005120FA9B3B3
:10145300D005120FA9BCD005120FA904FC02120F6C
:10146300A912FC02120FA98BFC02120FA960FD0244
:10147300120FA932FF02120FA958D105120FA900AA
:101483008005120FA93C8005120FA9898005120F50
:10149300A92C8105120FA91A8305120FA9F7830539
:1014A300120FA9498405120FA96E8505120FA9DB36
:1014B3008505120FA9938605120FA9098705120F37
:1014C300A91D8805120FA9AD8905120FA9168A0552
:1014D300120FA9658A05120FA96E8A05120FA97D3D
:1014E3008A05120FA9938A05120FA9A68A05120F5E
:1014F300A9AF8A05120FA9C28A05120FA9EE8A05A0
:10150300120FA9858D05120FA9C58D05120FA9010B
:101513008E05120FA9158E05120FA92E8E05120F17
:10152300A91F8F05120FA9D18F05120FA9E58F05EA
:10153300120FA91BC205120FA93FC205120FA9580A
:10154300C205120FA996C205120FA9C6C205120F32
:10155300A9F3C205120FA959C305120FA95CC3054C
:10156300120FA966C305120FA973C305120FA90BA6
:10157300B305120FA92BB305120FA96AB305120FF6
:10158300A988B305120FA9A3B305120FA909B405BE
:10159300120FA915B405120FA972B405120FA98170
:1015A300B405120FA9A5B405120FA966B505120F4C
:1015B300A973B505120FA984B505120FA911CF059B
:1015C300120FA959CF05120FA985CF05120FA93004
:1015D3009505120FA98C9605120FA99A9605120F5D
:1015E300A9AD9605120FA9C29605120FA9D79605A4
:1015F300120FA9EA9605120FA9669705120FA9CB38
:101603009705120FA9619805120FA93A9905120FB0
:10161300A94A9905120FA9599905120FA95CCC057E
:10162300120FA980CC05120FA9A8CC05120FA9D0BF
:10163300CC05120FA99A7D00120FA9C17D00120FCC
:10164300A9DF7D00120FA94E7E00120FA938B00545
:10165300120FA951B005120FA95DB005120FA971A0
:10166300B005120FA98FB005120FA999B005120F7B
:10167300A9A3B005120FA9B6B005120FA93CB10575
:10168300120FA9B1B105120FA9E0B105120FA92ECE
:10169300B205120FA97DB205120FA998B205120F58
:1016A300A9A2B205120FA9B3B205120FA9F6B2058A
:1016B300120FA93CD005120FA95DE604120FA989E8
:1016C300E604120FA9A6E604120FA9B9E604120F45
:1016D300A9D4E604120FA92EE704120FA95CE704AC
:1016E300120FA96CEB04120FA9CAEC04120FA9FC88
:1016F300EC04120FA95FED04120FA9CBEE04120F35
:10170300A9F3EE04120FA908EF04120FA918EF04AE
:10171300120FA958EF04120FA99AEF04120FA9AAE6
:10172300EF04120FA9C5FE03120FA9DFFE03120F68
:10173300A907FF03120FA920FF03120FA944FF03F8
:10174300120FA962FF03120FA979FF03120FA9A7B2
:10175300FF03120FA9C2FF03120FA9D7D005120F5F
:10176300A937A605120FA947A605120FA94CA7056D
:10177300120FA97EA705120FA9AEA705120FA9D1B3
:10178300A705120FA9E8A705120FA922A805120F92
:10179300A987A805120FA9C9A805120FA910A905A1
:1017A300120FA93DA905120FA968A905120FA918BF
:1017B300C605120FA936C605120FA998C605120F42
:1017C300A932C705120FA96ACB05120FA95DC70578
:1017D300120FA9A5C705120FA993BE05120FA90AD7
:1017E300C005120FA9D3C405120FA9F8C505120F1E
:1017F300A9F7DB04120FA981DF04120FA97DE1040D
:10180300120FA9AFE204120FA988E304120FA9185B
:10181300E504120FA9E4E504120FA938E604120F38
:10182300A959C005120FA97AC005120FA9B4C105A1
:10183300120FA9DEC105120FA91DD105120FA92D83
:10184300D105120FA937D105120FA972A904120FDE
:10185300A975A904120FA951B104120FA9A3B204C7
:10186300120FA904B404120FA9DBB404120FA9B414
:10187300B504120FA99DB604120FA991B704120F54
:10188300A949B804120FA979B804120FA929BA04F7
:10189300120FA97DC305120FA98FC305120FA9A3A8
:1018A300C405120FA9A6C405120FA97CCA05120FFD
:1018B300A9B2CA05120FA9CACA05120FA90CCB05F2
:1018C300120FA91CCB05120FA960CB05120FA90A91
:1018D300F804120FA944F804120FA9ADF804120F6B
:1018E300A9CCF804120FA9E5F804120FA987F9048B
:1018F300120FA990F904120FA9E1F904120FA90A12
:10190300FA04120FA917FA04120FA988FA04120F86
:10191300A916FB04120FA964FB04120FA99AFB0476
:10192300120FA9FBFB04120FA924FC04120FA99B9D
:10193300FC04120FA9F7FC04120FA934FD04120FC3
:10194300A96BFD04120FA97DFD04120FA98FFD04DD
:10195300120FA9AEFD04120FA9B7FD04120FA9724D
:10196300FE04120FA9BEFE04120FA9FCFE04120FFF
:10197300A9DFCF05120FA9F98F05120FA939910518
:10198300120FA95C9105120FA96D9105120FA98C75
:101993009305120FA9AC9305120FA932B805120FC4
:1019A300A968B805120FA9B0B805120FA909BA059D
:1019B300120FA986EA03120FA9B7EB03120FA9F3BB
:1019C300EB03120FA9ADED03120FA9D7ED03120F0D
:1019D300A950F003120FA990F003120FA924F203E8
:1019E300120FA9C3F203120FA91BF303120FA9AE1F
:1019F300F303120FA9E8F303120FA92AF403120F3A
:101A0300A99DF503120FA91DF703120FA95AF90394
:101A1300120FA988F903120FA9B4F903120FA9BD74
:101A2300F903120FA91AFA03120FA9AAFA03120F44
:101A3300A9E6FD03120FA968FE03120FA93AD20506
:101A4300120FA932A205120FA948A205120FA9EC81
:101A5300A205120FA92BA305120FA948A305120F64
:101A6300A979A305120FA9C6A305120FA9FAA30505
:101A7300120FA935A405120FA92AA605120FA97CD6
:101A8300C905120FA9DBC905120FA919CA05120F3F
:101A9300A95ACA05120FA9EBEF04120FA9FDEF040F
:101AA300120FA90AF004120FA9D9F004120FA916F4
:101AB300F104120FA99DF404120FA998F604120F52
:101AC300A935AC02120FA941AC02120FA9A3AC02B3
:101AD300120FA9ADAC02120FA93AAD02120FA976EB
:101AE300AD02120FA939AE02120FA94CAE02120FAA
:101AF300A9BAAE02120FA922AF02120FA9B1AF0207
:101B0300120FA92FB002120FA9D4B102120FA98D7F
:101B1300B302120FA9D3B402120FA950B602120FC7
:101B2300A9F7B602120FA9C5BB02120FA9BCBC02CA
:101B3300120FA94BBD02120FA970BD02120FA90DFE
:101B4300BE02120FA92ABE02120FA94ABE02120F29
:101B5300A9BBBE02120FA9D8BE02120FA906BF026B
:101B6300120FA99EC002120FA9BFC002120FA965CE
:101B7300C102120FA9ADC102120FA91FC202120F97
:101B8300A9A2C202120FA907C302120FA964C302BA
:101B9300120FA903C402120FA977C402120FA9B32B
:101BA300C402120FA920C502120FA98AC602120F7E
:101BB300A90BC802120FA9BAC802120FA91CCB02A3
:101BC300120FA97ECB02120FA9ACCB02120FA9C42C
:101BD300CD02120FA954D002120FA957D102120F2E
:101BE300A95E9604120FA9859604120FA9BF960445
:101BF300120FA9C89604120FA9CB9604120FA92B92
:101C03009704120FA9809904120FA9FD9B04120FC8
:101C1300A9049D04120FA9279D04120FA94A9D042C
:101C2300120FA9779D04120FA9DF9D04120FA90BB0
:101C33009E04120FA95E9E04120FA95A9F04120F4D
:101C4300A9BF9F04120FA925A004120FA9A6A004DF
:101C5300120FA90CA104120FA9A1A104120FA9220A
:101C6300A204120FA97EA204120FA916A504120F33
:101C7300A9CDA604120FA947A804120FA9ECA80422
:101C8300120FA9008003120FA99F8003120FA91B33
:101C93008103120FA90A8203120FA9088303120FEB
:101CA300A9878303120FA9C98403120FA96A8503A5
:101CB300120FA92A8703120FA9318803120FA94E05
:101CC3008803120FA9798903120FA9B68A03120F89
:101CD300A9608B03120FA9CA8E03120FA9D2900316
:101CE300120FA95B9103120FA9B59103120FA90358
:101CF3009203120FA97E9203120FA9009303120FEE
:101D0300A93C9303120FA9E09903120FA93B9C036B
:101D1300120FA9179D03120FA9008004120FA932F5
:101D23008004120FA9AA8004120FA9B98104120F0B
:101D3300A9158204120FA98C8304120FA9A8830486
:101D4300120FA9FA8304120FA9388404120FA94BA6
:101D53008404120FA9A38404120FA9128504120F7D
:101D6300A9D48504120FA9428604120FA979860407
:101D7300120FA9B18604120FA9398804120FA918EA
:101D83008904120FA9668A04120FA9498B04120F42
:101D9300A9D58B04120FA9178C04120FA9368C0432
:101DA300120FA9818C04120FA9A18C04120FA93A56
:101DB3008D04120FA9BD8D04120FA9C88D04120F33
:101DC300A91D8E04120FA9788E04120FA9C58E04C3
:101DD300120FA9429104120FA9669204120FA9AC23
:101DE3009204120FA9A19304120FA9C99304120F0D
:101DF300A9CC9304120FA9D69304120FA9F293044A
:101E0300120FA97A9404120FA9B39404120FA9DF35
:101E13009404120FA9069504120FA92A9504120F10
:101E2300A99B9504120FA9AE9504120FA9C495049A
:101E3300120FA9E69504120FA9159604120FA934DF
:101E43009604120FA94C9604120FA91BCE05120F6C
:101E5300A927CE05120FA965CE05120FA9F27F009F
:101E6300120FA950B803120FA973B803120FA9C018
:101E7300B903120FA909BA03120FA967BA03120F04
:101E8300A9C1BA03120FA9C4BA03120FA915BB0340
:101E9300120FA98FBB03120FA912BC03120FA915AE
:101EA300BC03120FA99DBC03120FA9E0BC03120FC0
:101EB300A903C103120FA9B4C203120FA9C1B70327
:101EC300120FA93BC303120FA99FC603120FA92424
:101ED300C703120FA9E0C703120FA90EC903120FFC
:101EE300A93BCA03120FA925CB03120FA993CC0355
:101EF300120FA917CD03120FA909CE03120FA98F31
:101F0300D003120FA91CD203120FA9BCD203120FC4
:101F1300A928D303120FA943D303120FA9E4D303B0
:101F2300120FA92BD403120FA94ED503120FA99197
:101F3300D503120FA90DD603120FA9B1DB04120F9B
:101F4300A9C7D603120FA948D803120FA960D90352
:101F5300120FA9E3D903120FA9EBDB03120FA98F09
:101F6300DC03120FA92EDD03120FA98FDD03120F5D
:101F7300A9FEDD03120FA962DF03120FA94CE003D0
:101F8300120FA987E003120FA9A7E003120FA958A4
:101F9300E103120FA995E103120FA91EE203120F29
:101FA300A9A6E303120FA984E503120FA92AE703E5
:101FB300120FA9BDE703120FA927E803120FA933D4
:101FC300E903120FA9A6E401120FA909E501120FF3
:101FD300A951E501120FA98FE501120FA9EAE50145
:101FE300120FA947E601120FA982E601120FA904F5
:101FF300E701120FA95EE701120FA9D2E801120F40
:10200300A95CE901120FA9AFE901120FA9C9E901FE
:10201300120FA9E3E901120FA93DEA01120FA9C3A7
:10202300EC01120FA9E2EC01120FA9CDED01120F81
:10203300A907EF01120FA986EF01120FA9BDEF0146
:10204300120FA92CF001120FA9EDF001120FA9C66E
:10205300F201120FA9C7F301120FA938F501120FEC
:10206300A938F701120FA9B3F901120FA98DFB01CA
:10207300120FA94EFC01120FA9C6FC01120FA9DD14
:10208300FC01120FA9D7FD01120FA9CFFE01120FF8
:10209300A93EFF01120FA9C0A905120FA917AB058D
:1020A300120FA9D6AB05120FA93EAC05120FA9B2A8
:1020B300AC05120FA937AD05120FA952AD05120FCA
:1020C300A996AD05120FA9BCAD05120FA9E3AD0585
:1020D300120FA9FBAD05120FA99DAE05120FA9B2F0
:1020E300AE05120FA9D4AF05120FA9DDAF05120F6C
:1020F300A9E6AF05120FA9EFAF05120FA98A99053B
:10210300120FA98C9D05120FA9919D05120FA9937A
:102113009D05120FA920BD05120FA970BA05120F54
:10212300A98BCD05120FA9C7D105120FA988CF0519
:10213300120FA998CF05120FA9FA9D05120FA9F541
:10214300CC05120FA91FCD05120FA990D105120FAF
:10215300A9F3D105120FA91CD205120FA95FD5024D
:10216300120FA992D502120FA9FED502120FA99937
:10217300D602120FA936D702120FA97BD702120F6C
:10218300A99DD702120FA9B6D702120FA9DCD70255
:10219300120FA9FED702120FA93CD802120FA98071
:1021A300D802120FA9A2D802120FA904D902120F42
:1021B300A9CBD902120FA982DA02120FA9F4DA020B
:1021C300120FA9BFDB02120FA912DC02120FA978AA
:1021D300DC02120FA9B2DC02120FA904DD02120FF6
:1021E300A972DD02120FA9DDDD02120FA9E0DD02E3
:1021F300120FA961DE02120FA9F8DE02120FA9590C
:10220300DF02120FA949E002120FA968E002120FC0
:10221300A9CCE102120FA9D9E102120FA9E5E2024A
:10222300120FA9F2E202120FA9FBE202120FA9D3C5
:10223300E402120FA9EDE502120FA966E602120FDE
:10224300A9D8E602120FA9FAE602120FA98EE70235
:10225300120FA962E902120FA939ED02120FA94D5B
:10226300ED02120FA95DED02120FA967ED02120F25
:10227300A970ED02120FA979ED02120FA983ED02E5
:10228300120FA9B0ED02120FA9D9ED02120FA9E4A2
:10229300ED02120FA908EE02120FA92CEE02120F83
:1022A300A996EE02120FA9DCEE02120FA9F9EE02B3
:1022B300120FA976EF02120FA9ADEF02120FA9ECCC
:1022C300EF02120FA939F002120FA9BFF002120F89
:1022D300A98DF202120FA922F302120FA906F4022A
:1022E300120FA96DF602120FA9C6F602120FA9105A
:1022F300F702120FA96BF802120FA9A9F802120F25
:10230300A9FBF802120FA9B0F902120FA95FFA0292
:10231300120FA99CFA02120FA931FB02120FA99DF9
:10232300FB02120FA9EC8801120FA91E8901120FDB
:10233300A94C8901120FA9228B01120FA9028C014A
:10234300120FA95A8C01120FA9958D01120FA9E141
:102353008D01120FA90A9101120FA9FD9301120F0A
:10236300A94D9501120FA9E39501120FA9EF95014C
:10237300120FA9219601120FA9A49701120FA9B256
:102383009801120FA9DC9801120FA9439901120FAA
:10239300A99C9901120FA9029A01120FA9199C0174
:1023A300120FA9A89D01120FA9729E01120FA9B8BD
:1023B3009F01120FA908A201120FA9D8A401120F9D
:1023C300A9E5A401120FA96CA501120FA900A6018A
:1023D300120FA943A601120FA98CA601120FA9E09F
:1023E300A601120FA959A701120FA9C8A701120F1D
:1023F300A9E5A701120FA915A801120FA94AA8015F
:10240300120FA91AA901120FA9C3A901120FA949F1
:10241300AC01120FA969AD01120FA954AE01120F3D
:10242300A9D6AE01120FA90DB301120FA94AB30128
:10243300120FA9A2B301120FA9D5B301120FA93F1D
:10244300B401120FA975B401120FA900B501120F3F
:10245300A958B501120FA92FB601120FA9E8B601A9
:10246300120FA983B701120FA98BBA01120FA9A7E3
:10247300BB01120FA94ABF01120FA93EC001120FDF
:10248300A941C001120FA970C001120FA976C201A0
:10249300120FA94FC301120FA992C301120FA9E88A
:1024A300C401120FA927C501120FA9B9C501120F43
:1024B300A9EDC501120FA9B2C601120FA9CAC8011D
:1024C300120FA93BC901120FA97BC901120FA9B4AD
:1024D300C901120FA948CA01120FA9C6CB01120FD5
:1024E300A9EECC01120FA9B0CD01120FA9B7CF01EC
:1024F300120FA9CFCF01120FA9E3CF01120FA91B0E
:10250300D001120FA949D001120FA9C8D101120F8E
:10251300A9EDD201120FA951D301120FA903D401BE
:10252300120FA933D401120FA9FAD401120FA992E1
:10253300D501120FA9B8D701120FA9EDD701120FB8
:10254300A950D801120FA97FD901120FA927DA01C7
:10255300120FA958DA01120FA970DA01120FA9FF9D
:10256300DA01120FA9B3DD01120FA98BDF01120FDC
:10257300A9A7DF01120FA9C3DF01120FA991E0017F
:10258300120FA984E401120FA90D3300120FA93F02
:102593003300120FA92E3700120FA97A3700120F3A
:1025A300A9C03700120FA9623800120FA9BE380064
:1025B300120FA9033900120FA94A3A00120FA95E9C
:1025C3003B00120FA94D3F00120FA9D13F00120F7C
:1025D300A9DE4000120FA93A4100120FA92A4300B5
:1025E300120FA99F4300120FA9A94300120FA9B606
:1025F3004300120FA9E14300120FA9C84400120FB0
:10260300A9724500120FA9F04500120FA910460048
:10261300120FA9394600120FA95B4600120FA9BB7E
:102623004800120FA9814900120FA9C64900120FD1
:10263300A9434A00120FA9F44A00120FA9264B001E
:10264300120FA96C4B00120FA9A84B00120FA9F887
:102653004B00120FA94C4C00120FA9A24C00120FF1
:10266300A9EE4C00120FA95B4D00120FA9D64D0025
:10267300120FA9A14F00120FA9A15000120FA9C652
:102683005100120FA9055500120FA9185800120F77
:10269300A9D55800120FA9195900120FA9C95A0038
:1026A300120FA9DD5A00120FA9E75A00120FA9F160
:1026B3005A00120FA9FD5A00120FA9195B00120F3D
:1026C300A9C45B00120FA9035C00120FA90D5C00E3
:1026D300120FA9175C00120FA9875C00120FA9D271
:1026E3005C00120FA9E75D00120FA9435E00120FF1
:1026F300A9C45E00120FA9835F00120FA98C6000AA
:10270300120FA9C06100120FA9AE6200120FA9C671
:102713006200120FA9216300120FA93F6300120F79
:10272300A9876300120FA9AE6300120FA9496400C1
:10273300120FA90F6500120FA9A16500120FA91BA3
:102743006600120FA9356700120FA9E26700120F86
:10275300A90A6900120FA95A6900120FA9BE6900DC
:10276300120FA9206A00120FA94E6A00120FA97254
:102773006A00120FA9A76A00120FA9D86A00120FE4
:10278300A90B6B00120FA92B6B00120FA9936B00FF
:10279300120FA9876C00120FA9E26C00120FA90B8C
:1027A3006D00120FA9936D00120FA9166E00120F80
:1027B300A9416E00120FA9266F00120FA917BB04BF
:1027C300120FA94FBB04120FA970BB04120FA9B2B9
:1027D300BB04120FA914BC04120FA91EBC04120FD0
:1027E300A92EBC04120FA969BC04120FA949C00485
:1027F300120FA936C204120FA91CC404120FA9B3E5
:10280300C404120FA955C504120FA9248102120F83
:10281300A9A28102120FA9FE8102120FA949820205
:10282300120FA9648202120FA98F8202120FA9ACA0
:102833008202120FA9B88202120FA94F8402120F4B
:10284300A9688402120FA9ED8402120FA900850260
:10285300120FA91F8502120FA9C38502120FA944E3
:102863008702120FA9F78802120FA98D8902120F8E
:10287300A9908902120FA9008A02120FA91E8A02C7
:10288300120FA9B58A02120FA9FD8A02120FA9001D
:102893008B02120FA9C68B02120FA9338C02120FDF
:1028A300A9598C02120FA9E48C02120FA9028D02FE
:1028B300120FA9488D02120FA9FC8D02120FA9460F
:1028C3008E02120FA9758E02120FA9D28E02120F59
:1028D300A9078F02120FA9338F02120FA9418F028A
:1028E300120FA98E8F02120FA9FE8F02120FA94792
:1028F3009002120FA9939002120FA9BF9002120F18
:10290300A9CA9002120FA9E89002120FA9D391024B
:10291300120FA9DD9102120FA9189202120FA92812
:102923009202120FA9319202120FA9859202120F7D
:10293300A9999202120FA9C89302120FA9DD93025B
:10294300120FA96B9402120FA9B09402120FA93CA3
:102953009502120FA9479502120FA9899602120F29
:10296300A9A49602120FA9F09602120FA95F97026B
:10297300120FA9989702120FA9B29702120FA9F486
:102983009702120FA9C49A02120FA9719B02120F88
:10299300A9DE9B02120FA91E9E02120FA9369E02E8
:1029A300120FA9399E02120FA9459E02120FA959AF
:1029B3009E02120FA9619E02120FA9949E02120F8A
:1029C300A9969F02120FA91DA002120FA98DA002A2
:1029D300120FA90FA102120FA9D0A102120FA9EF82
:1029E300A102120FA990A202120FA9EDA202120FC7
:1029F300A9F0A202120FA964A302120FA9B3A402A1
:102A0300120FA9B9A502120FA944A602120FA95FBA
:102A1300A702120FA927A802120FA958A802120F82
:102A2300A97BA802120FA984A802120FA9B3A802B6
:102A3300120FA943A902120FA9F9A902120FA96E35
:102A4300AA02120FA915AB02120FA98AAB02120F29
:102A5300A9C1AB02120FA9FFAB02120FA976B703EC
:102A6300120FA90AB703120FA9A9B603120FA97F60
:102A7300B603120FA96BB603120FA961B603120FA7
:102A8300A9F4B503120FA925B403120FA9E3B303E5
:102A9300120FA9F1B203120FA97DDB04120FA926AD
:102AA300DB04120FA9C5B203120FA97CB203120FE4
:102AB300A9ADD904120FA9FFD804120FA9B9B10304
:102AC300120FA998AE03120FA95BAC03120FA9282A
:102AD300AC03120FA9CFAB03120FA962AB03120F02
:102AE300A921AB03120FA901AB03120FA93AAA0341
:102AF300120FA9D4A903120FA973A903120FA913C3
:102B0300A903120FA9EAA703120FA97EA703120FA5
:102B1300A9D6A603120FA9D1A603120FA9C5A6030E
:102B2300120FA900A303120FA9DAA203120FA978A7
:102B3300A203120FA962D804120FA958D804120FC6
:102B4300A9EDD704120FA9D9D704120FA929D704C5
:102B5300120FA92FD604120FA950D504120FA919C9
:102B6300A203120FA906A203120FA9FBA103120FBE
:102B7300A9CAA103120FA9A6D204120FA9E69F03A3
:102B8300120FA96D9F03120FA9049F03120FA977B8
:102B93009E03120FA9B8D104120FA9339E03120F7B
:102BA300A960D603120FA90C9E03120FA9F5D00436
:102BB300120FA9A0D004120FA973D004120FA940B9
:102BC300D004120FA918D004120FA9B9CF04120F01
:102BD300A999CF04120FA964CF04120FA928CC041A
:102BE300120FA9FDC904120FA9EDC704120FA96A98
:102BF300C704120FA91EC704120FA94AD104120F4A
:102C0300A9D2C604120FA92CC604120FA9EEC2033F
:102C130000000080FB870001002D1935000400F53A
:102C23001825000200F91826000200FB18270002ED
:102C330000FD182800010007192900010008198464
:102C4300000400CF1586000100F1172A00010009D6
:102C5300192B0001000A192C0001000F192D00087F
:102C630000DB152E00010010192F0001001119308F
:102C7300000100121931000100131932000100E3B1
:102C83001533000100E41534000100141936000166
:102C930000E515380001001519390001000E1983EC
:102CA3000002002B1963000100F115640001000B01
:102CB30019650001000C196D000100F2157100087F
:102CC30000D315660001002A19430001001B1944B3
:102CD3000002001C19450001001E19460002001FD6
:102CE3001947000800E9154800010021194B0001AC
:102CF300002219040001002E19A100010031193727
:102D03000001003019880001002F193C000100E682
:102D1300153D00010016194900020023196700013F
:102D230000F3154D00020025194E00010027194F2D
:102D330000020028193E0001001A1951000100E7A2
:102D4300155200010018195300010019195400010C
:102D530000E8150000000000000001363601010004
:102D6300010201000103010001040106060502003E
:102D730000070100340801000F090401010D0100DF
:102D8300FF0E08000017020000190100FF1A0100DE
:102D9300011B0100FE1C0100081D0200001F0100B1
:102DA3000120010001210200002301000F24020081
:102DB300002601000127010008280200FF2A010064
:102DC300072B0102402C0100002D0100012E010000
:102DD300012F0100FF30010B1D310800003A0100F3
:102DE300083B01000F3C0100013D0100FF3E0400D0
:102DF3000042040000460400004A0400004E0400A0
:102E03000052040000560400005A040000040003AA
:102E1300002001EA88000000002001E98800000189
:102E2300002001E988000002002001E98800000079
:102E33004042016D87000004004201C8850000057F
:102E4300004201B5860000060042016D87000007BD
:102E5300003001EB88000010004203381800001115
:102E630000300396140000120010034B18030000F7
:102E730000210397140000FDFF2101DB880300FDFF
:102E8300FF2101DB8806000000100199140600FDF4
:102E9300FF2181DB88020400002905A41402040138
:102EA300002901E388020402002901D9880204FDF4
:102EB300FF2101DB880A000000E203B51400202093
:102EC30020202020202020282828282820202020D7
:102ED3002020202020202020202020202020881097
:102EE30010101010101010101010101010100404F7
:102EF30004040404040404041010101010101041FE
:102F0300414141414101010101010101010101016E
:102F13000101010101010101011010101010104203
:102F2300424242424202020202020202020202023E
:102F33000202020202020202021010101020010318
:102F430071030103010301030103010322030203CC
:102F53000103100300030003000300030003000345
:102F630000034203000324030603000300030403D6
:102F7300120325032303250323030403040300038C
:102F8300000300034403000300032303000365035A
:102F9300210035038103000305030003000300033D
:102FA3000003250323030101710101010101110143
:102FB30001013101010101018001100161013B00A7
:102FC30014006301730172016201430100011301E3
:102FD30006013D0135000401120100010001000159
:102FE300000104010401330133013C0144013201B6
:102FF3003600000100016501000135008101000177
:1030030005018201830100010302710230016002A4
:103013001102700201020202020280021002610226
:103023003A00410063027302720262024302000229
:10303300130238000002000204021202000200021E
:103043000002000204020402370037003C0244027B
:10305300000239000002000265020002350281020B
:1030630000020502820283020002030071003001A4
:103073006000110070003102200350048000100032
:1030830061000000140063007300720062004300DB
:1030930000001300060000000000040012000000FE
:1030A30000000000000004000400370037003C0269
:1030B300440000000000000000006500000035002F
:1030C30081000000050000008300000036000100BD
:1030D300060000000F0000000000000000000000D8
:1030E300000003FFFF00000403FFFF0000FFFF0FCA
:1030F300F4010005C4040320000100000B000000DC
:10310300000000000003010F0000000000000000A9
:1031130000000000000000000000000000000000AC
:10312300000000000000000000009F1BC91BA51B3E
:10313300DF1AAB1BCF1BAB1BDB1BB11BDF1AAB1B9C
:10314300CF1BB71BDF1A00000000BD1BDF1A0000F6
:10315300000000000000C31BDF1A00000000000095
:10316300000000000000000000000000000000005C
:10317300000000000000000000000000000000004C
:103183000000000000000000411F0100411F020079
:10319300871E0280811E03008D1E0400931E04807F
:1031A300991E05009F1E0600AB1E3000C91E31008C
:1031B300C31E3300D51E3400DB1E1100E11E1400B4
:1031C300E71E15000D2CFFFF0000030003000400A1
:1031D300080010001F003E007B00F600EC01D7033F
:1031E300AF075D0FB91E713D000007ECFDFDFDEC5F
:1031F300DCDCCCBCACAC9C9C8C7C7C6C6C5C5C5C8C
:103203004C4C3C3C2C2C1C1C03EAF5E5D5D5C5B530
:10321300A59595858575756565555545453535255B
:10322300251515050A012602CB2505D72507D12526
:103233000CB3250DBF25FF000000160F00000B1572
:103243000B020002220F3300000E0FD0D1D2D3D4D1
:10325300D5D6D7D8D9DADBDCDDDEDF0600000010F7
:10326300019A140600FDFF2181DB885A69674265D4
:1032730065416C6C69616E6365303906000000104E
:10328300019C140600FDFF2181DB8806000000106D
:10329300019B140600FDFF2181DB883030171819CC
:1032A30021301B1D1F3000034D4C4651181A2505B4
:1032B300020001191618161618230300003C404299
:1032C3003A3F3F392F4730303016181920231A1C44
:1032D3001E300C0E020B040B0A0708000F02040237
:1032E300010101010902E803000000BE040A0E0007
:1032F30001000300E803FF04091E1E03040A0C0473
:10330300100828020C050815030474F7120B12E9C0
:103313009016C8F090167DE4F01218939016E0E42E
:10332300F0A3F09016C9F0A3F01227511218999048
:103333001601E4F0A3F01220E5024C7374F0120BB3
:103343001274D31210A61266CF548060669016C80A
:10335300E0F912190B8A088B09AF09EA4F604C7C1C
:103363000080010CEC75F003A4F8A9F0742728F58C
:1033730082743239F583E493F46029E493F88A8202
:103383008B83E06870DDEC75F003A4F8742828F5EE
:1033930082743239F583E493C0E0740193F583D0EA
:1033A30082120C8AAA08EFFB1218F9126E016480CC
:1033B30002370E851882851983A3E05420601F12FB
:1033C30026678A088B09AF09EA4F600A1225BFAA4C
:1033D30008EFFB1218F9126E01642002370E8518EC
:1033E30082851983E0A2E05042901682E0640F7058
:1033F3002E9009A2126E0C9009A2C3E094E9A3E0F7
:103403009403400A7A007B809014F3124D5579009F
:10341300122595E960099018F51212C91225AD8598
:103423001882851983E064010236F3542070030285
:1034330036F87A207B009016C8E0F9121A6DEA4B31
:103443004C4D701A9016DC1212E1E8494A4B700E8B
:10345300750801750900750A00750B00806D750C00
:1034630000750D00750E00750F00121A798A088B0E
:10347300098C0A8D0B9016DC1212E1E8494A4B6065
:10348300319016DC7808120F81400E750CFF750D14
:10349300FF750EFF750F7F801985080C85090D8C4C
:1034A3000E8D0F9016DC780C1210767401780C12C6
:1034B300105D850C08850D09850E0A850F0BE5083F
:1034C3004509450A450B70030236527C0079047A9C
:1034D300007B0012263D8A0C8B0DAE0CAF0D02351E
:1034E30096740212130474FFF0740312130474FF2E
:1034F300F0740412130474FF124DC8126589740723
:1035030012109E12683FE96401706A12371A4480F0
:10351300F8A3E0F97428121304E8F0A3E9126AD3BC
:10352300E0C0E0742A121304D0E0124DB5540860D1
:10353300167428121304A3E04401123727C0E07461
:103543002C121304D0E0F01267126011E8240B125E
:103553003F0DF87416121304E8F0A3E4F09088AB5F
:10356300120E2A740612109E740B12109612225316
:103573007404120FF48E828F83A3A3A3A3A3A3A324
:10358300A3A37406123727F912261F740512130416
:10359300126896EE4F70030236527C007904EEFAFD
:1035A300EFFB12263D7405121304EAF0A3EB124A53
:1035B300DFE0F50CA3E0F50DE4F50EF50F780879DF
:1035C3000C1212414023EE2404F8E43FF985080C61
:1035D30085090D8882F583C3E0950CF0A3E0950D72
:1035E300126EF6E84970A4800C8E828F83A3A3A386
:1035F300A3E4F0A3F08E828F83A3A3A3A3A3A3A327
:10360300A3A3A3E064018E828F83A3A3A3A3A3A395
:103613007020E0540460030234E48E828F83A3A3FA
:10362300A3A3A3A3A3A3A37406F07AB712384D02EE
:10363300358EA3A3A3A3E060030234E48E828F83B9
:10364300A3A3A3A3A3A3A3A3A37401F002358E1280
:10365300260D7C0079017A007B0012263DEA4B603F
:1036630003124D4E7C0079047A007B0012263DEA5A
:103673004B701380448A828B83A3A3A3A31268AEE7
:10368300EE98EF99400B8A828B83A3A3A3A31268BE
:10369300967C00790412263D8B0BA90BEA4970D561
:1036A300C3E5089EE5099F500DC3EE9508FEEF950F
:1036B30009FFEE4F700D124D4E9016DC123720A30A
:1036C300F08024EE2EFEEF338E08F509E4F50AF5BB
:1036D3000B7808120FD97A201238F6120FF4121A47
:1036E300799016DC1212D5851882851983E064203F
:1036F300FAA3E08016A3E054046013125F66122B52
:103703005F79011240D4126E016404FB80047A00D5
:103713007B00742D0266EEEE1266FCE022E4F0A359
:10372300F0A3F022124DBAA3A3E022C082C0837497
:10373300EA1210A67C167D007900AA18AB1912189C
:10374300DB74081213047402F09016711261A21252
:10375300376E74091213041261BA7413121304E45A
:10376300125E391220D97416025084E8F0A3E9F0EE
:1037730090167B12687E2274F7120B1274DA121001
:10378300A6EAFEEBFFEA4F602DAC18AD19122685B1
:103793007406121304E0601E7417121304E0FD7420
:1037A30001121304E0FCEEFAEFFB790012256BE93A
:1037B300600479A4800279007426024C7074F712B5
:1037C3000B12EAFEEBFF8A82F583A3A3A3A3A3A3B1
:1037D300E0544060178A828B831266AF124F936066
:1037E300067AFF7BFF80151266AB80039016711279
:1037F300658974FE6A700374FF6B60411266AB12D5
:1038030066D512271BE98E828F83600B1262981292
:103813006EC1E4F0A38003126EB0F07C9B7D258E15
:10382300828F83124609E9F5087015EE4F60097916
:1038330001EEFAEFFB122619A908024C737508CDA5
:10384300AA0812384DE960E380EE8E828F831262FC
:103853009C240CF582E438F583E0F91225A7227441
:10386300F6120B12E9FEEAFF7A0F7B001218F3EA55
:103873004B601A8A828B83740CF0EEA3A3F0EF8A59
:10388300828B83124A2E125E977900802BEEF912F7
:1038930026438B09A909EA49601C8A828B83A3A367
:1038A300A3A3A3A3A3A3A37406124A37E0F9122286
:1038B300F5EEF912261F7910025C8274F4120B12D2
:1038C3008A088B098C0A8D0B901682E0640F701E98
:1038D300EA4B4C4D601890167DE064086005E06487
:1038E30004700B7808120FD91238F4120FF4023B4C
:1038F300597A017B009016C8E0F9121A5B7404220E
:1039030074F4120B1274FC1210A6EAFEEBFF8A8207
:10391300F583A3A3E0F91226438A088B09EA4B70C7
:1039230003023A3C8E828F83A3A882A983E0C0E07E
:10393300EA125E8DD0E012489D64F160288E828F7A
:1039430083A3E064CD601E8E828F83A3E0641A603C
:10395300148E828F83A3E064E9600A8E828F83A32F
:10396300E064E170337900122619E9602BE508243D
:1039730004F50AE43509F50B850882850983A3A3B9
:10398300A3A3A3A312497312487B1218A5850A8225
:10399300850B831266D580708E828F83A3E0C0E08F
:1039A3007402121304D0E01250921251B512432341
:1039B300C0E07403121304D0E0F0E508126B7E122A
:1039C3003FCCE0AA18AB19700512224D80031227D1
:1039D300037402121304E064E9702D8508828509DB
:1039E30083124132750A01780A120FE5750AE978E4
:1039F3000A120FE512484F1242F0FCA3E0FD8A823F
:103A03008B8312431A120FF4850882850983A3A3BB
:103A1300A3A3A3A3A3A3A3E06402701285088285D2
:103A23000983A3A3A3A3A3A3A3A3A37406F08E82D2
:103A33008F83A3A3E0F912261F12260D9018FB1201
:103A43003F3E7404023B5674F4120B12EAFEEBFF82
:103A53007508008A82F583A3A3A3A3A3E060387546
:103A6300080812657C79FF1223CDEA4B60107508B4
:103A73002C8E828F83A3A3A3A3A3E0D2E0F08E8234
:103A83008F83A3A3A3A3A3E0540364016003023BB6
:103A930045430811023B45EA241812547B6036EA79
:103AA300241A12547B6003F4701312685E7003A32C
:103AB300E0696003023B45750822023B45EA241B8B
:103AC300123B49241A12547BFAEE241912547BF93F
:103AD3001222E3806D8A828B83A3A3A3A3A3A3A350
:103AE300A3A3123F2970037508018E828F83126886
:103AF300627003A3E0697006E508D2E1F508E50802
:103B030060158E828F83A3A3E07006E508D2E5805B
:103B130004E508D2E6F508124F8664017006E5084D
:103B2300D2E0F5088E828F83A3A3E06015EE241DF7
:103B330012579AF9122709E964016006E508C2E001
:103B4300F508A9088010F582E43FF583126F19EA9E
:103B5300227409120FF47F04020D2974F0120B1260
:103B630074D71210A6EAFEEBFF8A82F583A3A3A300
:103B7300A3E0600E9018F912671960069018F91205
:103B83003F3E740312109E8E828F83A3A3A3126001
:103B930065126587122685E97003023CEF7801748C
:103BA30005121304E0C39402400278007407121351
:103BB30004E0C3940240027800740C121304E0641E
:103BC300F87003A3E0F47003023CEF740C121304C7
:103BD300E064F97003A3E0F47003023CEF740C1289
:103BE3001304E064FA7003A3E0F47003023CEF747F
:103BF3000C121304E064FB7003A3E0F47003023CB3
:103C0300EF7406121304E0F990166BE06960030287
:103C13003CEFE8A2E04003023CEF7427121304E0F8
:103C23006003023CEFEE241312687474221213042F
:103C330012606F241C12687474101213041261BA98
:103C43007409121304E0601D741A121304E0FD7466
:103C530004121304E0FC8E828F83126587790112AC
:103C6300256BE9703B74031210961225B9E9F50C24
:103C73007409121304E0702C901665E06026742218
:103C8300596422601F7442596442701474201213E1
:103C930004123F23600E7420121304123F1C6004AD
:103CA3007ACF804AE9A2E6504D74201213041257CA
:103CB300A024FD600F14600C24FD600824FD600443
:103CC30024FE70287420121304123F15700E742002
:103CD300121304125DC6A3E0640D601A740312107C
:103CE30096122733E96401700D023F057AD37B00F6
:103CF300121E5D023F05EE242DF582E43FF583128B
:103D030041297003A3E069701D7508007808120F3C
:103D1300E57808120FE5EE242F12547BF9123F2F9A
:103D230012431A120FF47409121304E07003023DD4
:103D3300CD123F2F1265891227818A0E8B0FEA4B12
:103D43007003023E5E7404121304E0F88E828F83C4
:103D5300A3A3E028F8A3E03400F9E8240D123F0DF3
:103D6300F88A828B83A3A3A3E068600EE88A828B20
:103D730083A3A3A3124A271237217904E912130458
:103D830012549AA3E02AF8A3E034008882F583A3AF
:103D9300AA82AB831218E78A088B098C0A8D0B85DC
:103DA3000E82850F83A3A3A3A37808120F81400378
:103DB300023F0590886F78081211D5850E82850F12
:103DC30083A3A3126F1FA31251BE90167DE0640458
:103DD3006008E064096003023F05E50CA2E54003C7
:103DE300023E98EE242F125483F0EE243012547BBB
:103DF300C0E07401121304D0E0F0EE243112547BBE
:103E0300C0E07402121304D0E0F07414121304E03F
:103E130064017026740E121304124876241312548C
:103E23007B687003A3E0697011740C121304123FD2
:103E33002970077414121304E4F0EE2425F582E4C8
:103E43003FF583120E2A740412109E740712109603
:103E53001222537404120FF4023F059016C2E06459
:103E6300016003023DCD7420121304123F23700935
:103E7300E50CA2E65003023DCD7410121304E0F4E6
:103E83007003A3E0F4607BEEFCEFFD740312109665
:103E93001225C5806DA2E6506974201213041262C4
:103EA300A87016741A121304E06402705574031296
:103EB300109679001226FD80497420121304123FD4
:103EC3001C7014741A121304E06404703574031222
:103ED30010961226F1802B7420121304123F1570D2
:103EE3000C7900740312109612273F801574201268
:103EF3001304125DC6E0640C70087403121096126A
:103F0300274B74290266EEE82406F582E439F5832B
:103F1300E0221266B5E06403221266B5E06407226C
:103F23001257A4640622124F97640222EE242BF543
:103F330082E43F126F17EE124F6C22E0F508A3E004
:103F4300AA08FBE4FCFD1225AD2274F4120B12EA5D
:103F5300FEEBFF8C088D099015E3E0600F12685E9D
:103F63007003A3E06970051222D1805379001265B2
:103F73007C1223018A828B83E5824583602CA3A371
:103F8300A3A3A3A3E054186021E508241C123FC98E
:103F9300120E2E123FC5120E2EEE241812430112DA
:103FA3005A61126836120FF4801579008E828F835E
:103FB300A3A3A312628E125A611265891222D70239
:103FC3003B59E5082413F582E43509F5832274F798
:103FD300120B1274F71210A6EAFEEBFF90167DE0A7
:103FE3006403600DE064016008E06409600302405B
:103FF300CF8A828B83A3E0600302409D7C007D0017
:104003007A027B0012189F1268DB8A82126878900A
:10401300166E1261BA79531220C790167DE06409B7
:10402300600990167B12658912277B851882851992
:10403300837401125DDE90167D7404F07401121016
:1040430096794A1220C1740112109E7A737B16125C
:104053001A919014F6E0640B70057406F0800579EC
:10406300001240D490166E1262947A037B001218E9
:104073009F9016711262947A047B0012189F901617
:1040830068E0A2E35004D2F08002C2F0125DCB904C
:1040930018F51212C91225AD802FFC7D007A037B1F
:1040A3001012189F9014F6E0640B7003740AF090DA
:1040B30015E7E4F0FA7B40125BBB8E828F83A3E0AB
:1040C300F91240D490167DE4F01225EF7409024CE6
:1040D3007090167B12658D12226522C082C0839078
:1040E3001601126719701790167DE024FB60051402
:1040F3006007800A901607801F901609801AE84906
:104103006007123F0A6401700C8A828B83A3E0F973
:10411300122259800E9016F71267196006125DC7B6
:10412300120C8A02591212687E90167BE0682212E2
:10413300687EE8FAE9FB2274F5120B1274D81210A8
:10414300A68A088B098A828B83A3A3A3A3A3A3A311
:10415300A3E0C3940F50030242EB8A828B83A3A391
:10416300A3126896741512109E8A828B83A3A3A34D
:10417300A3A3A3A3A31242F0FAA3E0FB1225FB74AB
:1041830015121304E0702E850882850983A3A3A367
:10419300A3A3A3A3A3E0C3940B401A8E828F83A38C
:1041A300A3A3A3A3A3A3A3E064027009EE240B12A9
:1041B300547BF460030242EB7417121304E06007AC
:1041C300640260030242EB90167DE06402601CE02F
:1041D3006406601790160112671970030242EB120E
:1041E3003F0A640160030242EB80259016011267C7
:1041F30019701D7508007808120FE57808120FE58D
:10420300EE24101243018E828F8312431A120FF48D
:104213008E828F83126EEE1248A612687A7402128F
:10422300130412606F12371BC0E07404121304D01E
:10423300E0124323F508A3E0F509740F780812127E
:104243008F7405121304E508F07419121304E0C007
:10425300E07406121304D0E0F0741B121304E0C0E0
:10426300E07407121304D0E0F07416121304E0C0D4
:10427300E07409121304D0E0F07417121304E0C0C1
:10428300E07408121304D0E0F0EE241012547BC043
:10429300E0740A121304D0E0F0741A121304E0C09D
:1042A300E0740B121304D0E0F07427121304E0C07F
:1042B300E0740C121304D0E0F0741C121304A982EE
:1042C300AA8389088A09750A007808120FDD7C0819
:1042D3007D007410121304AA82AB83125472120F5E
:1042E300F4AA18AB1912225F7428024DCEE0F98AA2
:1042F300828B83A3A3A3A3A3A3A3A3A3E022F582F7
:10430300E43FF583E0F98E828F83A3A3A3A3A3A342
:10431300A3A3A3126F192212658D1226BB74022266
:10432300F0EE125A66E02274F2120B1274F81210B5
:10433300A68A0A8B0B8C0C8D0D8908908787AC1885
:10434300AD197408120F22C200AC0AAD0BAA18AB48
:104353001912650A7002D2009016C98013AC0AAD17
:104363000BEE240BFAE43FFB12650A701B124F5D40
:10437300124BF0601EA20040E48E828F83E0650C36
:104383007004A3E0650D70E58E828F83A3A3E065BF
:104393000870DAEEFAEFFB74080248B3C082C083F8
:1043A3009016C902590FC082C0839016C9E4F0A3C6
:1043B30002460574F7120B129016C9126E07800F8E
:1043C300EA2414F582E41268931219ADEEFAEFFBB6
:1043D300EA4B70EC9016C9E4F0A3F0024C7374F24C
:1043E300120B128A0C8B0DEDFF890B8A828B83E0F3
:1043F3008C828D83F0A3A882A9838A828B83124443
:10440300AA124A21E0C454F0FA88828983E04AF070
:10441300EC2402F8E43FF9850C828B83A3A31244B6
:10442300AA1244BDE0333354FC1244B1E0333333B6
:1044330054F81244B1A3E0A2E0E4331313FA8882E0
:104443008983E04AF0EC2403FE50010FE50C2407B6
:10445300F508E4350DF509750A007808120FDD7CBF
:10446300087D00EEFAEF125471120FF4EE2408FEE9
:1044730050010FE50C240FF508E4350DF509780814
:10448300120FDD7C037D00EEFAEF125471120FF46C
:10449300E50BC3940F400DE50C2412F582E4350DB2
:1044A300125A75F00248B6A3E08882898322FA88FB
:1044B300828983E04A1244BDA322F0850C828B8358
:1044C300A3A3A3A32274F2120B12EBFF8C0C8D0D8A
:1044D3008A82F583E08C828D83126ED8A3A882A989
:1044E30083E01258BA12489CC41258B4F0EA126E10
:1044F300E21258C112489AA2E2E4338C828D8312ED
:104503004899131313541F1258BAA3124899A2E7D8
:10451300E4338C828D83A3A3A3A3A3A3F0EA240390
:10452300FE50010FF5088F09750A007808120FDD98
:104533007C087D00E50C240712546D120FF4EE2461
:1045430008FE50010FF5088F097808120FDD7C0370
:104553007D00E50C240F12546D120FF48E828F83AD
:10456300A3A3A3E0C0E0126EFED0E0F00248B6744D
:10457300F6120B12EAFEEBFF8A82F583A38582080B
:10458300858309E0F912227D850882850983E06429
:10459300EB601E8E828F83A3E064E160148E828FB2
:1045A30083A3E064F1600A8E828F83A3E0641A70B0
:1045B300078E828F83A3E4F09018F51212C9122597
:1045C300AD7508017808120FE58E828F83A3E0F59D
:1045D300087808120FE5790090167B126294901602
:1045E3007112431A120FF412260D025C82C082C0AC
:1045F30083E99016DB7003E4800274018004EAF01F
:10460300A3EBF002591212658D1220DF2274F61209
:104613000B129016DBE0701B7C0079017A007B00A3
:1046230012263DEA4B600C8A828B83126719600362
:104633001225A1025C82C082C083124AD040107945
:10464300FF122637E9F8903307E493C398500479AF
:10465300018002790002591274F2120B128A0A8B3A
:104663000B8909C2008A828B83A3A3A3A3A3A3A359
:10467300A3E0F91226438A0C8B0DAE0CAF0D75081F
:1046830001EA4F600302473C850A82850B8312626D
:104693008E850A82850B83A3A3A3A3A3A3A3124896
:1046A3007B12262B8A0C8B0DAE0CAF0DEA4F7003D9
:1046B3000248488A828B83A3A3A3A3E4F0A3F0E573
:1046C3000A240CFAE4350BFB8A82F583E0C0E0127E
:1046D300484FD0E0F0E50A240D12486F240D126113
:1046E300B4122721124F751266D5E50A2411124818
:1046F3006F24111261B4E50A24131268A5C0E012F5
:104703004F67D0E0F0D200EE2406F8E43FF91248F8
:104713006212489D540460030247AE901907E0F506
:104723000A750B007407780A12119C8E828F83A37B
:10473300A3A3A3A3A3124859F08E828F83A3A3A399
:10474300A3A3A3E0F50AA3E0F50B7407780A1212FA
:104753008FE50A5407FCE50960618E828F83A3A36A
:10476300A3A3A3A3A3A3A37402124DC8124B656012
:104773000B9016691254FBA3A31261BAEC700302E7
:10478300481FEE2406F8E43FF9E8FAE9124862F01C
:10479300EC24FFF50AE434FFF50B7407780A1211D1
:1047A3009C8A828983124859F080718E828F83A3F9
:1047B300A3A3A3A3A3E0448002473BEC70057508C1
:1047C3000080598E828F83A3A3A3A3A3A3E05420C5
:1047D300600C1218EDEA547F7900245F80198E82F1
:1047E3008F83A3A3A3A3A3A3E05410601A1218ED0D
:1047F300EA540F7900240A5001098E828F83A3A300
:10480300A3A3F0A3E9800D8E828F83A3A3A3A37434
:1048130001F0A3E41248A67404124AE6A200502849
:104823008E828F83A3A3A3A3126593F9EEFAEFFB02
:10483300122631E960121267126003124888EEFAF9
:10484300EFFB1219AD750800A9088067EE240CF57B
:1048530082E43FF58322E0450AF0A3E0450B22887A
:1048630082F583E0547FF0A3E054FC22F582E43523
:104873000BF58312687EEE22A3E0F9850A82850B8D
:104883008312658D2212488F124CE522EE240FF518
:1048930082E43FF58322A3A3A3A31248A1221268B3
:1048A300C1E0221248AA22124DBEA3A3A32274037D
:1048B300120FF47F06020D2974F4120B1274F7120F
:1048C30010A67E00122643EA4B700302496E8A82C9
:1048D3008B83A3A3A3A3A3A3A3A3A3E0640660035F
:1048E30002496E8A828B83A3A3A3A3A3A3A3E0FF9E
:1048F3008A828B83126EA0E0C0E07408121304D086
:10490300E0124C961261A71261BA122655EF5408B1
:1049130060578518828519831262947A007B00128E
:104923002625EA4B7043126F097C007D007A007BD9
:104933000080228E828F831257A0F47003A3E0F4C9
:10494300602790167B124973124C78601C7C007DA3
:1049530000EEFAEFFB1226258A0A8B0BAE0AAF0B89
:10496300EE4F70CF79001220F77E01EEF9023B542F
:1049730012497722E0FCA3E0FD8E828F8322C0825E
:10498300C0838A828B83E582458370099016E08019
:10499300068A828B83A3A3124B9960208A828B831E
:1049A300A3A3A3A3A3A3A3E0540860E5EC4D601065
:1049B300124B9F7003A3E06D70D780047A007B00D5
:1049C30002591274F2120B128A088B09890AECFE3F
:1049D300EDFF7A147B001219A7EA4B60378A828BAA
:1049E30083A3A3A3A3A3A3A3A3A3E4124A37E50A20
:1049F300124C82EEF0A3EF124A27124C9D124A2E5C
:104A03008A828B83126F21124A1A126610A3124AEA
:104A130021F0A3F00248B6EA240FF582E422126ED5
:104A2300DCA3A322124C88E4F0A322A3F0126E9914
:104A330012661022124A3B22124C8CA3A3A3A32278
:104A430074F5120B12EAFEEBFF890A8C088D09EA52
:104A53004F607574016970127901122637E9F89075
:104A63003309E493C3985015800A740469700912DA
:104A73004AD0500979118052740269704B8E828F2B
:104A830083A3A3A3A3A3A3A3A3A3E50A124ADF12A9
:104A930051B512679AA3E4F0A3F09016E0126719D8
:104AA3006018800312687A88828983A3A3124B99C2
:104AB30088828983A3A370EC80039016E0EEF0A3B1
:104AC300EF124AE67900800279C1024DD1790412CE
:104AD3002637E9F8903308E493C3982212679EA31C
:104AE300A3A322F07A207B009016C8E0F9121935AF
:104AF30022C082C083E9F879009016E0801D8A8283
:104B03008B83A3A3A3A3A3A3A3A3A3E068600574B8
:104B1300FF687001098A828B83A3A3124B9970DE0D
:104B230002591274F7120B12EA4B70059016E080CB
:104B3300068A828B83A3A3124B99601F8A828B837D
:104B4300A3A3A3A3A3A3A3A3A3E06970E4EC600FAF
:104B53008A828B83124B6570D880047A007B0002B3
:104B63004C73126EB9E0540422C082C0839016E0E5
:104B730080068A828B83A3A3124B9960128A828B4D
:104B830083A3A3A3A3A3A3A3A3E06970E580047AEB
:104B9300007B0002591212658DEA4B228A828B83B5
:104BA3001257A46C2274F2120B128A0A8B0B8C0C10
:104BB3008D0D750800750900EA4B602A9016E08098
:104BC300068E828F83A3A3124BF0601AAC0CAD0D3B
:104BD300EEFAEFFB850A82850B83120C8AE96401E6
:104BE30070DF8E088F09AA08AB090248B6E0FEA35E
:104BF300E0FFEE4F2274F7120B129016E012687A60
:104C03007C007D00800DE8FCE9FD88828983A3A3F5
:104C130012687AE8496030EA687002EB6970E790DD
:104C230016E0126589E86A7002E96B88828983A3BA
:104C3300A3700812687A9016E0800912687A8C8251
:104C43008D83A3A31261BA802774F7120B12EAFEB5
:104C5300EBFFEA4F601512264F124CD11267126018
:104C630003124888EEFAEFFB1219AD8003120FF41A
:104C73007F01020D2912658D1220EBE9641A2212BD
:104C83004C88A3A322124C8C22F08A828B83A3A389
:104C9300A3A322126EDC1257A422124A3BA322744E
:104CA300F6120B129016E012689680141268B31273
:104CB3004CD1124888EEFAEFFB1219ADAE08AF09DA
:104CC300EE4F70E89016E0E4F0A3F0025C828E826F
:104CD3008F83126E8DF583124CE58E828F83124C77
:104CE300E522E0FAA3E0FB1219AD22C082C083EAF9
:104CF300FCEBFDEA4D6017EA24FBF582EB34FF126F
:104D030067177007124D43E0F460071218F979052D
:104D1300802B9016C8E0C0E0124D43D0E0F09033F2
:104D230000E493F97AE27B1612192FE96401700B00
:104D33007A007B20124D52790080027904025912C5
:104D4300EA24FFF582EB34FFF583227A207B00907F
:104D530016C8E0F91219352274F4120B12A2AFE44B
:104D630033F508C2AF9016E2124BF06038EE24FB25
:104D7300F582EF34FF1267177A007B209016C86024
:104D830005124D558005E0F912193BE4F50AF50BC0
:104D9300780A120FE1EEFCEFFD7AE27B1612192975
:104DA3007402120FF4E508A2E092AFEEFAEFFB02F1
:104DB3003B59124DBAE022124DBE22124DC8A3A395
:104DC300A3A3A3A322F08E828F8322120FF47F0367
:104DD300020D2974F2120B1274FA1210A6EAFEEBFA
:104DE300FF7508FE7509FF122613E96005791102A4
:104DF3004F58125478603C901922E0C43354E0F8C1
:104E0300E0333354FC48C0E0EE125E873FF583D0B5
:104E1300E01268D5FAA3E0FB79FF1223CDEA4B60D9
:104E2300127508FFEE240F12547B4404F0125478D9
:104E3300D2E0F08E828F83124F916006EE2412121D
:104E430068EDEE241312547B700D9032FDE493C091
:104E5300E0124F67D0E0F08E828F83E0A2E7500428
:104E630054038019EE241412547B701290165AE0E6
:104E7300C0E0124F5DD0E0F090165AE004F0EE244B
:104E83001112547B6401701690190BE0600D90169B
:104E930065E0700A8E828F83E070031268EA8E8267
:104EA3008F83E064017013EE240B12579A6402702F
:104EB30009EE240F12547B4440F0AC18AD19EEFAFE
:104EC300EFFB12267F8A0A8B0B74FE65087003744E
:104ED300FFF470031268B3EA4B60768E828F83E02F
:104EE300C0E07401121304D0E0F07404121304EE52
:104EF300F0A3EFF0EE241E1268747402121304126E
:104F030061BA740112108E880C890D780C120FE1AE
:104F1300EE2420124F7A120FE5124F75120E2EEE69
:104F2300240E124F7A120FE590166E120E2E74088D
:104F3300121304E0F9AC08AD091226797408120FB4
:104F4300F4E9FE74106E700BAA0AAB0B1219AD8054
:104F5300027E10EEF974060248B3EE2414F582E4DF
:104F63003FF58322EE124F6C222413F582E43FF5C2
:104F73008322EE12489022F582E43FF583E0F50C9C
:104F8300780C228E828F83A3A3A3A3A3A3A3A3A39B
:104F9300124F9722E0FAA3E0FB12271BE922C082FB
:104FA300C08374D71210A6908491740312109E7458
:104FB30026120F228A828B83A3A3A3A312687A7477
:104FC3000E12130412671F12687A740C1213041260
:104FD300509A240D12508AC0E0741A121304D0E0C0
:104FE300F0126616126878742012130412509A2471
:104FF3001512508AC0E07408121304D0E0F0EA24BA
:105003001CF582E43B126878741212130412509A4E
:10501300241112508AC0E07409121304D0E0F0EA9C
:10502300241212508AC0E07407121304D0E0F0EA8D
:10503300241EF582E43B1268787424121304125080
:105043009A242012508AC0E07426121304D0E0126E
:10505300509274FFF0740112130474FFF07402127F
:10506300130474FFF09088AB120E2A740412109E7E
:1050730074071210961222537404120FF4790074F9
:1050830029120FF4025912F582E43BF583E022F072
:1050930085188285198322E8F0A3E9F0EA2274F4E3
:1050A300120B1274EC1210A68A0A8B0B8C088D0952
:1050B300E9FF7E107A217B001219A78518828519D2
:1050C30083EAF0A3EB126729E84970030251AE7C2F
:1050D300217D007900851882851983E0FA1218DB97
:1050E30090167B126589851882851983126298242C
:1050F30009F582E438F5831266D57420121304127D
:10510300687A7411121304E81258091266DB38F531
:1051130083740212580C126EA774021257F61251BE
:10512300B512580C126E84EFF07422121304125746
:10513300B7F9A3E0C9126B7E39F583E81254CCA307
:10514300E0C9241FF582E4391251BC7423121304FD
:1051530012658974061213041266D57408121304B7
:10516300E8F074261213041266AFC082C083740C75
:10517300121304AC82AD83D083D0827405120F2244
:105183007425121304E0C0E07413121304D0E0F08A
:105193007900AA18AB19122619E9640170047E007C
:1051A300800985188285198312488BEEF9741402DD
:1051B3003B56E508F0A3E50922F583E50AF0A3E5EC
:1051C3000BF02274F0120B1274FF1210A6EAFEEB1E
:1051D300FF8C088D098A82F583A37408F0EA2416EC
:1051E30012547B60088A828B83A37410F0EA24171D
:1051F30012547B60098A828B83A3E02408F0EA12AD
:10520300547960088A828B83A3E004F08A828B83BB
:10521300A3A3A3A3A3A3E060198A828B83A3A3A35D
:10522300A3A3A3A3E0C3332402F88A828B83A3E05E
:1052330028F0EA24111254836004740E8001E4F010
:1052430090191AE0640170168A828B83E06401600E
:105253000D9015E7E0600712546374018004125443
:1052630063E41254CC8A828B83A3E0F8EA12371BDF
:1052730028298C828D83F0EA241112547B60051255
:105283005AA429F0850882850983E0C394754009EF
:10529300750C00750D0002545AE0FA7B001219A731
:1052A3008A0C8B0DEA4B700302545A8E828F83E073
:1052B300FA90166B1254C57402780812119CEA45D1
:1052C30008FAAB09EE24121254BF740678081211BF
:1052D3009CA808EA48FCEBFD12547860047801802E
:1052E300027800EE2416FAE43FFBE4C8F9ED49FD29
:1052F300EE241112547BF5088809740978081211F9
:105303009CED4509FD8A828B831254C5740B780882
:1053130012119CED4509FDEE24171254BF740C784D
:105323000812119CED4509FD8E828F83A3A3A3A3CD
:10533300A3A31254C5740A780812119CED4509FD04
:10534300EE24231254BF740D780812119CED450905
:10535300F9EC850C82850D83F0E9A3F0EE240212AB
:1053630054A21254E1F0EE24041254A2A3A3125443
:10537300E1A3A3F0EE24131254B2F0EE241412545A
:10538300B2A3F0750B088A828B83E0601512678BDA
:10539300126294E50C2408FAE4350DFB121A917598
:1053A3000B10EE241712547B6019126317126294C8
:1053B300A80BE50C28FAE4350DFB121A91740825A5
:1053C3000BF50B8E828F83A3A3A3A3A3A3E0604E4D
:1053D300EE2407F50EE43FF50F850E82F583E0C05A
:1053E300E0125491D0E01254D1E0C0E0081254937B
:1053F300D0E01254D1A3126705120FDD850E82850A
:105403000F83E012576BA80BE50C2812546D120F93
:10541300F4850E82850F83E0C333250BF50B1254FD
:10542300786008C0E0125491D0E0F0125A6112671C
:1054330005120FDD12371AFC7D00740312130412D8
:10544300549AE0F8E50C28F8E4350DF9E82AFAE473
:1054530039125471120FF4AA0CAB0D74010266EEEB
:10546300EA2423F582E43FF58322FAE4350DFB12A7
:1054730018CF740322EE2415F582E43FF583E0226E
:10548300F582E43FF583E085188285198322A80B12
:10549300E50C2812577E22E0FA8E828F83A322F82E
:1054A300E43FF98882F583E0850C82850D8322F53C
:1054B30082E43FF5831254EBA3A3A322F582E43FD6
:1054C300F583E0F50875090022126ECAF922F0058A
:1054D3000B8E828F83A3A3A3A3A3A3A3A322A3A31C
:1054E3001268C1A31254EB22E0850C82850D83A3BD
:1054F300A3A3227403023B5612687E8E828F83A37A
:10550300A32274F0120B1274FD1210A61266CF744C
:1055130002121304E9F08C0C8D0D750B017C267DB2
:10552300007900AA0CAB0D1218DB7402121304E00D
:10553300C3940850030256F41254AAF0AC0CAD0DF8
:105543008518828519831257A0FA851882851983D5
:10555300125DC6125A9DE96003750B00851882859A
:1055630019831266AF1257C1E0F9EA850C82850DE3
:1055730083A3A3A3A3A3A3A3A3A3F0A3E91257F60F
:10558300A3A31257C1A3A3E0F9E50C12672EEA12F5
:105593005809126284C0E0E50C2411126F02D0E0B6
:1055A30012580C2407F582E438F583E0C0E0126E4C
:1055B300FED0E01266C274081257EDA3E0602685A0
:1055C3001882851983E02408F8A3E03400F9E50C78
:1055D3002413F582E4350D1261B8850C82850D83A1
:1055E300A3E02408F0850C82850D83A3A3A3A3A3C2
:1055F300A3A3A3E0602A850C82850D83A385820E75
:1056030085830F1257AEF8A3E03400F9E50C125E60
:1056130087350D1261B8850E82850F83E02408F06B
:10562300125772E4F0125786E4F0A31266C2A3A3E2
:10563300A3A3E060111257D2850C82850D83A3A327
:10564300A3A3A31257FEE50C125793E0700302566F
:10565300E01257D2FA125772EA1257FEF8851882EF
:10566300851983E028FBA3E034008B82F583E0F8FF
:10567300E50C241A126F02E81257FEE8C39AE50CF0
:10568300505612578EF8903301E493C39850047E1A
:105693000C8006E50C12578EFE850C82850D831255
:1056A30057ADF508A3E03400F509750A0078081230
:1056B3000FDDEE12576B7A187B0B125472120FF434
:1056C3001257867418F0A3740BF0EEC333F8850EEB
:1056D30082850F83E0288004125793E4F0850C82BF
:1056E300850D83A3E0F8850C82850D83E0C3985074
:1056F30004790080701257ADFAA3E03400FBE50C87
:105703001268E4126F051266D5850C82850D83E05D
:10571300C398C0E0E50C2417126F02D0E01257EDD6
:10572300E06040E50C2417FEE4350DFF8E82F5831F
:10573300E024F2F0E50C241DF8E4350DF98882F538
:1057430083E0240EFAA3E03400FB88828983126687
:10575300D5901666E0F9122571E9F88E828F83E001
:10576300C398F0A90B0266EC25E0FCE433FD22E5C7
:105773000C12577822241912577E22F582E4350D34
:10578300F58322E50C241B12577E22125778E02260
:105793001266BC12578122F582E43FF5831257A4A7
:1057A30022126883F5838882E022A31257B2221261
:1057B30057B72822E0F8851882851983E022A3A32E
:1057C300E0FA8518828519831266B5A3A3A32285FF
:1057D3000C82850D83A385820E85830F1257B2FA3F
:1057E300A3E034008A82F583E0221266C6A3A3A352
:1057F300A3A322125811F583888222F0850E828595
:105803000F83E004F022F0A3E9125811C822126EAC
:10581300CEF8A3E02274F4120B128A088B09EA1261
:1058230058C1A3A3F0EA1313543F1258B4A3F0EAE8
:10583300C413131258C11258CB7409780A12128F69
:105843001258ABA3A3A3A3A3A3F0EB1258AD125812
:10585300CA740A780A12128FE50A5401C0E0EC12E6
:1058630066BC3DF583D0E01258CF740B780A121250
:105873008F1258AB1258C8740C780A12128F125830
:10588300ABA31258C8740D780A12128FE50A54019B
:10589300C0E0EC2424F582E43DF583D0E0F0740EFF
:1058A300780812128F023B45E50A54018C828D83DE
:1058B300221258BAA3A322540F8C828D832254033D
:1058C3008C828D8322A3A3A3A3A3A3A3F08A0A8B11
:1058D3000B22C082C08379008A828B83A3A3A3A3F4
:1058E300A3A3E0901665600EE0701F8A828B83A3EA
:1058F300A3E070168012E0601112657C90166EE0D2
:105903006A7003A3E06B600279018003126589D09A
:1059130083D082020FA674F2120B128A0A8B0B89B0
:105923000CECFEEDFF8A828B83E0FA125A9D850A06
:1059330082850B83A3A3125A91E0F9EA8E828F83A7
:10594300A3A3A3A3A3A3A3A3A3125AB6125A91A3D7
:10595300A3E0F9125A61EA125AB6A3A3E0C0E0EE3B
:105963002411F582E43FF583D0E0125ABDA3A3A32B
:10597300E0C0E0EE2412F582E43FF583D0E0126745
:105983009A7408124ADFA3A3A3E06017E50A240868
:10599300F8E4350BF9124F67E8F0A3E912679AE0D0
:1059A3002408F08E828F83A3A3A3A3A3A3A3A3E0BE
:1059B30060188E828F83A3125A80EE24151261B46D
:1059C300850882850983E02408F08E828F83A3A350
:1059D300A3A3A3E060248E828F83A385820885839B
:1059E30009E0F8E50A28F582E4350B125A75A3A3FA
:1059F300F0850882850983E004F0EEFAEFFB1226B6
:105A030091E9F50D70498E828F83A3A3A3A3A3A36A
:105A1300125A6FA37014E0F8E50A28FAE4350BFB79
:105A2300125A571266D5E50C801A125A80E8240ED2
:105A3300F8500109EE241D1261B4125AA4F9E50CC1
:105A4300C39924F2C398C0E0EE12630ED0E0F0A92C
:105A53000D0248B6EE241DF582E43FF58322EE12D3
:105A63005A6622240BF582E43FF58322E08E828F6F
:105A73008322F583E08E828F83A3A3A322858208EA
:105A8300858309E0F8E50A28F8E4350BF922E0FA02
:105A9300850A82850B83A3A3A3221268F612268BA1
:105AA30022901666E0F9122571E9F88508828509C6
:105AB30083E022F0A3E9125ABD22F0850A82850B06
:105AC30083A3A3A3A322C082C0837AEE7B1679E2C9
:105AD3001220C17AEE7B16025912C082C08390163F
:105AE3006E02590FC082C08390167102590FC08293
:105AF300C083794A1220C102591274F6120B129014
:105B030016F6E0FE04F0EEF9122643EA4B70F0EECF
:105B130060EDF9025C8274F2120B12EAFEEBFF8C69
:105B2300088D09890A122781740E121304E0F9748F
:105B33000F121304E0F8EA4B7012E8701BA90AACC9
