:020000040000FA
:060000000212610208601B
:03002B000210437D
:03004300020EDDCD
:030053000207950C
:100083000207F40100F0FF0700080000FFFF000073
:10009300050400000003000147726F757000FF0440
:1000A30000100020FD000200002D180000000000D9
:1000B300008D180000000000000918000000000077
:1000C3000000000000151800000000000000000000
:1000D30000000006FFFF1E124261736564206F6E0D
:1000E30020544920434332353330010104010001D8
:1000F30000050491016F92111C0000591C000000BF
:1001030000000000000000000000000000000002EA
:100113000401000100017792017992111C00005F34
:100123001C000000000000000000000000000000B0
:10013300000000030401000100017792017992118C
:100143001C0000651C00000000000000000000000F
:100153000000000000000004040100010001779288
:10016300017992111C00006B1C00000000000000CC
:10017300000000000000000000000001FF01020178
:100183000400008814000000E8030000FFFFD914F6
:100193000188130000E803000064006400B801A0B4
:1001A300BB0D00A0BB0D0002020207040101051EE6
:1001B30002051E020A0A010108080103B80B0280A6
:1001C3003E0102FEFFE8030A050001FFFF020A14D5
:1001D30001E0000020410200000005030101FF0FC0
:1001E30003000300030003000300030003000300F4
:1001F300030005000A00140028004F009E000000C1
:100203007730000000004B2F00000000FF000000CB
:10021300FF00121271601D121280700519191980E6
:100223001A121139701F12114DC37003E667331987
:10023300191940071818182208080874FFF618F649
:1002430018F618F62212114D601712130E70219230
:10025300F01213177019501720F014080808090931
:1002630009E7F61819E7F61819E7F61819E7F62259
:1002730012131760E6E869701F0808E62480F60881
:10028300E436F618547FB47F0CE654806007F6E436
:1002930018F618F622181822E9C6CC08C6CD08C6E7
:1002A300CE08C6CFC0E0E8C0E0EAC0E0EBC0E0099A
:1002B300E9F809E7FA09E7FBE6F918E6F8C3EC9869
:1002C300ED99EE9AEBC2E7F5F0EFC2E795F0500E29
:1002D300600CEBCFFBEACEFAE9CDF9E8CCF8EAA261
:1002E300E7D2E7FAEB33FB13F5F0EEA2E7D2E7FE32
:1002F300EF33FFC5F013A2E730E601B313C5F0C334
:10030300C0E0C0F07F00C39BFB605E9418600F40A9
:100313001D14601AD0E023F9D0E0F80203F68AF046
:10032300E9486003D2F0E4AFF0FAF9F8803BEB3030
:10033300E40D89F0EA6003D2F0E4AFF0F9CAF8EB18
:1003430030E30D88F0EF6002D2F0AFF0E4CAC9F8F1
:10035300EB54076014FBC3EA13FAE913F9E813F843
:10036300EF135002D2E0FFDBEDD0E0C0E030E7391D
:10037300C3E49FFFF5F0EC98FC42F0ED99FD42F0E9
:10038300EE9AFE42F0D0E0F9D0E0F8E5F0607AE9C9
:1003930023F9EE20E742D8028067C3EF33FFEC3343
:1003A300FCED33FDEE33FE80EAEC28FCED39FDEE87
:1003B3003AFED0E023F9D0E0F84002801BC3EE13ED
:1003C300FEED13FDEC13FCEF135002D2E0FF08B86F
:1003D30000067F7F74FF802EEF3350178CF020F0E0
:1003E3000260100CBC000C0DBD00080EBE0004081A
:1003F300E860DFE933E813FFEE2313FE4F4D4C8033
:1004030008E95480FFE4FEFDFCEE33EF33F470049F
:10041300FCFD7E80D0E0FBD0E0FAD0E0F8D0E0CF66
:10042300C618CEC618CDC618CCC6F92212127170E2
:100433000418181822121280700D74FFF61819F69A
:100443001819F61819F622E7548066F61213177076
:100453000F12130E70F014F608F608F608F680D1A2
:1004630012130E700CF608F608768008E6447F80B7
:10047300EC121150700C12113C60BFE65480F6E48C
:1004830080BB12113C700519191980A5E869700C1D
:10049300763F18768018F618F6E8F922E6CDC0E024
:1004A30018ECC0E0E633CD33CDD313F6E719FCE700
:1004B300191933CC33C3947F400ECD9D502408E6E5
:1004C3005480F6E418F6800FF4043D14501408E643
:1004D300447FF6187680E418F618F6D0E0FCD0E0F6
:1004E300FD22CCD313CCFD18E4C6CBC0E018E4C680
:1004F300CAC0E00808ED08C633E613F618E433C6AD
:1005030075F003C3CA97CA09CB97CB199C40047DE6
:1005130008802EBD00030205D816B6FF050606089F
:100523001618C3CA33CACB33CB33CA27CA09CB374E
:10053300CB193CC37D08803E187D0820E75CC63399
:10054300C6CA33CACB33CB33DDF1D5F0EB30E77B0F
:10055300CA97CA09CB974ACB199C406F4B7025E6C3
:1005630020E0218066187D08C3CA97CA09CB97CBC0
:10057300199CD3C633C6CA33CACB33CB3350C9DD78
:10058300E7D5F0E1D3E4C636C608C636C608C63694
:10059300C608C636C61818188031C3CA97CA09CB0D
:1005A30097CB199CB34097C633C6CA33CACB33CB58
:1005B30033DD34D5F02EC6A2E0C640C8CA27CA0927
:1005C300CB37194A70BECB3CB480B90808E6330870
:1005D300E633601F181818D0E0FAD0E0FBD0E0FC37
:1005E300D0E0FD22187D08CA27CA09CB37CB193CB6
:1005F300D3808013F618E4B67F11F618B6FF0EF613
:1006030018C60470D20808768080CAF618F618F661
:1006130080C500121271604F1212806012E754807D
:1006230066F6121139701112130E703B090909F4A1
:10063300F618F618F618F62212114D701512131744
:1006430008080860EAE6447FF618768018E4F6188E
:10065300F622121317601612130E7012E4F608F640
:1006630008F608E65480F609090918181822EAC0A2
:10067300E0EBC0E0ECC0E0EDC0E0E687F0A4FBAC4B
:10068300F008E687F0A42CFCE435F0FA1809E687B5
:10069300F0A42C4B60027401CA35F0FCE433FB096F
:1006A300E687F0D2F7A42CCB35F0FC1908E687F0E7
:1006B300A42BCC35F0FBE433FD0819E687F0D2E731
:1006C300A42C4ACB35F0CD3400FC09E687F0D2E701
:1006D300A42DCC35F0FDE433FA0918E687F0D2F700
:1006E300A42CCD35F0CA3400FC08E687F0D2E7D25B
:1006F300F7A42ACC35F07A7E20E70B0ACB33CBCD97
:1007030033CDCC33CC33CB3350147004ED30E00E07
:10071300D2F1E4CD3DCDCC3CCC3B5005DA05C2F162
:10072300EB547FC63308E63392F0FBE73309E73334
:10073300C39A502D2B70190C0D4C4D70151806E6ED
:1007430008C333700D20F10AA2F013F6E418800BEE
:100753004024E4F630F002768018F618F618F68096
:1007630024D33B14501074FFA2F013F6187680E4E0
:1007730018F618F6800FA2F013F618E63303F618EE
:10078300ECF618EDF6D0E0FDD0E0FCD0E0FBD0E0D5
:10079300FA22C0E074F1120B7EA2AFE433F509D262
:1007A300AF85A708AFA1EF5508FE74105E6006126F
:1007B300159975A1EF74085E600812159F75A1F76E
:1007C3008024EFA2E092F0E508A2E082F0501790B7
:1007D3006198E0F89006BBE0C398A2D265D033508D
:1007E30002E8F075A1FEE509A2E092AF7F02020BD9
:1007F300DDC0E074F2120B7EA2AFE433FED2AF9001
:1008030061A4E0F8759B00E5915854086008759160
:10081300F71215ED8023E59158541060087591EF98
:100823001215F38014E591A2E092F0E8A2E082F0C1
:100833005007E0C2E0F012173D9061A3E0F8E5E94C
:10084300585404600E12171375E9FB906193E0A2EC
:10085300E640F2EEA2E092AF7F01020BDDC0E0744E
:10086300F2120B7EA2AFE433FED2AF9061A5E0F8A3
:10087300E5BF585404600675BFFB12175580D4C3F7
:10088300E498F8E499F91208C38026C3E49AFAE4D9
:100893009BFBE920E7E91208C3E498F8E499F922FD
:1008A300C3E498F8E499F91208C3E498F8E499F9D1
:1008B300C3E49AFAE49BFB22EB20E7CFE920E7E0CD
:1008C300B90010BB0008E88AF084F8AAF022E4FB20
:1008D300C8FA22EB70227B10C833C8C933C933501E
:1008E30007C39AC3DBF280069A50012ADBEAC833B6
:1008F300F4C8C933F4C9FA2275F008E4C833C8C987
:1009030033C933C99AC99B5004C92AC93BD5F0ECF2
:10091300FBC833F4C8E4C9FA2212095C20F014308E
:10092300E72B74FFFCFBFA747F8022E4FCFBFA7470
:1009330080801AB48008BC00F2BB00EF800F50EB3C
:10094300F9E4C39AFAE49BFBE49CFCE499C6CC1853
:10095300C6CB18C6CA18C6F922E4C9C608CAC6084F
:10096300CBC6D3330308CCC63392F0C3947F402E57
:1009730094184019C9B90704CACBCC225025C3091E
:10098300CA33CACB33CBCC33CC33D9F422F4600D86
:10099300C9CCC313CB13CBCA13CAD9F6CC22E4FCFC
:1009A300FBFA2214FCFBFA22080808EAC0E0EBC0B9
:1009B300E086F0E7A4FA180986F0E7A42AFA1809F2
:1009C30086F0E7A42AFA180986F0E7A42AFA19861A
:1009D300F0E7A4FBE5F02AFA190886F0E7A42BFB5D
:1009E300E5F03AFA190886F0E7A42BFBE5F03AFAAA
:1009F30018180986F0E7A4C5F02BFBE43AFA1908A6
:100A0300E7C5F0C6A426F6E5F03BFBE43AFA188600
:100A1300F0E7A4F6E5F00826F6E43B08F6E43A0826
:100A2300F6D0E0FBD0E0FA22080808E630E711121E
:100A33001111120A43080808C64480C61818182260
:100A4300181818E9799EC608CAC608CBC608CCC6CA
:100A5300C370207996CACBCC7019798ECBCC701326
:100A63007986CC700EF9802ACA33CACB33CBCC3308
:100A7300CC331930E7F2CCCBCA3350147004EA30CC
:100A8300E00DE4CA3ACACB3BCBCC3CCC500209C301
:100A9300E913C6CC182313C6CB18C6CA18C6F92245
:100AA300E4CFC0E0E4CEC0E0E4CDC0E0E4CCC0E0FD
:100AB30075F020E626F608E633F608E633F608E690
:100AC30033F6181818EC33FCED33FDEE33FEEF3339
:100AD300FFC3EC9709ED9709EE9709EF97191919D9
:100AE300400FFFEC97FC09ED97FD09EE97FE1919EE
:100AF30006D5F0BFECF709EDF709EEF709EFF719A3
:100B03001919D0E0FCD0E0FDD0E0FED0E0FF2225B3
:100B130018C582C0E0E51934FFC583C0E0E518C3FA
:100B2300958224F810AF088583198582188008857B
:100B33008319858218D2AFCEF0A3E520F0A37808FD
:100B4300E608F0A3DEFAEFF0A3E58124FAF8E6085D
:100B5300F0A3E608F0A3E608F0A30808E608F0A36C
:100B6300E608F0A315811581D0E0FED0E0F81581E9
:100B730015811581E8C0E0EEC0E022C0D02518C57C
:100B830082C0E0E51934FFC583C0E0E518C3958250
:100B930024F310AF0885831985821880088583198B
:100BA300858218D2AFC8F0A3E9F0A3EAF0A3EBF073
:100BB300A37908E709F0A3D8FAECF0A3EDF0A3EECC
:100BC300F0A3EFF0A3D0E0F0A3D0E0F0A3D0E0F0E7
:100BD300A3E520F0A3E5F0F0A3228519838518820D
:100BE300E0C0E0A3E0F9A3E0FAA3E0FBA37808E008
:100BF300F608A3DFFAE0FCA3E0FDA3E0FEA3E0FF19
:100C0300A3E0C0E0A3E0C0E0A3E0F5D0A3E0F520BB
:100C1300A3E0A3F5F010AF08858319858218800837
:100C2300858319858218D2AFD082D083D0E0F8D0E3
:100C3300E0321212F9B90003020C74E49004017853
:100C43007879148002F0A3D8FCD9FA7A787B1790CC
:100C53000086789079028015E493A3AD82AE838AEF
:100C6300828B83F0A3AA82AB838D828E83D8E9D94A
:100C7300E77582EB7583BE7405120FA07582257527
:100C8300832C7400120FA0E47375F0108E1A8F1B5F
:100C930085821F85831E851882851983E0CEA3E094
:100CA300CF851F82851E83EBC9EAC8EDCBECCAC38F
:100CB300E833C8E933C9EA33CAEB33CBC3EA9EF559
:100CC3001DEB9FF51CB35004AB1CAA1DEC33CCEDFC
:100CD30033CDD5F0DAAE1AAF1B22D083D082ECC06D
:100CE300E0EDC0E0E493A3FCE493A3FDED4C600DC1
:100CF300120DB5EC24FFFCED34FFFD80EFE493A36C
:100D0300FCE493A3FDED4C600D120E88EC24FFFC74
:100D1300ED34FFFD80EFD0E0FDD0E0FCE493A3C011
:100D2300E0E493C0E022851983851882E0A3FEE006
:100D3300A3F5207808E0A3F608DFFAE0A3FFE0A319
:100D4300C0E0E0A3C0E0E0A3C0E0E0A3C0E0E0A314
:100D5300C0E010AF08858218858319800885821842
:100D6300858319D2AFD083D082020FA6D083D082DD
:100D7300E9C0E0E493A3C386F0C5F095F0F908E475
:100D830093A386F0C5F095F0700BE493A3C3994049
:100D930005E9048002A3E475F002A42582F582E547
:100DA300F03583F583D0E0F9E493A3C0E0E493C086
:100DB300E022C0E0C3E49396087401939618400FB1
:100DC300E49366700808740193661870007019A3A1
:100DD300A3C3E49396087401939618A3A3400DD07C
:100DE300E0D0E0D0E0020D19A3A3A3A3A3A3D0E016
:100DF30022C082C08374FE1210A6851882851983CF
:100E0300EAF0A3EBF07C017D00AA18AB197900127C
:100E13001521851882851983E0FAA3E0FB74021279
:100E23000FF4D083D082227404800474028000CC37
:100E3300C0E0EDC0E0E518C39CCCAD1950011D1016
:100E4300AF068C188D1980068C188D19D2AF120F2E
:100E530022D0E0FDD0E0FC2274028000CCC0E0EDA3
:100E6300C0E0E518C39CCCAD1950011D10AF068C32
:100E7300188D1980068C188D19D2AF120F00D0E08F
:100E8300FDD0E0FC22C0E0C0F088F0E49366700877
:100E93000874019366187000A8F0A3A3700BD0F038
:100EA300D0E0D0E0D0E0020D19A3A3D0F0D0E0222F
:100EB300D083D082CCC0E0E493A36006120F621407
:100EC30070FAE493A360061210BC1470FAD0E0FC2D
:100ED300E493A3C0E0E493C0E022C0E074F2120BF9
:100EE3007EA2AFE433FED2AFC2C0E5D1A2E4500389
:100EF300121509EEA2E092AF7F01020BDDCAC0E03A
:100F0300E493A3C582CCC582C583CDC583F0A3C5B5
:100F130082CCC582C583CDC583DAE5D0E0CA22CAB7
:100F2300C0E0E0A3C582CCC582C583CDC583F0A351
:100F3300C582CCC582C583CDC583DAE6D0E0CA229B
:100F43007009080808226016181818C6C333C608A3
:100F5300C633C608C633C608C633C6D5E0EA22C0C0
:100F6300E0E493A3D39C5010E493A3C39C400AD022
:100F7300E0D0E0D0E0020ED0A3A3A3D0E022C008CB
:100F8300C3E096F50808A3E096420808A3E096425A
:100F93000808A3E09645087001D3D00822C09FF546
:100FA3009FE473D09F22D083D082C09FE493C0E09C
:100FB300740193C0E0740293F59F222518F5821003
:100FC300AF08F518400C15198008F51840021519DB
:100FD300D2AF851983227404800A740380067402D5
:100FE30080027401C0E0F404120FBED0E01212BC00
:100FF3002200C0D0251810AF08F518500C05198031
:1010030008F51850020519D2AFD0D022BB0102E770
:1010130022C082C08389828A83BB0003E08002E40A
:1010230093D083D082226017080808C6A2E713C6AC
:1010330018C613C618C613C618C613C6D5E0E922C8
:10104300C0E0C0D0E8C0E0A8A8D2AFC2C7E8A2E71A
:1010530092AFD0E0F8D0D0D0E0326016080808C6CE
:10106300C313C618C613C618C613C618C613C6D5E7
:10107300E0EA22C3E0C696F608A3E0C696F608A304
:10108300E0C696F608A3E0C696F6222518F8E435DE
:1010930019F9222518FAE43519FB222518FCE43541
:1010A30019FD22251810AF08F518400C15198008F2
:1010B300F51840021519D2AF22C0E0E493A36C7077
:1010C30009D0E0D0E0D0E0020ED0A3A3D0E022E02C
:1010D30066701008A3E066700A08A3E0667004084F
:1010E300A3E06622E76670100809E766700A08093C
:1010F300E76670040809E76622C3E09608A3E09652
:1011030008A3E09608A3E096A2D265D0332218186C
:1011130018E4C396F608E496F608E496F608E4960F
:10112300F622C3E096F008A3E096F008A3E096F059
:1011330008A3E096F022181818E60846087009E696
:1011430026087005E633F4220822191919E709471E
:10115300097009E727097005E733F4220922C3E67A
:1011630097F60809E697F60809E697F60809E69759
:10117300F622C3E493960874019396087402939637
:10118300087403939622E627F60809E637F608095A
:10119300E637F60809E637F622700422600D18C612
:1011A300C333C608C633C6D5E0F41822E657F6089B
:1011B30009E657F60809E657F60809E657F622E066
:1011C30056F608A3E056F608A3E056F608A3E05641
:1011D300F622E026F608A3E036F608A3E036F60882
:1011E300A3E036F622E026F008A3E036F008A3E0F9
:1011F30036F008A3E036F022E647F60809E647F69C
:101203000809E647F60809E647F622E056F008A380
:10121300E056F008A3E056F008A3E056F022600D74
:1012230008C6A2E713C618C613C6D5E0F322C6F450
:10123300C608C6F4C608C6F4C608C6F4C622C3E781
:10124300960809E7960809E7960809E79622C3E096
:101253009608A3E09608A3E09608A3E0962275D02B
:101263000075813F75180175190400020C35E608F5
:101273004608C3134608336002E633F422E70947FE
:1012830009C3134709336002E733F422600C08C62D
:10129300C313C618C613C6D5E0F422E6F008A3E6C6
:1012A300F008A3E6F008A3E6F022E0F608A3E0F6D0
:1012B30008A3E0F608A3E0F622CAC0E0E6F0A3081C
:1012C300DAFAD0E0FA22E0FAA3E0FBA3E0FCA3E021
:1012D300FD22EAF0A3EBF0A3ECF0A3EDF022E0F89B
:1012E300A3E0F9A3E0FAA3E0FB22E8F0A3E9F0A36B
:1012F300EAF0A3EBF022E5C754F84401F5C77901FE
:10130300222518F582E43519F58322E727194719B1
:1013130047194722E62618461846184622C2AF75D3
:10132300D69F02000022120FA957ED03120FA9D373
:10133300ED03120FA906EE03120FA934EE03120FE9
:10134300A958F003120FA974F003120FA9B9F003FF
:10135300120FA93EF103120FA98AF103120FA91A62
:10136300F203120FA9F3F203120FA944F303120FAE
:10137300A9A9F303120FA91CF403120FA960F40324
:10138300120FA9B8F403120FA9DAF403120FA96A12
:10139300F503120FA9FBF503120FA947F603120F6A
:1013A300A973F603120FA9B4F603120FA955F80394
:1013B300120FA937F903120FA913FA03120FA98702
:1013C300A705120FA9C8A705120FA9E2A705120FB7
:1013D300A9FEA705120FA927A805120FA968A8053A
:1013E300120FA9C7A805120FA931A905120FA990B9
:1013F300A905120FA9CDA905120FA98BAA05120FD2
:10140300A972CD05120FA983CD05120FA921CE050F
:10141300120FA93BCE05120FA9F67F00120FA94E9A
:10142300B305120FA9A5B305120FA95DB505120FD8
:10143300A983B505120FA9A4D305120FA906D105D7
:10144300120FA916D105120FA92BD105120FA974DA
:10145300D105120FA9E8FE04120FA96CFF04120FA5
:10146300A9D4FF04120FA9F97F00120FA9E3FF010A
:10147300120FA9F1FF01120FA925D205120FA942DC
:10148300D205120FA951D205120FA95AD205120F74
:10149300A904FC02120FA912FC02120FA98BFC0271
:1014A300120FA960FD02120FA932FF02120FA98BBE
:1014B3008A05120FA9A98A05120FA9D68A05120F48
:1014C300A9D98C05120FA9548D05120FA9F28D0508
:1014D300120FA9168E05120FA98F8E05120FA9F6EA
:1014E300D205120FA9008005120FA96D8005120FF6
:1014F300A9258105120FA99B8105120FA9AF8205AA
:10150300120FA93F8405120FA9A88405120FA9F78A
:101513008405120FA9008505120FA90F8505120F67
:10152300A9258505120FA9388505120FA94185053F
:10153300120FA9548505120FA9808505120FA9174B
:101543008805120FA9578805120FA9938805120F52
:10155300A9A78805120FA9C08805120FA9B189058B
:10156300120FA9638A05120FA9778A05120FA968BA
:101573007E00120FA98C7E00120FA9A57E00120F08
:10158300A9E37E00120FA9137F00120FA9407F0069
:10159300120FA9A67F00120FA9A97F00120FA9B3EA
:1015A3007F00120FA9C07F00120FA9A7B005120F69
:1015B300A9C7B005120FA906B105120FA924B105D9
:1015C300120FA93FB105120FA9A5B105120FA9B1B9
:1015D300B105120FA90EB205120FA91DB205120F04
:1015E300A941B205120FA902B305120FA90FB30542
:1015F300120FA920B305120FA98FD005120FA9D777
:10160300D005120FA903D105120FA9808F05120F60
:10161300A9DC9005120FA9EA9005120FA9FD900508
:10162300120FA9129105120FA9279105120FA93ABA
:101633009105120FA9B69105120FA91B9205120F5E
:10164300A9B19205120FA98A9305120FA99A9305BE
:10165300120FA9A99305120FA951CE05120FA9754F
:10166300CE05120FA99DCE05120FA9C5CE05120FE7
:10167300A931B805120FA958B805120FA976B805F4
:10168300120FA9E5B805120FA9D4AD05120FA9EDE4
:10169300AD05120FA9F9AD05120FA90DAE05120F75
:1016A300A92BAE05120FA935AE05120FA93FAE0542
:1016B300120FA952AE05120FA9D8AE05120FA94DEC
:1016C300AF05120FA97CAF05120FA9CAAF05120F00
:1016D300A919B005120FA934B005120FA93EB00520
:1016E300120FA94FB005120FA992B005120FA9DA74
:1016F300D105120FA94DEE04120FA979EE04120FB2
:10170300A996EE04120FA9A9EE04120FA9C4EE04C0
:10171300120FA91EEF04120FA94CEF04120FA95CBC
:10172300F304120FA9BAF404120FA9ECF404120F74
:10173300A94FF504120FA9BBF604120FA9E3F6048F
:10174300120FA9F8F604120FA908F704120FA948FB
:10175300F704120FA98AF704120FA99AF704120FBC
:10176300A94FC805120FA969C805120FA991C80589
:10177300120FA9AAC805120FA9CEC805120FA9EC0A
:10178300C805120FA903C905120FA931C905120F04
:10179300A94CC905120FA975D205120FA987A00577
:1017A300120FA997A005120FA99CA105120FA9CE8C
:1017B300A105120FA9FEA105120FA921A205120F5F
:1017C300A938A205120FA972A205120FA9D7A20563
:1017D300120FA919A305120FA960A305120FA98D52
:1017E300A305120FA9B8A305120FA90AC705120F63
:1017F300A928C705120FA98AC705120FA924C8056E
:10180300120FA987CC05120FA97FC905120FA9C70B
:10181300C905120FA9E7C005120FA95EC205120F71
:10182300A9C5C505120FA9EAC605120FA9E7E30466
:10183300120FA971E704120FA96DE904120FA99FF2
:10184300EA04120FA978EB04120FA908ED04120F92
:10185300A9D4ED04120FA928EE04120FA9ADC205F5
:10186300120FA9CEC205120FA908C405120FA9327F
:10187300C405120FA9BBD205120FA9CBD205120FB3
:10188300A9D5D205120FA93EEE01120FA941EE010F
:10189300120FA91DF601120FA96FF701120FA9D09C
:1018A300F801120FA9A7F901120FA980FA01120F6B
:1018B300A969FB01120FA95DFC01120FA915FD0116
:1018C300120FA945FD01120FA9F5FE01120FA96F11
:1018D300C405120FA981C405120FA995C505120FDE
:1018E300A998C505120FA999CB05120FA9CFCB054E
:1018F300120FA9E7CB05120FA929CC05120FA9399D
:10190300CC05120FA97DCC05120FA9CAF704120F3B
:10191300A904F804120FA96DF804120FA98CF80496
:10192300120FA9A5F804120FA947F904120FA95021
:10193300F904120FA9A1F904120FA9CAF904120F8D
:10194300A9D7F904120FA948FA04120FA9D6FA0469
:10195300120FA924FB04120FA95AFB04120FA9BBEF
:10196300FB04120FA9E4FB04120FA95BFC04120F82
:10197300A9B7FC04120FA9F4FC04120FA92BFD0450
:10198300120FA93DFD04120FA94FFD04120FA96EFA
:10199300FD04120FA977FD04120FA932FE04120FE2
:1019A300A97EFE04120FA9BCFE04120FA97DD10566
:1019B300120FA9EDFA03120FA92DFC03120FA95060
:1019C300FC03120FA961FC03120FA980FE03120F7F
:1019D300A9A0FE03120FA986BA05120FA9BCBA0566
:1019E300120FA904BB05120FA95DBC05120FA9C8EC
:1019F300AE04120FA9F9AF04120FA935B004120FE8
:101A0300A9EFB104120FA919B204120FA992B404D9
:101A1300120FA9D2B404120FA966B604120FA905B6
:101A2300B704120FA95DB704120FA9F0B704120F80
:101A3300A92AB804120FA96CB804120FA9DFB904BC
:101A4300120FA95FBB04120FA99CBD04120FA9CAF0
:101A5300BD04120FA9F6BD04120FA9FFBD04120F96
:101A6300A95CBE04120FA9ECBE04120FA928C2047C
:101A7300120FA9AAC204120FA98ED305120FA982AD
:101A83009C05120FA9989C05120FA93C9D05120FE6
:101A9300A97B9D05120FA9989D05120FA9C99D0544
:101AA300120FA9169E05120FA94A9E05120FA985AA
:101AB3009E05120FA97AA005120FA999CA05120F44
:101AC300A9F8CA05120FA936CB05120FA977CB05C2
:101AD300120FA9CFB505120FA925B705120FA9F447
:101AE300B705120FA935AC02120FA941AC02120FB0
:101AF300A9A3AC02120FA9ADAC02120FA93AAD0211
:101B0300120FA976AD02120FA939AE02120FA94C1A
:101B1300AE02120FA9BAAE02120FA922AF02120F20
:101B2300A9B1AF02120FA92FB002120FA9D4B102AB
:101B3300120FA98DB302120FA9D3B402120FA95029
:101B4300B602120FA9F7B602120FA9C5BB02120FF4
:101B5300A9BCBC02120FA94BBD02120FA970BD0292
:101B6300120FA90DBE02120FA92ABE02120FA94A13
:101B7300BE02120FA9BBBE02120FA9D8BE02120FDA
:101B8300A906BF02120FA99EC002120FA9BFC0026D
:101B9300120FA965C102120FA9ADC102120FA91F2D
:101BA300C202120FA9A2C202120FA907C302120F87
:101BB300A964C302120FA903C402120FA977C402B6
:101BC300120FA9B3C402120FA920C502120FA98ACA
:101BD300C602120FA90BC802120FA9BAC802120F2C
:101BE300A91CCB02120FA97ECB02120FA9ACCB0208
:101BF300120FA9C4CD02120FA954D002120FA95774
:101C0300D102120FA90E7000120FA9357000120F26
:101C1300A96F7000120FA9787000120FA97B7000D2
:101C2300120FA9CD7000120FA9CF7200120FA91CB9
:101C33007500120FA90C7600120FA9547600120F2B
:101C4300A9817600120FA9E97600120FA91D77006A
:101C5300120FA9007800120FA9227800120FA98889
:101C63007800120FA9EE7800120FA96F7900120FF6
:101C7300A9D57900120FA9937A00120FA92A7B0024
:101C8300120FA9847D00120FA99C7D00120FA94D8C
:101C93007E00120FA9008003120FA99F8003120F69
:101CA300A91B8103120FA90A8203120FA908830338
:101CB300120FA9878303120FA9C98403120FA96AFC
:101CC3008503120FA92A8703120FA9318803120F64
:101CD300A94E8803120FA9798903120FA9B68A03A3
:101CE300120FA9608B03120FA9CA8E03120FA9D278
:101CF3009003120FA95B9103120FA9B59103120F61
:101D0300A9039203120FA97E9203120FA900930352
:101D1300120FA93C9303120FA9E09903120FA93BD9
:101D23009C03120FA9179D03120FA96A9804120F9F
:101D3300A99C9804120FA9149904120FA9239A04B9
:101D4300120FA97F9A04120FA9F69B04120FA9126E
:101D53009C04120FA9649C04120FA9A29C04120FE5
:101D6300A9B59C04120FA90D9D04120FA97C9D0413
:101D7300120FA93E9E04120FA9AC9E04120FA9E3F1
:101D83009E04120FA91B9F04120FA9A3A004120FF4
:101D9300A982A104120FA9D0A204120FA9B3A3040C
:101DA300120FA93FA404120FA981A404120FA9A022
:101DB300A404120FA9EBA404120FA90BA504120F7C
:101DC300A9A4A504120FA927A604120FA932A604D9
:101DD300120FA987A604120FA9E2A604120FA92FB6
:101DE300A704120FA9ACA904120FA9D0AA04120FB9
:101DF300A916AB04120FA90BAC04120FA933AC0440
:101E0300120FA936AC04120FA940AC04120FA95C3F
:101E1300AC04120FA9E4AC04120FA91DAD04120FF8
:101E2300A949AD04120FA970AD04120FA994AD0412
:101E3300120FA905AE04120FA918AE04120FA92E92
:101E4300AE04120FA950AE04120FA97FAE04120FF5
:101E5300A99EAE04120FA9B6AE04120FA910D005A5
:101E6300120FA91CD005120FA95AD005120FA9FCF5
:101E73007F00120FA98BD303120FA9AED303120F46
:101E8300A9FBD403120FA944D503120FA9A2D503AA
:101E9300120FA9FCD503120FA9FFD503120FA950E6
:101EA300D603120FA9CAD603120FA94DD703120FD7
:101EB300A950D703120FA9D8D703120FA91BD80310
:101EC300120FA9FCD203120FA9EFDD03120FA929E8
:101ED300DE03120FA976DE03120FA9DAE103120F54
:101EE300A95FE203120FA91BE303120FA949E4033D
:101EF300120FA976E503120FA960E603120FA9CE0C
:101F0300E703120FA952E803120FA944E903120FC2
:101F1300A9CAEB03120FA9008004120FA9A0800421
:101F2300120FA90C8104120FA9278104120FA9C84B
:101F33008104120FA90F8204120FA9328304120F16
:101F4300A9A1E304120FA9F18304120FA944840485
:101F5300120FA9AB8404120FA92C8604120FA944F3
:101F63008704120FA9C78704120FA9CF8904120F80
:101F7300A9738A04120FA9128B04120FA9738B047D
:101F8300120FA9E28B04120FA9468D04120FA93078
:101F93008E04120FA96B8E04120FA98B8E04120FDD
:101FA300A93C8F04120FA9798F04120FA902900480
:101FB300120FA98A9104120FA9689304120FA90E94
:101FC3009504120FA9A19504120FA90B9604120FE1
:101FD300A9179704120FA90C9E03120FA96F9E0352
:101FE300120FA9B79E03120FA9F59E03120FA95052
:101FF3009F03120FA9AD9F03120FA9E89F03120FAE
:10200300A96AA003120FA9C4A003120FA938A2033F
:10201300120FA9C2A203120FA915A303120FA92F0E
:10202300A303120FA949A303120FA9A3A303120F1A
:10203300A929A603120FA948A603120FA933A703C0
:10204300120FA96DA803120FA9ECA803120FA9235D
:10205300A903120FA992A903120FA953AA03120FDE
:10206300A92CAC03120FA92DAD03120FA99EAE0329
:10207300120FA99EB003120FA919B303120FA9F3EC
:10208300B403120FA9B4B503120FA92CB603120F90
:10209300A943B603120FA93DB703120FA935B8031D
:1020A300120FA9A4B803120FA910A405120FA96750
:1020B300A505120FA926A605120FA98EA605120FB4
:1020C300A902A705120FA9D3AA05120FA9EEAA0503
:1020D300120FA932AB05120FA958AB05120FA97F36
:1020E300AB05120FA997AB05120FA939AC05120F57
:1020F300A94EAC05120FA970AD05120FA979AD0554
:10210300120FA982AD05120FA98BAD05120FA9DA23
:102113009305120FA9DC9705120FA9E19705120F7A
:10212300A9E39705120FA974BF05120FA9E2FF03D4
:10213300120FA9C4BC05120FA980CF05120FA9CA9B
:102143007F00120FA997FF02120FA9A7FF02120F18
:10215300A94A9805120FA9EACE05120FA914CF05B3
:10216300120FA92ED305120FA965D305120FA95F6C
:10217300D502120FA992D502120FA9FED502120F92
:10218300A999D602120FA936D702120FA97BD7023B
:10219300120FA99DD702120FA9B6D702120FA9DCFD
:1021A300D702120FA9FED702120FA93CD802120FB1
:1021B300A980D802120FA9A2D802120FA904D9022A
:1021C300120FA9CBD902120FA982DA02120FA9F4B6
:1021D300DA02120FA9BFDB02120FA912DC02120FDF
:1021E300A978DC02120FA9B2DC02120FA904DD02E6
:1021F300120FA972DD02120FA9DDDD02120FA9E091
:10220300DD02120FA961DE02120FA9F8DE02120F1E
:10221300A959DF02120FA949E002120FA968E002CF
:10222300120FA9CCE102120FA9D9E102120FA9E5FD
:10223300E202120FA9F2E202120FA9FBE202120F4D
:10224300A9D3E402120FA9EDE502120FA966E60273
:10225300120FA9D8E602120FA9FAE602120FA98EED
:10226300E702120FA962E902120FA939ED02120F58
:10227300A94DED02120FA95DED02120FA967ED0240
:10228300120FA970ED02120FA979ED02120FA983A3
:10229300ED02120FA9B0ED02120FA9D9ED02120F30
:1022A300A9E4ED02120FA908EE02120FA92CEE0207
:1022B300120FA996EE02120FA9DCEE02120FA9F972
:1022C300EE02120FA976EF02120FA9ADEF02120F61
:1022D300A9ECEF02120FA939F002120FA9BFF00205
:1022E300120FA98DF202120FA922F302120FA906EF
:1022F300F402120FA96DF602120FA9C6F602120F0D
:10230300A910F702120FA96BF802120FA9A9F8027C
:10231300120FA9FBF802120FA9B0F902120FA95F5D
:10232300FA02120FA99CFA02120FA931FB02120F33
:10233300A99DFB02120FA9849201120FA9B6920163
:10234300120FA9E49201120FA9BA9401120FA99ACC
:102353009501120FA9F29501120FA92D9701120FE2
:10236300A9799701120FA9A29A01120FA9959D01AC
:10237300120FA9E59E01120FA97B9F01120FA987D6
:102383009F01120FA9B99F01120FA93CA101120FBE
:10239300A94AA201120FA974A201120FA9DBA2017B
:1023A300120FA934A301120FA99AA301120FA9B105
:1023B300A501120FA940A701120FA90AA801120F24
:1023C300A950A901120FA9A0AB01120FA970AE0168
:1023D300120FA97DAE01120FA904AF01120FA99824
:1023E300AF01120FA9DBAF01120FA924B001120F25
:1023F300A978B001120FA9F1B001120FA960B101C0
:10240300120FA97DB101120FA9ADB101120FA9E2FB
:10241300B101120FA9B2B201120FA95BB301120FDE
:10242300A9E1B501120FA901B701120FA9ECB70178
:10243300120FA96EB801120FA9A5BC01120FA9E2D0
:10244300BC01120FA93ABD01120FA96DBD01120FF4
:10245300A9D7BD01120FA90DBE01120FA998BE0184
:10246300120FA9F0BE01120FA9C7BF01120FA98055
:10247300C001120FA91BC101120FA923C401120F1E
:10248300A93FC501120FA9E2C801120FA9D6C901BC
:10249300120FA9D9C901120FA908CA01120FA90E57
:1024A300CC01120FA9E7CC01120FA92ACD01120FFB
:1024B300A980CE01120FA9BFCE01120FA951CF01DE
:1024C300120FA985CF01120FA94AD001120FA962D9
:1024D300D201120FA9D3D201120FA913D301120FE4
:1024E300A94CD301120FA9E0D301120FA95ED501A4
:1024F300120FA986D601120FA948D701120FA94FAF
:10250300D901120FA967D901120FA97BD901120FA3
:10251300A9B3D901120FA9E1D901120FA960DB01F7
:10252300120FA985DC01120FA9E9DC01120FA99B87
:10253300DD01120FA9CBDD01120FA992DE01120FEB
:10254300A92ADF01120FA950E101120FA985E101A8
:10255300120FA9E8E101120FA917E301120FA9BF96
:10256300E301120FA9F0E301120FA908E401120F0E
:10257300A997E401120FA94BE701120FA923E9015F
:10258300120FA93FE901120FA95BE901120FA92953
:10259300EA01120FA91CEE01120FA9173300120F43
:1025A300A9493300120FA9383700120FA984370045
:1025B300120FA9CA3700120FA96C3800120FA9C84D
:1025C3003800120FA90D3900120FA9543A00120F47
:1025D300A9683B00120FA9573F00120FA9DB3F0068
:1025E300120FA9E84000120FA9444100120FA934A9
:1025F3004300120FA9A94300120FA9B34300120FFE
:10260300A9C04300120FA9EB4300120FA9D2440043
:10261300120FA97C4500120FA9FA4500120FA91A3F
:102623004600120FA9434600120FA9654600120F78
:10263300A9C54800120FA98B4900120FA9D0490060
:10264300120FA94D4A00120FA9FE4A00120FA9301A
:102653004B00120FA9764B00120FA9B24B00120FB9
:10266300A9024C00120FA9564C00120FA9AC4C0042
:10267300120FA9F84C00120FA9654D00120FA9E023
:102683004D00120FA9AB4F00120FA9AB5000120F50
:10269300A9D05100120FA90F5500120FA9225800FB
:1026A300120FA9DF5800120FA9235900120FA9D343
:1026B3005A00120FA9E75A00120FA9F15A00120F7C
:1026C300A9FB5A00120FA9075B00120FA9235B0095
:1026D300120FA9CE5B00120FA90D5C00120FA917F0
:1026E3005C00120FA9215C00120FA9915C00120F6C
:1026F300A9DC5C00120FA9F15D00120FA94D5E0069
:10270300120FA9CE5E00120FA98D5F00120FA996BA
:102713006000120FA9CA6100120FA9B86200120F5C
:10272300A9D06200120FA92B6300120FA9496300FD
:10273300120FA9916300120FA9B86300120FA953D6
:102743006400120FA9196500120FA9AB6500120FDF
:10275300A9256600120FA93F6700120FA9EC6700B5
:10276300120FA9146900120FA9646900120FA9C8F6
:102773006900120FA92A6A00120FA9586A00120FE2
:10278300A97C6A00120FA9B16A00120FA9E26A00BC
:10279300120FA9156B00120FA9356B00120FA99D1B
:1027A3006B00120FA9916C00120FA9EC6C00120FB1
:1027B300A9156D00120FA99D6D00120FA9206E00BF
:1027C300120FA94B6E00120FA9306F00120FA90749
:1027D300C304120FA93FC304120FA960C304120F4D
:1027E300A9A2C304120FA904C404120FA90EC4049E
:1027F300120FA91EC404120FA959C404120FA93938
:10280300C804120FA926CA04120FA90CCC04120F74
:10281300A9A3CC04120FA945CD04120FA924810248
:10282300120FA9A28102120FA9FE8102120FA94958
:102833008202120FA9648202120FA98F8202120F61
:10284300A9AC8202120FA9B88202120FA94F840207
:10285300120FA9688402120FA9ED8402120FA900B6
:102863008502120FA91F8502120FA9C38502120F39
:10287300A9448702120FA9F78802120FA98D8902B2
:10288300120FA9908902120FA9008A02120FA91E22
:102893008A02120FA9B58A02120FA9FD8A02120F2A
:1028A300A9008B02120FA9C68B02120FA9338C0247
:1028B300120FA9598C02120FA9E48C02120FA9025C
:1028C3008D02120FA9488D02120FA9FC8D02120F5F
:1028D300A9468E02120FA9758E02120FA9D28E027B
:1028E300120FA9078F02120FA9338F02120FA941EA
:1028F3008F02120FA98E8F02120FA9FE8F02120FE1
:10290300A9479002120FA9939002120FA9BF900238
:10291300120FA9CA9002120FA9E89002120FA9D3AD
:102923009102120FA9DD9102120FA9189202120F40
:10293300A9289202120FA9319202120FA9859202BD
:10294300120FA9999202120FA9C89302120FA9DDBF
:102953009302120FA96B9402120FA9B09402120FE3
:10296300A93C9502120FA9479502120FA989960255
:10297300120FA9A49602120FA9F09602120FA95FD3
:102983009702120FA9989702120FA9B29702120F7A
:10299300A9F49702120FA9C49A02120FA9719B02FC
:1029A300120FA9DE9B02120FA91E9E02120FA93657
:1029B3009E02120FA9399E02120FA9459E02120F01
:1029C300A9599E02120FA9619E02120FA9949E0299
:1029D300120FA9969F02120FA91DA002120FA98D13
:1029E300A002120FA90FA102120FA9D0A102120F68
:1029F300A9EFA102120FA990A202120FA9EDA20240
:102A0300120FA9F0A202120FA964A302120FA9B315
:102A1300A402120FA9B9A502120FA944A602120F0C
:102A2300A95FA702120FA927A802120FA958A8028B
:102A3300120FA97BA802120FA984A802120FA9B32F
:102A4300A802120FA943A902120FA9F9A902120F92
:102A5300A96EAA02120FA915AB02120FA98AAB0223
:102A6300120FA9C1AB02120FA9FFAB02120FA9B13A
:102A7300D203120FA945D203120FA9E4D103120FF7
:102A8300A9BAD103120FA9A6D103120FA99CD1038E
:102A9300120FA92FD103120FA960CF03120FA91E82
:102AA300CF03120FA92CCE03120FA96DE304120F4B
:102AB300A916E304120FA900CE03120FA9B7CD0381
:102AC300120FA99DE104120FA9EFE004120FA9F45C
:102AD300CC03120FA9D3C903120FA996C703120F70
:102AE300A963C703120FA90AC703120FA99DC6033F
:102AF300120FA95CC603120FA93CC603120FA975D6
:102B0300C503120FA90FC503120FA9AEC403120FF9
:102B1300A94EC403120FA925C303120FA9B9C203F7
:102B2300120FA911C203120FA90CC203120FA9009D
:102B3300C203120FA93BBE03120FA915BE03120F46
:102B4300A9B3BD03120FA952E004120FA948E00470
:102B5300120FA9DDDF04120FA9C9DF04120FA9198F
:102B6300DF04120FA91FDE04120FA940DD04120FA8
:102B7300A954BD03120FA941BD03120FA936BD030A
:102B8300120FA905BD03120FA996DA04120FA9218A
:102B9300BB03120FA9A8BA03120FA93FBA03120F5E
:102BA300A9B2B903120FA9A8D904120FA96EB903C8
:102BB300120FA9758304120FA947B903120FA9E5D0
:102BC300D804120FA990D804120FA963D804120FC6
:102BD300A930D804120FA908D804120FA9A9D70441
:102BE300120FA989D704120FA954D704120FA918D9
:102BF300D404120FA9EDD104120FA9DDCF04120FD3
:102C0300A95ACF04120FA90ECF04120FA93AD9045F
:102C1300120FA9C2CE04120FA91CCE04120FA93E93
:102C2300DC0300000080FB87000100C218350004AC
:102C3300008A18250002008E18260002009018272B
:102C43000002009218280001009C18290001009D31
:102C5300188400040064158600010086172A000109
:102C6300009E182B0001009F182C000100A4182DB2
:102C730000080070152E000100A5182F000100A602
:102C83001830000100A71831000100A81832000114
:102C930000781533000100791534000100A91836B6
:102CA3000001007A1538000100AA1839000100A3B9
:102CB3001883000200C01863000100861564000138
:102CC30000A01865000100A1186D000100871571AF
:102CD300000800681566000100BF1843000100B03A
:102CE3001844000200B11845000100B31846000261
:102CF30000B418470008007E1548000100B6184BC1
:102D0300000100B71804000100C318A1000100C6A8
:102D13001837000100C51888000100C4183C0001E1
:102D2300007B153D000100AB1849000200B818678D
:102D330000010088154D000200BA184E000100BCC6
:102D4300184F000200BD183E000100AF18510001EA
:102D5300007C1552000100AD1853000100AE185459
:102D63000001007D1500000000000000013636015F
:102D7300010001020100010301000104010606052F
:102D8300020000070100340801000F090401010DCE
:102D93000100FF0E08000017020000190100FF1ACE
:102DA3000100011B0100FE1C0100081D0200001FA1
:102DB30001000120010001210200002301000F2472
:102DC3000200002601000127010008280200FF2A53
:102DD3000100072B0102402C0100002D0100012EF0
:102DE3000100012F0100FF30010B1D310800003AE3
:102DF3000100083B01000F3C0100013D0100FF3EC3
:102E030004000042040000460400004A0400004E8F
:102E130004000052040000560400005A0400000499
:102E2300000300200183920000000020017F920034
:102E330000010020017F920000020020017F920028
:102E430000004042014691000004004201DC8F0073
:102E53000005004201659000000600420146910012
:102E630000070030018192000010004203CC1700DC
:102E730000110030033214000012001003DF1703A7
:102E8300000000210333140000FDFF2101739203AE
:102E930000FDFF21017392060000001001351406A6
:102EA30000FDFF218173920204000029053F1402F3
:102EB30004010029016B92020402002901759202A8
:102EC30004FDFF21017392002020202020202020D8
:102ED30020282828282820202020202020202020C7
:102EE30020202020202020208810101010101010E7
:102EF300101010101010101004040404040404042F
:102F030004041010101010101041414141414101BF
:102F1300010101010101010101010101010101019E
:102F230001010110101010101042424242424202AD
:102F3300020202020202020202020202020202026E
:102F43000202021010101020010371030103010398
:102F5300010301030103220302030103100300031E
:102F63000003000300030003000300034203000304
:102F730024030603000300030403120325032303AE
:102F83002503230304030403000300030003440392
:102F930000030003230300036503210035038103BA
:102FA30000030503000300030003000325032303B9
:102FB300010171010101010111010101310101014E
:102FC30001018001100161013B00140063017301E1
:102FD3007201620143010001130106013D01350045
:102FE30004011201000100010001000104010401B8
:102FF300330133013C014401320136000001000179
:103003006501000135008101000105018201830191
:103013000001030271023001600211027002010219
:10302300020202028002100261023A0041006302BE
:1030330073027202620243020002130238000002AA
:103043000002040212020002000200020002040253
:103053000402370037003C02440200023900000238
:1030630000026502000235028102000205028202AB
:103073008302000203007100300160001100700040
:10308300310220035004800010006100000014008E
:103093006300730072006200430000001300060027
:1030A3000000000004001200000000000000000007
:1030B30004000400370037003C0244000000000015
:1030C30000000000650000003500810000000500DD
:1030D30000008300000036000100060000000F001E
:1030E30000000000000000000000000003FFFF00DC
:1030F300000403FFFF0000FFFF0FF4010005C404F9
:103103000320000100000B0000000000000000038A
:10311300010F00000000000000000000000000009C
:10312300000000000000000000000000000000009C
:1031330000000000C31BED1BC91B031BCF1BF31BAC
:10314300CF1BFF1BD51B031BCF1BF31BDB1B031B5E
:1031530000000000E11B031B000000000000000052
:10316300E71B031B0000000000000000000000003C
:10317300000000000000000000000000000000004C
:10318300000000000000000000000000000000003C
:103193000000531F0100531F0200991E0280931E5B
:1031A30003009F1E0400A51E0480AB1E0500B11E74
:1031B3000600BD1E3000DB1E3100D51E3300E71EA6
:1031C3003400ED1E1100F31E1400F91E1500CF1E6E
:1031D300FFFF0000030003000400080010001F00AD
:1031E3003E007B00F600EC01D703AF075D0FB91E6D
:1031F300713D000007ECFDFDFDECDCDCCCBCACACB0
:103203009C9C8C7C7C6C6C5C5C5C4C4C3C3C2C2CAB
:103213001C1C03EAF5E5D5D5C5B5A595958585753A
:1032230075656555554545353525251515050A1328
:103233002602DD2505E92507E3250CC5250DD12546
:10324300FF000000160F00000B150B020002220FF7
:103253003300000E0FD0D1D2D3D4D5D6D7D8D9DAF4
:10326300DBDCDDDEDF06000000100136140600FDA6
:10327300FF218173925A6967426565416C6C69618C
:103283006E6365303906000000100138140600FD36
:10329300FF2181739206000000100137140600FD20
:1032A300FF21817392303017181921301B1D1F30F5
:1032B30000034D4C4651181A250502000119161832
:1032C300161618230300003C40423A3F3F392F476C
:1032D30030303016181920231A1C1E300C0E020B26
:1032E300040B0A0708000F0204020101010109028D
:1032F300E803000000BE040A0E0001000300E80317
:10330300FF04091E1E03040A0C04100828020C05FE
:103313000815030474F7120B12E990165DF090166A
:1033230012E4F01218CF901675E4F0A3F090165E35
:10333300F0A3F01227631218D5901596E4F0A3F0CA
:103343001220F7024C7D74F0120B1274D31210A6E4
:103353001266D95480606690165DE0F91219478AA7
:10336300088B09AF09EA4F604C7C0080010CEC75B7
:10337300F003A4F8A9F0743128F582743239F58387
:10338300E493F46029E493F88A828B83E06870DD28
:10339300EC75F003A4F8743228F582743239F5839E
:1033A300E493C0E0740193F583D082120C8AAA08D7
:1033B300EFFB121935126E0B6480023718851882E1
:1033C300851983A3E05420601F1226798A088B098C
:1033D300AF09EA4F600A1225D1AA08EFFB1219358B
:1033E300126E0B6420023718851882851983E0A2B8
:1033F300E05042901617E0640F702E9009A2126EEF
:10340300169009A2C3E094E9A3E09403400A7A006A
:103413007B80901488124D5F79001225A7E960091B
:1034230090188A1212C91225BF851882851983E064
:1034330064010236FD542070030237027A207B00B8
:1034430090165DE0F9121AA9EA4B4C4D701A9016CA
:10345300711212E1E8494A4B700E750801750900B3
:10346300750A00750B00806D750C00750D00750EE7
:1034730000750F00121AB58A088B098C0A8D0B9000
:1034830016711212E1E8494A4B60319016717808BF
:10349300120F81400E750CFF750DFF750EFF750F32
:1034A3007F801985080C85090D8C0E8D0F90167180
:1034B300780C1210767401780C12105D850C088557
:1034C3000D09850E0A850F0BE5084509450A450BCD
:1034D300700302365C7C0079047A007B0012264F6D
:1034E3008A0C8B0DAE0CAF0D0235A07402121304BF
:1034F30074FFF0740312130474FFF07404121304C2
:1035030074FF124DD2126593740712109E1268490C
:10351300E96401706A1237244480F8A3E0F974283F
:10352300121304E8F0A3E9126ADDE0C0E0742A1282
:103533001304D0E0124DBF5408601674281213040C
:10354300A3E04401123731C0E0742C121304D0E01D
:10355300F012671C6011E8240B123F17F87416125F
:103563001304E8F0A3E4F0909233120E2A740612C7
:10357300109E740B1210961222657404120FF48EAF
:10358300828F83A3A3A3A3A3A3A3A3A37406123726
:1035930031F912263174051213041268A0EE4F702C
:1035A3000302365C7C007904EEFAEFFB12264F74BB
:1035B30005121304EAF0A3EB124AE9E0F50CA3E0C9
:1035C300F50DE4F50EF50F7808790C12124140233E
:1035D300EE2404F8E43FF985080C85090D8882F58B
:1035E30083C3E0950CF0A3E0950D126F00E84970DA
:1035F300A4800C8E828F83A3A3A3A3E4F0A3F08EF5
:10360300828F83A3A3A3A3A3A3A3A3A3A3E0640180
:103613008E828F83A3A3A3A3A3A37020E05404608B
:10362300030234EE8E828F83A3A3A3A3A3A3A3A336
:10363300A37406F07AB7123857023598A3A3A3A34D
:10364300E060030234EE8E828F83A3A3A3A3A3A31C
:10365300A3A3A37401F002359812261F7C007901FD
:103663007A007B0012264FEA4B6003124D587C0010
:1036730079047A007B0012264FEA4B701380448A48
:10368300828B83A3A3A3A31268B8EE98EF99400B90
:103693008A828B83A3A3A3A31268A07C007904125C
:1036A300264F8B0BA90BEA4970D5C3E5089EE509A4
:1036B3009F500DC3EE9508FEEF9509FFEE4F700D79
:1036C300124D5890167112372AA3F08024EE2EFE65
:1036D300EF338E08F509E4F50AF50B7808120FD9D4
:1036E3007A20123900120FF4121AB59016711212C1
:1036F300D5851882851983E06420FAA3E08016A398
:10370300E054046013125F70122B7179011240DED2
:10371300126E0B6404FB80047A007B00742D026636
:10372300F8EE126706E022E4F0A3F0A3F022124DB4
:10373300C4A3A3E022C082C08374EA1210A67C163D
:103743007D007900AA18AB19121917740812130413
:103753007402F09016061261AC12377874091213D2
:10376300041261C47413121304E4125E431220EBB7
:10377300741602508EE8F0A3E9F0901610126888D0
:103783002274F7120B1274DA1210A6EAFEEBFFEAA8
:103793004F602DAC18AD191226977406121304E06E
:1037A300601E7417121304E0FD7401121304E0FC8D
:1037B300EEFAEFFB790012257DE9600479A480021B
:1037C30079007426024C7A74F7120B12EAFEEBFFAF
:1037D3008A82F583A3A3A3A3A3A3E0544060178A1B
:1037E300828B831266B9124F9D60067AFF7BFF803E
:1037F300151266B5800390160612659374FE6A70FF
:103803000374FF6B60411266B51266DF12272DE960
:103813008E828F83600B1262A2126ECBE4F0A380C0
:1038230003126EBAF07CAD7D258E828F8312461310
:10383300E9F5087015EE4F60097901EEFAEFFB1216
:10384300262BA908024C7D7508CDAA08123857E922
:1038530060E380EE8E828F831262A6240CF582E4ED
:1038630038F583E0F91225B92274F6120B12E9FE3A
:10387300EAFF7A0F7B0012192FEA4B601A8A828BB8
:1038830083740CF0EEA3A3F0EF8A828B83124A3881
:10389300125EA17900802BEEF91226558B09A90936
:1038A300EA49601C8A828B83A3A3A3A3A3A3A3A334
:1038B300A37406124A41E0F9122307EEF9122631E6
:1038C3007910025C8C74F4120B128A088B098C0A2F
:1038D3008D0B901617E0640F701EEA4B4C4D601869
:1038E300901612E064086005E06404700B78081217
:1038F3000FD91238FE120FF4023B637A017B00905A
:10390300165DE0F9121A9774042274F4120B127400
:10391300FC1210A6EAFEEBFF8A82F583A3A3E0F96B
:103923001226558A088B09EA4B7003023A468E82A7
:103933008F83A3A882A983E0C0E0EA125E97D0E058
:103943001248A764F160288E828F83A3E064CD6060
:103953001E8E828F83A3E0641A60148E828F83A3EA
:10396300E064E9600A8E828F83A3E064E1703379B7
:103973000012262BE9602BE5082404F50AE4350937
:10398300F50B850882850983A3A3A3A3A3A31249E7
:103993007D1248851218E1850A82850B831266DF42
:1039A30080708E828F83A3E0C0E07402121304D070
:1039B300E012509C1251BF12432DC0E07403121346
:1039C30004D0E0F0E508126B88123FD6E0AA18ABEA
:1039D30019700512225F8003122715740212130453
:1039E300E064E9702D85088285098312413C750ADC
:1039F30001780A120FE5750AE9780A120FE51248F1
:103A0300591242FAFCA3E0FD8A828B8312432412EB
:103A13000FF4850882850983A3A3A3A3A3A3A3A368
:103A2300A3E064027012850882850983A3A3A3A37C
:103A3300A3A3A3A3A37406F08E828F83A3A3E0F9A9
:103A430012263112261F901890123F487404023B2D
:103A53006074F4120B12EAFEEBFF7508008A82F51C
:103A630083A3A3A3A3A3E06038750808126586792E
:103A7300FF1223DFEA4B601075082C8E828F83A31D
:103A8300A3A3A3A3E0D2E0F08E828F83A3A3A3A377
:103A9300A3E0540364016003023B4F430811023B5C
:103AA3004FEA24181254856036EA241A12548560AA
:103AB30003F470131268687003A3E0696003023BA8
:103AC3004F750822023B4FEA241B123B53241A1260
:103AD3005485FAEE2419125485F91222F5806D8A61
:103AE300828B83A3A3A3A3A3A3A3A3A3123F337094
:103AF300037508018E828F8312686C7003A3E069DB
:103B03007006E508D2E1F508E50860158E828F831B
:103B1300A3A3E07006E508D2E58004E508D2E6F544
:103B230008124F9064017006E508D2E0F5088E8212
:103B33008F83A3A3E06015EE241D1257A4F9122767
:103B43001BE964016006E508C2E0F508A9088010D6
:103B5300F582E43FF583126F23EA227409120FF40E
:103B63007F04020D2974F0120B1274D71210A6EA07
:103B7300FEEBFF8A82F583A3A3A3A3E0600E901854
:103B83008E126723600690188E123F48740312103A
:103B93009E8E828F83A3A3A312606F126591122658
:103BA30097E97003023CF978017405121304E0C32A
:103BB3009402400278007407121304E0C394024095
:103BC300027800740C121304E064F87003A3E0F4A9
:103BD3007003023CF9740C121304E064F97003A33C
:103BE300E0F47003023CF9740C121304E064FA70FD
:103BF30003A3E0F47003023CF9740C121304E064B1
:103C0300FB7003A3E0F47003023CF974061213047F
:103C1300E0F9901600E0696003023CF9E8A2E04095
:103C230003023CF97427121304E06003023CF9EE2B
:103C3300241312687E7422121304126079241C1256
:103C4300687E74101213041261C47409121304E021
:103C5300601D741A121304E0FD7404121304E0FCD3
:103C63008E828F83126591790112257DE9703B74F1
:103C7300031210961225CBE9F50C7409121304E014
:103C8300702C9015FAE060267422596422601F7428
:103C93004259644270147420121304123F2D600EB3
:103CA3007420121304123F2660047ACF804AE9A2DB
:103CB300E6504D74201213041257AA24FD600F140A
:103CC300600C24FD600824FD600424FE7028742029
:103CD300121304123F1F700E7420121304125DD0CE
:103CE300A3E0640D601A7403121096122745E96469
:103CF30001700D023F0F7AD37B00121E6F023F0F3C
:103D0300EE242DF582E43FF5831241337003A3E0E3
:103D130069701D7508007808120FE57808120FE521
:103D2300EE242F125485F9123F39124324120FF453
:103D33007409121304E07003023DD7123F39126570
:103D4300931227938A0E8B0FEA4B7003023E68741B
:103D530004121304E0F88E828F83A3A3E028F8A350
:103D6300E03400F9E8240D123F17F88A828B83A30D
:103D7300A3A3E068600EE88A828B83A3A3A3124AFD
:103D83003112372B7904E91213041254A4A3E02A45
:103D9300F8A3E034008882F583A3AA82AB831219C7
:103DA300238A088B098C0A8D0B850E82850F83A3CA
:103DB300A3A3A37808120F814003023F0F9092132D
:103DC30078081211D5850E82850F83A3A3126F295C
:103DD300A31251C8901612E064046008E0640960FD
:103DE30003023F0FE50CA2E54003023EA2EE242F9F
:103DF30012548DF0EE2430125485C0E07401121376
:103E030004D0E0F0EE2431125485C0E074021213A2
:103E130004D0E0F07414121304E064017026740EED
:103E23001213041248802413125485687003A3E00C
:103E3300697011740C121304123F33700774141257
:103E43001304E4F0EE2425F582E43FF583120E2AF1
:103E5300740412109E7407121096122265740412D1
:103E63000FF4023F0F901657E064016003023DD741
:103E73007420121304123F2D7009E50CA2E65003BF
:103E8300023DD77410121304E0F47003A3E0F4604E
:103E93007BEEFCEFFD74031210961225D7806DA202
:103EA300E6506974201213041262B27016741A1267
:103EB3001304E064027055740312109679001227FC
:103EC3000F80497420121304123F267014741A12BF
:103ED3001304E064047035740312109612270380F0
:103EE3002B7420121304123F1F700C7900740312F9
:103EF300109612275180157420121304125DD0E01E
:103F0300640C7008740312109612275D74290266FC
:103F1300F8E82406F582E439F583E0221266BFE06F
:103F23006403221266BFE06407221257AE640622BE
:103F3300124FA1640222EE242BF582E43F126F217B
:103F4300EE124F7622E0F508A3E0AA08FBE4FCFD9D
:103F53001225BF2274F4120B12EAFEEBFF8C088DBC
:103F630009901578E0600F1268687003A3E0697028
:103F7300051222E3805379001265861223138A8285
:103F83008B83E5824583602CA3A3A3A3A3A3E0545F
:103F9300186021E508241C123FD3120E2E123FCFC6
:103FA300120E2EEE241812430B125A6B1268401293
:103FB3000FF4801579008E828F83A3A3A3126298D6
:103FC300125A6B1265931222E9023B63E50824132C
:103FD300F582E43509F5832274F7120B1274F71294
:103FE30010A6EAFEEBFF901612E06403600DE06496
:103FF300016008E0640960030240D98A828B83A3CD
:10400300E060030240A77C007D007A027B00121867
:10401300DB1268E58A821268829016031261C47902
:10402300531220D9901612E06409600990161012F9
:10403300659312278D8518828519837401125DE8B3
:104043009016127404F07401121096794A1220D358
:10405300740112109E7A087B16121ACD90148BE00D
:10406300640B70057406F0800579001240DE90162B
:104073000312629E7A037B001218DB90160612620B
:104083009E7A047B001218DB9015FDE0A2E3500436
:10409300D2F08002C2F0125DD590188A1212C912B2
:1040A30025BF802FFC7D007A037B101218DB901450
:1040B3008BE0640B7003740AF090157CE4F0FA7BD8
:1040C30040125BC58E828F83A3E0F91240DE901607
:1040D30012E4F01226017409024C7A90161012654C
:1040E3009712227722C082C083901596126723709D
:1040F30017901612E024FB6005146007800A9015E0
:104103009C801F90159E801AE8496007123F146433
:1041130001700C8A828B83A3E0F912226B800E90CC
:10412300168C1267236006125DD1120C8A02591C89
:10413300126888901610E06822126888E8FAE9FB92
:104143002274F5120B1274D81210A68A088B098AEE
:10415300828B83A3A3A3A3A3A3A3A3E0C3940F501E
:10416300030242F58A828B83A3A3A31268A074156A
:1041730012109E8A828B83A3A3A3A3A3A3A3A31238
:1041830042FAFAA3E0FB12260D7415121304E07031
:104193002E850882850983A3A3A3A3A3A3A3A3E0D6
:1041A300C3940B401A8E828F83A3A3A3A3A3A3A3B9
:1041B300A3E064027009EE240B125485F460030239
:1041C30042F57417121304E06007640260030242AD
:1041D300F5901612E06402601CE064066017901507
:1041E3009612672370030242F5123F1464016003C1
:1041F3000242F58025901596126723701D750800FD
:104203007808120FE57808120FE5EE241012430B1D
:104213008E828F83124324120FF48E828F83126E49
:10422300F81248B0126884740212130412607912EF
:104233003725C0E07404121304D0E012432DF508AF
:10424300A3E0F509740F780812128F740512130492
:10425300E508F07419121304E0C0E07406121304A5
:10426300D0E0F0741B121304E0C0E07407121304CF
:10427300D0E0F07416121304E0C0E07409121304C2
:10428300D0E0F07417121304E0C0E07408121304B2
:10429300D0E0F0EE2410125485C0E0740A12130427
:1042A300D0E0F0741A121304E0C0E0740B1213048C
:1042B300D0E0F07427121304E0C0E0740C1213046E
:1042C300D0E0F0741C121304A982AA8389088A0916
:1042D300750A007808120FDD7C087D007410121334
:1042E30004AA82AB8312547C120FF4AA18AB1912DE
:1042F30022717428024DD8E0F98A828B83A3A3A389
:10430300A3A3A3A3A3A3E022F582E43FF583E0F9EB
:104313008E828F83A3A3A3A3A3A3A3A3A3126F2319
:10432300221265971226CD740222F0EE125A70E023
:104333002274F2120B1274F81210A68A0A8B0B8CD9
:104343000C8D0D8908909167AC18AD197408120F84
:1043530022C200AC0AAD0BAA18AB19126514700285
:10436300D20090165E8013AC0AAD0BEE240BFAE478
:104373003FFB126514701B124F67124BFA601EA2AB
:104383000040E48E828F83E0650C7004A3E0650D2A
:1043930070E58E828F83A3A3E0650870DAEEFAEFEF
:1043A300FB74080248BDC082C08390165E0259198F
:1043B300C082C08390165EE4F0A302460F74F71226
:1043C3000B1290165E126E11800FEA2414F582E42C
:1043D30012689D1219E9EEFAEFFBEA4B70EC9016A6
:1043E3005EE4F0A3F0024C7D74F2120B128A0C8B84
:1043F3000DEDFF890B8A828B83E08C828D83F0A382
:10440300A882A9838A828B831244B4124A2BE0C404
:1044130054F0FA88828983E04AF0EC2402F8E43FFE
:10442300F9850C828B83A3A31244B41244C7E033EF
:104433003354FC1244BBE033333354F81244BBA36C
:10444300E0A2E0E4331313FA88828983E04AF0ECB4
:104453002403FE50010FE50C2407F508E4350DF5A0
:1044630009750A007808120FDD7C087D00EEFAEF6B
:1044730012547B120FF4EE2408FE50010FE50C24B6
:104483000FF508E4350DF5097808120FDD7C037D7F
:1044930000EEFAEF12547B120FF4E50BC3940F40B6
:1044A3000DE50C2412F582E4350D125A7FF0024813
:1044B300C0A3E08882898322FA88828983E04A1232
:1044C30044C7A322F0850C828B83A3A3A3A32274E6
:1044D300F2120B12EBFF8C0C8D0D8A82F583E08CAC
:1044E300828D83126EE2A3A882A983E01258C412BC
:1044F30048A6C41258BEF0EA126EEC1258CB12480A
:10450300A4A2E2E4338C828D831248A313131354C1
:104513001F1258C4A31248A3A2E7E4338C828D83ED
:10452300A3A3A3A3A3A3F0EA2403FE50010FF5085A
:104533008F09750A007808120FDD7C087D00E50CF1
:104543002407125477120FF4EE2408FE50010FF5DE
:10455300088F097808120FDD7C037D00E50C240F1A
:10456300125477120FF48E828F83A3A3A3E0C0E0CB
:10457300126F08D0E0F00248C074F6120B12EAFE84
:10458300EBFF8A82F583A3858208858309E0F9120C
:10459300228F850882850983E064EB601E8E828FFB
:1045A30083A3E064E160148E828F83A3E064F160EF
:1045B3000A8E828F83A3E0641A70078E828F83A38F
:1045C300E4F090188A1212C91225BF750801780801
:1045D300120FE58E828F83A3E0F5087808120FE5AA
:1045E300790090161012629E901606124324120F41
:1045F300F412261F025C8CC082C083E9901670708F
:1046030003E4800274018004EAF0A3EBF002591C76
:104613001265971220F12274F6120B12901670E0B5
:10462300701B7C0079017A007B0012264FEA4B60F5
:104633000C8A828B8312672360031225B3025C8C7E
:10464300C082C083124ADA401079FF122649E9F882
:10465300903311E493C398500479018002790002E6
:10466300591C74F2120B128A0A8B0B8909C2008A35
:10467300828B83A3A3A3A3A3A3A3A3E0F912265529
:104683008A0C8B0DAE0CAF0D750801EA4F60030267
:104693004746850A82850B83126298850A82850BB9
:1046A30083A3A3A3A3A3A3A312488512263D8A0C25
:1046B3008B0DAE0CAF0DEA4F70030248528A828B0A
:1046C30083A3A3A3A3E4F0A3F0E50A240CFAE4353F
:1046D3000BFB8A82F583E0C0E0124859D0E0F0E595
:1046E3000A240D124879240D1261BE122733124F8A
:1046F3007F1266DFE50A241112487924111261BE84
:10470300E50A24131268AFC0E0124F71D0E0F0D273
:1047130000EE2406F8E43FF912486C1248A754044B
:1047230060030247B890189CE0F50A750B00740704
:10473300780A12119C8E828F83A3A3A3A3A3A3122F
:104743004863F08E828F83A3A3A3A3A3A3E0F50AF8
:10475300A3E0F50B7407780A12128FE50A5407FCDD
:10476300E50960618E828F83A3A3A3A3A3A3A3A35D
:10477300A37402124DD2124B6F600B9015FE1255AB
:1047830005A3A31261C4EC7003024829EE2406F8C2
:10479300E43FF9E8FAE912486CF0EC24FFF50AE487
:1047A30034FFF50B7407780A12119C8A82898312ED
:1047B3004863F080718E828F83A3A3A3A3A3A3E096
:1047C3004480024745EC700575080080598E828F3E
:1047D30083A3A3A3A3A3A3E05420600C121929EA83
:1047E300547F7900245F80198E828F83A3A3A3A3B0
:1047F300A3A3E05410601A121929EA540F79002474
:104803000A5001098E828F83A3A3A3A3F0A3E98097
:104813000D8E828F83A3A3A3A37401F0A3E4124894
:10482300B07404124AF0A20050288E828F83A3A38F
:10483300A3A312659DF9EEFAEFFB122643E960127A
:1048430012671C6003124892EEFAEFFB1219E97526
:104853000800A9088067EE240CF582E43FF5832263
:10486300E0450AF0A3E0450B228882F583E0547FFC
:10487300F0A3E054FC22F582E4350BF5831268883B
:10488300EE22A3E0F9850A82850B83126597221233
:104893004899124CEF22EE240FF582E43FF5832270
:1048A300A3A3A3A31248AB221268CBE0221248B4FD
:1048B30022124DC8A3A3A3227403120FF47F06028E
:1048C3000D2974F4120B1274F71210A67E0012262F
:1048D30055EA4B70030249788A828B83A3A3A3A36F
:1048E300A3A3A3A3A3E0640660030249788A828B8F
:1048F30083A3A3A3A3A3A3A3E0FF8A828B83126E44
:10490300AAE0C0E07408121304D0E0124CA01261B4
:10491300B11261C4122667EF540860578518828567
:10492300198312629E7A007B00122637EA4B70438A
:10493300126F137C007D007A007B0080228E828FB1
:10494300831257AAF47003A3E0F4602790161012A1
:10495300497D124C82601C7C007D00EEFAEFFB1255
:1049630026378A0A8B0BAE0AAF0BEE4F70CF790056
:104973001221097E01EEF9023B5E12498122E0FC1D
:10498300A3E0FD8E828F8322C082C0838A828B83C1
:10499300E5824583700990167580068A828B83A30E
:1049A300A3124BA360208A828B83A3A3A3A3A3A3F5
:1049B300A3E0540860E5EC4D6010124BA97003A30B
:1049C300E06D70D780047A007B0002591C74F212E8
:1049D3000B128A088B09890AECFEEDFF7A147B001F
:1049E3001219E3EA4B60378A828B83A3A3A3A3A3A1
:1049F300A3A3A3A3E4124A41E50A124C8CEEF0A34D
:104A0300EF124A31124CA7124A388A828B83126FF3
:104A13002B124A2412661AA3124A2BF0A3F002485F
:104A2300C0EA240FF582E422126EE6A3A322124CFD
:104A330092E4F0A322A3F0126EA312661A22124A82
:104A43004522124C96A3A3A3A32274F5120B12EAD8
:104A5300FEEBFF890A8C088D09EA4F6075740169C2
:104A630070127901122649E9F8903313E493C3983D
:104A73005015800A7404697009124ADA50097911D1
:104A83008052740269704B8E828F83A3A3A3A3A366
:104A9300A3A3A3A3E50A124AE91251BF1267A4A371
:104AA300E4F0A3F090167512672360188003126870
:104AB3008488828983A3A3124BA388828983A3A3B7
:104AC30070EC8003901675EEF0A3EF124AF07900B4
:104AD300800279C1024DDB7904122649E9F890334B
:104AE30012E493C398221267A8A3A3A322F07A2007
:104AF3007B0090165DE0F912197122C082C083E930
:104B0300F87900901675801D8A828B83A3A3A3A3D3
:104B1300A3A3A3A3A3E068600574FF687001098AD7
:104B2300828B83A3A3124BA370DE02591C74F7126A
:104B33000B12EA4B700590167580068A828B83A34D
:104B4300A3124BA3601F8A828B83A3A3A3A3A3A354
:104B5300A3A3A3E06970E4EC600F8A828B83124BFA
:104B63006F70D880047A007B00024C7D126EC3E024
:104B7300540422C082C08390167580068A828B8378
:104B8300A3A3124BA360128A828B83A3A3A3A3A321
:104B9300A3A3A3E06970E580047A007B0002591C9B
:104BA300126597EA4B228A828B831257AE6C22746A
:104BB300F2120B128A0A8B0B8C0C8D0D7508007583
:104BC3000900EA4B602A90167580068E828F83A3B4
:104BD300A3124BFA601AAC0CAD0DEEFAEFFB850A8B
:104BE30082850B83120C8AE9640170DF8E088F09BA
:104BF300AA08AB090248C0E0FEA3E0FFEE4F22740F
:104C0300F7120B129016751268847C007D00800DDC
:104C1300E8FCE9FD88828983A3A3126884E84960DC
:104C230030EA687002EB6970E7901675126593E8D5
:104C33006A7002E96B88828983A3A370081268846F
:104C430090167580091268848C828D83A3A31261E8
:104C5300C4802774F7120B12EAFEEBFFEA4F6015CC
:104C6300122661124CDB12671C6003124892EEFAA3
:104C7300EFFB1219E98003120FF47F01020D2912D1
:104C830065971220FDE9641A22124C92A3A3221203
:104C93004C9622F08A828B83A3A3A3A322126EE6EF
:104CA3001257AE22124A45A32274F6120B12901623
:104CB300751268A080141268BD124CDB124892EE84
:104CC300FAEFFB1219E9AE08AF09EE4F70E8901640
:104CD30075E4F0A3F0025C8C8E828F83126E97F5DD
:104CE30083124CEF8E828F83124CEF22E0FAA3E003
:104CF300FB1219E922C082C083EAFCEBFDEA4D6096
:104D030017EA24FBF582EB34FF1267217007124D7B
:104D13004DE0F460071219357905802B90165DE09C
:104D2300C0E0124D4DD0E0F090330AE493F97A7766
:104D33007B1612196BE96401700B7A007B20124D0C
:104D43005C79008002790402591CEA24FFF582EBA6
:104D530034FFF583227A207B0090165DE0F9121967
:104D6300712274F4120B12A2AFE433F508C2AF90B0
:104D73001677124BFA6038EE24FBF582EF34FF12FC
:104D830067217A007B2090165D6005124D5F8005D8
:104D9300E0F9121977E4F50AF50B780A120FE1EE40
:104DA300FCEFFD7A777B161219657402120FF4E596
:104DB30008A2E092AFEEFAEFFB023B63124DC4E0B0
:104DC30022124DC822124DD2A3A3A3A3A3A322F060
:104DD3008E828F8322120FF47F03020D2974F21245
:104DE3000B1274FA1210A6EAFEEBFF7508FE7509A2
:104DF300FF122625E960057911024F621254826081
:104E03003C9018B7E0C43354E0F8E0333354FC4823
:104E1300C0E0EE125E913FF583D0E01268DFFAA3A3
:104E2300E0FB79FF1223DFEA4B60127508FFEE24E3
:104E33000F1254854404F0125482D2E0F08E828F14
:104E430083124F9B6006EE24121268F7EE241312AE
:104E53005485700D903307E493C0E0124F71D0E096
:104E6300F08E828F83E0A2E7500454038019EE246E
:104E73001412548570129015EFE0C0E0124F67D002
:104E8300E0F09015EFE004F0EE2411125485640174
:104E930070169018A0E0600D9015FAE0700A8E82EB
:104EA3008F83E070031268F48E828F83E064017055
:104EB30013EE240B1257A464027009EE240F12544C
:104EC300854440F0AC18AD19EEFAEFFB1226918A37
:104ED3000A8B0B74FE6508700374FFF47003126889
:104EE300BDEA4B60768E828F83E0C0E074011213BB
:104EF30004D0E0F07404121304EEF0A3EFF0EE24F8
:104F03001E12687E74021213041261C4740112101B
:104F13008E880C890D780C120FE1EE2420124F8439
:104F2300120FE5124F7F120E2EEE240E124F841233
:104F33000FE5901603120E2E7408121304E0F9AC59
:104F430008AD0912268B7408120FF4E9FE74106E73
:104F5300700BAA0AAB0B1219E980027E10EEF974EA
:104F6300060248BDEE2414F582E43FF58322EE12D7
:104F73004F76222413F582E43FF58322EE12489AFA
:104F830022F582E43FF583E0F50C780C228E828FC4
:104F930083A3A3A3A3A3A3A3A3A3124FA122E0FAD2
:104FA300A3E0FB12272DE922C082C08374D712101D
:104FB300A6908EB1740312109E7426120F228A8259
:104FC3008B83A3A3A3A3126884740E121304126722
:104FD30029126884740C1213041250A4240D125065
:104FE30094C0E0741A121304D0E0F0126620126821
:104FF3008274201213041250A42415125094C0E09A
:105003007408121304D0E0F0EA241CF582E43B1286
:10501300688274121213041250A42411125094C003
:10502300E07409121304D0E0F0EA2412125094C081
:10503300E07407121304D0E0F0EA241EF582E43B87
:1050430012688274241213041250A4242012509460
:10505300C0E07426121304D0E012509C74FFF07465
:105063000112130474FFF0740212130474FFF0901E
:105073009233120E2A740412109E740712109612A1
:1050830022657404120FF479007429120FF4025983
:105093001CF582E43BF583E022F0851882851983B1
:1050A30022E8F0A3E9F0EA2274F4120B1274EC1272
:1050B30010A68A0A8B0B8C088D09E9FF7E107A21D2
:1050C3007B001219E3851882851983EAF0A3EB129A
:1050D3006733E84970030251B87C217D007900856C
:1050E3001882851983E0FA12191790161012659326
:1050F3008518828519831262A22409F582E438F5A2
:10510300831266DF7420121304126884741112135D
:1051130004E81258131266E538F583740212581620
:10512300126EB174021258001251BF125816126E49
:105133008EEFF074221213041257C1F9A3E0C912BF
:105143006B8839F583E81254D6A3E0C9241FF5828E
:10515300E4391251C67423121304126593740612B0
:1051630013041266DF7408121304E8F07426121392
:10517300041266B9C082C083740C121304AC82ADEE
:1051830083D083D0827405120F227425121304E096
:10519300C0E07413121304D0E0F07900AA18AB191D
:1051A30012262BE9640170047E008009851882852C
:1051B3001983124895EEF97414023B60E508F0A3D5
:1051C300E50922F583E50AF0A3E50BF02274F0125A
:1051D3000B1274FF1210A6EAFEEBFF8C088D098AEE
:1051E30082F583A37408F0EA241612548560088AB2
:1051F300828B83A37410F0EA241712548560098A02
:10520300828B83A3E02408F0EA12548360088A8225
:105213008B83A3E004F08A828B83A3A3A3A3A3A31A
:10522300E060198A828B83A3A3A3A3A3A3A3E0C3F0
:10523300332402F88A828B83A3E028F0EA24111234
:10524300548D6004740E8001E4F09018AFE06401A3
:1052530070168A828B83E06401600D90157CE06098
:105263000712546D7401800412546DE41254D68AEB
:10527300828B83A3E0F8EA12372528298C828D8359
:10528300F0EA24111254856005125AAE29F08508FC
:1052930082850983E0C394754009750C00750D0080
:1052A300025464E0FA7B001219E38A0C8B0DEA4B7B
:1052B30070030254648E828F83E0FA9016001254B6
:1052C300CF7402780812119CEA4508FAAB09EE2460
:1052D300121254C97406780812119CA808EA48FCF3
:1052E300EBFD1254826004780180027800EE2416EC
:1052F300FAE43FFBE4C8F9ED49FDEE2411125485AD
:10530300F50888097409780812119CED4509FD8A8E
:10531300828B831254CF740B780812119CED4509CC
:10532300FDEE24171254C9740C780812119CED4534
:1053330009FD8E828F83A3A3A3A3A3A31254CF74C7
:105343000A780812119CED4509FDEE24231254C975
:10535300740D780812119CED4509F9EC850C8285D2
:105363000D83F0E9A3F0EE24021254AC1254EBF0D7
:10537300EE24041254ACA3A31254EBA3A3F0EE2423
:10538300131254BCF0EE24141254BCA3F0750B0892
:105393008A828B83E0601512679512629EE50C2466
:1053A30008FAE4350DFB121ACD750B10EE24171213
:1053B3005485601912632112629EA80BE50C28FA2A
:1053C300E4350DFB121ACD7408250BF50B8E828F75
:1053D30083A3A3A3A3A3A3E0604EEE2407F50EE4E7
:1053E3003FF50F850E82F583E0C0E012549BD0E0B9
:1053F3001254DBE0C0E00812549DD0E01254DBA34A
:1054030012670F120FDD850E82850F83E012577529
:10541300A80BE50C28125477120FF4850E82850F22
:1054230083E0C333250BF50B1254826008C0E012EE
:10543300549BD0E0F0125A6B12670F120FDD123734
:1054430024FC7D0074031213041254A4E0F8E50C49
:1054530028F8E4350DF9E82AFAE43912547B120FDF
:10546300F4AA0CAB0D74010266F8EA2423F582E476
:105473003FF58322FAE4350DFB12190B740322EE78
:105483002415F582E43FF583E022F582E43FF583BA
:10549300E085188285198322A80BE50C281257880A
:1054A30022E0FA8E828F83A322F8E43FF98882F503
:1054B30083E0850C82850D8322F582E43FF5831218
:1054C30054F5A3A3A322F582E43FF583E0F5087521
:1054D300090022126ED4F922F0050B8E828F83A36A
:1054E300A3A3A3A3A3A3A322A3A31268CBA312548E
:1054F300F522E0850C82850D83A3A3A32274030206
:105503003B601268888E828F83A3A32274F0120BF0
:105513001274FD1210A61266D97402121304E9F074
:105523008C0C8D0D750B017C267D007900AA0CABCC
:105533000D1219177402121304E0C39408500302E6
:1055430056FE1254B4F0AC0CAD0D85188285198348
:105553001257AAFA851882851983125DD0125AA7A9
:10556300E96003750B008518828519831266B912E9
:1055730057CBE0F9EA850C82850D83A3A3A3A3A3EC
:10558300A3A3A3A3F0A3E9125800A3A31257CBA389
:10559300A3E0F9E50C126738EA12581312628EC0C1
:1055A300E0E50C2411126F0CD0E01258162407F515
:1055B30082E438F583E0C0E0126F08D0E01266CCD5
:1055C30074081257F7A3E06026851882851983E0D3
:1055D3002408F8A3E03400F9E50C2413F582E4353C
:1055E3000D1261C2850C82850D83A3E02408F0852A
:1055F3000C82850D83A3A3A3A3A3A3A3A3E0602A83
:10560300850C82850D83A385820E85830F1257B87F
:10561300F8A3E03400F9E50C125E91350D1261C276
:10562300850E82850F83E02408F012577CE4F01284
:105633005790E4F0A31266CCA3A3A3A3E0601112D6
:1056430057DC850C82850D83A3A3A3A3A31258085B
:10565300E50C12579DE070030256EA1257DCFA126A
:10566300577CEA125808F8851882851983E028FBCD
:10567300A3E034008B82F583E0F8E50C241A126F63
:105683000CE8125808E8C39AE50C5056125798F8DC
:1056930090330BE493C39850047E0C8006E50C1200
:1056A3005798FE850C82850D831257B7F508A3E042
:1056B3003400F509750A007808120FDDEE125775EC
:1056C3007A187B0B12547C120FF41257907418F053
:1056D300A3740BF0EEC333F8850E82850F83E028A5
:1056E300800412579DE4F0850C82850D83A3E0F8B6
:1056F300850C82850D83E0C3985004790080701275
:1057030057B7FAA3E03400FBE50C1268EE126F0FF3
:105713001266DF850C82850D83E0C398C0E0E50C3B
:105723002417126F0CD0E01257F7E06040E50C2409
:1057330017FEE4350DFF8E82F583E024F2F0E50CCD
:10574300241DF8E4350DF98882F583E0240EFAA3CD
:10575300E03400FB888289831266DF9015FBE0F951
:10576300122583E9F88E828F83E0C398F0A90B0298
:1057730066F625E0FCE433FD22E50C125782222471
:105783001912578822F582E4350DF58322E50C249E
:105793001B12578822125782E0221266C612578BB9
:1057A30022F582E43FF5831257AE2212688DF5830A
:1057B3008882E022A31257BC221257C12822E0F8A4
:1057C300851882851983E022A3A3E0FA85188285D0
:1057D30019831266BFA3A3A322850C82850D83A31D
:1057E30085820E85830F1257BCFAA3E034008A82A8
:1057F300F583E0221266D0A3A3A3A3A32212581B0E
:10580300F583888222F0850E82850F83E004F022DF
:10581300F0A3E912581BC822126ED8F8A3E0227431
:10582300F4120B128A088B09EA1258CBA3A3F0EAED
:105833001313543F1258BEA3F0EAC413131258CBE8
:105843001258D57409780A12128F1258B5A3A3A35C
:10585300A3A3A3F0EB1258B71258D4740A780A1210
:10586300128FE50A5401C0E0EC1266C63DF583D001
:10587300E01258D9740B780A12128F1258B51258C5
:10588300D2740C780A12128F1258B5A31258D2741C
:105893000D780A12128FE50A5401C0E0EC2424F5B6
:1058A30082E43DF583D0E0F0740E780812128F0283
:1058B3003B4FE50A54018C828D83221258C4A3A363
:1058C30022540F8C828D832254038C828D8322A3D6
:1058D300A3A3A3A3A3A3F08A0A8B0B22C082C08332
:1058E30079008A828B83A3A3A3A3A3A3E09015FAD1
:1058F300600EE0701F8A828B83A3A3E07016801270
:10590300E06011126586901603E06A7003A3E06BF2
:10591300600279018003126593D083D082020FA6BF
:1059230074F2120B128A0A8B0B890CECFEEDFF8AC0
:10593300828B83E0FA125AA7850A82850B83A3A37D
:10594300125A9BE0F9EA8E828F83A3A3A3A3A3A396
:10595300A3A3A3125AC0125A9BA3A3E0F9125A6B32
:10596300EA125AC0A3A3E0C0E0EE2411F582E43F9B
:10597300F583D0E0125AC7A3A3A3E0C0E0EE24123C
:10598300F582E43FF583D0E01267A47408124AE974
:10599300A3A3A3E06017E50A2408F8E4350BF91282
:1059A3004F71E8F0A3E91267A4E02408F08E828F18
:1059B30083A3A3A3A3A3A3A3A3E060188E828F83CF
:1059C300A3125A8AEE24151261BE850882850983C3
:1059D300E02408F08E828F83A3A3A3A3A3E0602413
:1059E3008E828F83A3858208858309E0F8E50A28E0
:1059F300F582E4350B125A7FA3A3F085088285094B
:105A030083E004F0EEFAEFFB1226A3E9F50D7049EB
:105A13008E828F83A3A3A3A3A3A3125A79A3701483
:105A2300E0F8E50A28FAE4350BFB125A611266DF47
:105A3300E50C801A125A8AE8240EF8500109EE2464
:105A43001D1261BE125AAEF9E50CC39924F2C39834
:105A5300C0E0EE126318D0E0F0A90D0248C0EE24B6
:105A63001DF582E43FF58322EE125A7022240BF5D2
:105A730082E43FF58322E08E828F8322F583E08EDA
:105A8300828F83A3A3A322858208858309E0F8E597
:105A93000A28F8E4350BF922E0FA850A82850B839C
:105AA300A3A3A32212690012269D229015FBE0F9FD
:105AB300122583E9F8850882850983E022F0A3E9AA
:105AC300125AC722F0850A82850B83A3A3A3A322BC
:105AD300C082C0837A837B1679E21220D37A837BD8
:105AE3001602591CC082C083901603025919C08242
:105AF300C083901606025919C082C083794A1220C6
:105B0300D302591C74F6120B1290168BE0FE04F0AC
:105B1300EEF9122655EA4B70F0EE60EDF9025C8C5B
:105B230074F2120B12EAFEEBFF8C088D09890A123C
:105B33002793740E121304E0F9740F121304E0F8A0
