:020000040000FA
:1000000002004A7582A0758316740012005C7A00A3
:100010007B0290007A782A79088015E493A3AD8258
:10002000AE838A828B83F0A3AA82AB838D828E8378
:10003000D8E9D9E7758258758314740012005C758D
:1000400082E2758316740012005C75D0007581BF62
:10005000751000751102759F0002000EC09FF59F7C
:10006000E473D09F22D083D082C09FE493C0E07419
:100070000193C0E0740293F59F22000000BDF1805F
:10008000804020100824C304081020408080000015
:100090000000020202028242221A0600000000CC86
:1000A000EC40404242424242FE42424242424040D2
:1000B0000080804020100C0300030C102040808042
:1000C00000C6F820104C4754545454545454D4048B
:1000D00004000000000000000000000000000F30DD
:1000E00040F000CEC21060028C0000FE929292920C
:1000F00092FE00000004047E01407E42427E427E69
:1001000042427E4000B6C80000FC242424FC252680
:1001100024FC242424040040308F80844C55252561
:1001200025554C80808000A3BA000000000000002C
:100130000000000000000000000000363600000053
:10014000000000000000000000A1E6060909E6F832
:100150000C040202020202041E0000000000071F3D
:100160003020404040404020100000CAAA106002E9
:100170008C00FE929292929292FE00000004047E05
:10018000014448507F40407F5048444000000000F8
:10019000000000000000000000000000000000005F
:1001A000F800000000000000333000000000100CD8
:1001B00006100C0600000000000000000040C0789F
:1001C00040C0784000043F04043F040400007088ED
:1001D000FC08300000001820FF211E0000F008F08D
:1001E00000E018000000211C031E211E0000F00882
:1001F00088700000001E2123241927211010160EDC
:1002000000000000000000000000000000000000EE
:10021000E01804020000000007182040000002045B
:1002200018E0000000004020180700000040408057
:10023000F0804040000202010F01020200000000B5
:10024000F0000000000101011F0101010000000099
:10025000000000000080B0700000000000000000FE
:100260000000000000000101010101010100000087
:10027000000000000000303000000000000000001E
:100280000080601804006018060100000000E01003
:10029000080810E000000F102020100F00001010C0
:1002A000F8000000000020203F202000000070081F
:1002B000080888700000302824222130000030080F
:1002C00088884830000018202020110E000000C04F
:1002D0002010F8000000070424243F240000F80840
:1002E00088880808000019212020110E0000E01065
:1002F0008888180000000F112020110E0000380817
:1003000008C83808000000003F00000000007088A6
:100310000808887000001C222121221C0000E01027
:10032000080810E0000000312222110F0000000038
:10033000C0C00000000000003030000000000000DD
:1003400080000000000000806000000000000080CD
:100350004020100800000102040810200040404026
:100360004040404000040404040404040000081059
:1003700020408000000020100804020100007048A6
:10038000080808F0000000003036010000C030C846
:1003900028E810E0000718272423140B000000C0F1
:1003A00038E0000000203C23020227382008F888AB
:1003B0008888700000203F202020110E00C03008E7
:1003C0000808083800071820202010080008F8083E
:1003D000080810E000203F202020100F0008F888B7
:1003E00088E8081000203F20202320180008F88803
:1003F00088E8081000203F200003000000C03008FB
:10040000080838000007182020221E020008F808FB
:10041000000008F808203F210101213F20000808C2
:10042000F8080800000020203F20200000000008FD
:1004300008F8080800C08080807F00000008F88865
:10044000C028180800203F20012638200008F8089E
:100450000000000000203F20202020300008F8F895
:1004600000F8F80800203F003F003F200008F83067
:10047000C00008F808203F200007183F00E01008DF
:10048000080810E0000F10202020100F0008F808C6
:10049000080808F000203F210101010000E01008D9
:1004A000080810E0000F18242438504F0008F8887E
:1004B0008888887000203F2000030C30200070885E
:1004C00008080838000038202121221C00180808DC
:1004D000F8080818000000203F2000000008F80875
:1004E000000008F808001F202020201F000878883E
:1004F0000000C83808000007380E010000F80800A6
:10050000F80008F800033C0700073C0300081868DF
:10051000808068180820302C03032C30200838C84D
:1005200000C83808000000203F2000000010080824
:1005300008C83808002038262120201800000000B4
:10054000FE020202000000007F40404000000C302C
:10055000C000000000000000010638C000000202D8
:1005600002FE000000004040407F00000000000448
:100570000202020400000000000000000000000071
:100580000000000000808080808080808000020267
:1005900004000000000000000000000000000080D7
:1005A00080808000000019242222223F2008F800C9
:1005B0008080000000003F112020110E000000008C
:1005C0008080800000000E1120202011000000001B
:1005D000808088F800000E112020103F200000804D
:1005E0008080800000001F222222221300008080D1
:1005F000F0888888180020203F202000000000801C
:100600008080808000006B94949493600008F800D0
:100610008080800000203F210000203F2000809843
:1006200098000000000020203F2020000000000073
:10063000809898000000C08080807F000008F8004B
:100640000080808000203F24022D30200000080818
:10065000F8000000000020203F2020000080808063
:100660008080808000203F20003F20003F8080006D
:100670008080800000203F210000203F200000807B
:100680008080800000001F202020201F008080002C
:10069000808000000080FFA12020110E00000000DB
:1006A0008080808000000E112020A0FF808080804C
:1006B000008080800020203F212000010000008079
:1006C000808080800000332424242419000080804E
:1006D000E0808000000000001F20200000808000DB
:1006E0000000808000001F202020103F208080809C
:1006F000000080808000010E30080601008080002C
:1007000080008080800F300C030C300F0000808050
:1007100000808080000020312E0E312000808080FB
:10072000000080808080818E70180601000080802B
:1007300080808080000021302C22213000000000C9
:1007400000807C020200000000003F4040000000EA
:1007500000FF00000000000000FF00000000020297
:100760007C800000000040403F00000000000601C7
:100770000102020404000000000000000049647847
:100780003A2025640054656D703A20256400487550
:100790006D693A202564002D00250000000000FF4F
:1007A000FF000012006514160012006530160012DA
:1007B0000065971200120065A51200120065BA13B9
:1007C00000120065C51300120065301400120065A8
:1007D000A01500120065C51500120065DC15001299
:1007E0000065F31500120065E30E00120065FE0EB1
:1007F00000120065340F00120065FB0F0012006547
:10080000131000120065AD1000120065D510001223
:100810000065801100120065F016001200650300EB
:1008200000120065131500120065C4160012006561
:10083000B20A00120065040B00120065711600C0B8
:1008400008C3E096F50808A3E096420808A3E096DE
:10085000420808A3E0964208A2D265D033E50870AA
:1008600001D3D00822E4CFC0E0E4CEC0E0E4CDC0A4
:10087000E0E4CCC0E075F020E626F608E633F608A2
:10088000E633F608E633F6181818EC33FCED33FDC2
:10089000EE33FEEF33FFC3EC9709ED9709EE9709AE
:1008A000EF97191919400FFFEC97FC09ED97FD0917
:1008B000EE97FE191906D5F0BFECF709EDF709EE32
:1008C000F709EFF7191919D0E0FCD0E0FDD0E0FEF0
:1008D000D0E0FF22E4C396F608E496F608E496F624
:1008E00008E496F622E056F608A3E056F608A3E0E0
:1008F00056F608A3E056F622E0F608A3E0F608A3B1
:10090000E0F608A3E0F622E6F008A3E6F008A3E686
:10091000F008A3E6F022E0F8A3E0F9A3E0FAA3E0F0
:10092000FB22CAC0E0E6F0A308DAFAD0E0FA22CA55
:10093000C0E0E0A3C582CCC582C583CDC583F0A34A
:10094000C582CCC582C583CDC583DAE6D0E0CA2294
:10095000251010AF08F510400C15118008F5104057
:10096000021511D2AF2200C0D0251010AF08F5102B
:10097000500C05118008F51050020511D2AFD0D0EF
:10098000222510F58210AF08F510400C15118008D3
:10099000F51040021511D2AF851183222510F58282
:1009A000E43511F583222510F8E43511F9222510DC
:1009B000FAE43511FB222510FCE43511FD22E47325
:1009C0002510C582C0E0E51134FFC583C0E0E51005
:1009D000C3958224F810AF088583118582108008A2
:1009E000858311858210D2AFCEF0A3E520F0A378E5
:1009F00008E608F0A3DEFAEFF0A3E58124FAF8E6B2
:100A000008F0A3E608F0A3E608F0A30808E608F05B
:100A1000A3E608F0A315811581D0E0FED0E0F8151B
:100A20008115811581E8C0E0EEC0E0228511838543
:100A30001082E0A3FEE0A3F5207808E0A3F608DF2B
:100A4000FAE0A3FFE0A3C0E0E0A3C0E0E0A3C0E0C1
:100A5000E0A3C0E0E0A3C0E010AF0885821085836A
:100A6000118008858210858311D2AFD083D0820295
:100A70000062740280027401C0E0F404120981D0A3
:100A8000E01209222274028000CCC0E0EDC0E0E553
:100A900010C39CCCAD1150011D10AF068C108D11F0
:100AA00080068C108D11D2AF12092FD0E0FDD0E05E
:100AB000FC2274F21209C08A0A8B0BECFAEDFB746B
:100AC0000E12099CE0FEA3E0FF741012099CE0F5F1
:100AD00008A3E080228E828F83E0F9850A82850B4D
:100AE000831209BE8E828F83A3AE82AF83E5082472
:100AF000FFF508E50934FFF509E508450970D67FDB
:100B000006020A2C74F01209C074E512095074012F
:100B100012099CEAF0A3EBF0ECFEEDFF803D750AB4
:100B200001750B00780A120A72742D12099C120AC0
:100B300085EEFCEFFD740512099CE0FAA3E0FB12C0
:100B4000082D74041209668A0A8B0BAE0AAF0B7467
:100B50002B12099CE508F0A3E509F0742B12099CFF
:100B6000120E8E700E7A007B00741B1209667F08CD
:100B7000020A2C742B12099CE02401F508A3E0342E
:100B800000F5097425687096850882850983E085DB
:100B90001082851183F0742B12099C120ED9742BCC
:100BA00012099CE8F0A3E9120E8524DB7003020E03
:100BB0007124CD7003020DFB24F5602F1470030225
:100BC0000C4524FB607F24FA7003020DFB147003B4
:100BD000020E1224FD7003020E3924FE7003020D72
:100BE000FB24FD7003020DFB020B5B742D12099CAC
:100BF000120EA1C0E0740512099CD0E0F0742D1211
:100C0000099C120ED012099C120EBE7508017509BE
:100C1000007808120A7274071209A68808890978F0
:100C200008120A72EEFCEFFD740512099CE0FAA3AB
:100C3000E0FB12082D74041209668A088B09AE08BD
:100C4000AF09020B5B742D12099C120EA1F508A3CB
:100C5000E0F5093395E0F50AF50B742D12099C12A5
:100C60000ED012099C120EBE900921780812083F7E
:100C70004034750C01750D00780C120A72750C1D4C
:100C8000750D09780C120A72EEFCEFFD740512095D
:100C90009CE0FAA3E0FB12082D74041209668A0C8A
:100CA0008B0DAE0CAF0D8510828511837464120E0E
:100CB00085646F7009740C12099C74088017E044F5
:100CC0002064786009740C12099C740A8007740C03
:100CD00012099C7410F0A3E4F0A3F0A3F0740312C3
:100CE000099C740BF0A3E4F0740612099C780812B6
:100CF0000907851082851183E064647023900921BF
:100D0000780812083F4019740612099C78081208E6
:100D1000F878081208D4740612099C78081209079A
:100D2000740312099CE024FFFAA3E034FFFB740370
:100D300012099CEAF0A3EBF0740612099C780C12DD
:100D400008F8740C12099C78081208F8780C7908D5
:100D5000120865E5082430F8C3943A400B851082E8
:100D6000851183E024AF28F8741012099CE5822ACB
:100D7000FAE5833BFB740A12099CEAF0A3EBF0E866
:100D8000C0E0740A12099C120E94D0E0F0740612AE
:100D9000099C780C1208F8740C12099C7808120847
:100DA000F8780C7908120865740612099C780C1200
:100DB0000907740612099C120916E8494A4B601784
:100DC000740312099CC3E09401A3E09400A2D265CD
:100DD000D0334003020D20740312099CE0F8A3E015
:100DE000F9740BC398F508E499F5097808120A72AA
:100DF000740C12099C120A85020C24742D12099C91
:100E0000120EAD12099C120ED012099C120EC302D2
:100E10000CAE742D12099C120EAD12099C120ED04C
:100E200012099C120EBE90092578081208E585105B
:100E3000828511837478020CAE742D12099C120EF7
:100E40008EA3E0F988828983E0F508A3E0F509E83C
:100E50002402F8500109742D12099C120EBEAA0832
:100E6000AB091208278A0A8B0B780A120A72020C45
:100E70001F7508017509007808120A7275081F7538
:100E80000909020C1FF0851082851183E022120EE1
:100E900094E0F822120E9822E0F8A3E0F58388820D
:100EA00022120EA522120E98120E98E022120EA502
:100EB000F508A3E0F509E4F50AF50B742D22120EEE
:100EC000C3F022E0FAA3E0F5838A82E8F0A3E922E6
:100ED000120E94120ED9742D22E02402F8A3E034ED
:100EE00000F922C082C0831207CD1207FD1207EB62
:100EF0007A007900120803D083D08202006274F76E
:100F00001209C07F00800D79001207D90EEEC3943C
:100F10008040F40FEFC39408501574B02FF91207F6
:100F2000D379011207D379101207D37E0080DE7FB8
:100F300001020A2C74F41209C0890A8A08EC4D6077
:100F400007E50AC394044003020FF675F002E50AB0
:100F5000A4F509ECFEEDFF80228E828F83E0F9E597
:100F600009FC7D00E508FA7B0012080974082508D1
:100F7000F5088E828F83A3AE82AF838E828F83E04B
:100F800060748E828F83E0C39480501CE508F879EA
:100F900000E82408F8500109C3E89481E99400A20C
:100FA000D265D03340B3804EE508F87900E82410CC
:100FB000F8500109C3E89481E99400A2D265D033C6
:100FC00050348E828F83A3E0F50B780B120A768E55
:100FD000828F83E0F9E509FC7D00E508FA7B0012C9
:100FE000080F740112096674102508F508EE240232
:100FF000FE50880F80857F04020A2CC082C083C205
:10100000977A3C7B0079011207A9D297D083D082CE
:10101000020062C082C0831207F779AE1207D3794B
:10102000001207D379101207D379401207D37981C0
:101030001207D379CF1207D379A11207D379C81237
:1010400007D379A61207D379A81207D3793F1207DD
:10105000D379D31207D379001207D379D51207D3E6
:1010600079801207D379D91207D379F11207D3798E
:10107000DA1207D379121207D379DB1207D379403A
:101080001207D379201207D379021207D3798D1270
:1010900007D379141207D379A41207D379A61207BC
:1010A000D379AF1207D3D083D08202006274F712D3
:1010B00009C0E9FEEAFF74B02EF91207D3EFC45459
:1010C0000F4410F91207D3740F5F4401F91207D3CC
:1010D0007F01020A2C74F21209C08A0A8B0BECFE03
:1010E000EDFF890DE50DC39421402AE50DF8790047
:1010F000E824E0F508E934FFF509E50875F010A4E7
:10110000C508A8F075F000A428F875F010E509A44A
:1011100028F5098006750800750900AA0AEEF9127B
:101120000803750C00801EE50CF87900E50828F826
:10113000E50939F9741328F582740339F583E0F968
:101140001207D9050CE50CC3940840DBAA0AEE246B
:1011500001F91208037E00801CEEF87900E50828EA
:10116000F8E50939F9741B28F582740339F583E031
:10117000F91207D90EEEC3940840DE7F06020A2C4E
:1011800074F21209C0EAFEEBFF8C088D09890C7518
:101190000A00750B00740E12099CE0FA8008050A1B
:1011A000E50A7002050BC3E50A9408E50B940040BC
:1011B00003021292A80AA90BE875F022A4C8ABF0AA
:1011C00075F000A42BFB75F022E9A42BF974032819
:1011D000F582740239F583E0650C70C2A80AA90B88
:1011E000E875F022A4C8ABF075F000A42BFB75F0F5
:1011F00022E9A42BF9740428F582740239F583E0FE
:101200006A709BEEFAA908120803750D008035A8D4
:101210000AA90BE875F022A4C8AAF075F000A42A68
:10122000FA75F022E9A42AF9E50DFA7B0074052A83
:10123000FA74023BFBEA28F582EB39F583E0F912F8
:1012400007D9050DE50DC3941040C4EEFAE5082456
:1012500001F91208037E008033A80AA90BE875F093
:1012600022A4C8AAF075F000A42AFA75F022E9A415
:101270002AF9EEFA7B0074152AFA74023BFBEA287D
:10128000F582EB39F583E0F91207D90EEEC394101D
:1012900040C77F06020A2CC082C0831207BBD083DE
:1012A000D08202006274F41209C074FD1209508ADF
:1012B000088B09900200AC10AD11740312092FC203
:1012C000867A1E7B0079011207A9D2867A207B00DC
:1012D0001207A353FDBF53F3BF538FBF43F720A2A1
:1012E00086500302139A7E2E7F04A2864010EEF8E9
:1012F000EFF9E824FFFEE934FFFFE84970ECEE4F18
:10130000700302139A7E2E7F047A507B001207A38B
:10131000A2865010EEF8EFF9E824FFFEE934FFFF53
:10132000E84970ECEE4F60721207C1E9FE1207C186
:10133000E9F50B1207C1E9FF1207C1E9F50A120727
:10134000C1E9FA7B00EEF87900E50BFC7D00E82CA2
:10135000F8E93DF9EFFC7D00E82CF8E93DF9E50AF4
:10136000FC7D00E82CF8E93DF9E86A7002E96B7051
:1013700029EFC0E0740112099CD0E0F0EEC0E074E7
:101380000212099CD0E0F0EEFAEFF91207C7E9C0AB
:10139000E0851082851183D0E0F01207BB851082B2
:1013A000851183AC08AD09ECFAEDFB740312092F2B
:1013B00074031209667F04020A2C43FD4053F3BFF5
:1013C000D28602006274F71209C07E007F00803C62
:1013D0007A327B001207A3A286502CEEC333FED3D1
:1013E000EE92E0FE782E7904A2865010E8FAE9FB2E
:1013F000EA24FFF8EB34FFF9EA4B70ECE849700B94
:10140000EEF97F01020A2CEEC333FE0FEFC39408FE
:1014100050EE78E67914A2864010E8FAE9FBEA2457
:10142000FFF8EB34FFF9EA4B70ECE84970A280D08A
:10143000E9F8EAC39414C3944C500EE8C3943350B3
:10144000047901801079F2800CE8C3943350047958
:10145000F1800279F302006274671209507E005332
:10146000C6BFE59EA2E640FA53C6B81207E51207CA
:10147000AF1207EB0EEEF5087509007808120A7234
:101480007C037D0974051209AE1208217402120949
:101490006674031209B67A0079001207F1AA10AB3C
:1014A000111207B5851082851183E0605A7401120C
:1014B000099CE0F5087509007808120A727C0B7D1A
:1014C0000974691209AE12082174021209667402C5
:1014D00012099CE0F5087509007808120A727C145C
:1014E0007D0974371209AE1208217402120966745C
:1014F000671209B67A0079011207F174351209B63C
:101500007A0079021207F17AA07B0F79011207A9FC
:1015100002147174F61209C074FC120950EAFEEB51
:10152000FF740E1209A6740212099CE8F0A3E9F0F8
:10153000851082851183EEF0A3EFF074021209A6E4
:10154000880889097808120A728C088D09780812AF
:101550000A7274041209B67A397B081208337404CB
:101560001209668A08851082851183E0FAA3E0F5E6
:10157000838A82E4F0C3EB9400A2D265D033500496
:10158000AA088012851082851183E0F8A3E0F9E8AB
:10159000C39EFAE99FFB74041209667F02020A2CBB
:1015A00043FE0453F4FBD29243FE0853F4F743FD89
:1015B0000853F3F7D28343FD0153F3FE43FE8053F8
:1015C000F47F02006274F71209C0E9FEC283C28090
:1015D000EEF91207DFD2837F01020A2C74F7120999
:1015E000C0E9FEC283D280EEF91207DFD2837F0109
:1015F000020A2C78008009D293E9C333F9D2920809
:10160000E8C39408500BC292E9A2E740EAC2938073
:10161000E802006278007900C3E89AE99B500E0066
:1016200000000000000008E870EE0980EB02006294
:1016300074F61209C0E9700875081775090280066A
:1016400075082E7509047E007F00C3EE9AEF9B504B
:101650001B7C007D00C3EC9508ED950950070CEC50
:1016600070F30D80F00EEE70E10F80DE7F02020A53
:101670002CC082C0838A828B83E0F8A3E0F5838844
:1016800082E9F08A828B83E02401FCA3E03400FD30
:101690008A828B83ECF0A3EDF0D083D082020062CB
:1016A00074F71209C074FE120950EAFEEBFF8510B0
:1016B00082851183EEF0A3EFF0AA10AB117901122D
:1016C000081580EAC082C0838A828B838001A3E0F0
:1016D00070FCE582C39AFAE5839BFBD083D082023B
:1016E0000062C082C08312081BD083D082020062D5
:0316F00002006293
:040000050000004AAD
:00000001FF
